:02000002B0004C
:1040000000400B0046C40B00000006000D00050236
:084010000401B41400000000DB
:04401800F8AB0B00F6
:1040200081F0004102E000BF83F0004330B54FEA69
:1040300041044FEA430594EA050F08BF90EA020FD6
:104040001FBF54EA000C55EA020C7FEA645C7FEA69
:10405000655C00F0E2804FEA5454D4EB5555B8BF8C
:104060006D420CDD2C4480EA020281EA030382EAFD
:10407000000083EA010180EA020281EA0303362D8F
:1040800088BF30BD11F0004F4FEA01314FF4801C62
:104090004CEA113102D0404261EB410113F0004F74
:1040A0004FEA03334CEA133302D0524263EB43032B
:1040B00094EA050F00F0A780A4F10104D5F1200EC9
:1040C0000DDB02FA0EFC22FA05F2801841F1000124
:1040D00003FA0EF2801843FA05F359410EE0A5F1F8
:1040E00020050EF1200E012A03FA0EFC28BF4CF029
:1040F000020C43FA05F3C01851EBE37101F00045DF
:1041000007D54FF0000EDCF1000C7EEB00006EEBEB
:104110000101B1F5801F1BD3B1F5001F0CD3490875
:104120005FEA30004FEA3C0C04F101044FEA4452CC
:1041300012F5800F80F09A80BCF1004F08BF5FEA53
:10414000500C50F1000041EB045141EA050130BD33
:104150005FEA4C0C404141EB0101013C28BFB1F545
:10416000801FE9D291F0000F04BF01460020B1FA90
:1041700081F308BF2033A3F10B03B3F120020CDA63
:104180000C3208DD02F1140CC2F10C0201FA0CF041
:1041900021FA02F10CE002F11402D8BFC2F1200CA6
:1041A00001FA02F120FA0CFCDCBF41EA0C0190405C
:1041B000E41AA2BF01EB0451294330BD6FEA0404A5
:1041C0001F3C1CDA0C340EDC04F11404C4F1200290
:1041D00020FA04F001FA02F340EA030021FA04F3A2
:1041E00045EA030130BDC4F10C04C4F1200220FAF9
:1041F00002F001FA04F340EA0300294630BD21FA37
:1042000004F0294630BD94F0000F83F4801306BFFC
:1042100081F480110134013D4EE77FEA645C18BFF0
:104220007FEA655C29D094EA050F08BF90EA020F87
:1042300005D054EA000C04BF1946104630BD91EA7F
:10424000030F1EBF0021002030BD5FEA545C05D182
:104250004000494128BF41F0004130BD14F58004C1
:104260003CBF01F5801130BD01F0004545F0FE4135
:1042700041F470014FF0000030BD7FEA645C1ABF6A
:10428000194610467FEA655C1CBF0B46024650EAA1
:10429000013406BF52EA033591EA030F41F40021CD
:1042A00030BD00BF90F0000F04BF0021704730B553
:1042B0004FF4806404F132044FF000054FF0000128
:1042C00050E700BF90F0000F04BF0021704730B5E9
:1042D0004FF4806404F1320410F0004548BF4042BE
:1042E0004FF000013EE700BF42004FEAE2014FEA13
:1042F00031014FEA02701FBF12F07F4393F07F4FEE
:1043000081F06051704732F07F4208BF704793F0F0
:104310007F4F04BF41F40021704730B54FF4607403
:1043200001F0004521F000411CE700BF50EA010206
:1043300008BF704730B54FF000050AE050EA0102AF
:1043400008BF704730B511F0004502D5404261EB1F
:1043500041014FF4806404F132045FEA915C3FF460
:10436000D8AE4FF003025FEADC0C18BF03325FEAFD
:10437000DC0C18BF033202EBDC02C2F1200300FAAE
:1043800003FC20FA02F001FA03FE40EA0E0021FAD3
:1043900002F11444BDE600BF70B54FF0FF0C4CF4C1
:1043A000E06C1CEA11541DBF1CEA135594EA0C0F73
:1043B00095EA0C0F00F0DEF82C4481EA030621EAAE
:1043C0004C5123EA4C5350EA013518BF52EA0335E9
:1043D00041F4801143F4801338D0A0FB02CE4FF09B
:1043E0000005E1FB02E506F00042E0FB03E54FF0CB
:1043F0000006E1FB03569CF0000F18BF4EF0010EC3
:10440000A4F1FF04B6F5007F64F5407404D25FEABE
:104410004E0E6D4146EB060642EAC62141EA555171
:104420004FEAC52040EA5E504FEACE2EB4F1FD0CB3
:1044300088BFBCF5E06F1ED8BEF1004F08BF5FEA31
:10444000500E50F1000041EB045170BD06F00046E3
:1044500046EA010140EA020081EA0301B4EB5C0490
:10446000C2BFD4EB0C0541EA045170BD41F4801188
:104470004FF0000E013C00F3AB8014F1360FDEBFAD
:10448000002001F0004170BDC4F10004203C35DA89
:104490000C341BDC04F11404C4F1200500FA05F30C
:1044A00020FA04F001FA05F240EA020001F00042AD
:1044B00021F0004110EBD37021FA04F642EB060123
:1044C0005EEA430E08BF20EAD37070BDC4F10C044D
:1044D000C4F1200500FA04F320FA05F001FA04F211
:1044E00040EA020001F0004110EBD37041F10001FD
:1044F0005EEA430E08BF20EAD37070BDC4F1200508
:1045000000FA05F24EEA020E20FA04F301FA05F26F
:1045100043EA020321FA04F001F0004121FA04F217
:1045200020EA020000EBD3705EEA430E08BF20EAE7
:10453000D37070BD94F0000F0FD101F00046400021
:1045400041EB010111F4801F08BF013CF7D041EAA3
:10455000060195F0000F18BF704703F000465200A7
:1045600043EB030313F4801F08BF013DF7D043EA78
:104570000603704794EA0C0F0CEA135518BF95EA2E
:104580000C0F0CD050EA410618BF52EA4306D1D1B5
:1045900081EA030101F000414FF0000070BD50EAD4
:1045A000410606BF1046194652EA430619D094EA5E
:1045B0000C0F02D150EA013613D195EA0C0F05D148
:1045C00052EA03361CBF104619460AD181EA03019C
:1045D00001F0004141F0FE4141F470014FF0000054
:1045E00070BD41F0FE4141F4780170BD70B54FF0EF
:1045F000FF0C4CF4E06C1CEA11541DBF1CEA13556F
:1046000094EA0C0F95EA0C0F00F0A7F8A4EB050450
:1046100081EA030E52EA03354FEA013100F0888047
:104620004FEA03334FF0805545EA131343EA126310
:104630004FEA022245EA111545EA10654FEA0026C5
:104640000EF000419D4208BF964244F1FD0404F57E
:10465000407402D25B084FEA3202B61A65EB0305DA
:104660005B084FEA32024FF480104FF4002CB6EB97
:10467000020E75EB030E22BFB61A754640EA0C0017
:104680005B084FEA3202B6EB020E75EB030E22BF57
:10469000B61A754640EA5C005B084FEA3202B6EB98
:1046A000020E75EB030E22BFB61A754640EA9C0057
:1046B0005B084FEA3202B6EB020E75EB030E22BF27
:1046C000B61A754640EADC0055EA060E18D04FEAE5
:1046D000051545EA16754FEA06164FEAC30343EA85
:1046E00052734FEAC2025FEA1C1CC0D111F4801F52
:1046F0000BD141EA00014FF000004FF0004CB6E74B
:1047000011F4801F04BF01430020B4F1FD0C88BFE9
:10471000BCF5E06F3FF6AFAEB5EB030C04BFB6EBF4
:10472000020C5FEA500C50F1000041EB045170BDE7
:104730000EF0004E4EEA113114EB5C04C2BFD4EB14
:104740000C0541EA045170BD41F480114FF0000E98
:10475000013C90E645EA060E8DE60CEA135594EA14
:104760000C0F08BF95EA0C0F3FF43BAF94EA0C0F17
:104770000AD150EA01347FF434AF95EA0C0F7FF48C
:1047800025AF104619462CE795EA0C0F06D152EAE0
:1047900003353FF4FDAE1046194622E750EA4106C4
:1047A00018BF52EA43067FF4C5AE50EA41047FF4D5
:1047B0000DAF52EA43057FF4EBAE12E74FF0FF3C3A
:1047C00006E000BF4FF0010C02E000BF4FF0010C0B
:1047D0004DF804CD4FEA410C7FEA6C5C4FEA430C84
:1047E00018BF7FEA6C5C1BD001B050EA410C0CBFD3
:1047F00052EA430C91EA030F02BF90EA020F002035
:10480000704710F1000F91EA030F58BF994208BF9B
:1048100090422CBFD8176FEAE37040F00100704758
:104820004FEA410C7FEA6C5C02D150EA013C07D1AF
:104830004FEA430C7FEA6C5CD6D152EA033CD3D0FA
:104840005DF8040B704700BF8446104662468C46F4
:104850001946634600E000BF01B5FFF7B7FF002827
:1048600048BF10F1000F01BD4DF808EDFFF7F4FF50
:104870000CBF012000205DF808FB00BF4DF808EDDB
:10488000FFF7EAFF34BF012000205DF808FB00BFFE
:104890004DF808EDFFF7E0FF94BF012000205DF820
:1048A00008FB00BF4DF808EDFFF7CEFF94BF0120D5
:1048B00000205DF808FB00BF4DF808EDFFF7C4FFCE
:1048C00034BF012000205DF808FB00BF4A0011D270
:1048D00012F5001211D20DD56FF47873B3EB62525A
:1048E0000ED44FEAC12343F0004343EA505323FA66
:1048F00002F070474FF00000704750EA013002D1DB
:104900004FF0FF3070474FF0000070474FEA410210
:10491000B2F1E04324BFB3F5001CDCF1FE5C0DD91D
:1049200001F0004C4FEAC0024CEA5070B2F1004F67
:1049300040EB830008BF20F00100704711F0804F6A
:1049400021D113F13872BCBF01F00040704741F42F
:1049500080114FEA5252C2F11802C2F1200C10FA33
:104960000CF320FA02F018BF40F001004FEAC12317
:104970004FEAD32303FA0CFC40EA0C0023FA02F3BB
:104980004FEA4303CCE77FEA625307D150EA013391
:104990001EBF4FF0FE4040F44000704701F0004061
:1049A00040F0FE4040F40000704700BFD0B50C4B13
:1049B000002206460F46FFF7EFFCFFF787FF04468D
:1049C000FFF770FC074B0022FFF7E6FC02460B46A0
:1049D00030463946FFF728FBFFF778FF2146D0BD68
:1049E0000000F03D0000F04110F8012B11F8013BF0
:1049F000012A28BF9A42F7D0D01A7047034613F80D
:104A0000012B002AFBD1181A0138704738B5002253
:104A1000002304460D46FFF731FF28B920462946FA
:104A2000BDE83840FFF7C2BF204605F10041FFF75F
:104A3000BDFF404261EB410138BD00BF09480A4952
:104A4000884208B505D0094A824202D0121A04F001
:104A500051F80748074A0021121A04F073F8014878
:104A600008BD00BF10E203206CB90B00BCE40320BA
:104A7000C0E40320F4E7032070B5074E074C03F0B1
:104A80009BFEA41BA4080025AC4200D170BD56F8C3
:104A9000043B98470135F7E71CB90B0048B90B00F8
:104AA00000F05EBE08B500F051FDBDE8084003F01F
:104AB0003BBE02F081BC02F07FBC02F085BC00006E
:104AC00008B5034A03490C2002F03EFBFEE700BF95
:104AD000896E0B000CAC0B000078B0FA80F0400936
:104AE0007047012303707047014B01221A70704711
:104AF00041E6032008B5044903F031FB18B1034B2C
:104B000003221A70012008BD5CAC0B00E0E5032015
:104B100010B5034B0360044601F01CF8204610BD9D
:104B2000A0B00B0010B50446FFF7F2FF204610219D
:104B3000FFF7C3FF204610BD10B5034B03600446CA
:104B400001F012FF204610BD78B00B0010B50446EE
:104B5000FFF7F2FF20463821FFF7AFFF204610BDD8
:104B600037B504689DF818508DF800308DF8045062
:104B7000E4683C23A04703B030BD000037B51649B8
:104B8000054603F0ECFA044688B1144B1448154A64
:104B9000154901245C7200238DF80030134B1B78FB
:104BA000FFF7DEFF124B20461C7003B030BD1149E9
:104BB000284603F0D4FA0028F7D0084B08485C7266
:104BC0000A4B8DF800401B780B4A0749FFF7C8FFD6
:104BD000074B01201870E8E75CAC0B00E4E503200C
:104BE00064E503205EAC0B0081AC0B00CCE4032039
:104BF00000E603206FAC0B0071AC0B0037B51A4D0B
:104C00000C4659B96B7A1BB3184B8DF800101B7802
:104C1000174A18491848FFF7A3FF19E0084603F0A0
:104C200046FFC83801286B7A14D84BB100238DF8A1
:104C300000300E4B114A1B7811490F48FFF790FFC7
:104C4000104A00231360104A012111700F4A13709B
:104C500003B030BD002BFBD000238DF80030034B98
:104C600022461B78D5E700BFE4E50320CCE403200F
:104C700086AC0B008EAC0B0064E503209BAC0B00F4
:104C8000ADAC0B00D4E40320ECE403200DE50320DD
:104C90000023042202F0D0BA07B501230822CDE98F
:104CA00000234FF47A71002341436A46184602F00C
:104CB00013FB03B05DF804FB37B51849054603F054
:104CC0004EFA0446B8B1164B012258685A70FFF7E5
:104CD000E3FF02F0C9FA48B100238DF80030114B10
:104CE000114A1B7811491248FFF73AFF114B012076
:104CF000187003B030BD1049284603F030FA002880
:104D0000F7D0074B5C7002F0AFFA0028EED0054BED
:104D10008DF800401B78094AE4E700BF5CAC0B004B
:104D2000E4E50320CCE40320B3AC0B0081AC0B0022
:104D300064E5032000E603206FAC0B00C8AC0B0059
:104D400010B5C4B000680A2203A904F02DFEB0F526
:104D5000966F19D80D4C6060FFF79EFF63680C4A90
:104D60004FF4807104A802F047FB00238DF8003057
:104D7000084B09481B78094904AAFFF7F1FE084BC4
:104D80000120187044B010BD0020FBE7E4E50320CB
:104D9000DCAC0B00CCE4032064E50320F5AC0B0095
:104DA00000E6032007B502F05FFA48B100238DF852
:104DB00000300C4B0C4A1B780C490D48FFF7D0FE15
:104DC0000C4A0D487823536040F2011313800023EE
:104DD0005372937201211C2303B05DF804EB00F0C1
:104DE00074BF00BFCCE4032000AD0B0081AC0B000E
:104DF00064E50320E4E5032010E5032007B502F095
:104E000033FA48B100238DF800300C4B0C4A1B7864
:104E10000C490D48FFF7A4FE0C4A0D4B93604FF070
:104E20008043D3600B4B13610B480C4B53615021F3
:104E3000182303B05DF804EB00F047BFCCE4032077
:104E400018AD0B0081AC0B0064E50320D4E4032013
:104E50000000F0410000B44210E503200000A04033
:104E600010B5124C237A012B04D902F0FDF9D8B108
:104E7000012323726368B3F5966F84BF4FF41673F2
:104E80006360637A012B84BF00236372A37A012BD2
:104E900084BF0023A3726369FF2B84BF0023636177
:104EA000034B01221A7010BD2072E3E7E4E50320F2
:104EB00000E60320224B93ED037AB5EEC07AF1EEC3
:104EC00010FAF3EE047A04D4B4EEE77AF1EE10FAB5
:104ED00001DD1C4ADA6093ED027AB4EEE77AF1EE76
:104EE00010FA06D4DFED186AB4EEE67AF1EE10FAA5
:104EF00001DD164A9A6093ED057AB5EEC07AF1EEBF
:104F000010FA06D4DFED126AB4EEE67AF1EE10FA8A
:104F100001DD104A5A6193ED047AB4EEE77AF1EEBE
:104F200010FA06D4DFED087AB4EEE77AF1EE10FA63
:104F300001DD094A1A61094B01221A70704700BF4E
:104F4000D4E40320000040400000B44200000442CA
:104F5000000048420000504100007C42ECE4032085
:104F600007B50121052003F0C0FC0021052003F056
:104F7000BCFC094A00231370084A527A42B18DF8EA
:104F80000030074B074A1B7807490848FFF7E8FD40
:104F900003B05DF804FB00BF41E60320E4E5032015
:104FA000CCE403202FAD0B0036AD0B0064E50320ED
:104FB00010B5134CA0B02369E0680493FFF794F98F
:104FC000CDE90201A068FFF78FF90E4ACDE9000193
:104FD000642107A802F010FA00238DF800300A4B74
:104FE0000A491B780A4807AAFFF7BAFD094B0122B4
:104FF0001A7001F051FF084B186020B010BD00BFBF
:10500000BCE503203FAD0B00CCE4032074AD0B00E6
:1050100064E503200DE5032044E6032038B50B4D7D
:10502000044601F039FF2B68C01AB0F57A7F0CD91D
:10503000A4B2204603F072FCB0FA80F14909204680
:1050400003F053FC01F028FF286038BDD0E40320B2
:1050500030B5114D114C12492A7820788DB01A23A1
:1050600003FB0212009203FB00130E4A282102A840
:1050700002F0C2F92B78237002F0F6F848B1002351
:105080008DF80030084B09491B78094802AAFFF740
:1050900067FD0DB030BD00BFE0E5032060E50320F3
:1050A00010E203208AAD0B00CCE4032098AD0B0086
:1050B00064E5032013B5174CA068FFF715F9164AED
:1050C000CDE900011821154802F096F9E068FFF7D4
:1050D0000BF9134ACDE900011821124802F08CF9AE
:1050E0002069FFF701F9104ACDE9000118210F48A6
:1050F00002F082F96069FFF7F7F80D4ACDE9000187
:1051000018210C4802F078F90B4B01221A7002B0FA
:1051100010BD00BFD4E40320A9AD0B0029E6032095
:10512000BAAD0B0048E50320CBAD0B0011E6032020
:10513000DFAD0B0030E50320ECE4032000B589B0BF
:10514000039003F037F80D4B039983ED020A04A88E
:1051500002F0FAFF00238DF80030094B049A1B7807
:1051600008490948FFF7FCFC04A802F07FFFFFF79D
:10517000A1FF012009B05DF804FB00BFD4E40320C7
:10518000CCE40320F4AD0B0064E5032000B589B046
:10519000039003F00FF80D4B039983ED030A04A865
:1051A00002F0D2FF00238DF80030094B049A1B78DF
:1051B00008490948FFF7D4FC04A802F057FFFFF79D
:1051C00079FF012009B05DF804FB00BFD4E403209F
:1051D000CCE4032014AE0B0064E5032000B589B0D5
:1051E000039002F0E7FF0D4B039983ED040A04A836
:1051F00002F0AAFF00238DF80030094B049A1B78B7
:1052000008490948FFF7ACFC04A802F02FFFFFF79C
:1052100051FF012009B05DF804FB00BFD4E4032076
:10522000CCE4032034AE0B0064E5032000B589B064
:10523000039002F0BFFF0D4B039983ED050A04A80C
:1052400002F082FF00238DF80030094B049A1B788E
:1052500008490948FFF784FC04A802F007FFFFF79C
:1052600029FF012009B05DF804FB00BFD4E403204E
:10527000CCE4032051AE0B0064E5032030B585B0CB
:105280000D4600226946009201F06EFF90B9009C25
:105290000CB1236923B9084A08490A2001F054FFD8
:1052A0000C23CDE901350423039301AA23690121CD
:1052B0002046984705B030BD896E0B006EAE0B00DE
:1052C00030B5114D0FCD89B001AC0FC495E8070082
:1052D00084E8070069460720FFF7D0FF0028A8BF31
:1052E00000980A4B0A4A187408ABC0B203EB80005E
:1052F000102150F81C3C074802F07EF8064B0122B2
:105300001A7009B030BD00BF5CAB0B00E4E50320B0
:1053100034B10B00EDE4032000E60320F0B52DEDE1
:10532000028B774B97B006AA03F110051746186851
:105330005968144603C40833AB422246F7D11868B3
:105340009B882060A3802A2200216E4D0DF12E0043
:1053500003F0F8FB00246C482C7001F029FDB5EE39
:10536000400AF1EE10FA00F0AA80674801F020FD33
:1053700010EE100A85ED020AFEF7B6FF634ACDE98A
:1053800000011021624802F037F85F4801F01EFD6D
:1053900010EE100A85ED030AFEF7A6FF5D4ACDE97F
:1053A000000110215C4802F027F805A90320FFF74F
:1053B00065FF002840F09E80BDF8143007EE903A5B
:1053C000FBEECC7AFDEEE77A544E554A5548C5EDD2
:1053D000047A17EE903A102102F00EF895ED028A49
:1053E000D6ED037AB4EEE78AF1EE10FA40F185804B
:1053F000012417EE900A7470FEF776FFCDE90201E2
:1054000018EE100AFEF770FF474ACDE9000140216F
:10541000384601F0F1FF95ED028AD6ED027AB4EE3E
:10542000E78AF1EE10FA12DD012417EE900A3470CB
:10543000FEF75AFFCDE9020118EE100AFEF754FFFD
:105440003A4ACDE900014021384601F0D5FF95EDFB
:10545000038AD6ED057AB4EEE78AF1EE10FA12D59A
:10546000012417EE900AF470FEF73EFFCDE9020129
:1054700018EE100AFEF738FF2D4ACDE90001402151
:10548000384601F0B9FF95ED038AD6ED047AB4EE03
:10549000E78AF1EE10FA12DD012417EE900AB470DB
:1054A000FEF722FFCDE9020118EE100AFEF71CFFFD
:1054B000204ACDE900014021384601F09DFF012638
:1054C000FFF7FEFE2E7003F008F81B4B68601E709D
:1054D0001A4B1E704CB100238DF80030184B19493F
:1054E0001B7819483A46FFF73BFB204617B0BDEC46
:1054F000028BF0BDFFEE007A64E700248BE700BF6B
:1055000078AB0B00BCE50320D4E5032094AE0B0080
:1055100001E603209CAE0B0020E50320D4E4032029
:10552000A4AE0B00FDE40320AAAE0B00C7AE0B0037
:10553000E5AE0B0006AF0B00D0E50320ECE4032042
:10554000CCE4032028AF0B0064E50320F7B5704CD2
:10555000704E2378704D013B042B52D8DFE803F0E6
:10556000B403193180006D4B5B7A2BB16C4B1B7807
:10557000022B01D0FFF76CFD02F0AFFF4FF49663F2
:1055800090FBF3F202FB130000283AD103232370AF
:1055900037E0624B5B7A2BB1614B1B78032B01D058
:1055A000FFF756FDFFF7BAFE014628B1012333711C
:1055B00001232B700423EAE73071072003F095F9EB
:1055C000F6E7564B5B7A2BB1554B1B78042B01D079
:1055D000FFF73EFD01F048FE68B102F08FFF0C2896
:1055E00005D101F041FE10B1002001F05DFEFFF792
:1055F000DFFC0523CBE70123237001F04DFC494B71
:105600001860494800F064FF484B1B780BB1FFF766
:10561000A7FC337913B10720FFF700FD444C237832
:105620003BB11C233D4A4348012100F04EFB0023BF
:1056300023702B783BB11823364A3E48502100F0A6
:1056400044FB00232B703C4C23783BB114233B4A92
:105650003848A02100F039FB0023237003B0F0BDCF
:105660002E4B5B7A2BB12E4B1B78052B01D0FFF70D
:10567000EFFC334B1B7853B902F02FFF4FF49663C6
:1056800090FBF3F202FB130008B102237FE701F065
:1056900003FC2C4B1B68C01A4AF6C8739842B0D959
:1056A00001F0FAFB00238DF800301E4F264B274AED
:1056B0001B78274938602748FFF752FA01232370E7
:1056C00001F0EAFB38609CE7154B1B78012B01D0F9
:1056D000FFF7BEFC01F0E0FB124B1B6803F59223C1
:1056E00003F5787383428CD201F0BEFD48B10023EC
:1056F0008DF80030144B184A1B7818491548FFF7ED
:105700002FFA4FF4FA6001F0C7FE02F075FD78E75A
:10571000E0E50320D4E40320ECE40320E4E50320E7
:1057200060E503209CE50320A0E5032041E603207B
:1057300000E6032010E50320D0E50320BCE50320AC
:105740000DE5032044E60320CCE40320D8B40B008D
:105750002FAF0B0064E5032048AF0B00ADAC0B008E
:105760002DE9F0430021BBB0082003F0ADF8012182
:10577000052003F0A9F80121072003F0A5F8FFF7A1
:10578000EFFB0023009301224FF0FF3390490820E4
:1057900002F0B6FA8F4B0AAA03F1100516461868F4
:1057A0005968144603C40833AB422246F7D119881E
:1057B0009B78A37021802D220021874DDFF8E482A1
:1057C0000DF13B00002403F0BDF902A82C7001F09C
:1057D00053FD23467D221AA902A802F0D2FC2346DB
:1057E00022467E49CDE900441AA801F055FD7C49C6
:1057F0007C48FFF74DFA7C497C48FFF749FA7C4921
:105800007C48FFF745FA7C497C48FFF741FA7C4920
:105810007C48FFF73DFA7C497C48FFF739FA7C4920
:105820007C48FFF735FA7C497C48FFF731FA7C4920
:105830007C48FFF72DFA7C497C482346022201F080
:10584000FBFC23467A497B48012201F0F5FC7A4AA9
:105850007A497B4801F015FF7A4A7B49784801F084
:1058600010FF7A4A7A49764801F00BFF794A7A4963
:10587000734801F006FF794A7949714801F001FF48
:10588000784A79496E4801F0FCFE784A78496C48BC
:1058900001F0F7FE674A7749694801F0F2FE764861
:1058A00000F00EFD2146744800F049FE02F015FE9E
:1058B0000246C31706A802F00BFD704998F80030A5
:1058C000069A6F488DF80040FFF74AF906A802F0E3
:1058D000CDFB6C48442101F0D4F948B96A493046FF
:1058E00003F066F901232B7001F0D6FA674B1860BC
:1058F000674800F05DF90123654806AA002100F021
:1059000099F99DF81830052B36D0614800F05AF906
:10591000604A5F480423002100F0D7F901235C4866
:1059200006AA002100F086F99DF81830052B1ED03C
:1059300001232B70584FFFF793FAFFF7BBFA7B78E0
:1059400063B3002001F0B8FA47F230590446002052
:1059500001F0B2FA001B61F10001484571F100034A
:1059600017D201F081FCA0B901F076FCEFE7FFF758
:1059700019FAFFF743FADDE7474A45481C2301219E
:1059800000F058F9454A42481823502100F052F9D6
:10599000D0E701F069FC7868FFF77EF9FFF7BEFCFD
:1059A000FFF788FB7B7A4BB100238DF800303C4930
:1059B00098F8003032483246FFF7D2F82B780BB90E
:1059C00002232B7002A802F051FB3BB0BDE8F0832C
:1059D000E94A0B00B8AB0B00E0E50320FD4B0B00E0
:1059E000B4B00B005CAF0B0001E6032064AF0B000A
:1059F00020E5032070AF0B0029E6032079AF0B00F0
:105A000048E503208BAF0B0011E603209DAF0B0090
:105A100030E50320ACAF0B00FDE40320BBAF0B006F
:105A2000EDE40320C3AF0B00E8E50320D2AF0B0089
:105A3000E5E50320BAAC0B00E1AF0B00F54A0B0023
:105A400057760B00EDAF0B007D4B0B00FAAF0B0050
:105A50003D510B000BB00B008D510B001CB00B0027
:105A60002D520B0031B00B00DD510B00F5AC0B00DB
:105A7000414D0B00B94C0B00A0E5032045B00B00D5
:105A800064E50320D4E503204AB00B009CE5032025
:105A900010E50320BCB00B00E4E50320D4E40320B0
:105AA00067B00B00CCE4032038B5204B01251D70F6
:105AB00002F0B4FE00231A46122102F0BFFE02F0EB
:105AC000ADFE00231A460D2102F0B0FE184B194A14
:105AD0009A600024C3E90044284601F057FB2146A0
:105AE000284601F063FB2946042001F0B5F912486D
:105AF000124D01F0A1F802F03FFF4FF400520146B1
:105B00002346284600F04AF80D4B2B6002F034FF84
:105B10000C4C01460C4800F0BBFA0C494FF40062F3
:105B2000204601F049F80A4B236038BDCCE403203D
:105B3000C0E403200000FFFFD4E5032010E50320AC
:105B4000A0B00B0064E50320A0E5032000F40320CF
:105B500078B00B00704710B510210446FEF7ADFF7A
:105B6000204610BD0368C9B29B6818470EB400B543
:105B70008CB00DAA4FF0200C52F8041B0392CDE913
:105B800000120023016804AA1E20CDE904C301F01D
:105B9000E3FA0CB05DF804EB03B0704730B5034D89
:105BA000C0E90223C0E9005130BD00BFF4B00B00D2
:105BB000406802F051B810B50446006802F095F84C
:105BC000204610BD2DE9F0418AB00446406801909E
:105BD00002F082F81E22002102A8A76802F0B2FF9C
:105BE0000026EFB123681E2FB84628BF4FF01E08CD
:105BF000DD6802AA434631462046A847054658B903
:105C00000A480B493246FFF7B1FF01A8FFF7D3FF5F
:105C100028460AB0BDE8F081A7EB08074644E0E754
:105C200001A8FFF7C8FF0125F2E700BF8CE60320BB
:105C3000C0B00B002DE9F7430446406801900D46C3
:105C400016461F4602F048F8A7B1E168606841F0C7
:105C5000500102F037F8290A6068FFF783FF2946F0
:105C60006068FFF77FFF6068002102F02EF848B1FE
:105C7000002400E0012401A8FFF79DFF204603B0A7
:105C8000BDE8F083202F217B6068B84628BF4FF025
:105C900020080123424641F0500101F0FAFF02F0D2
:105CA0006BFE03681B6998474045E1DB06EB08097A
:105CB00002F062FE03685B69984706F8010B4E45E7
:105CC000F6D14544A7EB0807BEE72DE9F74F044698
:105CD000406801900E4690461D4601F0FDFF4FF0D2
:105CE0000109B9F1000F2AD04DB3E168606841F0B5
:105CF000500101F0E7FF310A6068FFF733FF606889
:105D00003146FFF72FFFA5F11E0A4746A6EB080B09
:105D1000606817F8011B0368013D9B68984755456B
:105D20000BEB0706B84601D0002DF1D160680121C8
:105D300001F0CBFF0028D7D04FF00009D1E701A830
:105D4000FFF739FF484603B0BDE8F08F2DE9F04377
:105D50008BB00E4615468046406801901C4601F007
:105D6000BBFFAE4229D2264425448CB11E2C2746C7
:105D7000D8F8003028BF1E27F61BD3F8089002AAD7
:105D80003B4631464046ED1BC84748B9002400E079
:105D9000012401A8FFF70FFF20460BB0BDE8F083F8
:105DA000D8F8003002AAD3F80C9029463B4640466A
:105DB000C8470028EAD0E41BD7E7E9D9002CE7D090
:105DC000D8F800301E2C274628BF1E27D3F808908D
:105DD00002AA3B4631464046C8470028D6D0D8F8EC
:105DE000003002AAD3F80C9029463B464046C847EB
:105DF0000028CBD03E443D44E41BDFE74020704701
:105E00000020704780207047FF2070477047704720
:105E10007047704710B514210446FEF74EFE204629
:105E200010BD10B508210446FEF747FE204610BD00
:105E300010B508210446FEF740FE204610BD10B5FF
:105E40001C210446FEF739FE204610BD2DE9FF4116
:105E50000368DB680446984710220146684602F052
:105E600071FE236820469B68984700250746284610
:105E7000BD420ED27E1B2368102E28BF1026D3F8F9
:105E800018806A46334629462046C04708B1354443
:105E9000EEE704B0BDE8F0810368C9B29B6818471B
:105EA0004FF48073438140F20113C36000230382E7
:105EB00070470000064A026008B5064A426040F298
:105EC0000472028100224274FFF7EAFF08BD00BF9E
:105ED000D4B10B000001020303090A2200F00F00F5
:105EE00002FB0300704708B5807AFFF7F5FF00F565
:105EF000FA6008BDC07A00F01F00FFF7EDBF007B1D
:105F000000F03F00FFF7E8BF08B5817B4A060DD5DA
:105F100001F01F00FFF7E0FF8B0603D50C2800D02F
:105F20000C3008BD0C2808BF0020FAE7BDE8084087
:105F300001F03F00FFF7D0BFC07B00F07F00FFF70C
:105F4000CBBF007C00F07F00FFF7C6BF10B58AB062
:105F500024220446002101A802F0F4FD2046FFF7A8
:105F6000C2FFA0F26C7006902046FFF7C3FF013815
:105F700005902046FFF7C3FF04902046FFF7C4FFBB
:105F800003902046FFF7D8FF02902046FFF7D9FF85
:105F9000019001A801F078FA0AB010BD0A2290FB26
:105FA000F2F191FBF2F302FB13131B01DBB202FBD4
:105FB00011001843C0B27047642310B5044691FB2A
:105FC000F3F000FB1310FFF7E9FFA07210BD10B54E
:105FD00004460846FFF7E2FFE07210BD10B5044624
:105FE0000846FFF7DBFF237B23F03F0318432073B2
:105FF00010BD10B50446481CFFF7D0FF637B23F0AB
:1060000007031843607310BD10B504460846FFF738
:10601000C5FFA07310BD10B504460846FFF7BEFFCC
:10602000E07310BD10B504460846FFF7B7FF237CA8
:1060300023F07F031843207410BD37B5044668462B
:10604000CDE9002302F038FD054641692046FFF7FF
:10605000B3FF296920460131FFF7B9FFE9682046FF
:10606000FFF7BCFFA9692046FFF7C3FFA9682046D8
:10607000FFF7CAFF69682046FFF7CDFF29683B2973
:10608000A8BF3B212046FFF7CDFF03B030BD000085
:10609000054A0061C0E90021044A8260044AC260E6
:1060A000044A80614261704708B20B00000001039E
:1060B000B0B10B00E4B10B002DE9F84F04460F46D8
:1060C0009046994600260A9B9E4231D26068394626
:1060D00001F0F4FD606808EB0601FFF7DDFE606883
:1060E000002101F0F2FD0546D0B90A9B60689A1BB9
:1060F000202A4FF0010328BF2022394601F0C9FDB4
:1061000009EB060B05460BEB000ADA4506D0606882
:1061100003685B6998470BF8010BF6E72E44D2E75A
:10612000024604490448FFF721FD2846BDE8F88FE0
:106130000025FAE708B10B0048E603202DE9F341FA
:1061400001EB03081E4603689B6805460C4617468C
:10615000984780450DD82034686800963B46E2B2E7
:106160006F21FFF7A9FFB0FA80F0400902B0BDE847
:10617000F0810020FAE72DE9F34101EB03081E4608
:1061800003689B6804460D461746984780450CD81F
:10619000606800963B46EAB25721FFF78DFFB0FAE0
:1061A00080F0400902B0BDE8F0810020FAE7012B41
:1061B0007FB514461E4624D8002B0CBF07230623A8
:1061C00000930A4602AB6F21FFF776FF0546A8B998
:1061D0009DF8083023749DF80930E3739DF80A3068
:1061E000A3739DF80B3063739DF80C3023739DF8F7
:1061F0000D30E372F6B99DF80E30A372284604B054
:1062000070BD022B1CD1042300930A4602AB6F2100
:10621000FFF752FF05460028F0D19DF80830E373E0
:106220009DF80930A3739DF80A3023739DF80B3055
:106230002074E37202F06EF9FFF7B0FEA072DDE7A2
:106240004FF0FF35DAE71FB501230A4600936F21AF
:1062500003ABFFF731FF20B99DF80C0005B05DF8E6
:1062600004FB0020FAE708B50321FFF7ECFFC0F3B9
:10627000401008BD38B500230C460A4619460546AD
:10628000FFF795FF30B9A37A23B12846BDE838401F
:10629000FFF7E9BF002038BD10B586B0044601A85D
:1062A000FFF708FE01A92046FFF7E4FF20B101A88F
:1062B000FFF74CFE06B010BD00200146FAE70000D3
:1062C00070B5044686B0406801F0C6FC02F0E8F8FC
:1062D000E8B9E37A9B071AD52046FFF7DDFF50EABD
:1062E000010306460D4612D001F0DFFF0A4B0B49B1
:1062F0001B68009332462B4602A802F08FF808482C
:10630000029A0849FFF732FC02A801F0AFFE012310
:10631000237206B070BD00BFE0E20320B8E60320A0
:1063200048E6032022B10B002DE9F84F06468846C7
:1063300091469A4600250A9B9D4229D270684146A3
:1063400001F0BCFC706809EB0501FFF7A5FD0A9B95
:106350005F1B1F2F28BF1F270AEB050407EB040B49
:10636000706814F8011B026892689047A345F7D142
:106370007068012101F0A9FC044638B102460549C4
:106380000548FFF7F3FB2046BDE8F88F3D44D2E710
:106390000024F8E737B10B0048E603202DE9F3416C
:1063A00001EB03081E4603689B6805460C4617462A
:1063B000984780450DD82034686800963B46E2B285
:1063C0006F21FFF7B1FFB0FA80F0400902B0BDE8DD
:1063D000F0810020FAE71FB5137C8DF80830D37BDD
:1063E0008DF80930937B8DF80A30537B8DF80B3094
:1063F000137B8DF80C30D37A8DF80D30937A8DF8AD
:106400000E30072300930A4602AB6F21FFF78CFF83
:1064100005B05DF804FB10B588B0044603A8CDE9CB
:106420000032FFF747FDDDE9003203A8FFF705FE64
:106430009DF81C30A27A63F07F038DF81C309DF824
:1064400019306AB143F0080303AA002120468DF8F1
:106450001930FFF7C0FFB0FA80F0400908B010BD56
:1064600003F0F703F0E7000030B589B0054602F00D
:1064700017F80446E8B102F030F8C317CDE902304E
:1064800002462846FFF7C7FF0C4909680091DDE97D
:1064900002320B49044604A801F0C0FF0948049ADF
:1064A0000949FFF763FB04A801F0E0FD204609B0AD
:1064B00030BD06490348FFF759FBF7E7E0E2032048
:1064C000B8E6032048E6032052B10B0068B10B0088
:1064D00037B5457A04469DB901F0E2FF80B100224C
:1064E000002369462846CDE9002300F0EDFE38B1CF
:1064F000E37ADB0702D52046FFF7B6FF012363727C
:1065000003B030BD1FB501238DF80C2000930A465F
:1065100003AB6F21FFF708FF05B05DF804FBF8B58A
:10652000174604460D461E46FFF78DFE384040EAEA
:10653000060229462046BDE8F840FFF7E3BF0129DF
:1065400008B50DD800290CBF10222022002382F0AC
:10655000FF020721FFF7E3FFB0FA80F0400908BD12
:106560000020FCE738B5044632256068572101F069
:10657000A5FB6068012101F0A8FB08B1013DF4D141
:1065800038BD00002DE9F04104460F46164602EBE7
:106590000308B04520D06068572101F08FFB3946D1
:1065A0006068FFF779FC606816F8011B03689B6858
:1065B00098476068012101F088FB0137054638B132
:1065C000024606490648FFF7D1FA2846BDE8F081A1
:1065D0002046FFF7C7FFDCE70025F6E77DB10B009B
:1065E00048E60320F7B5CF181E46036801929B6862
:1065F00004460D46984787420AD8019A6068334698
:10660000E9B2FFF7BFFFB0FA80F0400903B0F0BD78
:106610000020FBE7014B024A1A60704748E603205E
:106620009EB10B0010B5012303748368044643B187
:10663000C0689847012363740020BDE8104000F053
:1066400003BC00680028F5D083680BB902F0FCF9A0
:10665000C368EEE710B442680346541001EB6200D1
:10666000D20748BF0A591B685DF8044B48BFD3588E
:106670001847012A02D1016000207047022A04BF96
:10668000D1E90023C0E90023F6E710B5836804468A
:1066900013B1032201469847204610BD10B50346AA
:1066A000D1E9000286B00021049108B9D10705D5CF
:1066B000CDE902020F4A05920F4A049202AA92E81B
:1066C00003006C4684E8030093E8030082E80300BB
:1066D00094E8030083E803000499986804909960A3
:1066E000D8680599D96005901046FFF7CEFF06B02F
:1066F00010BD00BF55660B0073660B0013B5044652
:1067000000F0CAFB636AC01AE368984208D3054BDD
:1067100000936946002304F110000193FFF7BEFFC8
:1067200002B010BD05680B0007B5054B0093694624
:10673000002310300193FFF7B1FF03B05DF804FBB5
:1067400005680B002DE9F34104460E4614201C4950
:1067500090461F4602F074F930B10025C0E900559B
:10676000C0E9025505744574206098B1099B9DF8F5
:106770002020C0E902873146CDE90003114B0430E7
:1067800000F032FB30B923681B7CA3B9012000F074
:1067900073FBF8E725680023236065B12E6836B1E6
:1067A0003046FFF772FF10213046FEF786F91421BC
:1067B0002846FEF782F9204602B0BDE8F08100BF0E
:1067C000B8B40B0025660B00012337B580F82930DB
:1067D0000446083000F018FB0420FEF76AF905466D
:1067E00048B102234FF40062CDE900320349044A64
:1067F0002346FFF7A7FF656003B030BD10B20B0062
:106800001F6B0B002DE9F04190F82A3086B004464A
:10681000002B64D100F028FD002860D000F03CFB84
:10682000636AC01A40F2F133984258D9236820466F
:106830005B6998470546002851D000F108070123FD
:1068400084F828303846FEF7D9F895F80480CDF85A
:10685000048001302B682B4900933E1833462A48A8
:106860003A46FFF783F92B688DF8008032463946A7
:1068700002A800F0FDFF029D6B781BB9012000F01B
:106880000BFEF8E7002000F099FC20B16B7813B9FB
:1068900000F0E2FCFAE72B78012B23D11B491A48C0
:1068A000FFF764F9236800219B692046984700237D
:1068B00084F8283000F0F0FA6062039C7CB16368D1
:1068C000013B63605BB9236820469B689847A368D7
:1068D000013BA3601BB923682046DB68984706B0DC
:1068E000BDE8F081E2680A490748FFF73FF9094B24
:1068F000049304A9002304F110000593FFF7CEFED2
:10690000D5E700BF22B20B004CE6032043B20B00D8
:106910005AB20B00FD660B0047F23051084AC160C5
:10692000084902600022C0E904120749C161074911
:106930004260C0E908228161028580F82A20704700
:10694000D4B20B0029670B0055660B0073660B0071
:1069500010B5044B044640F8103BFFF796FE204666
:1069600010BD00BFD4B20B0010B5034B036004464A
:10697000FFF7EEFF204610BDFCB20B0010B5044639
:10698000FFF7F2FF20463821FEF797F8204610BDAA
:10699000806800F041BA806800F046BA10B504463D
:1069A0000068FFF7F8FF204610BD13B504460190BC
:1069B000FFF7EEFFE36ADC88A4B20CB103F1080430
:1069C00001A8FFF7EBFF204602B010BD13B5044647
:1069D0000190FFF7DDFF94F8283043B9E26A012403
:1069E000D38001A8FFF7DAFF204602B010BD0024D3
:1069F000F7E713B504460190FFF7CAFFE36A01A861
:106A0000DC88FFF7CBFF204602B010BD2DE9F04730
:106A1000994686B090F829309DF838A09DF83C80C2
:106A200004460F46164613B903689B689847314BD6
:106A30003846002E08BF1E46FDF7E0FF05463046EB
:106A4000FDF7DCFF284400F10A05AB071CBF25F069
:106A5000030504353346CDE90285CDE9009A264980
:106A600026483A46FFF782F8238E083BAB4212D203
:106A70000024204606B0BDE8F087CB88012B36D035
:106A800005A8FFF78BFF236894F828109B69204620
:106A900098470028ECD020460594FFF779FFE16A7B
:106AA000228E636B0A44D21AAA42E6D348EA0A0845
:106AB00083F80480C3F80090636B03F1080839463B
:106AC000404602F075F84046FDF798FF0130314628
:106AD000404402F06DF8636BE26A2B446363D38831
:106AE0000133D380012405A8FFF758FFC1E7002434
:106AF000F9E700BFD8B40B0081B20B004CE60320CD
:106B000008B5044600F11005A3690BB901F09CFF1C
:106B1000E36921462846984700F06EF9F4E708B586
:106B2000FFF7EEFF68B501F1080506462846FDF7B8
:106B300065FF013005442846FDF760FFF36A013028
:106B40002844C31A13F003031CBFC3F10403C01885
:106B500068BDF7B504460E460190FFF719FFE76AD6
:106B6000FB8807F10805E6B1012B22D9294620460A
:106B7000FFF7D8FF054629462046FFF7D3FF228EB0
:106B80003A44121A0146A0EB050602D0284601F04D
:106B9000BFFF636B9B1B6363FB88013BFB8001268C
:106BA00001E0002BE7D101A8FFF7F8FE304603B063
:106BB000F0BD0026F7E700002DE9F0470D4604463A
:106BC0002F46174BDFF85C901646FFF7A5FE2360B3
:106BD00057F8083BE5624B45268617D1AB889BB238
:106BE000B34213D105EB060A67634FF00008EB8848
:106BF0001FFA88F29BB29A420ED2616B2046FFF7D1
:106C000091FF5045606308F10108F0D90023C5F8F1
:106C100000906763AE80EB802046BDE8F08700BF40
:106C2000FCB20B0061AB9CD1014B024A1A60704769
:106C30004CE60320C2B20B00704738B505460C463F
:106C400001F09AFE297801F039F801F095FE036809
:106C5000210A9B68984701F08FFE0368E1B29B68A8
:106C6000984701F089FEBDE8384001F032B808B518
:106C700043F2A201FFF7E1FFBDE808400A2000F05F
:106C80000BBC38B504460D4601F076FE00F0E4FF7B
:106C900020462570FFF7EBFF012038BD0A44FF2096
:106CA00091420ED011F8013B5840082310F0800F9C
:106CB0004FEA400018BF80F03100013BC0B2F5D16F
:106CC000EEE770470000000073B54FF41051054621
:106CD000FFF7B3FF4FF4FA7000F0DEFB01F04CFE5B
:106CE0002978062200F0E7FF01F046FE03681B69E1
:106CF00098470628044602D0002002B070BD6E46B8
:106D000001F03AFE03685B699847013C14F0FF0408
:106D100006F8010B6946F3D102222846FFF7BEFFB1
:106D20009DF802408442E7D102220DF1030128467A
:106D3000FFF7B4FF9DF805408442DDD1BDF80000A7
:106D4000BDF8034040BA80B2FDF7ACFA16A3D3E910
:106D50000023FDF721FB10A3D3E90023FDF746FC38
:106D60000F4B0022FDF760F9FDF7D0FDA86060BA77
:106D700080B2FDF797FA0B4B0022FDF70DFB06A33F
:106D8000D3E90023FDF732FCFDF7C0FD6860012068
:106D9000B3E700BFAFF3008000000000E0FFEF406A
:106DA00000804640000059400000000000E06540BF
:106DB00010B50446FFF788FF10B194ED020A10BD2C
:106DC0009FED010AFBE700BF0000C07F10B504463D
:106DD000FFF77AFF10B194ED010A10BD9FED010A93
:106DE000FBE700BF0000C07F08B5024B1B685B6873
:106DF000019308BD4802030008B5024B1B68DB681D
:106E0000019308BD4802030008B5024B1B681B6BC9
:106E1000019308BD4802030008B5024B1B689B6B39
:106E2000019308BD4802030008B5024B1B681B6CA8
:106E3000019308BD4802030008B5024B1B685B6C58
:106E4000019308BD4802030008B5024B1B68DB6EC6
:106E5000019308BD4802030008B5024B1B685B6E36
:106E6000019308BD3402030008B5024B1B685B6840
:106E7000019308BD1802030008B5024B1B689B680C
:106E8000019308BD1802030008B5024B1B68DB68BC
:106E9000019308BD1802030008B5024B1B685B692B
:106EA000019308BD1802030008B5024B1B689B6DD7
:106EB000019308BD1802030008B5024B1B68DB6D87
:106EC000019308BD1802030008B5024B1B685B6EF6
:106ED000019308BD1802030008B5024B1B689B6EA6
:106EE000019308BD1802030008B5024B1B689B689C
:106EF000019308BD2C02030008B5024B1B68DB6838
:106F0000019308BD2C02030008B5024B1B681B69E6
:106F1000019308BD2C02030008B5024B1B685B6996
:106F2000019308BD2C02030008B5024B1B689B6946
:106F3000019308BD2C02030008B5024B1B68DB69F6
:106F4000019308BD2C02030008B5024B1B68DB68E7
:106F5000019308BD2802030008B5024B1B689B691A
:106F6000019308BD2802030008B5024B1B68DB69CA
:106F7000019308BD2802030008B5024B1B681B6A79
:106F8000019308BD2802030008B5024B1B685B6A29
:106F9000019308BD2802030008B5024B1B689B6AD9
:106FA000019308BD2802030008B5024B1B68DB6A89
:106FB000019308BD2802030008B5024B1B681B6B38
:106FC000019308BD2802030008B5024B1B685B6BE8
:106FD000019308BD2802030008B5024B1B681B6C17
:106FE000019308BD2802030008B5024B1B689B6C87
:106FF000019308BD2802030008B5024B1B68DB6C37
:10700000019308BD2802030008B5024B1B681B6DE5
:10701000019308BD2802030008B5024B1B685B6999
:10702000019308BD6402030008B5024B1B689B680E
:10703000019308BD6802030008B5024B1B68DB68BA
:10704000019308BD6802030008B5024B1B68DB69A9
:10705000019308BD3002030008B5024B1B681B6A90
:10706000019308BD3002030008B5024B1B68DB68C2
:10707000019308BD3C02030008B5024B1B681B6965
:10708000019308BD3C02030008B5024B1B685B6915
:10709000019308BD3C02030008B5024B1B689B69C5
:1070A000019308BD3C02030008B5024B1B68DB6975
:1070B000019308BD3C02030008B5024B1B681B6A24
:1070C000019308BD3C02030008B5024B1B689B6A94
:1070D000019308BD3C02030008B5024B1B681B6C02
:1070E000019308BD3C02030008B5024B1B681B68F6
:1070F000019308BD4C02030008B5024B1B681B69D5
:10710000019308BD4C02030008B5024B1B685B6984
:10711000019308BD4C02030008B5024B1B689B6934
:10712000019308BD4C02030008B5024B1B68DB69E4
:10713000019308BD4C02030008B5024B1B681B6A93
:10714000019308BD4C02030008B5024B1B685B6B42
:10715000019308BD6002030008B5024B1B685B6D1C
:10716000019308BD6002030008B5034B1B68D3F808
:107170009830019308BD00006002030008B5024B7F
:107180001B681B68019308BD2002030008B5024B71
:107190001B685B68019308BD2002030008B5024B21
:1071A0001B685B69019308BD2002030008B5024B10
:1071B0001B68DB6A019308BD2002030008B5024B7F
:1071C0001B68DB6C019308BD2002030008B5024B6D
:1071D0001B685B6D019308BD2002030008B5024BDC
:1071E0001B689B6D019308BD2002030008B5024B8C
:1071F0001B68DB6D019308BD2002030008B5034B3B
:107200001B68D3F88830019308BD000020020300FA
:1072100008B5034B1B68D3F89430019308BD0000F8
:107220002002030008B5034B1B68D3F8B03001936C
:1072300008BD00002002030008B5024B1B681B6854
:10724000019308BD4402030008B5024B1B685B684C
:10725000019308BD4402030008B5024B1B689B68FC
:10726000019308BD4402030008B5024B1B685B692B
:10727000019308BD4402030008B5024B1B68DB699B
:10728000019308BD4402030008B5024B1B681B6A4A
:10729000019308BD4402030008B5024B1B685B6AFA
:1072A000019308BD4402030008B5024B1B68DB6A6A
:1072B000019308BD4402030008B5024B1B681B6B19
:1072C000019308BD4402030008B5024B1B685B6BC9
:1072D000019308BD4402030008B5024B1B689B6B79
:1072E000019308BD4402030008B5024B1B68DB6B29
:1072F000019308BD4402030008B5024B1B685B689C
:10730000019308BD4002030008B5024B1B689B684F
:10731000019308BD4002030008B5024B1B68DB68FF
:10732000019308BD4002030008B5024B1B681B69AE
:10733000019308BD4002030008B5024B1B685B695E
:10734000019308BD4002030008B5024B1B689B690E
:10735000019308BD4002030008B5024B1B68DB69BE
:10736000019308BD4002030008B5024B1B681B6A6D
:10737000019308BD4002030008B5024B1B681B6B5C
:10738000019308BD4002030008B5024B1B685B6B0C
:10739000019308BD4002030008B5024B1B681B6C3B
:1073A000019308BD4002030008B5024B1B685B6CEB
:1073B000019308BD4002030008B5024B1B681B681F
:1073C000019308BD1C02030008B5024B1B685B68F3
:1073D000019308BD1C02030008B5024B1B689B68A3
:1073E000019308BD1C02030008B5024B1B681B6912
:1073F000019308BD1C02030008B5024B1B68DB6942
:10740000019308BD1C02030008B5024B1B68DB6A30
:10741000019308BD1C02030008B5024B1B681B6BDF
:10742000019308BD1C02030008B5024B1B68DB6B0F
:10743000019308BD1C02030008B5024B1B681B6CBE
:10744000019308BD1C02030008B5024B1B685B6C6E
:10745000019308BD1C02030008B5024B1B689B6C1E
:10746000019308BD1C02030008B5024B1B68DB6CCE
:10747000019308BD1C02030008B5024B1B681B6D7D
:10748000019308BD1C02030008B5024B1B685B6D2D
:10749000019308BD1C0203000021FFF77FBE10B559
:1074A000836804460BB901F0CFFAC3689847A36814
:1074B0001BB1032221462046984720461021BDE8F3
:1074C0001040FDF7FABA10B54368013B044643602B
:1074D00063B903689B689847A368013BA3602BB915
:1074E00023682046DB68BDE81040184710BD10B582
:1074F0000446006808B1FFF7E6FF204610BD13B54B
:107500000B460246D0E900016C4684E8030093E88C
:10751000030082E8030094E8030083E8030002B05C
:1075200010BD0000024800230360FFF785BC00BFC8
:1075300050E60320002240681146FFF7F5BE002206
:1075400040681146FFF710BF002240681146FFF760
:107550001BBF40680022FFF70FBF4068002281F088
:107560000101FFF7F9BE002340681A461946FFF7EC
:10757000EBBE002340681A461946FFF7DDBE002225
:1075800040681146FFF7C0BE406800220221FFF7A5
:10759000C3BE002340681A46FFF7AEBE084B10B5C5
:1075A000282422461846002101F0CCFA054B04801D
:1075B0004FF0FF32426004225A60034A1A6010BD45
:1075C0005CE6032054E6032024B30B007047002040
:1075D000704710B510210446FDF76FFA204610BD24
:1075E00008B5FFF7F6FF08BD30B500224FF69C74D2
:1075F000026084808D888C800C68858004600A60BD
:1076000030BD10B504460068FFF7DEFE204610BD11
:1076100038B5C468F4B12378022B03D104F10C000F
:10762000FFF7EFFF656835B12846FFF72EF8102108
:107630002846FDF742FAA56835B12846FFF725F838
:1076400010212846FDF739FA20461421BDE83840BC
:10765000FDF733BA38BD10B588B00446684600F06F
:1076600050FD694604A800F06FFD04A8A047044639
:1076700004A800F0FBFC684600F0F8FC204608B0C7
:1076800010BD1FB50023CDE90201019210241A4656
:1076900069461846ADF80230ADF80040FFF7D4FD5A
:1076A00004B010BD0B6803604B68436013B15A68A7
:1076B00001325A60704737B5044668460D46FFF7F9
:1076C000F1FF009B019A23606260002301A80193EF
:1076D0000093FFF70CFF35B1281DFFF708FF0821C5
:1076E0002846FDF7EAF9204603B030BD826810B5A0
:1076F0000AB901F0A9F9BDE81040C368184708B5F8
:10770000006800F11001FFF7F1FF08BD826810B5B5
:107710000AB901F099F9BDE81040C368184708B5E7
:10772000006800F11001FFF7F1FF08BD38B5002334
:107730000446036010200D46FDF7BBF928B1012374
:10774000C0E90133024B0360C5602060204638BDAC
:1077500060B30B0038B5002383608B6804460D4688
:107760002BB102229847EB68E360AB68A360204628
:1077700038BD0000F0B589B004686846FFF734FFF3
:107780004FF00203D4E84F2F002A03D1C4E8413F51
:107790000029F7D125D104F10C0569462846FFF7E9
:1077A00023FFBFF35B8F01236370002004F1080304
:1077B000BFF35B8F53E8006F43E80002002AF9D162
:1077C000BFF35B8F6EB1FFF7F9FC78B12946304605
:1077D000FFF78CFF3046FEF758FF10213046FDF7CB
:1077E0006CF96846FFF70DFF09B0F0BD314602A8FD
:1077F000FFF7B0FFE068B4F9105008B101F0E0F90C
:1078000006901020ADF81C50FDF753F90546E8B17D
:10781000002787601820FDF74CF9044688B101461F
:10782000876002A8FFF76BFE049BA268A360059B1C
:10783000049206A9E268E36004F110000592FFF7E4
:10784000D3FE084BEB60084B2C60AB6006A8FFF73B
:10785000D8FE02A8FEF719FF002229460348FFF7C9
:10786000B5FCB7E7FF760B0081790B009F740B0026
:107870002DE9F04F8BB005469DF850A00F4690467D
:107880009946FFF7F1FC07AE834638BB4FF62E73DF
:10789000059005A93046ADF81830FFF7A5FE142075
:1078A000FDF707F9044648B1022303700123C0E93C
:1078B00001BB437031460C30FFF796FE2846214647
:1078C00040F8044BFFF732FF3046FFF79AFE05A859
:1078D000FFF797FE28460BB0BDE8F08F0C2300247D
:1078E0001420CDE908440793FDF7E3F8014618B1E9
:1078F000C0E901440470447004A80391FFF716FF27
:107900001E4B08930820FDF7D4F8044610B103A9D4
:10791000FFF7C8FE00965FFA8AF34A4641463846AA
:107920000994FFF7B1FCB8B9039B5B7803F0FF0241
:1079300093B94FF69C7305A903A80592ADF81830CA
:10794000FFF718FF05A8FFF75CFE05A80999FFF7E8
:10795000B2FE06A8FFF7CBFD03A905A8FFF7A2FE1C
:10796000059B069A2B606A60002306A80693059380
:10797000FFF7BDFD04A8FFF7BAFDABE7FD790B00EB
:10798000012AF8B5054603D10B6803600020F8BD55
:10799000022A10D0032AF9D10468002CF6D004F191
:1079A0001000FFF72EFE2046FEF76FFE182120463E
:1079B000FDF783F8EAE718200E68FDF77AF8044629
:1079C00050B13146FFF7C6FE3069B6F9147008B100
:1079D00001F0F6F82061A7822C60D7E738B50023C4
:1079E00083608B6804460D462BB102229847EB68F2
:1079F000E360AB68A360204638BD0000F0B589B0F5
:107A000004460D4601A81146FFF755FEA4B124B265
:107A10001DB1284601F0D4F8054601A803A9039535
:107A2000ADF81040FFF7A6FE03A8FFF7EAFD02A895
:107A3000FFF75DFD09B0F0BD019D0123D5E84F2F93
:107A4000002A03D1C5E8413F0029F7D1EFD12B73BC
:107A5000BFF35B8F6B702B1DBFF35B8F53E8006F21
:107A600043E80042002AF9D1BFF35B8F002EDED03D
:107A70002046FFF7A3FB074660B105F10C01304635
:107A8000FFF744FE3046FEF700FE10213046FDF7BA
:107A900014F8CCE7314603A8FFF7A0FF2B7B8DF845
:107AA0001C301020FDF705F80546D0B18760142082
:107AB000FCF7FFFF044678B18760014603A8FFF793
:107AC0001EFD059BA268A360069B0592E268E36029
:107AD0009DF81C3006922374064BEB60064B2C601D
:107AE000AB6003A8FEF7D1FD002229460348FFF74B
:107AF0006DFBC7E71F770B00017B0B009F740B002A
:107B0000012A70B5044603D10B680360002070BDE4
:107B1000022A0CD0032AF9D10468002CF6D02046A2
:107B2000FEF7B3FD14212046FCF7C7FFEEE7142053
:107B30000E68FCF7BEFF054620B13146FFF74EFF49
:107B4000337C2B742560E1E7002240681146FFF783
:107B50000BBC002240681146FFF716BC40680022AB
:107B6000FFF70ABC4068002281F00101FFF7F4BB77
:107B7000002340681A461946FFF7E6BB0023406819
:107B80001A461946FFF7D8BB002240681146FFF796
:107B9000CBBB002240681146FFF7B6BB406800220D
:107BA0000221FFF7B9BB002340681A46FFF7A4BBC8
:107BB000024B03225A60024A1A60704784E603208F
:107BC0007CB30B007047F8B5064615460C468F1877
:107BD000BC4206D0336814F8011B9B6830469847B6
:107BE000F6E72846F8BD007C0022FFF7C5B9007C07
:107BF0000021FFF7C9B9007C0021FFF7CDB9007C57
:107C00000021FFF7D1B9007C0021FFF7D5B910B5ED
:107C100014210446FCF751FF204610BD38B5044638
:107C200015464FF47A730022C4E90123094B2174ED
:107C3000084623602946FFF7CFF9BF3008D16B69AA
:107C4000DB0705D56868FFF7BFFBE868FFF7BCFBFB
:107C5000204638BDB8B30B000023007C1A461946F5
:107C6000FFF772B97FB500221423CDE90122ADF8E8
:107C700004300B788DF808304B680393CB6804937D
:107C8000007C0B7A059301A9FFF7BEF907B05DF8F8
:107C900004FB1FB5003B8DF800104FF06401039109
:107CA00018BF0123694601928DF80830FFF7DAFF0B
:107CB00005B05DF804FB0123FFF7EBBF007C002259
:107CC000FFF74AB9C9B2FFF7F9BF007C0022FFF7FE
:107CD0004BB90121FFF7F9BF08B50021007CFFF780
:107CE00083F9B0FA80F0400908BD08B50021007C96
:107CF000FFF782F9B0FA80F0400908BD00470000A4
:107D00002DE9FF4100241D460F4690460646FFF729
:107D100013F9A5424FF00403ADF80D408DF80C3077
:107D20008DF80F40A2BF9DF828308DF80E3003ACBF
:107D30000749009443463A463046A8BF8DF80D5097
:107D4000FFF7F2F8B0FA80F0400904B0BDE8F08126
:107D5000FD7C0B00704710B518210446FCF7ADFE02
:107D6000204610BDF0B5037D062B8DB00E4600F108
:107D700004074FF0000412D000F1080515F8011DAA
:107D80000A22304600F043F9AF42044419D0002CD7
:107D9000F4D02E21304600F037F90444EEE72F23CB
:107DA0006A4639460A208DF80040FFF735F96846E3
:107DB000FCF724FE33680246DB6869463046984784
:107DC000044620460DB0F0BD10B5054B0446112207
:107DD00040F8043B002100F0B5FE204610BD00BF76
:107DE000E0B30B000346074A10B543F8042B01F13A
:107DF000100251F8044B43F8044B9142F9D10A7830
:107E00001A7010BDE0B30B0010B59DF8084044EAAD
:107E1000032343EA024242EA0161042341600375FD
:107E200010BD000007B5064B0360CB7800938B783C
:107E30004A780978FFF7E8FF03B05DF804FB00BF5C
:107E4000E0B30B00014B024A1A6070478CE6032036
:107E5000ECB30B00002340681A46FFF74DBA4068A8
:107E600000220221FFF758BA002240681146FFF7AE
:107E70004BBA002240681146FFF756BA002340680B
:107E80001A461946FFF758BA002340681A461946A1
:107E9000FFF75ABA40680021FFF77EBA4068002118
:107EA000FFF782BA4068002281F00101FFF754BA5F
:107EB00040680022FFF760BA002240681146FFF7D1
:107EC00063BA002240681146FFF74EBA2DE9F0432D
:107ED00095B014460D460746FFF776FF00211C2299
:107EE0000DA8009100F02EFE40230C9320466B4617
:107EF0000CAA0021FFF7A0F8044600284BD1024647
:107F000001216868FFF710FA02218046224668685E
:107F1000FFF70AFA009E81462146002E3BD0002939
:107F200039D17368022B03D00A2B11D0F669F4E71C
:107F3000B8F1000FFAD0716906A8043107ADFFF758
:107F400071FF0FCD3C1D0FC42B6823704146EDE738
:107F5000B9F1000FEAD07469102201A800F0F2FD17
:107F600006238DF8143001AD04F1080318341868A5
:107F700059682A4603C20833A3421546F7D101A91E
:107F800006A807ADFFF72EFF0FCD3C1D0FC42B68D1
:107F900023704946CAE70098FFF746F8384615B0FF
:107FA000BDE8F083024B034A1A6000225A60704712
:107FB00090E60320F8B30B00F8B506460D468F187F
:107FC0000024BD420CD0336815F8011B9B68304675
:107FD0009847031E01DB1C44F3E7002C08BF1C4636
:107FE0002046F8BD13B50446084659B10191FCF787
:107FF00005FD23680199DB680246204602B0BDE812
:108000001040184702B010BD03689B68184730B590
:108010008BB00023012A8DF8243098BF0A2209ACC6
:108020000D46B1FBF2F101FB125303F0FF03092BE4
:1080300094BF30333733DBB2AA4204F8013DEFD9A5
:108040002146FFF7CFFF0BB030BD0000014B0022EF
:108050009A60704798E6032010B5044608462170E0
:10806000FEF7F2FF00236360204610BD10B5044602
:108070000068FFF7A9F9204610BD10B50446006856
:1080800008B1FFF7A1F90023C4E90133236010BD53
:1080900038B504460D4600680131FFF79DF910B16F
:1080A000C4E90005012038BD10B50368044623B1BA
:1080B00043688B4201D3012010BD2046FFF7E8FF43
:1080C0000028F9D0A368002BF5D122681370F2E7DD
:1080D00037B50D46114601920446FFF7E5FF019AB8
:1080E00028B92046FFF7C9FF204603B030BDA26083
:1080F0002946206800F0FEFC2268A3680021D154C4
:10810000F2E7002313B5C0E900330446836003732C
:1081100041B108460191FCF771FC019902462046E5
:10812000FFF7D6FF204602B010BD884210B50446C6
:1081300005D00B682BB18A681946FFF7C9FF2046A6
:1081400010BDFFF79AFFFAE710B500230446C0E917
:10815000003383600373FFF7E8FF204610BD08B5C6
:1081600082683AB921B10878B0FA80F0400900E09D
:10817000012008BD006809B90078F5E7FCF734FC78
:10818000F2E758B50E462AB121B18468A34202D362
:1081900000230B7058BDE41A013A0168944228BFCD
:1081A000144619442246304600F03BFD0023335567
:1081B000F0E7000008B5006840B100F075FC51EC34
:1081C000100BFCF7A3FB00EE100A08BD9FED010A9F
:1081D000FBE700BF0000000007B50B460021024688
:1081E000009101208C21FFF71DF803B05DF804FB1E
:1081F00001460020FFF7F0BF0020FFF7F9BF0000A5
:10820000054B02221A60054B054A9A600020C3E91B
:108210000000FEF7BBBF00BFB4E60320A8E60320C2
:108220000000FFFF2DE9F041154ADFF86080D2E938
:108230000063801943EB0101124BD3E90067D8E9D1
:108240000023861941EB0707BB4208BFB2428CB03E
:1082500013D003A96846CDE90067FFF705F9089B2D
:10826000094D03F26C7303AC08930FCC0FC50FCC10
:108270000FC5C8E9006723682B600CB0BDE8F0812A
:10828000F0E60320E8E60320C0E60320F8E603203A
:1082900008B50020FFF710F828B1FEF7E5FF80F0E1
:1082A0000100C0B208BD0120FCE71FB502460B4625
:1082B00068460021CDE90023CDE90211FEF70CFE4E
:1082C000024610B90146FEF791FF05B05DF804FBC8
:1082D00030B593B0CDE90023194B0446D3E9001023
:1082E000019B521843EB00031648D0E900105218C6
:1082F00043EB0003CDE9002324220DEB0200002113
:1083000000F020FC002509A96846FFF7ADF8162209
:10831000294603A8029500F015FC02A909A800F05F
:1083200097FB02A8FCF76AFB12AB184402A900F8FD
:10833000415C2046FFF7E5FE204613B030BD00BF8C
:10834000F0E60320E8E603202DE9F047A4B0074655
:10835000884614A811463F221C4600F062FC002308
:1083600014A88DF88F30FCF749FB05464CBB294912
:1083700003A800F01DFC14AC002605F1FF39B1453F
:1083800034D92378252B06F1010A17D163787A2B8B
:1083900014D103A8FCF732FB14AB0546301818447F
:1083A000A9EB0602A11C00F0A5FB2A4603A9204662
:1083B00000F0A0FB14A8FCF721FB0546013456464B
:1083C000DBE73C2394FBF3F2002AB8BF5242B2FB36
:1083D000F3F103FB112200924FF461630E4A94FB08
:1083E000F3F3102103A8FFF707F8C4E700212E22BA
:1083F00008A8079100F0A6FB434614AA322107A85B
:10840000FFF72AF807A93846FFF77BFE384624B065
:10841000BDE8F0872CB40B002EB40B00F0B58DB086
:10842000CDE90023129D044615B9194B1D682DB1E5
:10843000184B28461968FCF7D7FA38B9DDE900234C
:108440002046FFF745FF20460DB0F0BD124E0099C3
:10845000124FD6E900325B18019942EB0102D7E9CD
:1084600000011B1842EB0102CDE900320021242259
:1084700003A800F067FB03A96846FEF7F5FF326822
:108480003B6803A9134420462A46FFF75DFFDAE75D
:10849000BCE60320E0E20320F0E60320E8E6032048
:1084A00010B50020FEF700FD0446A0B9FEF766FEF9
:1084B000012810D12046FEF791FE60B9FFF7E8FED3
:1084C00010B9FEF7C9FEF9E7FFF7E2FEBDE810407C
:1084D0000020FEF7E9BC204610BD1FB5FFF7E0FF06
:1084E00010220021684600F02DFB00216846FEF7AF
:1084F000EBFC009805B05DF804FB000008B5FFF741
:10850000ECFFC117FFF78EFE014B986808BD00BF56
:10851000C0E6032008B5FFF7E0FFC117FFF782FEB2
:10852000014B586908BD00BFC0E60320024B1A6822
:10853000024B1A60704700BFE0E20320BCE6032054
:1085400070474174704708B5007CFEF7BDFD20EA16
:10855000E07008BD08B5007CFEF78EFD20EAE070F3
:1085600008BD08B5007CFEF797FD40EAE07008BD45
:1085700008B5007CFEF788FD40EAE07008BD007C8D
:10858000FEF792BD37B5457C04462DB1207C03B083
:10859000BDE83040FEF768BD007C0191FEF794FD18
:1085A00000280199F2DC284603B030BD10B5142133
:1085B0000446FCF782FA204610BD000010B54FF4C7
:1085C0007A730446084611460022C4E90123044B8D
:1085D0002360012320746374FEF77EFD204610BDE6
:1085E00060B40B00417470477047704708B50021B4
:1085F000007CFEF791FD40EAE07008BD08B501215E
:10860000007CFEF789FD40EAE07008BD08B5007CFB
:10861000FEF77AFD20EAE07008BD08B5007CFEF7A1
:108620006BFD20EAE07008BD13B50446007C0191A3
:10863000FEF76AFD0028019901DC607C20B1207CF6
:10864000FEF772FD20EAE07002B010BD007CFEF77C
:1086500073BD10B514210446FCF72FFA204610BD57
:1086600010B54FF47A73044608460021C4E901139B
:10867000044B23600123207463741146FEF734FD1C
:10868000204610BD90B40B0010B514220446002102
:1086900000F058FA204610BD10B50F4C88B003A862
:1086A000FFF7F2FF2178BFF35B8F11F001010FD1CB
:1086B00020460191FCF710FA019948B103AA074836
:1086C000FFF7CEFF2046FCF70CFA054800F0E6F96C
:1086D000024808B010BD00BF00E7032004E70320F4
:1086E000E9850B00014B1860704700BFE4E20320EE
:1086F00008B50B4B43B1FFF7CFFF03681B699847E1
:10870000002801DDAFF30080064B43B100F074F99F
:1087100003681B699847002801DDAFF3008008BD9E
:10872000000000000000000008B5FFF7E1FFFEF7C1
:10873000B3FB014B186008BD2CE703200548064A2F
:10874000064908B5121A00F0D5F9054B054A1A601A
:1087500008BD00BF00F4032004FC032018BC0B007C
:1087600000FC03201E1C279A07B5002300931A461D
:108770006FF07701FEF74CFD03B05DF804FB0000DD
:1087800007B543880A2B08D0502B0BD1094B1B6827
:108790004BB103B05DF804EB1847FFF7E5FF03B0FA
:1087A0005DF804FB002300931A466FF07701FEF793
:1087B0002FFDF4E71CE7032010B512480021FEF757
:1087C00043FE114B1A68114B9A42114B0CBF012208
:1087D00000221A7001D0FFF7B1FFFEF745FB0446F7
:1087E00000F0B8F90B4B13B12046AFF30080002125
:1087F0000848FEF779FDBDE8104007480021FEF764
:10880000FDBC00BFE5860B0000FC03201E1C279A60
:1088100018E703200000000081870B0008B5024B19
:108820001B681B68019308BD5C02030008B5024B7E
:108830001B685B68019308BD5C02030008B5024B2E
:108840001B689B68019308BD5C020300232813B5D5
:1088500002D9002002B010BDA0F10B03022B1AD8E0
:10886000174C2178BFF35B8F11F001010BD120462B
:108870000191FCF731F9019928B11248FFF7ECFB9F
:108880002046FCF72EF90F4B1878FEF7E5FB002881
:10889000DFD10120DEE7012809D800F06DF80021C2
:1088A000007CFEF791FB80F00100C0B2D2E70938EE
:1088B0000128EED800F0A0F8007CFEF7FDFBF2E7FF
:1088C00020E7032024E70320232838B504460D467B
:1088D0000AD8FF2908D0FFF7B9FF28B1294620465A
:1088E000BDE83840FEF700BB38BD38B504460D463C
:1088F000FEF702FBFF2810D0062804D84D2323FAE8
:1089000000F0C30709D42046FFF7A0FF28B129468D
:108910002046BDE83840FEF7F7BA38BD10B504462A
:10892000FEF7EAFA031FDBB2012B08D92046FFF756
:108930008DFF20B12046BDE81040FEF7EDBA0020C3
:1089400010BD704738B50A4B0360012304464361EC
:108950000849202000F076F8202560600549A560D0
:10896000284600F06FF8C4E90305204638BD00BF73
:1089700018000100B8B40B0030B50E4D2978BFF3D4
:108980005B8F11F0010487B011D12846FCF7A4F8E1
:1089900068B16846FFF7D6FF6A4621460648FFF7EA
:1089A0003DF92846FCF79DF8044800F077F80248A6
:1089B00007B030BD30E7032034E7032043890B00C4
:1089C0007047000038B5044614252A46002100F0FF
:1089D000B9F825804025074925812846258200F0E1
:1089E00031F804496060284600F02CF8E060204629
:1089F00038BD00BFB8B40B0030B50E4D2978BFF3B9
:108A00005B8F11F0010487B011D12846FCF764F8A0
:108A100068B101A8FFF7D6FF01AA21460648FFF773
:108A2000CDFD2846FCF75DF8044800F037F8024811
:108A300007B030BD48E703204CE70320C1890B0095
:108A4000FCF737B8FCF737B808B5FEF7DDFC0000D7
:108A500010B50C4641690369826986B001F26C71F8
:108A60000491016803914168029181680191C16894
:108A70000091074903EB43030B44064902EB420212
:108A80000A4420460449FEF7AFFC204606B010BD5C
:108A9000EEB40B00D9B40B00B9B40B0000230146AF
:108AA0001A46184600F08ABF002100F0EFBE0A22E5
:108AB000002100F079BF000038B50B4B1D68EB6B4F
:108AC000044653B92420FEF777FC0246E86320B938
:108AD000064B07483921FEF7AFFCE96B2046BDE89D
:108AE0003840FEF7C9BC00BFE4E2032012B50B001A
:108AF00029B50B000A44914200F1FF3300D17047C1
:108B000010B511F8014B03F8014F9142F9D110BD96
:108B1000884210B501EB020402D98442234607D8EB
:108B2000431EA14208D011F8012B03F8012FF8E7EA
:108B3000024401468A4200D110BD13F8014D02F8EB
:108B4000014DF7E702440346934200D1704703F812
:108B5000011BF9E738B5104B1D68AB6B0446B3B980
:108B60001820FEF729FC0246A86320B90B4B0C48DD
:108B70004221FEF761FC0B490B4BC0E900130B4B84
:108B800083600B23838100210120C2E90401AB6BC8
:108B900000221C615A6138BDE4E2032012B50B00CB
:108BA00082B50B000E33CDAB34126DE6ECDE050062
:108BB000034611F8012B03F8012B002AF9D1704765
:108BC000024B0146186800F003B800BFE4E203203E
:108BD00037B5044608460D46FBF710FF421C114608
:108BE00020460192FEF718FC044618B1019A294666
:108BF000FFF780FF204603B030BD10B57AB10346C1
:108C00000139841813F8010B11F8012F904201D19A
:108C1000A34201D1801A10BD0028F3D1FAE7104613
:108C2000F9E710B50139034632B111F8014F03F8E5
:108C3000014B013A002CF7D11A440021934200D194
:108C400010BD03F8011BF9E770B504460D4645EC6D
:108C5000104B164601F00CFE51EC100B7EB1C5F323
:108C60000A53C3F16B03002B09DD1B0503F17F558C
:108C7000002405F5401522462B46FBF78DFB70BD01
:108C80002DE9F04F2DED028B9DB01F460023189368
:108C9000A24B13921B680593044618468846FBF7BF
:108CA000ADFE4FF0000A05464FF0000BCDF85C809A
:108CB000179B1A782B2A4ED03BD80D2A34D8082A75
:108CC00034D8002A3ED000230A93179E3378302BE5
:108CD00040F0B080737803F0DF03582B68D10A9B13
:108CE000019318AB029700938D4A19AB17A9204640
:108CF00000F02EFF10F00707054605D0062F2CD1F7
:108D00000136002317960A93139B002B40F09085A1
:108D10000A9BEBB152460BF1004343EC102B1DB004
:108D2000BDEC028BBDE8F08F202ACCD10133179324
:108D3000BEE72D2AC7D101220A925A1C17925B78EE
:108D4000002BC2D1139BCDF85C80002B40F06E85C8
:108D500052465B46E1E70022EEE7189A3AB1352128
:108D60001AA801F090FE1899204601F04FFA013F31
:108D7000042F06D8DFE807F00A0314170A00DDE91C
:108D80001AAB2807C0D54BF0004BBDE7DDE91AA3AD
:108D9000199A23F4801302F2334243EA025BF0E7AC
:108DA000DFF880B1EDE76FF0004B4FF0FF3AE8E7F6
:108DB000179B5A1C17925B78302BF9D0002BA3D04D
:108DC00001234FF000090493179B0893CDF81C90E2
:108DD0004F460A2217980678A6F13003D9B209291E
:108DE0002AD905992A46FFF708FF98B30020324692
:108DF0003D4605900346652A01D0452A18D11DB984
:108E0000049A02439ED00025DDF85C8008F101023F
:108E1000179298F801202B2A75D02D2A7BD04FF07D
:108E2000000CA2F13001092940F28280CDF85C806B
:108E300000269DE00023C4E7082FD8BF079900F162
:108E40000100DABF02FB0133079302FB0939013746
:108E50001790BFE7179B5A1917925A5D002F37D00A
:108E600005903D46A2F13003092B12D90123C2E738
:108E7000179B5A1C17925A780130302AF8D0A2F169
:108E80003103082B00F2D984179B0590002008932A
:108E90000546303A00F1010314D0059919440591B3
:108EA0002B4600EB050E0A21734513D12B18082B16
:108EB00005F1010505441CDC07990A2303FB012386
:108EC00007930023179A511C179152781846C9E747
:108ED0003846D2E7082B04DC079E4E430796013341
:108EE000E2E703F1010CBCF1100FD8BF01FB09F957
:108EF000F5E7102DDCBF0A2303FB0929E1E7002376
:108F0000059301237CE74FF0000C08F10202179251
:108F100098F8022085E74FF0010CF6E7B0B70B0098
:108F2000E8B50B000000F07F179A511C179152789A
:108F3000302AF9D0A2F1310108293FF679AFA2F128
:108F4000300E179A0692179A511C17915278A2F177
:108F50003006092E37D9069E891B082944F61F665C
:108F600002DC7645A8BF7646BCF1000F00D0764201
:108F7000002D4DD1049901437FF4C6AE002B7FF440
:108F8000E1AE692A27D024DC492A24D04E2A7FF476
:108F9000D9AE9F4917A801F033F800283FF4D2AEAC
:108FA000179B1B78282B2DD19A491AAA17A801F0D4
:108FB0003BF8052826D11B9BDDF868A043F0FF4B4A
:108FC0004BF4E00BA0E60A2101FB0E2EAEF1300EB1
:108FD000B9E76E2ADBE7904917A801F011F80028DD
:108FE0003FF4B0AE179B8D49013B17A8179301F0D2
:108FF00007F810B9179B01331793DFF830B24FF021
:10900000000A81E6864801F093FD5BEC10AB7BE63D
:10901000059B0798F31A002F08BF2F46102D0693C3
:10902000A846A8BF4FF01008FBF73CF9092D82466F
:109030008B4613DD7B4B03EBC80353E91223FBF78D
:10904000ABF9824648468B46FBF72CF902460B46A5
:1090500050465946FAF7EAFF82468B460F2D38DC18
:10906000069B002B3FF450AE24DD162B0BDC6D4924
:1090700001EBC301D1E9000152465B46FBF78CF9D5
:1090800082468B4640E6069AC5F12503934220DBD3
:10909000644CC5F10F0504EBC50152465B46D1E9AE
:1090A0000001FBF779F9069B5D1B04EBC504D4E9CD
:1090B0000023E3E7069B16330BDB059B9E1B594BF6
:1090C00003EBC606D6E9002350465946FBF78EFA55
:1090D000D6E7069BA5EB08089844B8F1000F74DDAD
:1090E00018F00F030AD04F4901EBC30152465B460B
:1090F000D1E90001FBF750F982468B4638F00F08A2
:109100004FD0B8F59A7F22DD00252E4607950595AC
:109110002223DFF818B123604FF0000A079B002BD1
:109120003FF4F2AD1899204601F070F805992046F9
:1091300001F06CF83146204601F068F807992046A6
:1091400001F064F82946204601F060F8DCE5364B72
:10915000049300234FEA2818504659469946B8F11F
:10916000010F21DC0BB182468B462F4BABF1547BB8
:1091700003EBC90952465B46D9E90001FBF70CF93C
:109180002A4B0A460B402A498B428246BCD8A1F59D
:1091900080118B4286BFDFF89CB04FF0FF3A02F19E
:1091A000547B0023049384E018F0010F05D0049B46
:1091B000D3E90023FBF7F0F80123049A083209F100
:1091C00001094FEA68080492C9E7EAD0C8F100082B
:1091D00018F00F020AD0134B03EBC2035046594656
:1091E000D3E90023FBF702FA82468B465FEA281890
:1091F000D7D0B8F11F0F1FDD00252E460795059526
:1092000022234FF0000A4FF0000B236086E700BFD7
:10921000E4B50B00FCB50B00DBB50B00DEB50B00B5
:10922000D8B40B0048B80B0020B80B000000F07F4A
:109230000000A07CFFFFEF7F18F0100318BF6A2327
:10924000DFF8AC93049350465946002318F0010F01
:1092500004D0D9E90023FBF79FF801235FEA6808EF
:1092600009F10809F2D10BB182468B46049BC3B1C8
:10927000CBF30A52C2F16B03002B594611DD1F2BB1
:1092800040F32481342BDEBFC2F14B024FF0FF3399
:1092900003FA02F24FF0000ACCBF4FF05C7B02EA07
:1092A000010B0022002350465946FBF7DDFA002847
:1092B000A2D1079B009308992B463A46204601F01D
:1092C0000DF8079000283FF41FAF059B9E1B069BDF
:1092D000002BB4BF334600230C93069B002523EAE2
:1092E000E37312932E46079B2046596800F04EFF09
:1092F000059000283FF40CAF079B1A69023203F176
:109300000C0192000C30FFF7F5FB4BEC10AB1AAAE6
:1093100019A9204601F028FB4BEC18AB1890002847
:109320003FF4F6AE0121204601F072F8064600280F
:109330003FF4EEAE199B0499002BABBF0C9A129A26
:10934000129FDDF83090ACBF03EB0209D71A1A9ACE
:10935000A3EB01089044A14B08F1FF389845C2F1F6
:10936000360280F2C780A3EB08031F2BA2EB030297
:109370004FF0010100F3B18001FA03F30D930023D4
:10938000089309EB0208049BC14517441F444B4650
:10939000A8BF4346BB42A8BF3B46002BC2BFA8EBB9
:1093A0000308FF1AA9EB03090C9B002B17DD3146BC
:1093B0001A46204601F0ECF8064600283FF4A8AE15
:1093C0000146189A204601F039F80B9000283FF426
:1093D0009FAE1899204600F019FF0B9B1893B8F127
:1093E000000F00F38C80069B002B08DD129A059974
:1093F000204601F0CDF8059000283FF489AE002FFB
:1094000008DD05993A46204601F01CF90590002830
:109410003FF47EAEB9F1000F08DD31464A462046E2
:1094200001F010F9064600283FF472AE059A18992B
:10943000204601F093F9054600283FF469AEC36861
:109440000B930023C360314601F06CF9002860DA09
:109450000B9B53EA0A0340F08280CBF31303002BEB
:109460007DD12BF000431B0D1B05B3F1D66F76D9D0
:109470006B6913B92B69012B71DD29460122204646
:1094800001F0E0F83146054601F04CF9002866DDB0
:109490000499534A5B46002900F0818002EA0B01DF
:1094A000B1F1D66F7BDCB1F15C7F7FF7A9AE4D4B9C
:1094B000504659460022FAF76FFF0B46034308BF98
:1094C000222382468B4608BF23602BE64FF0FF32F3
:1094D00002FA03F303EA0A0AE3E6C8F17F4808F553
:1094E0007F0808F57B4808F1E20801FA08F30893C1
:1094F0000D9146E70023089301230D9341E7189946
:109500004246204601F09EF8189000287FF46BAF89
:10951000FEE55F466ED10B9ACBF3130342B3324A9A
:10952000934228D1049B5146EBB12D4B3B40B3F104
:10953000D46F4FF0FF3219D81B0DC3F16B0302FA41
:1095400003F3994217D1294B9F4202D101313FF4D5
:10955000DFAD234B3B4003F5801B4FF0000A049B1B
:10956000002BA4D1DEE54FF0FF33EAE71346E8E72E
:1095700053EA0A038CD0089BDBB13B42EFD00B9B34
:10958000049A50465946C3B1FFF75EFB02460B46AC
:1095900051EC180BFAF74AFD82468B46DFE7134081
:1095A000A3F580136FEA135B6FEA0B5B4FF0FF3A92
:1095B000D5E70D9B13EA0A0FE0E7FFF745FB0246EC
:1095C0000B4651EC180BFAF72FFD002200238246C0
:1095D0008B46FBF749F90028C1D011E602FCFFFFDA
:1095E0000000F07F00005039FFFF0F00FFFFEF7F0A
:1095F00010B60B003146284601F012FA59EC108BD8
:1096000010EE100A00224FF080434946FBF740F964
:1096100000287AD00B9B002B4AD0954B0022CDE935
:109620000823DFF84C924FF00008924B3B400D931B
:109630000D9A914B9A4240F0B080DDE90801A7F104
:10964000547B4BEC10ABCDE9080101F011F9DDE9D9
:10965000080153EC102BFAF79FFE52465B46FAF7CF
:10966000E5FC0B468349854A19409142824660D900
:1096700018EE903A02F15472934204D118EE103A67
:1096800001333FF445ADDFF800B24FF0FF3A1899CF
:10969000204600F0BBFD0599204600F0B7FD31469D
:1096A000204600F0B3FD2946204600F0AFFD1AE643
:1096B000BAF1000F1BD1CBF31303F3B96C4B0022AB
:1096C00040464946FBF7DAF8D0B9404649466C4B6C
:1096D0000022FAF761FE8046894609F10043CDF881
:1096E00050801593DDE91423CDE908239DE7BAF1F5
:1096F000010F02D1002F3FF483AD624B00228EE7B1
:10970000DFF87C914FF00008E7E75D4B40464946A3
:109710000022FAF741FE0B9B8046894633B901F1DE
:1097200000430E900F93DDE90E23DDE7CDE90E89AE
:10973000F9E703F1547B049B002BA8D12BF00043E5
:109740000D9A1B0D1B059A42A1D140464946FBF7D5
:109750005DF9FAF7F3FD02460B4640464946FAF733
:1097600063FC0B9ACBF3130343EA0A0313438046CB
:10977000894655D036A3D3E90023FBF77FF80028AC
:109780007FF4D0AC34A3D3E9002340464946FBF72D
:1097900093F800283FF47BAFC4E4049B33B30D9BE4
:1097A000B3F1D46F22D82EA3D3E900234046494613
:1097B000FBF76EF8A0B149464046FBF787F8012851
:1097C00038BF0120FAF76EFD0B9B8046894623BB0C
:1097D00001F1004310901193DDE91023CDE9082336
:1097E000099B0D9A03F1D6639B1A0993DDE90801E1
:1097F000B0EE480AF0EE680ACDE9080101F038F849
:10980000DDE9080153EC102BFAF7C6FD53EC182BD9
:10981000FAF70CFC82468B468DE7CDE91089DBE731
:1098200011A3D3E90023FBF729F8B2E700230A9339
:10983000139A179B1360FFF76BBA652A3FF45FAB6F
:10984000452A3FF45CAB0123FFF794BBAFF30080E4
:109850009535A094FFFFDF3F35E5AF350000E03FD1
:109860000000C0FFFFFFDF419535A094FFFFCF3F11
:109870000000F03F0000F07F0000E07FFFFF9F7CD2
:109880000000E03F0000F0BFFFFFEF7F0A46014607
:109890000248034B0068FFF7F3B900BFE4E203207E
:1098A00050E30320012B2DE9F04701D0242B06D9EA
:1098B000FDF7BAFD162303600020BDE8F087DFF84E
:1098C000E4C00D462E4615F8014B14F80C7017F045
:1098D0000807F7D12D2C32D12C780127B51C002B8D
:1098E0005BD0102B09D1302C07D12C7804F0DF0489
:1098F000582C4DD16C781023023507F1004808F13F
:10990000FF384FF0000CB8FBF3F9664603FB198AE9
:10991000A4F1300EBEF1090F16D87446A34224DD1F
:10992000BCF1000F1EDBB1451CD301D1A24519DBF0
:1099300006FB03464FF0010C15F8014BE8E72B2C12
:1099400004BF2C78B51CCAE7A4F1410EBEF1190F73
:1099500001D8373CE2E7A4F1610EBEF1190F04D83B
:10996000573CDBE74FF0FF3CE6E7BCF1000F05DAC0
:1099700022230360464642B930469EE707B176424D
:10998000002AF9D0BCF1000F00D0691E1160F3E786
:109990003024002BB1D10823AFE7302CA5D00A2307
:1099A000ABE700BF39B60B0013460A460146024832
:1099B0000068FFF777BF00BFE4E203202DE9F8431A
:1099C000DFF8B8800646D8F800001F460D469146DD
:1099D00000F0C6FB254B1C6834B9254C1C60254B98
:1099E00013B11B68C4F8883063681F2B07DDD8F8F3
:1099F000000000F0B7FB4FF0FF30BDE8F8834EB336
:109A0000D4F8880088B91C4B23B9D8F8000000F0BE
:109A1000A8FBF0E74FF48470FDF7CEFC0028F4D0EB
:109A20000023C0E94033C4F88800636840F82390FD
:109A300001229A4000EB8301D0F800311343C0F8B3
:109A40000031022EC1F8807002BFD0F804311343F8
:109A5000C0F804316368D8F800005A1C0233626011
:109A600044F8235000F07EFB0020C6E7ECE703201B
:109A700060E7032000000000B9730B0048E30320F7
:109A80000369B3EB611F2DE9F0434FEA611200F166
:109A9000140445DD11F01F0104EB830604EB82057D
:109AA0000CD100F110072946B14234D39B1A9B0018
:109AB000EA1E964238BF0023234415E054F8227072
:109AC000C1F12008CF4005F1040EA1467645F446C9
:109AD00015D89A1A9200043A0135AE4238BF0022D6
