:02000002D0002C
:1040000000400D003CA70D00000006000C0005015B
:084010000401E80500000000B6
:044018009C9B0D0060
:1040200009480A49884208B505D0094A824202D0A7
:10403000121A03F0AFFB0748074A0021121A03F0D7
:10404000B4FB014808BD00BF90E0032044A50D006B
:1040500060E2032060E20320F0E7032070B502F085
:1040600051FB074C074BE41AA40800251E46A54245
:1040700004D056F8253098470135F8E770BD00BFE9
:1040800040A50D0004A50D0000F006BD08B500F028
:1040900031FBBDE8084002F0F7BA01F09FB901F02A
:1040A000A5B901F0A3B90078B0FA80F040097047D3
:1040B000012303707047000008B5044902F09DF821
:1040C00018B1034B03221A70012008BDE89E0D00B1
:1040D000C0E2032010B50446006808B101F086F97B
:1040E000204610BD37B59DF8184023438DF80030A9
:1040F0003C23054601F06CFB284603B030BD0000B0
:104100002DE9D04301F0DAF84FF4967440F2E73627
:104110000027002000F04EFF4FF0000980460020ED
:1041200000F048FFB0EB080061EB09018F4208BFC7
:10413000864205D301F0CAF810B901F0B7F8EEE7EE
:1041400001F0C4F818B1BDE8D04301F0BFB800F0E9
:10415000F9FE034B186001F0A9F8013CF3D0D8E751
:1041600000E7032010B584B20121204602F03DFB98
:104170004FF47A7001F06AF92046002102F035FB15
:104180004FF47A70BDE8104001F060B908B500F056
:10419000D9FE044B1B68C01AB0F57A7F34BF0020EB
:1041A000012008BD50E3032008B5FFF7EFFF18B169
:1041B000BDE80840FFF7EABF01F078F8F5E7000036
:1041C00013B5154C206A02F04DFE144ACDE90001EA
:1041D0001821134801F022F9606A02F043FE114AE7
:1041E000CDE900011821104801F018F9A06A02F089
:1041F00039FE0E4ACDE9000118210D4801F00EF9F3
:10420000E06A02F02FFE0B4ACDE9000118210A48AE
:1042100001F004F902B010BDD8E20320F09B0D00BC
:1042200028E30320019C0D0054E30320129C0D00A1
:10423000A8E20320269C0D0064E2032038B5046840
:1042400005467CB16368013B63605BB92368204627
:104250009B689847A368013BA3601BB9236820466D
:10426000DB689847284638BD30B50824C7B01F4DD5
:1042700002F0D4FA204630222946643400F082FE4F
:10428000B4F5CC7FF3D1D5E90623CDE90223D5E9F6
:1042900004234FF48071CDE9002306A8144A154C7D
:1042A00001F0BCF8144B15491B7800228DF8002052
:1042B00004A806AAFFF716FF05A8FFF7BFFF02F044
:1042C00057F8206002F0AAFA2178032000F052FE8D
:1042D00002F056F80A4B18700A4B01221A7000F0CF
:1042E00031FE094B186047B030BD00BFD8E2032053
:1042F0003B9C0D00A4E2032091E20320639C0D008F
:1043000009E303206CE103208CE2032030B50C4666
:1043100085B01D4D51B92B78002B32D0FFF744FFEB
:104320001A4B1B4A1B788DF8004023E0084603F027
:1043300022F9C83801282B7813D873B1FFF734FF5E
:10434000124B14491B7800228DF8002002A8124A53
:10435000FFF7C8FE03A8FFF771FF104B00221A7089
:104360000FE073B1FFF720FF084B00221B788DF898
:104370000020224602A80A49FFF7B4FE03A8FFF76F
:104380005DFF05B030BD00BF64E1032091E2032072
:10439000799C0D00A09C0D008E9C0D006CE103200B
:1043A000819C0D00F0B54C4C4C4885B00025257023
:1043B00000F06AFDB5EE400AF1EE10FA77D001F098
:1043C000D7FF474B186001F0E5FF0F2809D007DD44
:1043D0001E2803D02D2803D1022502E0012500E08C
:1043E00003253E4800F050FD10EE100A02F03AFDA1
:1043F0003C4AC4E90401CDE9000110213A4801F02A
:104400000DF8364800F04EFD10EE100A02F02AFDBD
:10441000364AC4E90601CDE900011021344800F014
:10442000FDFF344B606AD3E9006702F01BFD3246A2
:104430003B4602F0FBFF10B12F4B01221A70206A9D
:1044400002F010FD02460B463046394602F0EEFF00
:1044500010B12A4B01221A70294BE06AD3E9006798
:1044600002F000FD32463B4602F0E0FF10B1254B62
:1044700001221A70A06A02F0F5FC02460B46304693
:10448000394602F0D3FF10B11F4B01221A700126EA
:10449000267001F06DFF606002F0C0F9642068438F
:1044A000083030220C4900F075FD304611E0174B02
:1044B000174A1B7817498DF8005002A8FFF712FE23
:1044C00003A8FFF7BBFE02F05DF8134901F0D5FD2C
:1044D000284605B0F0BD00BFD8E20320C4E20320A7
:1044E000A4E20320A69C0D007CE20320AE9C0D00FC
:1044F00040E3032018E3032020E303200AE3032022
:1045000098E203206CE30320D0E2032008E30320B9
:10451000B69C0D00D39C0D00D79C0D0030B52D4BE3
:104520002D4C1B788DB013B92C4B1B78EBB12C4B59
:10453000D3E900232021CDE9002304A8294A00F073
:104540006DFF0520FFF70EFEFFF72EFE264B2749D5
:104550001B7800228DF8002002A804AAFFF7C2FDF4
:1045600003A8FFF76BFE01232370214B1A781D4629
:1045700012B9204B1B78EBB11F4BD3E9002320214C
:10458000CDE9002304A81D4A00F048FF0720FFF7EB
:10459000E9FDFFF709FE144B14491B7800228DF842
:1045A000002002A804AAFFF79DFD03A8FFF746FE1E
:1045B0000123237001F0EEFE114B1860237833B114
:1045C0000C4A002313702B700E4B00221A6001203E
:1045D0000DB030BD20E30320A0E203200AE3032056
:1045E00018E30320EF9C0D0091E203200B9D0D00CA
:1045F000D0E203206CE3032098E203201C9D0D0011
:10460000D4E2032068E1032030B5134985B00546A4
:1046100001F0F3FD044648B1104B01241C70104B0F
:1046200000221B788DF800200E4A0BE00E49284628
:1046300001F0E3FD70B1094B0C4A1C70084B1B786C
:104640008DF800400A4902A8FFF74CFD03A8FFF7C8
:10465000F5FD012005B030BDE89E0D0064E10320AA
:1046600091E20320359D0D00469D0D00489D0D00F3
:10467000589D0D0030B5184D184C19492A782078EE
:104680008FB01A2303FB0212009203FB0013154A9A
:10469000282104A800F0C2FE2B78237000F016FE3B
:1046A00090B1FFF781FD104B10491B7800228DF867
:1046B000002002A804AAFFF715FD03A8FFF7BEFD1E
:1046C00000F040FC0A4B186001F05CFF04A901F007
:1046D000D4FC0FB030BD00BFC0E2032090E2032045
:1046E00090E003205D9D0D0091E203206B9D0D0085
:1046F00050E303207FB57B4C2378013B052B00F270
:10470000EE80DFE803F0A8032D1C597A764B1B7866
:104710002BB1764B1B78022B01D0FFF7ABFF01F0DA
:104720002FFE734B734D1B78984240F0BE8001F012
:1047300031FE2B68C01A1D2800F3B780BAE06A4B1F
:104740001B782BB1694B1B78042B01D0FFF792FF2C
:10475000FFF728FE10B1FFF7E1FE5AE00123BDE0AC
:10476000614B1A781D462AB1604B1B78032B01D090
:10477000FFF780FFFFF716FE0646D8B90123237026
:1047800000F0E0FB5C4B18602B78002B00F0A7805A
:10479000FFF70AFD594B5A4A1B785A498DF80060B9
:1047A00002A8FFF79FFC03A8FFF748FD00F0CAFB33
:1047B000554B20E0052391E04B4B1B782BB14B4B25
:1047C0001B78052B01D0FFF755FF00F07FFD68B186
:1047D00001F0D6FD0C2805D100F078FD10B10020C5
:1047E00000F094FDFFF740FD062377E001232370DE
:1047F00000F0A8FB404B186071E03B4B1B782BB1DD
:104800003A4B1B78062B01D0FFF734FF3F4B1B7848
:104810000BB9022362E000F095FB3D4B1B68C01A08
:104820004AF6C87398425AD900F08CFB324D334B8C
:10483000286000221B7837498DF8002002A8364AEC
:10484000FFF750FC03A8FFF7F9FC0123237000F0E9
:1048500079FB286043E0244B1B782BB1234B1B785A
:10486000012B01D0FFF706FF00F06CFB224B1B6809
:1048700003F5922303F57873984230D900F026FDB2
:1048800060B11E4B1F491B7800228DF8002002A842
:10489000224AFFF727FC03A8FFF7D0FC4FF4FA6089
:1048A00000F0D4FD01F0E6FC19E001F073FD0323F4
:1048B000286013E01A4B1B7843B91A4B1B782BB9AD
:1048C000194B1B7813B9194B1B7843B101F062FDEA
:1048D000174B1B68C01A052801DD0423237004B0A0
:1048E00070BD00BFC0E2032064E1032090E203201A
:1048F00009E3032094E2032024E3032091E2032050
:104900007C9D0D00A09C0D0050E303206CE1032072
:104910008CE20320969D0D003FA00D00AF9D0D0081
:104920000AE3032020E30320D0E203206CE303200A
:10493000D4E2032010B588B0044601F088FC0F4B88
:1049400083ED080AFFF730FC214604A801F04AFC79
:104950000B4B0C491B7800228DF8002002A8049A0A
:10496000FFF7C0FB03A8FFF769FC04A801F0D1FB27
:10497000FFF726FC012008B010BD00BFD8E20320DD
:1049800091E20320C39D0D0010B588B0044601F0EC
:104990005EFC0F4B83ED090AFFF706FC214604A8D5
:1049A00001F020FC0B4B0C491B7800228DF80020F5
:1049B00002A8049AFFF796FB03A8FFF73FFC04A8A0
:1049C00001F0A7FBFFF7FCFB012008B010BD00BF02
:1049D000D8E2032091E20320D79D0D0010B588B0E6
:1049E000044601F034FC0F4B83ED0A0AFFF7DCFBB1
:1049F000214604A801F0F6FB0B4B0C491B78002262
:104A00008DF8002002A8049AFFF76CFB03A8FFF7BB
:104A100015FC04A801F07DFBFFF7D2FB012008B0D4
:104A200010BD00BFD8E2032091E20320C39D0D001A
:104A300010B588B0044601F00AFC0F4B83ED0B0A59
:104A4000FFF7B2FB214604A801F0CCFB0B4B0C494D
:104A50001B7800228DF8002002A8049AFFF742FB81
:104A600003A8FFF7EBFB04A801F053FBFFF7A8FB3B
:104A7000012008B010BD00BFD8E2032091E203205E
:104A8000D79D0D000023042200F000BC024601481F
:104A900000F07DBD63550D0070B5B8B001F072FD3A
:104AA0004FF4E13101F062FD01F06CFD574901F076
:104AB000E4FA574B08AA03F110051646186859681E
:104AC000144603C40833AB422246F7D119889B78B9
:104AD00021802D22A37000210DF133004D4C02F0F6
:104AE00064FE022301210720237001F06DFE0121E5
:104AF000052001F069FE04A800F0F0FB002500236A
:104B00007D2218A904A801F08AFB2B462A464249B7
:104B10000195009518A800F0F1FB4049404809684C
:104B20002B46042200F0B2FB3E493F48FFF7AAFFA4
:104B30003E493F48FFF7A6FF3E493F48FFF7A2FF27
:104B40003E493F48FFF79EFF3E493F48FFF79AFF27
:104B50003E493F48FFF796FF3E493F48FFF796FF23
:104B60003E493F48FFF792FF3E493F48FFF78EFF1F
:104B70003E493F48FFF78AFF3E493F48FFF786FF1F
:104B80003E493F48FFF782FF44213E4800F0E5F8E8
:104B900088B900F0D7F93C4D3C492860304602F016
:104BA0003FFE01F0EFFC3A4901F067FA0123237060
:104BB00000F0C8F92860FFF7F5FBFFF701FBFFF7EE
:104BC0009FFA48B90123237000F0BCF92E4B3149FC
:104BD0001860304602F024FE2F4B1B7863B12F4B38
:104BE0002F491B7800228DF8002002A83246FFF7DB
:104BF00079FA03A8FFF722FB00F0A4F9294B18600B
:104C000004A801F086FA38B070BD00BFEB9D0D001E
:104C1000B09B0D00C0E203200D430D0060E10320B6
:104C2000F69D0D007CE20320FE9D0D0040E3032075
:104C30000A9E0D0028E30320139E0D0054E3032079
:104C4000259E0D00A8E20320379E0D0064E203209C
:104C5000469E0D00B9400D00559E0D0009460D0001
:104C6000619E0D0035490D006E9E0D0089490D00B5
:104C70007F9E0D00314A0D00909E0D00DD490D0014
:104C8000A59E0D00C4E2032024E30320B99E0D007D
:104C9000D69E0D00EA9E0D0064E1032091E2032000
:104CA000FC9E0D0050E30320124B70B500241C70D5
:104CB000114B124D01261E7000F084F9104800F0CF
:104CC00029F84FF6FF7302206B812C60AC80AC7129
:104CD0002C8100F097FA0B4A0B49284601F0F2FDAF
:104CE0002146304600F09EFA31460420BDE870406F
:104CF00000F010B908E3032091E203200CE3032045
:104D0000C4E2032060E20320D5400D000368C9B26D
:104D10009B681847704738B505460C4601F0ACFD56
:104D2000297800F08AFF01F0A7FD210AFFF7EEFFC6
:104D300001F0A2FDE1B2FFF7E9FF01F09DFDBDE842
:104D4000384000F082BF08B543F2A201FFF7E3FF4D
:104D50000A20BDE8084000F079BB38B504460D468E
:104D600001F08AFD00F032FF20462570FFF7EBFFCF
:104D7000012038BD0A44FF2091420ED011F8013BBA
:104D80005840082310F0800F4FEA400018BF80F011
:104D90003100013BC0B2F5D1EEE7704700000000E2
:104DA00073B54FF410510446FFF7B5FF4FF4FA7096
:104DB00000F04CFB01F060FD0622217800F03AFF84
:104DC00001F05AFD03681B69984706284AD100255F
:104DD00001F052FD03685B6998470DF80500013545
:104DE000062DF5D1022269462046FFF7C3FF9DF844
:104DF0000250854236D102220DF103012046FFF711
:104E0000B9FF9DF8055085422CD1BDF800009DF8F2
:104E100003609DF8045040BA80B202F001F818A374
:104E2000D3E9002302F072F811A3D3E9002302F0C2
:104E300097F90022104B01F0B5FE02F049FBA0608B
:104E400045EA062001F0ECFF00220C4B02F05EF870
:104E500007A3D3E9002302F083F902F039FB606075
:104E6000012000E0002002B070BD00BFAFF3008061
:104E700000000000E0FFEF40008046400000594085
:104E80000000000000E0654010B50446FFF788FF11
:104E900010B194ED020A10BD9FED010A10BD00BFD4
:104EA0000000C07F10B50446FFF77AFF10B194ED03
:104EB000010A10BD9FED010A10BD00BF0000C07FB8
:104EC00000F080B808B5024B1B689B68019308BDD1
:104ED0004802030008B5024B1B681B69019308BD1B
:104EE0004802030008B5024B1B685B69019308BDCB
:104EF0004802030008B5024B1B685B6C019308BDB8
:104F00004802030008B5024B1B689B6C019308BD67
:104F10004802030008B5024B1B685B6E019308BD95
:104F20003402030008B5024B1B689B6E019308BD59
:104F30003402030008B5024B1B685B68019308BD8F
:104F40001802030008B5024B1B685B69019308BD9A
:104F50001802030008B5024B1B68DB69019308BD0A
:104F60001802030008B5024B1B689B6A019308BD39
:104F70001802030008B5024B1B681B6B019308BDA8
:104F80001802030008B5024B1B685B6C019308BD57
:104F90001802030008B5024B1B689B6C019308BD07
:104FA0001802030008B5024B1B689B6D019308BDF6
:104FB0001802030008B5024B1B68DB6D019308BDA6
:104FC0001802030008B5024B1B681B68019308BD5B
:104FD0002C02030008B5024B1B689B68019308BDB7
:104FE0002C02030008B5024B1B68DB68019308BD67
:104FF0002C02030008B5024B1B681B69019308BD16
:105000002C02030008B5024B1B68DB68019308BD46
:105010002802030008B5024B1B689B69019308BD79
:105020002802030008B5024B1B68DB69019308BD29
:105030002802030008B5024B1B681B6A019308BDD8
:105040002802030008B5024B1B685B6A019308BD88
:105050002802030008B5024B1B689B6A019308BD38
:105060002802030008B5024B1B68DB6A019308BDE8
:105070002802030008B5024B1B681B6B019308BD97
:105080002802030008B5024B1B685B6B019308BD47
:105090002802030008B5024B1B681B6C019308BD76
:1050A0002802030008B5024B1B681B6D019308BD65
:1050B0002802030008B5024B1B685B69019308BD19
:1050C0006402030008B5024B1B689B68019308BD8E
:1050D0006802030008B5024B1B68DB68019308BD3A
:1050E0006802030008B5024B1B68DB69019308BD29
:1050F0003002030008B5024B1B681B6A019308BD10
:105100003002030008B5024B1B681B68019308BD01
:105110003C02030008B5024B1B68DB68019308BD25
:105120003C02030008B5024B1B681B69019308BDD4
:105130003C02030008B5024B1B685B69019308BD84
:105140003C02030008B5024B1B689B69019308BD34
:105150003C02030008B5024B1B68DB69019308BDE4
:105160003C02030008B5024B1B681B6A019308BD93
:105170003C02030008B5024B1B689B6A019308BD03
:105180003C02030008B5024B1B681B68019308BD75
:105190004C02030008B5024B1B685B68019308BD15
:1051A0004C02030008B5024B1B681B69019308BD44
:1051B0004C02030008B5024B1B685B69019308BDF4
:1051C0004C02030008B5024B1B689B69019308BDA4
:1051D0004C02030008B5024B1B68DB69019308BD54
:1051E0004C02030008B5024B1B681B6A019308BD03
:1051F0004C02030008B5024B1B681B68019308BDF5
:105200002002030008B5024B1B685B68019308BDD0
:105210002002030008B5024B1B685B69019308BDBF
:105220002002030008B5024B1B68DB6A019308BD2E
:105230002002030008B5024B1B68DB6C019308BD1C
:105240002002030008B5024B1B685B6D019308BD8B
:105250002002030008B5024B1B689B6D019308BD3B
:105260002002030008B5034B1B68D3F88830019374
:1052700008BD00002002030008B5034B1B68D3F8EB
:105280009430019308BD00002002030008B5024BD2
:105290001B681B68019308BD4402030008B5024B5C
:1052A0001B685B68019308BD4402030008B5024B0C
:1052B0001B689B68019308BD4402030008B5024BBC
:1052C0001B68DB68019308BD4402030008B5024B6C
:1052D0001B685B69019308BD4402030008B5024BDB
:1052E0001B68DB69019308BD4402030008B5024B4B
:1052F0001B681B6A019308BD4402030008B5024BFA
:105300001B685B6A019308BD4402030008B5024BA9
:105310001B68DB6A019308BD4402030008B5024B19
:105320001B681B6B019308BD4402030008B5024BC8
:105330001B68DB6B019308BD4402030008B5024BF8
:105340001B685B68019308BD4002030008B5024B6F
:105350001B689B68019308BD4002030008B5024B1F
:105360001B68DB68019308BD4002030008B5024BCF
:105370001B681B69019308BD4002030008B5024B7E
:105380001B685B69019308BD4002030008B5024B2E
:105390001B689B69019308BD4002030008B5024BDE
:1053A0001B68DB69019308BD4002030008B5024B8E
:1053B0001B681B6A019308BD4002030008B5024B3D
:1053C0001B681B6B019308BD4002030008B5024B2C
:1053D0001B685B6B019308BD4002030008B5024BDC
:1053E0001B681B68019308BD1C02030008B5024B33
:1053F0001B685B68019308BD1C02030008B5024BE3
:105400001B689B68019308BD1C02030008B5024B92
:105410001B689B69019308BD1C02030008B5024B81
:105420001B68DB69019308BD1C02030008B5024B31
:105430001B68DB6A019308BD1C02030008B5024B20
:105440001B681B6B019308BD1C0203000021FFF7C2
:10545000E1BE10B5836804460BB901F054FAC36885
:105460009847A3681BB1032221462046984720464F
:105470001021BDE8104001F02ABA10B504460068BA
:1054800008B1FFF73FFD204610BD0B68036013B164
:105490005A6801325A60704710B5064C0023204606
:1054A0002360FFF727FD2046034A0449BDE810406A
:1054B00001F008BA70E3032060E203207B540D0082
:1054C00070470020704710B51021044601F0FFF925
:1054D000204610BD08B508B1FFF7F5FF08BD10B5AF
:1054E0008368044613B1032201469847204610BD45
:1054F0000022026010B54FF69C728280B1F9044020
:1055000084808A8002680C6804600A6010BD10B54F
:1055100004460068FFF76AFF204610BD38B5C4682E
:10552000F4B12378022B03D104F10C00FFF7EFFF55
:10553000656835B12846FFF7D2FF1021284601F0F3
:10554000C6F9A56835B12846FFF7C9FF10212846DE
:1055500001F0BDF920461421BDE8384001F0B7B98B
:1055600038BD10B588B00446684600F019FE69469B
:1055700004A800F037FE04A8A047044604A800F0E1
:10558000C8FD684600F0C5FD204608B010BDF0B566
:10559000102485B007460E4615460021224668466F
:1055A00002F003F9002269461046ADF80040029768
:1055B00003960195FFF772FE05B0F0BD13B50446E2
:1055C00091E8050000234B600B602060626001A839
:1055D00001930093FEF732FE204602B010BDF7B5EE
:1055E0000C4602AD54F8043B45F8083D06460F460C
:1055F00001A82146FFF749FF29463046FFF7DEFFA5
:1056000001A8FEF71BFE2046FEF718FE38460821CB
:1056100001F05DF9304603B0F0BD13B50B4604460A
:1056200003C88DE8030093E8030084E803009DE8C5
:10563000030083E8030002B010BD000038B500236A
:105640000446036010200D46FEF727FD28B1012314
:1056500043608360024B0360C5602060204638BD14
:10566000149F0D00826810B50AB901F04CF9C368A7
:10567000BDE81040184708B5006800F11001FFF7B9
:10568000F1FF08BD826810B50AB901F03CF9C368A2
:10569000BDE81040184708B5006800F11001FFF799
:1056A000F1FF08BD38B5002383608B6804460D46C2
:1056B0002BB102229847EB68E360AB68A3602046F9
:1056C00038BD0000F0B589B004686846FFF710FFE8
:1056D00000238DF808304FF00202D4E84F3F002B32
:1056E00003D1C4E8412F0029F7D102D08DF808304A
:1056F00063E014F10C0503D069462846FFF7F8FE75
:10570000BFF35F8F01236370002004F10803BFF330
:105710005F8F53E8006F43E80002002AF9D1BFF31E
:105720005F8F002E49D0FFF785FD20B12946304616
:10573000FFF798FF3AE0314602A8FFF7B3FFE068B1
:10574000B4F9105008B102F073F806901020ADF8CB
:105750001C50FEF7A2FC0546E8B100278760182020
:10576000FEF79BFC044688B10146876002A8FFF75C
:1057700054FF049BA268A360059B049206A9E268FB
:10578000E36004F110000592FFF7B2FE0D4BEB60F1
:105790000D4B2C60AB6006A8FFF7B9FE02A8FFF71F
:1057A0009EFE002229460948FFF74CFD3046FFF7D0
:1057B00096FE1021304601F08AF86846FFF7A7FEF2
:1057C00009B0F0BD77560D00ED580D0053540D0093
:1057D0002DE9F04F8BB006460F46904699469DF84E
:1057E00050A0FFF773FD07AD834630BB4FF62E7315
:1057F000059005A92846ADF81830FFF779FE14206A
:10580000FEF74BFC044658B102230370012343709A
:10581000C0F804B0C0F808B029460C30FFF768FEA5
:105820003046214640F8044BFFF708FF2846FFF7B3
:105830006EFE05A8FFF76BFE52E000240C23142037
:105840006C60AC600793FEF728FC014618B1047049
:1058500044704460846004A80391FFF7EFFE224B7C
:1058600008930820FEF719FC044628B1039B40F872
:10587000043B04A9FFF709FE00955FFA8AF34A4644
:10588000414638460994FFF731FD20B9039B5B7808
:1058900003F0FF0283B1039B059304A906A8FFF759
:1058A000F4FD05A93046FFF789FE06A8FEF7C6FC01
:1058B00004A8FEF7C3FC13E04FF69C7305A903A8E8
:1058C0000592ADF81830FFF7FDFE05A8FFF71FFEA3
:1058D00005A80999FFF783FE06A8FEF7AFFCDAE7F3
:1058E00030460BB0BDE8F08F5D5A0D00022AF8B5C6
:1058F000044606D0032A17D0012A22D10B68036080
:105900001FE018200E68FEF7C8FB054650B131466F
:10591000FFF7C8FE3069B6F9147008B101F088FFCE
:105920002861AF8225600CE0046854B104F11000D6
:10593000FFF7EDFD2046FFF7D2FD1821204600F0CD
:10594000C6FF0020F8BD38B5002383608B6804468D
:105950000D462BB102229847EB68E360AB68A36069
:10596000204638BD022A70B5044606D0032A11D05D
:10597000012A18D10B68036015E014200E68FEF7A9
:105980008CFB054620B13146FFF7DDFF337C2B74DD
:10599000256008E0046834B12046FFF7A0FD14211B
:1059A000204600F094FF002070BD0000F0B50023F9
:1059B00087B00C46BFF35F8F50E8006F40E80032BD
:1059C000002AF9D1BFF35F8F002E3FD01846FFF7B2
:1059D00031FC074620B121463046FFF753FE2EE04A
:1059E000314601A8FFF7AFFF23788DF8143010205F
:1059F000FEF753FB0546D0B187601420FEF74DFB40
:105A0000044678B18760014601A8FFF706FE039BB4
:105A1000A268A360049B0392E268E3609DF81430DF
:105A2000049223740A4BEB600A4B2C60AB6001A814
:105A3000FFF755FD002229460748FFF703FC3046D3
:105A4000FFF74DFD1021304600F041FF07B0F0BDDB
:105A500097560D0065590D0053540D0030B585B0B3
:105A600004460D4668461146FFF7B9FD7CB124B2E5
:105A700028460DB101F0DCFE029002A96846ADF89F
:105A80000C40FFF71FFE02A8FFF741FD1DE0009844
:105A90008DF808404FF00102D0E84F3FA34203D1F8
:105AA000C0E8412F0029F7D102D08DF808300CE072
:105AB00010F10C014FF0010318BF0373BFF35F8FA8
:105AC000043000F8033CFFF771FF01A8FEF7B6FBB6
:105AD00005B030BD002211464068FFF767BC0022C8
:105AE00011464068FFF772BC00224068FFF766BCB1
:105AF000002281F001014068FFF750BC00231A46E4
:105B000019464068FFF742BC00231A461946406810
:105B1000FFF734BC002211464068FFF727BC002283
:105B200011464068FFF712BC002202214068FFF7CF
:105B300015BC00231A464068FFF700BC024B032245
:105B40005A60024A1A60704774E30320309F0D00C8
:105B50007047F8B5064615460C468F18BC4206D06D
:105B6000336814F8011B9B6830469847F6E72846CF
:105B7000F8BD0022007CFFF75DBA0021007CFFF732
:105B800061BA0021007CFFF765BA0021007CFFF7B5
:105B900069BA0021007CFFF76DBA10B514210446E4
:105BA00000F095FE204610BD10B50446002363604A
:105BB0004FF47A73A360044B2174084623601146A6
:105BC000FFF768FA204610BD649F0D0000231A46B7
:105BD0001946007CFFF716BA70B50C4686B014253E
:105BE00006462A46002101A801F0DFFD23788DF842
:105BF000083063680393E36804930022237A307CBF
:105C0000ADF8045001A90593FFF74CFA06B070BD3A
:105C10001FB500338DF800104FF06401039118BFD9
:105C20000123694601928DF80830FFF7D5FF05B0D2
:105C30005DF804FB0123FFF7EBBF0022007CFFF7B8
:105C4000E9B90022007CFFF7EDB90121FFF7F9BFA8
:105C50000021007CFFF716BA704710B518210446E2
:105C600000F035FE204610BDF0B5037D062B8DB04B
:105C70000E4600F104074FF0000402D000F10805C1
:105C800018E00CAD394605F8304D2F232A460A207E
:105C9000FFF710FA284601F0E6FD33680246DB689C
:105CA0002946304698470FE024B12E21304600F0B7
:105CB000D5F9044415F8011D0A22304600F0E7F931
:105CC000BD420444F0D120460DB0F0BD10B5054BE7
:105CD0000446112240F8043B002101F066FD2046F5
:105CE00010BD00BF8C9F0D000346074A10B543F856
:105CF000042B01F1100251F8044B43F8044B91427C
:105D0000F9D10A781A7010BD8C9F0D0010B59DF85E
:105D1000084044EA032343EA024242EA01610423C1
:105D20004160037510BD37B50D788B784A78C97816
:105D300000912946FFF7EAFF03B030BD014B024A4C
:105D40001A6070477CE303200BA00D00002211466F
:105D50004068FFF72BBB002211464068FFF736BBB7
:105D600000224068FFF72ABB002281F00101406851
:105D7000FFF714BB00231A4601214068FFF706BB5A
:105D800000231A4619464068FFF7F8BA0022114668
:105D90004068FFF7EBBA002211464068FFF7D6BA19
:105DA000002202214068FFF7D9BA00231A46406852
:105DB000FFF7C4BA38B5054688B104684CB1A3688A
:105DC0001BB103222146204698471021204600F0AF
:105DD0007EFD28461421BDE8384000F078BD38BD6E
:105DE00010B103685B681847704710B50368044634
:105DF000BBB15868FFF766F878B923685A7C12B9C6
:105E00005868FFF767F823685868FFF76BF8206851
:105E10000023236028B1FFF7CDFF206808B1FFF70A
:105E2000C9FF204610BD38B50446D0F8C40108B1FA
:105E3000FEF737F9D4F8C00108B1FFF763F8D4F8DA
:105E4000BC5135B12846FFF7D0FF0421284600F0A9
:105E50003EFD206808B1FFF7C3FF204638BD0000B3
:105E600010B5044B044640F8083BFFF7DCFF204622
:105E700010BD00BF80A00D0038B50E4C0E4B236046
:105E80000025022304F5E4706360A560C4F8C451E2
:105E9000C4F8C851FFF72EF8084BC4F8CC5184F869
:105EA000D05123602046064A0649BDE8384000F03C
:105EB00009BD00BF80E30320B4A00D0080A00D0049
:105EC00060E20320615E0D0000231A464068FFF780
:105ED00035BA002202214068FFF740BA002211467D
:105EE0004068FFF733BA002211464068FFF73EBA18
:105EF00000231A4619464068FFF740BA00231A46A5
:105F000019464068FFF742BA002281F0010140685B
:105F1000FFF744BA00224068FFF750BA002211464A
:105F20004068FFF753BA002211464068FFF73EBAB7
:105F30002DE9F043002495B016460D460746FFF7BD
:105F4000C5FE214620220CA8009401F02EFC40231F
:105F50000C9321466B460CAA3046FFF7BBF804466B
:105F6000002844D1024601216868FFF7FFF90221A9
:105F7000804622466868FFF7F9F9009E814621466F
:105F8000002E34D0002932D17368022B02D00A2BA4
:105F900009D02AE0B8F1000F27D0716938460431E2
:105FA000FFF7C1FE20E0B9F1000F1ED07469112285
:105FB00001A801F0FAFB06238DF8143001AD04F1BD
:105FC00008031834186859682A4603C20833A342E4
:105FD0001546F7D101A906A807ADFFF785FE0FCD3D
:105FE0003C1D0FC42B6823700121F669C8E7009897
:105FF000FFF768F8384615B0BDE8F083024B034A56
:106000001A6000225A60704754E50320B4A00D00C6
:10601000F8B506460D468F180024BD420CD03368F3
:1060200015F8011B9B6830469847002801DB0444A3
:10603000F3E7002C08BF04462046F8BD70B50546BE
:106040000C46084649B101F00EFC2B680246214679
:106050002846DB68BDE87040184770BD03689B6840
:10606000184738B50D210546FFF7F8FF0A21044609
:106070002846FFF7F3FF204438BD38B50546FFF743
:10608000DDFF04462846FFF7ECFF204438BD30B55D
:106090008BB00B4600218DF82410012A98BF0A22EC
:1060A0000DF12304B3FBF2F505FB123303F0FF03FC
:1060B000092B94BF30333733DBB2214604F8013962
:1060C0002B46002DEED1FFF7B9FF0BB030BD10B558
:1060D0000446FFF704FA204610BD00000348044AB6
:1060E00004490023836000F0EDBB00BF5CE50320A2
:1060F00060E20320CF600D0010B504460170084631
:10610000FEF7F0FF00236360204610BD0078FEF725
:10611000F1BF10B504460068FFF768F9204610BDCE
:1061200010B50446006808B1FFF760F9002323604A
:10613000A360636010BD38B504460D4600680131A8
:10614000FFF75CF910B184E82100012038BD10B5DB
:106150000368044613B143688B4207D22046FFF719
:10616000EAFF20B1A3680BB922681370012010BDAB
:1061700070B50E46114604461546FFF7E8FF18B9FC
:106180002046FFF7CDFF09E02A463146A56020688A
:1061900001F000FB2268A3680021D154204670BDA5
:1061A00038B50023044603604360836003730D46E3
:1061B00039B1084601F057FB294602462046FFF751
:1061C000D7FF204638BD884210B50B46044607D09D
:1061D000096819B19A68FFF7CBFF01E0FFF7A0FF4C
:1061E000204610BD10B50023044603604360836061
:1061F0000373FFF7E8FF204610BD08B582680B4621
:1062000012B919B9012008BD11B90368187802E064
:10621000006801F0FBFAB0FA80F0400908BD70B5E3
:106220000E469AB191B185689D4202D800230B7049
:1062300070BD541EED1A0168AC4228BF2C461944AB
:106240002246304601F02CFB0023335570BD08B5C3
:10625000006830B101F08CF951EC100B01F038F905
:1062600000E0002000EE100A08BD014600228C204C
:10627000FEF758BE0020FFF7F8BF000010B5094C2C
:1062800000204FF6FF732060A080A0712081638101
:10629000FEF7B8FF2046044A0449BDE8104000F06C
:1062A00011BB00BF6CE5032060E20320D5400D0068
:1062B000F0B5144B144F1E68144B064418683B6825
:1062C00006449E428BB01BD00AA801AD40F8286D51
:1062D00001F064F9436903F26C73436104460FCC27
:1062E0000FC50FCC0FC5D4F800E0C5F800E001AD34
:1062F0000FCD074C0FC40FCD0FC43E60C4F800E0B3
:106300000BB0F0BDA8E50320A4E50320A0E5032021
:1063100078E5032008B50020FFF700F828B1FEF764
:10632000D5FF80F00100C0B208BD012008BD10B546
:106330000020FEF737FE044668B9FEF75BFF012830
:106340000BD12046FEF786FF38B9FFF7E3FF30B9DF
:10635000FEF7ACFFF9E7012010BD002010BDFFF7EC
:10636000D9FF0020FEF71EFE003018BF012010BD2F
:1063700008B5FFF7DCFFBDE80840FEF7EBBD000005
:1063800008B5FFF7F5FFFFF793FF014B986808BDCD
:1063900078E5032008B5FFF7EBFFFFF789FF014B16
:1063A000586808BD78E50320024B1A68024B1A6052
:1063B000704700BF70E103209CE5032070474174E3
:1063C000704708B5007CFEF7D5FE20EAE07008BDF6
:1063D00008B5007CFEF7A6FE20EAE07008BD08B50F
:1063E000007CFEF7AFFE30EA200028BF4FF0FF3000
:1063F00008BD08B5007CFEF79DFE30EA200028BFEE
:106400004FF0FF3008BD007CFEF7A4BE10B514218C
:10641000044600F05CFA204610BD70B5457C044689
:106420000E4625B9007CFEF7A5FE002805DD3146A5
:10643000207CBDE87040FEF76DBE284670BD0000B0
:1064400010B5044608461146002262604FF47A7285
:10645000A260054A22600122207462741A46FEF787
:1064600051FE204610BD00BF10A10D00007CFEF7BC
:1064700079BE000038B50C4D296811F0010411D126
:106480002846FDF710FE68B1084A094B0948214625
:10649000FFF7D6FF2846FDF70BFE074A07490548D8
:1064A00000F010FA034838BD44E6032048E6032014
:1064B000C0E50320ACE5032060E20320BD630D00CE
:1064C00041747047704708B50021007CFEF77AFEE2
:1064D00030EA200028BF4FF0FF3008BD08B5012189
:1064E000007CFEF76FFE30EA200028BF4FF0FF303F
:1064F00008BD08B5007CFEF75DFE20EAE07008BD2F
:1065000008B5007CFEF74EFE20EAE07008BD007C76
:10651000FEF768BE10B51421044600F0D8F92046F5
:1065200010BD38B50446007C0D46FEF743FE00283A
:1065300001DC607C28B12946207CFEF74BFE20EA76
:10654000E07038BD10B50446002363604FF47A73E1
:10655000A360054B23600123084621746374114630
:10656000FEF710FE204610BD40A10D000022007C69
:10657000FEF710BE10B514220446002101F015F9F3
:10658000204610BD30B50E4D87B001A8FFF7F2FFD1
:10659000296811F0010410D12846FDF784FD60B18F
:1065A00001AA21460748FFF7CDFF2846FDF780FDE9
:1065B000054A0649034800F085F9024807B030BD96
:1065C000CCE60320D0E6032060E20320C5640D0082
:1065D000002211464068FEF7C9BE002211464068FD
:1065E000FEF7E4BE002211464068FEF7EFBE00222F
:1065F0004068FEF7E3BE002281F001014068FEF72B
:10660000CDBE00231A4619464068FEF7BFBE0023E0
:106610001A4619464068FEF7B1BE0022114640688E
:10662000FEF794BE002202214068FEF797BE0023C9
:106630001A464068FEF782BE024B04225A60024AA4
:106640001A607047E4E6032070A10D0008B50C4BFA
:1066500033B1FFF797FF03681B699847002809DCEF
:10666000084B63B1FFF706FF03681B6998470028D2
:1066700003DC08BDAFF30080F2E7AFF3008008BD94
:10668000000000000000000008B5FFF7DFFFFEF784
:1066900059FC014B186008BD00E703200248034A7B
:1066A0000349121A01F076B800F4032004F4032021
:1066B00040A50D0007B5002300931A466FF077013F
:1066C000FEF7DAFD03B05DF804FB000007B5438870
:1066D0000A2B08D0502B09D1094B1B683BB103B0E2
:1066E0005DF804EB1847FFF7E5FF06E00023009391
:1066F0001A466FF07701FEF7BFFD03B05DF804FBAB
:10670000ECE6032038B5104C104D2368AB42104B1B
:106710000CBF012200221A7002D0FFF7BFFF2560D4
:10672000FEF708FC044601F049F80A4B13B1204675
:10673000AFF3008000210748FEF7F8FD002106486E
:10674000BDE83840FEF78EBD00F403201E1C279ADA
:10675000F0E6032000000000CD660D0070B5184E75
:10676000316811F0010504460AD13046FDF79BFC63
:1067700030B129461348FFF7BFFC3046FDF798FCBF
:106780001048FFF7C3FC28B1A4F10B03022B01D87A
:10679000002070BD00F070F8FFF75AFA08B1012C24
:1067A000F6D9FFF767FEFFF761FE18B1A4F1090300
:1067B000012BEDD9232C8CBF0020012070BD00BF20
:1067C000F4E60320F8E60320232838B504460D46F6
:1067D0000AD8FF2908D0FFF7C1FF28B12946204673
:1067E000BDE83840FEF7F6BB38BD38B504460D4667
:1067F000FEF7F8FBFF2810D0062804D84D2323FA13
:1068000000F0C30709D42046FFF7A8FF28B12946A6
:106810002046BDE83840FEF7EDBB38BD10B5074C4B
:106820002368DB0708D42046FDF73DFC20B1FEF7C6
:1068300099FB2046FDF73CFC014810BD04E703200E
:1068400008E7032070B5044614252A46094E0021A6
:1068500000F0ABFF258020253146A5602561284644
:1068600000F04FF831466060284600F04AF8E060DA
:10687000204670BD9CA10D0030B50E4D296811F069
:10688000010487B013D12846FDF70DFC78B101A8AB
:10689000FFF7D8FF01AA21460748FFF785F92846E8
:1068A000FDF706FC054A0649034800F00BF80248CC
:1068B00007B030BD0CE7032010E7032060E203209F
:1068C000515B0D000B460146184600F059BEFDF71E
:1068D000E6BB0000024B1868BFF35F8F704700BF34
:1068E00024E7032010B5002814BF044601242046E5
:1068F000FEF774FD20B9FFF7EDFF08B18047F6E71A
:1069000010BDFFF7EFBF08B5FEF790FD244B1A68E6
:10691000D0075CBF01221A60224B1A68D1075CBF06
:1069200001221A60204B1A68D2075CBF01221A604C
:106930001E4B1A68D0075CBF01221A601C4B1A68F4
:10694000D1075CBF01221A601A4B1A68D2075CBFDC
:1069500001221A60184B1A68D0075CBF01221A6026
:10696000164B1A68D1075CBF01221A60144B1A68D3
:10697000D2075CBF01221A60124B1A68D0075CBFB5
:1069800001221A60104B1A68D1075CBF01221A60FD
:106990000E4B1A68D2075CBF01221A60704700BF15
:1069A00054E7032050E703204CE7032048E7032087
:1069B00044E7032040E703203CE7032038E70320B7
:1069C00034E7032030E703202CE7032028E70320E7
:1069D000184B1A68D1075CBF01221A60164B1A685F
:1069E000D2075CBF01221A60144B1A68D0075CBF43
:1069F00001221A60124B1A68D1075CBF01221A608B
:106A0000104B1A68D2075CBF01221A600E4B1A683D
:106A1000D0075CBF01221A600C4B1A68D1075CBF1B
:106A200001221A600A4B1A68D2075CBF01221A6061
:106A3000704700BF74E7032070E703206CE7032072
:106A400068E7032064E7032060E703205CE7032096
:106A500058E70320184B1A68D1075CBF01221A605F
:106A6000164B1A68D2075CBF01221A60144B1A68D1
:106A7000D0075CBF01221A60124B1A68D1075CBFB5
:106A800001221A60104B1A68D2075CBF01221A60FB
:106A90000E4B1A68D0075CBF01221A600C4B1A68B3
:106AA000D1075CBF01221A600A4B1A68D2075CBF8B
:106AB00001221A60704700BF94E7032090E703208B
:106AC0008CE7032088E7032084E7032080E7032086
:106AD0007CE7032078E70320244B1A68D0075CBFCB
:106AE00001221A60224B1A68D1075CBF01221A608A
:106AF000204B1A68D2075CBF01221A601E4B1A682D
:106B0000D0075CBF01221A601C4B1A68D1075CBF1A
:106B100001221A601A4B1A68D2075CBF01221A6060
:106B2000184B1A68D0075CBF01221A60164B1A680E
:106B3000D1075CBF01221A60144B1A68D2075CBFF0
:106B400001221A60124B1A68D0075CBF01221A603A
:106B5000104B1A68D1075CBF01221A600E4B1A68ED
:106B6000D2075CBF01221A60704700BFC4E7032050
:106B7000C0E70320BCE70320B8E70320B4E7032005
:106B8000B0E70320ACE70320A8E70320A4E7032035
:106B9000A0E703209CE7032098E7032081F0004151
:106BA00002E000BF83F0004330B54FEA41044FEAF2
:106BB000430594EA050F08BF90EA020F1FBF54EA8D
:106BC000000C55EA020C7FEA645C7FEA655C00F029
:106BD000E2804FEA5454D4EB5555B8BF6D420CDDFA
:106BE0002C4480EA020281EA030382EA000083EA7D
:106BF000010180EA020281EA0303362D88BF30BD1D
:106C000011F0004F4FEA01314FF4801C4CEA113172
:106C100002D0404261EB410113F0004F4FEA0333D1
:106C20004CEA133302D0524263EB430394EA050F5C
:106C300000F0A780A4F10104D5F1200E0DDB02FACB
:106C40000EFC22FA05F2801841F1000103FA0EF25F
:106C5000801843FA05F359410EE0A5F120050EF125
:106C6000200E012A03FA0EFC28BF4CF0020C43FA56
:106C700005F3C01851EBE37101F0004507D54FF063
:106C8000000EDCF1000C7EEB00006EEB0101B1F5B3
:106C9000801F1BD3B1F5001F0CD349085FEA3000F9
:106CA0004FEA3C0C04F101044FEA445212F5800F04
:106CB00080F09A80BCF1004F08BF5FEA500C50F1A1
:106CC000000041EB045141EA050130BD5FEA4C0C84
:106CD000404141EB010111F4801FA4F10104E9D10D
:106CE00091F0000F04BF01460020B1FA81F308BF04
:106CF0002033A3F10B03B3F120020CDA0C3208DDD0
:106D000002F1140CC2F10C0201FA0CF021FA02F1AA
:106D10000CE002F11402D8BFC2F1200C01FA02F11A
:106D200020FA0CFCDCBF41EA0C019040E41AA2BF3F
:106D300001EB0451294330BD6FEA04041F3C1CDA07
:106D40000C340EDC04F11404C4F1200220FA04F027
:106D500001FA02F340EA030021FA04F345EA0301D1
:106D600030BDC4F10C04C4F1200220FA02F001FA93
:106D700004F340EA0300294630BD21FA04F0294615
:106D800030BD94F0000F83F4801306BF81F48011AE
:106D90000134013D4EE77FEA645C18BF7FEA655C21
:106DA00029D094EA050F08BF90EA020F05D054EAF3
:106DB000000C04BF1946104630BD91EA030F1EBFF8
:106DC0000021002030BD5FEA545C05D140004941FC
:106DD00028BF41F0004130BD14F580043CBF01F5EF
:106DE000801130BD01F0004545F0FE4141F47001D5
:106DF0004FF0000030BD7FEA645C1ABF19461046B0
:106E00007FEA655C1CBF0B46024650EA013406BFB0
:106E100052EA033591EA030F41F4002130BD00BF6F
:106E200090F0000F04BF0021704730B54FF480642C
:106E300004F132044FF000054FF0000150E700BFAD
:106E400090F0000F04BF0021704730B54FF480640C
:106E500004F1320410F0004548BF40424FF00001F9
:106E60003EE700BF42004FEAE2014FEA31014FEA3C
:106E700002701FBF12F07F4393F07F4F81F060518B
:106E8000704792F0000F14BF93F07F4F704730B5FA
:106E90004FF4607401F0004521F0004120E700BF8D
:106EA00050EA010208BF704730B54FF000050AE014
:106EB00050EA010208BF704730B511F0004502D515
:106EC000404261EB41014FF4806404F132045FEA17
:106ED000915C3FF4DCAE4FF003025FEADC0C18BFBC
:106EE00003325FEADC0C18BF033202EBDC02C2F1B2
:106EF000200300FA03FC20FA02F001FA03FE40EA44
:106F00000E0021FA02F11444C1E600BF70B54FF043
:106F1000FF0C4CF4E06C1CEA11541DBF1CEA135525
:106F200094EA0C0F95EA0C0F00F0DEF82C4481EA8D
:106F3000030621EA4C5123EA4C5350EA013518BFAD
:106F400052EA033541F4801143F4801338D0A0FB9A
:106F500002CE4FF00005E1FB02E506F00042E0FB47
:106F600003E54FF00006E1FB03569CF0000F18BF4D
:106F70004EF0010EA4F1FF04B6F5007F64F54074F5
:106F800004D25FEA4E0E6D4146EB060642EAC62188
:106F900041EA55514FEAC52040EA5E504FEACE2EF5
:106FA000B4F1FD0C88BFBCF5E06F1ED8BEF1004FF8
:106FB00008BF5FEA500E50F1000041EB045170BD74
:106FC00006F0004646EA010140EA020081EA0301B8
:106FD000B4EB5C04C2BFD4EB0C0541EA045170BDB4
:106FE00041F480114FF0000E013C00F3AB8014F12E
:106FF000360FDEBF002001F0004170BDC4F1000477
:10700000203C35DA0C341BDC04F11404C4F12005F7
:1070100000FA05F320FA04F001FA05F240EA020052
:1070200001F0004221F0004110EBD37021FA04F688
:1070300042EB06015EEA430E08BF20EAD37070BD42
:10704000C4F10C04C4F1200500FA04F320FA05F0A1
:1070500001FA04F240EA020001F0004110EBD370A3
:1070600041F100015EEA430E08BF20EAD37070BD13
:10707000C4F1200500FA05F24EEA020E20FA04F3EC
:1070800001FA05F243EA020321FA04F001F000419B
:1070900021FA04F220EA020000EBD3705EEA430E0C
:1070A00008BF20EAD37070BD94F0000F0FD101F03B
:1070B0000046400041EB010111F4801F08BF013C74
:1070C000F7D041EA060195F0000F18BF704703F0B2
:1070D0000046520043EB030313F4801F08BF013D39
:1070E000F7D043EA0603704794EA0C0F0CEA1355F5
:1070F00018BF95EA0C0F0CD050EA410618BF52EAAF
:107100004306D1D181EA030101F000414FF00000B4
:1071100070BD50EA410606BF1046194652EA4306C2
:1071200019D094EA0C0F02D150EA013613D195EA36
:107130000C0F05D152EA03361CBF104619460AD17E
:1071400081EA030101F0004141F0FE4141F4700188
:107150004FF0000070BD41F0FE4141F4780170BD78
:1071600070B54FF0FF0C4CF4E06C1CEA11541DBFDD
:107170001CEA135594EA0C0F95EA0C0F00F0A7F8DF
:10718000A4EB050481EA030E52EA03354FEA01310C
:1071900000F088804FEA03334FF0805545EA13131F
:1071A00043EA12634FEA022245EA111545EA1065E7
:1071B0004FEA00260EF000419D4208BF964244F17E
:1071C000FD0404F5407402D25B084FEA3202B61A9D
:1071D00065EB03055B084FEA32024FF480104FF471
:1071E000002CB6EB020E75EB030E22BFB61A7546E5
:1071F00040EA0C005B084FEA3202B6EB020E75EB78
:10720000030E22BFB61A754640EA5C005B084FEADF
:107210003202B6EB020E75EB030E22BFB61A7546AC
:1072200040EA9C005B084FEA3202B6EB020E75EBB7
:10723000030E22BFB61A754640EADC0055EA060E78
:1072400018D04FEA051545EA16754FEA06164FEABB
:10725000C30343EA52734FEAC2025FEA1C1CC0D167
:1072600011F4801F0BD141EA00014FF000004FF0F4
:10727000004CB6E711F4801F04BF01430020B4F1B5
:10728000FD0C88BFBCF5E06F3FF6AFAEB5EB030C6D
:1072900004BFB6EB020C5FEA500C50F1000041EB6A
:1072A000045170BD0EF0004E4EEA113114EB5C0437
:1072B000C2BFD4EB0C0541EA045170BD41F480110A
:1072C0004FF0000E013C90E645EA060E8DE60CEA12
:1072D000135594EA0C0F08BF95EA0C0F3FF43BAF2F
:1072E00094EA0C0F0AD150EA01347FF434AF95EAE6
:1072F0000C0F7FF425AF104619462CE795EA0C0FCA
:1073000006D152EA03353FF4FDAE1046194622E796
:1073100050EA410618BF52EA43067FF4C5AE50EA70
:1073200041047FF40DAF52EA43057FF4EBAE12E760
:107330004FF0FF3C06E000BF4FF0010C02E000BF41
:107340004FF0010C4DF804CD4FEA410C7FEA6C5C24
:107350004FEA430C18BF7FEA6C5C1BD001B050EAC7
:10736000410C0CBF52EA430C91EA030F02BF90EAB2
:10737000020F0020704710F1000F91EA030F58BF71
:10738000994208BF90422CBFD8176FEAE37040F0D3
:10739000010070474FEA410C7FEA6C5C02D150EA71
:1073A000013C07D14FEA430C7FEA6C5CD6D152EA2C
:1073B000033CD3D05DF8040B704700BF84461046F1
:1073C00062468C461946634600E000BF01B5FFF7F0
:1073D000B7FF002848BF10F1000F01BD4DF808EDC0
:1073E000FFF7F4FF0CBF012000205DF808FB00BF91
:1073F0004DF808EDFFF7EAFF34BF012000205DF8EB
:1074000008FB00BF4DF808EDFFF7E0FF94BF012037
:1074100000205DF808FB00BF4DF808EDFFF7CEFF38
:1074200094BF012000205DF808FB00BF4DF808ED77
:10743000FFF7C4FF34BF012000205DF808FB00BF48
:107440004FEA410212F5001215D211D56FF478738C
:10745000B3EB625212D94FEAC12343F0004343EA2F
:10746000505311F0004F23FA02F018BF404270470A
:107470004FF00000704750EA013005D111F0004094
:1074800008BF6FF0004070474FF00000704700BF2A
:107490004A0011D212F5001211D20DD56FF4787393
:1074A000B3EB62520ED44FEAC12343F0004343EAE8
:1074B000505323FA02F070474FF00000704750EA33
:1074C000013002D14FF0FF3070474FF0000070479D
:1074D0004FEA4102B2F1E04324BFB3F5001CDCF1F6
:1074E000FE5C0DD901F0004C4FEAC0024CEA50702E
:1074F000B2F1004F40EB830008BF20F0010070475D
:1075000011F0804F21D113F13872BCBF01F000405F
:10751000704741F480114FEA5252C2F11802C2F191
:10752000200C10FA0CF320FA02F018BF40F0010012
:107530004FEAC1234FEAD32303FA0CFC40EA0C00C4
:1075400023FA02F34FEA4303CCE77FEA625307D101
:1075500050EA01331EBF4FF0FE4040F44000704738
:1075600001F0004040F0FE4040F40000704700BFD2
:10757000002100F0C5BF0A22002101F04FB8000031
:1075800010B5054C13462CB10A4601460220AFF354
:10759000008010BD204610BD0000000038B5074B2C
:1075A0001C68E36B05461BB92420FDF717FFE06359
:1075B000E16B2846BDE8384000F002B8D8E103206E
:1075C0002DE9F0410C46804601F04CFE214607466D
:1075D000404601F04BFE466906F26C76B30704465E
:1075E00005D1642296FBF2F302FB13634BB94FF40F
:1075F000C87596FBF5F305FB1365B5FA85F35B09D2
:1076000000E001235F4A302505FB032501F040F926
:1076100001F040F95C4B1B68F3B17B689E4205D1D9
:107620003968D8F80030FA6941B90AE0304601F00B
:1076300087F80028F4D14FF0FF330DE0934208DBC8
:1076400001E0934207DABA6B9342ACBF00230123F7
:1076500002E0002300E001232362236A012B0CBF18
:10766000F96B396A4FF461633C2091FBF3F603FB3D
:107670001613616893FBF0F200FB12302368891A3D
:10768000A26861601B1A921B3B2B2360A26003DD82
:10769000013161603C3B04E0002B03DA0139616099
:1076A0003C33236063683B2B03DD0132A2603C3B2B
:1076B00004E0002B03DA013AA2603C336360A36864
:1076C000172B22DDE2690132E261A2690132062A4A
:1076D000C8BF0022A261E268183B0132A36023699F
:1076E000E26055F823108A4246DD01330C2B0CBFB3
:1076F00063692361A2EB0102E26001BF0133002252
:107700002261636108BFE26136E0002B34DAE2698E
:10771000013AE261A269013A48BF0622A261E26829
:107720001833013AE260A36032BB2369013B01D404
:1077300023611DE00B23236163695A1E12F0030FBE
:10774000626103F26B7305D1642193FBF1F201FBDB
:1077500012324AB94FF4C87193FBF1F201FB1233B4
:10776000B3FA83F35B0900E0012303F5B673E36129
:10777000236955F82330E36001F08BF82046BDE81B
:10778000F08100BF08A30D00E4E703200048704724
:10779000DCE1032010B5431E0A44914204D011F8E5
:1077A000014B03F8014FF8E710BD02440346934232
:1077B00002D003F8011BFAE77047000038B5124BFE
:1077C0001C68A36B0546D3B91820FDF707FE43F2EA
:1077D0000E33A06303804AF6CD33438041F2342355
:1077E00083804EF26D63C3804DF6EC630381052305
:1077F00043810B23838101220023C0E90423A36B6F
:1078000000221D615A6138BDD8E1032010F8012B18
:1078100011F8013B012A28BF9A42F7D0D01A7047CD
:10782000034611F8012B03F8012B002AF9D1704708
:10783000024B0146186800F003B800BFD8E10320EE
:1078400070B5064608460C4600F00DF8451C294662
:107850003046FDF7F3FD064618B12A462146FFF7EC
:1078600099FF304670BD034613F8012B002AFBD167
:10787000181A0138704730B582B1451E013915F824
:10788000013F11F8014FA34206D1EC431444E042FA
:1078900001D0002BF3D11C46181B30BD104630BD63
:1078A00010B5034642B111F8014B03F8014B013A00
:1078B000002CF7D11A4400E010BD934202D003F827
:1078C000014BFAE710BD70B504460D4645EC104B70
:1078D000164602F029F851EC100B7EB1C5F30A539D
:1078E000C3F16B03002B09DD1B0503F17F55002459
:1078F00005F5401522462B46FFF708FB70BD00003A
:107900002DE9F04F9DB0002302900C46139218937E
:107910004FF0000A4FF0000B1791179B1A780D2AB1
:1079200005D8092A13D2002A00F0AC8112E02B2AD4
:1079300004D02D2A04D0202A0CD108E0002200E037
:1079400001220C925A1C17925B782BB99AE10133F1
:107950001793E2E700230C93179D2B78302B5CD113
:107960006B78582B01D0782B4CD10C9B019318AB22
:107970000093A94A029819AB17A901F05CF910F01D
:107980000706044600F08785062E05D10135002341
:1079900017950C9300F07FBD189A3AB135211AA8BB
:1079A00002F0AFF81899029801F02DFD062E22D8AA
:1079B000DFE806F0040D08181D0D04004FF0000B61
:1079C000DA4618E0DDF868A0DDF86CB013E01B9B28
:1079D000199ADDF868A023F4801302F2334243EAD7
:1079E000025B08E0DFF834B24FF0000A03E06FF00A
:1079F000004B4FF0FF3A210740F14D854BF0004B13
:107A000000F049BD179B5A1C17925B78302BF9D0B8
:107A1000002B00F04085012300E000234FF0000818
:107A20000693179B0793CDF81480CDF810800A2297
:107A3000179D2E78A6F13003D9B209290ED80499E2
:107A40000829DDBF059902FB0133059302FB0838C5
:107A5000049B0135013304931795E9E70298FFF77A
:107A600095FE07680298FFF791FE0068FFF7FBFE9E
:107A7000394602462846FFF7FEFE074628B1002099
:107A80003346049D0246014657E00298FFF77EFE0A
:107A90000068FFF7E8FE179B1A181792049A1B5C00
:107AA000002A42D11046302B05D1179B5A1C179241
:107AB00001305B78F7E7A3F13102082A43D8179A1F
:107AC0000792024600200546303B00F1010126D016
:107AD0000A4405EB000C29460A2661450ED0013107
:107AE00001F1FF3EBEF1080F03DC059F77430597C8
:107AF000F3E71029D8BF06FB08F8EEE7284408286A
:107B000000F1010505DC05980A2101FB003305930E
:107B100004E0102DDCBF0A2101FB08380021179B6F
:107B2000581C17905B78084602E0049D38463A4698
:107B3000A3F130010929C7D90121652B01D0452BBB
:107B400051D16DB904E0652B40F0B38400220121CE
:107B500028B9069B002B00F09580054600E0002523
:107B6000179C631C179363782B2B06D02D2B02D008
:107B70000026039606E0012300E000230393A31CE4
:107B80001793A378A3F13006092E2BD8302B04D1FC
:107B9000179B5E1C17965B78F8E7A3F13106082E59
:107BA00021D8A3F1300E179B4FF00A0C1F46179BEC
:107BB0005E1C17965B78A3F13009B9F1090F04D860
:107BC0000CFB0E3EAEF1300EF1E7F61B082E44F62C
:107BD0001F6902DCF145A8BFF146039E2EB1C9F131
:107BE000000902E017944FF00009002D53D100283E
:107BF00040F05184069A002A40F04D84002941D17A
:107C00004E2B20D002DC492B0AD03BE0692B07D059
:107C10006E2B18D036E000BF68A30D000000F07F87
:107C2000A84917A801F038FA60B3179BA649013B91
:107C300017A8179301F030FA10B9179B0133179367
:107C4000DFF8A0B21AE0A14917A801F025FAC8B1DF
:107C5000179B1B78282B0FD11AAA9D4917A801F052
:107C60002EFA052808D11B9BDDF868A043F0FF4BD6
:107C70004BF4E00B00F00FBCDFF86CB24FF0000AE1
:107C800000F009BC139B1794002B00F00F84002315
:107C90000C9300F002BC049B0598002B08BF2B46F8
:107CA000102D2C46C2EB0909A8BF10240493FFF73E
:107CB000B7F8092C82468B4613DD864B03EBC403D1
:107CC00053E91223FFF722F9064640460F46FFF715
:107CD000A7F802460B4630463946FEF765FF824656
:107CE0008B460F2D36DCB9F1000F00F0D48324DD74
:107CF000B9F1160F07DC774D05EBC90952465B4613
:107D0000D9E9000114E0C5F12503994522DC714C45
:107D1000C5F10F0504EBC501C5EB090552465B46ED
:107D2000D1E9000104EBC504FFF7F0F8D4E9002322
:107D3000FFF7ECF882468B46ADE319F1160F09DB2D
:107D4000644DA5EBC909D9E9002350465946FFF710
:107D500007FAEFE72C1B4C44002C57DD14F00F0101
:107D60000AD05C4B03EBC10152465B46D1E90001EE
:107D7000FFF7CCF882468B4634F00F0400F0B88051
:107D8000B4F59A7F0BDD0024254605940494029AED
:107D9000DFF850B1222313604FF0000A87E14E4E06
:107DA000002324115046594698463746012C0BDDD6
:107DB000E20704D5D6E90023FFF7A8F8012308F16C
:107DC000010864100836F1E70BB182468B46ABF12F
:107DD000547B07EBC80752465B46D7E90001FFF723
:107DE00095F821F000438B460A461B0D3B491B05C5
:107DF0008B428246C7D8A1F580118B4286BFDFF83F
:107E0000ECB04FF0FF3A02F1547B71E070D0644265
:107E100014F00F020AD02F4B03EBC2035046594611
:107E2000D3E90023FFF79CF982468B4624115FD0EB
:107E30001F2C04DD002425460594049430E114F041
:107E4000100F0CBF00236A23254E0393504659465A
:107E50000023002C09DDE20704D5D6E90023FFF753
:107E600055F8012364100836F3E70BB182468B46C0
:107E7000039BEBB1CBF30A53C3F16B03002B5946C1
:107E800016DD1F2B0EDD342BDEBF203B4FF0FF3203
:107E900002FA03F34FF0000ACCBF4FF05C7B03EA19
:107EA000010B05E04FF0FF3202FA03F303EA0A0A7E
:107EB0000022002350465946FFF790FA0028B9D116
:107EC00018E000BF90A30D0093A30D0099A30D002F
:107ED0007CA30D0008A40D00D0A40D000000A07C20
:107EE000A0A30D000000F07F0000F8FFFFFFEF7F70
:107EF00000230393059B0093049A079902982B464D
:107F000001F0D3FA059000283FF43DAFB9F1000F1E
:107F1000C9F10003A8BF00230D93002429EAE973E7
:107F200012932546059B0298596801F037FA049090
:107F300000283FF42CAF059B1A69023203F10C01B3
:107F400092000C30FFF726FC1AAA19A94BEC10ABD3
:107F50000298CDE908AB01F05CFD189000283FF4D1
:107F600016AF0121029801F02BFB054600283FF4D3
:107F70000EAF199B03991A9E002BADBF0D9A129A52
:107F8000DDF8348002EB0308B8BFD21AA3EB01037B
:107F90003344B549A8BF129A013B8B42C6F136065D
:107FA00080F28A80C91A1F29C8BFB04F4FF001095B
:107FB000D4BF09FA01F3FF1AA6EB0106D9BF069355
:107FC000002709FA07F7CDF8189008EB0609039B7C
:107FD000C84516441E444346A8BF4B46B342A8BFFB
:107FE0003346002BC2BFC3EB0909F61AC3EB0808DE
:107FF0000D9B002B64D1B9F1000F7ADC129B002B92
:1080000040F08180002E00F38880B8F1000F00F36B
:108010008E80049A1899029801F027FC04460028E3
:108020003FF4B5AEC36807930023C360294601F04F
:1080300000FC002880F28980079B002B40F004821E
:10804000BAF1000F40F00082CBF31303002B40F095
:10805000FB812BF000431B0D1B05B3F1D66F40F2E3
:10806000F3816369002B6CD021460122029801F054
:108070008FFB2946044601F0DCFB002840F3E48135
:108080002BF00043039A1B0D1B05002A00F08C8087
:10809000B3F1D66F00F38880B3F15C7F00F3D68133
:1080A000029A22234FF0000A4FF0000B1360059B49
:1080B000002B40F0DC81EEE101230027069384E7EA
:1080C00029461A46029801F015FB054600283FF4A0
:1080D0005EAE0146189A029801F07BFA07900028DC
:1080E0003FF455AE1899029801F08DF9079B18934B
:1080F00081E74A461899029801F04AFB1890002837
:108100007FF47CAF43E6129A0499029801F0F2FAE8
:10811000049000287FF476AF39E63246049902983D
:1081200001F036FB049000287FF46FAF2FE629465C
:108130004246029801F02CFB054600287FF469AF07
:1081400025E62369012B8FDC7EE161D1079ACBF311
:10815000130322B346498B425A462ED1039B514604
:1081600063B1444B1340B3F1D46F07D81B0DC3F177
:108170006B034FF0FF3000FA03F301E04FF0FF33E1
:108180008B421AD13C498A4202D101333FF4FFAD00
:10819000384B134003F5801B4FF0000A54E163B9DC
:1081A000BAF1000F09D16BE7A3F580136FEA135BF7
:1081B0006FEA0B5B4FF0FF3A46E117B117EA0B0F7E
:1081C00002E0069B13EA0A0F00F03E81079B039A28
:1081D0005046594653B1FFF776FB02460B46DDE9A0
:1081E0000801FEF7E1FC82468B462DE1FFF76BFBB1
:1081F00002460B46DDE90801FEF7D4FC002200230D
:1082000082468B46FFF7EAF800287FF449AF1BE16E
:108210002946204601F04BFC57EC106B00224FF032
:10822000804310EE100A3946FFF7ECF8002842D0E0
:10823000079B23B14FF00008DFF8409011E0BAF13E
:10824000000F03D1CBF313033BB91BE0BAF1010FCD
:1082500003D1BBF1000F3FF423AFDFF824904FF0C0
:1082600000080026054F39E002FCFFFFE2FBFFFF9C
:10827000FFFF0F000000F07FFFFFEF7F0000F03FE7
:108280000000F0BF0022984B30463946FFF7B0F8A7
:1082900040B9304639460022944BFEF737FE064679
:1082A0000F4601E0914F002607F100431496159305
:1082B000DDE9148912E08D4B304639460022FEF785
:1082C00025FE079B06460F4623B901F100430E9099
:1082D0000F9301E0CDE90E67DDE90E892BF0004335
:1082E0001B0D1B050693069A814B9A422BD1DDE9A3
:1082F0000823ABF1547B4BEC10ABCDE90A2301F022
:1083000013FB404653EC102B4946FEF7FFFD524647
:108310005B46FEF749FC21F000431B0D754A1B0527
:10832000934282460CD9744B0B9A9A4203D10A9B12
:1083300001333FF42CADDFF8C0B14FF0FF3A72E0EB
:1083400001F1547B38E0039B33B3069BB3F1D46F48
:1083500022D85DA3D3E9002330463946FFF752F80F
:10836000A8B139463046FFF793F8002808BF01202E
:10837000FEF756FD079B06460F4623B901F1004361
:108380001090119301E0CDE91067DDE91089069A9C
:1083900009F1D663C2EB03099DED080B01F0C4FAA5
:1083A000404653EC102B4946FEF7B0FDDDE90823AB
:1083B000FEF7FAFB82468B46039BA3BB2BF00043E0
:1083C0001B0D069A1B059A42D8462CD139463046D9
:1083D000FFF736F8FEF734FD0B46024639463046C5
:1083E000FEF7E0FB079B06460F462BB9BAF1000FDC
:1083F00002D1CBF3130383B135A3D3E90023304675
:108400003946FEF7F5FF002831D133A3D3E9002325
:1084100030463946FFF70AF804E031A3D3E90023D8
:10842000FEF7E6FF18BB1899029800F0ECFF0499DC
:10843000029800F0E8FF2946029800F0E4FF214688
:10844000029800F0E0FF6DE5039B83B12B4B0B938B
:1084500000230A9350465946DDE90A23FEF756FDEC
:1084600082468B4619B910B9029A222313601899D3
:10847000029800F0C8FF0499029800F0C4FF294652
:10848000029800F0C0FF0599029800F0BCFF214659
:10849000029800F0B8FF139B13B1139A179B136057
:1084A0000C9B1BB152460BF1004307E052465B4662
:1084B00004E000252A460121FFF741BB43EC102BC5
:1084C0001DB0BDE8F08F00BF0000C0FFFFFFDF411F
:1084D0009535A094FFFFDF3F35E5AF350000E03F65
:1084E0009535A094FFFFCF3F0000F03F0000E03F34
:1084F0000000E07FFFFF9F7CFFFFEF7F000050390F
:10850000024B0A4601461868FFF7FAB9D8E1032082
:108510002DE9F04780464048D0F800900F463D4690
:1085200015F8014B09EB0400407800F0080000F05A
:10853000FF0608B12F46F2E72D2C03D1BD1C7C7835
:10854000012603E02B2C04BF7C78BD1C13B1102B3B
:108550000AD15BE0302C57D1287800F0DF00582892
:108560004DD16C7810230235002E14BF4FF0004C13
:108570006FF0004C0027BCFBF3FA384603FB1ACC23
:1085800009EB040E9EF801E01EF0040F01D0303C10
:108590000BE01EF0030E1BD0BEF1010F0CBF4FF01D
:1085A000370E4FF0570ECEEB0404A34210DDB7F1A7
:1085B000FF3F0AD0504506D801D1644503DC03FBD8
:1085C0000040012701E04FF0FF3715F8014BD7E7D6
:1085D0007B1C0CD1002E4FF0220314BF4FF0004043
:1085E0006FF00040C8F800302AB9BDE8F08706B146
:1085F000404272B107B1691E1160BDE8F0873024B6
:10860000002BB1D10823AFE70A23ADE7302CA3D06C
:10861000AAE7BDE8F08700BF74E1032013460A46CD
:10862000014602480068FFF773BF00BFD8E103208E
:108630002DE9F04780463C48D0F800900E4635467C
:1086400015F8014B09EB0400407800F0080000F039
:10865000FF0708B12E46F2E72D2C03D1B51C747824
:10866000012703E02B2C04BF7478B51C13B1102B29
:108670000AD153E0302C4FD1287800F0DF00582881
:1086800045D16C78102302354FF0FF3C0026BCFB2F
:10869000F3FC03FB0CFA6FEA0A0A304609EB040EFE
:1086A0009EF801E01EF0040F01D0303C0BE01EF0FC
:1086B000030E1AD0BEF1010F0CBF4FF0370E4FF072
:1086C000570ECEEB0404A3420FDD002E08DB6045FD
:1086D00006D801D1544503DC03FB0040012601E02C
:1086E0004FF0FF3615F8014BD8E7002E07DA2223AA
:1086F000C8F800304FF0FF302AB9BDE8F08707B165
:10870000404272B106B1691E1160BDE8F0873024A5
:10871000002BB9D10823B7E70A23B5E7302CABD03B
:10872000B2E7BDE8F08700BF74E1032013460A46B4
:10873000014602480068FFF77BBF00BFD8E1032075
:108740002DE9F74F044600F08DFD40F2B1739C42D5
:1087500040F396806FF4F663E318A4F2B2729B10B4
:1087600040F26D1505FB0235A4F26D726FF06303E4
:1087700092FBF3F36FF4C8622B44A5184FF4C87250
:1087800095FBF2F51D44642394FBF2F794FBF3F69A
:1087900002FB174703FB164600F13803B7FA87FEC2
:1087A000019304F0030344604FEA5E1E0146009308
:1087B0004FF0070C0B7A4A2B0ED14B69009AEC183C
:1087C00002B906B927B93B2BD4BF0023012300E02F
:1087D00000232344013B3FE0442B02D14B692B444F
:1087E0003AE0009B2BB9002E0CBFF0464FF0010879
:1087F00000E0F046244BCC68302202FB0838A8F198
:10880000040AA9460123A34204DA5AF804BF01333B
:10881000D944F8E709F1040393FBFCFBCBEBCB0A4B
:10882000012CCAEB030A4B69B8BF012404F1804450
:10883000B3EB0A0A0B6904F1FF3403F1FF3348BFBD
:108840000AF1070AC3EBC30358F824405344A34278
:1088500001DB073BFBE74B448C690C4A02FB0343FB
:108860000C6A234441F81C3F019B9942A2D1C36981
:10887000826B9342ACBF002301230360012000E020
:10888000002003B0BDE8F08F08A30D008051010067
:1088900070477047014B186800F002B8D8E1032018
:1088A0002DE9F04F8DB0074600F0DCFCB049B14E29
:1088B0000446384600F0CEFC054660B9AE4BAF4AE0
:1088C0001860AF4B1860AF4B30681A605A60FCF705
:1088D0008DFD356048E1316879B93068FCF786FD77
:1088E0002846FEF7C0FF411C3846FCF7A7FD306064
:1088F00048B12946FEF794FF05E0FEF787FF002800
:1089000000F03281E9E72B789F4AA0493A2B08BF53
:1089100001350AAE33462846FCF778FD002840F3BF
:1089200023810A9BEF18EB5C2D2B03D101374FF00D
:10893000FF3503E02B2B08BF013701250DF1200A7D
:108940000DF11E0B4FF000080396CDF808A001961C
:10895000CDF800B0334607AA8D49ADF81E803846E1
:10896000ADF82080FCF752FD404540F3FD80BDF896
:108970001E20BDF82030DFF824923C2101FB023399
:10898000BDF81C204FF4616101FB02335D43256299
:108990007C4D7D4B2B600A9B7C491F444A463346E5
:1089A0003846FCF733FD404508DC2B686B60724BA2
:1089B000226A1A60724BC3F80080D5E00A9BC5F8A2
:1089C0000490FD18FB5C2D2B03D101354FF0FF37D0
:1089D00003E02B2B08BF013501270023ADF81C3025
:1089E000ADF81E30ADF820300A930396CDF808A0FC
:1089F0000196CDF800B0334607AA65492846FCF732
:108A000005FD002804DC236AA3F56163E3630EE03F
:108A1000BDF81E20BDF820303C2101FB0233BDF81B
:108A20001C204FF4616101FB02335F43E7630A9B43
:108A300027461D444FF000092B782C2B08BF013529
:108A400095F80080B8F14D0F26D10DF12603029361
:108A500009AB00930396019633460DF122024D496E
:108A60002846FCF7D3FC03287ED1BDF822104B1E0C
:108A70000B2B79D8BDF82420531E042B74D8BDF8D5
:108A80002630062B70D887F80880F9603A617B6140
:108A90000A9B05EB03082AE0B8F14A0F06BF01352F
:108AA000434644230A220BA928460593FFF73EFEBE
:108AB000DDF82C80ADF826004545059B14D14D23EB
:108AC000B9F1000F07D123720323E360022323616E
:108AD000C4F814900BE084F824300B23A362012324
:108AE000E3620023236302E080B23B7278610223D9
:108AF000ADF81C300023ADF81E30ADF820300A93DD
:108B000098F800302F2B0BD10396CDF808A00196D2
:108B1000CDF800B0334607AA1F494046FCF776FC63
:108B2000BDF81E20BDF820303C2101FB0233BDF80A
:108B30001C204FF4616101FB0233BB610A9D09F106
:108B40000109B9F1020F454407F11C077FF474AF26
:108B50006068FFF7F5FD084B226A1A60E36B9B1A09
:108B6000074A18BF012313600DB0BDE8F08F00BFA6
:108B7000C8A30D00E0E70320E8E70320CBA30D0026
:108B8000E4E7032014E20320D3E70320CFA30D0082
:108B9000F2A30D00DEA30D00F1A30D00C8E7032032
:108BA000F0B506694B11B34200F1140527DA11F054
:108BB0001F0105EB860605EB830201D1294616E06D
:108BC000141D55F82320C1F1200ECA402B46B44293
:108BD00009D2276807FA0EF73A4343F8042B54F8F2
:108BE000042BCA40F3E71A6052B1043308E0B242E2
:108BF0000B4605D252F8043B41F8043BF7E72B46FD
:108C00005B1B9B10036103B94361F0BDA0F130030E
:108C1000092B01D820380AE0A0F16103052B01D807
:108C2000473804E0A0F14103052B02D82738C0B231
:108C30007047002070472DE9F04F8BB08A46904670
:108C400006930290FEF7A2FD036803931846FEF711
:108C50000AFE039B019003444FF0000B13F8013C04
:108C60000793DAF8003002331F4613F8010B30285F
:108C700002D10BF1010BF7E7FFF7C8FF0446E0B99B
:108C8000019A03993846FEF7F6FD002834D1019B7E
:108C9000F85CFE18FFF7BAFF80B333461878302827
:108CA0001F4603F10103F9D0FFF7B0FFB0FA80F5DA
:108CB0006D0934464FF0010B01E000252C463A4681
:108CC000164601323078FFF7A1FF0028F8D1019A4B
:108CD00003993046FEF7CFFD50B954B9019BF41803
:108CE0002246164601323078FFF790FF0028F8D16F
:108CF00034B1A41BA40003E03E4600E00446012575
:108D00003378502B01D0702B2AD173782B2B08D0BD
:108D10002D2B03D0711C4FF0000905E04FF0010925
:108D200001E04FF00009B11C0878FFF76FFF431E08
:108D3000DBB2182B14D8A0F1100211F8010FFFF7C5
:108D400065FF431EDBB2182B04D80A2303FB020283
:108D5000103AF2E7B9F1000F00D05242144400E09B
:108D60003146CAF800102DB1BBF1000F14BF00202E
:108D700006207CE1F31B013B2946072B02DD013174
:108D80005B10FAE7029800F009FB019B00F1140A5E
:108D90004FF00009C3F101030546CDF810A0CB4602
:108DA0000893B7422FD2731E0593079A16F8013C19
:108DB00093420BD0BBF1200F16D1049BC3F8009057
:108DC00004334FF000090493CB460DE0059B089A4D
:108DD00013449F42EED81846019A03990993FEF76F
:108DE0004AFD099B68B1E5E716F8010CFFF70EFF95
:108DF00000F00F0000FA0BF0059B49EA00090BF1A7
:108E0000040B1E46CDE7049840F8049BCAEB000013
:108E1000801028614701484600F085FBD8F80060C3
:108E2000381AB04226DD871B3946284600F083FEFB
:108E3000C8B17B1E591103F01F024FF001095AF807
:108E4000211009FA02F20A420ED04B4502DC4FF023
:108E5000020909E0B91E284600F06DFE0028F6D090
:108E60004FF0030900E0814639462846FFF798FE97
:108E70003C440CE009DA371A29463A46029800F0D9
:108E800087FCE41B054600F1140A4FF00009D8F8EE
:108E900008309C4208DD0298294600F0B4FA149A82
:108EA00000231360A320E2E0D8F80400844253DAE0
:108EB000041BA6422EDCD8F80C30022B1AD0032B50
:108EC0001CD0012B1DD1A6421BD1012E0BDC069A12
:108ED000D8F80430136001232B61CAF80030149BCA
:108EE00062201D60C3E0711E284600F024FE0028A9
:108EF000EDD106E0159B002BE9D002E0159B002B7D
:108F0000E5D10298294600F07EFA149A00231360F6
:108F10005020ACE0671EB9F1000F06D13FB13946D1
:108F2000284600F008FE814601E04FF001097A1161
:108F3000012307F01F0703FA07F75AF822302146EA
:108F40001F42284618BF49F00209361BFFF728FECA
:108F50000227D8F8044000E00127B9F1000F00F023
:108F60008180D8F80C30022B0ED0032B10D0012BAF
:108F700076D119F0020F73D0DAF8000049EA00093F
:108F800019F0010F07D16BE0159BC3F10103159395
:108F9000159B002B64D0D5F810A005F114034FEAFF
:108FA0008A0903EB090100201A68B2F1FF3F02D0E1
:108FB00001321A6020E043F8040B9942F4D8AB6800
:108FC0009A4512DB69680298013100F0E7F92A69D5
:108FD000023205F10C01834692000C30FEF7DAFBF9
:108FE0002946029800F00FFA5D462B695A1C05EBE2
:108FF00083032A6101225A61022F05F1140211D163
:10900000D8F80030013B9E4227D17111012306F0B0
:109010001F0603FA06F652F821301E420CBF022743
:1090200001271AE02B699A450ADA01212846FFF741
:10903000B7FDD8F8083001349C423FF72CAF0BE065
:1090400016F01F0608D09144C6F1200659F8040C0A
:1090500000F069FAB042E8DB012747F0200701E0A1
:1090600047F01007149B1D60069B38461C600BB030
:10907000BDE8F08FC2F10802920070B5C2F120067F
:109080004368056803FA06F42C43D340046040F8B3
:10909000043F8842F4D370BD30B5036811F8014B2A
:1090A00001334CB11A78A2F14105192D98BF203235
:1090B000A242F3D0002030BD0360012030BD2DE975
:1090C000F04F0B68D0F800B05E1102EB860613F08B
:1090D0001F0385B018BF0436351F1746002282468D
:1090E000019346F8042CA8462C46009291461BF8A2
:1090F000011F00293CD0084603920291FFF786FD2C
:10910000039A00BB0299202916D8009B9945EEDDF1
:10911000444505D2072A03DC41462046FFF7AAFF53
:10912000BC4223D90023A4F1040844F8043CCDF840
:10913000009044461A46DAE7292948D10BF1010389
:10914000CAF8003014E00132082A09F1010906DDED
:10915000BC42CCD9002344F8043C0122043C2168E1
:1091600000F00F0040EA01102060C0E70822BEE7CF
:10917000B9F1000F2BD0444505D2072A03DC414644
:109180002046FFF777FFBC420CD93B4654F8042B2E
:1091900043F8042BA542F9D2002243F8042B9D4248
:1091A000FBD20BE0019B4BB1C3F120024FF0FF3328
:1091B000D34056F8042C134046F8043C2B6843B9BE
:1091C000BD4202D101232B6003E0043DF6E70420F9
:1091D00000E0052005B0BDE8F08F00002DE9F84F54
:1091E00007468B46904600F0D6FC194B1D689A4600
:1091F0003DB15C46234613F8012B42B13D2A1C4683
:10920000F8D1384600F0C8FC0020BDE8F88FCBEB61
:109210000404A94659F8040B0028F2D02246594606
:10922000FEF729FB88B959F8043C1E191B5D3D2B3C
:109230000BD1DAF80030ED1AAD103846C8F80050FE
:1092400000F0AAFC701CBDE8F88F4D46E1E700BFB6
:109250005CE2032007B501AAFFF7C0FF03B05DF889
:1092600004FB0000004870471CE203200268474BE3
:10927000F0B592FBF3F403FB1422002ABCBF02F505
:10928000A83202F5C0724FF4616004F52F2492FBFE
:10929000F0F300FB13224FF03C00ACBF04F66C244B
:1092A00004F66B248B6092FBF0F300FB13224B60FF
:1092B0000A600723E21C92FBF3F3C3EBC303D31A48
:1092C0008B61334B334D94FBF5F503FB054448F6B6
:1092D000AC62B4FBF2F2224440F2B457B4FBF7F3B1
:1092E000D21A2D48B4FBF0F048F69466131AB3FB7B
:1092F000F6F6344440F26D12B3FBF2F0B3FBF7F331
:10930000E31A02FB1033992403EB83020232B2FB0F
:10931000F4F20A2A04FB02F404F102064FF00504F9
:10932000B6FBF4F434BF02266FF0090616444FF47E
:10933000C87202FB05055F1C012E98BF0135B3F50D
:10934000997FA7EB040702D3A3F5997214E0820773
:1093500005D16424B0FBF4F204FB12024AB94FF4C5
:10936000C872B0FBF2F402FB1400B0FA80F25209AA
:1093700000E001223B331A44A5F26C750023CA6158
:109380004D610E61CF600B620846F0BD8051010057
:109390004FC5FDFFB13A0200B03A020070B5456A10
:1093A00004460E463DB91020FCF718F8606245608F
:1093B00085600560C560656AEB6843B1636ADB6818
:1093C00053F8260078B1026843F8262017E02122DE
:1093D0000421204600F0D1FB636AE860DB68002BC3
:1093E000ECD1002070BD012101FA06F56A1D920042
:1093F000204600F0C2FB0028F3D0466085600023C1
:109400000361C36070BD70B5446A06460D463CB941
:109410001020FBF7E3FF7062446084600460C46066
:109420003DB1736A6A68DB6853F82210296043F81B
:10943000225070BD2DE9F0410D691F4606460C46CD
:1094400001F1140E0023DEF8000081B202FB01716D
:109450000F0C000C02FB007089B2013301EB0041DC
:109460009D424FEA10474EF8041BECDCD7B1A368CD
:109470009D4212DB616830460131FFF78FFF2269A0
:10948000023204F10C01804692000C30FEF782F9A2
:1094900021463046FFF7B7FF444604EB850301350C
:1094A0005F6125612046BDE8F0812DE9F8430C4657
:1094B00015461F4609220833064693FBF2F30021A6
:1094C00001229A4202DA52000131FAE73046FFF7F0
:1094D00065FF089B4361092D4FF00103036111DD16
:1094E00004F10908C1462C4419F8013B0146303B00
:1094F0000A223046FFF79EFFA145F5D108EB05048F
:10950000083C01E00A3409252D1B63199F4208DD40
:1095100014F8013B0146303B0A223046FFF78AFF30
:10952000F3E7BDE8F883030C1B0413B90004102310
:1095300000E0002310F07F4F04BF0002083310F05A
:10954000704F04BF0001043310F0404F04BF80008F
:109550000233002803DB420003D5581C704718462D
:10956000704720207047036813F007020BD0D9071B
:1095700022D49A074BBF5B089B08036003604CBF73
:1095800001200220704799B209B91B0C102213F078
:10959000FF0F04BF1B0A0832190704BF1B0904325E
:1095A000990704BF9B080232D90702D45B0805D093
:1095B000013203601046704700207047202070473A
:1095C00010B50C460121FFF7E9FE0122446102615A
:1095D00010BD2DE9F74F14460A6923699A42B8BFB6
:1095E0000B468846BCBFA0461C46D8F81070D4F87D
:1095F0001090D8F80830D8F8041007EB09069E42FE
:10960000C8BF0131FFF7CAFE00F1140505EB860C57
:109610002B460022634502D243F8042BFAE704F1FB
:10962000140208F1140102EB890301EB8707009390
:10963000009B0192934257D9B2F800B0BBF1000FE2
:1096400023D08946AE464FF0000859F8044BBEF8C7
:1096500000A0A3B20BFB03A34FEA144ADEF80040BC
:1096600043444FEA14480BFB0A8404EB1344F246CC
:109670009BB243EA04434F454FEA14484AF8043B7F
:1096800001D9D646E1E7CEF80480019BB3F802A0E9
:109690000432BAF1000F21D02B682C4689464FF0D6
:1096A0000008B9F800E0B4F802B00AFB0EBEF044BE
:1096B000A3469BB243EA08434BF8043B59F8043BEA
:1096C000B4F804E01B0C0AFB03E303EB18434F451B
:1096D0004FEA134801D95C46E3E763600435A7E726
:1096E0005CF8043D13B9013E002EF9DC066103B0BD
:1096F000BDE8F08F2DE9F843154612F00302064647
:109700000F4607D0013A214C002354F82220FFF7DE
:1097100091FE0746AD1036D0746A3CB91020FBF7B5
:109720005DFE7062446084600460C460D6F824808A
:10973000D8F808404CB940F271213046FFF740FF9D
:109740000023C8F80800044603604FF00008EB0748
:109750000AD5394622463046FFF73BFF3946814657
:109760003046FFF750FE4F466D100CD0206808B110
:109770000446ECE7224621463046FFF72AFF2060E8
:10978000C0F80080F4E73846BDE8F883F8A40D007F
:109790002DE9F0470C464FEA621A26694968A3682A
:1097A000564407469146751CAB4202DA01315B0014
:1097B000FAE73846FFF7F2FD0023804600F1140176
:1097C0001A46534503DA41F823200133F9E72AEA20
:1097D000EA73206901EB830319F01F0904F11401F6
:1097E00001EB800E14D0C9F1200C0022086800FAA9
:1097F00009F002439A4643F8042B51F8042B8E4596
:1098000022FA0CF2F2D8CAF8042042B1B51C06E0E4
:10981000043B51F8042B43F8042F8E45F9D8013D41
:109820003846C8F810502146FFF7EDFD4046BDE828
:10983000F08703690A699B1A10B511D192001430A0
:10984000143183180A4453F8044D52F8041D8C4215
:1098500002D007D3012010BD9842F4D3002010BDE0
:10986000184610BD4FF0FF3010BD2DE9F8430C46EF
:109870000746114620461546FFF7DBFF061E08D1B6
:1098800031463846FFF78AFD012303614661BDE892
:10989000F883BCBF23462C4638466168BABF1D46D4
:1098A00001260026FFF77AFD2B69C660266905F1BF
:1098B0001409143404EB860709EB830800F114053E
:1098C0004FF0000C54F8043B59F8042B1CFA83F1B8
:1098D0001FFA82FE120CCEEB0101C2EB134303EB25
:1098E000214389B24FEA234CC84541EA0343A646C7
:1098F00045F8043BE6D8BE450ED25EF8041B1CFAC0
:1099000081F2131403EB114392B242EA03424FEA8D
:10991000234C45F8042BEEE755F8043D0BB9013E06
:10992000FAE70661BDE8F883124B10EE902A1A4060
:10993000A2F15073002B02DD0020194617E05B42B4
:109940001B15132B4FF000004FF0000104DC4FF407
:10995000002242FA03F10AE0143B1E2B4FF00102F1
:10996000DABFC3F11F0302FA03F31346184641ECB2
:10997000100B70470000F07FF8B5056900F1140680
:1099800006EB85052F1F55F8044C2046FFF7CBFD4D
:10999000C0F120030A280B6014DCC0F10B0E24FA7E
:1099A0000EF1BE4241F07F5334BF55F8081C002130
:1099B000153004FA00F021FA0EF143F4401340EAA6
:1099C000010223E0BE423ABFA5F1080755F8081C82
:1099D00000210B3815D08440C0F1200544F07F549D
:1099E00044F44014B74221FA05FE44EA0E038CBF4A
:1099F00057F8044C002401FA00F0EC4040EA04025D
:109A000004E044F07F5343F440130A4643EC102B28
:109A1000F8BD2DE9F7430E46012159EC108B154690
:109A2000FFF7BCFCC9F30A540746C9F313030CB192
:109A300043F480130193B8F1000F19D002A840F845
:109A4000088DFFF790FD009B48B1019AC0F12001FD
:109A500002FA01F10B43C2407B61019200E07B619D
:109A6000019BBB61002B14BF02210121396107E07A
:109A700001A8FFF778FD019B7B610121396120304E
:109A800034B1A4F2334404443460C0F1350009E039
:109A900007EB8103A0F2324030601869FFF743FD05
:109AA000C0EB41102860384603B0BDE8F0832DE9D3
:109AB000F743884669468146FFF75EFF01A94046A5
:109AC00055EC104BFFF758FFD9F81030D8F810209C
:109AD0009A1A9DE80A00C91A57EC106B01EB421361
