:02000002B0004C
:1040000000400B00A0C60B00000006000D000502DA
:084010000401A30F00000000F1
:0440180094AD0B0058
:1040200009480A49884208B505D0094A824202D0A7
:10403000121A04F04FFE0748074A0021121A04F032
:1040400071FE014808BD00BFF8E10320C8C30B00A2
:10405000A4E40320A8E40320F1E7032070B5074E91
:10406000074C03F0B9FFA41BA4080025AC4200D103
:1040700070BD56F8043B98470135F7E76CBB0B0061
:1040800098BB0B0000F016BF08B500F009FEBDE8B4
:10409000084003F059BF02F0ABBD02F0A9BD02F029
:1040A000AFBD000008B5034A03490C2002F068FCCC
:1040B000FEE700BFC1660B00A8AD0B000078B0FAA8
:1040C00080F040097047012303707047014B0122C3
:1040D0001A70704745E6032008B5044903F04FFC09
:1040E00018B1034B03221A70012008BDF8AD0B0074
:1040F000E4E5032010B5034B0360044601F01EF90C
:10410000204610BD54B20B0010B50446FFF7F2FF75
:1041100020461021FFF7C3FF204610BD10B5034B0A
:104120000360044602F00CF8204610BD2CB20B00D0
:1041300010B50446FFF7F2FF20463821FFF7AFFF26
:10414000204610BD436913B183690C30184770478E
:1041500013B500210446084602F042FA0023204627
:1041600001A9019302F054FA019C0CB101232371BF
:104170000021012002F034FA2CB1236820469B680C
:1041800098470023237102B010BD012A02D10160BB
:1041900000207047022A04BF0B680360F8E7036839
:1041A000184737B504689DF818508DF800308DF821
:1041B0000450E4683C23A04703B030BD37B516492E
:1041C000054603F0DCFB044688B1144B1448154A3D
:1041D000154901245C7200238DF80030134B1B78C5
:1041E000FFF7DFFF124B20461C7003B030BD1149B2
:1041F000284603F0C4FB0028F7D0084B08485C723F
:104200000A4B8DF800401B780B4A0749FFF7C9FF9E
:10421000074B01201870E8E7F8AD0B00E8E5032034
:1042200068E50320FAAD0B001DAE0B00B5E40320DA
:1042300004E603200BAE0B000DAE0B0037B51A4D94
:104240000C4659B96B7A1BB3184B8DF800101B78CC
:10425000174A18491848FFF7A4FF19E0084604F068
:1042600016FDC83801286B7A14D84BB100238DF89D
:1042700000300E4B114A1B7811490F48FFF791FF90
:10428000104A00231360104A012111700F4A137065
:1042900003B030BD002BFBD000238DF80030034B62
:1042A00022461B78D5E700BFE8E50320B5E40320EC
:1042B00022AE0B002AAE0B0068E5032037AE0B00E0
:1042C00049AE0B00BCE40320D4E40320F5E4032052
:1042D00007B580680B4630B10021CDE900210A46C0
:1042E000032102F09DF903B05DF804FB1FB5104BEC
:1042F000104A1B781278104913438DF800300022C1
:104300003C2302A802F0D0FE039C7CB16368013B11
:1043100063605BB9236820469B689847A368013BAC
:10432000A3601BB923682046DB68984704B010BD22
:10433000B4E40320B5E403204FAE0B0000230422B5
:1043400002F096BB10B58368044613B10322014600
:104350009847204610BD000037B5134B0360044654
:104360008068C8B100256FF00043CDE90035022117
:104370002B462A4602F054F9A068294602F080F93B
:10438000237903F0FF0513B102F022F9F8E7A068E2
:10439000294602F035F9A56004F10C00FFF7D2FFC1
:1043A000204603B030BD00BF18B20B0010B5044664
:1043B000FFF7D2FF20461C21FFF771FE204610BDFB
:1043C00007B501230822CDE900234FF47A710023B9
:1043D00041436A46184602F09BFB03B05DF804FBBC
:1043E00037B51C49054603F0CAFA044600B31A4C17
:1043F000012360686370FFF7E3FF636817484FF4B9
:104400007A716FF000425943FFF762FF02F048FBF8
:1044100048B100238DF80030114B124A1B78124925
:104420001248FFF7BEFE124B0120187003B030BDDA
:104430001049284603F0A3FA0028F7D0064B5C7019
:1044400002F02EFB0028EED0054B8DF800401B78C3
:10445000094AE4E7F8AD0B00E8E5032018E503207E
:10446000B5E4032051AE0B001DAE0B0068E5032040
:1044700004E603200BAE0B0066AE0B0010B5C4B013
:1044800000680A2203A905F093FBB0F5966F22D8C5
:10449000124C6060FFF794FF636811484FF47A7123
:1044A00059436FF00042FFF713FF63680D4A4FF462
:1044B000807104A802F0BCFB00238DF800300A4B89
:1044C0000A481B780A4904AAFFF76BFE094B012032
:1044D000187044B010BD0020FBE700BFE8E50320E2
:1044E00018E503207AAE0B00B5E4032068E503204D
:1044F00093AE0B0004E6032007B502F0D1FA48B1F1
:1045000000238DF800300C4B0C4A1B780C490D48E9
:10451000FFF747FE0C4A0D487823536040F2011321
:10452000138000235372937201211C2303B05DF8A2
:1045300004EB00F0BEBF00BFB5E403209EAE0B004D
:104540001DAE0B0068E50320E8E50320F8E4032036
:1045500007B502F0A5FA48B100238DF800300C4BE6
:104560000C4A1B780C490D48FFF71BFE0C4A0D4BFB
:1045700093604FF08043D3600B4B13610B480C4B9F
:1045800053615021182303B05DF804EB00F091BF94
:10459000B5E40320B6AE0B001DAE0B0068E50320AA
:1045A000BCE403200000F0410000B442F8E4032022
:1045B0000000A04010B5124C237A012B04D902F060
:1045C0006FFAD8B1012323726368B3F5966F84BF85
:1045D0004FF416736360637A012B84BF0023637208
:1045E000A37A012B84BF0023A3726369FF2B84BFCE
:1045F00000236361034B01221A7010BD2072E3E7B0
:10460000E8E5032004E60320224B93ED037AB5EEA0
:10461000C07AF1EE10FAF3EE047A04D4B4EEE77A3D
:10462000F1EE10FA01DD1C4ADA6093ED027AB4EE85
:10463000E77AF1EE10FA06D4DFED186AB4EEE67A06
:10464000F1EE10FA01DD164A9A6093ED057AB5EEA7
:10465000C07AF1EE10FA06D4DFED126AB4EEE67A13
:10466000F1EE10FA01DD104A5A6193ED047AB4EECE
:10467000E77AF1EE10FA06D4DFED087AB4EEE77AC5
:10468000F1EE10FA01DD094A1A61094B01221A7094
:10469000704700BFBCE40320000040400000B4426B
:1046A00000000442000048420000504100007C42EB
:1046B000D4E4032007B50121052003F026FD0021E5
:1046C000052003F022FD094A00231370084A527A9C
:1046D00042B18DF80030074B074A1B78074908485C
:1046E000FFF75FFD03B05DF804FB00BF45E6032064
:1046F000E8E50320B5E40320CDAE0B00D4AE0B00FB
:1047000068E5032010B5134CA0B02369E06804935A
:1047100003F00EFFCDE90201A06803F009FF0E4A85
:10472000CDE90001642107A802F082FA00238DF888
:1047300000300A4B0A491B780A4807AAFFF731FDE7
:10474000094B01221A7001F0C3FF084B186020B01A
:1047500010BD00BFC0E50320DDAE0B00B5E40320B3
:1047600012AF0B0068E50320F5E4032048E60320C0
:1047700038B50B4D044601F0ABFF2B68C01AB0F5FD
:104780007A7F0CD9A4B2204603F0D8FCB0FA80F1AD
:104790004909204603F0B9FC01F09AFF286038BDB2
:1047A000B8E4032030B5114D114C12492A78207815
:1047B0008DB01A2303FB0212009203FB00130E4A72
:1047C000282102A802F034FA2B78237002F068F94D
:1047D00048B100238DF80030084B09491B7809487F
:1047E00002AAFFF7DEFC0DB030BD00BFE4E50320F8
:1047F00064E50320F8E1032028AF0B00B5E40320B3
:1048000036AF0B0068E5032013B5174CA06803F022
:104810008FFE164ACDE900011821154802F008FA6A
:10482000E06803F085FE134ACDE900011821124823
:1048300002F0FEF9206903F07BFE104ACDE9000189
:1048400018210F4802F0F4F9606903F071FE0D4A77
:10485000CDE9000118210C4802F0EAF90B4B0122C6
:104860001A7002B010BD00BFBCE4032047AF0B00BC
:104870002DE6032058AF0B004CE5032069AF0B0079
:1048800015E603207DAF0B0034E50320D4E40320BC
:1048900000B589B0039003F09DF80D4B039983EDAB
:1048A000020A04A803F060F800238DF80030094BD9
:1048B000049A1B7808490948FFF773FC04A802F022
:1048C000E5FFFFF7A1FF012009B05DF804FB00BF81
:1048D000BCE40320B5E4032092AF0B0068E503209D
:1048E00000B589B0039003F075F80D4B039983ED83
:1048F000030A04A803F038F800238DF80030094BB0
:10490000049A1B7808490948FFF74BFC04A802F0F9
:10491000BDFFFFF779FF012009B05DF804FB00BF80
:10492000BCE40320B5E40320B2AF0B0068E503202C
:1049300000B589B0039003F04DF80D4B039983ED5A
:10494000040A04A803F010F800238DF80030094B86
:10495000049A1B7808490948FFF723FC04A802F0D1
:1049600095FFFFF751FF012009B05DF804FB00BF80
:10497000BCE40320B5E40320D2AF0B0068E50320BC
:1049800000B589B0039003F025F80D4B039983ED32
:10499000050A04A802F0E8FF00238DF80030094B57
:1049A000049A1B7808490948FFF7FBFB04A802F0AA
:1049B0006DFFFFF729FF012009B05DF804FB00BF80
:1049C000BCE40320B5E40320EFAF0B0068E503204F
:1049D00030B585B00D4600226946009201F0E0FF37
:1049E00090B9009C0CB1236923B9084A08490A20F0
:1049F00001F0C6FF0C23CDE901350423039301AA7E
:104A0000236901212046984705B030BDC1660B00DF
:104A10000CB00B0030B5114D0FCD89B001AC0FC4F7
:104A200095E8070084E8070069460720FFF7D0FFF4
:104A30000028A8BF00980A4B0A4A187408ABC0B2F5
:104A400003EB8000102150F81C3C074802F0F0F8FE
:104A5000064B01221A7009B030BD00BF68B20B00CE
:104A6000E8E5032084B30B00D5E4032004E603202B
:104A7000F0B52DED028B774B97B006AA03F1100528
:104A8000174618685968144603C40833AB422246D7
:104A9000F7D118689B882060A3802A2200216E4DE0
:104AA0000DF12E0004F03EF900246C482C7001F04A
:104AB0006BFDB5EE400AF1EE10FA00F0AA806748EF
:104AC00001F062FD10EE100A85ED020A03F030FDE0
:104AD000634ACDE900011021624802F0A9F85F485D
:104AE00001F060FD10EE100A85ED030A03F020FDD1
:104AF0005D4ACDE9000110215C4802F099F805A952
:104B00000320FFF765FF002840F09E80BDF81430B9
:104B100007EE903AFBEECC7AFDEEE77A544E554A1A
:104B20005548C5ED047A17EE903A102102F080F84E
:104B300095ED028AD6ED037AB4EEE78AF1EE10FA2B
:104B400040F18580012417EE900A747003F0F0FCA8
:104B5000CDE9020118EE100A03F0EAFC474ACDE95C
:104B600000014021384602F063F895ED028AD6ED47
:104B7000027AB4EEE78AF1EE10FA12DD012417EEA4
:104B8000900A347003F0D4FCCDE9020118EE100A4B
:104B900003F0CEFC3A4ACDE900014021384602F04C
:104BA00047F895ED038AD6ED057AB4EEE78AF1EE83
:104BB00010FA12D5012417EE900AF47003F0B8FC35
:104BC000CDE9020118EE100A03F0B2FC2D4ACDE93E
:104BD00000014021384602F02BF895ED038AD6ED0E
:104BE000047AB4EEE78AF1EE10FA12DD012417EE32
:104BF000900AB47003F09CFCCDE9020118EE100A93
:104C000003F096FC204ACDE900014021384602F02D
:104C10000FF80126FFF7FEFE2E7003F06EF81B4B17
:104C200068601E701A4B1E704CB100238DF8003066
:104C3000184B19491B7819483A46FFF7B2FA204633
:104C400017B0BDEC028BF0BDFFEE007A64E70024E4
:104C50008BE700BF84B20B00C0E50320D8E503203A
:104C600032B00B0005E603203AB00B0008E5032044
:104C7000BCE4032042B00B00E5E4032048B00B0085
:104C800065B00B0083B00B00A4B00B00D4E503208B
:104C9000D4E40320B5E40320C6B00B0068E503208C
:104CA000F7B5704C704E2378704D013B042B52D8F1
:104CB000DFE803F0B403193180006D4B5B7A2BB150
:104CC0006C4B1B78022B01D0FFF76CFD03F015F83D
:104CD0004FF4966390FBF3F202FB130000283AD1E5
:104CE0000323237037E0624B5B7A2BB1614B1B7857
:104CF000032B01D0FFF756FDFFF7BAFE014628B19E
:104D00000123337101232B700423EAE7307107205C
:104D100003F0FBF9F6E7564B5B7A2BB1554B1B784A
:104D2000042B01D0FFF73EFD01F0BAFE68B102F09E
:104D3000F5FF0C2805D101F0B3FE10B1002001F001
:104D4000CFFEFFF7DFFC0523CBE70123237001F043
:104D5000BFFC494B1860494800F0AEFF484B1B7838
:104D60000BB1FFF7A7FC337913B10720FFF700FD64
:104D7000444C23783BB11C233D4A4348012100F0B9
:104D800098FB002323702B783BB11823364A3E480A
:104D9000502100F08EFB00232B703C4C23783BB15C
:104DA00014233B4A3848A02100F083FB00232370E2
:104DB00003B0F0BD2E4B5B7A2BB12E4B1B78052B2D
:104DC00001D0FFF7EFFC334B1B7853B902F095FF8E
:104DD0004FF4966390FBF3F202FB130008B1022339
:104DE0007FE701F075FC2C4B1B68C01A4AF6C873AC
:104DF0009842B0D901F06CFC00238DF800301E4FB2
:104E0000264B274A1B78274938602748FFF7C9F9FE
:104E10000123237001F05CFC38609CE7154B1B7884
:104E2000012B01D0FFF7BEFC01F052FC124B1B68B6
:104E300003F5922303F5787383428CD201F030FEA0
:104E400048B100238DF80030144B184A1B781849DC
:104E50001548FFF7A6F94FF4FA6001F039FF02F0A8
:104E6000DBFD78E7E4E50320BCE40320D4E4032081
:104E7000E8E5032064E50320A0E50320A4E5032082
:104E800045E6032004E60320F8E40320D4E50320EC
:104E9000C0E50320F5E4032048E60320B5E4032041
:104EA00028B70B00CDB00B0068E50320E6B00B007F
:104EB00049AE0B002DE9F0430021BBB0082003F000
:104EC00013F90121052003F00FF90121072003F058
:104ED0000BF9FFF7EFFB0023009301224FF0FF33A4
:104EE0009549082002F01CFB944B0AAA03F1100517
:104EF000174618685968144603C40833AB42224663
:104F0000F7D119889B78A37021802D2200218C4D28
:104F1000DFF8FC820DF13B00002403F003FF02A840
:104F20002C7001F0C5FD23467D221AA902A802F0CB
:104F300038FD234622468349CDE900441AA801F0F2
:104F4000C7FD81498148FFF7F9F981498148FFF799
:104F5000F5F981498148FFF7F1F981498148FFF767
:104F6000EDF981498148FFF7E9F981498148FFF767
:104F7000E5F981498148FFF7E1F981498148FFF767
:104F8000DDF981498148FFF7D9F9814981482346F4
:104F9000022201F06DFD23467F498048012201F085
:104FA00067FD7F4A7F49804801F087FF7F4A80493B
:104FB0007D4801F082FF7F4A7F497B4801F07DFFF9
:104FC0007E4A7F49784801F078FF7E4A7E497648DC
:104FD00001F073FF7D4A7E49734801F06EFF7D4A00
:104FE0007D49714801F069FF6C4A7C496E4801F0C7
:104FF00064FF7B4800F058FD2146794800F093FE9D
:1050000002F07BFE0246C31706A802F071FD754947
:1050100098F80030069A74488DF80040FFF7C1F800
:1050200006A802F033FC7148442101F016FA48B991
:105030006F49384603F0B6FE01232B7001F048FBA0
:105040006C4B18606C4800F0A7F901236A4806AA67
:10505000002100F0E3F99DF81830052B36D06648A2
:1050600000F0A4F9654A64480423002100F021FA05
:105070000123614806AA002100F0D0F99DF81830FC
:10508000052B1ED001232B705D4CFFF793FAFFF721
:10509000BBFA6378ABB3002001F02AFB47F230592A
:1050A0000646002001F024FB801B61F10001484509
:1050B00071F1000317D201F0F3FCA0B901F0E8FC94
:1050C000EFE7FFF719FAFFF743FADDE74C4A4A48E2
:1050D0001C23012100F0A2F94A4A47481823502115
:1050E00000F09CF9D0E701F0DBFC6068FFF768F99D
:1050F000636845484FF47A716FF000425943FFF7F7
:10510000E7F8FFF7B5FCFFF77FFB637A4BB10023AD
:105110008DF800303D4998F8003033483A46FFF7A3
:1051200040F82B780BB902232B7002A802F0AEFBDB
:105130003BB0BDE8F08300BFCD400B00C4B20B0014
:10514000E4E503203D420B0004B30B00FAB00B0072
:1051500005E6032002B10B0008E503200EB10B00A9
:105160002DE6032017B10B004CE5032029B10B00FD
:1051700015E603203BB10B0034E503204AB10B00D8
:10518000E5E4032059B10B00D5E4032061B10B0025
:10519000ECE5032070B10B00E9E5032058AE0B00ED
:1051A0007FB10B00D9400B008F6E0B008BB10B0051
:1051B000BD410B0098B10B0091480B00A9B10B0049
:1051C000E1480B00BAB10B0081490B00CFB10B00D5
:1051D00031490B0093AE0B007D440B00E1430B0003
:1051E000A4E50320E3B10B0068E50320D8E5032024
:1051F000E8B10B00A0E50320F8E403200CB30B009A
:10520000E8E50320BCE4032018E5032005B20B0009
:10521000B5E4032070B5384B01251D70374B0222D1
:1052200088B01A7002F00AFF00231A46122102F019
:1052300015FF02F003FF00231A460D2102F006FFBE
:105240002F4B304A9A600024C3E90044284601F0FD
:10525000B9FB2146284601F0C5FB2946042001F090
:1052600017FA2948294D01F0D3F802F091FF4FF4C5
:10527000005201462346284600F084F8244B2B6058
:1052800002F086FF234D0146234800F0F5FA23493A
:105290004FF40062284601F07BF8214B2B60214B34
:1052A000049304AD204B214A1A6095E8030003F1F2
:1052B0000C0202AE86E8030092E8030085E80300D2
:1052C00096E8030082E80300194A5A619A69079236
:1052D000184A9A611C719C60174A06944FF47A71BF
:1052E00003F10800CDE9004401F082F92846FFF7F8
:1052F00029F808B070BD00BFB5E40320B4E4032072
:10530000A8E403200000FFFFD8E50320F8E4032011
:1053100054B20B0068E50320A4E5032000F4032049
:105320002CB20B00ED420B0018E5032018B20B0065
:105330008B410B009F410B0051410B00704710B592
:1053400010210446FEF7ABFE204610BD0368C9B22B
:105350009B6818470EB400B58CB00DAA4FF0200C16
:1053600052F8041B0392CDE900120023016804AA3D
:105370001E20CDE904C301F00BFB0CB05DF804EB7B
:1053800003B0704730B5034DC0E90223C0E90051B6
:1053900030BD00BF44B30B00406802F06DB810B5DB
:1053A0000446006802F0B1F8204610BD2DE9F04136
:1053B0008AB004464068019002F09EF81E22002147
:1053C00002A8A76803F0AEFC0026EFB123681E2FE9
:1053D000B84628BF4FF01E08DD6802AA4346314692
:1053E0002046A847054658B90A480B493246FFF7F8
:1053F000B1FF01A8FFF7D3FF28460AB0BDE8F0814E
:10540000A7EB08074644E0E701A8FFF7C8FF01251E
:10541000F2E700BF90E6032010B30B002DE9F7433D
:105420000446406801900D4616461F4602F064F897
:10543000A7B1E168606841F0500102F053F8290A11
:105440006068FFF783FF29466068FFF77FFF6068A9
:10545000002102F04AF848B1002400E0012401A82C
:10546000FFF79DFF204603B0BDE8F083202F217B8E
:105470006068B84628BF4FF020080123424641F03B
:10548000500102F016F802F083FE03681B6998478A
:105490004045E1DB06EB080902F07AFE03685B6930
:1054A000984706F8010B4E45F6D14544A7EB08078F
:1054B000BEE72DE9F74F0446406801900E4690463E
:1054C0001D4602F019F84FF00109B9F1000F2AD07A
:1054D0004DB3E168606841F0500102F003F8310A11
:1054E0006068FFF733FF60683146FFF72FFFA5F1D3
:1054F0001E0A4746A6EB080B606817F8011B0368F5
:10550000013D9B68984755450BEB0706B84601D00F
:10551000002DF1D16068012101F0E7FF0028D7D00C
:105520004FF00009D1E701A8FFF739FF484603B063
:10553000BDE8F08F2DE9F0438BB00E46154680464E
:10554000406801901C4601F0D7FFAE4229D22644A4
:1055500025448CB11E2C2746D8F8003028BF1E27C2
:10556000F61BD3F8089002AA3B4631464046ED1B95
:10557000C84748B9002400E0012401A8FFF70FFF45
:1055800020460BB0BDE8F083D8F8003002AAD3F86B
:105590000C9029463B464046C8470028EAD0E41B09
:1055A000D7E7E9D9002CE7D0D8F800301E2C2746E1
:1055B00028BF1E27D3F8089002AA3B463146404632
:1055C000C8470028D6D0D8F8003002AAD3F80C90EB
:1055D00029463B464046C8470028CBD03E443D4480
:1055E000E41BDFE7402070470020704780207047B1
:1055F000FF207047704770477047704710B51421FF
:105600000446FEF74CFD204610BD10B508210446A7
:10561000FEF745FD204610BD10B508210446FEF7F3
:105620003EFD204610BD10B51C210446FEF737FD97
:10563000204610BD2DE9FF410368DB68044698470A
:1056400010220146684603F06DFB236820469B68E4
:105650009847002507462846BD420ED27E1B236888
:10566000102E28BF1026D3F818806A4633462946E4
:105670002046C04708B13544EEE704B0BDE8F081EC
:105680000368C9B29B6818474FF48073438140F2A6
:105690000113C3600023038270470000064A0260C2
:1056A00008B5064A426040F2047202810022427448
:1056B000FFF7EAFF08BD00BF24B40B00000102039E
:1056C00003090A2200F00F0002FB0300704708B52F
:1056D000807AFFF7F5FF00F5FA6008BDC07A00F0A8
:1056E0001F00FFF7EDBF007B00F03F00FFF7E8BFB2
:1056F00008B5817B4A060DD501F01F00FFF7E0FFDA
:105700008B0603D50C2800D00C3008BD0C2808BF30
:105710000020FAE7BDE8084001F03F00FFF7D0BFE6
:10572000C07B00F07F00FFF7CBBF007C00F07F0064
:10573000FFF7C6BF10B58AB024220446002101A895
:1057400003F0F0FA2046FFF7C2FFA0F26C7006905B
:105750002046FFF7C3FF013805902046FFF7C3FF3F
:1057600004902046FFF7C4FF03902046FFF7D8FFC0
:1057700002902046FFF7D9FF019001A801F0A0FA9E
:105780000AB010BD0A2290FBF2F191FBF2F302FB8A
:1057900013131B01DBB202FB11001843C0B27047A8
:1057A000642310B5044691FBF3F000FB1310FFF7E0
:1057B000E9FFA07210BD10B504460846FFF7E2FFEE
:1057C000E07210BD10B504460846FFF7DBFF237BEF
:1057D00023F03F031843207310BD10B50446481C46
:1057E000FFF7D0FF637B23F007031843607310BDFE
:1057F00010B504460846FFF7C5FFA07310BD10B5ED
:1058000004460846FFF7BEFFE07310BD10B504461E
:105810000846FFF7B7FF237C23F07F03184320746B
:1058200010BD37B504466846CDE9002303F034FACD
:10583000054641692046FFF7B3FF2969204601313B
:10584000FFF7B9FFE9682046FFF7BCFFA9692046CA
:10585000FFF7C3FFA9682046FFF7CAFF6968204623
:10586000FFF7CDFF29683B29A8BF3B212046FFF762
:10587000CDFF03B030BD0000054A0061C0E9002142
:10588000044A8260044AC260044A806142617047EF
:1058900058B40B000000010300B40B0034B40B003B
:1058A0002DE9F84F04460F469046994600260A9B7C
:1058B0009E4231D26068394601F010FE606808EB04
:1058C0000601FFF7DDFE6068002101F00EFE0546CF
:1058D000D0B90A9B60689A1B202A4FF0010328BFA9
:1058E0002022394601F0E5FD09EB060B05460BEBDE
:1058F000000ADA4506D0606803685B6998470BF8D0
:10590000010BF6E72E44D2E7024604490448FFF7AC
:1059100021FD2846BDE8F88F0025FAE758B30B00B3
:105920004CE603202DE9F34101EB03081E46036812
:105930009B6805460C461746984780450DD820348D
:10594000686800963B46E2B26F21FFF7A9FFB0FA04
:1059500080F0400902B0BDE8F0810020FAE72DE9AF
:10596000F34101EB03081E4603689B6804460D469D
:105970001746984780450CD8606800963B46EAB2C7
:105980005721FFF78DFFB0FA80F0400902B0BDE863
:10599000F0810020FAE7012B7FB514461E4624D87B
:1059A000002B0CBF0723062300930A4602AB6F218E
:1059B000FFF776FF0546A8B99DF8083023749DF8D7
:1059C0000930E3739DF80A30A3739DF80B306373BD
:1059D0009DF80C3023739DF80D30E372F6B99DF8F5
:1059E0000E30A372284604B070BD022B1CD10423D4
:1059F00000930A4602AB6F21FFF752FF05460028CD
:105A0000F0D19DF80830E3739DF80930A3739DF839
:105A10000A3023739DF80B302074E37202F08AF988
:105A2000FFF7B0FEA072DDE74FF0FF35DAE71FB5F4
:105A300001230A4600936F2103ABFFF731FF20B922
:105A40009DF80C0005B05DF804FB0020FAE708B5EE
:105A50000321FFF7ECFFC0F3401008BD38B5002369
:105A60000C460A4619460546FFF795FF30B9A37A5A
:105A700023B12846BDE83840FFF7E9BF002038BD14
:105A800010B586B0044601A8FFF708FE01A920461C
:105A9000FFF7E4FF20B101A8FFF74CFE06B010BDF0
:105AA00000200146FAE7000070B5044686B0406861
:105AB00001F0E2FC02F004F9E8B9E37A9B071AD599
:105AC0002046FFF7DDFF50EA010306460D4612D0DF
:105AD00001F0FBFF0A4B0B491B68009332462B4633
:105AE00002A802F0ABF80848029A0849FFF732FC16
:105AF00002A801F0CBFE0123237206B070BD00BFE7
:105B0000C8E20320BCE603204CE6032072B30B007E
:105B10002DE9F84F0646884691469A4600250A9B8D
:105B20009D4229D27068414601F0D8FC706809EBAB
:105B30000501FFF7A5FD0A9B5F1B1F2F28BF1F272D
:105B40000AEB050407EB040B706814F8011B0268EC
:105B500092689047A345F7D17068012101F0C5FC18
:105B6000044638B1024605490548FFF7F3FB2046D5
:105B7000BDE8F88F3D44D2E70024F8E787B30B0077
:105B80004CE603202DE9F34101EB03081E460368B0
:105B90009B6805460C461746984780450DD820342B
:105BA000686800963B46E2B26F21FFF7B1FFB0FA9A
:105BB00080F0400902B0BDE8F0810020FAE71FB58F
:105BC000137C8DF80830D37B8DF80930937B8DF8EA
:105BD0000A30537B8DF80B30137B8DF80C30D37A61
:105BE0008DF80D30937A8DF80E30072300930A4616
:105BF00002AB6F21FFF78CFF05B05DF804FB10B519
:105C000088B0044603A8CDE90032FFF747FDDDE97F
:105C1000003203A8FFF705FE9DF81C30A27A63F05E
:105C20007F038DF81C309DF819306AB143F00803EA
:105C300003AA002120468DF81930FFF7C0FFB0FA03
:105C400080F0400908B010BD03F0F703F0E7000052
:105C500030B589B0054602F033F80446E8B102F0E9
:105C60004CF8C317CDE9023002462846FFF7C7FFBC
:105C70000C4909680091DDE902320B49044604A889
:105C800001F0DCFF0948049A0949FFF763FB04A807
:105C900001F0FCFD204609B030BD06490348FFF77E
:105CA00059FBF7E7C8E20320BCE603204CE60320DB
:105CB000A2B30B00B8B30B0037B5457A04469DB9C3
:105CC00001F0FEFF80B10022002369462846CDE99D
:105CD000002300F015FF38B1E37ADB0702D5204638
:105CE000FFF7B6FF0123637203B030BD1FB5012378
:105CF0008DF80C2000930A4603AB6F21FFF708FFD5
:105D000005B05DF804FBF8B5174604460D461E467F
:105D1000FFF78DFE384040EA060229462046BDE8DE
:105D2000F840FFF7E3BF012908B50DD800290CBFE3
:105D300010222022002382F0FF020721FFF7E3FF59
:105D4000B0FA80F0400908BD0020FCE738B50446F1
:105D500032256068572101F0C1FB6068012101F024
:105D6000C4FB08B1013DF4D138BD00002DE9F0417C
:105D700004460F46164602EB0308B04520D0606883
:105D8000572101F0ABFB39466068FFF779FC60688A
:105D900016F8011B03689B6898476068012101F0B1
:105DA000A4FB0137054638B1024606490648FFF70D
:105DB000D1FA2846BDE8F0812046FFF7C7FFDCE7AF
:105DC0000025F6E7CDB30B004CE60320F7B5CF185E
:105DD0001E46036801929B6804460D469847874219
:105DE0000AD8019A60683346E9B2FFF7BFFFB0FAFC
:105DF00080F0400903B0F0BD0020FBE7014B024AF0
:105E00001A6070474CE60320EEB30B0010B5012377
:105E100003748368044643B1C068984701236374E0
:105E20000020BDE8104000F023BC00680028F5D039
:105E300083680BB902F014FAC368EEE710B4426845
:105E40000346541001EB6200D20748BF0A591B6891
:105E50005DF8044B48BFD3581847012A02D10160AE
:105E600000207047022A04BFD1E90023C0E90023C3
:105E7000F6E7000010B50346D1E9000286B0002124
:105E8000049108B9D10705D5CDE902020F4A059260
:105E90000F4A049202AA92E803006C4684E80300C9
:105EA00093E8030082E8030094E8030083E803001A
:105EB0000499986804909960D8680599D96005900C
:105EC0001046FEF73FFA06B010BD00BF3D5E0B0066
:105ED0005B5E0B0013B5044600F0FAFB636AC01A60
:105EE000E368984208D3054B00936946002304F108
:105EF00010000193FFF7BEFF02B010BDDD5F0B0085
:105F000007B5054B00936946002310300193FFF756
:105F1000B1FF03B05DF804FBDD5F0B002DE9F34139
:105F200004460E4614201C4990461F4602F094F980
:105F300030B10025C0E90055C0E90255057445742B
:105F4000206098B1099B9DF82020C0E90287314666
:105F5000CDE90003114B043000F032FB30B9236867
:105F60001B7CA3B9012000F0A3FBF8E72568002300
:105F7000236065B12E6836B13046FEF7E3F9102193
:105F80003046FEF78CF814212846FEF788F82046A4
:105F900002B0BDE8F08100BF08B70B000D5E0B003A
:105FA000012337B580F829300446083000F040FB63
:105FB0000420FEF770F8054648B102234FF4006252
:105FC000CDE900320349044A2346FFF7A7FF656085
:105FD00003B030BD60B40B00F7620B002DE9F04157
:105FE00090F82A3086B00446002B64D100F058FDAA
:105FF000002860D000F06CFB636AC01A40F2F133F5
:10600000984258D9236820465B699847054600287E
:1060100051D000F10807012384F82830384602F0F7
:10602000E6FE95F80480CDF8048001302B682B49FA
:1060300000933E1833462A483A46FFF78BF92B68FF
:106040008DF800803246394602A801F02DF8029DF5
:106050006B781BB9012000F03BFEF8E7002000F050
:10606000C9FC20B16B7813B900F012FDFAE72B7868
:10607000012B23D11B491A48FFF76CF92368002133
:106080009B6920469847002384F8283000F020FBC5
:106090006062039C7CB16368013B63605BB9236809
:1060A00020469B689847A368013BA3601BB92368FF
:1060B0002046DB68984706B0BDE8F081E2680A49EF
:1060C0000748FFF747F9094B049304A9002304F19B
:1060D00010000593FFF7CEFED5E700BF72B40B00AA
:1060E00050E6032093B40B00AAB40B00D55E0B005E
:1060F00047F23051084AC160084902600022C0E9F5
:1061000004120749C16107494260C0E90822816160
:10611000028580F82A20704724B50B00015F0B0030
:106120003D5E0B005B5E0B0010B5044B044640F86F
:10613000103BFEF707F9204610BD00BF24B50B0049
:1061400010B5034B03600446FFF7EEFF204610BD79
:106150004CB50B0010B50446FFF7F2FF204638217E
:10616000FDF79DFF204610BD806800F069BA806889
:1061700000F06EBA10B504460068FFF7F8FF20463D
:1061800010BD13B504460190FFF7EEFFE36ADC880B
:10619000A4B20CB103F1080401A8FFF7EBFF2046FD
:1061A00002B010BD13B504460190FFF7DDFF94F86F
:1061B000283043B9E26A0124D38001A8FFF7DAFF4F
:1061C000204602B010BD0024F7E713B50446019045
:1061D000FFF7CAFFE36A01A8DC88FFF7CBFF204680
:1061E00002B010BD2DE9F047994686B090F82930ED
:1061F0009DF838A09DF83C8004460F46164613B91A
:1062000003689B689847314B3846002E08BF1E46EE
:1062100002F0EDFD0546304602F0E9FD284400F1AC
:106220000A05AB071CBF25F0030504353346CDE94D
:106230000285CDE9009A264926483A46FFF78AF8B2
:10624000238E083BAB4212D20024204606B0BDE8A4
:10625000F087CB88012B36D005A8FFF78BFF23688A
:1062600094F828109B69204698470028ECD02046D7
:106270000594FFF779FFE16A228E636B0A44D21A14
:10628000AA42E6D348EA0A0883F80480C3F80090DB
:10629000636B03F108083946404602F083FD40462F
:1062A00002F0A5FD01303146404402F07BFD636BF6
:1062B000E26A2B446363D3880133D380012405A8A9
:1062C000FFF758FFC1E70024F9E700BF28B70B002C
:1062D000D1B40B0050E6032008B5044600F11005C8
:1062E000A3690BB901F0BCFFE36921462846984732
:1062F00000F06EF9F4E708B5FFF7EEFF68B501F1BD
:1063000008050646284602F072FD0130054428467D
:1063100002F06DFDF36A01302844C31A13F0030341
:106320001CBFC3F10403C01868BDF7B504460E4690
:106330000190FFF719FFE76AFB8807F10805E6B14E
:10634000012B22D929462046FFF7D8FF05462946CA
:106350002046FFF7D3FF228E3A44121A0146A0EBE3
:10636000050602D0284602F0C3FC636B9B1B6363E7
:10637000FB88013BFB80012601E0002BE7D101A84F
:10638000FFF7F8FE304603B0F0BD0026F7E7000047
:106390002DE9F0470D4604462F46174BDFF85C9079
:1063A0001646FFF7A5FE236057F8083BE5624B450C
:1063B000268617D1AB889BB2B34213D105EB060AF0
:1063C00067634FF00008EB881FFA88F29BB29A428D
:1063D0000ED2616B2046FFF791FF5045606308F1D4
:1063E0000108F0D90023C5F800906763AE80EB8008
:1063F0002046BDE8F08700BF4CB50B0061AB9CD1D7
:10640000014B024A1A60704750E6032012B50B0098
:10641000704738B505460C4601F0BAFE297801F000
:106420005DF801F0B5FE0368210A9B68984701F00A
:10643000AFFE0368E1B29B68984701F0A9FEBDE892
:10644000384001F056B808B543F2A201FFF7E1FF6A
:10645000BDE808400A2000F03BBC38B504460D46B4
:1064600001F096FE01F008F820462570FFF7EBFFDB
:10647000012038BD0A44FF2091420ED011F8013BA3
:106480005840082310F0800F4FEA400018BF80F0FA
:106490003100013BC0B2F5D1EEE7704700000000CB
:1064A00073B54FF410510546FFF7B3FF4FF4FA7080
:1064B00000F00EFC01F06CFE2978062201F00BF8CA
:1064C00001F066FE03681B6998470628044602D05F
:1064D000002002B070BD6E4601F05AFE03685B6991
:1064E0009847013C14F0FF0406F8010B6946F3D10C
:1064F00002222846FFF7BEFF9DF802408442E7D102
:1065000002220DF103012846FFF7B4FF9DF8054074
:106510008442DDD1BDF80000BDF8034040BA80B22E
:1065200001F0E4FF16A3D3E9002302F059F810A309
:10653000D3E9002302F07EF90F4B002201F098FE10
:1065400002F008FBA86060BA80B201F0CFFF0B4BED
:10655000002202F045F806A3D3E9002302F06AF90D
:1065600002F0F8FA68600120B3E700BFAFF30080E3
:1065700000000000E0FFEF4000804640000059406E
:106580000000000000E0654010B50446FFF788FFFA
:1065900010B194ED020A10BD9FED010AFBE700BFA8
:1065A0000000C07F10B50446FFF77AFF10B194EDEC
:1065B000010A10BD9FED010AFBE700BF0000C07F8C
:1065C00008B5024B1B685B68019308BD48020300D5
:1065D00008B5024B1B68DB68019308BD4802030045
:1065E00008B5024B1B68DB69019308BD4802030034
:1065F00008B5024B1B681B6A019308BD48020300E3
:1066000008B5024B1B685B6A019308BD4802030092
:1066100008B5024B1B689B6A019308BD4802030042
:1066200008B5024B1B68DB6A019308BD48020300F2
:1066300008B5024B1B681B6B019308BD48020300A1
:1066400008B5024B1B689B6B019308BD4802030011
:1066500008B5024B1B681B6C019308BD4802030080
:1066600008B5024B1B685B6C019308BD4802030030
:1066700008B5024B1B68DB6E019308BD480203009E
:1066800008B5024B1B681B6F019308BD480203004D
:1066900008B5024B1B685B6E019308BD3402030012
:1066A00008B5024B1B685B68019308BD1802030024
:1066B00008B5024B1B689B68019308BD18020300D4
:1066C00008B5024B1B68DB68019308BD1802030084
:1066D00008B5024B1B685B69019308BD18020300F3
:1066E00008B5024B1B689B6D019308BD180203009F
:1066F00008B5024B1B68DB6D019308BD180203004F
:1067000008B5024B1B685B6E019308BD18020300BD
:1067100008B5024B1B689B6E019308BD180203006D
:1067200008B5024B1B689B68019308BD2C0203004F
:1067300008B5024B1B68DB68019308BD2C020300FF
:1067400008B5024B1B681B69019308BD2C020300AE
:1067500008B5024B1B685B69019308BD2C0203005E
:1067600008B5024B1B689B69019308BD2C0203000E
:1067700008B5024B1B68DB69019308BD2C020300BE
:1067800008B5024B1B68DB68019308BD28020300B3
:1067900008B5024B1B689B69019308BD28020300E2
:1067A00008B5024B1B68DB69019308BD2802030092
:1067B00008B5024B1B681B6A019308BD2802030041
:1067C00008B5024B1B685B6A019308BD28020300F1
:1067D00008B5024B1B689B6A019308BD28020300A1
:1067E00008B5024B1B68DB6A019308BD2802030051
:1067F00008B5024B1B681B6B019308BD2802030000
:1068000008B5024B1B685B6B019308BD28020300AF
:1068100008B5024B1B681B6C019308BD28020300DE
:1068200008B5024B1B689B6C019308BD280203004E
:1068300008B5024B1B68DB6C019308BD28020300FE
:1068400008B5024B1B681B6D019308BD28020300AD
:1068500008B5024B1B685B69019308BD6402030025
:1068600008B5024B1B689B68019308BD68020300D2
:1068700008B5024B1B68DB68019308BD6802030082
:1068800008B5024B1B68DB69019308BD30020300A9
:1068900008B5024B1B681B6A019308BD3002030058
:1068A00008B5024B1B68DB68019308BD3C0203007E
:1068B00008B5024B1B681B69019308BD3C0203002D
:1068C00008B5024B1B685B69019308BD3C020300DD
:1068D00008B5024B1B689B69019308BD3C0203008D
:1068E00008B5024B1B68DB69019308BD3C0203003D
:1068F00008B5024B1B681B6A019308BD3C020300EC
:1069000008B5024B1B689B6A019308BD3C0203005B
:1069100008B5024B1B681B6C019308BD3C020300C9
:1069200008B5024B1B681B68019308BD4C020300AD
:1069300008B5024B1B681B69019308BD4C0203009C
:1069400008B5024B1B685B69019308BD4C0203004C
:1069500008B5024B1B689B69019308BD4C020300FC
:1069600008B5024B1B68DB69019308BD4C020300AC
:1069700008B5024B1B681B6A019308BD4C0203005B
:1069800008B5024B1B685B6B019308BD60020300F6
:1069900008B5024B1B685B6D019308BD60020300E4
:1069A00008B5034B1B68D3F89830019308BD00006D
:1069B0006002030008B5024B1B681B68019308BD09
:1069C0002002030008B5024B1B685B68019308BDF9
:1069D0002002030008B5024B1B685B69019308BDE8
:1069E0002002030008B5024B1B68DB6A019308BD57
:1069F0002002030008B5024B1B68DB6C019308BD45
:106A00002002030008B5024B1B685B6D019308BDB3
:106A10002002030008B5024B1B689B6D019308BD63
:106A20002002030008B5024B1B68DB6D019308BD13
:106A30002002030008B5034B1B68D3F8883001938C
:106A400008BD00002002030008B5034B1B68D3F803
:106A50009430019308BD00002002030008B5034BE9
:106A60001B68D3F8B030019308BD0000200203007A
:106A700008B5024B1B681B68019308BD4402030064
:106A800008B5024B1B685B68019308BD4402030014
:106A900008B5024B1B689B68019308BD44020300C4
:106AA00008B5024B1B685B69019308BD44020300F3
:106AB00008B5024B1B68DB69019308BD4402030063
:106AC00008B5024B1B681B6A019308BD4402030012
:106AD00008B5024B1B685B6A019308BD44020300C2
:106AE00008B5024B1B68DB6A019308BD4402030032
:106AF00008B5024B1B681B6B019308BD44020300E1
:106B000008B5024B1B685B6B019308BD4402030090
:106B100008B5024B1B689B6B019308BD4402030040
:106B200008B5024B1B68DB6B019308BD44020300F0
:106B300008B5024B1B685B68019308BD4002030067
:106B400008B5024B1B689B68019308BD4002030017
:106B500008B5024B1B68DB68019308BD40020300C7
:106B600008B5024B1B681B69019308BD4002030076
:106B700008B5024B1B685B69019308BD4002030026
:106B800008B5024B1B689B69019308BD40020300D6
:106B900008B5024B1B68DB69019308BD4002030086
:106BA00008B5024B1B681B6A019308BD4002030035
:106BB00008B5024B1B681B6B019308BD4002030024
:106BC00008B5024B1B685B6B019308BD40020300D4
:106BD00008B5024B1B681B6C019308BD4002030003
:106BE00008B5024B1B685B6C019308BD40020300B3
:106BF00008B5024B1B681B68019308BD1C0203000B
:106C000008B5024B1B685B68019308BD1C020300BA
:106C100008B5024B1B689B68019308BD1C0203006A
:106C200008B5024B1B681B69019308BD1C020300D9
:106C300008B5024B1B68DB69019308BD1C02030009
:106C400008B5024B1B68DB6A019308BD1C020300F8
:106C500008B5024B1B681B6B019308BD1C020300A7
:106C600008B5024B1B68DB6B019308BD1C020300D7
:106C700008B5024B1B681B6C019308BD1C02030086
:106C800008B5024B1B685B6C019308BD1C02030036
:106C900008B5024B1B689B6C019308BD1C020300E6
:106CA00008B5024B1B68DB6C019308BD1C02030096
:106CB00008B5024B1B681B6D019308BD1C02030045
:106CC00008B5024B1B685B6D019308BD1C020300F5
:106CD0000021FFF77FBE10B5836804460BB901F0B1
:106CE000BFFAC3689847A3681BB103222146204618
:106CF000984720461021BDE81040FDF7D0B910B5E7
:106D00004368013B0446436063B903689B68984746
:106D1000A368013BA3602BB923682046DB68BDE86C
:106D20001040184710BD10B50446006808B1FFF7C1
:106D3000E6FF204610BD13B50B460246D0E9000120
:106D40006C4684E8030093E8030082E8030094E8BB
:106D5000030083E8030002B010BD000002480023D6
:106D60000360FFF77DBC00BF54E6032000224068AB
:106D70001146FFF7F5BE002240681146FFF710BF2D
:106D8000002240681146FFF71BBF40680022FFF752
:106D90000FBF4068002281F00101FFF7F9BE002318
:106DA00040681A461946FFF7EBBE002340681A46B2
:106DB0001946FFF7DDBE002240681146FFF7C0BE4E
:106DC000406800220221FFF7C3BE002340681A4634
:106DD000FFF7AEBE084B10B5282422461846002106
:106DE00001F0A0FF054B04804FF0FF324260042207
:106DF0005A60034A1A6010BD60E6032058E603207B
:106E000074B50B0070470020704710B51021044680
:106E1000FDF745F9204610BD08B5FFF7F6FF08BDA0
:106E200030B500224FF69C74026084808D888C807F
:106E30000C68858004600A6030BD10B504460068A7
:106E4000FFF7DEFE204610BD38B5C468F4B12378E4
:106E5000022B03D104F10C00FFF7EFFF656835B199
:106E60002846FDF76FFA10212846FDF718F9A568A6
:106E700035B12846FDF766FA10212846FDF70FF9CF
:106E800020461421BDE83840FDF709B938BD10B5DA
:106E900088B00446684600F044FD694604A800F046
:106EA00063FD04A8A047044604A800F0EFFC684670
:106EB00000F0ECFC204608B010BD1FB50023CDE962
:106EC0000201019210241A4669461846ADF80230B4
:106ED000ADF80040FFF7D4FD04B010BD0B680360AF
:106EE0004B68436013B15A6801325A60704737B536
:106EF000044668460D46FFF7F1FF009B019A2360A8
:106F00006260002301A801930093FFF70CFF35B1E5
:106F1000281DFFF708FF08212846FDF7C0F8204686
:106F200003B030BD826810B50AB901F099F9BDE827
:106F30001040C368184708B5006800F11001FFF75A
:106F4000F1FF08BD826810B50AB901F089F9BDE802
:106F50001040C368184708B5006800F11001FFF73A
:106F6000F1FF08BD38B500230446036010200D462C
:106F7000FDF791F828B10123C0E90133024B03600A
:106F8000C5602060204638BDB0B50B0038B5002381
:106F900083608B6804460D462BB102229847EB684C
:106FA000E360AB68A360204638BD0000F0B589B04F
:106FB00004686846FFF734FF4FF00203D4E84F2F10
:106FC000002A03D1C4E8413F0029F7D125D104F1BB
:106FD0000C0569462846FFF723FFBFF35B8F0123AB
:106FE0006370002004F10803BFF35B8F53E8006F68
:106FF00043E80002002AF9D1BFF35B8F6EB1FFF7BF
:10700000F9FC78B129463046FFF78CFF3046FDF792
:1070100099F910213046FDF742F86846FFF70DFF59
:1070200009B0F0BD314602A8FFF7B0FFE068B4F93F
:10703000105008B101F0BEFE06901020ADF81C50B3
:10704000FDF729F80546E8B1002787601820FDF70D
:1070500022F8044688B10146876002A8FFF76BFE5C
:10706000049BA268A360059B049206A9E268E36002
:1070700004F110000592FFF7D3FE084BEB60084BBC
:107080002C60AB6006A8FFF7D8FE02A8FDF75AF9FE
:10709000002229460348FFF7B5FCB7E7376F0B001E
:1070A000B9710B00D76C0B002DE9F04F8BB0054682
:1070B0009DF850A00F4690469946FFF7F1FC07AEA9
:1070C000834638BB4FF62E73059005A93046ADF8C0
:1070D0001830FFF7A5FE1420FCF7DDFF044648B189
:1070E000022303700123C0E901BB437031460C3019
:1070F000FFF796FE2846214640F8044BFFF732FF83
:107100003046FFF79AFE05A8FFF797FE28460BB01A
:10711000BDE8F08F0C2300241420CDE90844079328
:10712000FCF7B9FF014618B1C0E90144047044708E
:1071300004A80391FFF716FF1E4B08930820FCF7E5
:10714000AAFF044610B103A9FFF7C8FE00965FFA34
:107150008AF34A46414638460994FFF7B1FCB8B96C
:10716000039B5B7803F0FF0293B94FF69C7305A96C
:1071700003A80592ADF81830FFF718FF05A8FFF730
:107180005CFE05A80999FFF7B2FE06A8FFF7CBFD44
:1071900003A905A8FFF7A2FE059B069A2B606A606B
:1071A000002306A806930593FFF7BDFD04A8FFF78B
:1071B000BAFDABE735720B00012AF8B5054603D1DD
:1071C0000B6803600020F8BD022A10D0032AF9D111
:1071D0000468002CF6D004F11000FFF72EFE2046C4
:1071E000FDF7B0F818212046FCF759FFEAE7182010
:1071F0000E68FCF750FF044650B13146FFF7C6FE5B
:107200003069B6F9147008B101F0D4FD2061A7828D
:107210002C60D7E738B5002383608B6804460D46A1
:107220002BB102229847EB68E360AB68A36020466D
:1072300038BD0000F0B589B004460D4601A81146DE
:10724000FFF755FEA4B124B21DB1284601F0B2FDEE
:10725000054601A803A90395ADF81040FFF7A6FE67
:1072600003A8FFF7EAFD02A8FFF75DFD09B0F0BD36
:10727000019D0123D5E84F2F002A03D1C5E8413FE6
:107280000029F7D1EFD12B73BFF35B8F6B702B1DF0
:10729000BFF35B8F53E8006F43E80042002AF9D147
:1072A000BFF35B8F002EDED02046FFF7A3FB07461F
:1072B00060B105F10C013046FFF744FE3046FDF7A2
:1072C00041F810213046FCF7EAFECCE7314603A82E
:1072D000FFF7A0FF2B7B8DF81C301020FCF7DBFEA6
:1072E0000546D0B187601420FCF7D5FE044678B17E
:1072F0008760014603A8FFF71EFD059BA268A360F7
:10730000069B0592E268E3609DF81C3006922374A8
:10731000064BEB60064B2C60AB6003A8FDF712F840
:10732000002229460348FFF76DFBC7E7576F0B00A4
:1073300039730B00D76C0B00012A70B5044603D1DA
:107340000B680360002070BD022A0CD0032AF9D11B
:107350000468002CF6D02046FCF7F4FF14212046E8
:10736000FCF79DFEEEE714200E68FCF794FE054640
:1073700020B13146FFF74EFF337C2B742560E1E7E7
:10738000002240681146FFF70BBC002240681146FE
:10739000FFF716BC40680022FFF70ABC40680022D5
:1073A00081F00101FFF7F4BB002340681A4619463B
:1073B000FFF7E6BB002340681A461946FFF7D8BB23
:1073C000002240681146FFF7CBBB002240681146FF
:1073D000FFF7B6BB406800220221FFF7B9BB0023CC
:1073E00040681A46FFF7A4BB024B03225A60024AC8
:1073F0001A60704788E60320CCB50B007047F8B5DB
:10740000064615460C468F18BC4206D0336814F861
:10741000011B9B6830469847F6E72846F8BD007C7C
:107420000022FFF7C5B9007C0021FFF7C9B9007C35
:107430000021FFF7CDB9007C0021FFF7D1B9007C16
:107440000021FFF7D5B910B514210446FCF727FE3B
:10745000204610BD10B54FF47A730446084600214B
:10746000C4E90113034B236020741146FFF7D0F9E0
:10747000204610BD08B60B000023007C1A461946B2
:10748000FFF77EB97FB500221423CDE90122ADF8C4
:1074900004300B788DF808304B680393CB68049365
:1074A000007C0B7A059301A9FFF7CAF907B05DF8D4
:1074B00004FB1FB5003B8DF800104FF064010391F1
:1074C00018BF0123694601928DF80830FFF7DAFFF3
:1074D00005B05DF804FB0123FFF7EBBF007C002241
:1074E000FFF756B9C9B2FFF7F9BF007C0022FFF7DA
:1074F00057B90121FFF7F9BF08B50021007CFFF75C
:107500008FF9B0FA80F0400908BD08B50021007C71
:10751000FFF78EF9B0FA80F0400908BD004700007F
:107520002DE9FF4100241D460F4690460646FFF711
:107530001FF9A5424FF00403ADF80D408DF80C3053
:107540008DF80F40A2BF9DF828308DF80E3003ACA7
:107550000749009443463A463046A8BF8DF80D507F
:10756000FFF7FEF8B0FA80F0400904B0BDE8F08102
:107570001D750B00704710B518210446FCF78FFDF0
:10758000204610BDF0B5037D062B8DB00E4600F1F0
:1075900004074FF0000412D000F1080515F8011D92
:1075A0000A22304600F043F9AF42044419D0002CBF
:1075B000F4D02E21304600F037F90444EEE72F23B3
:1075C0006A4639460A208DF80040FFF741F96846BF
:1075D00001F00DFC33680246DB6869463046984787
:1075E000044620460DB0F0BD10B5054B04461122EF
:1075F00040F8043B002101F095FB204610BD00BF80
:1076000030B60B000346074A10B543F8042B01F1CE
:10761000100251F8044B43F8044B9142F9D10A7817
:107620001A7010BD30B60B0010B59DF8084044EA42
:10763000032343EA024242EA0161042341600375E5
:1076400010BD000007B5064B0360CB7800938B7824
:107650004A780978FFF7E8FF03B05DF804FB00BF44
:1076600030B60B00014B024A1A60704790E60320C7
:107670003CB60B00002340681A46FFF759BA406831
:1076800000220221FFF764BA002240681146FFF78A
:1076900057BA002240681146FFF762BA00234068DB
:1076A0001A461946FFF764BA002340681A4619467D
:1076B000FFF766BA40680021FFF78ABA40680021E8
:1076C000FFF78EBA4068002281F00101FFF760BA2F
:1076D00040680022FFF76CBA002240681146FFF7AD
:1076E0006FBA002240681146FFF75ABA2DE9F043FD
:1076F00095B014460D460746FFF776FF00211C2281
:107700000DA8009101F00EFB40230C9320466B4620
:107710000CAA0021FFF7ACF8044600284BD1024622
:1077200001216868FFF71CFA02218046224668683A
:10773000FFF716FA009E81462146002E3BD0002915
:1077400039D17368022B03D00A2B11D0F669F4E704
:10775000B8F1000FFAD0716906A8043107ADFFF740
:1077600071FF0FCD3C1D0FC42B6823704146EDE720
:10777000B9F1000FEAD07469102201A801F0D2FA21
:1077800006238DF8143001AD04F10803183418688D
:1077900059682A4603C20833A3421546F7D101A906
:1077A00006A807ADFFF72EFF0FCD3C1D0FC42B68B9
:1077B00023704946CAE70098FFF752F8384615B0DB
:1077C000BDE8F083024B034A1A6000225A607047FA
:1077D00094E6032048B60B00F8B506460D468F1810
:1077E0000024BD420CD0336815F8011B9B6830465D
:1077F0009847031E01DB1C44F3E7002C08BF1C461E
:107800002046F8BD13B50446084659B1019101F070
:10781000EEFA23680199DB680246204602B0BDE813
:107820001040184702B010BD03689B68184730B578
:107830008BB00023012A8DF8243098BF0A2209ACAE
:107840000D46B1FBF2F101FB125303F0FF03092BCC
:1078500094BF30333733DBB2AA4204F8013DEFD98D
:107860002146FFF7CFFF0BB030BD0000014B0022D7
:107870009A6070479CE6032010B5044608462170C4
:10788000FEF7FEFF00236360204610BD10B50446DE
:107890000068FFF7B5F9204610BD10B50446006832
:1078A00008B1FFF7ADF90023C4E90133236010BD2F
:1078B00038B504460D4600680131FFF7A9F910B14B
:1078C000C4E90005012038BD10B50368044623B1A2
:1078D00043688B4201D3012010BD2046FFF7E8FF2B
:1078E0000028F9D0A368002BF5D122681370F2E7C5
:1078F00037B50D46114601920446FFF7E5FF019AA0
:1079000028B92046FFF7C9FF204603B030BDA2606A
:107910002946206801F0DEF92268A3680021D154CD
:10792000F2E7002313B5C0E9003304468360037314
:1079300041B10846019101F05AFA019902462046E8
:10794000FFF7D6FF204602B010BD884210B50446AE
:1079500005D00B682BB18A681946FFF7C9FF20468E
:1079600010BDFFF79AFFFAE710B500230446C0E9FF
:10797000003383600373FFF7E8FF204610BD08B5AE
:1079800082683AB921B10878B0FA80F0400900E085
:10799000012008BD006809B90078F5E701F0F8F9A1
:1079A000F2E758B50E462AB121B18468A34202D34A
:1079B00000230B7058BDE41A013A0168944228BFB5
:1079C000144619442246304601F02DFA002333555F
:1079D000F0E7000008B5006840B101F055F951EC3E
:1079E000100B01F0B7F800EE100A08BD9FED010A78
:1079F000FBE700BF0000000007B50B460021024670
:107A0000009101208C21FFF729F803B05DF804FBF9
:107A100001460020FFF7F0BF0020FFF7F9BF00008C
:107A2000054B02221A60054B054A9A600020C3E903
:107A30000000FEF7C7BF00BFB8E60320ACE6032096
:107A40000000FFFF2DE9F041154ADFF86080D2E920
:107A50000063801943EB0101124BD3E90067D8E9B9
:107A60000023861941EB0707BB4208BFB2428CB026
:107A700013D003A96846CDE90067FFF711F9089B09
:107A8000094D03F26C7303AC08930FCC0FC50FCCF8
:107A90000FC5C8E9006723682B600CB0BDE8F08112
:107AA000F0E60320E8E60320C4E60320F8E603201E
:107AB00008B50020FFF71CF828B1FEF7F1FF80F0B1
:107AC0000100C0B208BD0120FCE71FB502460B460D
:107AD00068460021CDE90023CDE90211FEF718FE2A
:107AE000024610B90146FEF79DFF05B05DF804FBA4
:107AF00030B593B0CDE90023194B0446D3E900100B
:107B0000019B521843EB00031648D0E900105218AD
:107B100043EB0003CDE9002324220DEB02000021FA
:107B200001F000F9002509A96846FFF7B9F8162207
:107B3000294603A8029501F0F5F802A909A801F069
:107B400077F802A801F053F912AB184402A900F823
:107B5000415C2046FFF7E5FE204613B030BD00BF74
:107B6000F0E60320E8E603202DE9F047A4B007463D
:107B7000884614A811463F221C4601F054F9002300
:107B800014A88DF88F3001F032F905464CBB294915
:107B900003A801F007F914AC002605F1FF39B1453F
:107BA00034D92378252B06F1010A17D163787A2B73
:107BB00014D103A801F01BF914AB05463018184482
:107BC000A9EB0602A11C01F085F82A4603A920466C
:107BD00001F080F814A801F00AF905460134564670
:107BE000DBE73C2394FBF3F2002AB8BF5242B2FB1E
:107BF000F3F103FB112200924FF461630E4A94FBF0
:107C0000F3F3102103A8FFF713F8C4E700212E2295
:107C100008A8079101F086F8434614AA322107A864
:107C2000FFF736F807A93846FFF77BFE384624B041
:107C3000BDE8F0877CB60B007EB60B00F0B58DB0CA
:107C4000CDE90023129D044615B9194B1D682DB1CD
:107C5000184B2846196801F09BF838B9DDE9002374
:107C60002046FFF745FF20460DB0F0BD124E0099AB
:107C7000124FD6E900325B18019942EB0102D7E9B5
:107C800000011B1842EB0102CDE900320021242241
:107C900003A801F047F803A96846FFF701F8326826
:107CA0003B6803A9134420462A46FFF75DFFDAE745
:107CB000C0E60320C8E20320F0E60320E8E6032044
:107CC00010B50020FEF70CFD0446A0B9FEF772FEC9
:107CD000012810D12046FEF79DFE60B9FFF7E8FEAF
:107CE00010B9FEF7D5FEF9E7FFF7E2FEBDE8104058
:107CF0000020FEF7F5BC204610BD1FB5FFF7E0FFE2
:107D000010220021684601F00DF800216846FEF7B8
:107D1000F7FC009805B05DF804FB000008B5FFF71C
:107D2000ECFFC117FFF78EFE014B986808BD00BF3E
:107D3000C4E6032008B5FFF7E0FFC117FFF782FE96
:107D4000014B586908BD00BFC4E60320024B1A6806
:107D5000024B1A60704700BFC8E20320C0E6032050
:107D600070474174704708B5007CFEF7C9FD20EAF2
:107D7000E07008BD08B5007CFEF79AFD20EAE070CF
:107D800008BD08B5007CFEF7A3FD40EAE07008BD21
:107D900008B5007CFEF794FD40EAE07008BD007C69
:107DA000FEF79EBD37B5457C04462DB1207C03B05F
:107DB000BDE83040FEF774BD007C0191FEF7A0FDE8
:107DC00000280199F2DC284603B030BD10B514211B
:107DD0000446FCF764F9204610BD000010B54FF4CE
:107DE0007A730446084611460022C4E90123044B75
:107DF0002360012320746374FEF78AFD204610BDC2
:107E0000B0B60B00417470477047704708B5002149
:107E1000007CFEF79DFD40EAE07008BD08B5012139
:107E2000007CFEF795FD40EAE07008BD08B5007CD7
:107E3000FEF786FD20EAE07008BD08B5007CFEF77D
:107E400077FD20EAE07008BD13B50446007C01917F
:107E5000FEF776FD0028019901DC607C20B1207CD2
:107E6000FEF77EFD20EAE07002B010BD007CFEF758
:107E70007FBD10B514210446FCF711F9204610BD52
:107E800010B54FF47A73044608460021C4E9011383
:107E9000044B23600123207463741146FEF740FDF8
:107EA000204610BDE0B60B0010B514220446002198
:107EB00000F038FF204610BD10B50F4C88B003A865
:107EC000FFF7F2FF2178BFF35B8F11F001010FD1B3
:107ED00020460191FCF7F2F8019948B103AA07483E
:107EE000FFF7CEFF2046FCF7EEF8054800F0C6FE8F
:107EF000024808B010BD00BF00E7032004E70320DC
:107F0000097E0B00014B1860704700BFCCE20320D4
:107F100008B50B4B43B1FFF7CFFF03681B699847C8
:107F2000002801DDAFF30080064B43B100F070F98B
:107F300003681B699847002801DDAFF3008008BD86
:107F4000000000000000000008B5FFF7E1FFFEF7A9
:107F5000BFFB014B186008BD2CE703200548064A0B
:107F6000064908B5121A00F0B5FE054B054A1A601D
:107F700008BD00BF00F4032004FC0320C4BB0B00B9
:107F800000FC03201E1C279A07B5002300931A4605
:107F90006FF07701FEF758FD03B05DF804FB0000B9
:107FA00007B543880A2B08D0502B0BD1094B1B680F
:107FB0004BB103B05DF804EB1847FFF7E5FF03B0E2
:107FC0005DF804FB002300931A466FF07701FEF77B
:107FD0003BFDF4E71CE7032010B512480021FEF733
:107FE0004FFE114B1A68114B9A42114B0CBF0122E4
:107FF00000221A7001D0FFF7B1FFFEF751FB0446D3
:1080000000F098FE0B4B13B12046AFF30080002127
:108010000848FEF785FDBDE8104007480021FEF73F
:1080200009BD00BF057F0B0000FC03201E1C279A22
:1080300018E7032000000000A17F0B0008B5024BE9
:108040001B681B68019308BD5C02030008B5024B66
:108050001B685B68019308BD5C02030008B5024B16
:108060001B689B68019308BD5C020300232813B5BD
:1080700002D9002002B010BDA0F10B03022B1AD8C8
:10808000174C2178BFF35B8F11F001010BD1204613
:108090000191FCF713F8019928B11248FFF7ECFBA6
:1080A0002046FCF710F80F4B1878FEF7F1FB00287C
:1080B000DFD10120DEE7012809D800F069F80021AE
:1080C000007CFEF79DFB80F00100C0B2D2E70938CA
:1080D0000128EED800F09CF8007CFEF709FCF2E7DE
:1080E00020E7032024E70320232838B504460D4663
:1080F0000AD8FF2908D0FFF7B9FF28B12946204642
:10810000BDE83840FEF70CBB38BD38B504460D4617
:10811000FEF70EFBFF2810D0062804D84D2323FAC3
:1081200000F0C30709D42046FFF7A0FF28B1294675
:108130002046BDE83840FEF703BB38BD10B5044605
:10814000FEF7F6FA031FDBB2012B08D92046FFF732
:108150008DFF20B12046BDE81040FEF7F9BA00209F
:1081600010BD704738B52025142304460360856090
:1081700005610649284600F071F804496060284608
:1081800000F06CF8E060204638BD00BF08B70B0077
:1081900030B50E4D2978BFF35B8F11F0010487B025
:1081A00011D12846FBF78AFF68B101A8FFF7DAFF73
:1081B00001AA21460648FFF74DF92846FBF783FF41
:1081C000044800F05BFD024807B030BD30E70320F3
:1081D00034E7032063810B007047000038B5044684
:1081E00014252A46002100F09DFD258040250749E1
:1081F00025812846258200F031F804496060284630
:1082000000F02CF8E060204638BD00BF08B70B0036
:1082100030B50E4D2978BFF35B8F11F0010487B0A4
:1082200011D12846FBF74AFF68B101A8FFF7D6FF36
:1082300001AA21460648FFF7D1FD2846FBF743FF78
:10824000044800F01BFD024807B030BD48E703209A
:108250004CE70320D9810B00FBF71DBFFBF71DBFC7
:1082600008B5FEF7EDFC000081F0004102E000BF20
:1082700083F0004330B54FEA41044FEA430594EAE6
:10828000050F08BF90EA020F1FBF54EA000C55EA21
:10829000020C7FEA645C7FEA655C00F0E2804FEAF2
:1082A0005454D4EB5555B8BF6D420CDD2C4480EAD4
:1082B000020281EA030382EA000083EA010180EA04
:1082C000020281EA0303362D88BF30BD11F0004F52
:1082D0004FEA01314FF4801C4CEA113102D0404288
:1082E00061EB410113F0004F4FEA03334CEA1333C3
:1082F00002D0524263EB430394EA050F00F0A780DB
:10830000A4F10104D5F1200E0DDB02FA0EFC22FAD5
:1083100005F2801841F1000103FA0EF2801843FAC9
:1083200005F359410EE0A5F120050EF1200E012ABA
:1083300003FA0EFC28BF4CF0020C43FA05F3C018F8
:1083400051EBE37101F0004507D54FF0000EDCF171
:10835000000C7EEB00006EEB0101B1F5801F1BD31A
:10836000B1F5001F0CD349085FEA30004FEA3C0C1E
:1083700004F101044FEA445212F5800F80F09A8014
:10838000BCF1004F08BF5FEA500C50F1000041EB18
:10839000045141EA050130BD5FEA4C0C404141EB1C
:1083A0000101013C28BFB1F5801FE9D291F0000F17
:1083B00004BF01460020B1FA81F308BF2033A3F1C6
:1083C0000B03B3F120020CDA0C3208DD02F1140CBD
:1083D000C2F10C0201FA0CF021FA02F10CE002F1F8
:1083E0001402D8BFC2F1200C01FA02F120FA0CFCF1
:1083F000DCBF41EA0C019040E41AA2BF01EB04513A
:10840000294330BD6FEA04041F3C1CDA0C340EDC37
:1084100004F11404C4F1200220FA04F001FA02F37A
:1084200040EA030021FA04F345EA030130BDC4F138
:108430000C04C4F1200220FA02F001FA04F340EA2D
:108440000300294630BD21FA04F0294630BD94F0DE
:10845000000F83F4801306BF81F480110134013DC5
:108460004EE77FEA645C18BF7FEA655C29D094EA36
:10847000050F08BF90EA020F05D054EA000C04BFB4
:108480001946104630BD91EA030F1EBF002100209F
:1084900030BD5FEA545C05D14000494128BF41F03E
:1084A000004130BD14F580043CBF01F5801130BDA2
:1084B00001F0004545F0FE4141F470014FF000002D
:1084C00030BD7FEA645C1ABF194610467FEA655CDE
:1084D0001CBF0B46024650EA013406BF52EA033580
:1084E00091EA030F41F4002130BD00BF90F0000F6E
:1084F00004BF0021704730B54FF4806404F13204AA
:108500004FF000054FF0000150E700BF90F0000F62
:1085100004BF0021704730B54FF4806404F1320489
:1085200010F0004548BF40424FF000013EE700BF59
:1085300042004FEAE2014FEA31014FEA02701FBFE9
:1085400012F07F4393F07F4F81F06051704732F01B
:108550007F4208BF704793F07F4F04BF41F4002172
:10856000704730B54FF4607401F0004521F00041D0
:108570001CE700BF50EA010208BF704730B54FF05A
:1085800000050AE050EA010208BF704730B511F05B
:10859000004502D5404261EB41014FF4806404F193
:1085A00032045FEA915C3FF4D8AE4FF003025FEA19
:1085B000DC0C18BF03325FEADC0C18BF033202EB9D
:1085C000DC02C2F1200300FA03FC20FA02F001FAF7
:1085D00003FE40EA0E0021FA02F11444BDE600BF9A
:1085E00070B54FF0FF0C4CF4E06C1CEA11541DBF49
:1085F0001CEA135594EA0C0F95EA0C0F00F0DEF814
:108600002C4481EA030621EA4C5123EA4C5350EAF8
:10861000013518BF52EA033541F4801143F4801349
:1086200038D0A0FB02CE4FF00005E1FB02E506F0DA
:108630000042E0FB03E54FF00006E1FB03569CF02F
:10864000000F18BF4EF0010EA4F1FF04B6F5007F35
:1086500064F5407404D25FEA4E0E6D4146EB0606A7
:1086600042EAC62141EA55514FEAC52040EA5E5030
:108670004FEACE2EB4F1FD0C88BFBCF5E06F1ED8DA
:10868000BEF1004F08BF5FEA500E50F1000041EB11
:10869000045170BD06F0004646EA010140EA0200BE
:1086A00081EA0301B4EB5C04C2BFD4EB0C0541EAE0
:1086B000045170BD41F480114FF0000E013C00F3F5
:1086C000AB8014F1360FDEBF002001F0004170BD19
:1086D000C4F10004203C35DA0C341BDC04F1140432
:1086E000C4F1200500FA05F320FA04F001FA05F2BE
:1086F00040EA020001F0004221F0004110EBD3708B
:1087000021FA04F642EB06015EEA430E08BF20EAB6
:10871000D37070BDC4F10C04C4F1200500FA04F359
:1087200020FA05F001FA04F240EA020001F00041EB
:1087300010EBD37041F100015EEA430E08BF20EA5E
:10874000D37070BDC4F1200500FA05F24EEA020EA6
:1087500020FA04F301FA05F243EA020321FA04F0D5
:1087600001F0004121FA04F220EA020000EBD3708C
:108770005EEA430E08BF20EAD37070BD94F0000F8C
:108780000FD101F00046400041EB010111F4801FC0
:1087900008BF013CF7D041EA060195F0000F18BF71
:1087A000704703F00046520043EB030313F4801FAD
:1087B00008BF013DF7D043EA0603704794EA0C0F67
:1087C0000CEA135518BF95EA0C0F0CD050EA41067D
:1087D00018BF52EA4306D1D181EA030101F00041FA
:1087E0004FF0000070BD50EA410606BF1046194622
:1087F00052EA430619D094EA0C0F02D150EA01362E
:1088000013D195EA0C0F05D152EA03361CBF10466E
:1088100019460AD181EA030101F0004141F0FE410D
:1088200041F470014FF0000070BD41F0FE4141F491
:10883000780170BD70B54FF0FF0C4CF4E06C1CEA91
:1088400011541DBF1CEA135594EA0C0F95EA0C0F46
:1088500000F0A7F8A4EB050481EA030E52EA033501
:108860004FEA013100F088804FEA03334FF0805522
:1088700045EA131343EA12634FEA022245EA11154F
:1088800045EA10654FEA00260EF000419D4208BF00
:10889000964244F1FD0404F5407402D25B084FEAAD
:1088A0003202B61A65EB03055B084FEA32024FF459
:1088B00080104FF4002CB6EB020E75EB030E22BFB6
:1088C000B61A754640EA0C005B084FEA3202B6EB76
:1088D000020E75EB030E22BFB61A754640EA5C0025
:1088E0005B084FEA3202B6EB020E75EB030E22BFB5
:1088F000B61A754640EA9C005B084FEA3202B6EBB6
:10890000020E75EB030E22BFB61A754640EADC0074
:1089100055EA060E18D04FEA051545EA16754FEAD6
:1089200006164FEAC30343EA52734FEAC2025FEAF4
:108930001C1CC0D111F4801F0BD141EA00014FF083
:1089400000004FF0004CB6E711F4801F04BF014354
:108950000020B4F1FD0C88BFBCF5E06F3FF6AFAE70
:10896000B5EB030C04BFB6EB020C5FEA500C50F100
:10897000000041EB045170BD0EF0004E4EEA113183
:1089800014EB5C04C2BFD4EB0C0541EA045170BD8A
:1089900041F480114FF0000E013C90E645EA060ECE
:1089A0008DE60CEA135594EA0C0F08BF95EA0C0FFC
:1089B0003FF43BAF94EA0C0F0AD150EA01347FF444
:1089C00034AF95EA0C0F7FF425AF104619462CE71B
:1089D00095EA0C0F06D152EA03353FF4FDAE10467E
:1089E000194622E750EA410618BF52EA43067FF4CF
:1089F000C5AE50EA41047FF40DAF52EA43057FF45F
:108A0000EBAE12E74FF0FF3C06E000BF4FF0010C69
:108A100002E000BF4FF0010C4DF804CD4FEA410CCD
:108A20007FEA6C5C4FEA430C18BF7FEA6C5C1BD09A
:108A300001B050EA410C0CBF52EA430C91EA030F1B
:108A400002BF90EA020F0020704710F1000F91EA78
:108A5000030F58BF994208BF90422CBFD8176FEA46
:108A6000E37040F0010070474FEA410C7FEA6C5C14
:108A700002D150EA013C07D14FEA430C7FEA6C5C1B
:108A8000D6D152EA033CD3D05DF8040B704700BF47
:108A90008446104662468C461946634600E000BF95
:108AA00001B5FFF7B7FF002848BF10F1000F01BD67
:108AB0004DF808EDFFF7F4FF0CBF012000205DF832
:108AC00008FB00BF4DF808EDFFF7EAFF34BF0120B7
:108AD00000205DF808FB00BF4DF808EDFFF7E0FF50
:108AE00094BF012000205DF808FB00BF4DF808EDA1
:108AF000FFF7CEFF94BF012000205DF808FB00BF08
:108B00004DF808EDFFF7C4FF34BF012000205DF8E9
:108B100008FB00BF4A0011D212F5001211D20DD588
:108B20006FF47873B3EB62520ED44FEAC12343F073
:108B3000004343EA505323FA02F070474FF000001D
:108B4000704750EA013002D14FF0FF3070474FF0CC
:108B5000000070474FEA4102B2F1E04324BFB3F591
:108B6000001CDCF1FE5C0DD901F0004C4FEAC002A4
:108B70004CEA5070B2F1004F40EB830008BF20F088
:108B80000100704711F0804F21D113F13872BCBF42
:108B900001F00040704741F480114FEA5252C2F197
:108BA0001802C2F1200C10FA0CF320FA02F018BFE0
:108BB00040F001004FEAC1234FEAD32303FA0CFC33
:108BC00040EA0C0023FA02F34FEA4303CCE77FEAC2
:108BD000625307D150EA01331EBF4FF0FE4040F40C
:108BE0004000704701F0004040F0FE4040F40000BB
:108BF000704700BFD0B50C4B002206460F46FFF76A
:108C0000EFFCFFF787FF0446FFF770FC074B0022DD
:108C1000FFF7E6FC02460B4630463946FFF728FBD5
:108C2000FFF778FF2146D0BD0000F03D0000F04185
:108C300010B50C4641690369826986B001F26C7116
:108C40000491016803914168029181680191C168B2
:108C50000091074903EB43030B44064902EB420230
:108C60000A4420460449FDF7DBFF204606B010BD4C
:108C70003EB70B0029B70B0009B70B0000230146D4
:108C80001A46184600F09EBF002100F003BF0A22DA
:108C9000002100F08DBF000038B50B4B1D68EB6B59
:108CA000044653B92420FDF7A3FF0246E86320B928
:108CB000064B07483921FDF7DBFFE96B2046BDE88D
:108CC0003840FDF7F5BF00BFCCE2032062B70B00D0
:108CD00079B70B000A44914200F1FF3300D170478D
:108CE00010B511F8014B03F8014F9142F9D110BDB5
:108CF000884210B501EB020402D98442234607D80A
:108D0000431EA14208D011F8012B03F8012FF8E708
:108D1000024401468A4200D110BD13F8014D02F809
:108D2000014DF7E702440346934200D1704703F830
:108D3000011BF9E738B5104B1D68AB6B0446B3B99E
:108D40001820FDF755FF0246A86320B90B4B0C48CD
:108D50004221FDF78DFF0B490B4BC0E900130B4B74
:108D600083600B23838100210120C2E90401AB6BE6
:108D700000221C615A6138BDCCE2032062B70B00AF
:108D8000D2B70B000E33CDAB34126DE6ECDE05002E
:108D900010F8012B11F8013B012A28BF9A42F7D0A5
:108DA000D01A7047034611F8012B03F8012B002A53
:108DB000F9D17047024B0146186800F003B800BFB4
:108DC000CCE2032037B5044608460D4600F00FF804
:108DD000421C114620460192FDF73AFF044618B1A5
:108DE000019A2946FFF776FF204603B030BD0346BF
:108DF00013F8012B002AFBD1181A0138704710B55F
:108E00007AB103460139841813F8010B11F8012FC8
:108E1000904201D1A34201D1801A10BD0028F3D1A4
:108E2000FAE71046F9E710B50139034632B111F8F7
:108E3000014F03F8014B013A002CF7D11A440021ED
:108E4000934200D110BD03F8011BF9E770B5044649
:108E50000D4645EC104B164601F00EFE51EC100B82
:108E60007EB1C5F30A53C3F16B03002B09DD1B056B
:108E700003F17F55002405F5401522462B46FFF7E8
:108E8000AFFB70BD000000002DE9F04F2DED028B0F
:108E90009DB01F4600231893A24B13921B680593A5
:108EA000044618468846FFF7A2FF4FF0000A054621
:108EB0004FF0000BCDF85C80179B1A782B2A4ED010
:108EC0003BD80D2A34D8082A34D8002A3ED00023B3
:108ED0000A93179E3378302B40F0B080737803F0FC
:108EE000DF03582B68D10A9B019318AB02970093BC
:108EF0008D4A19AB17A9204600F02EFF10F0070786
:108F0000054605D0062F2CD10136002317960A936B
:108F1000139B002B40F090850A9BEBB152460BF15E
:108F2000004343EC102B1DB0BDEC028BBDE8F08F6D
:108F3000202ACCD101331793BEE72D2AC7D10122B5
:108F40000A925A1C17925B78002BC2D1139BCDF862
:108F50005C80002B40F06E8552465B46E1E70022C4
:108F6000EEE7189A3AB135211AA801F090FE189947
:108F7000204601F04FFA013F042F06D8DFE807F042
:108F80000A0314170A00DDE91AAB2807C0D54BF015
:108F9000004BBDE7DDE91AA3199A23F4801302F20E
:108FA000334243EA025BF0E7DFF880B1EDE76FF0B0
:108FB000004B4FF0FF3AE8E7179B5A1C17925B787B
:108FC000302BF9D0002BA3D001234FF000090493DC
:108FD000179B0893CDF81C904F460A2217980678E5
:108FE000A6F13003D9B209292AD905992A46FFF7F3
:108FF00006FF98B3002032463D4605900346652A99
:1090000001D0452A18D11DB9049A02439ED00025EB
:10901000DDF85C8008F10102179298F801202B2AF4
:1090200075D02D2A7BD04FF0000CA2F13001092918
:1090300040F28280CDF85C8000269DE00023C4E7EA
:10904000082FD8BF079900F10100DABF02FB0133F6
:10905000079302FB093901371790BFE7179B5A198D
:1090600017925A5D002F37D005903D46A2F130038C
:10907000092B12D90123C2E7179B5A1C17925A7861
:109080000130302AF8D0A2F13103082B00F2D98444
:10909000179B0590002008930546303A00F1010324
:1090A00014D00599194405912B4600EB050E0A21B1
:1090B000734513D12B18082B05F1010505441CDC61
:1090C00007990A2303FB012307930023179A511CD6
:1090D000179152781846C9E73846D2E7082B04DCC6
:1090E000079E4E4307960133E2E703F1010CBCF102
:1090F000100FD8BF01FB09F9F5E7102DDCBF0A23DB
:1091000003FB0929E1E70023059301237CE74FF0E6
:10911000000C08F10202179298F8022085E74FF040
:10912000010CF6E700BA0B0038B80B000000F07F26
:10913000179A511C17915278302AF9D0A2F13101B7
:1091400008293FF679AFA2F1300E179A0692179AC6
:10915000511C17915278A2F13006092E37D9069E7C
:10916000891B082944F61F6602DC7645A8BF7646AF
:10917000BCF1000F00D07642002D4DD1049901437F
:109180007FF4C6AE002B7FF4E1AE692A27D024DC41
:10919000492A24D04E2A7FF4D9AE9F4917A801F05E
:1091A00033F800283FF4D2AE179B1B78282B2DD123
:1091B0009A491AAA17A801F03BF8052826D11B9B4B
:1091C000DDF868A043F0FF4B4BF4E00BA0E60A216A
:1091D00001FB0E2EAEF1300EB9E76E2ADBE79049A7
:1091E00017A801F011F800283FF4B0AE179B8D4985
:1091F000013B17A8179301F007F810B9179B01332B
:109200001793DFF830B24FF0000A81E6864801F08C
:1092100093FD5BEC10AB7BE6059B0798F31A002FE0
:1092200008BF2F46102D0693A846A8BF4FF0100880
:10923000FFF75CF9092D82468B4613DD7B4B03EB70
:10924000C80353E91223FFF7CBF9824648468B4601
:10925000FFF74CF902460B4650465946FFF70AF80D
:1092600082468B460F2D38DC069B002B3FF450AE18
:1092700024DD162B0BDC6D4901EBC301D1E90001A4
:1092800052465B46FFF7ACF982468B4640E6069AAB
:10929000C5F12503934220DB644CC5F10F0504EBB7
:1092A000C50152465B46D1E90001FFF799F9069BDB
:1092B0005D1B04EBC504D4E90023E3E7069B1633EA
:1092C0000BDB059B9E1B594B03EBC606D6E900231F
:1092D00050465946FFF7AEFAD6E7069BA5EB0808BD
:1092E0009844B8F1000F74DD18F00F030AD04F490D
:1092F00001EBC30152465B46D1E90001FFF770F96B
:1093000082468B4638F00F084FD0B8F59A7F22DDA1
:1093100000252E46079505952223DFF818B1236016
:109320004FF0000A079B002B3FF4F2AD189920463E
:1093300001F070F80599204601F06CF8314620469E
:1093400001F068F80799204601F064F829462046A4
:1093500001F060F8DCE5364B049300234FEA28184F
:10936000504659469946B8F1010F21DC0BB18246AF
:109370008B462F4BABF1547B03EBC90952465B463E
:10938000D9E90001FFF72CF92A4B0A460B402A497C
:109390008B428246BCD8A1F580118B4286BFDFF894
:1093A0009CB04FF0FF3A02F1547B0023049384E019
:1093B00018F0010F05D0049BD3E90023FFF710F943
:1093C0000123049A083209F101094FEA680804925E
:1093D000C9E7EAD0C8F1000818F00F020AD0134B11
:1093E00003EBC20350465946D3E90023FFF722FAA4
:1093F00082468B465FEA2818D7D0B8F11F0F1FDDD1
:1094000000252E460795059522234FF0000A4FF0C0
:10941000000B236086E700BF34B80B004CB80B008C
:109420002BB80B002EB80B0028B70B0098BA0B0016
:1094300070BA0B000000F07F0000A07CFFFFEF7F00
:1094400018F0100318BF6A23DFF8AC93049350465A
:109450005946002318F0010F04D0D9E90023FFF783
:10946000BFF801235FEA680809F10809F2D10BB1DE
:1094700082468B46049BC3B1CBF30A52C2F16B0305
:10948000002B594611DD1F2B40F32481342BDEBF06
:10949000C2F14B024FF0FF3303FA02F24FF0000A21
:1094A000CCBF4FF05C7B02EA010B00220023504648
:1094B0005946FFF7FDFA0028A2D1079B00930899AF
:1094C0002B463A46204601F00DF8079000283FF45D
:1094D0001FAF059B9E1B069B002BB4BF334600238A
:1094E0000C93069B002523EAE37312932E46079BF9
:1094F0002046596800F04EFF059000283FF40CAF5D
:10950000079B1A69023203F10C0192000C30FFF73D
:10951000E1FB4BEC10AB1AAA19A9204601F028FB7D
:109520004BEC18AB189000283FF4F6AE0121204612
:1095300001F072F8064600283FF4EEAE199B04993C
:10954000002BABBF0C9A129A129FDDF83090ACBF83
:1095500003EB0209D71A1A9AA3EB01089044A14B16
:1095600008F1FF389845C2F1360280F2C780A3EBBC
:1095700008031F2BA2EB03024FF0010100F3B1809F
:1095800001FA03F30D930023089309EB0208049BEF
:10959000C14517441F444B46A8BF4346BB42A8BF22
:1095A0003B46002BC2BFA8EB0308FF1AA9EB030937
:1095B0000C9B002B17DD31461A46204601F0ECF8D3
:1095C000064600283FF4A8AE0146189A204601F04E
:1095D00039F80B9000283FF49FAE1899204600F010
:1095E00019FF0B9B1893B8F1000F00F38C80069BBA
:1095F000002B08DD129A0599204601F0CDF8059060
:1096000000283FF489AE002F08DD05993A46204630
:1096100001F01CF9059000283FF47EAEB9F1000F6F
:1096200008DD31464A46204601F010F9064600287A
:109630003FF472AE059A1899204601F093F9054659
:1096400000283FF469AEC3680B930023C360314622
:1096500001F06CF9002860DA0B9B53EA0A0340F032
:109660008280CBF31303002B7DD12BF000431B0D25
:109670001B05B3F1D66F76D96B6913B92B69012B32
:1096800071DD29460122204601F0E0F83146054609
:1096900001F04CF9002866DD0499534A5B46002925
:1096A00000F0818002EA0B01B1F1D66F7BDCB1F1F1
:1096B0005C7F7FF7A9AE4D4B504659460022FEF71E
:1096C0008FFF0B46034308BF222382468B4608BF09
:1096D00023602BE64FF0FF3202FA03F303EA0A0A93
:1096E000E3E6C8F17F4808F57F0808F57B4808F1F4
:1096F000E20801FA08F308930D9146E70023089366
:1097000001230D9341E718994246204601F09EF847
:10971000189000287FF46BAFFEE55F466ED10B9A80
:10972000CBF3130342B3324A934228D1049B5146F0
:10973000EBB12D4B3B40B3F1D46F4FF0FF3219D852
:109740001B0DC3F16B0302FA03F3994217D1294BA6
:109750009F4202D101313FF4DFAD234B3B4003F583
:10976000801B4FF0000A049B002BA4D1DEE54FF0D4
:10977000FF33EAE71346E8E753EA0A038CD0089B75
:10978000DBB13B42EFD00B9B049A50465946C3B124
:10979000FFF75CFB02460B4651EC180BFEF76AFD27
:1097A00082468B46DFE71340A3F580136FEA135B15
:1097B0006FEA0B5B4FF0FF3AD5E70D9B13EA0A0FF8
:1097C000E0E7FFF743FB02460B4651EC180BFEF7B0
:1097D0004FFD0022002382468B46FFF769F90028DF
:1097E000C1D011E602FCFFFF0000F07F00005039FD
:1097F000FFFF0F00FFFFEF7F60B80B0031462846E8
:1098000001F012FA59EC108B10EE100A00224FF002
:1098100080434946FFF760F900287AD00B9B002B64
:109820004AD0954B0022CDE90823DFF84C924FF047
:109830000008924B3B400D930D9A914B9A4240F099
:10984000B080DDE90801A7F1547B4BEC10ABCDE90A
:10985000080101F011F9DDE9080153EC102BFEF7C6
:10986000BFFE52465B46FEF705FD0B468349854A1F
:1098700019409142824660D918EE903A02F1547232
:10988000934204D118EE103A01333FF445ADDFF8AE
:1098900000B24FF0FF3A1899204600F0BBFD059941
:1098A000204600F0B7FD3146204600F0B3FD2946C2
:1098B000204600F0AFFD1AE6BAF1000F1BD1CBF342
:1098C0001303F3B96C4B002240464946FFF7FAF800
:1098D000D0B9404649466C4B0022FEF781FE8046D7
:1098E000894609F10043CDF850801593DDE9142332
:1098F000CDE908239DE7BAF1010F02D1002F3FF413
:1099000083AD624B00228EE7DFF87C914FF00008B8
:10991000E7E75D4B404649460022FEF761FE0B9BA0
:109920008046894633B901F100430E900F93DDE97B
:109930000E23DDE7CDE90E89F9E703F1547B049BA3
:10994000002BA8D12BF000430D9A1B0D1B059A424A
:10995000A1D14046494601F005FAFEF713FE024642
:109960000B4640464946FEF783FC0B9ACBF31303A4
:1099700043EA0A0313438046894655D036A3D3E908
:109980000023FFF79FF800287FF4D0AC34A3D3E97D
:10999000002340464946FFF7B3F800283FF47BAF69
:1099A000C4E4049B33B30D9BB3F1D46F22D82EA330
:1099B000D3E9002340464946FFF78EF8A0B1494657
:1099C0004046FFF7A7F8012838BF0120FEF78EFDBB
:1099D0000B9B8046894623BB01F1004310901193F5
:1099E000DDE91023CDE90823099B0D9A03F1D66325
:1099F0009B1A0993DDE90801B0EE480AF0EE680A07
:109A0000CDE9080101F038F8DDE9080153EC102B2D
:109A1000FEF7E6FD53EC182BFEF72CFC82468B4636
:109A20008DE7CDE91089DBE711A3D3E90023FFF728
:109A300049F8B2E700230A93139A179B1360FFF7C4
:109A40006BBA652A3FF45FAB452A3FF45CAB012358
:109A5000FFF794BBAFF300809535A094FFFFDF3F85
:109A600035E5AF350000E03F0000C0FFFFFFDF41FC
:109A70009535A094FFFFCF3F0000F03F0000F07F3E
:109A80000000E07FFFFF9F7C0000E03F0000F0BF90
:109A9000FFFFEF7F0A4601460248034B0068FFF7CD
:109AA000F3B900BFCCE2032038E30320012B2DE9FA
:109AB000F04701D0242B06D9FDF7D2F81623036016
:109AC0000020BDE8F087DFF8E4C00D462E4615F80B
:109AD000014B14F80C7017F00807F7D12D2C32D178
