:02000002D0002C
:1040000000400D00F8C10D00000006000D00050184
:084010000401DB0700000000C1
:044018000CAB0D00E0
:1040200009480A49884208B505D0094A824202D0A7
:10403000121A04F017FE0748074A0021121A04F06A
:1040400039FE014808BD00BF80E1032024BF0D00F8
:1040500028E4032028E40320F0E7032070B5074E8E
:10406000074C03F0B9FFA41BA4080025A54200D10A
:1040700070BD56F8043B98470135F7E7ECB60D00E4
:1040800018B70D0000F016BF08B500F009FEBDE836
:10409000084003F063BF02F06DBD02F06BBD02F09B
:1040A00071BD000008B5034A00210C2002F03AFC63
:1040B000FEE700BF75660D000078B0FA80F0400999
:1040C0007047012303707047014B01221A7070473B
:1040D000C9E5032003681847012A03D0022A03D048
:1040E000002070470160FBE70B680360F8E7000001
:1040F00008B5044903F013FC18B1034B03221A70EE
:10410000012008BD5BAB0D0068E50320436913B1D6
:1041100083690C301847704710B5034B03600446A1
:1041200001F0EEFB204610BD58AF0D0010B504465F
:10413000FFF7F2FF2046382104F059F8204610BD61
:1041400010B5034B0360044601F0DEF9204610BDB4
:1041500080AF0D0010B50446FFF7F2FF2046102196
:1041600004F045F8204610BD13B50021044608466A
:1041700002F008FA0023204601A9019302F01AFA7E
:10418000019C0CB1012323710021012002F0FAF9F6
:104190002CB1236820469B6898470023237102B006
:1041A00010BD10B50446006808B102F0EBFC2046D3
:1041B00010BD0023042202F02DBC00001FB5104BDF
:1041C000104A1B781278104913438DF800300022F2
:1041D0003C2302A802F030FF039C7CB16368013BE2
:1041E00063605BB9236820469B689847A368013BDE
:1041F000A3601BB923682046DB68984704B010BD54
:1042000038E4032039E403205DAB0D0010B583686A
:10421000044613B1032201469847204610BD000012
:1042200037B5134B036004468068C8B100256FF0B2
:104230000043CDE9003502212B462A4602F0C2F99F
:10424000A068294602F0F6F9237903F0FF0513B1BF
:1042500002F090F9F8E7A068294602F0A3F9A560FA
:1042600004F10C00FFF7D2FF204603B030BD00BFC1
:1042700044AF0D0010B50446FFF7D2FF20461C21C5
:1042800003F0B5FF204610BD0246014802F0CFBD45
:10429000036E0D0007B508220023ADF800204FF48F
:1042A0007A710122019241436A461846ADF8023004
:1042B00002F000FC03B05DF804FB07B580680B4614
:1042C000002140B1CDE900210A46032102F07AF92C
:1042D000B0FA80F0400903B05DF804FB37B504681C
:1042E0009DF818508DF800308DF80450E4683C2398
:1042F000A04703B030BD000037B51A4D0C4659B980
:104300006B7A1BB3184B8DF800101B78174A1849AD
:104310001848FFF7E3FF19E0084604F07EFCC838B0
:1043200001286B7A14D84BB100238DF800300E4B66
:10433000114A1B7811490F48FFF7D0FF104A00239C
:104340001360104A012111700F4A137003B030BD81
:10435000002BFBD000238DF80030034B22461B7846
:10436000D5E700BF6CE5032039E403205FAB0D0007
:1043700067AB0D00ECE4032074AB0D0086AB0D00C1
:1043800040E4032058E4032079E4032037B51649BC
:10439000054603F0C4FA044688B1144B144A154983
:1043A000154801245C7200238DF80030134B1B78F4
:1043B000FFF794FF124B20461C7003B030BD11492B
:1043C000284603F0ACFA0028F7D0084B0E4A5C727E
:1043D0000A4B8DF800401B7806490748FFF77EFF1F
:1043E000074B01201870E8E75BAB0D006CE503207C
:1043F0008CAB0D00AFAB0D00ECE4032039E40320DF
:1044000088E503209DAB0D009FAB0D0037B51C491F
:10441000054603F084FA044600B31A4C0123606891
:104420006370FFF737FF636817484FF47A716FF0D6
:1044300000425943FFF741FF02F004FB48B100235B
:104440008DF80030114B124A1B7812491248FFF7C1
:1044500045FF124B0120187003B030BD10492846AB
:1044600003F05DFA0028F7D0064B5C7002F0EAFA20
:104470000028EED0054B8DF800401B78094AE4E790
:104480005BAB0D006CE503209CE4032039E40320C2
:10449000B4AB0D00AFAB0D00ECE4032088E50320C6
:1044A0009DAB0D00C9AB0D0010B5C4B000680A2269
:1044B00003A905F035FBB0F5966F22D8124C606069
:1044C000FFF7E8FE636811484FF47A7159436FF0C3
:1044D0000042FFF7F2FE63680D4A4FF4807104A8B2
:1044E00002F068FB00238DF800300A4B0A491B7864
:1044F0000A4804AAFFF7F2FE094B0120187044B0E5
:1045000010BD0020FBE700BF6CE503209CE4032006
:10451000DDAB0D0039E40320F6AB0D00ECE4032025
:1045200088E5032007B502F08DFA48B100238DF825
:1045300000300C4B0C4A1B780C490D48FFF7CEFE9F
:104540000C4A0D487823536040F201131380002376
:104550005372937201211C2303B05DF804EB01F048
:104560008EB800BF39E4032001AC0D00AFAB0D00E5
:10457000ECE403206CE503207CE4032007B502F0A3
:1045800061FA48B100238DF800300C4B0C4A1B78BF
:104590000C490D48FFF7A2FE0C4A0D4B93604FF0FB
:1045A0008043D3600B4B13610B480C4B536150217C
:1045B000182303B05DF804EB01F061B839E403207F
:1045C00019AC0D00AFAB0D00ECE4032040E4032078
:1045D0000000F0410000B4427CE403200000A04051
:1045E00010B5124C237A012B04D902F02BFAD8B162
:1045F000012323726368B3F5966F84BF4FF416737B
:104600006360637A012B84BF00236372A37A012B5A
:1046100084BF0023A3726369FF2B84BF00236361FF
:10462000034B01221A7010BD2072E3E76CE50320F2
:1046300088E50320224B93ED037AB5EEC07AF1EEC4
:1046400010FAF3EE047A04D4B4EEE77AF1EE10FA3D
:1046500001DD1C4ADA6093ED027AB4EEE77AF1EEFE
:1046600010FA06D4DFED186AB4EEE67AF1EE10FA2D
:1046700001DD164A9A6093ED057AB5EEC07AF1EE47
:1046800010FA06D4DFED126AB4EEE67AF1EE10FA13
:1046900001DD104A5A6193ED047AB4EEE77AF1EE47
:1046A00010FA06D4DFED087AB4EEE77AF1EE10FAEC
:1046B00001DD094A1A61094B01221A70704700BFD7
:1046C00040E40320000040400000B44200000442E7
:1046D000000048420000504100007C4258E40320A2
:1046E00008B50121052003F010FD0021052003F08D
:1046F0000CFD024B00221A7008BD00BFC9E5032063
:1047000010B5134CA0B02369E068049303F0DCFEFD
:10471000CDE90201A06803F0D7FE0E4ACDE9000101
:10472000642107A802F046FA00238DF800300A4BF6
:104730000A491B780A4807AAFFF7D0FD094B012256
:104740001A7001F09FFF084B186020B010BD00BF29
:1047500044E5032030AC0D0039E4032065AC0D00C6
:10476000ECE4032079E40320CCE5032038B50B4DBD
:10477000044601F087FF2B68C01AB0F57A7F0CD988
:10478000A4B2204603F0DAFCB0FA80F149092046D1
:1047900003F0BBFC01F076FF286038BD3CE4032049
:1047A00030B5114D114C12492A7820788DB01A235A
:1047B00003FB0212009203FB00130E4A282102A8F9
:1047C00002F0F8F92B78237002F03CF948B100238D
:1047D0008DF80030084B09491B78094802AAFFF7F9
:1047E0007DFD0DB030BD00BF68E50320E8E4032087
:1047F00080E103207BAC0D0039E4032089AC0D007F
:10480000ECE4032013B5174CA06803F05DFE164AD4
:10481000CDE900011821154802F0CCF9E06803F059
:1048200053FE134ACDE900011821124802F0C2F9E3
:10483000206903F049FE104ACDE9000118210F4814
:1048400002F0B8F9606903F03FFE0D4ACDE90001BE
:1048500018210C4802F0AEF90B4B01221A7002B07D
:1048600010BD00BF40E403209AAC0D00B1E5032069
:10487000ABAC0D00D0E40320BCAC0D0099E50320E7
:10488000D0AC0D00B8E4032058E4032000B589B093
:10489000039003F06FF80D4B039983ED020A04A80F
:1048A00003F032F800238DF80030094B049A1B788E
:1048B00008490948FFF712FD04A802F0B7FFFFF707
:1048C000A1FF012009B05DF804FB00BF40E4032014
:1048D00039E40320E5AC0D00ECE4032000B589B019
:1048E000039003F047F80D4B039983ED030A04A8E6
:1048F00003F00AF800238DF80030094B049A1B7866
:1049000008490948FFF7EAFC04A802F08FFFFFF707
:1049100079FF012009B05DF804FB00BF40E40320EB
:1049200039E4032005AD0D00ECE4032000B589B0A7
:10493000039003F01FF80D4B039983ED040A04A8BC
:1049400002F0E2FF00238DF80030094B049A1B7837
:1049500008490948FFF7C2FC04A802F067FFFFF707
:1049600051FF012009B05DF804FB00BF40E40320C3
:1049700039E4032025AD0D00ECE4032000B589B037
:10498000039002F0F7FF0D4B039983ED050A04A88D
:1049900002F0BAFF00238DF80030094B049A1B780F
:1049A00008490948FFF79AFC04A802F03FFFFFF707
:1049B00029FF012009B05DF804FB00BF40E403209B
:1049C00039E4032042AD0D00ECE4032030B585B09E
:1049D0000D4600226946009201F0B4FFB0B9009C78
:1049E0000CB1236923B90A4A00210A2001F09AFF79
:1049F0000023ADF806300C23ADF8043004230393F4
:104A00000295236901AA01212046984705B030BDCF
:104A100075660D0030B5114D0FCD89B001AC0FC4D6
:104A200095E8070084E8070069460720FFF7CEFFF6
:104A30000028A8BF00980A4B0A4A187408ABC0B2F5
:104A400003EB8000102150F81C3C074802F0B2F83C
:104A5000064B01221A7009B030BD00BF94AF0D00A3
:104A60006CE50320BCB10D0059E4032088E5032068
:104A7000F0B52DED028B774B97B006AA03F1100528
:104A8000174618685968144603C40833AB422246D7
:104A9000F7D118689B882060A3802A2200216E4DE0
:104AA0000DF12E0004F006F900246C482C7000F083
:104AB0000FFDB5EE400AF1EE10FA00F0AA8067484B
:104AC00000F006FD10EE100A85ED020A03F0FCFC72
:104AD000634ACDE900011021624802F06BF85F489B
:104AE00000F004FD10EE100A85ED030A03F0ECFC63
:104AF0005D4ACDE9000110215C4802F05BF805A990
:104B00000320FFF763FF002840F09E80BDF81430BB
:104B100007EE903AFBEECC7AFDEEE77A544E554A1A
:104B20005548C5ED047A17EE903A102102F042F88C
:104B300095ED028AD6ED037AB4EEE78AF1EE10FA2B
:104B400040F18580012417EE900A747003F0BCFCDC
:104B5000CDE9020118EE100A03F0B6FC474ACDE990
:104B600000014021384602F025F895ED028AD6ED85
:104B7000027AB4EEE78AF1EE10FA12DD012417EEA4
:104B8000900A347003F0A0FCCDE9020118EE100A7F
:104B900003F09AFC3A4ACDE900014021384602F080
:104BA00009F895ED038AD6ED057AB4EEE78AF1EEC1
:104BB00010FA12D5012417EE900AF47003F084FC69
:104BC000CDE9020118EE100A03F07EFC2D4ACDE972
:104BD00000014021384601F0EDFF95ED038AD6ED46
:104BE000047AB4EEE78AF1EE10FA12DD012417EE32
:104BF000900AB47003F068FCCDE9020118EE100AC7
:104C000003F062FC204ACDE900014021384601F062
:104C1000D1FF0126FFF7FEFE2E7003F048F81B4B74
:104C200068601E701A4B1E704CB100238DF8003066
:104C3000184B19491B7819483A46FFF74FFB204695
:104C400017B0BDEC028BF0BDFFEE007A64E70024E4
:104C50008BE700BFB0AF0D0044E503205CE5032007
:104C60005FAD0D0089E5032067AD0D008CE40320E6
:104C700040E403206FAD0D0069E4032075AD0D0025
:104C800092AD0D00B0AD0D00D1AD0D0058E5032083
:104C900058E4032039E40320F3AD0D00ECE40320D5
:104CA000F7B5704C704E2378704D013B042B52D8F1
:104CB000DFE803F0B403193180006D4B5B7A2BB150
:104CC0006C4B1B78022B01D0FFF76AFD02F0EFFF5F
:104CD0004FF4966390FBF3F202FB1303002B3AD1DF
:104CE0000323237037E0624B5B7A2BB1614B1B7857
:104CF000032B01D0FFF754FDFFF7BAFE014628B1A0
:104D00000123337101232B700423EAE7307107205C
:104D100003F0FBF9F6E7564B5B7A2BB1554B1B784A
:104D2000042B01D0FFF73CFD01F08CFE68B102F0CE
:104D3000CFFF0C2805D101F085FE10B1002001F055
:104D4000A1FEFFF7DDFC0523CBE70123237001F073
:104D500099FC494B1860494801F05CFB484B1B78B3
:104D60000BB1FFF7BDFC337913B10720FFF7FEFC51
:104D7000444C23783BB11C233D4A4348012100F0B9
:104D80007EFC002323702B783BB11823364A3E4823
:104D9000502100F074FC00232B703C4C23783BB175
:104DA00014233B4A3848A02100F069FC00232370FB
:104DB00003B0F0BD2E4B5B7A2BB12E4B1B78052B2D
:104DC00001D0FFF7EDFC334B1B7853B902F06FFFB6
:104DD0004FF4966390FBF3F202FB13030BB1022333
:104DE0007FE701F04FFC2C4B1B68C01A4AF6C873D2
:104DF0009842B0D901F046FC00238DF800301E4FD8
:104E0000264B274A1B78274938602748FFF766FA60
:104E10000123237001F036FC38609CE7154B1B78AA
:104E2000012B01D0FFF7BCFC01F02CFC124B1B68DE
:104E300003F5922303F5787383428CD201F002FECE
:104E400048B100238DF80030144B184A1B781849DC
:104E50001548FFF743FA4FF4FA6001F0EBFE02F059
:104E6000ABFD78E768E5032040E4032058E4032025
:104E70006CE50320E8E4032024E5032028E5032073
:104E8000C9E5032088E503207CE4032058E50320DE
:104E900044E5032079E40320CCE5032039E4032032
:104EA0003CB40D00FAAD0D00ECE4032013AE0D0090
:104EB00086AB0D00F0B50021BBB0082003F014F95B
:104EC0000121052003F010F90121072003F00CF95E
:104ED000FFF706FC0023009301224FF0FF338849BF
:104EE000082002F0EFFA874B0AAA03F110051646D4
:104EF00018685968144603C40833AB422246F7D1F8
:104F000019889B78A370804F21802D2200210DF1FC
:104F10003B00002403F0CEFE02A83C7001F09AFD95
:104F200023467D221AA902A802F00BFD2346224641
:104F3000CDE900447549764D1AA801F09BFD7549ED
:104F40007548FFF736F975497548FFF732F9754925
:104F50007548FFF72EF975497548FFF72AF9754925
:104F60007548FFF726F975497548FFF722F9754925
:104F70007548FFF71EF975497548FFF71AF9754925
:104F80007548FFF716F9234674497548022201F067
:104F900041FD234601227349734801F03BFD7349EB
:104FA0007348FFF771F973497348FFF76DF9734957
:104FB0007348FFF769F973497348FFF765F9734957
:104FC0007348FFF761F973497348FFF75DF9734957
:104FD0007348FFF759F973496348FFF755F9724869
:104FE00001F012F92146704801F04BFA02F05FFE21
:104FF0000246C31706A802F057FD8DF800402B7833
:10500000069A6A496A48FFF769F906A802F00EFC99
:105010006848442100F0C5F93C462F4648B9664926
:10502000304603F07DFE0123237001F02BFB634B20
:105030001860634800F096FA0123614806AA00212F
:1050400000F0D2FA9DF81830052B26D05C4800F00D
:1050500093FA5C4A5A480423002100F010FB012314
:10506000574806AA002100F0BFFA9DF81830052B1A
:105070000ED001232370544DFFF7B2FAFFF7DAFA8E
:105080006B782BB301F0DEFCA0B901F0D3FCF9E79B
:10509000FFF748FAFFF772FAEDE74B4A48481C233E
:1050A000012100F0A1FA494A45481823502100F097
:1050B0009BFAE0E701F0C6FC6868FFF7EBF86B6865
:1050C00043484FF47A716FF000425943FFF7F5F807
:1050D000FFF7CEFCFFF796FB6B7A43B100238DF808
:1050E00000303B783B4932483246FFF7F7F82378E7
:1050F0000BB90223237002A802F098FB3BB0F0BD6D
:10510000C9400D00F0AF0D0068E50320F9420D0025
:1051100039E4032030B00D0027AE0D0089E50320EF
:105120002FAE0D008CE403203BAE0D00B1E5032053
:1051300044AE0D00D0E4032056AE0D0099E50320E7
:1051400068AE0D00B8E4032077AE0D0069E40320DB
:1051500086AE0D0059E403208EAE0D0070E50320ED
:105160009DAE0D006DE50320BBAB0D00F1400D00C1
:10517000ACAE0D008D430D00B8AE0D008D480D0096
:10518000C5AE0D00DD480D00D6AE0D007D490D0009
:10519000E7AE0D002D490D00FCAE0D00A9440D0039
:1051A000F6AB0D000D440D0028E5032010AF0D00F7
:1051B000ECE403205CE5032015AF0D0024E503209B
:1051C0007CE4032038B00D006CE5032040E40320AC
:1051D0009CE4032032AF0D00F0B5474B474C484EDE
:1051E00001271F70474B022289B01A7002F026FF78
:1051F00000231A4643F2710102F028FF02F01EFF5D
:1052000000231A460F2102F029FF00253E4BA36020
:105210002560A580A571384601F0A6FB32463B49C2
:10522000204602F0DFFF2946384601F0ADFB394643
:10523000042001F007FA3648364C00F08FF802F0EF
:10524000A9FF2B4601464FF40052204600F080F99A
:10525000314B236032463149204602F0C3FF02F051
:1052600099FF2F4C0146204600F0D6FE20462D4CDB
:105270002D49324602F0B6FF2C494FF40062204619
:1052800000F066FC2A4B236032462A49204602F091
:10529000A9FF294B049304AF284C294B236097E8BE
:1052A000030002AA04F10C0382E8030093E8030060
:1052B00087E8030092E8030083E80300214B636161
:1052C000A3690793204BA361204A25712346A5605B
:1052D0004FF47A71CDE9005504F10800069501F00C
:1052E00059F93846FEF792FF19493246204602F036
:1052F00079FF09B0F0BD00BF39E403202CE403209E
:1053000028E4032038E403200000FFFFA3410D0040
:105310005CE503207CE4032080AF0D0041410D00DB
:1053200028E50320ECE40320A35D0D0000F4032036
:1053300058AF0D0019410D00BD410D009CE4032044
:1053400044AF0D00D9400D00D5400D0069410D005E
:1053500021420D000368C9B29B681847704738B5F1
:1053600005460C4602F016FF297802F089F802F093
:1053700011FF210AFFF7EEFF02F00CFFE1B2FFF789
:10538000E9FF02F007FFBDE8384002F084B808B535
:1053900043F2A201FFF7E3FFBDE808400A2001F055
:1053A00049BC38B504460D4602F0F4FE02F036F86A
:1053B00020462570FFF7EBFF012038BD0A44FF208F
:1053C00091420ED011F8013B5840082310F0800F95
:1053D0004FEA400018BF80F03100013BC0B2F5D168
:1053E000EEE770470000000073B54FF4105105461A
:1053F000FFF7B5FF4FF4FA7001F01CFC02F0CAFE93
:105400002978062202F039F802F0C4FE03681B690D
:10541000984706284BD16E46044602F0BBFE03684F
:105420005B699847013C14F0FF0406F8010B6946DC
:10543000F3D102222846FFF7C1FF9DF802608642A1
:1054400035D102220DF103012846FFF7B7FF9DF881
:10545000056086422BD1BDF80000BDF8034040BA7C
:1054600080B203F00FF818A3D3E9002303F084F807
:1054700011A3D3E9002303F0A9F9114B002202F094
:10548000C3FE03F033FBA86060BA80B202F0FAFFFB
:105490000C4B002203F070F807A3D3E9002303F0BC
:1054A00095F903F023FB6860012002B070BD002075
:1054B000FBE700BFAFF3008000000000E0FFEF401B
:1054C00000804640000059400000000000E06540B8
:1054D00010B50446FFF788FF10B194ED020A10BD25
:1054E0009FED010AFBE700BF0000C07F10B5044636
:1054F000FFF77AFF10B194ED010A10BD9FED010A8C
:10550000FBE700BF0000C07F704710B510210446C4
:1055100002F06DFE204610BD0368C9B29B681847B3
:105520000EB410B58DB00FAA016852F8044B039267
:1055300000232020CDE90403CDE900421E2004AA67
:1055400001F0F8F90DB0BDE8104003B0704700005D
:1055500030B5034DC0E90223C0E9005130BD00BFA2
:1055600070B00D00406801F059BF10B504460068E6
:1055700001F09DFF204610BD2DE9F0418AB00446A0
:105580004068019001F08AFF1E22002102A8A7684E
:1055900003F090FB0026EFB123681E2FB84628BF0A
:1055A0004FF01E08DD6802AA434631462046A84750
:1055B000054658B90A480B493246FFF7B1FF01A822
:1055C000FFF7D3FF28460AB0BDE8F081A7EB080734
:1055D0004644E0E701A8FFF7C8FF0125F2E700BF56
:1055E00014E603203CB00D002DE9F7430446406863
:1055F00001900D4616461F4601F050FFA7B1E16825
:10560000606841F0500101F03FFF290A6068FFF730
:1056100083FF29466068FFF77FFF6068002101F083
:1056200036FF48B1002400E0012401A8FFF79DFFE8
:10563000204603B0BDE8F083202F217B6068B84688
:1056400028BF4FF020080123424641F0500101F0ED
:1056500002FF02F09FFD03681B6998474045E1DBAC
:1056600006EB080902F096FD03685B69984706F8A7
:10567000010B4E45F6D14544A7EB0807BEE72DE9DF
:10568000F74F0446406801900E4690461D4601F0D3
:1056900005FF4FF00109B9F1000F2AD04DB3E168C1
:1056A000606841F0500101F0EFFE310A6068FFF7D9
:1056B00033FF60683146FFF72FFFA5F11E0A47460A
:1056C000A6EB080B606817F8011B0368013D9B6897
:1056D000984755450BEB0706B84601D0002DF1D190
:1056E0006068012101F0D3FE0028D7D04FF00009F7
:1056F000D1E701A8FFF739FF484603B0BDE8F08FB6
:105700002DE9F0438BB00E46154680464068019067
:105710001C4601F0C3FEAE4229D2264425448CB17A
:105720001E2C2746D8F8003028BF1E27F61BD3F8BA
:10573000089002AA3B4631464046ED1BC84748B98F
:10574000002400E0012401A8FFF70FFF20460BB062
:10575000BDE8F083D8F8003002AAD3F80C902946AF
:105760003B464046C8470028EAD0E41BD7E7E9D9C2
:10577000002CE7D0D8F800301E2C274628BF1E2763
:10578000D3F8089002AA3B4631464046C847002855
:10579000D6D0D8F8003002AAD3F80C9029463B4660
:1057A0004046C8470028CBD03E443D44E41BDFE7D9
:1057B000012A034602D1016000207047022A04BF7B
:1057C000D1E90001C3E90001F6E710B50123037434
:1057D0008368044643B1C06898470123637400207E
:1057E000BDE8104000F01EBF00680028F5D08368B7
:1057F0000BB902F002FDC368EEE710B4426803463D
:10580000541001EB6200D20748BF0A591B685DF8CB
:10581000044B48BFD35818470123F7B580F8293007
:105820000646083000F0D6FE0420FEF734FC05469C
:1058300098B31B49142002F0DCFC30B10023C0E90E
:105840000033C0E90233037443742860A0B1154BE0
:105850001549C0E902364FF40063CDE90003022286
:10586000124B043000F07EFE30B92B681B7CA3B9CC
:10587000012000F0F7FEF8E72C6800232B6064B1EC
:10588000276837B13846FEF7C1FC1021384602F0D0
:10589000AEFC1421204602F0AAFC756003B0F0BDF6
:1058A0001CB40D00B75A0D0084B00D00CB570D008D
:1058B00047F23051084AC160084902600022C0E93D
:1058C00004120749C16107494260C0E908228161A9
:1058D000028580F82A20704748B10D00215C0D0038
:1058E000FB570D00B1570D0010B5044B044640F8AE
:1058F000103BFEF78BFC204610BD00BF48B10D00E9
:1059000010B5034B03600446FFF7EEFF204610BDC1
:1059100070B10D0010B50446FFF7F2FF20463821A4
:1059200002F065FC204610BD806800F05BBE806818
:1059300000F060BE10B504460068FFF7F8FF20468F
:1059400010BD13B504460190FFF7EEFFE36ADC8853
:10595000A4B20CB103F1080401A8FFF7EBFF204645
:1059600002B010BD13B504460190FFF7DDFF94F8B7
:10597000283043B9E26A0124D38001A8FFF7DAFF97
:10598000204602B010BD0024F7E713B5044601908D
:10599000FFF7CAFFE36A01A8DC88FFF7CBFF2046C8
:1059A00002B010BD2DE9F047994686B090F8293035
:1059B0009DF838A09DF83C8004460F46164613B962
:1059C00003689B689847314B3846002E08BF1E4637
:1059D00003F0CBF90546304603F0C7F9284400F13F
:1059E0000A05AB071CBF25F0030504353346CDE996
:1059F0000285CDE9009A264926483A46FFF790FDF0
:105A0000238E083BAB4212D20024204606B0BDE8EC
:105A1000F087CB88012B36D005A8FFF78BFF2368D2
:105A200094F828109B69204698470028ECD020461F
:105A30000594FFF779FFE16A228E636B0A44D21A5C
:105A4000AA42E6D348EA0A0883F80480C3F8009023
:105A5000636B03F108083946404603F061F940469C
:105A600003F083F901303146404403F059F9636B88
:105A7000E26A1D446563D3880133D380012405A8FD
:105A8000FFF758FFC1E70024F9E700BF3CB40D0061
:105A900096B00D00D0E5032008B5044600F11005CE
:105AA000A3690BB902F0A9FBE36921462846984790
:105AB00000F060FDF4E708B5FFF7EEFF68B501F10F
:105AC00008050646284603F050F9013005442846EB
:105AD00003F04BF9F36A01302844C31A13F00303AF
:105AE0001CBFC3F10403C01868BDF7B504460E46D9
:105AF0000190FFF719FFE76AFB8807F10805E6B197
:105B0000012B22D929462046FFF7D8FF0546294612
:105B10002046FFF7D3FF228E3A44121A0146A0EB2B
:105B2000050602D0284603F0ABF8636B9B1B63634A
:105B3000FB88013BFB80012601E0002BE7D101A897
:105B4000FFF7F8FE304603B0F0BD0026F7E700008F
:105B50002DE9F0470D4604462F461646FFF7A8FEEE
:105B6000154B57F8082B2360144BE5629A422686A2
:105B7000984617D1AB889BB2B34213D105EB060A06
:105B800067634FF00009EB881FFA89F29BB29A42D3
:105B90000ED2616B2046FFF791FF5045606309F11B
:105BA0000109F0D90023C5F800806763AE80EB805F
:105BB0002046BDE8F08700BF70B10D0061AB9CD1FD
:105BC00010B5D1E9002386B00021044604910AB93A
:105BD000D90705D5CDE902230F4B05930F4B04934D
:105BE00002AB93E803006A4682E8030094E80300EE
:105BF00083E8030092E80300049A84E80300A168A4
:105C0000A260059A04911846E168E2600591FEF7EA
:105C1000FDFA204606B010BDFB570D00B1570D0030
:105C200007B5054B00936946002310300193FFF739
:105C3000C7FF03B05DF804FB695C0D0013B50446B3
:105C400000F020FD636AC01AE368984208D3054B50
:105C500000936946002304F110000193FFF7B0FFA1
:105C600002B010BD695C0D002DE9F04190F82A30BA
:105C700086B00446002B64D100F0E4FE002860D01A
:105C800000F000FD636AC01A40F2F133984258D91F
:105C9000236820465B6998470546002851D000F1EB
:105CA0000807012384F82830384603F05EF895F899
:105CB0000480CDF8048001302B682B4900933E18F6
:105CC00033462A483A46FFF72BFC2B688DF80080B4
:105CD0003246394602A801F0AFF9029D6B781BB934
:105CE000012000F0A7FFF8E7002000F055FE20B1EA
:105CF0006B7813B900F09EFEFAE72B78012B23D1C5
:105D00001B491A48FFF70CFC236800219B692046B9
:105D10009847002384F8283000F0B4FC6062039CAC
:105D20007CB16368013B63605BB9236820469B6874
:105D30009847A368013BA3601BB923682046DB6832
:105D4000984706B0BDE8F081E2680A490748FFF7C6
:105D5000E7FB094B049304A9002304F11000059309
:105D6000FFF72EFFD5E700BFD7B00D00D0E5032029
:105D7000F8B00D000FB10D003D5C0D00014B024A63
:105D80001A607047D0E5032036B10D0040207047FF
:105D90000020704780207047FF2070477047704791
:105DA0007047704710B51421044602F020FA2046CF
:105DB00010BD10B50821044602F019FA204610BDA6
:105DC00010B50821044602F012FA204610BD10B5A5
:105DD0001C21044602F00BFA204610BD2DE9FF41BC
:105DE0000368DB680446984710220146684602F0C3
:105DF00061FF236820469B68984700250746284690
:105E0000BD420ED27E1B2368102E28BF1026D3F869
:105E100018806A46334629462046C04708B13544B3
:105E2000EEE704B0BDE8F0814FF48073438140F2A7
:105E30000113C360002303827047000008B5064BBE
:105E40000360064B436040F20473038100234374F4
:105E5000FFF7EAFF08BD00BF5CB20D0000010203BE
:105E600003090A2200F00F0002FB0300704708B587
:105E7000807AFFF7F5FF00F5FA6008BDC07A00F000
:105E80001F00FFF7EDBF007B00F03F00FFF7E8BF0A
:105E900008B5817B4A060DD501F01F00FFF7E0FF32
:105EA0008B0603D50C2800D00C3008BD0C2808BF89
:105EB0000020FAE7BDE8084001F03F00FFF7D0BF3F
:105EC000C07B00F07F00FFF7CBBF007C00F07F00BD
:105ED000FFF7C6BF10B58AB024220446002101A8EE
:105EE00002F0E8FE2046FFF7C2FFA0F26C700690B9
:105EF0002046FFF7C3FF013805902046FFF7C3FF98
:105F000004902046FFF7C4FF03902046FFF7D8FF18
:105F100002902046FFF7D9FF019001A800F082FE11
:105F20000AB010BD0A2190FBF1F292FBF1F301FBE4
:105F300013231B01DBB201FB12001843C0B27047F0
:105F4000642310B5044691FBF3F000FB1310FFF738
:105F5000E9FFA07210BD10B504460846FFF7E2FF46
:105F6000E07210BD10B504460846FFF7DBFF237B47
:105F700023F03F031843207310BD10B50446481C9E
:105F8000FFF7D0FF637B23F007031843607310BD56
:105F900010B504460846FFF7C5FFA07310BD10B545
:105FA00004460846FFF7BEFFE07310BD10B5044677
:105FB0000846FFF7B7FF237C23F07F0318432074C4
:105FC00010BD37B504466846CDE9002302F038FE1F
:105FD000054641692046FFF7B3FF29692046013194
:105FE000FFF7B9FFE9682046FFF7BCFFA969204623
:105FF000FFF7C3FFA9682046FFF7CAFF696820467C
:10600000FFF7CDFF29683B29A8BF3B212046FFF7BA
:10601000CDFF03B030BD0000054A0061C0E900219A
:10602000044A8260044AC260044A80614261704747
:1060300090B20D000000010338B20D006CB20D00EB
:106040002DE9F84F04460F469046994600260A9BD4
:106050009E4231D26068394601F012FA08EB06011F
:106060006068FFF759FA6068002101F010FA0546F0
:10607000D0B90A9B60689A1B202A4FF0010328BF01
:106080002022394601F0E7F909EB060B05460BEB38
:10609000000ADA4506D0606803685B6998470BF828
:1060A000010BF6E72E44D2E7024604490448FFF705
:1060B00037FA2846BDE8F88F0025FAE790B10D00C1
:1060C000D4E503202DE9F34101EB03081E460368E4
:1060D0009B6805460C461746984780450DD82034E6
:1060E000686800963B46E2B26F21FFF7A9FFB0FA5D
:1060F00080F0400902B0BDE8F0810020FAE72DE908
:10610000F34101EB03081E4603689B6804460D46F5
:106110001746984780450CD8606800963B46EAB21F
:106120005721FFF78DFFB0FA80F0400902B0BDE8BB
:10613000F0810020FAE77FB51E1E0CBF072306235F
:106140000093144602AB0A466F21FFF779FF05461C
:10615000A8B99DF8083023749DF80930E3739DF8C1
:106160000A30A3739DF80B3063739DF80C302373D2
:106170009DF80D30E3722EB99DF80E30A3722846BB
:1061800004B070BD01F0B0FDFFF7CCFEA072F6E7E1
:106190001FB501230A4600936F2103ABFFF750FFA1
:1061A00020B99DF80C0005B05DF804FB0020FAE76B
:1061B00008B50321FFF7ECFFC0F3401008BD38B568
:1061C00000230C460A4619460546FFF7B4FF30B9CE
:1061D000A37A23B12846BDE83840FFF7E9BF002085
:1061E00038BD7FB5024601A8FFF728FE01A9104679
:1061F000FFF7E5FF28B101A8FFF76CFE07B05DF8D7
:1062000004FB00200146F9E7D0B5044686B040689B
:1062100001F004F901F02EFDE8B9E37A9B071AD5E5
:106220002046FFF7DEFF06460F4656EA070312D068
:1062300001F027FC0A4B0B491B68009332463B4692
:1062400002A801F0D5FC0848029A0849FFF768F94E
:1062500002A801F0EBFA0123237206B0D0BD00BF03
:1062600050E2032040E60320D4E50320AAB10D004C
:106270002DE9F84F0646884691469A4600250A9B26
:106280009D4229D27068414601F0FAF8706809EB26
:106290000501FFF741F90A9B5F1B1F2F28BF1F272E
:1062A0000AEB050407EB040B706814F8011B026885
:1062B00092689047A345F7D17068012101F0E7F893
:1062C000044638B1024605490548FFF729F920463A
:1062D000BDE8F88F3D44D2E70024F8E7BFB10D00D8
:1062E000D4E503202DE9F34101EB03081E460368C2
:1062F0009B6805460C461746984780450DD82034C4
:10630000686800963B46E2B26F21FFF7B1FFB0FA32
:1063100080F0400902B0BDE8F0810020FAE71FB527
:10632000137C8DF80830D37B8DF80930937B8DF882
:106330000A30537B8DF80B30137B8DF80C30D37AF9
:106340008DF80D30937A8DF80E30072300930A46AE
:1063500002AB6F21FFF78CFF05B05DF804FB10B5B1
:1063600088B0044603A80193FFF768FD019B03A8CA
:10637000FFF727FE9DF81C30A27A63F07F038DF8AB
:106380001C309DF819306AB143F0080303AA0021BC
:1063900020468DF81930FFF7C2FFB0FA80F04009AF
:1063A00008B010BD03F0F703F0E70000F0B587B0C8
:1063B000054601F05FFC0446E8B101F078FCC71720
:1063C000024606463B462846FFF7C9FF0C4B0D49DF
:1063D0001B68009332463B46044602A801F008FCC5
:1063E0000948029A0949FFF79BF802A801F01EFA32
:1063F000204607B0F0BD06490348FFF791F8F7E7DC
:1064000050E2032040E60320D4E50320DAB10D007A
:10641000F0B10D0037B5457A04469DB901F02AFC6C
:1064200080B10022002369462846CDE9002300F010
:1064300039FB38B1E37ADB0702D52046FFF7B6FF18
:106440000123637203B030BD1FB501238DF80C200A
:1064500000930A4603AB6F21FFF70AFF05B05DF812
:1064600004FBF8B504460D4617461E46FFF790FE9E
:1064700000EA0702324329462046BDE8F840FFF70C
:10648000E3BF012908B50CD800294FF0000314BF61
:10649000DF22EF220721FFF7E4FFB0FA80F0400986
:1064A00008BD0020FCE738B5044632256068572156
:1064B00000F0E6FF6068012100F0E9FF08B1013D4E
:1064C000F4D138BD2DE9F04104460F46164602EBE3
:1064D0000308B04520D06068572100F0D1FF39464D
:1064E0006068FFF719F8606816F8011B03689B687D
:1064F00098476068012100F0CAFF0137054638B1AE
:10650000024606490648FFF70BF82846BDE8F08129
:106510002046FFF7C8FFDCE70025F6E705B20D00CF
:10652000D4E50320F7B5CF181E46036801929B6897
:1065300004460D46984787420AD8019A6068334658
:10654000E9B2FFF7BFFFB0FA80F0400903B0F0BD39
:106550000020FBE7014B024A1A607047D4E5032094
:1065600026B20D0008B5024B1B685B68019308BD9D
:106570004802030008B5024B1B68DB68019308BDA5
:106580004802030008B5024B1B68DB69019308BD94
:106590004802030008B5024B1B681B6A019308BD43
:1065A0004802030008B5024B1B685B6A019308BDF3
:1065B0004802030008B5024B1B689B6A019308BDA3
:1065C0004802030008B5024B1B68DB6A019308BD53
:1065D0004802030008B5024B1B681B6B019308BD02
:1065E0004802030008B5024B1B689B6B019308BD72
:1065F0004802030008B5024B1B681B6C019308BDE1
:106600004802030008B5024B1B685B6C019308BD90
:106610004802030008B5024B1B689B6C019308BD40
:106620004802030008B5024B1B68DB6E019308BDEE
:106630004802030008B5024B1B681B6F019308BD9D
:106640004802030008B5024B1B685B6E019308BD4E
:106650003402030008B5024B1B685B68019308BD58
:106660001802030008B5024B1B689B68019308BD24
:106670001802030008B5024B1B68DB68019308BDD4
:106680001802030008B5024B1B685B69019308BD43
:106690001802030008B5024B1B689B6D019308BDEF
:1066A0001802030008B5024B1B685B6E019308BD1E
:1066B0001802030008B5024B1B689B6E019308BDCE
:1066C0001802030008B5024B1B689B68019308BDC4
:1066D0002C02030008B5024B1B68DB68019308BD60
:1066E0002C02030008B5024B1B681B69019308BD0F
:1066F0002C02030008B5024B1B685B69019308BDBF
:106700002C02030008B5024B1B689B69019308BD6E
:106710002C02030008B5024B1B68DB69019308BD1E
:106720002C02030008B5024B1B68DB68019308BD0F
:106730002802030008B5024B1B689B69019308BD42
:106740002802030008B5024B1B68DB69019308BDF2
:106750002802030008B5024B1B681B6A019308BDA1
:106760002802030008B5024B1B685B6A019308BD51
:106770002802030008B5024B1B689B6A019308BD01
:106780002802030008B5024B1B68DB6A019308BDB1
:106790002802030008B5024B1B681B6B019308BD60
:1067A0002802030008B5024B1B685B6B019308BD10
:1067B0002802030008B5024B1B681B6C019308BD3F
:1067C0002802030008B5024B1B689B6C019308BDAF
:1067D0002802030008B5024B1B68DB6C019308BD5F
:1067E0002802030008B5024B1B681B6D019308BD0E
:1067F0002802030008B5024B1B685B69019308BDC2
:106800006402030008B5024B1B689B68019308BD36
:106810006802030008B5024B1B68DB68019308BDE2
:106820006802030008B5024B1B68DB69019308BDD1
:106830003002030008B5024B1B681B6A019308BDB8
:106840003002030008B5024B1B681B68019308BDAA
:106850003C02030008B5024B1B68DB68019308BDCE
:106860003C02030008B5024B1B681B69019308BD7D
:106870003C02030008B5024B1B685B69019308BD2D
:106880003C02030008B5024B1B689B69019308BDDD
:106890003C02030008B5024B1B68DB69019308BD8D
:1068A0003C02030008B5024B1B681B6A019308BD3C
:1068B0003C02030008B5024B1B689B6A019308BDAC
:1068C0003C02030008B5024B1B681B68019308BD1E
:1068D0004C02030008B5024B1B681B69019308BDFD
:1068E0004C02030008B5024B1B685B69019308BDAD
:1068F0004C02030008B5024B1B689B69019308BD5D
:106900004C02030008B5024B1B68DB69019308BD0C
:106910004C02030008B5024B1B681B6A019308BDBB
:106920004C02030008B5024B1B685B6B019308BD6A
:106930006002030008B5024B1B685B6D019308BD44
:106940006002030008B5034B1B68D3F8983001932D
:1069500008BD00006002030008B5024B1B681B68FD
:10696000019308BD2002030008B5024B1B685B6859
:10697000019308BD2002030008B5024B1B685B6948
:10698000019308BD2002030008B5024B1B68DB6AB7
:10699000019308BD2002030008B5024B1B68DB6CA5
:1069A000019308BD2002030008B5024B1B685B6D14
:1069B000019308BD2002030008B5024B1B689B6DC4
:1069C000019308BD2002030008B5024B1B68DB6D74
:1069D000019308BD2002030008B5034B1B68D3F8E0
:1069E0008830019308BD00002002030008B5034B66
:1069F0001B68D3F89430019308BD00002002030007
:106A000008B5034B1B68D3F8B030019308BD0000F4
:106A10002002030008B5024B1B681B68019308BDE8
:106A20004402030008B5024B1B685B68019308BD74
:106A30004402030008B5024B1B689B68019308BD24
:106A40004402030008B5024B1B685B69019308BD53
:106A50004402030008B5024B1B68DB69019308BDC3
:106A60004402030008B5024B1B681B6A019308BD72
:106A70004402030008B5024B1B685B6A019308BD22
:106A80004402030008B5024B1B68DB6A019308BD92
:106A90004402030008B5024B1B681B6B019308BD41
:106AA0004402030008B5024B1B685B6B019308BDF1
:106AB0004402030008B5024B1B689B6B019308BDA1
:106AC0004402030008B5024B1B68DB6B019308BD51
:106AD0004402030008B5024B1B685B68019308BDC4
:106AE0004002030008B5024B1B689B68019308BD78
:106AF0004002030008B5024B1B68DB68019308BD28
:106B00004002030008B5024B1B681B69019308BDD6
:106B10004002030008B5024B1B685B69019308BD86
:106B20004002030008B5024B1B689B69019308BD36
:106B30004002030008B5024B1B68DB69019308BDE6
:106B40004002030008B5024B1B681B6A019308BD95
:106B50004002030008B5024B1B681B6B019308BD84
:106B60004002030008B5024B1B685B6B019308BD34
:106B70004002030008B5024B1B681B68019308BD67
:106B80001C02030008B5024B1B685B68019308BD3B
:106B90001C02030008B5024B1B689B68019308BDEB
:106BA0001C02030008B5024B1B681B69019308BD5A
:106BB0001C02030008B5024B1B68DB69019308BD8A
:106BC0001C02030008B5024B1B68DB6A019308BD79
:106BD0001C02030008B5024B1B681B6B019308BD28
:106BE0001C02030008B5024B1B685B6C019308BDD7
:106BF0001C02030008B5024B1B689B6C019308BD87
:106C00001C02030008B5024B1B68DB6C019308BD36
:106C10001C02030008B5024B1B681B6D019308BDE5
:106C20001C02030008B5024B1B685B6D019308BD95
:106C30001C0203000021FFF79FBE10B583680446C5
:106C40000BB901F0DAFAC3689847A3681BB10322B5
:106C500021462046984720461021BDE8104001F00B
:106C6000C6BA10B5036804469B689847A368013B01
:106C7000A3602BB923682046DB68BDE810401847A5
:106C800010BD10B50446006808B1FFF7C3FC2046EC
:106C900010BD0B68036013B15A6801325A60704727
:106CA00010B50446006828B14368013B43600BB946
:106CB000FFF7D7FF204610BD10B5064C0023204635
:106CC0002360FFF79FFC2046034A0449BDE81040BB
:106CD00001F088BAD8E5032028E40320836C0D0076
:106CE000002240681146FFF70DBF002240681146A0
:106CF000FFF728BF002240681146FFF733BF406806
:106D00000022FFF727BF4068002281F00101FFF752
:106D100011BF002340681A461946FFF703BF00233E
:106D200040681A461946FFF7F5BE00224068114632
:106D3000FFF7D8BE406800220221FFF7DBBE002328
:106D400040681A46FFF7C6BE084B10B528242246F5
:106D50001846002101F0AEFF054B04804FF0FF32D2
:106D6000426004225A60034A1A6010BDE4E5032021
:106D7000DCE50320A0B20D0070470020704710B57D
:106D80001021044601F033FA204610BD08B5FFF784
:106D9000F6FF08BD30B500224FF69C740260848077
:106DA0008D888C800C68858004600A6030BD10B5C9
:106DB00004460068FFF7E6FE204610BD38B5C468FB
:106DC000F4B12378022B03D104F10C00FFF7EFFF9D
:106DD000656835B12846FDF719FA1021284601F0FB
:106DE00006FAA56835B12846FDF710FA10212846A5
:106DF00001F0FDF920461421BDE8384001F0F7B953
:106E000038BD10B588B00446684600F05AFD6946A2
:106E100004A800F079FD04A8A047044604A800F0E7
:106E200005FD684600F002FD204608B010BD1FB504
:106E30000023CDE90201019210241A466946184642
:106E4000ADF80230ADF80040FFF7ECFD04B010BD26
:106E500073B50E46044656F8043B00930D4601A850
:106E60003146FFF716FF019A009B6260236001A87C
:106E7000002301930093FFF713FF3046FFF710FF45
:106E80002846082101F0B3F9204602B070BD13B5C1
:106E90000B460246D0E900016C4684E8030093E803
:106EA000030082E8030094E8030083E8030002B0D3
:106EB00010BD826810B50AB901F09FF9BDE8104015
:106EC000C368184708B5006800F11001FFF7F1FF2B
:106ED00008BD826810B50AB901F08FF9BDE810400D
:106EE000C368184708B5006800F11001FFF7F1FF0B
:106EF00008BD000038B500230446036010200D468D
:106F0000FDF7C9F828B10123C0E90133024B036042
:106F1000C5602060204638BDD4B20D0038B50023CE
:106F200083608B6804460D462BB102229847EB68BC
:106F3000E360AB68A360204638BD0000F0B589B0BF
:106F400004686846FFF726FF4FF00203D4E84F2F8E
:106F5000002A03D1C4E8413F0029F7D125D104F12B
:106F60000C0569462846FFF715FFBFF35B8F012329
:106F70006370002004F10803BFF35B8F53E8006FD8
:106F800043E80002002AF9D1BFF35B8F6EB1FFF72F
:106F900003FD78B129463046FFF78BFF3046FDF7F9
:106FA00035F91021304601F022F96846FFF7FFFE5F
:106FB00009B0F0BD314602A8FFF7B0FFE068B4F9B0
:106FC000105008B101F0B4FE06901020ADF81C502E
:106FD000FDF761F80546E8B1002787601820FDF746
:106FE0005AF8044688B10146876002A8FFF74FFFB0
:106FF000049BA268A360059B049206A9E268E36073
:1070000004F110000592FFF7C5FE084BEB60084B3A
:107010002C60AB6006A8FFF7CAFE02A8FDF7F6F8E1
:10702000002229460348FFF7BFFCB7E7C56E0D00F5
:107030005D710D003B6C0D002DE9F0478AB00546EF
:107040009DF848900C4617469846FFF7FBFC07AEA4
:10705000824638BB4FF62E73059005A93046ADF831
:107060001830FFF797FE1420FDF715F8044648B1D5
:10707000022303700123C0E901AA437031460C309A
:10708000FFF788FE2846214640F8044BFFF732FF01
:107090003046FFF78CFE05A8FFF789FE28460AB0A8
:1070A000BDE8F0870C234FF0000A1420CDE908AAB0
:1070B0000793FCF7F0FF014628B1C0E901AA80F868
:1070C00000A080F801A004A80391FFF713FF224B52
:1070D00008930820FCF7DFFF824628B1039B40F8A5
:1070E000043B04A9FFF7D5FD00965FFA89F34246F9
:1070F00039462046CDF824A0FFF7B4FCB8B9039B6D
:107100005B7803F0FF0293B94FF69C7305A903A8BF
:107110000592ADF81830FFF711FF05A8FFF747FEFD
:1071200005A80999FFF794FE06A8FFF7B9FD039B90
:10713000059304A906A8FFF7ACFD059B069A2B60F2
:107140006A60002306A806930593FFF7A9FD04A82B
:10715000FFF7A6FDA2E700BF21720D00022AF8B5D5
:10716000054607D0032A18D0012A01D10B68036015
:107170000020F8BD18200E68FCF78DFF044650B1C2
:107180003146FFF7CBFE3069B6F9147008B101F053
:10719000CFFD2061A7822C60EAE70468002CE7D0CD
:1071A00004F11000FFF703FE2046FDF72FF8182129
:1071B000204601F01CF8DBE738B5002383608B68BC
:1071C00004460D462BB102229847EB68E360AB689A
:1071D000A360204638BD022A70B5044607D0032AB2
:1071E00012D0012A01D10B680360002070BD142069
:1071F0000E68FCF750FF054620B13146FFF7DCFF73
:10720000337C2B742560F0E70468002CEDD0204619
:10721000FCF7FCFF1421204600F0E9FFE5E7000041
:10722000F0B589B004460D4601A81146FFF710FEDF
:10723000A4B124B21DB1284601F07AFD054601A88B
:1072400003A90395ADF81040FFF778FE03A8FFF7F8
:10725000AEFD02A8FFF724FD09B0F0BD019D01239A
:10726000D5E84F2F002A03D1C5E8413F0029F7D1C7
:10727000EFD12B73BFF35B8F6B702B1DBFF35B8F55
:1072800053E8006F43E80042002AF9D1BFF35B8F57
:10729000002EDED02046FFF77FFB074660B105F1E8
:1072A0000C013046FFF715FE3046FCF7AFFF10210A
:1072B000304600F09CFFCCE7314603A8FFF77CFF87
:1072C0002B7B8DF81C301020FCF7E5FE0546D0B175
:1072D00087601420FCF7DFFE044678B18760014622
:1072E00003A8FFF7D4FD059BA268A360069B059247
:1072F000E268E3609DF81C3006922374064BEB6055
:10730000064B2C60AB6003A8FCF780FF00222946E7
:107310000348FFF749FBC7E7E56E0D00D7710D0085
:107320003B6C0D00002240681146FFF70BBC0022A9
:1073300040681146FFF716BC40680022FFF70ABC00
:107340004068002281F00101FFF7F4BB0023406890
:107350001A461946FFF7E6BB002340681A4619464D
:10736000FFF7D8BB002240681146FFF7CBBB0022D5
:1073700040681146FFF7B6BB406800220221FFF7C4
:10738000B9BB002340681A46FFF7A4BB024B032297
:107390005A60024A1A6070470CE60320F0B20D00F2
:1073A0007047F8B5064615460C468F18BC4206D005
:1073B000336814F8011B9B6830469847F6E7284667
:1073C000F8BD007C0022FFF7C5B9007C0021FFF763
:1073D000C9B9007C0021FFF7CDB9007C0021FFF77F
:1073E000D1B9007C0021FFF7D5B910B514210446AE
:1073F00000F0FDFE204610BD10B54FF47A73044630
:1074000008460021C4E90113034B23602074114690
:10741000FFF7D0F9204610BD24B30D000023007CF7
:107420001A461946FFF77EB97FB500221423CDE92D
:107430000122ADF804300B788DF808304B680393C7
:10744000CB680493007C0B7A059301A9FFF7CAF976
:1074500007B05DF804FB1FB5003B8DF800104FF03E
:107460006401039118BF0123694601928DF8083029
:10747000FFF7DAFF05B05DF804FB0123FFF7EBBF70
:10748000007C0022FFF756B9C9B2FFF7F9BF007CB4
:107490000022FFF757B90121FFF7F9BF08B5002116
:1074A000007CFFF78FF9B0FA80F0400908BD08B5FD
:1074B0000021007CFFF78EF9B0FA80F0400908BD8A
:1074C000004700002DE9FF4100241D460F4690466D
:1074D0000646FFF71FF9A5424FF00403ADF80D4033
:1074E0008DF80C308DF80F40A2BF9DF828308DF834
:1074F0000E3003AC0749009443463A463046A8BFD5
:107500008DF80D50FFF7FEF8B0FA80F0400904B096
:10751000BDE8F081C1740D00704710B51821044614
:1075200000F065FE204610BDF0B5037D062B8DB042
:107530000E4600F104074FF0000412D000F10805D8
:1075400015F8011D0A22304600F033F9AF42044419
:1075500019D0002CF4D02E21304600F027F9044435
:10756000EEE72F236A4639460A208DF80040FFF7E0
:1075700041F9684601F0F9FB33680246DB68694669
:1075800030469847044620460DB0F0BD10B5054B77
:107590000446112240F8043B002101F08BFB2046F9
:1075A00010BD00BF4CB30D000346074A10B543F8A9
:1075B000042B01F1100251F8044B43F8044B9142A3
:1075C000F9D10A781A7010BD4CB30D0010B59DF8B2
:1075D000084044EA032343EA024242EA01610423E9
:1075E0004160037510BD13B5CB7800938B784A7852
:1075F0000978FFF7EBFF02B010BD0000014B024A13
:107600001A60704714E6032058B30D000023406849
:107610001A46FFF75FBA406800220221FFF76ABAF4
:10762000002240681146FFF75DBA0022406811460B
:10763000FFF768BA002340681A461946FFF76ABA8E
:10764000002340681A461946FFF76CBA40680022CA
:1076500081F00101FFF76EBA40680022FFF77ABAA5
:10766000002240681146FFF77DBA002240681146AB
:10767000FFF768BA2DE9F043002495B016460D4691
:107680000746FFF783FF214618220EA8009401F059
:1076900011FB4023CDE90C3421466B460CAA304641
:1076A000FFF7B8F80446002846D102460121686871
:1076B000FFF728FA0221804622466868FFF722FA7F
:1076C000009E81462146002E36D0002934D17368B1
:1076D000022B03D00A2B0BD0F669F4E7B8F1000FA8
:1076E00004D0716938460431FFF77DFF4146F3E766
:1076F000B9F1000F01D14946EEE77469102201A8E3
:1077000001F0D8FA06238DF8143001AD04F1080316
:107710001834186859682A4603C20833A34215462C
:10772000F7D101A906A807ADFFF73EFF0FCD3C1D1D
:107730000FC42B682370DEE70098FFF763F8384624
:1077400015B0BDE8F0830000024B034A1A60002226
:107750005A60704718E6032064B30D00F8B506467A
:107760000D468F180024BD420CD0336815F8011B5C
:107770009B6830469847031E01DB1C44F3E7002C4E
:1077800008BF1C462046F8BD13B50446084659B14B
:10779000019101F0EAFA23680199DB68024620466C
:1077A00002B0BDE81040184702B010BD03689B68E6
:1077B000184730B58BB000238DF82430012A98BFCC
:1077C0000A2209AC0D46B1FBF2F101FB125303F0A2
:1077D000FF03092B94BF30333733DBB2AA4204F8DE
:1077E000013DEFD92146FFF7CFFF0BB030BD10B5FB
:1077F0000446FCF70BFD204610BD00000348044A78
:1078000004490023836000F0EDBC00BF20E60320A4
:1078100028E40320EF770D0010B5044608462170D8
:10782000FFF700F800236360204610BD10B5044642
:107830000068FFF7A7F9204610BD10B504460068A0
:1078400008B1FFF79FF90023C4E90133236010BD9D
:1078500038B504460D4600680131FFF79BF910B1B9
:10786000C4E90005012038BD10B50368044623B102
:1078700043688B4201D3012010BD2046FFF7E8FF8B
:107880000028F9D0A368002BF5D122681370F2E725
:1078900037B50D46114601920446FFF7E5FF019A00
:1078A00028B92046FFF7C9FF204603B030BDA260CB
:1078B0002946206801F0D6F92268A3680021D15436
:1078C000F2E7002313B5C0E9003304468360037375
:1078D00041B10846019101F048FA0199024620465B
:1078E000FFF7D6FF204602B010BD884210B504460F
:1078F00005D00B682BB18A681946FFF7C9FF2046EF
:1079000010BDFFF79AFFFAE710B500230446C0E95F
:10791000003383600373FFF7E8FF204610BD08B50E
:1079200082683AB921B10878B0FA80F0400900E0E5
:10793000012008BD006809B90078F5E701F0E6F913
:10794000F2E758B50E462AB121B184689C4202D8AC
:1079500000230B7058BDE41A013A0168944228BF15
:10796000144619442246304601F019FA00233355D3
:10797000F0E7000008B5006840B101F04BF951ECA8
:10798000100B01F0B3F800EE100A08BD9FED010ADC
:10799000FBE700BF0000000007B50B4600210246D0
:1079A000009101208C21FFF72BF803B05DF804FB58
:1079B00001460020FFF7F0BF0020FFF7F9BF0000ED
:1079C00010B5094B094C022200201A60084B2060B8
:1079D000A080A071A360FEF7C7FF2046054A0649B4
:1079E000BDE8104000F0FEBB3CE6032030E603207B
:1079F0000000FFFF28E40320A3410D002DE9F04122
:107A0000154ADFF86080D2E90032C01842EB01016C
:107A1000124AD2E90032C61841EB0207D8E9002326
:107A2000BB4208BFB2428CB013D003A96846CDE96F
:107A30000067FFF7E7F8089B094D03F26C7303AC8E
:107A400008930FCC0FC50FCC0FC5C8E9006723689A
:107A50002B600CB0BDE8F08178E6032070E60320CF
:107A600048E6032080E6032008B50020FFF712F85F
:107A700028B1FEF7E7FF80F00100C0B208BD012089
:107A8000FCE71FB502460B4668460021CDE90023FE
:107A9000CDE90211FEF70EFE024610B90146FEF7CF
:107AA00093FF05B05DF804FB30B504461848D0E9F3
:107AB0000010521840EB03031648D0E9001052188A
:107AC00093B040EB0303CDE9002324220DEB020029
:107AD000002101F0EFF8002509A96846FFF792F8A8
:107AE0001622294603A8029501F0E4F802A909A884
:107AF00001F06AF802A801F038F912AB184402A9A3
:107B000000F8415C2046FFF7DCFE204613B030BD94
:107B100078E6032070E603202DE9F04FA5B0074674
:107B2000884614A811463F221D4601F038F900236B
:107B300014A88DF88F3001F018F904465DBB2A496E
:107B400003A801F0EDF814AE002504F1FF3BAB45AE
:107B500036D9B14605F1010A19F8013B252B17D199
:107B600073787A2B14D103A801F0FFF814AB044604
:107B700028181844ABEB0502B11C01F073F822463B
:107B800003A9304601F06EF814A801F0EEF804469F
:107B90004E465546D9E73C2195FBF1F3002BB8BF83
:107BA0005B42B3FBF1F201FB123300930F4A4FF437
:107BB0006163102103A895FBF3F3FEF7FBFFC2E717
:107BC00000212E2208A8079101F074F8434614AA58
:107BD000322107A8FFF70EF807A93846FFF771FE14
:107BE000384625B0BDE8F08F90B30D0092B30D007C
:107BF000F0B58DB0CDE90023129D044615B9194B9F
:107C00001D682DB1184B2846196801F07FF838B966
:107C1000DDE900232046FFF747FF20460DB0F0BD09
:107C2000124E0099124FD6E900325B18019941EBD0
:107C30000202D7E900011B1841EB0202CDE9003234
:107C40000021242203A801F035F803A96846FEF7B5
:107C5000D9FF32683B6803A9134420462A46FFF740
:107C60005BFFDAE744E6032050E2032078E60320D6
:107C700070E6032010B50020FEF70CFD0446A0B905
:107C8000FEF76AFE012810D12046FEF795FE60B986
:107C9000FFF7EAFE10B9FEF7CDFEF9E7FFF7E4FEC5
:107CA000BDE810400020FEF7F5BC204610BD1FB512
:107CB000FFF7E0FF10220021684600F0FBFF0021E3
:107CC0006846FEF7EFFC009805B05DF804FB000085
:107CD00008B5FFF7ECFFC117FFF790FE014B98685E
:107CE00008BD00BF48E6032008B5FFF7E0FFC11755
:107CF000FFF784FE014B586908BD00BF48E603202A
:107D0000024B1A68024B1A60704700BF50E2032012
:107D100044E6032070474174704708B5007CFEF7C5
:107D2000C9FD20EAE07008BD08B5007CFEF79AFDA9
:107D300020EAE07008BD08B5007CFEF7A3FD40EA2C
:107D4000E07008BD08B5007CFEF794FD40EAE070E5
:107D500008BD007CFEF79EBD37B5457C04462DB1BD
:107D6000207C03B0BDE83040FEF774BD007C01917B
:107D7000FEF7A0FD00280199F2DC284603B030BDD3
:107D800010B51421044600F032FA204610BD000060
:107D900010B54FF0000C0446084611464FF47A72B5
:107DA000C4E901C2044A22600122207462741A46A6
:107DB000FEF748FD204610BDC4B30D0013B50E4CB0
:107DC0002178BFF35B8F11F0010112D120460191A0
:107DD000FCF772F9019960B1084A094B0948FFF7AD
:107DE000D7FF2046FCF76DF9074A0849054800F01F
:107DF000F9F9044802B010BD88E603208CE60320A0
:107E000010E7032094E7032028E40320157D0D00EC
:107E100041747047704708B50021007CFEF76AFD89
:107E200040EAE07008BD08B50121007CFEF762FD64
:107E300040EAE07008BD08B5007CFEF753FD20EA7B
:107E4000E07008BD08B5007CFEF744FD20EAE07054
:107E500008BD13B50446007C0191FEF743FD0028E0
:107E6000019901DC607C20B1207CFEF74BFD20EA0B
:107E7000E07002B010BD007CFEF74CBD10B51421BF
:107E8000044600F0B4F9204610BD000010B54FF4D0
:107E90007A73044608460021C4E90113044B2360A9
:107EA0000123207463741146FEF70CFD204610BDBB
:107EB000F4B30D0010B514220446002100F0FAFEC0
:107EC000204610BD10B5104C88B003A8FFF7F2FF94
:107ED0002178BFF35B8F11F0010111D12046019190
:107EE000FCF7EAF8019958B103AA0848FFF7CEFF5A
:107EF0002046FCF7E6F8064A0649044800F072F905
:107F0000024808B010BD00BFA8E70320ACE703207B
:107F100028E40320157E0D00014B1860704700BF58
:107F200054E2032008B50B4B43B1FFF7CBFF0368C6
:107F30001B699847002801DDAFF30080064B43B171
:107F4000FFF73CFF03681B699847002801DDAFF38A
:107F5000008008BD000000000000000008B5FFF729
:107F6000E1FFFEF78FFB014B186008BDD4E703204B
:107F70000248034A0349121A00F074BE00F40320B9
:107F800004FC032020B70D0007B5002300931A4618
:107F90006FF07701FEF72AFD03B05DF804FB0000E7
:107FA00007B543880A2B08D0502B0BD1094B1B680F
:107FB0004BB103B05DF804EB1847FFF7E5FF03B0E2
:107FC0005DF804FB002300931A466FF07701FEF77B
:107FD0000DFDF4E7C4E7032038B5124C1248134DE9
:107FE0000021FEF7FFFD2368AB42114B0CBF0122BD
:107FF00000221A7002D0FFF7BBFF2560FEF72AFBB4
:10800000044600F05FFE0B4B13B12046AFF3008037
:1080100000210848FEF756FDBDE83840064800211B
:10802000FEF7DABC00FC0320197F0D001E1C279A06
:10803000C0E7032000000000A17F0D0008B5024B3F
:108040001B681B68019308BD5C02030008B5024B66
:108050001B685B68019308BD5C02030008B5024B16
:108060001B689B68019308BD5C020300232813B5BD
:1080700002D9002002B010BDA0F10B03022B1AD8C8
:10808000174C2178BFF35B8F11F001010BD1204613
:108090000191FCF711F8019928B11248FFF7BCFBD8
:1080A0002046FCF70EF80F4B1878FEF7C3FB0028AC
:1080B000DFD10120DEE7012809D800F06BF80021AC
:1080C000007CFEF76FFB80F00100C0B2D2E70938F8
:1080D0000128EED8FFF772FE007CFEF7E3FBF2E723
:1080E000C8E70320CCE70320232838B504460D4613
:1080F0000AD8FF2908D0FFF7B9FF28B12946204642
:10810000BDE83840FEF7DEBA38BD38B504460D4646
:10811000FEF7E0FAFF2810D0062804D84D2323FAF2
:1081200000F0C30709D42046FFF7A0FF28B1294675
:108130002046BDE83840FEF7D5BA38BD10B5044634
:10814000FEF7C8FA031FDBB2012B08D92046FFF760
:108150008DFF20B12046BDE81040FEF7CBBA0020CD
:1081600010BD000038B500232025438014230446A9
:108170000380856005610649284600F03CF8044903
:108180006060284600F037F8E060204638BD00BF48
:108190001CB40D0030B50F4D2978BFF35B8F11F083
:1081A000010487B013D12846FBF786FF78B101A8F8
:1081B000FFF7D8FF01AA21460748FFF71DF9284617
:1081C000FBF77FFF054A0649034800F00BF8024819
:1081D00007B030BDD8E70320DCE7032028E4032004
:1081E000A1730D000B460146184600F01BBDFBF7BE
:1081F00056BFFBF750BFFBF750BF08B5FEF7E2FCD8
:1082000081F0004102E000BF83F0004330B54FEA47
:1082100041044FEA430594EA050F08BF90EA020FB4
:108220001FBF54EA000C55EA020C7FEA645C7FEA47
:10823000655C00F0E2804FEA5454D4EB5555B8BF6A
:108240006D420CDD2C4480EA020281EA030382EADB
:10825000000083EA010180EA020281EA0303362D6D
:1082600088BF30BD11F0004F4FEA01314FF4801C40
:108270004CEA113102D0404261EB410113F0004F52
:108280004FEA03334CEA133302D0524263EB430309
:1082900094EA050F00F0A780A4F10104D5F1200EA7
:1082A0000DDB02FA0EFC22FA05F2801841F1000102
:1082B00003FA0EF2801843FA05F359410EE0A5F1D6
:1082C00020050EF1200E012A03FA0EFC28BF4CF007
:1082D000020C43FA05F3C01851EBE37101F00045BD
:1082E00007D54FF0000EDCF1000C7EEB00006EEBCA
:1082F0000101B1F5801F1BD3B1F5001F0CD3490854
:108300005FEA30004FEA3C0C04F101044FEA4452AA
:1083100012F5800F80F09A80BCF1004F08BF5FEA31
:10832000500C50F1000041EB045141EA050130BD11
:108330005FEA4C0C404141EB0101013C28BFB1F523
:10834000801FE9D291F0000F04BF01460020B1FA6E
:1083500081F308BF2033A3F10B03B3F120020CDA41
:108360000C3208DD02F1140CC2F10C0201FA0CF01F
:1083700021FA02F10CE002F11402D8BFC2F1200C84
:1083800001FA02F120FA0CFCDCBF41EA0C0190403A
:10839000E41AA2BF01EB0451294330BD6FEA040483
:1083A0001F3C1CDA0C340EDC04F11404C4F120026E
:1083B00020FA04F001FA02F340EA030021FA04F380
:1083C00045EA030130BDC4F10C04C4F1200220FAD7
:1083D00002F001FA04F340EA0300294630BD21FA15
:1083E00004F0294630BD94F0000F83F4801306BFDB
:1083F00081F480110134013D4EE77FEA645C18BFCF
:108400007FEA655C29D094EA050F08BF90EA020F65
:1084100005D054EA000C04BF1946104630BD91EA5D
:10842000030F1EBF0021002030BD5FEA545C05D160
:108430004000494128BF41F0004130BD14F580049F
:108440003CBF01F5801130BD01F0004545F0FE4113
:1084500041F470014FF0000030BD7FEA645C1ABF48
:10846000194610467FEA655C1CBF0B46024650EA7F
:10847000013406BF52EA033591EA030F41F40021AB
:1084800030BD00BF90F0000F04BF0021704730B531
:108490004FF4806404F132044FF000054FF0000106
:1084A00050E700BF90F0000F04BF0021704730B5C7
:1084B0004FF4806404F1320410F0004548BF40429C
:1084C0004FF000013EE700BF42004FEAE2014FEAF1
:1084D00031014FEA02701FBF12F07F4393F07F4FCC
:1084E00081F06051704732F07F4208BF704793F0CF
:1084F0007F4F04BF41F40021704730B54FF46074E2
:1085000001F0004521F000411CE700BF50EA0102E4
:1085100008BF704730B54FF000050AE050EA01028D
:1085200008BF704730B511F0004502D5404261EBFD
:1085300041014FF4806404F132045FEA915C3FF43E
:10854000D8AE4FF003025FEADC0C18BF03325FEADB
:10855000DC0C18BF033202EBDC02C2F1200300FA8C
:1085600003FC20FA02F001FA03FE40EA0E0021FAB1
:1085700002F11444BDE600BF70B54FF0FF0C4CF49F
:10858000E06C1CEA11541DBF1CEA135594EA0C0F51
:1085900095EA0C0F00F0DEF82C4481EA030621EA8C
:1085A0004C5123EA4C5350EA013518BF52EA0335C7
:1085B00041F4801143F4801338D0A0FB02CE4FF079
:1085C0000005E1FB02E506F00042E0FB03E54FF0A9
:1085D0000006E1FB03569CF0000F18BF4EF0010EA1
:1085E000A4F1FF04B6F5007F64F5407404D25FEA9D
:1085F0004E0E6D4146EB060642EAC62141EA555150
:108600004FEAC52040EA5E504FEACE2EB4F1FD0C91
:1086100088BFBCF5E06F1ED8BEF1004F08BF5FEA0F
:10862000500E50F1000041EB045170BD06F00046C1
:1086300046EA010140EA020081EA0301B4EB5C046E
:10864000C2BFD4EB0C0541EA045170BD41F4801166
:108650004FF0000E013C00F3AB8014F1360FDEBF8B
:10866000002001F0004170BDC4F10004203C35DA67
:108670000C341BDC04F11404C4F1200500FA05F3EA
:1086800020FA04F001FA05F240EA020001F000428B
:1086900021F0004110EBD37021FA04F642EB060101
:1086A0005EEA430E08BF20EAD37070BDC4F10C042B
:1086B000C4F1200500FA04F320FA05F001FA04F2EF
:1086C00040EA020001F0004110EBD37041F10001DB
:1086D0005EEA430E08BF20EAD37070BDC4F12005E6
:1086E00000FA05F24EEA020E20FA04F301FA05F24E
:1086F00043EA020321FA04F001F0004121FA04F2F6
:1087000020EA020000EBD3705EEA430E08BF20EAC5
:10871000D37070BD94F0000F0FD101F000464000FF
:1087200041EB010111F4801F08BF013CF7D041EA81
:10873000060195F0000F18BF704703F00046520085
:1087400043EB030313F4801F08BF013DF7D043EA56
:108750000603704794EA0C0F0CEA135518BF95EA0C
:108760000C0F0CD050EA410618BF52EA4306D1D193
:1087700081EA030101F000414FF0000070BD50EAB2
:10878000410606BF1046194652EA430619D094EA3C
:108790000C0F02D150EA013613D195EA0C0F05D126
:1087A00052EA03361CBF104619460AD181EA03017A
:1087B00001F0004141F0FE4141F470014FF0000032
:1087C00070BD41F0FE4141F4780170BD70B54FF0CD
:1087D000FF0C4CF4E06C1CEA11541DBF1CEA13554D
:1087E00094EA0C0F95EA0C0F00F0A7F8A4EB05042F
:1087F00081EA030E52EA03354FEA013100F0888026
:108800004FEA03334FF0805545EA131343EA1263EE
:108810004FEA022245EA111545EA10654FEA0026A3
:108820000EF000419D4208BF964244F1FD0404F55C
:10883000407402D25B084FEA3202B61A65EB0305B8
:108840005B084FEA32024FF480104FF4002CB6EB75
:10885000020E75EB030E22BFB61A754640EA0C00F5
:108860005B084FEA3202B6EB020E75EB030E22BF35
:10887000B61A754640EA5C005B084FEA3202B6EB76
:10888000020E75EB030E22BFB61A754640EA9C0035
:108890005B084FEA3202B6EB020E75EB030E22BF05
:1088A000B61A754640EADC0055EA060E18D04FEAC3
:1088B000051545EA16754FEA06164FEAC30343EA63
:1088C00052734FEAC2025FEA1C1CC0D111F4801F30
:1088D0000BD141EA00014FF000004FF0004CB6E729
:1088E00011F4801F04BF01430020B4F1FD0C88BFC8
:1088F000BCF5E06F3FF6AFAEB5EB030C04BFB6EBD3
:10890000020C5FEA500C50F1000041EB045170BDC5
:108910000EF0004E4EEA113114EB5C04C2BFD4EBF2
:108920000C0541EA045170BD41F480114FF0000E76
:10893000013C90E645EA060E8DE60CEA135594EAF2
:108940000C0F08BF95EA0C0F3FF43BAF94EA0C0FF5
:108950000AD150EA01347FF434AF95EA0C0F7FF46A
:1089600025AF104619462CE795EA0C0F06D152EABE
:1089700003353FF4FDAE1046194622E750EA4106A2
:1089800018BF52EA43067FF4C5AE50EA41047FF4B3
:108990000DAF52EA43057FF4EBAE12E74FF0FF3C18
:1089A00006E000BF4FF0010C02E000BF4FF0010CE9
:1089B0004DF804CD4FEA410C7FEA6C5C4FEA430C62
:1089C00018BF7FEA6C5C1BD001B050EA410C0CBFB1
:1089D00052EA430C91EA030F02BF90EA020F002013
:1089E000704710F1000F91EA030F58BF994208BF7A
:1089F00090422CBFD8176FEAE37040F00100704737
:108A00004FEA410C7FEA6C5C02D150EA013C07D18D
:108A10004FEA430C7FEA6C5CD6D152EA033CD3D0D8
:108A20005DF8040B704700BF8446104662468C46D2
:108A30001946634600E000BF01B5FFF7B7FF002805
:108A400048BF10F1000F01BD4DF808EDFFF7F4FF2E
:108A50000CBF012000205DF808FB00BF4DF808EDB9
:108A6000FFF7EAFF34BF012000205DF808FB00BFDC
:108A70004DF808EDFFF7E0FF94BF012000205DF8FE
:108A800008FB00BF4DF808EDFFF7CEFF94BF0120B3
:108A900000205DF808FB00BF4DF808EDFFF7C4FFAC
:108AA00034BF012000205DF808FB00BF4A0011D24E
:108AB00012F5001211D20DD56FF47873B3EB625238
:108AC0000ED44FEAC12343F0004343EA505323FA44
:108AD00002F070474FF00000704750EA013002D1B9
:108AE0004FF0FF3070474FF0000070474FEA4102EF
:108AF000B2F1E04324BFB3F5001CDCF1FE5C0DD9FC
:108B000001F0004C4FEAC0024CEA5070B2F1004F45
:108B100040EB830008BF20F00100704711F0804F48
:108B200021D113F13872BCBF01F00040704741F40D
:108B300080114FEA5252C2F11802C2F1200C10FA11
:108B40000CF320FA02F018BF40F001004FEAC123F5
:108B50004FEAD32303FA0CFC40EA0C0023FA02F399
:108B60004FEA4303CCE77FEA625307D150EA01336F
:108B70001EBF4FF0FE4040F44000704701F000403F
:108B800040F0FE4040F40000704700BFD0B50C4BF1
:108B9000002206460F46FFF7EFFCFFF787FF04466B
:108BA000FFF770FC074B0022FFF7E6FC02460B467E
:108BB00030463946FFF728FBFFF778FF2146D0BD46
:108BC0000000F03D0000F04110B50C46416903691A
:108BD000826986B001F26C71049101680391416869
:108BE000029181680191C1680091074903EB430339
:108BF0000B44064902EB42020A4420460449FDF7B1
:108C0000D1FF204606B010BD52B40D003DB40D009A
:108C10001DB40D00002100F0FDBE0A22002100F06D
:108C20007FBF000010B5054C13462CB10A46014623
:108C30000220AFF3008010BD2046FCE700000000DA
:108C400038B5074B1D68EB6B04461BB92420FDF7B4
:108C500091FFE863E96B2046BDE83840FDF7DABFD5
:108C600054E203200A44914200F1FF3300D17047DF
:108C700010B511F8014B03F8014F9142F9D110BD25
:108C8000884210B501EB020402D98442234607D87A
:108C9000431EA14208D011F8012B03F8012FF8E779
:108CA000024401468A4200D110BD13F8014D02F87A
:108CB000014DF7E702440346934200D1704703F8A1
:108CC000011BF9E738B50D4B1D68AB6B04467BB94A
:108CD0001820FDF74FFF0A4A0A4BA863C0E900239A
:108CE000094B83600B23838101220023C0E9042305
:108CF000AB6B00221C615A6138BD00BF54E20320F7
:108D00000E33CDAB34126DE6ECDE050010F8012B0E
:108D100011F8013B012A28BF9A42F7D0D01A7047B8
:108D2000034611F8012B03F8012B002AF9D17047F3
:108D3000024B0146186800F003B800BF54E203205C
:108D400037B5044608460D4600F00FF8421C1146A0
:108D500020460192FDF73EFF044618B1019A2946CC
:108D6000FFF780FF204603B030BD034613F8012B08
:108D7000002AFBD1181A0138704710B56AB10139C1
:108D8000841810F8013B11F8012F934203D1A0423F
:108D900001D0002BF5D1981A10BD1046FCE710B594
:108DA0000139034632B111F8014F03F8014B013A82
:108DB000002CF7D11A440021934200D110BD03F8D2
:108DC000011BF9E770B504460D4645EC104B1646FD
:108DD00001F01CFD51EC100B7EB1C5F30A53C3F139
:108DE0006B03002B09DD1B0503F17F55002405F5FE
:108DF000401522462B46FFF7BFFB70BD0000000068
:108E00002DE9F04FA3B01F4600231E93A44B1992E7
:108E10001B680793044618468846FFF7A6FF4FF0E5
:108E2000000A05464FF0000BCDF874801D9B1A78A0
:108E30002B2A4CD039D80D2A32D8082A32D8002A09
:108E40003CD000230E931D9E3378302B40F0B4802D
:108E5000737803F0DF03582B6CD10E9B01931EAB8C
:108E6000029700938F4A1FAB1DA9204600F0CAFE4F
:108E700010F00707054605D0062F2AD1013600233A
:108E80001D960E93199B002B40F096850E9BDBB12F
:108E900052460BF1004343EC102B23B0BDE8F08F9A
:108EA000202ACED101331D93C0E72D2AC9D101223A
:108EB0000E925A1C1D925B78002BC4D1199BCDF8E1
:108EC0007480002B40F0768552465B46E3E7002233
:108ED000EEE71E9A3AB1352120A801F096FD1E99C1
:108EE000204601F0CBF9013F052F07D8DFE807F056
:108EF0000E0B181D0E034FF0000BDA462807C1D5E4
:108F00004BF0004BBEE7DDE920ABF7E7DDE920A33E
:108F10001F9A23F4801302F2334243EA025BEDE727
:108F2000DFF884B14FF0000AE8E76FF0004B4FF034
:108F3000FF3AE3E71D9B5A1C1D925B78302BF9D05A
:108F4000002B9FD001234FF0000904931D9B0A932F
:108F5000CDF824904F460A221D980678A6F13003DA
:108F6000D9B209292AD907992A46FFF706FF98B3EB
:108F7000002033463D4607900246652B01D0452B25
:108F800018D11DB9049B034398D00025DDF87480E7
:108F900008F101031D9398F801302B2B75D02D2B70
:108FA0007BD04FF0000CA3F13001092940F2828000
:108FB000CDF8748000269DE00023C4E7082FD8BFB9
:108FC000099900F10100DABF02FB0133099302FBAA
:108FD000093901371D90BFE71D9B5A191D925B5D32
:108FE000002F37D007903D46A3F13002092A12D94D
:108FF0000122C2E71D9B5A1C1D925B780130302B69
:10900000F8D0A3F13102082A00F2DB841D9A079000
:1090100000200A920546303B00F1010214D0079966
:10902000114407912A4600EB050E0A21724513D11F
:109030002A18082A05F1010505441CDC09990A22B1
:1090400002FB0133099300221D9B591C1D915B7883
:109050001046C9E73846D2E7082A04DC099E4E4389
:1090600009960132E2E702F1010CBCF1100FD8BF02
:1090700001FB09F9F5E7102DDCBF0A2202FB0939D3
:10908000E1E70023079301227CE74FF0000C08F191
:1090900002031D9398F8023085E74FF0010CF6E7C4
:1090A000DCB50D0084B40D000000F07F1D9B591C41
:1090B0001D915B78302BF9D0A3F1310108293FF6DF
:1090C00079AFA3F1300E1D9B08931D9B591C1D9178
:1090D0005B78A3F13006092E37D9089E891B082931
:1090E00044F61F6602DC7645A8BF7646BCF1000F49
:1090F00000D07642002D4FD1049901437FF4C2AED7
:10910000002A7FF4DBAE692B27D024DC492B24D046
:109110004E2B7FF4D3AE9E491DA800F0B9FF002866
:109120003FF4CCAE1D9B1B78282B2DD1994920AA4A
:109130001DA800F0C1FF052826D1219BDDF880A0E5
:1091400043F0FF4B4BF4E00B9CE60A2101FB0E3E83
:10915000AEF1300EB9E76E2BDBE78F491DA800F0AA
:1091600097FF00283FF4AAAE1D9B8C49013B1DA828
:109170001D9300F08DFF10B91D9B01331D93DFF887
:109180002CB24FF0000A7DE6854801F091FC8DED90
:10919000040BDDE904AB75E6079B0998F31A002F71
:1091A00008BF2F46102D0893A846A8BF4FF01008FF
:1091B000FFF768F9092D82468B4613DD794B03EBE7
:1091C000C80353E91223FFF7D7F9824648468B4676
:1091D000FFF758F902460B4650465946FFF716F876
:1091E00082468B460F2D38DC089B002B3FF44AAE9D
:1091F00024DD162B0BDC6B4D05EBC305D5E9000117
:1092000052465B46FFF7B8F982468B463AE6089A23
:10921000C5F12503934220DB624CC5F10F0504EB39
:10922000C50152465B46D1E90001FFF7A5F9089B4D
:109230005D1B04EBC504D4E90023E3E7089B163368
:109240000BDB079B574A9E1B02EBC606D6E90023A1
:1092500050465946FFF7BAFAD6E7089BA5EB08082F
:109260009844B8F1000F71DD18F00F030AD04D4992
:1092700001EBC30152465B46D1E90001FFF77CF9DF
:1092800082468B4638F00F084DD0B8F59A7F22DD24
:1092900000252E46099507952223DFF810B123609B
:1092A0004FF0000A099B002B3FF4ECAD1E992046BD
:1092B00000F0E4FF0799204600F0E0FF3146204629
:1092C00000F0DCFF0999204600F0D8FF294620462F
:1092D00000F0D4FFD6E500234FEA2818504659463F
:1092E0009946B8F1010F21DC0BB182468B462E4B1B
:1092F000ABF1547B03EBC90952465B46D9E9000147
:10930000FFF73AF9294B0A460B4029498B4282461E
:10931000BED8A1F580118B4286BFDFF898B04FF020
:10932000FF3A02F1547B0023049381E018F0010F0F
:1093300007D01D4B03EBC903D3E90023FFF71CF94A
:10934000012309F101094FEA6808CAE7EBD0C8F127
:10935000000818F00F020AD0124B03EBC20350466C
:109360005946D3E90023FFF731FA82468B465FEA7C
:109370002818D8D0B8F11F0F1EDD00252E460995FC
:10938000079522234FF0000A4FF0000B236089E776
:109390007FB40D0098B40D0076B40D0079B40D00C3
:1093A0003CB40D0018B60D00F0B50D000000F07FC4
:1093B0000000A07CFFFFEF7F18F0100318BF6A23A6
:1093C000DFF8B493049350465946002318F0010F78
:1093D00004D0D9E90023FFF7CFF801235FEA68083A
:1093E00009F10809F2D10BB182468B46049BBBB14F
:1093F000CBF30A53C3F16B03002B594610DD1F2B2F
:1094000040F32881342BDEBF203B4FF0FF3202FABD
:1094100003F34FF0000ACCBF4FF05C7B03EA010B73
:109420000022002350465946FFF70EFB0028A4D126
:10943000099B00930A992B463A46204600F073FF99
:10944000099000283FF424AF079B9E1B089B002B2C
:10945000B4BF334600231093089B002523EAE3732F
:1094600018932E46099B2046596800F0D3FE0790BA
:1094700000283FF411AF099B1A69023203F10C0175
:1094800092000C30FFF7EEFB4BEC10AB20AA1FA9AB
:109490002046CDE90AAB01F035FA1E9000283FF4D2
:1094A000FBAE0121204600F0CCFF064600283FF429
:1094B000F3AE1F9B0499002BABBF109A189A189F0C
:1094C000DDF84090ACBF03EB0209D71A209AA3EB5A
:1094D00001089044A34B08F1FF389845C2F13602C9
:1094E00080F2CC80A3EB08031F2BA2EB03024FF00A
:1094F000010100F3B68001FA03F3119300230C93EA
:1095000009EB0208049BC14517441F444B46A8BF02
:109510004346BB42A8BF3B46002BC2BFA8EB030893
:10952000FF1AA9EB0309109B002B17DD31461A46E1
:10953000204601F02BF8064600283FF4ADAE014668
:109540001E9A204600F086FF0F9000283FF4A4AE3C
:109550001E99204600F092FE0F9B1E93B8F1000F5B
:1095600000F39180089B002B08DD189A079920468C
:1095700001F00CF8079000283FF48EAE002F08DDB4
:1095800007993A46204601F04FF8079000283FF42B
:1095900083AEB9F1000F08DD31464A46204601F09E
:1095A00043F8064600283FF477AE079A1E992046F6
:1095B00001F0B5F8054600283FF46EAEC3680F937E
:1095C0000023C360314601F08EF8002865DA0F9B56
:1095D00053EA0A0340F08780CBF31303002B40F0DB
:1095E00082802BF000431B0D1B05B3F1D66F7AD997
:1095F0006B6913B92B69012B75DD294601222046C1
:1096000001F012F83146054601F06DF800286ADDD8
:109610000499554A5B46002900F0858002EA0B0157
:10962000B1F1D66F7FDCB1F15C7F7FF7AAAE4F4A14
:109630000023CDE916325046DDE916235946FEF7E0
:109640009BFF0B46034308BF222382468B4608BF7D
:1096500023602BE64FF0FF3202FA03F303EA0A0A13
:10966000DEE6C8F17F4808F57F0808F57B4808F179
:10967000E20801FA08F30C93119141E700230C93DF
:10968000012311933CE71E994246204600F0CCFF8F
:109690001E9000287FF466AFFEE55F466ED10F9AFC
:1096A000CBF3130342B3324A934228D1049B504672
:1096B000EBB12D4A3A40B2F1D46F4FF0FF3119D8D7
:1096C000120DC2F16B0301FA03F3984217D1294B33
:1096D0009F4202D101303FF4DFAD234B3B4003F505
:1096E000801B4FF0000A049B002BA0D1DEE54FF059
:1096F000FF33EAE70B46E8E753EA0A0388D00C9BFE
:10970000DBB13B42EFD00F9B049A50465946C3B1A0
:10971000FFF758FB02460B46DDE90A01FEF776FD2E
:1097200082468B46DFE71340A3F580136FEA135B95
:109730006FEA0B5B4FF0FF3AD5E7119B13EA0A0F74
:10974000E0E7FFF73FFB02460B46DDE90A01FEF7C3
:109750005BFD0022002382468B46FFF775F9002847
:10976000C1D00EE602FCFFFF0000F07F0000503980
:10977000FFFF0F00FFFFEF7FB0B40D00314628461A
:1097800001F010F959EC108B10EE100A00224FF086
:1097900080434946FFF76CF900287CD00F9B002BD3
:1097A0004CD0954B0022CDE90C23DFF84C924FF0C2
:1097B0000008924B3B401193119A914B9A4240F012
:1097C000B280DDE90A23DDE90C01A7F1547B4BEC03
:1097D00010ABCDE91623CDE90C0101F017F8DDE956
:1097E0000C0153EC102BFEF7C7FE52465B46FEF70A
:1097F0000DFD0B468149834A1940914282465ED94C
:109800000B9B02F15472934203D10A9B01333FF444
:1098100043ADDFF8FCB14FF0FF3A1E99204600F04F
:109820002DFD0799204600F029FD3146204600F025
:1098300025FD2946204600F021FD13E6BAF1000F70
:109840001BD1CBF31303F3B96B4B002240464946BF
:10985000FFF704F9D0B9404649466B4B0022FEF7AA
:109860008BFE8046894609F10043CDF868801B9342
:10987000DDE91A23CDE90C239BE7BAF1010F02D1F0
:10988000002F3FF47EAD614B00228CE7DFF878912A
:109890004FF00008E7E75C4B404649460022FEF7E0
:1098A0006BFE0F9B8046894633B901F1004312904D
:1098B0001393DDE91223DDE7CDE91289F9E703F11E
:1098C000547B049B002BA8D12BF00043119A1B0D55
:1098D0001B059A42A1D14046494601F0FFF8FEF728
:1098E0001DFE02460B4640464946FEF78DFC0F9A88
:1098F000CBF3130343EA0A0313438046894653D04C
:1099000035A3D3E90023FFF7A9F800287FF4CEACF4
:1099100033A3D3E9002340464946FFF7BDF80028AA
:109920003FF47BAFC2E4049B33B3119BB3F1D46F1C
:1099300022D82DA3D3E9002340464946FFF798F8E3
:10994000A0B149464046FFF7B1F8012838BF0120D1
:10995000FEF798FD0F9B8046894613BB01F100433B
:1099600014901593DDE91423CDE90C230D9B119A76
:1099700003F1D6639B1A0D93DDE90C019DED0A0BF3
:10998000CDE90C0100F042FFDDE90C0153EC102B96
:10999000FEF7F2FDDDE90A23FEF738FC82468B462E
:1099A0008FE7CDE91489DDE711A3D3E90023FFF7A1
:1099B00055F8B4E700230E93199A1D9B1360FFF727
:1099C00065BA652B3FF45DAB452B3FF45AAB0122E2
:1099D000FFF792BBAFF300809535A094FFFFDF3F08
:1099E00035E5AF350000E03F0000C0FFFFFFDF417D
:1099F0009535A094FFFFCF3F0000F03F0000F07FBF
:109A00000000E07FFFFF9F7C0000E03F0000F0BF10
:109A1000FFFFEF7F0A4601460248034B0068FFF74D
:109A2000EFB900BF54E20320BCE203202DE9F04768
:109A30003A4E86468C4660461CF8014BA55D15F0F3
:109A40000805F8D12D2C33D19CF800404FF00108C7
:109A500000F1020C002B5CD0102B0CD1302C0AD161
:109A60009CF8000000F0DF0058284DD19CF8014020
:109A700010230CF1020C08F10047013F0026B7FB50
:109A8000F3F9304603FB197AA4F13005092D18D8F3
:109A90002C46A34224DD751C07D081451DD301D17E
:109AA000A2451ADB00FB034001261CF8014BEBE743
:109AB0002B2C08BF9CF80040A84608BF00F1020C00
:109AC000C8E7A4F14105192D01D8373CE1E7A4F11D
:109AD0006105192D04D8573CDBE74FF0FF36E4E76A
