:02000002D0002C
:1040000000400D0068B00D00000006000D00050125
:084010000401DB0700000000C1
:044018001C9C0D00DF
:1040200009480A49884208B505D0094A824202D0A7
:10403000121A03F0A1FE0748074A0021121A03F0E2
:10404000C3FE014808BD00BFB0E1032094AD0D00E0
:1040500058E4032058E40320F0E7032070B5074E2E
:10406000074C03F055F8A41BA4080025A54200D175
:1040700070BD56F8043B98470135F7E75CA50D0085
:1040800084A50D0000F036BC08B500F089FDBDE840
:10409000084002F0FFBF01F0D7BE01F0D5BE01F02D
:1040A000DBBE000008B5034A00210C2001F0BCFD76
:1040B000FEE700BF89590D000078B0FA80F0400992
:1040C0007047012303707047014B01221A7070473B
:1040D000D5E5032008B5044902F089FD18B1034B6A
:1040E00003221A70012008BD6B9C0D0078E50320A7
:1040F00010B5034B0360044601F0A8F9204610BD3B
:10410000209F0D0010B50446FFF7F2FF204638212E
:1041100003F009F9204610BD10B5034B03600446B7
:1041200000F08EFF204610BD489F0D0010B50446DC
:10413000FFF7F2FF2046102103F0F5F8204610BDEE
:1041400010B50446006808B101F086FE204610BD97
:104150000023042201F0D8BD37B504689DF818503B
:104160008DF800308DF80450E4683C23A04703B07C
:1041700030BD000037B51B4D0C4659B9EB782BB359
:10418000194B8DF800101B78184A19491948FFF788
:10419000E3FF1BE0084603F0DCFDC8380128EB789C
:1041A00016D84BB100238DF800300F4B124A1B7804
:1041B00012491048FFF7D0FF114A002300219160F7
:1041C0005380104A012111700F4A137003B030BDA3
:1041D000002BFBD000238DF80030034B22461B78C8
:1041E000D3E700BF7CE5032068E403206D9C0D004D
:1041F000759C0D0008E50320829C0D00949C0D0029
:1042000070E4032088E40320B0E4032037B51249AA
:10421000054602F0ECFC044678B1104B104A01242C
:10422000DC7000238DF800300E4B1B780E490F48D0
:10423000FFF792FF012003B030BD0D49284602F080
:10424000D6FC0028F7D0054B0A4ADC70054B8DF8E8
:1042500000401B78EAE700BF6B9C0D007CE5032063
:104260009A9C0D0068E40320BD9C0D0008E5032026
:10427000AB9C0D00AD9C0D0007B501F05DFD48B194
:1042800000238DF800300A4B0A4A1B780A490B4874
:10429000FFF762FF0A4A0B4800230121D3705371D4
:1042A0001823117003B05DF804EB00F084BF00BF69
:1042B00068E40320C29C0D00BD9C0D0008E50320AE
:1042C0007CE50320B4E4032007B501F035FD48B1D7
:1042D00000238DF800300C4B0C4A1B780C490D481C
:1042E000FFF73AFF0C4A0D4B93604FF08043D360C9
:1042F0000B4B13610B480C4B53615021182303B037
:104300005DF804EB00F057BF68E40320DA9C0D0071
:10431000BD9C0D0008E5032070E403200000F0417F
:104320000000B442B4E403200000A04010B50F4CDC
:10433000A378012B04D901F0FFFCA0B10123A370E5
:10434000E378012B84BF0023E3706379012B84BFE2
:10435000002363712369FF2B84BF00232361044B77
:1043600001221A7010BDA070EAE700BF7CE50320AF
:1043700094E50320224B93ED037AB5EEC07AF1EE7B
:1043800010FAF3EE047A04D4B4EEE77AF1EE10FA00
:1043900001DD1C4ADA6093ED027AB4EEE77AF1EEC1
:1043A00010FA08D4D3ED036A9FED177AF4EEC76ACA
:1043B000F1EE10FA01DD154ADA6093ED057AB5EEFB
:1043C000C07AF1EE10FA04D4B4EEE77AF1EE10FA06
:1043D00001DD0F4A5A6193ED047AB4EEE77AF1EE0B
:1043E00010FA06D4DFED0B7AB4EEE77AF1EE10FAAC
:1043F00001DD064A1A61084B01221A70704700BF9E
:1044000070E4032000004040000070420000F041D2
:10441000000050410000B44288E4032008B50121A7
:10442000052002F00EFF0021052002F00AFF024BDA
:1044300000221A7008BD00BFD5E5032000B5144B5B
:10444000A1B09A690492D3E90401CDE90201D3E94C
:1044500002236421CDE9002307A80E4A01F014FDD0
:1044600000238DF800300C4B0C491B780C4807AA30
:10447000FFF772FE02F0D4FC0A4B18600A4B0122CF
:104480001A7001F089FA094B186021B05DF804FB3D
:1044900048E50320F19C0D0068E40320269D0D00F3
:1044A00008E50320ACE40320B0E40320D8E50320B2
:1044B00038B50B4D044601F06FFA2B68C01AB0F501
:1044C0007A7F0CD9A4B2204602F0D4FEB0FA80F173
:1044D0004909204602F0B5FE01F05EFA286038BDB9
:1044E0006CE4032030B5134D134C14492A7820781E
:1044F0008DB01A2303FB0212009203FB0013104A33
:10450000282102A801F0C0FC2B78237001F014FCD4
:1045100048B100238DF800300A4B0B491B780B483B
:1045200002AAFFF719FE02F069FD02A902F09FFA44
:104530000DB030BD78E5032004E50320B0E1032091
:104540003C9D0D0068E403204A9D0D0008E5032012
:1045500013B5154CA06803F053F8144ACDE90001D7
:104560001821134801F090FCE06803F049F8114A63
:10457000CDE900011821104801F086FC206903F004
:104580003FF80E4ACDE9000118210D4801F07CFCEE
:10459000606903F035F80B4ACDE9000118210A489B
:1045A00001F072FC02B010BD70E403205B9D0D00B1
:1045B000BDE503206C9D0D00ECE403207D9D0D0006
:1045C000A5E50320919D0D00D4E4032000B589B03A
:1045D000039002F037FB0D4B039983ED020A04A808
:1045E00002F0FAFA00238DF80030094B049A1B7888
:1045F00008490948FFF7B0FD04A802F07FFAFFF769
:10460000A7FF012009B05DF804FB00BF70E40320A0
:1046100068E40320A69D0D0008E5032000B589B0DD
:10462000039002F00FFB0D4B039983ED030A04A8DE
:1046300002F0D2FA00238DF80030094B049A1B785F
:1046400008490948FFF788FD04A802F057FAFFF768
:104650007FFF012009B05DF804FB00BF70E4032078
:1046600068E40320BA9D0D0008E5032000B589B079
:10467000039002F0E7FA0D4B039983ED040A04A8B6
:1046800002F0AAFA00238DF80030094B049A1B7837
:1046900008490948FFF760FD04A802F02FFAFFF768
:1046A00057FF012009B05DF804FB00BF70E4032050
:1046B00068E40320A69D0D0008E5032000B589B03D
:1046C000039002F0BFFA0D4B039983ED050A04A88D
:1046D00002F082FA00238DF80030094B049A1B780F
:1046E00008490948FFF738FD04A802F007FAFFF768
:1046F0002FFF012009B05DF804FB00BF70E4032028
:1047000068E40320BA9D0D0008E5032030B585B0AC
:104710000D4600226946009201F096FAB0B9009C5D
:104720000CB1236923B90A4A00210A2001F07CFA5E
:104730000023ADF806300C23ADF8043004230393B6
:104740000295236901AA01212046984705B030BD92
:1047500089590D0030B50E4D0FCD89B001AC0FC495
:1047600095E8070084E8070069460720FFF7CEFFB9
:104770000028A8BF0098074A08AB03EB800010216F
:1047800050F81C3C044801F07FFB09B030BD00BF6D
:104790005C9F0D00479D0D0089E403202DE9FF413A
:1047A000494D4A4800242C7000F02EFCB5EE400A1A
:1047B000F1EE10FA74D0454800F026FC10EE100A15
:1047C00002F01EFF424AC5E90201CDE900011021B5
:1047D000404801F059FB3D4800F024FC10EE100A5F
:1047E00002F00EFF3C4AC5E90401CDE900011021A9
:1047F0003A4801F049FB03A90320FFF787FF00288F
:104800005DD1BDF80C3007EE903AFBEECC7AFDEEB0
:10481000E77A334C334A3448C5ED067A17EE903ABE
:10482000102101F031FBE06802F0EAFED5E90267F1
:1048300002460B463046394603F0ACF9A046002844
:1048400040D0012488F80140D8F8080002F0D8FED2
:1048500002460B463046394603F0BAF910B101243E
:1048600088F80040D8F8140002F0CAFED5E90467C1
:1048700002460B463046394603F08CF910B101244C
:1048800088F80340D8F8100002F0BAFE02460B4642
:104890003046394603F09CF910B1012488F80240F3
:1048A0000126FFF757FF2E7002F0A9FA0F4B686040
:1048B0001E700F4B20461E7004B0BDE8F081FFEE65
:1048C000007AA4E70446BFE748E503206CE503202F
:1048D000CE9D0D0095E50320D69D0D00C4E4032078
:1048E00070E40320DE9D0D0099E4032068E50320B9
:1048F00088E40320F0B50021BBB0082002F090FC52
:104900000121052002F08CFC0121072002F088FC27
:10491000FFF784FD0023009301224FF0FF3372491B
:10492000082001F021FF714B0AAA03F11005174678
:1049300018685968144603C40833AB422246F7D1BD
:1049400019889B78A37021802D220021684C694E24
:104950000DF13B0003F038FA002502A8257001F0A4
:10496000F3F92B467D221AA902A802F052F92B4630
:104970002A466149CDE900551AA801F0F5F95F49C9
:104980005F48FFF7E5FB5F495F48FFF7E1FB5F49E1
:104990005F48FFF7DDFB5F495F48FFF7D9FB5F49E1
:1049A0005F48FFF7D5FB5F495F48FFF7D1FB5F49E1
:1049B0005F48FFF7CDFB5F495F48FFF7C9FB5F49E1
:1049C0005F48FFF7C5FB5F4A5F49604801F081FB24
:1049D0005F4A60495D4801F07CFB5F4A5F495B4884
:1049E00001F077FB5E4A5F49584801F072FB5E4A6E
:1049F0005E49564801F06DFB5D495E4A534801F03F
:104A000068FB02F0FCF90246C31706A802F0A2F9FF
:104A100059493378069A59488DF80050FFF79CFBA6
:104A200006A802F06BF85648442100F058FA48B93D
:104A30005449384603F0FEF90123237000F0ACFF1F
:104A4000514B1860514800F029FB01234F4806AA3A
:104A5000002100F065FB9DF81830032B36D04B4841
:104A600000F026FB4A4A49480423002100F0A3FB3A
:104A70000123464806AA002100F052FB9DF8183099
:104A8000032B1ED001232370FFF750FCFFF772FCAD
:104A9000FFF784FEFFF75CFD3E4BDB7843B100235C
:104AA0008DF800303C49337834483A46FFF754FBE0
:104AB00023780BB90223237002A802F01FF83BB041
:104AC000F0BDFFF7D9FBFFF7FFFBDDE7314A2F48C9
:104AD0001823012100F024FB304A2C4818235021D0
:104AE00000F01EFBD0E700BFC9400D00789F0D000D
:104AF00078E5032068E4032075410D00B89F0D00A0
:104B0000E49D0D0095E50320EC9D0D00C4E4032019
:104B1000F89D0D00BDE50320019E0D00ECE403208F
:104B2000139E0D00A5E50320259E0D00D4E403206F
:104B3000349E0D0099E40320439E0D0089E4032078
:104B40004B9E0D005A9E0D00D5400D00A7600D0034
:104B5000669E0D000D420D00739E0D00CD450D00AB
:104B6000849E0D001D460D00959E0D00BD460D0056
:104B70006D460D00AA9E0D00BE9E0D0008E50320A7
:104B80006CE50320C39E0D0040E50320B4E4032040
:104B9000C09F0D007CE50320E09E0D0070E4032023
:104BA00073B5714C714D2378013B042B20D8DFE89D
:104BB00003F0B2034C6687006D4BDB782BB16D4B75
:104BC0001B78022B01D0FFF78DFC02F029F96A4B0C
:104BD0001B68984202D00323237009E002F00FF90A
:104BE0004FF4966390FBF3F202FB1303002BF2D019
:104BF000624B1B780BB1FFF711FC2B7813B1072028
:104C0000FFF756FC5E4C23783BB11823584A5D48A9
:104C1000012100F0D0FA002323705B4C23783BB1D4
:104C200018235A4A5748502100F0C5FA0023237030
:104C3000574C23783BB12023564A5248A02100F01C
:104C4000BAFA0023237002B070BD494BDB782BB158
:104C5000484B1B78032B01D0FFF744FC02F0E0F82F
:104C6000454B1860FFF79AFD014618B101232B70E0
:104C70000423B1E72870072002F0E3FAF8E73C4B81
:104C8000DB782BB13B4B1B78042B01D0FFF72AFCC0
:104C900001F052F868B102F0C3F80C2805D101F018
:104CA0004BF810B1002001F067F8FFF7C7FB0523B0
:104CB00092E70123237000F06FFE374B186097E7EF
:104CC0002B4BDB782BB12B4B1B78052B01D0FFF73F
:104CD00009FC324B1B780BB902237DE700F05CFE28
:104CE0002F4B1B68C01A4AF6C873984280D900F04F
:104CF00053FE00238DF80030274E2A4B2A4A1B789A
:104D00002A4930602A48FFF727FA0123237000F070
:104D100043FE30606CE7164BDB782BB1154B1B78EC
:104D2000012B01D0FFF7DEFB00F036FE1A4B1B68AB
:104D300003F5922303F578738342BFF459AF00F073
:104D4000FBFF48B100238DF80030164B194A1B7841
:104D500019491748FFF700FA4FF4FA6001F0BCF860
:104D600001F092FF44E700BF78E50320B1E403209F
:104D70007CE5032004E50320ACE40320D5E5032013
:104D800094E50320B4E4032088E4032070E40320C6
:104D900068E5032048E5032040E50320B0E4032054
:104DA000D8E5032068E40320ACA20D00E89E0D00C6
:104DB00008E50320019F0D00949C0D00F8B5274BDA
:104DC000274D284F01261E7002F0D4F900231A4601
:104DD00043F2710102F0D6F902F0CCF900231A4631
:104DE0000B2102F0D7F900241F4BAB602C60AC8084
:104DF000AC71304600F03AFF3A461C49284602F0B2
:104E00008DFA2146304600F041FF3146042000F083
:104E1000A3FD1748174D00F03FF802F057FA23465C
:104E200001464FF40052284600F02EF9124C134B65
:104E30002B603A461249284602F070FA11494FF4A5
:104E40000062204600F02AFC0F4B23603A462046C1
:104E50000E49BDE8F84002F061BA00BF68E40320E3
:104E60005CE4032058E403200000FFFF41410D00F3
:104E70006CE50320B4E4032008E50320489F0D00FF
:104E800019410D0000F40320209F0D00F1400D009A
:104E90000368C9B29B681847704738B505460C4689
:104EA00002F014FA297801F03DFC02F00FFA210A11
:104EB000FFF7EEFF02F00AFAE1B2FFF7E9FF02F0B6
:104EC00005FABDE8384001F038BC08B543F2A2014C
:104ED000FFF7E3FFBDE808400A2000F0FDBF38B54A
:104EE00004460D4602F0F2F901F0EAFB2046257077
:104EF000FFF7EBFF012038BD0A44FF2091420ED09E
:104F000011F8013B5840082310F0800F4FEA400091
:104F100018BF80F03100013BC0B2F5D1EEE7704719
:104F200073B54FF410510546FFF7B7FF4FF4FA7011
:104F300000F0D2FF02F0CAF92978062201F0EFFB57
:104F400002F0C4F903681B69984706284BD16E46E6
:104F5000044602F0BBF903685B699847013C14F012
:104F6000FF0406F8010B6946F3D102222846FFF739
:104F7000C3FF9DF80260864235D102220DF1030184
:104F80002846FFF7B9FF9DF8056086422BD1BDF892
:104F90000000BDF8034040BA80B202F00FFB18A336
:104FA000D3E9002302F084FB11A3D3E9002302F02C
:104FB000A9FC114B002202F0C3F902F033FEA860F5
:104FC00060BA80B202F0FAFA0C4B002202F070FBD9
:104FD00007A3D3E9002302F095FC02F023FE6860EA
:104FE000012002B070BD0020FBE700BFAFF30080DE
:104FF00000000000E0FFEF40008046400000594004
:105000000000000000E0654010B50446FFF788FF8F
:1050100010B194ED020A10BD9FED010AFBE700BF3D
:105020000000C07F10B50446FFF77AFF10B194ED81
:10503000010A10BD9FED010AFBE700BF0000C07F21
:10504000704710B51021044602F06DF9204610BDDE
:105050000368C9B29B6818470EB410B58DB00FAA8B
:10506000016852F8044B039200232020CDE9040389
:10507000CDE900421E2004AA00F0DEFD0DB0BDE81F
:10508000104003B07047000030B5034DC0E9022363
:10509000C0E9005130BD00BFF89F0D00406801F02D
:1050A0000FBB10B50446006801F053FB204610BD4D
:1050B0002DE9F0418AB004464068019001F040FBC0
:1050C0001E22002102A8A76802F07EFE0026EFB192
:1050D00023681E2FB84628BF4FF01E08DD6802AABD
:1050E000434631462046A847054658B90A480B4969
:1050F0003246FFF7B1FF01A8FFF7D3FF28460AB0F9
:10510000BDE8F081A7EB08074644E0E701A8FFF7F8
:10511000C8FF0125F2E700BF1CE60320C49F0D0075
:105120002DE9F7430446406801900D4616461F4698
:1051300001F006FBA7B1E168606841F0500101F0A1
:10514000F5FA290A6068FFF783FF29466068FFF7D0
:105150007FFF6068002101F0ECFA48B1002400E014
:10516000012401A8FFF79DFF204603B0BDE8F083AE
:10517000202F217B6068B84628BF4FF0200801230C
:10518000424641F0500101F0B8FA02F09FF803687E
:105190001B6998474045E1DB06EB080902F096F8E9
:1051A00003685B69984706F8010B4E45F6D1454404
:1051B000A7EB0807BEE72DE9F74F044640680190CA
:1051C0000E4690461D4601F0BBFA4FF00109B9F1B9
:1051D000000F2AD04DB3E168606841F0500101F042
:1051E000A5FA310A6068FFF733FF60683146FFF7C0
:1051F0002FFFA5F11E0A4746A6EB080B606817F8BB
:10520000011B0368013D9B68984755450BEB07065A
:10521000B84601D0002DF1D16068012101F089FA72
:105220000028D7D04FF00009D1E701A8FFF739FFD8
:10523000484603B0BDE8F08F2DE9F0438BB00E4631
:1052400015468046406801901C4601F079FAAE424E
:1052500029D2264425448CB11E2C2746D8F800308C
:1052600028BF1E27F61BD3F8089002AA3B463146FA
:105270004046ED1BC84748B9002400E0012401A8BE
:10528000FFF70FFF20460BB0BDE8F083D8F80030E1
:1052900002AAD3F80C9029463B464046C84700284E
:1052A000EAD0E41BD7E7E9D9002CE7D0D8F80030E2
:1052B0001E2C274628BF1E27D3F8089002AA3B467B
:1052C00031464046C8470028D6D0D8F8003002AA58
:1052D000D3F80C9029463B464046C8470028CBD01F
:1052E0003E443D44E41BDFE7012A034602D101604E
:1052F00000207047022A04BFD1E90001C3E9000180
:10530000F6E710B5012303748368044643B1C0680F
:105310009847012363740020BDE8104000F014BBDF
:1053200000680028F5D083680BB902F002F8C36862
:10533000EEE710B442680346541001EB6200D20756
:1053400048BF0A591B685DF8044B48BFD35818473B
:1053500010B58368044613B10322014698472046DE
:1053600010BD00000123F7B580F82930064608304B
:1053700000F0C2FA0420FEF78EFE054698B31B49E2
:10538000142001F0D2FF30B10023C0E90033C0E99E
:105390000233037443742860A0B1154B1549C0E96A
:1053A00002364FF40063CDE900030222124B0430B1
:1053B00000F092FA30B92B681B7CA3B9012000F0F1
:1053C000DBFAF8E72C6800232B6064B1276837B15B
:1053D0003846FFF7BDFF1021384601F0A4FF142125
:1053E000204601F0A0FF756003B0F0BD8CA20D0057
:1053F00003560D000CA00D0003530D0047F2305171
:10540000084AC160084902600022C0E90412074945
:10541000C16107494260C0E908228161028580F8C4
:105420002A207047D0A00D006D570D0033530D009A
:10543000E9520D0010B5044B044640F8103BFFF74D
:1054400087FF204610BD00BFD0A00D0010B5034B54
:1054500003600446FFF7EEFF204610BDF8A00D00E4
:1054600010B50446FFF7F2FF2046382101F05BFF3C
:10547000204610BD806800F047BA806800F04CBA42
:1054800010B504460068FFF7F8FF204610BD13B5BD
:1054900004460190FFF7EEFFE36ADC88A4B20CB18A
:1054A00003F1080401A8FFF7EBFF204602B010BD8E
:1054B00013B504460190FFF7DDFF94F8283043B997
:1054C000E26A0124D38001A8FFF7DAFF204602B088
:1054D00010BD0024F7E713B504460190FFF7CAFF9B
:1054E000E36A01A8DC88FFF7CBFF204602B010BDBD
:1054F0002DE9F047994686B090F829309DF838A0FC
:105500009DF83C8004460F46164613B903689B6815
:105510009847314B3846002E08BF1E4602F0AFFCBC
:105520000546304602F0ABFC284400F10A05AB0703
:105530001CBF25F0030504353346CDE90285CDE9CE
:10554000009A264926483A46FFF786FD238E083BF7
:10555000AB4212D20024204606B0BDE8F087CB88CB
:10556000012B36D005A8FFF78BFF236894F828108D
:105570009B69204698470028ECD020460594FFF709
:1055800079FFE16A228E636B0A44D21AAA42E6D3FB
:1055900048EA0A0883F80480C3F80090636B03F1BB
:1055A00008083946404602F045FC404602F067FCD8
:1055B00001303146404402F03DFC636BE26A1D4419
:1055C0006563D3880133D380012405A8FFF758FF12
:1055D000C1E70024F9E700BFACA20D001EA00D003A
:1055E000DCE5032008B5044600F11005A3690BB9FA
:1055F00001F09FFEE36921462846984700F074F9C0
:10560000F4E708B5FFF7EEFF68B501F108050646B7
:10561000284602F034FC01300544284602F02FFCF5
:10562000F36A01302844C31A13F003031CBFC3F10B
:105630000403C01868BDF7B504460E460190FFF795
:1056400019FFE76AFB8807F10805E6B1012B22D9AB
:1056500029462046FFF7D8FF054629462046FFF792
:10566000D3FF228E3A44121A0146A0EB050602D05F
:10567000284602F08FFB636B9B1B6363FB88013B37
:10568000FB80012601E0002BE7D101A8FFF7F8FE1F
:10569000304603B0F0BD0026F7E700002DE9F047E3
:1056A0000D4604462F461646FFF7A8FE154B57F841
:1056B000082B2360144BE5629A422686984617D140
:1056C000AB889BB2B34213D105EB060A67634FF078
:1056D0000009EB881FFA89F29BB29A420ED2616BE5
:1056E0002046FFF791FF5045606309F10109F0D9A9
:1056F0000023C5F800806763AE80EB802046BDE8DC
:10570000F08700BFF8A00D0061AB9CD110B5D1E9C6
:10571000002386B00021044604910AB9D90705D5B3
:10572000CDE902230F4B05930F4B049302AB93E893
:1057300003006A4682E8030094E8030083E803005C
:1057400092E80300049A84E80300A168A260059A25
:1057500004911846E168E2600591FFF7F9FD2046E3
:1057600006B010BD33530D00E9520D0007B5054BCF
:1057700000936946002310300193FFF7C7FF03B081
:105780005DF804FBB5570D0013B5044600F004F9AD
:10579000636AC01AE368984208D3054B00936946D0
:1057A000002304F110000193FFF7B0FF02B010BD19
:1057B000B5570D002DE9F04190F82A3086B0044627
:1057C000002B64D100F0B8FA002860D000F0E4F8B3
:1057D000636AC01A40F2F133984258D923682046D0
:1057E0005B6998470546002851D000F1080701235E
:1057F00084F82830384602F042FB95F80480CDF852
:10580000048001302B682B4900933E1833462A4808
:105810003A46FFF721FC2B688DF800803246394666
:1058200002A800F05BFD029D6B781BB9012000F01F
:1058300053FBF8E7002000F031FA20B16B7813B980
:1058400000F072FAFAE72B78012B23D11B491A4892
:10585000FFF702FC236800219B692046984700233C
:1058600084F8283000F098F86062039C7CB163688B
:10587000013B63605BB9236820469B689847A36837
:10588000013BA3601BB923682046DB68984706B03C
:10589000BDE8F081E2680A490748FFF7DDFB094BE4
:1058A000049304A9002304F110000593FFF72EFFD1
:1058B000D5E700BF5FA00D00DCE5032080A00D0050
:1058C00097A00D0089570D00014B024A1A607047DE
:1058D000DCE50320BEA00D0008B5024B1B685B6829
:1058E000019308BD4802030008B5024B1B68DB6842
:1058F000019308BD4802030008B5024B1B681B6BEF
:10590000019308BD4802030008B5024B1B689B6B5E
:10591000019308BD4802030008B5024B1B681B6CCD
:10592000019308BD4802030008B5024B1B685B6C7D
:10593000019308BD4802030008B5024B1B689B6C2D
:10594000019308BD4802030008B5024B1B68DB6EDB
:10595000019308BD4802030008B5024B1B685B6E4B
:10596000019308BD3402030008B5024B1B685B6855
:10597000019308BD1802030008B5024B1B689B6821
:10598000019308BD1802030008B5024B1B68DB68D1
:10599000019308BD1802030008B5024B1B685B6940
:1059A000019308BD1802030008B5024B1B689B6DEC
:1059B000019308BD1802030008B5024B1B685B6E1B
:1059C000019308BD1802030008B5024B1B689B68D1
:1059D000019308BD2C02030008B5024B1B68DB686D
:1059E000019308BD2C02030008B5024B1B681B691C
:1059F000019308BD2C02030008B5024B1B685B69CC
:105A0000019308BD2C02030008B5024B1B689B697B
:105A1000019308BD2C02030008B5024B1B68DB692B
:105A2000019308BD2C02030008B5024B1B68DB681C
:105A3000019308BD2802030008B5024B1B689B694F
:105A4000019308BD2802030008B5024B1B68DB69FF
:105A5000019308BD2802030008B5024B1B681B6AAE
:105A6000019308BD2802030008B5024B1B685B6A5E
:105A7000019308BD2802030008B5024B1B689B6A0E
:105A8000019308BD2802030008B5024B1B68DB6ABE
:105A9000019308BD2802030008B5024B1B681B6B6D
:105AA000019308BD2802030008B5024B1B685B6B1D
:105AB000019308BD2802030008B5024B1B681B6C4C
:105AC000019308BD2802030008B5024B1B689B6CBC
:105AD000019308BD2802030008B5024B1B68DB6C6C
:105AE000019308BD2802030008B5024B1B681B6D1B
:105AF000019308BD2802030008B5024B1B685B69CF
:105B0000019308BD6402030008B5024B1B689B6843
:105B1000019308BD6802030008B5024B1B68DB68EF
:105B2000019308BD6802030008B5024B1B68DB69DE
:105B3000019308BD3002030008B5024B1B681B6AC5
:105B4000019308BD3002030008B5024B1B681B68B7
:105B5000019308BD3C02030008B5024B1B68DB68DB
:105B6000019308BD3C02030008B5024B1B681B698A
:105B7000019308BD3C02030008B5024B1B685B693A
:105B8000019308BD3C02030008B5024B1B689B69EA
:105B9000019308BD3C02030008B5024B1B68DB699A
:105BA000019308BD3C02030008B5024B1B681B6A49
:105BB000019308BD3C02030008B5024B1B689B6AB9
:105BC000019308BD3C02030008B5024B1B681B682B
:105BD000019308BD4C02030008B5024B1B681B690A
:105BE000019308BD4C02030008B5024B1B685B69BA
:105BF000019308BD4C02030008B5024B1B689B696A
:105C0000019308BD4C02030008B5024B1B68DB6919
:105C1000019308BD4C02030008B5024B1B681B6AC8
:105C2000019308BD4C02030008B5024B1B685B6B77
:105C3000019308BD6002030008B5024B1B685B6D51
:105C4000019308BD6002030008B5034B1B68D3F83D
:105C50009830019308BD00006002030008B5024BB4
:105C60001B681B68019308BD2002030008B5024BA6
:105C70001B685B68019308BD2002030008B5024B56
:105C80001B685B69019308BD2002030008B5024B45
:105C90001B68DB6A019308BD2002030008B5024BB4
:105CA0001B68DB6C019308BD2002030008B5024BA2
:105CB0001B685B6D019308BD2002030008B5024B11
:105CC0001B689B6D019308BD2002030008B5034BC0
:105CD0001B68D3F88830019308BD00002002030040
:105CE00008B5034B1B68D3F89430019308BD00003E
:105CF0002002030008B5034B1B68D3F8B0300193B2
:105D000008BD00002002030008B5024B1B681B6899
:105D1000019308BD4402030008B5024B1B685B6891
:105D2000019308BD4402030008B5024B1B689B6841
:105D3000019308BD4402030008B5024B1B685B6970
:105D4000019308BD4402030008B5024B1B68DB69E0
:105D5000019308BD4402030008B5024B1B681B6A8F
:105D6000019308BD4402030008B5024B1B685B6A3F
:105D7000019308BD4402030008B5024B1B68DB6AAF
:105D8000019308BD4402030008B5024B1B681B6B5E
:105D9000019308BD4402030008B5024B1B68DB6B8E
:105DA000019308BD4402030008B5024B1B685B6801
:105DB000019308BD4002030008B5024B1B689B68B5
:105DC000019308BD4002030008B5024B1B68DB6865
:105DD000019308BD4002030008B5024B1B681B6914
:105DE000019308BD4002030008B5024B1B685B69C4
:105DF000019308BD4002030008B5024B1B689B6974
:105E0000019308BD4002030008B5024B1B68DB6923
:105E1000019308BD4002030008B5024B1B681B6AD2
:105E2000019308BD4002030008B5024B1B681B6BC1
:105E3000019308BD4002030008B5024B1B685B6B71
:105E4000019308BD4002030008B5024B1B681B68A4
:105E5000019308BD1C02030008B5024B1B685B6878
:105E6000019308BD1C02030008B5024B1B689B6828
:105E7000019308BD1C02030008B5024B1B681B6997
:105E8000019308BD1C02030008B5024B1B68DB69C7
:105E9000019308BD1C02030008B5024B1B68DB6AB6
:105EA000019308BD1C02030008B5024B1B681B6B65
:105EB000019308BD1C02030008B5024B1B685B6C14
:105EC000019308BD1C02030008B5024B1B68DB6C84
:105ED000019308BD1C0203000021FFF7CFBE10B5DF
:105EE000836804460BB901F024FAC3689847A36895
:105EF0001BB1032221462046984720461021BDE8C9
:105F0000104001F010BA10B5036804469B6898472A
:105F1000A368013BA3602BB923682046DB68BDE87A
:105F20001040184710BD10B50446006808B1FFF7CF
:105F300003FD204610BD0B68036013B15A6801329F
:105F40005A60704710B50446006828B14368013BA9
:105F500043600BB9FFF7D7FF204610BD10B5064CC4
:105F6000002320462360FFF7DFFC2046034A044954
:105F7000BDE8104001F0D2B9E0E5032058E4032069
:105F8000275F0D00002240681146FFF725BF002261
:105F900040681146FFF740BF002240681146FFF7F6
:105FA0004BBF40680022FFF73FBF4068002281F0EE
:105FB0000101FFF729BF002340681A461946FFF781
:105FC0001BBF002340681A461946FFF70DBF002289
:105FD00040681146FFF7F0BE406800220221FFF73B
:105FE000F3BE002340681A46FFF7DEBE084B10B52B
:105FF000282422461846002101F0E6FE054B0480C5
:106000004FF0FF32426004225A60034A1A6010BD0A
:10601000ECE50320E4E5032020A10D0070470020FB
:10602000704710B51021044601F07DF9204610BDDF
:1060300008B5FFF7F6FF08BD30B500224FF69C7497
:10604000026084808D888C800C68858004600A6082
:1060500030BD10B504460068FFF7FEFE204610BDB7
:1060600038B5C468F4B12378022B03D104F10C00D5
:10607000FFF7EFFF656835B12846FFF769F9102192
:10608000284601F050F9A56835B12846FFF760F9B8
:106090001021284601F047F920461421BDE8384078
:1060A00001F041B938BD10B588B00446684600F02B
:1060B00070FD694604A800F08FFD04A8A0470446BF
:1060C00004A800F01BFD684600F018FD204608B04B
:1060D00010BD1FB50023CDE90201019210241A461C
:1060E00069461846ADF80230ADF80040FFF714FEDF
:1060F00004B010BD73B50E46044656F8043B009339
:106100000D4601A83146FFF716FF019A009B626019
:10611000236001A8002301930093FFF713FF30468B
:10612000FFF710FF2846082101F0FDF8204602B0D5
:1061300070BD13B50B460246D0E900016C4684E8F9
:10614000030093E8030082E8030094E8030083E877
:10615000030002B010BD826810B50AB901F0E9F879
:10616000BDE81040C368184708B5006800F1100189
:10617000FFF7F1FF08BD826810B50AB901F0D9F840
:10618000BDE81040C368184708B5006800F1100169
:10619000FFF7F1FF08BD000038B500230446036097
:1061A00010200D46FDF777FF28B10123C0E9013328
:1061B000024B0360C5602060204638BD54A10D002D
:1061C00038B5002383608B6804460D462BB102224C
:1061D0009847EB68E360AB68A360204638BD0000D9
:1061E000F0B589B004686846FFF726FF4FF0020358
:1061F000D4E84F2F002A03D1C4E8413F0029F7D14A
:1062000025D104F10C0569462846FFF715FFBFF3B9
:106210005B8F01236370002004F10803BFF35B8FE1
:1062200053E8006F43E80002002AF9D1BFF35B8F07
:106230006EB1FFF733FD78B129463046FFF78BFF8B
:106240003046FFF785F81021304601F06CF86846BB
:10625000FFF7FFFE09B0F0BD314602A8FFF7B0FF1F
:10626000E068B4F9105008B101F0ECFD0690102080
:10627000ADF81C50FDF70FFF0546E8B10027876019
:106280001820FDF708FF044688B10146876002A880
:10629000FFF74FFF049BA268A360059B049206A929
:1062A000E268E36004F110000592FFF7C5FE084BB9
:1062B000EB60084B2C60AB6006A8FFF7CAFE02A893
:1062C000FFF746F8002229460348FFF7EFFCB7E73F
:1062D00069610D0001640D00DF5E0D002DE9F047DE
:1062E0008AB005469DF848900C4617469846FFF739
:1062F00023FD07AE824638BB4FF62E73059005A9E5
:106300003046ADF81830FFF797FE1420FDF7C3FEB6
:10631000044648B1022303700123C0E901AA437077
:1063200031460C30FFF788FE2846214640F8044BE2
:10633000FFF732FF3046FFF78CFE05A8FFF789FE16
:1063400028460AB0BDE8F0870C234FF0000A14205D
:10635000CDE908AA0793FDF79EFE014628B1C0E9E2
:1063600001AA80F800A080F801A004A80391FFF71B
:1063700013FF224B08930820FDF78DFE824628B1BB
:10638000039B40F8043B04A9FFF7D5FD00965FFA94
:1063900089F3424639462046CDF824A0FFF7DCFCBD
:1063A000B8B9039B5B7803F0FF0293B94FF69C7377
:1063B00005A903A80592ADF81830FFF711FF05A84D
:1063C000FFF747FE05A80999FFF794FE06A8FFF717
:1063D000B9FD039B059304A906A8FFF7ACFD059B37
:1063E000069A2B606A60002306A806930593FFF7C0
:1063F000A9FD04A8FFF7A6FDA2E700BFC5640D0034
:10640000022AF8B5054607D0032A18D0012A01D17F
:106410000B6803600020F8BD18200E68FDF73BFEF6
:10642000044650B13146FFF7CBFE3069B6F914701F
:1064300008B101F007FD2061A7822C60EAE704683B
:10644000002CE7D004F11000FFF703FE2046FEF712
:106450007FFF1821204600F066FFDBE738B50023F8
:1064600083608B6804460D462BB102229847EB6887
:10647000E360AB68A360204638BD022A70B50446CD
:1064800007D0032A12D0012A01D10B680360002033
:1064900070BD14200E68FDF7FEFD054620B13146A3
:1064A000FFF7DCFF337C2B742560F0E70468002CD9
:1064B000EDD02046FEF74CFF1421204600F033FFBC
:1064C000E5E70000F0B589B004460D4601A8114685
:1064D000FFF710FEA4B124B21DB1284601F0B2FCB2
:1064E000054601A803A90395ADF81040FFF778FE13
:1064F00003A8FFF7AEFD02A8FFF724FD09B0F0BD29
:10650000019D0123D5E84F2F002A03D1C5E8413F63
:106510000029F7D1EFD12B73BFF35B8F6B702B1D6D
:10652000BFF35B8F53E8006F43E80042002AF9D1C4
:10653000BFF35B8F002EDED02046FFF7AFFB074690
:1065400060B105F10C013046FFF715FE3046FEF74D
:10655000FFFE1021304600F0E6FECCE7314603A8EE
:10656000FFF77CFF2B7B8DF81C301020FDF793FD8F
:106570000546D0B187601420FDF78DFD044678B143
:106580008760014603A8FFF7D4FD059BA268A360BE
:10659000069B0592E268E3609DF81C300692237426
:1065A000064BEB60064B2C60AB6003A8FEF7D0FEF9
:1065B000002229460348FFF779FBC7E789610D00F0
:1065C0007B640D00DF5E0D00002240681146FFF77E
:1065D00023BC002240681146FFF72EBC4068002211
:1065E000FFF722BC4068002281F00101FFF70CBCDC
:1065F000002340681A461946FFF7FEBB0023406897
:106600001A461946FFF7F0BB002240681146FFF713
:10661000E3BB002240681146FFF7CEBB4068002272
:106620000221FFF7D1BB002340681A46FFF7BCBB2D
:10663000024B03225A60024A1A60704714E6032094
:1066400070A10D007047F8B5064615460C468F1828
:10665000BC4206D0336814F8011B9B68304698474B
:10666000F6E72846F8BD007C0022FFF7F5B9007C6C
:106670000021FFF7F9B9007C0021FFF7FDB9007C8C
:106680000021FFF701BA007C0021FFF705BA10B521
:106690001421044600F047FE204610BD10B54FF40B
:1066A0007A73044608460021C4E90113034B2360B2
:1066B00020741146FFF700FA204610BDA4A10D007A
:1066C0000023007C1A461946FFF7AEB97FB50022B9
:1066D0001423CDE90122ADF804300B788DF8083091
:1066E0004B680393CB680493007C0B7A059301A954
:1066F000FFF7FAF907B05DF804FB1FB5003B8DF812
:1067000000104FF06401039118BF01236946019204
:106710008DF80830FFF7DAFF05B05DF804FB0123C0
:10672000FFF7EBBF007C0022FFF786B9C9B2FFF785
:10673000F9BF007C0022FFF787B90121FFF7F9BFFD
:1067400008B50021007CFFF7BFF9B0FA80F04009DE
:1067500008BD08B50021007CFFF7BEF9B0FA80F053
:10676000400908BD004700002DE9FF4100241D46F7
:106770000F4690460646FFF74FF9A5424FF0040337
:10678000ADF80D408DF80C308DF80F40A2BF9DF88C
:1067900028308DF80E3003AC0749009443463A4642
:1067A0003046A8BF8DF80D50FFF72EF9B0FA80F0F3
:1067B000400904B0BDE8F08165670D00704710B571
:1067C0001821044600F0AFFD204610BDF0B5037D52
:1067D000062B8DB00E4600F104074FF0000412D0D6
:1067E00000F1080515F8011D0A22304600F049F9AC
:1067F000AF42044419D0002CF4D02E21304600F0D2
:1068000027F90444EEE72F236A4639460A208DF81B
:106810000040FFF771F9684601F031FB336802462A
:10682000DB68694630469847044620460DB0F0BD07
:1068300010B5054B0446112240F8043B002101F03D
:10684000C3FA204610BD00BFCCA10D000346074A85
:1068500010B543F8042B01F1100251F8044B43F832
:10686000044B9142F9D10A781A7010BDCCA10D00E9
:1068700010B59DF8084044EA032343EA024242EA85
:10688000016104234160037510BD13B5CB780093FB
:106890008B784A780978FFF7EBFF02B010BD000053
:1068A000014B024A1A6070471CE60320D8A10D0074
:1068B000002340681A46FFF777BA40680022022199
:1068C000FFF782BA002240681146FFF775BA00222E
:1068D00040681146FFF780BA002340681A461946FF
:1068E000FFF782BA002340681A461946FFF784BAB8
:1068F0004068002281F00101FFF786BA406800225B
:10690000FFF792BA002240681146FFF795BA0022BD
:1069100040681146FFF780BA2DE9F043002495B096
:1069200016460D460746FFF783FF214618220EA89C
:10693000009401F049FA4023CDE90C3421466B461E
:106940000CAA3046FFF7E8F80446002846D1024674
:1069500001216868FFF740FA0221804622466868F4
:10696000FFF73AFA009E81462146002E36D00029D4
:1069700034D17368022B03D00A2B0BD0F669F4E7ED
:10698000B8F1000F04D0716938460431FFF77DFF7C
:106990004146F3E7B9F1000F01D14946EEE77469CA
:1069A000102201A801F010FA06238DF8143001AD71
:1069B00004F108031834186859682A4603C20833DA
:1069C000A3421546F7D101A906A807ADFFF73EFF80
:1069D0000FCD3C1D0FC42B682370DEE70098FFF736
:1069E00093F8384615B0BDE8F0830000024B034A27
:1069F0001A6000225A60704720E60320E4A10D00CF
:106A0000F8B506460D468F180024BD420CD03368F9
:106A100015F8011B9B6830469847031E01DB1C4498
:106A2000F3E7002C08BF1C462046F8BD13B504460A
:106A3000084659B1019101F022FA23680199DB68F7
:106A40000246204602B0BDE81040184702B010BD13
:106A500003689B68184738B50D210546FFF7F8FF16
:106A60000A2104462846FFF7F3FF204438BD38B515
:106A70000546FFF7DBFF04462846FFF7ECFF2044FE
:106A800038BD30B58BB000238DF82430012A98BF73
:106A90000A2209AC0D46B1FBF2F101FB125303F0DF
:106AA000FF03092B94BF30333733DBB2AA4204F81B
:106AB000013DEFD92146FFF7B9FF0BB030BD10B54E
:106AC0000446FEF745FC204610BD00000348044A7A
:106AD00004490023836000F021BC00BF28E60320A6
:106AE00058E40320BF6A0D0010B504460846217023
:106AF000FFF71AF800236360204610BD10B5044666
:106B00000068FFF7A9F9204610BD10B504460068DB
:106B100008B1FFF7A1F90023C4E90133236010BDD8
:106B200038B504460D4600680131FFF79DF910B1F4
:106B3000C4E90005012038BD10B50368044623B13F
:106B400043688B4201D3012010BD2046FFF7E8FFC8
:106B50000028F9D0A368002BF5D122681370F2E762
:106B600037B50D46114601920446FFF7E5FF019A3D
:106B700028B92046FFF7C9FF204603B030BDA26008
:106B80002946206801F0F8F82268A3680021D15452
:106B9000F2E7002313B5C0E90033044683600373B2
:106BA00041B10846019101F06AF901990246204677
:106BB000FFF7D6FF204602B010BD884210B504464C
:106BC00005D00B682BB18A681946FFF7C9FF20462C
:106BD00010BDFFF79AFFFAE710B500230446C0E99D
:106BE000003383600373FFF7E8FF204610BD08B54C
:106BF00082683AB921B10878B0FA80F0400900E023
:106C0000012008BD006809B90078F5E701F008F92E
:106C1000F2E758B50E462AB121B184689C4202D8E9
:106C200000230B7058BDE41A013A0168944228BF52
:106C3000144619442246304601F03BF900233355EF
:106C4000F0E7000008B5006840B101F07FF851ECB2
:106C5000100B00F0E7FF00EE100A08BD9FED010ADF
:106C6000FBE700BF0000000007B50B46002102460D
:106C7000009101208C21FFF73DF803B05DF804FB83
:106C800001460020FFF7F0BF0020FFF7F9BF00002A
:106C900010B5094B094C022200201A60084B2060F5
:106CA000A080A071A360FEF7E1FF2046054A0649D7
:106CB000BDE8104000F032BB44E6032038E6032074
:106CC0000000FFFF58E4032041410D002DE9F04191
:106CD000154ADFF86080D2E90032C01842EB0101AA
:106CE000124AD2E90032C61841EB0207D8E9002364
:106CF000BB4208BFB2428CB013D003A96846CDE9AD
:106D00000067FFF7E1F8089B094D03F26C7303ACD1
:106D100008930FCC0FC50FCC0FC5C8E900672368D7
:106D20002B600CB0BDE8F08178E6032070E603200C
:106D30004CE6032080E6032008B50020FFF724F886
:106D400028B1FEF7F9FF80F00100C0B208BD0120B4
:106D5000FCE7000030B504461848D0E9001052188E
:106D600040EB03031648D0E90010521893B040EBF3
:106D70000303CDE9002324220DEB0200002101F0E2
:106D800023F8002509A96846FFF79EF81622294630
:106D900003A8029501F018F802A909A800F0B0FFB5
:106DA00002A801F06CF812AB184402A900F8415C8B
:106DB0002046FFF7EEFE204613B030BD78E60320F4
:106DC00070E6032010B50020FEF7EEFD0446A0B9E2
:106DD000FEF744FF012810D12046FEF76FFF60B98F
:106DE000FFF7AAFF10B9FEF79FFFF9E7FFF7A4FF2F
:106DF000BDE810400020FEF7D7BD204610BD1FB5EE
:106E0000FFF7E0FF10220021684600F0DDFF0021BF
:106E10006846FEF7D1FD009805B05DF804FB000060
:106E200008B5FFF7ECFFC117FFF750FF014B98685B
:106E300008BD00BF4CE60320024B1A68024B1A60E3
:106E4000704700BF80E2032048E60320704741748A
:106E5000704708B5007CFEF7AFFE20EAE07008BD81
:106E600008B5007CFEF780FE20EAE07008BD08B59A
:106E7000007CFEF789FE40EAE07008BD08B5007CA2
:106E8000FEF77AFE40EAE07008BD007CFEF784BEA3
:106E900037B5457C04462DB1207C03B0BDE83040B9
:106EA000FEF75ABE007C0191FEF786FE002801998C
:106EB000F2DC284603B030BD10B51421044600F0C2
:106EC00032FA204610BD000010B54FF0000C044609
:106ED000084611464FF47A72C4E901C2044A22609E
:106EE0000122207462741A46FEF72EFE204610BD61
:106EF00034A20D0013B50E4C2178BFF35B8F11F057
:106F0000010112D120460191FDF7D6F8019960B137
:106F1000084A094B0948FFF7D7FF2046FDF7D1F88B
:106F2000074A0849054800F0F9F9044802B010BDC5
:106F300088E603208CE6032010E7032094E7032073
:106F400058E403204D6E0D0041747047704708B53A
:106F50000021007CFEF750FE40EAE07008BD08B555
:106F60000121007CFEF748FE40EAE07008BD08B54C
:106F7000007CFEF739FE20EAE07008BD08B5007C11
:106F8000FEF72AFE20EAE07008BD13B50446007C37
:106F90000191FEF729FE0028019901DC607C20B1F7
:106FA000207CFEF731FE20EAE07002B010BD007CCC
:106FB000FEF732BE10B51421044600F0B4F92046A5
:106FC00010BD000010B54FF47A7304460846002146
:106FD000C4E90113044B2360012320746374114638
:106FE000FEF7F2FD204610BD64A20D0010B514227C
:106FF0000446002100F0E8FE204610BD10B5104CFC
:1070000088B003A8FFF7F2FF2178BFF35B8F11F080
:10701000010111D120460191FDF74EF8019958B1B7
:1070200003AA0848FFF7CEFF2046FDF74AF8064AB4
:107030000649044800F072F9024808B010BD00BFCC
:10704000A8E70320ACE7032058E403204D6F0D00B0
:10705000014B1860704700BF84E2032008B50B4B5A
:1070600043B1FFF7CBFF03681B699847002801DD98
:10707000AFF30080064B43B1FFF73CFF03681B6989
:107080009847002801DDAFF3008008BD0000000034
:107090000000000008B5FFF7E1FFFEF77DFC014BA3
:1070A000186008BDD4E703200248034A0349121AB6
:1070B00000F062BE00F4032004FC032090A50D0044
:1070C00007B5002300931A466FF07701FEF708FE1C
:1070D00003B05DF804FB000007B543880A2B08D015
:1070E000502B0BD1094B1B684BB103B05DF804EB7F
:1070F0001847FFF7E5FF03B05DF804FB002300939A
:107100001A466FF07701FEF7EBFDF4E7C4E70320C2
:1071100038B5124C1248134D0021FEF7CDFE2368FE
:10712000AB42114B0CBF012200221A7002D0FFF7B4
:10713000BBFF2560FEF718FC044600F04DFE0B4B2C
:1071400013B12046AFF3008000210848FEF724FE6B
:10715000BDE8384006480021FEF7B8BD00FC03201A
:1071600051700D001E1C279AC0E70320000000008C
:10717000D9700D0008B5024B1B681B68019308BD50
:107180005C02030008B5024B1B685B68019308BDF5
:107190005C02030008B5024B1B689B68019308BDA5
:1071A0005C020300232813B502D9002002B010BDF1
:1071B000A0F10B03022B1AD8174C2178BFF35B8F79
:1071C00011F001010BD120460191FCF775FF0199E7
:1071D00028B11248FFF788FC2046FCF772FF0F4BDE
:1071E0001878FEF7A9FC0028DFD10120DEE701288E
:1071F00009D800F06BF80021007CFEF755FC80F008
:107200000100C0B2D2E709380128EED8FFF772FEBC
:10721000007CFEF7C9FCF2E7C8E70320CCE70320B7
:10722000232838B504460D460AD8FF2908D0FFF7B1
:10723000B9FF28B129462046BDE83840FEF7C4BB57
:1072400038BD38B504460D46FEF7C6FBFF2810D002
:10725000062804D84D2323FA00F0C30709D420469A
:10726000FFF7A0FF28B129462046BDE83840FEF7C9
:10727000BBBB38BD10B50446FEF7AEFB031FDBB247
:10728000012B08D92046FFF78DFF20B12046BDE82D
:107290001040FEF7B1BB002010BD000038B5002340
:1072A0002025438014230446038085600561064938
:1072B000284600F03CF804496060284600F037F8A2
:1072C000E060204638BD00BF8CA20D0030B50F4DE8
:1072D0002978BFF35B8F11F0010487B013D12846E2
:1072E000FCF7EAFE78B101A8FFF7D8FF01AA214612
:1072F0000748FFF7D3F92846FCF7E3FE054A06499D
:10730000034800F00BF8024807B030BDD8E703206F
:10731000DCE7032058E4032045660D000B460146D8
:10732000184600F01BBDFCF7BABEFCF7B4BEFCF774
:10733000B4BE08B5FEF7B0FD81F0004102E000BF29
:1073400083F0004330B54FEA41044FEA430594EA25
:10735000050F08BF90EA020F1FBF54EA000C55EA60
:10736000020C7FEA645C7FEA655C00F0E2804FEA31
:107370005454D4EB5555B8BF6D420CDD2C4480EA13
:10738000020281EA030382EA000083EA010180EA43
:10739000020281EA0303362D88BF30BD11F0004F91
:1073A0004FEA01314FF4801C4CEA113102D04042C7
:1073B00061EB410113F0004F4FEA03334CEA133302
:1073C00002D0524263EB430394EA050F00F0A7801A
:1073D000A4F10104D5F1200E0DDB02FA0EFC22FA15
:1073E00005F2801841F1000103FA0EF2801843FA09
:1073F00005F359410EE0A5F120050EF1200E012AFA
:1074000003FA0EFC28BF4CF0020C43FA05F3C01837
:1074100051EBE37101F0004507D54FF0000EDCF1B0
:10742000000C7EEB00006EEB0101B1F5801F1BD359
:10743000B1F5001F0CD349085FEA30004FEA3C0C5D
:1074400004F101044FEA445212F5800F80F09A8053
:10745000BCF1004F08BF5FEA500C50F1000041EB57
:10746000045141EA050130BD5FEA4C0C404141EB5B
:107470000101013C28BFB1F5801FE9D291F0000F56
:1074800004BF01460020B1FA81F308BF2033A3F105
:107490000B03B3F120020CDA0C3208DD02F1140CFC
:1074A000C2F10C0201FA0CF021FA02F10CE002F137
:1074B0001402D8BFC2F1200C01FA02F120FA0CFC30
:1074C000DCBF41EA0C019040E41AA2BF01EB045179
:1074D000294330BD6FEA04041F3C1CDA0C340EDC77
:1074E00004F11404C4F1200220FA04F001FA02F3BA
:1074F00040EA030021FA04F345EA030130BDC4F178
:107500000C04C4F1200220FA02F001FA04F340EA6C
:107510000300294630BD21FA04F0294630BD94F01D
:10752000000F83F4801306BF81F480110134013D04
:107530004EE77FEA645C18BF7FEA655C29D094EA75
:10754000050F08BF90EA020F05D054EA000C04BFF3
:107550001946104630BD91EA030F1EBF00210020DE
:1075600030BD5FEA545C05D14000494128BF41F07D
:10757000004130BD14F580043CBF01F5801130BDE1
:1075800001F0004545F0FE4141F470014FF000006C
:1075900030BD7FEA645C1ABF194610467FEA655C1D
:1075A0001CBF0B46024650EA013406BF52EA0335BF
:1075B00091EA030F41F4002130BD00BF90F0000FAD
:1075C00004BF0021704730B54FF4806404F13204E9
:1075D0004FF000054FF0000150E700BF90F0000FA2
:1075E00004BF0021704730B54FF4806404F13204C9
:1075F00010F0004548BF40424FF000013EE700BF99
:1076000042004FEAE2014FEA31014FEA02701FBF28
:1076100012F07F4393F07F4F81F06051704732F05A
:107620007F4208BF704793F07F4F04BF41F40021B1
:10763000704730B54FF4607401F0004521F000410F
:107640001CE700BF50EA010208BF704730B54FF099
:1076500000050AE050EA010208BF704730B511F09A
:10766000004502D5404261EB41014FF4806404F1D2
:1076700032045FEA915C3FF4D8AE4FF003025FEA58
:10768000DC0C18BF03325FEADC0C18BF033202EBDC
:10769000DC02C2F1200300FA03FC20FA02F001FA36
:1076A00003FE40EA0E0021FA02F11444BDE600BFD9
:1076B00070B54FF0FF0C4CF4E06C1CEA11541DBF88
:1076C0001CEA135594EA0C0F95EA0C0F00F0DEF853
:1076D0002C4481EA030621EA4C5123EA4C5350EA38
:1076E000013518BF52EA033541F4801143F4801389
:1076F00038D0A0FB02CE4FF00005E1FB02E506F01A
:107700000042E0FB03E54FF00006E1FB03569CF06E
:10771000000F18BF4EF0010EA4F1FF04B6F5007F74
:1077200064F5407404D25FEA4E0E6D4146EB0606E6
:1077300042EAC62141EA55514FEAC52040EA5E506F
:107740004FEACE2EB4F1FD0C88BFBCF5E06F1ED819
:10775000BEF1004F08BF5FEA500E50F1000041EB50
:10776000045170BD06F0004646EA010140EA0200FD
:1077700081EA0301B4EB5C04C2BFD4EB0C0541EA1F
:10778000045170BD41F480114FF0000E013C00F334
:10779000AB8014F1360FDEBF002001F0004170BD58
:1077A000C4F10004203C35DA0C341BDC04F1140471
:1077B000C4F1200500FA05F320FA04F001FA05F2FD
:1077C00040EA020001F0004221F0004110EBD370CA
:1077D00021FA04F642EB06015EEA430E08BF20EAF6
:1077E000D37070BDC4F10C04C4F1200500FA04F399
:1077F00020FA05F001FA04F240EA020001F000412B
:1078000010EBD37041F100015EEA430E08BF20EA9D
:10781000D37070BDC4F1200500FA05F24EEA020EE5
:1078200020FA04F301FA05F243EA020321FA04F014
:1078300001F0004121FA04F220EA020000EBD370CB
:107840005EEA430E08BF20EAD37070BD94F0000FCB
:107850000FD101F00046400041EB010111F4801FFF
:1078600008BF013CF7D041EA060195F0000F18BFB0
:10787000704703F00046520043EB030313F4801FEC
:1078800008BF013DF7D043EA0603704794EA0C0FA6
:107890000CEA135518BF95EA0C0F0CD050EA4106BC
:1078A00018BF52EA4306D1D181EA030101F0004139
:1078B0004FF0000070BD50EA410606BF1046194661
:1078C00052EA430619D094EA0C0F02D150EA01366D
:1078D00013D195EA0C0F05D152EA03361CBF1046AE
:1078E00019460AD181EA030101F0004141F0FE414D
:1078F00041F470014FF0000070BD41F0FE4141F4D1
:10790000780170BD70B54FF0FF0C4CF4E06C1CEAD0
:1079100011541DBF1CEA135594EA0C0F95EA0C0F85
:1079200000F0A7F8A4EB050481EA030E52EA033540
:107930004FEA013100F088804FEA03334FF0805561
:1079400045EA131343EA12634FEA022245EA11158E
:1079500045EA10654FEA00260EF000419D4208BF3F
:10796000964244F1FD0404F5407402D25B084FEAEC
:107970003202B61A65EB03055B084FEA32024FF498
:1079800080104FF4002CB6EB020E75EB030E22BFF5
:10799000B61A754640EA0C005B084FEA3202B6EBB5
:1079A000020E75EB030E22BFB61A754640EA5C0064
:1079B0005B084FEA3202B6EB020E75EB030E22BFF4
:1079C000B61A754640EA9C005B084FEA3202B6EBF5
:1079D000020E75EB030E22BFB61A754640EADC00B4
:1079E00055EA060E18D04FEA051545EA16754FEA16
:1079F00006164FEAC30343EA52734FEAC2025FEA34
:107A00001C1CC0D111F4801F0BD141EA00014FF0C2
:107A100000004FF0004CB6E711F4801F04BF014393
:107A20000020B4F1FD0C88BFBCF5E06F3FF6AFAEAF
:107A3000B5EB030C04BFB6EB020C5FEA500C50F13F
:107A4000000041EB045170BD0EF0004E4EEA1131C2
:107A500014EB5C04C2BFD4EB0C0541EA045170BDC9
:107A600041F480114FF0000E013C90E645EA060E0D
:107A70008DE60CEA135594EA0C0F08BF95EA0C0F3B
:107A80003FF43BAF94EA0C0F0AD150EA01347FF483
:107A900034AF95EA0C0F7FF425AF104619462CE75A
:107AA00095EA0C0F06D152EA03353FF4FDAE1046BD
:107AB000194622E750EA410618BF52EA43067FF40E
:107AC000C5AE50EA41047FF40DAF52EA43057FF49E
:107AD000EBAE12E74FF0FF3C06E000BF4FF0010CA9
:107AE00002E000BF4FF0010C4DF804CD4FEA410C0D
:107AF0007FEA6C5C4FEA430C18BF7FEA6C5C1BD0DA
:107B000001B050EA410C0CBF52EA430C91EA030F5A
:107B100002BF90EA020F0020704710F1000F91EAB7
:107B2000030F58BF994208BF90422CBFD8176FEA85
:107B3000E37040F0010070474FEA410C7FEA6C5C53
:107B400002D150EA013C07D14FEA430C7FEA6C5C5A
:107B5000D6D152EA033CD3D05DF8040B704700BF86
:107B60008446104662468C461946634600E000BFD4
:107B700001B5FFF7B7FF002848BF10F1000F01BDA6
:107B80004DF808EDFFF7F4FF0CBF012000205DF871
:107B900008FB00BF4DF808EDFFF7EAFF34BF0120F6
:107BA00000205DF808FB00BF4DF808EDFFF7E0FF8F
:107BB00094BF012000205DF808FB00BF4DF808EDE0
:107BC000FFF7CEFF94BF012000205DF808FB00BF47
:107BD0004DF808EDFFF7C4FF34BF012000205DF829
:107BE00008FB00BF4A0011D212F5001211D20DD5C8
:107BF0006FF47873B3EB62520ED44FEAC12343F0B3
:107C0000004343EA505323FA02F070474FF000005C
:107C1000704750EA013002D14FF0FF3070474FF00B
:107C2000000070474FEA4102B2F1E04324BFB3F5D0
:107C3000001CDCF1FE5C0DD901F0004C4FEAC002E3
:107C40004CEA5070B2F1004F40EB830008BF20F0C7
:107C50000100704711F0804F21D113F13872BCBF81
:107C600001F00040704741F480114FEA5252C2F1D6
:107C70001802C2F1200C10FA0CF320FA02F018BF1F
:107C800040F001004FEAC1234FEAD32303FA0CFC72
:107C900040EA0C0023FA02F34FEA4303CCE77FEA01
:107CA000625307D150EA01331EBF4FF0FE4040F44B
:107CB0004000704701F0004040F0FE4040F40000FA
:107CC000704700BFD0B50C4B002206460F46FFF7A9
:107CD000EFFCFFF787FF0446FFF770FC074B00221D
:107CE000FFF7E6FC02460B4630463946FFF728FB15
:107CF000FFF778FF2146D0BD0000F03D0000F041C5
:107D000010B50C4641690369826986B001F26C7155
:107D10000491016803914168029181680191C168F1
:107D20000091074903EB43030B44064902EB42026F
:107D30000A4420460449FEF79FF8204606B010BDCD
:107D4000C2A20D00ADA20D008DA20D00002100F019
:107D5000E9BE0A22002100F06BBF000010B5054CFF
:107D600013462CB10A4601460220AFF3008010BD35
:107D70002046FCE7000000000A44914200F1FF3376
:107D800000D1704710B511F8014B03F8014F914233
:107D9000F9D110BD884210B501EB020402D984422A
:107DA000234607D8431EA14208D011F8012B03F83F
:107DB000012FF8E7024401468A4200D110BD13F8B2
:107DC000014D02F8014DF7E702440346934200D10A
:107DD000704703F8011BF9E738B50D4B1D68AB6B15
:107DE00004467BB91820FEF72FF80A4A0A4BA8630D
:107DF000C0E90023094B83600B2383810122002308
:107E0000C0E90423AB6B00221C615A6138BD00BF7E
:107E100084E203200E33CDAB34126DE6ECDE0500B8
:107E200010F8012B11F8013B012A28BF9A42F7D024
:107E3000D01A7047034611F8012B03F8012B002AD2
:107E4000F9D17047024B0146186800F003B800BF33
:107E500084E2032037B5044608460D4600F00FF8CB
:107E6000421C114620460192FEF71EF8044618B146
:107E7000019A2946FFF780FF204603B030BD034634
:107E800013F8012B002AFBD1181A0138704710B5DE
:107E90006AB10139841810F8013B11F8012F93429F
:107EA00003D1A04201D0002BF5D1981A10BD104685
:107EB000FCE710B50139034632B111F8014F03F860
:107EC000014B013A002CF7D11A440021934200D112
:107ED00010BD03F8011BF9E770B504460D4645ECEB
:107EE000104B164601F01AFD51EC100B7EB1C5F394
:107EF0000A53C3F16B03002B09DD1B0503F17F550A
:107F0000002405F5401522462B46FFF7D1FB70BD36
:107F10002DE9F04FA3B01F4600231E93A44B1992E6
:107F20001B680793044618468846FFF7A8FF4FF0E2
:107F3000000A05464FF0000BCDF874801D9B1A789F
:107F40002B2A4CD039D80D2A32D8082A32D8002A08
:107F50003CD000230E931D9E3378302B40F0B4802C
:107F6000737803F0DF03582B6CD10E9B01931EAB8B
:107F7000029700938F4A1FAB1DA9204600F0CAFE4E
:107F800010F00707054605D0062F2AD10136002339
:107F90001D960E93199B002B40F096850E9BDBB12E
:107FA00052460BF1004343EC102B23B0BDE8F08F99
:107FB000202ACED101331D93C0E72D2AC9D1012239
:107FC0000E925A1C1D925B78002BC4D1199BCDF8E0
:107FD0007480002B40F0768552465B46E3E7002232
:107FE000EEE71E9A3AB1352120A801F096FD1E99C0
:107FF000204601F0CBF9013F052F07D8DFE807F055
:108000000E0B181D0E034FF0000BDA462807C1D5E2
:108010004BF0004BBEE7DDE920ABF7E7DDE920A33D
:108020001F9A23F4801302F2334243EA025BEDE726
:10803000DFF884B14FF0000AE8E76FF0004B4FF033
:10804000FF3AE3E71D9B5A1C1D925B78302BF9D059
:10805000002B9FD001234FF0000904931D9B0A932E
:10806000CDF824904F460A221D980678A6F13003D9
:10807000D9B209292AD907992A46FFF708FF98B3E8
:10808000002033463D4607900246652B01D0452B24
:1080900018D11DB9049B034398D00025DDF87480E6
:1080A00008F101031D9398F801302B2B75D02D2B6F
:1080B0007BD04FF0000CA3F13001092940F28280FF
:1080C000CDF8748000269DE00023C4E7082FD8BFB8
:1080D000099900F10100DABF02FB0133099302FBA9
:1080E000093901371D90BFE71D9B5A191D925B5D31
:1080F000002F37D007903D46A3F13002092A12D94C
:108100000122C2E71D9B5A1C1D925B780130302B67
:10811000F8D0A3F13102082A00F2DB841D9A0790FF
:1081200000200A920546303B00F1010214D0079965
:10813000114407912A4600EB050E0A21724513D11E
:108140002A18082A05F1010505441CDC09990A22B0
:1081500002FB0133099300221D9B591C1D915B7882
:108160001046C9E73846D2E7082A04DC099E4E4388
:1081700009960132E2E702F1010CBCF1100FD8BF01
:1081800001FB09F9F5E7102DDCBF0A2202FB0939D2
:10819000E1E70023079301227CE74FF0000C08F190
:1081A00002031D9398F8023085E74FF0010CF6E7C3
:1081B0004CA40D00F4A20D000000F07F1D9B591C83
:1081C0001D915B78302BF9D0A3F1310108293FF6DE
:1081D00079AFA3F1300E1D9B08931D9B591C1D9177
:1081E0005B78A3F13006092E37D9089E891B082930
:1081F00044F61F6602DC7645A8BF7646BCF1000F48
:1082000000D07642002D4FD1049901437FF4C2AED5
:10821000002A7FF4DBAE692B27D024DC492B24D045
:108220004E2B7FF4D3AE9E491DA800F0B9FF002865
:108230003FF4CCAE1D9B1B78282B2DD1994920AA49
:108240001DA800F0C1FF052826D1219BDDF880A0E4
:1082500043F0FF4B4BF4E00B9CE60A2101FB0E3E82
:10826000AEF1300EB9E76E2BDBE78F491DA800F0A9
:1082700097FF00283FF4AAAE1D9B8C49013B1DA827
:108280001D9300F08DFF10B91D9B01331D93DFF886
:108290002CB24FF0000A7DE6854801F091FC8DED8F
:1082A000040BDDE904AB75E6079B0998F31A002F70
:1082B00008BF2F46102D0893A846A8BF4FF01008FE
:1082C000FFF77CF9092D82468B4613DD794B03EBD2
:1082D000C80353E91223FFF7EBF9824648468B4661
:1082E000FFF76CF902460B4650465946FFF72AF84D
:1082F00082468B460F2D38DC089B002B3FF44AAE9C
:1083000024DD162B0BDC6B4D05EBC305D5E9000115
:1083100052465B46FFF7CCF982468B463AE6089A0E
:10832000C5F12503934220DB624CC5F10F0504EB38
:10833000C50152465B46D1E90001FFF7B9F9089B38
:108340005D1B04EBC504D4E90023E3E7089B163367
:108350000BDB079B574A9E1B02EBC606D6E90023A0
:1083600050465946FFF7CEFAD6E7089BA5EB08081A
:108370009844B8F1000F71DD18F00F030AD04D4991
:1083800001EBC30152465B46D1E90001FFF790F9CA
:1083900082468B4638F00F084DD0B8F59A7F22DD23
:1083A00000252E46099507952223DFF810B123609A
:1083B0004FF0000A099B002B3FF4ECAD1E992046BC
:1083C00000F0E4FF0799204600F0E0FF3146204628
:1083D00000F0DCFF0999204600F0D8FF294620462E
:1083E00000F0D4FFD6E500234FEA2818504659463E
:1083F0009946B8F1010F21DC0BB182468B462E4B1A
:10840000ABF1547B03EBC90952465B46D9E9000145
:10841000FFF74EF9294B0A460B4029498B42824609
:10842000BED8A1F580118B4286BFDFF898B04FF01F
:10843000FF3A02F1547B0023049381E018F0010F0E
:1084400007D01D4B03EBC903D3E90023FFF730F935
:10845000012309F101094FEA6808CAE7EBD0C8F126
:10846000000818F00F020AD0124B03EBC20350466B
:108470005946D3E90023FFF745FA82468B465FEA67
:108480002818D8D0B8F11F0F1EDD00252E460995FB
:10849000079522234FF0000A4FF0000B236089E775
:1084A000EFA20D0008A30D00E6A20D00E9A20D0049
:1084B000ACA20D0088A40D0060A40D000000F07FA8
:1084C0000000A07CFFFFEF7F18F0100318BF6A23A5
:1084D000DFF8B493049350465946002318F0010F77
:1084E00004D0D9E90023FFF7E3F801235FEA680825
:1084F00009F10809F2D10BB182468B46049BBBB14E
:10850000CBF30A53C3F16B03002B594610DD1F2B2D
:1085100040F32881342BDEBF203B4FF0FF3202FABC
:1085200003F34FF0000ACCBF4FF05C7B03EA010B72
:108530000022002350465946FFF722FB0028A4D111
:10854000099B00930A992B463A46204600F073FF98
:10855000099000283FF424AF079B9E1B089B002B2B
:10856000B4BF334600231093089B002523EAE3732E
:1085700018932E46099B2046596800F0D3FE0790B9
:1085800000283FF411AF099B1A69023203F10C0174
:1085900092000C30FFF7F0FB4BEC10AB20AA1FA9A8
:1085A0002046CDE90AAB01F035FA1E9000283FF4D1
:1085B000FBAE0121204600F0CCFF064600283FF428
:1085C000F3AE1F9B0499002BABBF109A189A189F0B
:1085D000DDF84090ACBF03EB0209D71A209AA3EB59
:1085E00001089044A34B08F1FF389845C2F13602C8
:1085F00080F2CC80A3EB08031F2BA2EB03024FF009
:10860000010100F3B68001FA03F3119300230C93E8
:1086100009EB0208049BC14517441F444B46A8BF01
:108620004346BB42A8BF3B46002BC2BFA8EB030892
:10863000FF1AA9EB0309109B002B17DD31461A46E0
:10864000204601F02BF8064600283FF4ADAE014667
:108650001E9A204600F086FF0F9000283FF4A4AE3B
:108660001E99204600F092FE0F9B1E93B8F1000F5A
:1086700000F39180089B002B08DD189A079920468B
:1086800001F00CF8079000283FF48EAE002F08DDB3
:1086900007993A46204601F04FF8079000283FF42A
:1086A00083AEB9F1000F08DD31464A46204601F09D
:1086B00043F8064600283FF477AE079A1E992046F5
:1086C00001F0B5F8054600283FF46EAEC3680F937D
:1086D0000023C360314601F08EF8002865DA0F9B55
:1086E00053EA0A0340F08780CBF31303002B40F0DA
:1086F00082802BF000431B0D1B05B3F1D66F7AD996
:108700006B6913B92B69012B75DD294601222046BF
:1087100001F012F83146054601F06DF800286ADDD7
:108720000499554A5B46002900F0858002EA0B0156
:10873000B1F1D66F7FDCB1F15C7F7FF7AAAE4F4A13
:108740000023CDE916325046DDE916235946FEF7DF
:10875000AFFF0B46034308BF222382468B4608BF68
:1087600023602BE64FF0FF3202FA03F303EA0A0A12
:10877000DEE6C8F17F4808F57F0808F57B4808F178
:10878000E20801FA08F30C93119141E700230C93DE
:10879000012311933CE71E994246204600F0CCFF8E
:1087A0001E9000287FF466AFFEE55F466ED10F9AFB
:1087B000CBF3130342B3324A934228D1049B504671
:1087C000EBB12D4A3A40B2F1D46F4FF0FF3119D8D6
:1087D000120DC2F16B0301FA03F3984217D1294B32
:1087E0009F4202D101303FF4DFAD234B3B4003F504
:1087F000801B4FF0000A049B002BA0D1DEE54FF058
:10880000FF33EAE70B46E8E753EA0A0388D00C9BFC
:10881000DBB13B42EFD00F9B049A50465946C3B19F
:10882000FFF75AFB02460B46DDE90A01FEF78AFD17
:1088300082468B46DFE71340A3F580136FEA135B94
:108840006FEA0B5B4FF0FF3AD5E7119B13EA0A0F73
:10885000E0E7FFF741FB02460B46DDE90A01FEF7C0
:108860006FFD0022002382468B46FFF789F900281E
:10887000C1D00EE602FCFFFF0000F07F000050397F
:10888000FFFF0F00FFFFEF7F20A30D0031462846BA
:1088900001F010F959EC108B10EE100A00224FF085
:1088A00080434946FFF780F900287CD00F9B002BBE
:1088B0004CD0954B0022CDE90C23DFF84C924FF0C1
:1088C0000008924B3B401193119A914B9A4240F011
:1088D000B280DDE90A23DDE90C01A7F1547B4BEC02
:1088E00010ABCDE91623CDE90C0101F017F8DDE955
:1088F0000C0153EC102BFEF7DBFE52465B46FEF7F5
:1089000021FD0B468149834A1940914282465ED936
:108910000B9B02F15472934203D10A9B01333FF443
:1089200043ADDFF8FCB14FF0FF3A1E99204600F04E
:108930002DFD0799204600F029FD3146204600F024
:1089400025FD2946204600F021FD13E6BAF1000F6F
:108950001BD1CBF31303F3B96B4B002240464946BE
:10896000FFF718F9D0B9404649466B4B0022FEF795
:108970009FFE8046894609F10043CDF868801B932D
:10898000DDE91A23CDE90C239BE7BAF1010F02D1EF
:10899000002F3FF47EAD614B00228CE7DFF8789129
:1089A0004FF00008E7E75C4B404649460022FEF7DF
:1089B0007FFE0F9B8046894633B901F10043129038
:1089C0001393DDE91223DDE7CDE91289F9E703F11D
:1089D000547B049B002BA8D12BF00043119A1B0D54
:1089E0001B059A42A1D14046494601F0FFF8FEF727
:1089F00031FE02460B4640464946FEF7A1FC0F9A5F
:108A0000CBF3130343EA0A0313438046894653D04A
:108A100035A3D3E90023FFF7BDF800287FF4CEACDF
:108A200033A3D3E9002340464946FFF7D1F8002895
:108A30003FF47BAFC2E4049B33B3119BB3F1D46F1B
:108A400022D82DA3D3E9002340464946FFF7ACF8CE
:108A5000A0B149464046FFF7C5F8012838BF0120BC
:108A6000FEF7ACFD0F9B8046894613BB01F1004326
:108A700014901593DDE91423CDE90C230D9B119A75
:108A800003F1D6639B1A0D93DDE90C019DED0A0BF2
:108A9000CDE90C0100F042FFDDE90C0153EC102B95
:108AA000FEF706FEDDE90A23FEF74CFC82468B4604
:108AB0008FE7CDE91489DDE711A3D3E90023FFF7A0
:108AC00069F8B4E700230E93199A1D9B1360FFF712
:108AD00065BA652B3FF45DAB452B3FF45AAB0122E1
:108AE000FFF792BBAFF300809535A094FFFFDF3F07
:108AF00035E5AF350000E03F0000C0FFFFFFDF417C
:108B00009535A094FFFFCF3F0000F03F0000F07FBD
:108B10000000E07FFFFF9F7C0000E03F0000F0BF0F
:108B2000FFFFEF7F0A4601460248034B0068FFF74C
:108B3000EFB900BF84E20320ECE203202DE9F04707
:108B40003A4E86468C4660461CF8014BA55D15F0F2
:108B50000805F8D12D2C33D19CF800404FF00108C6
:108B600000F1020C002B5CD0102B0CD1302C0AD160
:108B70009CF8000000F0DF0058284DD19CF801401F
:108B800010230CF1020C08F10047013F0026B7FB4F
:108B9000F3F9304603FB197AA4F13005092D18D8F2
:108BA0002C46A34224DD751C07D081451DD301D17D
:108BB000A2451ADB00FB034001261CF8014BEBE742
:108BC0002B2C08BF9CF80040A84608BF00F1020CFF
:108BD000C8E7A4F14105192D01D8373CE1E7A4F11C
:108BE0006105192D04D8573CDBE74FF0FF36E4E769
:108BF000731C06D12223CEF80030384642B9BDE8B6
:108C0000F087B8F1000F00D04042002AF7D00EB133
:108C10000CF1FF311160F2E73024002BB3D10823AF
:108C2000B1E7302CA4D00A23ADE700BF49A30D0063
:108C300013460A46014602480068FFF77FBF00BF9F
:108C400084E203200369B3EB611F2DE9F0434FEA8F
:108C5000611200F1140445DD11F01F0104EB8306DD
:108C600004EB82050CD100F110072946B14234D340
:108C70009B1A9B00EA1E964238BF0023234415E04E
:108C800054F82270C1F12008CF4005F1040EA1462E
:108C90007645F44615D89B1A9A00043A0135AE423F
:108CA00038BF0022A318A75007B104331A1BA342F0
:108CB0004FEAA20208BF0023026108BF4361BDE87A
:108CC000F083DCF800C00CFA08FC4CEA070749F80E
:108CD000047B5EF8047BCF40DAE751F804CB47F819
:108CE00004CFC3E72346E1E7A0F13003092B02D804
:108CF0002038C0B27047A0F16103052B01D8473876
:108D0000F7E7A0F14103052B01D82738F1E7002050
:108D1000704700002DE9F04F2DED028B89B008EE71
:108D2000100A0493BC4B1B68019318468B4690466F
:108D3000FFF7A5F8019BDBF800200344824613F8F7
:108D4000013C0593931CC2F1FF2202F57F02FE3223
:108D5000D1181F4613F8010B00913028F8D0FFF707
:108D6000C3FF044600283AD1019952463846FFF71E
:108D70008EF80546002868D117F80A0007EB0A06A6
:108D8000FFF7B2FF002862D03346187830281F461C
:108D900003F10103F9D0FFF7A7FF0123B0FA80F434
:108DA0006409354600933A46164601323078FFF79B
:108DB0009BFF0028F8D1019952463046FFF767F82B
:108DC00080B94DB906EB0A052A46164601323078BD
:108DD000FFF78AFF0028F8D1AD1BAD0004E00024A6
:108DE0002546E0E7002DF7D1337803F0DF03502B61
:108DF0003BD173782B2B2CD02D2B2ED0711C4FF008
:108E000000090878FFF770FF431EDBB2182B2CD83F
:108E1000A0F1100211F8010FFFF766FF431EDBB24D
:108E2000182B1DD9B9F1000F00D052421544CBF8D0
:108E30000010E4B1009B002B14BF00270627384622
:108E400009B0BDEC028BBDE8F08F3E4625460124FB
:108E5000CAE74FF00009B11CD3E74FF00109FAE768
:108E60000A2303FB0202103AD4E73146DFE7F31B83
:108E7000013B2146072B52DC18EE100A00F052FA93
:108E80004FF0000B00F11409CAF101030446CDF8BC
:108E90000890CDF800B00693B74243D30298009BE8
:108EA00040F8043BA0EB0900801046012061184601
:108EB00000F0FFFA301AD8F80060B04266DD871B78
:108EC0003946204600F04CFE8246A8B17B1E59115F
:108ED00003F01F0259F821104FF0010A0AFA02F2BA
:108EE0000A4209D0534505DDB91E204600F038FE80
:108EF000002848D14FF0020A39462046FFF7A2FE6B
:108F00003D44D8F80830AB424FDA18EE100A21463B
:108F100000F03CFA149A00231360A3278FE7013175
:108F20005B10A7E7731E059A039316F8013C934262
:108F300019D0BBF1200F07D1029B009A43F8042BF4
:108F40000293002300939B4616F8010CFFF7CCFE1A
:108F5000009B00F00F0000FA0BF0034300930BF1AD
:108F6000040B039B0DE0039B069A1344BB42E0D322
:108F70001846019907935246FEF789FF079B002880
:108F8000D7D11E4688E74FF0030AB5E70ADA371A49
:108F9000214618EE100A3A4600F0CEFBED1B0446BF
:108FA00000F114094FF0000AABE7D8F80400A8421A
:108FB0006DDD451BAE4231DCD8F80C30022B23D0DE
:108FC000032B25D0012B15D1AE4213D1012E0BD18D
:108FD000049AD8F80430136001232361C9F80030E3
:108FE000149B62271C602AE7711E204600F0B8FD22
:108FF0000028EDD118EE100A214600F0C7F9149AA6
:109000000023136050271AE7159B002BF2D1DFE7EE
:10901000159B002BDCD1EDE74CA40D006F1EBAF1BF
:10902000000F31D127B13946204600F099FD824624
:109030007B11012159F8233007F01F0701FA07F7C8
:109040001F422946204618BF4AF0020A761BFFF746
:10905000F9FDD8F804500227BAF1000F48D0D8F82B
:109060000C30022B15D0032B17D0012B09D11AF08D
:10907000020F06D0D9F800004AEA000A1AF0010FE0
:109080000ED147F0100733E04FF0010AD0E7012777
:10909000E2E7159BC3F101031593159B002BF0D05C
:1090A000D4F8109004F114034FEA890B03EB890103
:1090B0004FF0000C184653F8042BB2F1FF3F1CD0C0
:1090C00001320260022F04F114033AD1D8F80020D3
:1090D000013AB2420AD17111012253F8213006F04F
:1090E0001F0602FA06F61E4218BF174647F0200771
:1090F000149B1C60049B1D60A1E6994243F804CCBC
:10910000D8D8A368994514DB616818EE100A0131BC
:1091100000F008F92269023204F10C018246920043
:109120000C30FEF729FE214618EE100A00F02EF949
:10913000544623695A1C04EB8303226101225A61BD
:10914000C0E722694A450BDD01212046FFF77AFD81
:10915000D8F808300135AB42FFF6D7AE0127C5E796
:1091600016F01F06FAD09B44C6F120065BF8040CEB
:1091700000F09FF9B042E7DBF0E700BFC2F1080260
:10918000920070B5C2F120064368046803FA06F540
:109190002C43D340046040F8043F8842F4D370BDB0
:1091A00030B50368013311F8014B14B90360012095
:1091B00030BD13F8012BA2F14105192D98BF2032C3
:1091C000A242F0D00020F3E72DE9F04F0B680168D0
:1091D0005E1102EB860613F01F0387B018BF04363A
:1091E0000025371F82469046019346F8045CB94635
:1091F0003C460295AB464A784B1C039342B310465B
:1092000005910492FFF770FD00284FD1049A05994B
:10921000202A18D8029B9B4513DD4C4506D2072D0A
:1092200004DC2A4649462046FFF7A8FF444550D9AA
:109230000023A4F1040944F8043CCDF808B04C46DE
:109240001D460399D7E7292A56D10231CAF80010E2
:10925000BBF1000F50D04C4506D2072D04DC2A4646
:1092600049462046FFF78AFF444534D9A8F1040255
:10927000234653F8041B42F8041F9F42F9D23B1BBC
:1092800023F0030304330134033EB44288BF0423B4
:109290004344002243F8042B9F42FBD23B681BB996
:1092A000474527D101233B60052026E00135082DE5
:1092B0000BF1010B06DD4445C3D9002344F8043CFF
:1092C0000125043C226800F00F0040EA02122260EF
:1092D000B7E70825B5E7019B002BDFD04FF0FF3241
:1092E000C3F1200322FA03F356F8042C1A4046F87F
:1092F000042CD3E7043FD1E7042007B0BDE8F08F8A
:1093000082B001B901A942B14BB113780B60127858
:10931000101E18BF012002B070471046FBE76FF027
:109320000100F8E770B5466A04460D463EB91020C4
:10933000FCF78AFDC0E9016660620660C660666A85
:10934000F36883B1636ADB6853F82500B8B901217B
:1093500001FA05F6721D9200204600F022FC60B171
:10936000C0E901560EE021220421204600F019FC3C
:10937000636AF060DB68002BE4D1002070BD0268F6
:1093800043F825200023C0E90333F7E770B5466AA8
:1093900005460C463EB91020FCF756FDC0E90166B3
:1093A00068620660C6603CB16B6A6268DB6853F84D
:1093B0002210216043F8224070BD2DE9F0410E6972
:1093C000074698460C4601F1140000230568A9B22F
:1093D00002FB01814FEA114C2D0C02FB05C589B23D
:1093E000013301EB05419E4240F8041B4FEA15484A
:1093F000ECDCB8F1000F1BD0A368B34212DC61684B
:1094000038460131FFF78EFF2269023204F10C0168
:10941000054692000C30FEF7AFFC21463846FFF7B8
:10942000B5FF2C4604EB86030136C3F81480266191
:109430002046BDE8F0812DE9F8430C4615461F464D
:1094400009220833064693FBF2F3002101229A42D7
:1094500020DB3046FFF766FF089B4361092D4FF084
:109460000103036119DD04F10909C8462C4418F809
:10947000013B0146303B0A223046FFF79EFFA045E4
:10948000F5D1A5F108044C442D1B6319BB4207DB41
:10949000BDE8F88352000131D9E70A340925F3E722
:1094A00014F8013B0146303B0A223046FFF785FFA6
:1094B000EBE7030C1B04D3B90004102310F07F4F1B
:1094C00004BF0002083310F0704F04BF00010433E2
:1094D00010F0404F04BF80000233002805DB10F07D
:1094E000804F03F1010308BF202318467047002373
:1094F000E4E7036813F0070201460BD0DA0724D42F
:10950000980749BF5B089B0801200B605CBF0B609C
:109510000220704798B2B0B91B0C102013F0FF0F57
:1095200004BF1B0A08301A0704BF1B0904309A073E
:1095300004BF9B080230DA0703D45B0800F1010086
:1095400005D00B6070471046E8E7002070472020E8
:10955000704710B50C460121FFF7E4FE012244617B
:10956000026110BD2DE9F04F15460A692B699A4238
:10957000B8BF0B460C46BCBF2C461D462769D5F824
:109580001090A368616807EB0906B342B8BF0131C8
:1095900085B0FFF7C7FE00F1140101EB86080B460A
:1095A000002243451DD304F1140305F1140203EB1B
:1095B000870702EB890302933B1B153B23F0030350
:1095C000043304F11505AF4238BF04230193029B15
:1095D0000392934208D8002E5ADC066105B0BDE81C
:1095E000F08F43F8042BDCE7B2F800A0BAF1000FCB
:1095F00024D004F1140E89464FF0000C5EF8045B91
:10960000D9F800B0ABB21FFA8BFB0AFB03B34FEAE9
:10961000154BD9F8005063444FEA154C0AFB0BC5B3
:1096200005EB13459BB243EA0543774549F8043BF4
:109630004FEA154CE2D8019B41F803C0039BB3F8F5
:1096400002900432B9F1000F20D00B6804F1140C21
:109650008E464FF0000ABCF80050BEF802B009FB7D
:1096600005B5AA449BB243EA0A434EF8043B5CF8B2
:10967000043BBEF800501B0C09FB035303EB1A43D9
:1096800067454FEA134AE6D8019D4B5104319EE7E6
:1096900058F8043D002BA0D1013E9CE72DE9F8438A
:1096A000154612F0030206460F4607D0214C013A38
:1096B000002354F82220FFF780FE0746AD1035D076
:1096C000746A3CB91020FCF7BFFBC0E9014470622A
:1096D0000460C460D6F82480D8F808404CB940F241
:1096E00071213046FFF735FF0023C8F80800044613
:1096F00003604FF00009EB070AD539462246304691
:10970000FFF730FF394680463046FFF73FFE4746B9
:109710006D100BD0206838B9224621463046FFF73D
:1097200021FF2060C0F800900446E4E73846BDE819
:10973000F88300BF50A50D002DE9F0470C4649689D
:10974000236903EB6218A368074691464FEA621A41
:1097500008F10106B3423FDB3846FFF7E3FD002383
:10976000054600F1140100F110021846534536DB9E
:1097700020692AEAEA7A04F1140319F01F0901EBBF
:109780008A0103EB800C2ED0C9F1200E8A460022FC
:10979000186800FA09F002434AF8042B53F8042B26
:1097A0009C4522FA0EF2F3D8ACEB0403153B23F0F0
:1097B0000303043304F11500604588BF0423CA5035
:1097C0000AB108F10206013E38462E612146FFF734
:1097D000DDFD2846BDE8F08701315B00BAE742F8BD
:1097E000040F0133C2E7043953F8042B41F8042F66
:1097F0009C45F9D8E7E730B502690C69121B0ED118
:1098000000F11403143103EB840001EB840150F8E0
:10981000045D51F8044DA54203D005D30122104642
:1098200030BD8342F3D3FAE74FF0FF32F7E72DE97B
:10983000F84F0C460646114620461746FFF7DBFF59
:10984000051E08D129463046FFF76CFD0123C0E90B
:109850000435BDE8F88FA4BF3B46274630467968FB
:10986000A6BF1C4600250125FFF75CFD3E69C560CB
:10987000256907F1140104F1140900F1140E07F130
:10988000100201EB860C09EB8505F246002759F81A
:10989000043B52F804BF1FFA83F817FA8BF71B0C2E
:1098A000A7EB0808C3EB1B4303EB28431FFA88F818
:1098B0001F144D4548EA03434AF8043BE7D82B1BE5
:1098C000153B23F0030304331534A54238BF0423AA
:1098D000194473449E460D4665450ED30CF10302B0
:1098E000521A22F0030203398C4538BF00221A4471
:1098F00052F8043D7BB10661ABE755F8048B17FACB
:1099000088F4221402EB1842A4B244EA02444EF84E
:10991000044B1714E0E7013EEAE7000082B08DED4A
:10992000000B019B12491940A1F15071002905DD7E
:1099300000220B4643EC102B02B070474942B1F1B4
:10994000A07F4FEA21504FF000024FF0000304DAED
:109950004FF4002141FA00F3ECE7A0F114011E29B5
:10996000DABF4FF0004020FA01F101210A46E1E799
:109970000000F07FF8B5056900F1140707EB8505D5
:109980002E1F55F8044C2046FFF793FDC0F120032D
:109990000A28DFF87CC00B6014DCC0F10B0E24FA3F
:1099A0000EF1B74241EA0C0334BF55F8081C002100
:1099B000153004FA00F021FA0EF140EA010243ECFE
:1099C000102BF8BDB7423ABF55F8081CA5F10806A0
:1099D00000210B3817D0C0F1200C04FA00F5BE426C
:1099E00021FA0CF445EA04058CBF56F8044C002417
:1099F00045F07F5301FA00F024FA0CF443F44013CD
:109A000040EA0402DBE744EA0C030A46D7E700BF5A
:109A10000000F03F2DE9F7438946012157EC106B18
:109A20009046FFF77FFCC7F30A550446C7F31303BC
:109A300035BB002E019328D068460096FFF759FDEC
:109A4000009900B3019AC0F1200302FA03F30B431B
:109A5000C24063610192019BA361002B14BF0222EB
:109A600001222261D5B1A5F233450544C9F8005061
:109A7000C0F13500C8F80000204603B0BDE8F0830F
:109A800043F48013D5E76161E5E701A8FFF731FDF5
:109A9000019B6361012222612030E3E704EB820332
:109AA000A0F23240C9F800001869FFF702FDC0EBD0
:109AB0004210DFE72DE9F74F884669468146FFF7F8
:109AC00059FF01A9404655EC104BFFF753FFD9F859
:109AD0001030D8F81020A3EB020CDDE900329B1AFD
