:02000002D0002C
:1040000000400D00889E0D00000006000D00050117
:084010000401DB0700000000C1
:0440180044930D00C0
:1040200009480A49884208B505D0094A824202D0A7
:10403000121A03F04FFA0748074A0021121A03F038
:1040400057FA014808BD00BFE0E10320A49B0D0022
:1040500098E4032098E40320F0E7032070B5074EAE
:10406000074C02F003FCA41BA4080025A54200D1C4
:1040700070BD56F8043B98470135F7E77C9B0D006F
:10408000A09B0D0000F03CBB08B500F053FDBDE85F
:10409000084002F0ADBB01F09FBA01F09DBA01F0FB
:1040A000A3BA0078B0FA80F040097047012303708A
:1040B00070470000014B01221A707047CCE50320C5
:1040C00010B503682F2B044604D9074A00210A20A3
:1040D00001F07AF923681F2B83BF03F01F03034805
:1040E00023604FF0A04010BDF9500D0000030050B8
:1040F00008B5044902F019F918B1034B03221A70EC
:10410000012008BD97930D007CE5032010B50446FF
:10411000006808B101F068FA204610BD00230422AF
:1041200001F0BAB937B59DF818501D438DF800500D
:104130003C23044601F086FC204603B030BD00005D
:10414000F7B5324D324C2B78BFF35B8F060171B35C
:10415000D80709D42846FFF7A4FF28B101F00CF8CE
:1041600020602846FFF7A2FF23689B5D5F012B7844
:10417000BFF35B8FD90709D42448FFF792FF28B11A
:1041800000F0FAFF20602148FFF790FF2068064406
:1041900001A8737803F01F033B430193FFF790FFDF
:1041A000019A01239340C0F8083503B0F0BDDA0747
:1041B00009D42846FFF775FF28B100F0DDFF206025
:1041C0002846FFF773FF23689B5D5F012B78BFF3E1
:1041D0005B8FDB0709D40D48FFF763FF28B100F0C0
:1041E000CBFF20600948FFF761FF2068064401A863
:1041F000737803F01F033B430193FFF761FF019ABC
:1042000001239340C0F80C35CFE700BF9CE40320A6
:10421000A0E4032008B501210520FFF791FF00214C
:104220000520FFF78DFF024B00221A7008BD00BF6A
:10423000CCE5032010B584B20121204602F0AFFB8B
:104240004FF47A7001F010FA2046002102F0A7FB2B
:10425000BDE810404FF47A7001F006BA10B5074C73
:1042600000F052FF2368C01AB0F57A7F04D300F043
:104270004BFF2060012010BD0020FCE7B4E40320C8
:1042800008B5FFF7EBFF10B901F016F9F9E7BDE843
:104290000840FFF7E3BF000013B5154C206A02F099
:1042A0005DFD144ACDE900011821134801F0B4F96D
:1042B000606A02F053FD114ACDE90001182110484F
:1042C00001F0AAF9A06A02F049FD0E4ACDE9000109
:1042D00018210D4801F0A0F9E06A02F03FFD0B4AF9
:1042E000CDE9000118210A4801F096F902B010BD8D
:1042F00038E503209D930D00B3E50320AE930D0038
:104300000EE50320BF930D009AE50320D3930D0023
:10431000F5E4032030B585B00D46002269460092D1
:1043200001F05AF8B0B9009C0CB1236923B90A4ACC
:1043300000210A2001F048F80023ADF806300C23D4
:10434000ADF80430042303930295236901AA0121E7
:104350002046984705B030BDF9500D0030B50E4DE0
:104360000FCD89B001AC0FC495E8070084E80700C1
:1043700069460720FFF7CEFF0028A8BF0098074A2C
:1043800008AB03EB8000102150F81C3C044801F0FE
:1043900043F909B030BD00BFDC960D0059960D0001
:1043A000B8E4032038B5046805467CB16368013B76
:1043B00063605BB9236820469B689847A368013B0C
:1043C000A3601BB923682046DB689847284638BDA0
:1043D00030B52C4DA7B0082402F0FAFA204629493E
:1043E0003822643400F0A8FEB4F5CC7FF4D12B6BF6
:1043F0000493D5E90623CDE90223D5E90423224C11
:10440000CDE900230025214A64210DA801F004F91B
:104410008DF8005023781E490DAA09A8FFF782FEE7
:104420000AA8FFF7BFFF02F088F80246C31709A8E1
:1044300002F02EF88DF800502378099A1549164C91
:1044400007A8FFF76FFE08A8FFF7ACFF09A801F067
:10445000F3FE02F072F8C117C4E9000102F0B8FAE5
:104460002178032000F060FE02F078F80B4B186012
:104470000B4B01221A7000F047FE0A4B186027B060
:1044800030BD00BF38E50320B1E40320E8930D0000
:104490001D940D0033940D00D8E40320E0E40320C4
:1044A000E0E10320D0E5032030B51E4D85B00C4679
:1044B00081B92B7843B3FFF7E3FE1B4B8DF8004027
:1044C0001B781A4A1A4902A8FFF72CFE03A8FFF727
:1044D00069FF19E0084602F0EAFFC83801282B7886
:1044E00014D873B1FFF7CCFE00238DF800300E4BCB
:1044F000104A1B78104902A8FFF714FE03A8FFF723
:1045000051FF0E4B00221A7005B030BD002BFBD0BE
:10451000FFF7B6FE00238DF80030034B22461B78D0
:10452000D0E700BFCBE50320B1E4032038940D00B1
:1045300040940D004D940D005F940D00E0E10320C8
:104540002DE97F435B4C5C480025257000F098FD09
:10455000B5EE400AF1EE10FA00F09A8001F0EDFF9E
:10456000564BC117C3E9000102F004F81E2800F001
:1045700088802D2800F087800F2814BF03262E4640
:104580004D4800F07DFD10EE100A02F0E7FB4C4AAA
:10459000C4E90401CDE9000110214A4801F03CF8CA
:1045A000454800F07BFD10EE100A02F0D7FB464AAA
:1045B000C4E90601CDE900011021444801F02CF8BE
:1045C00002A90320FFF7A6FE00285ED1BDF808303F
:1045D00007EE903AFBEECC7AFDEEE77A3C4A3D4896
:1045E000C4ED0C7A17EE903A102101F015F83A4B11
:1045F000606AD3E9008902F0B1FB42464B4602F003
:1046000095FE10B1354B01221A70206A02F0A6FB0C
:1046100002460B464046494602F088FE10B1304B38
:1046200001221A702F4BE06AD3E9008902F096FB51
:1046300042464B4602F07AFE10B12B4B01221A7013
:10464000A06A02F08BFB02460B464046494602F048
:104650006DFE10B1254B01221A700125FFF77EFE79
:10466000257001F06AFF606002F0B2F964207043C7
:1046700010493822083000F067FD284604B0BDE834
:10468000708301267CE702267AE7FFEE007AA3E733
:10469000174B8DF800501B78164A174902A8FFF7F0
:1046A00041FD03A8FFF77EFE02F056F8134901F022
:1046B0007CFDE2E738E5032070E50320D8E4032021
:1046C00065940D0088E503206D940D00E4E403205B
:1046D00075940D00C8E4032080E503200DE5032058
:1046E000B2E5032028E50320F4E4032099E5032044
:1046F000B0E403207B940D0098940D009C940D0071
:10470000F0B5BDB002F028F84FF4E13102F018F82E
:1047100002F022F8694901F048FD0021082002F06A
:104720002DF90121052002F029F9FFF773FD00237F
:10473000009301224FF0FF336149082001F0B2FBE2
:10474000604B0CAA03F11005174618685968144607
:1047500003C40833AB422246F7D119889B782180E5
:104760002D22A3700021584D584E0DF1430002F048
:10477000BFFE0223012107202B7002F0FFF804A8DE
:1047800000F0AAFE002400237D221CA904A801F049
:10479000DEFD22464E492346CDE900441CA800F028
:1047A000ABFE4C4B4C481968FFF7B8FC4B4B4C48E0
:1047B0001968FFF7B3FC4B494B48FFF7AFFC4B4977
:1047C0004B48FFF7ABFC4B494B48FFF7A7FC4B4965
:1047D0004B48FFF7A3FC4B494B48FFF79FFC4B4965
:1047E0004B48FFF79BFC4B494B48FFF797FC4B4965
:1047F0004B48FFF793FC4B4A4B494C4801F01EF8DD
:104800004B4A4C49494801F019F84B4A4B49474833
:1048100001F014F84A4A4B49444801F00FF84A4A5B
:104820004A49424801F00AF849494A4A3F4801F0DA
:1048300005F801F082FE0246C31708A801F028FE21
:1048400045493378089A8DF8004002A8FFF76AFCC2
:1048500003A8FFF7A7FD08A801F0EEFC3F4844219C
:1048600000F077FB88B900F04FFC3D4C3D492060DB
:10487000384602F073FE01F06FFF3B4901F095FCF2
:1048800001232B7000F040FC2060FFF759FEFFF77A
:1048900003FD364B1B785BB100238DF8003008A870
:1048A000337833493A46FFF73DFC09A8FFF77AFD14
:1048B00004A801F0C1FC3DB0F0BD00BFB4940D00F0
:1048C000B5400D00F8960D007CE50320B1E403200F
:1048D000A9440D00E4E10320BF940D00E8E10320AA
:1048E000CF940D0088E50320D7940D00E4E4032065
:1048F000E3940D00B3E50320EC940D000EE50320D6
:10490000FE940D009AE5032010950D00F5E40320B8
:104910001F950D00C8E403202E950D00B8E4032078
:1049200036950D0045950D00F1400D0011580D0014
:1049300051950D00514A0D005E950D00354D0D004D
:104940006F950D00894D0D0080950D00314E0D00C5
:10495000DD4D0D0095950D0033940D0070E503209D
:1049600030E50320A9950D00C6950D00CBE5032089
:10497000DA950D0030B52A4B2A4C1B788DB013B94F
:10498000294B1B78D3B1294BD3E900232021CDE952
:10499000002304A8264A00F03FFEFFF771FC002325
:1049A0008DF80030234B24491B7804AA02A8FFF796
:1049B000B9FB03A8FFF7F6FC012323701F4D2A78EB
:1049C00012B91F4B1B78EBB11E4BD3E900232021FA
:1049D000CDE9002304A81C4A00F01EFE0720FFF7C3
:1049E00029FCFFF74DFC00238DF80030114B1249D4
:1049F0001B7804AA02A8FFF795FB03A8FFF7D2FCD7
:104A00000123237001F0B6FD237833B10C4A002353
:104A100013702B700D4B00221A6001200DB030BDB9
:104A20000DE5032098E50320B2E5032080E503208F
:104A3000E2950D00B1E40320FE950D0099E50320F9
:104A4000F4E4032028E503200F960D00BCE20320C8
:104A500030B5144985B0054601F067FC044690B1B5
:104A6000114B124A01241C7000238DF80030104BAA
:104A70001B78104902A8FFF755FB03A8FFF792FC2B
:104A8000012005B030BD0C49284601F04EFC00283D
:104A9000F7D0054B094A1C70054B8DF800401B7878
:104AA000E7E700BF97930D00CBE5032028960D00A4
:104AB000B1E4032049960D009B930D0039960D003B
:104AC00030B5164D164C17492A7820788FB01A2326
:104AD00003FB0212009203FB0013134A282104A8CF
:104AE00000F09AFD2B78237000F0EEFC70B1FFF718
:104AF000C7FB00238DF800300C4B0D491B7802A832
:104B000004AAFFF70FFB03A8FFF74CFC01F024FEFB
:104B100004A901F04AFB0FB030BD00BF7CE50320C3
:104B200026E50320ECE103204E960D00B1E40320BE
:104B30005C960D007FB5714C2378013B052B20D886
:104B4000DFE803F0B103382663846D4B1B782BB18B
:104B50006C4B1B78022B01D0FFF7B2FF01F0FEFC7B
:104B6000694B1B68984202D00323237009E001F0CF
:104B7000E4FC4FF4966390FBF3F202FB1303002B6B
:104B8000F2D0624B1B780BB1FFF744FB04B070BD51
:104B90005B4B1B782BB15B4B1B78042B01D0FFF7D1
:104BA0008FFFFFF7CDFC18B1FFF7E4FE0223DCE72F
:104BB0000123DAE7524E32782AB1524B1B78032B8D
:104BC00001D0FFF77DFF01F0C9FC4F4B1860FFF7E4
:104BD000B7FC0546B8B90123237000F095FA4C4B99
:104BE00018603378002BCCD0FFF74AFB494B8DF887
:104BF000005002A81B78484A4849FFF793FA03A8D7
:104C0000FFF7D0FBBDE70523AFE73D4B1B782BB18A
:104C10003C4B1B78052B01D0FFF752FF00F054FCF2
:104C200068B101F09BFC0C2805D100F04DFC10B1DF
:104C3000002000F069FCFFF7CBFB062395E701237A
:104C4000237000F061FA324B18609AE72C4B1B7806
:104C50002BB12C4B1B78062B01D0FFF731FF304BCB
:104C60001B78002BA2D000F04FFA2E4B1B68C01A05
:104C70004AF6C873984284D900F046FA244D2A4A6D
:104C8000286000238DF80030224B28491B7802A8A9
:104C9000FFF748FA03A8FFF785FB0123237000F014
:104CA00033FA28606DE7164B1B782BB1154B1B7838
:104CB000012B01D0FFF704FF00F026FA144B1B680C
:104CC00003F5922303F578738342BFF45AAF00F0E3
:104CD000FBFB60B100238DF800300E4B144A1B78AB
:104CE0000E4902A8FFF71EFA03A8FFF75BFB4FF47B
:104CF000FA6000F0B9FC01F065FB42E77CE50320B7
:104D0000CBE5032026E50320E0E40320CCE50320E7
:104D100030E50320B1E403206D960D005F940D0093
:104D2000E0E10320D0E50320CC980D0087960D002C
:104D3000A0960D0000B58BB0039001F021FB0F4B46
:104D400083ED080AFFF79CFA039906A801F0E2FA3E
:104D500000238DF800300A4B069A1B78094904A8F5
:104D6000FFF7E0F905A8FFF71DFB06A801F064FABC
:104D7000FFF792FA01200BB05DF804FB38E5032041
:104D8000B1E40320B4960D0000B58BB0039001F0A0
:104D9000F7FA0F4B83ED090AFFF772FA039906A899
:104DA00001F0B8FA00238DF800300A4B069A1B7800
:104DB000094904A8FFF7B6F905A8FFF7F3FA06A812
:104DC00001F03AFAFFF768FA01200BB05DF804FB36
:104DD00038E50320B1E40320C8960D0000B58BB080
:104DE000039001F0CDFA0F4B83ED0A0AFFF748FA62
:104DF000039906A801F08EFA00238DF800300A4BC3
:104E0000069A1B78094904A8FFF78CF905A8FFF753
:104E1000C9FA06A801F010FAFFF73EFA01200BB01C
:104E20005DF804FB38E50320B1E40320B4960D00DF
:104E300000B58BB0039001F0A3FA0F4B83ED0B0A82
:104E4000FFF71EFA039906A801F064FA00238DF813
:104E500000300A4B069A1B78094904A8FFF762F94B
:104E600005A8FFF79FFA06A801F0E6F9FFF714FA84
:104E700001200BB05DF804FB38E50320B1E403200A
:104E8000C8960D00184B70B500241C70174B184DB8
:104E900001261E7001F01CFD2346224643F27101DB
:104EA00001F01EFD01F014FD22462346082101F009
:104EB0001FFD104800F02AF80F4BAB6030462C6005
:104EC000AC80AC7100F09AFA0C4A0D49284601F00A
:104ED000D5FD2146304600F0A1FA31460420BDE858
:104EE000704000F0F9B800BFB0E40320B1E4032043
:104EF000A4E4032070E503200000FFFF98E40320F2
:104F00000D410D000368C9B29B681847704738B55A
:104F100005460C4601F08AFD297800F0B7FF01F044
:104F200085FD210AFFF7EEFF01F080FDE1B2FFF7FA
:104F3000E9FF01F07BFDBDE8384000F0AFBF08B5E8
:104F400043F2A201FFF7E3FFBDE808400A2000F0AA
:104F50008BBB38B504460D4601F068FD00F064FFD8
:104F600020462570FFF7EBFF012038BD0A44FF20E3
:104F700091420ED011F8013B5840082310F0800FE9
:104F80004FEA400018BF80F03100013BC0B2F5D1BC
:104F9000EEE770470000000073B54FF4105105466E
:104FA000FFF7B5FF4FF4FA7000F05EFB01F03EFD35
:104FB0002978062200F067FF01F038FD03681B69BD
:104FC000984706284BD16E46044601F02FFD036832
:104FD0005B699847013C14F0FF0406F8010B694631
:104FE000F3D102222846FFF7C1FF9DF802608642F6
:104FF00035D102220DF103012846FFF7B7FF9DF8D6
:10500000056086422BD1BDF80000BDF8034040BAD0
:1050100080B201F081FE18A3D3E9002301F0F6FE6F
:1050200011A3D3E9002302F01BF8114B002201F079
:1050300035FD02F0A5F9A86060BA80B201F06CFEFF
:105040000C4B002201F0E2FE07A3D3E9002302F09B
:1050500007F802F095F96860012002B070BD0020E9
:10506000FBE700BFAFF3008000000000E0FFEF406F
:1050700000804640000059400000000000E065400C
:1050800010B50446FFF788FF10B194ED020A10BD79
:105090009FED010AFBE700BF0000C07F10B504468A
:1050A000FFF77AFF10B194ED010A10BD9FED010AE0
:1050B000FBE700BF0000C07F08B5024B1B685B6CBC
:1050C000019308BD4802030008B5024B1B689B6CA6
:1050D000019308BD4802030008B5024B1B685B6ED4
:1050E000019308BD3402030008B5024B1B685B68DE
:1050F000019308BD1802030008B5024B1B68DB686A
:10510000019308BD1802030008B5024B1B685B69D8
:10511000019308BD1802030008B5024B1B689B6A87
:10512000019308BD1802030008B5024B1B681B6BF6
:10513000019308BD1802030008B5024B1B685B6CA5
:10514000019308BD1802030008B5024B1B689B6C55
:10515000019308BD1802030008B5024B1B689B6D44
:10516000019308BD1802030008B5024B1B685B6E73
:10517000019308BD1802030008B5024B1B681B68A9
:10518000019308BD2C02030008B5024B1B689B6805
:10519000019308BD2C02030008B5024B1B68DB68B5
:1051A000019308BD2C02030008B5024B1B681B6964
:1051B000019308BD2C02030008B5024B1B689B69D4
:1051C000019308BD2C02030008B5024B1B68DB6984
:1051D000019308BD2C02030008B5024B1B68DB6875
:1051E000019308BD2802030008B5024B1B689B69A8
:1051F000019308BD2802030008B5024B1B68DB6958
:10520000019308BD2802030008B5024B1B681B6A06
:10521000019308BD2802030008B5024B1B685B6AB6
:10522000019308BD2802030008B5024B1B689B6A66
:10523000019308BD2802030008B5024B1B68DB6A16
:10524000019308BD2802030008B5024B1B681B6BC5
:10525000019308BD2802030008B5024B1B685B6B75
:10526000019308BD2802030008B5024B1B681B6CA4
:10527000019308BD2802030008B5024B1B681B6D93
:10528000019308BD2802030008B5024B1B685B6947
:10529000019308BD6402030008B5024B1B689B68BC
:1052A000019308BD6802030008B5024B1B68DB6868
:1052B000019308BD6802030008B5024B1B68DB6957
:1052C000019308BD3002030008B5024B1B681B6A3E
:1052D000019308BD3002030008B5024B1B681B6830
:1052E000019308BD3C02030008B5024B1B68DB6854
:1052F000019308BD3C02030008B5024B1B681B6903
:10530000019308BD3C02030008B5024B1B685B69B2
:10531000019308BD3C02030008B5024B1B689B6962
:10532000019308BD3C02030008B5024B1B68DB6912
:10533000019308BD3C02030008B5024B1B681B6AC1
:10534000019308BD3C02030008B5024B1B689B6A31
:10535000019308BD3C02030008B5024B1B681B68A3
:10536000019308BD4C02030008B5024B1B685B6843
:10537000019308BD4C02030008B5024B1B681B6972
:10538000019308BD4C02030008B5024B1B685B6922
:10539000019308BD4C02030008B5024B1B689B69D2
:1053A000019308BD4C02030008B5024B1B68DB6982
:1053B000019308BD4C02030008B5024B1B681B6A31
:1053C000019308BD4C02030008B5024B1B685B6BE0
:1053D000019308BD6002030008B5034B1B68D3F8B6
:1053E0009830019308BD00006002030008B5024B2D
:1053F0001B681B68019308BD2002030008B5024B1F
:105400001B685B68019308BD2002030008B5024BCE
:105410001B685B69019308BD2002030008B5024BBD
:105420001B68DB6A019308BD2002030008B5024B2C
:105430001B68DB6C019308BD2002030008B5024B1A
:105440001B685B6D019308BD2002030008B5024B89
:105450001B689B6D019308BD2002030008B5034B38
:105460001B68D3F88830019308BD000020020300B8
:1054700008B5034B1B68D3F89430019308BD0000B6
:105480002002030008B5034B1B68D3F8B03001932A
:1054900008BD00002002030008B5024B1B681B6812
:1054A000019308BD4402030008B5024B1B685B680A
:1054B000019308BD4402030008B5024B1B689B68BA
:1054C000019308BD4402030008B5024B1B685B69E9
:1054D000019308BD4402030008B5024B1B68DB6959
:1054E000019308BD4402030008B5024B1B681B6A08
:1054F000019308BD4402030008B5024B1B685B6AB8
:10550000019308BD4402030008B5024B1B68DB6A27
:10551000019308BD4402030008B5024B1B681B6BD6
:10552000019308BD4402030008B5024B1B68DB6B06
:10553000019308BD4402030008B5024B1B685B6879
:10554000019308BD4002030008B5024B1B689B682D
:10555000019308BD4002030008B5024B1B68DB68DD
:10556000019308BD4002030008B5024B1B681B698C
:10557000019308BD4002030008B5024B1B685B693C
:10558000019308BD4002030008B5024B1B689B69EC
:10559000019308BD4002030008B5024B1B68DB699C
:1055A000019308BD4002030008B5024B1B681B6A4B
:1055B000019308BD4002030008B5024B1B681B6B3A
:1055C000019308BD4002030008B5024B1B685B6BEA
:1055D000019308BD4002030008B5024B1B681B681D
:1055E000019308BD1C02030008B5024B1B685B68F1
:1055F000019308BD1C02030008B5024B1B689B68A1
:10560000019308BD1C02030008B5024B1B681B690F
:10561000019308BD1C02030008B5024B1B68DB693F
:10562000019308BD1C02030008B5024B1B68DB6A2E
:10563000019308BD1C02030008B5024B1B681B6BDD
:10564000019308BD1C02030008B5024B1B685B6C8C
:10565000019308BD1C02030008B5024B1B68DB6CFC
:10566000019308BD1C0203000021FFF7CFBE10B557
:10567000836804460BB901F00AFAC3689847A36827
:105680001BB1032221462046984720461021BDE841
:10569000104001F0F8B910B50446006808B1FFF7F2
:1056A00013FD204610BD0B68036013B15A68013228
:1056B0005A60704710B5064C002320462360FFF760
:1056C000FBFC2046034A0449BDE8104001F0D6B96E
:1056D000D4E5032098E4032097560D00002240688B
:1056E0001146FFF741BF002240681146FFF75CBF3B
:1056F000002240681146FFF767BF40680022FFF7AD
:105700005BBF4068002281F00101FFF745BF002325
:1057100040681A461946FFF737BF002340681A460B
:105720001946FFF729BF002240681146FFF70CBF5A
:10573000406800220221FFF70FBF002340681A468D
:10574000FFF7FABE084B10B5282422461846002160
:1057500001F0CEFE054B04804FF0FF324260042280
:105760005A60034A1A6010BDE0E50320D8E5032023
:1057700040970D0070470020704710B51021044677
:1057800001F081F9204610BD08B5FFF7F6FF08BD0E
:1057900010B58368044613B103220146984720469A
:1057A00010BD30B500224FF69C74026084808D8855
:1057B0008C800C68858004600A6030BD10B504469A
:1057C0000068FFF711FF204610BD38B5C468F4B17A
:1057D0002378022B03D104F10C00FFF7EFFF65687B
:1057E00035B12846FFF7D4FF1021284601F04BF9C8
:1057F000A56835B12846FFF7CBFF1021284601F0F8
:1058000042F920461421BDE8384001F03CB938BDCA
:1058100010B588B00446684600F059FD694604A8F2
:1058200000F078FD04A8A047044604A800F004FD99
:10583000684600F001FD204608B010BD1FB50023EA
:10584000CDE90201019210241A4669461846ADF8C6
:105850000230ADF80040FFF727FE04B010BD73B56D
:105860000E46044656F8043B00930D4601A8314607
:10587000FFF719FF019A009B6260236001A80023D3
:1058800001930093FEF78EFD3046FEF78BFD284610
:10589000082101F0F8F8204602B070BD13B50B46A0
:1058A0000246D0E900016C4684E8030093E8030057
:1058B00082E8030094E8030083E8030002B010BD0F
:1058C000826810B50AB901F0E2F8BDE81040C3687B
:1058D000184708B5006800F11001FFF7F1FF08BD97
:1058E000826810B50AB901F0D2F8BDE81040C3686B
:1058F000184708B5006800F11001FFF7F1FF08BD77
:1059000038B500230446036010200D46FEF7C3FBA4
:1059100028B10123C0E90133024B0360C560206058
:10592000204638BD74970D0038B5002383608B681E
:1059300004460D462BB102229847EB68E360AB6842
:10594000A360204638BD0000F0B589B00468684601
:10595000FFF727FF4FF00203D4E84F2F002A03D1AF
:10596000C4E8413F0029F7D125D104F10C0569466F
:105970002846FFF716FFBFF35B8F012363700020FB
:1059800004F10803BFF35B8F53E8006F43E80002A4
:10599000002AF9D1BFF35B8F6EB1FFF747FD78B1F5
:1059A00029463046FFF78CFF3046FFF7F1FE102105
:1059B000304601F068F86846FFF700FF09B0F0BD17
:1059C000314602A8FFF7B0FFE068B4F9105008B103
:1059D00001F0CCFD06901020ADF81C50FEF75BFBEB
:1059E0000546E8B1002787601820FEF754FB0446FF
:1059F00088B10146876002A8FFF750FF049BA268A8
:105A0000A360059B049206A9E268E36004F110001C
:105A10000592FFF7C6FE084BEB60084B2C60AB60AD
:105A200006A8FFF7CBFE02A8FFF7B2FE0022294628
:105A30000348FFF703FDB7E7D3580D00695B0D007E
:105A40006F560D002DE9F0478AB005469DF8489045
:105A50000C4617469846FFF737FD07AE824638BB1F
:105A60004FF62E73059005A93046ADF81830FFF7B4
:105A700098FE1420FEF70FFB044648B10223037082
:105A80000123C0E901AA437031460C30FFF789FEBB
:105A90002846214640F8044BFFF732FF3046FFF717
:105AA0008DFE05A8FFF78AFE28460AB0BDE8F087FC
:105AB0000C234FF0000A1420CDE908AA0793FEF743
:105AC000EAFA014628B1C0E901AA80F800A080F8EE
:105AD00001A004A80391FFF713FF224B08930820AD
:105AE000FEF7D9FA824628B1039B40F8043B04A98B
:105AF000FFF7D9FD00965FFA89F342463946204602
:105B0000CDF824A0FFF7F0FCB8B9039B5B7803F055
:105B1000FF0293B94FF69C7305A903A80592ADF84F
:105B20001830FFF711FF05A8FFF748FE05A80999EF
:105B3000FFF795FE06A8FEF735FC039B059304A925
:105B400006A8FFF7B0FD059B069A2B606A6000234C
:105B500006A806930593FEF725FC04A8FEF722FC91
:105B6000A2E700BF2D5C0D00022AF8B5054607D05C
:105B7000032A18D0012A01D10B6803600020F8BD68
:105B800018200E68FEF787FA044650B13146FFF739
:105B9000CBFE3069B6F9147008B101F0E7FC206162
:105BA000A7822C60EAE70468002CE7D004F110001B
:105BB000FFF704FE2046FFF7EBFD1821204600F01A
:105BC00062FFDBE738B5002383608B6804460D462F
:105BD0002BB102229847EB68E360AB68A3602046D4
:105BE00038BD022A70B5044607D0032A12D0012A14
:105BF00001D10B680360002070BD14200E68FEF711
:105C00004AFA054620B13146FFF7DCFF337C2B749E
:105C10002560F0E70468002CEDD02046FFF7B8FDC2
:105C20001421204600F02FFFE5E70000F0B589B011
:105C300004460D4601A81146FFF711FEA4B124B297
:105C40001DB1284601F092FC054601A803A9039561
:105C5000ADF81040FFF778FE03A8FFF7AFFD02A8EC
:105C6000FEF7A0FB09B0F0BD019D0123D5E84F2F41
:105C7000002A03D1C5E8413F0029F7D1EFD12B73AA
:105C8000BFF35B8F6B702B1DBFF35B8F53E8006F0F
:105C900043E80042002AF9D1BFF35B8F002EDED02B
:105CA0002046FFF7C3FB074660B105F10C01304603
:105CB000FFF716FE3046FFF76BFD1021304600F06F
:105CC000E2FECCE7314603A8FFF77CFF2B7B8DF883
:105CD0001C301020FEF7DFF90546D0B18760142094
:105CE000FEF7D9F9044678B18760014603A8FFF7AB
:105CF000D5FD059BA268A360069B0592E268E36060
:105D00009DF81C3006922374064BEB60064B2C600A
:105D1000AB6003A8FFF73CFD002229460348FFF7CC
:105D20008DFBC7E7F3580D00E35B0D006F560D00C8
:105D3000002240681146FFF737BC00224068114638
:105D4000FFF742BC40680022FFF736BC40680022E3
:105D500081F00101FFF720BC002340681A46194674
:105D6000FFF712BC002340681A461946FFF704BC2F
:105D7000002240681146FFF7F7BB00224068114639
:105D8000FFF7E2BB406800220221FFF7E5BB0023DA
:105D900040681A46FFF7D0BB024B03225A60024A02
:105DA0001A60704708E6032090970D007047F8B519
:105DB000064615460C468F18BC4206D0336814F8C8
:105DC000011B9B6830469847F6E72846F8BD007CE3
:105DD0000022FFF719BA007C0021FFF71DBA007CF2
:105DE0000021FFF721BA007C0021FFF725BA007CD3
:105DF0000021FFF729BA10B51421044600F043FE34
:105E0000204610BD10B54FF47A73044608460021B1
:105E1000C4E90113034B236020741146FFF724FAF1
:105E2000204610BDC4970D000023007C1A46194679
:105E3000FFF7D2B97FB500221423CDE90122ADF8D6
:105E400004300B788DF808304B680393CB680493CB
:105E5000007C0B7A059301A9FFF70EFA07B05DF8F5
:105E600004FB1FB5003B8DF800104FF06401039157
:105E700018BF0123694601928DF80830FFF7DAFF59
:105E800005B05DF804FB0123FFF7EBBF007C0022A7
:105E9000FFF7AAB9007C0022FFF7AEB90121FFF796
:105EA000F9BF00472DE9FF4100241D460F469046EB
:105EB0000646FFF789F9A5424FF00403ADF80D40FF
:105EC0008DF80C308DF80F40A2BF9DF828308DF86A
:105ED0000E3003AC0749009443463A463046A8BF0B
:105EE0008DF80D50FFF768F9B0FA80F0400904B062
:105EF000BDE8F081A35E0D00704710B5182104467F
:105F000000F0C1FD204610BDF0B5037D062B8DB01D
:105F10000E4600F104074FF0000412D000F108050E
:105F200015F8011D0A22304600F049F9AF42044439
:105F300019D0002CF4D02E21304600F027F904446B
:105F4000EEE72F236A4639460A208DF80040FFF716
:105F50009BF9684601F027FB33680246DB68694617
:105F600030469847044620460DB0F0BD10B5054BAD
:105F70000446112240F8043B002101F0B9FA204602
:105F800010BD00BFEC970D000346074A10B543F85B
:105F9000042B01F1100251F8044B43F8044B9142D9
:105FA000F9D10A781A7010BDEC970D0010B59DF864
:105FB000084044EA032343EA024242EA016104231F
:105FC0004160037510BD13B5CB7800938B784A7888
:105FD0000978FFF7EBFF02B010BD0000014B024A49
:105FE0001A60704710E60320F8970D000023406800
:105FF0001A46FFF7A1BA406800220221FFF7ACBAA7
:10600000002240681146FFF79FBA002240681146FF
:10601000FFF7AABA002340681A461946FFF7ACBA40
:10602000002340681A461946FFF7AEBA40680022BE
:1060300081F00101FFF7B0BA40680022FFF7BCBA57
:10604000002240681146FFF7BFBA0022406811469F
:10605000FFF7AABA2DE9F043002495B016460D4685
:106060000746FFF783FF214618220EA8009401F08F
:106070003FFA4023CDE90C3421466B460CAA30464A
:10608000FFF712F90446002846D10246012168684C
:10609000FFF76AFA0221804622466868FFF764FA31
:1060A000009E81462146002E36D0002934D17368E7
:1060B000022B03D00A2B0BD0F669F4E7B8F1000FDE
:1060C00004D0716938460431FFF77DFF4146F3E79C
:1060D000B9F1000F01D14946EEE77469102201A819
:1060E00001F006FA06238DF8143001AD04F108031F
:1060F0001834186859682A4603C20833A342154663
:10610000F7D101A906A807ADFFF73EFF0FCD3C1D53
:106110000FC42B682370DEE70098FFF7BDF8384600
:1061200015B0BDE8F0830000024B034A1A6000225C
:106130005A60704714E6032004980D00F8B506462F
:106140000D468F180024BD420CD0336815F8011B92
:106150009B6830469847031E01DB1C44F3E7002C84
:1061600008BF1C462046F8BD13B50446084659B181
:10617000019101F018FA23680199DB680246204674
:1061800002B0BDE81040184702B010BD03689B681C
:10619000184738B50D210546FFF7F8FF0A210446D8
:1061A0002846FFF7F3FF204438BD38B50546FFF712
:1061B000DBFF04462846FFF7ECFF204438BD30B52E
:1061C0008BB000238DF82430012A98BF0A2209AC35
:1061D0000D46B1FBF2F101FB125303F0FF03092B53
:1061E00094BF30333733DBB2AA4204F8013DEFD914
:1061F0002146FFF7B9FF0BB030BD10B50446FFF7DD
:10620000C7FA204610BD00000348044A0449002391
:10621000836000F033BC00BF1CE6032098E4032039
:10622000FB610D0010B5044608462170FFF744F8E5
:1062300000236360204610BD10B504460068FFF7D8
:10624000D3F9204610BD10B50446006808B1FFF729
:10625000CBF90023C4E90133236010BD38B50446EF
:106260000D4600680131FFF7C7F910B1C4E9000518
:10627000012038BD10B50368044623B143688B4242
:1062800001D3012010BD2046FFF7E8FF0028F9D018
:10629000A368002BF5D122681370F2E737B50D46DD
:1062A000114601920446FFF7E5FF019A28B92046FE
:1062B000FFF7C9FF204603B030BDA2602946206821
:1062C00001F008F92268A3680021D154F2E7002305
:1062D00013B5C0E9003304468360037341B1084637
:1062E000019101F060F9019902462046FFF7D6FFBF
:1062F000204602B010BD884210B5044605D00B6898
:106300002BB18A681946FFF7C9FF204610BDFFF779
:106310009AFFFAE710B500230446C0E90033836012
:106320000373FFF7E8FF204610BD08B582683AB94D
:1063300021B10878B0FA80F0400900E0012008BDE2
:10634000006809B90078F5E701F0FEF8F2E758B502
:106350000E462AB121B184689C4202D800230B70FA
:1063600058BDE41A013A0168944228BF1446194402
:106370002246304601F031F900233355F0E70000A2
:1063800008B5006840B101F08FF851EC100B00F037
:10639000F7FF00EE100A08BD9FED010AFBE700BF02
:1063A0000000000007B50B460021024600910120C5
:1063B0008C21FFF767F803B05DF804FB014600206D
:1063C000FFF7F0BF0020FFF7F9BF000010B5094B41
:1063D000094C022200201A60084B2060A080A071A6
:1063E000A360FFF70BF82046054A0649BDE81040B8
:1063F00000F044BB38E603202CE603200000FFFF3A
:1064000098E403200D410D002DE9F041154ADFF815
:106410006080D2E90032C01842EB0101124AD2E991
:106420000032C61841EB0207D8E90023BB4208BF7F
:10643000B2428CB013D003A96846CDE90067FFF7DC
:106440000BF9089B094D03F26C7303AC08930FCC56
:106450000FC50FCC0FC5C8E9006723682B600CB0CF
:10646000BDE8F08170E6032068E6032040E60320E3
:1064700078E6032008B50020FFF74EF828B1FFF7B3
:1064800023F880F00100C0B208BD0120FCE7000045
:1064900030B504461848D0E90010521840EB030309
:1064A0001648D0E90010521893B040EB0303CDE931
:1064B000002324220DEB0200002101F019F8002531
:1064C00009A96846FFF7C8F81622294603A80295CD
:1064D00001F00EF802A909A800F0C0FF02A801F01F
:1064E00062F812AB184402A900F8415C2046FFF79D
:1064F000EEFE204613B030BD70E6032068E60320B0
:1065000010B50020FEF728FE0446A0B9FEF76EFF86
:10651000012810D12046FEF799FF60B9FFF7AAFFC6
:1065200010B9FEF7C9FFF9E7FFF7A4FFBDE8104077
:106530000020FEF711BE204610BD1FB5FFF7E0FF9B
:1065400010220021684600F0D3FF00216846FEF7C4
:106550000BFE009805B05DF804FB000008B5FFF7DE
:10656000ECFFC117FFF750FF014B986808BD00BF53
:1065700040E6032008B5FFF7E0FFC117FFF744FF2F
:10658000014B586808BD00BF40E60320024B1A6863
:10659000024B1A60704700BFC0E203203CE60320B4
:1065A00070474174704708B5007CFEF7CDFE20EAC5
:1065B000E07008BD08B5007CFEF79EFE20EAE070A2
:1065C00008BD08B5007CFEF7A7FE40EAE07008BDF4
:1065D00008B5007CFEF798FE40EAE07008BD007C3C
:1065E000FEF7A2BE37B5457C04462DB1207C03B032
:1065F000BDE83040FEF778BE007C0191FEF7A4FEB6
:1066000000280199F2DC284603B030BD10B51421F2
:10661000044600F038FA204610BD000010B54FF0D7
:10662000000C0446084611464FF47A72C4E901C2D0
:10663000044A22600122207462741A46FEF74CFE5E
:10664000204610BD54980D0013B50E4C2178BFF3B1
:106650005B8F11F0010112D120460191FDF721FD60
:10666000019960B1084A094B0948FFF7D7FF204656
:10667000FDF71CFD074A0849054800F0FFF90448EA
:1066800002B010BD80E6032084E6032008E7032063
:106690008CE7032098E40320A1650D004174704746
:1066A000704708B50021007CFEF776FE40EAE070F6
:1066B00008BD08B50121007CFEF76EFE40EAE070DF
:1066C00008BD08B5007CFEF75FFE20EAE07008BD5B
:1066D00008B5007CFEF750FE20EAE07008BD13B557
:1066E0000446007C0191FEF74FFE0028019901DC71
:1066F000607C20B1207CFEF757FE20EAE07002B0FB
:1067000010BD007CFEF758BE10B51421044600F001
:10671000BAF9204610BD000010B54FF47A73044654
:1067200008460021C4E90113044B236001232074AF
:1067300063741146FEF710FE204610BD84980D00CC
:10674000007C0022FEF710BE10B514220446002182
:1067500000F0CEFE204610BD10B5104C88B003A846
:10676000FFF7F2FF2178BFF35B8F11F0010111D128
:1067700020460191FDF795FC019958B103AA0848FC
:10678000FFF7CAFF2046FDF791FC064A0649044878
:1067900000F074F9024808B010BD00BFA0E7032064
:1067A000A4E7032098E40320A1660D00014B1860C4
:1067B000704700BFC4E2032008B50B4B43B1FFF79D
:1067C000CBFF03681B699847002801DDAFF3008009
:1067D000064B43B1FFF738FF03681B699847002851
:1067E00001DDAFF3008008BD0000000000000000E4
:1067F00008B5FFF7E1FFFEF787FC014B186008BD05
:10680000CCE703200248034A0349121A00F062BE93
:1068100000F4032004F40320A09B0D0007B500231F
:1068200000931A466FF07701FEF722FE03B05DF881
:1068300004FB000007B543880A2B08D0502B0BD16E
:10684000094B1B684BB103B05DF804EB1847FFF729
:10685000E5FF03B05DF804FB002300931A466FF0D8
:106860007701FEF705FEF4E7BCE7032038B5124CCC
:106870001248134D0021FEF7E7FE2368AB42114B8F
:106880000CBF012200221A7002D0FFF7BBFF256067
:10689000FEF72AFC044600F033FE0B4B13B12046F2
:1068A000AFF3008000210848FEF73EFEBDE8384007
:1068B00006480021FEF7D2BD00F40320AD670D00AD
:1068C0001E1C279AB8E703200000000035680D0061
:1068D00008B5024B1B681B68019308BD5C020300EE
:1068E00008B5024B1B685B68019308BD5C0203009E
:1068F00008B5024B1B689B68019308BD5C0203004E
:10690000232813B502D9002002B010BDA0F10B035B
:10691000022B1AD8174C2178BFF35B8F11F00101BD
:106920000BD120460191FDF7BCFB019928B112481B
:10693000FFF778FC2046FDF7B9FB0F4B1878FEF700
:10694000C3FC0028DFD10120DEE7012809D800F0D0
:106950006DF80021007CFEF77FFC80F00100C0B2E2
:10696000D2E709380128EED8FFF76EFE007CFEF76B
:10697000E3FCF2E7C0E70320C4E70320232838B58F
:1069800004460D460AD8FF2908D0FFF7B9FF28B101
:1069900029462046BDE83840FEF7F6BB38BD38B57D
:1069A00004460D46FEF7F8FBFF2810D0062804D851
:1069B0004D2323FA00F0C30709D42046FFF7A0FFB8
:1069C00028B129462046BDE83840FEF7EDBB38BD6A
:1069D00010B5084C2378BFF35B8FDB0708D4204643
:1069E000FDF75FFB20B1FEF797FB2046FDF75EFB4E
:1069F000014810BDD0E70320D4E7032038B50023B9
:106A000020254380142304460380856005610649E0
:106A1000284600F03AF804496060284600F035F84E
:106A2000E060204638BD00BFAC980D0030B50F4D7A
:106A30002978BFF35B8F11F0010487B013D128468A
:106A4000FDF72FFB78B101A8FFF7D8FF01AA214677
:106A50000748FFF7D7F92846FDF728FB054A0649FE
:106A6000034800F00BF8024807B030BDD8E7032018
:106A7000DCE7032098E40320AD5D0D000B460146E2
:106A8000184600F019BDFDF70ABBFDF706BB08B5B7
:106A9000FEF7CAFD81F0004102E000BF83F0004331
:106AA00030B54FEA41044FEA430594EA050F08BFA9
:106AB00090EA020F1FBF54EA000C55EA020C7FEA6D
:106AC000645C7FEA655C00F0E2804FEA5454D4EBEA
:106AD0005555B8BF6D420CDD2C4480EA020281EAB4
:106AE000030382EA000083EA010180EA020281EAEC
:106AF0000303362D88BF30BD11F0004F4FEA01313E
:106B00004FF4801C4CEA113102D0404261EB41014C
:106B100013F0004F4FEA03334CEA133302D05242D2
:106B200063EB430394EA050F00F0A780A4F101048E
:106B3000D5F1200E0DDB02FA0EFC22FA05F28018C8
:106B400041F1000103FA0EF2801843FA05F35941AE
:106B50000EE0A5F120050EF1200E012A03FA0EFC2D
:106B600028BF4CF0020C43FA05F3C01851EBE37157
:106B700001F0004507D54FF0000EDCF1000C7EEB74
:106B800000006EEB0101B1F5801F1BD3B1F5001FB2
:106B90000CD349085FEA30004FEA3C0C04F10104D1
:106BA0004FEA445212F5800F80F09A80BCF1004FFA
:106BB00008BF5FEA500C50F1000041EB045141EA7C
:106BC000050130BD5FEA4C0C404141EB0101013C45
:106BD00028BFB1F5801FE9D291F0000F04BF014634
:106BE0000020B1FA81F308BF2033A3F10B03B3F106
:106BF00020020CDA0C3208DD02F1140CC2F10C0296
:106C000001FA0CF021FA02F10CE002F11402D8BFF3
:106C1000C2F1200C01FA02F120FA0CFCDCBF41EABF
:106C20000C019040E41AA2BF01EB0451294330BD8E
:106C30006FEA04041F3C1CDA0C340EDC04F114046B
:106C4000C4F1200220FA04F001FA02F340EA030042
:106C500021FA04F345EA030130BDC4F10C04C4F188
:106C6000200220FA02F001FA04F340EA0300294668
:106C700030BD21FA04F0294630BD94F0000F83F4B2
:106C8000801306BF81F480110134013D4EE77FEA95
:106C9000645C18BF7FEA655C29D094EA050F08BFE1
:106CA00090EA020F05D054EA000C04BF19461046C2
:106CB00030BD91EA030F1EBF0021002030BD5FEA06
:106CC000545C05D14000494128BF41F0004130BD2E
:106CD00014F580043CBF01F5801130BD01F0004582
:106CE00045F0FE4141F470014FF0000030BD7FEAF5
:106CF000645C1ABF194610467FEA655C1CBF0B46F0
:106D0000024650EA013406BF52EA033591EA030F06
:106D100041F4002130BD00BF90F0000F04BF0021FE
:106D2000704730B54FF4806404F132044FF0000531
:106D30004FF0000150E700BF90F0000F04BF0021AA
:106D4000704730B54FF4806404F1320410F0004510
:106D500048BF40424FF000013EE700BF42004FEA0B
:106D6000E2014FEA31014FEA02701FBF12F07F4388
:106D700093F07F4F81F06051704732F07F4208BF3F
:106D8000704793F07F4F04BF41F40021704730B546
:106D90004FF4607401F0004521F000411CE700BF92
:106DA00050EA010208BF704730B54FF000050AE015
:106DB00050EA010208BF704730B511F0004502D516
:106DC000404261EB41014FF4806404F132045FEA18
:106DD000915C3FF4D8AE4FF003025FEADC0C18BFC1
:106DE00003325FEADC0C18BF033202EBDC02C2F1B3
:106DF000200300FA03FC20FA02F001FA03FE40EA45
:106E00000E0021FA02F11444BDE600BF70B54FF048
:106E1000FF0C4CF4E06C1CEA11541DBF1CEA135526
:106E200094EA0C0F95EA0C0F00F0DEF82C4481EA8E
:106E3000030621EA4C5123EA4C5350EA013518BFAE
:106E400052EA033541F4801143F4801338D0A0FB9B
:106E500002CE4FF00005E1FB02E506F00042E0FB48
:106E600003E54FF00006E1FB03569CF0000F18BF4E
:106E70004EF0010EA4F1FF04B6F5007F64F54074F6
:106E800004D25FEA4E0E6D4146EB060642EAC62189
:106E900041EA55514FEAC52040EA5E504FEACE2EF6
:106EA000B4F1FD0C88BFBCF5E06F1ED8BEF1004FF9
:106EB00008BF5FEA500E50F1000041EB045170BD75
:106EC00006F0004646EA010140EA020081EA0301B9
:106ED000B4EB5C04C2BFD4EB0C0541EA045170BDB5
:106EE00041F480114FF0000E013C00F3AB8014F12F
:106EF000360FDEBF002001F0004170BDC4F1000478
:106F0000203C35DA0C341BDC04F11404C4F12005F8
:106F100000FA05F320FA04F001FA05F240EA020053
:106F200001F0004221F0004110EBD37021FA04F689
:106F300042EB06015EEA430E08BF20EAD37070BD43
:106F4000C4F10C04C4F1200500FA04F320FA05F0A2
:106F500001FA04F240EA020001F0004110EBD370A4
:106F600041F100015EEA430E08BF20EAD37070BD14
:106F7000C4F1200500FA05F24EEA020E20FA04F3ED
:106F800001FA05F243EA020321FA04F001F000419C
:106F900021FA04F220EA020000EBD3705EEA430E0D
:106FA00008BF20EAD37070BD94F0000F0FD101F03C
:106FB0000046400041EB010111F4801F08BF013C75
:106FC000F7D041EA060195F0000F18BF704703F0B3
:106FD0000046520043EB030313F4801F08BF013D3A
:106FE000F7D043EA0603704794EA0C0F0CEA1355F6
:106FF00018BF95EA0C0F0CD050EA410618BF52EAB0
:107000004306D1D181EA030101F000414FF00000B5
:1070100070BD50EA410606BF1046194652EA4306C3
:1070200019D094EA0C0F02D150EA013613D195EA37
:107030000C0F05D152EA03361CBF104619460AD17F
:1070400081EA030101F0004141F0FE4141F4700189
:107050004FF0000070BD41F0FE4141F4780170BD79
:1070600070B54FF0FF0C4CF4E06C1CEA11541DBFDE
:107070001CEA135594EA0C0F95EA0C0F00F0A7F8E0
:10708000A4EB050481EA030E52EA03354FEA01310D
:1070900000F088804FEA03334FF0805545EA131320
:1070A00043EA12634FEA022245EA111545EA1065E8
:1070B0004FEA00260EF000419D4208BF964244F17F
:1070C000FD0404F5407402D25B084FEA3202B61A9E
:1070D00065EB03055B084FEA32024FF480104FF472
:1070E000002CB6EB020E75EB030E22BFB61A7546E6
:1070F00040EA0C005B084FEA3202B6EB020E75EB79
:10710000030E22BFB61A754640EA5C005B084FEAE0
:107110003202B6EB020E75EB030E22BFB61A7546AD
:1071200040EA9C005B084FEA3202B6EB020E75EBB8
:10713000030E22BFB61A754640EADC0055EA060E79
:1071400018D04FEA051545EA16754FEA06164FEABC
:10715000C30343EA52734FEAC2025FEA1C1CC0D168
:1071600011F4801F0BD141EA00014FF000004FF0F5
:10717000004CB6E711F4801F04BF01430020B4F1B6
:10718000FD0C88BFBCF5E06F3FF6AFAEB5EB030C6E
:1071900004BFB6EB020C5FEA500C50F1000041EB6B
:1071A000045170BD0EF0004E4EEA113114EB5C0438
:1071B000C2BFD4EB0C0541EA045170BD41F480110B
:1071C0004FF0000E013C90E645EA060E8DE60CEA13
:1071D000135594EA0C0F08BF95EA0C0F3FF43BAF30
:1071E00094EA0C0F0AD150EA01347FF434AF95EAE7
:1071F0000C0F7FF425AF104619462CE795EA0C0FCB
:1072000006D152EA03353FF4FDAE1046194622E797
:1072100050EA410618BF52EA43067FF4C5AE50EA71
:1072200041047FF40DAF52EA43057FF4EBAE12E761
:107230004FF0FF3C06E000BF4FF0010C02E000BF42
:107240004FF0010C4DF804CD4FEA410C7FEA6C5C25
:107250004FEA430C18BF7FEA6C5C1BD001B050EAC8
:10726000410C0CBF52EA430C91EA030F02BF90EAB3
:10727000020F0020704710F1000F91EA030F58BF72
:10728000994208BF90422CBFD8176FEAE37040F0D4
:10729000010070474FEA410C7FEA6C5C02D150EA72
:1072A000013C07D14FEA430C7FEA6C5CD6D152EA2D
:1072B000033CD3D05DF8040B704700BF84461046F2
:1072C00062468C461946634600E000BF01B5FFF7F1
:1072D000B7FF002848BF10F1000F01BD4DF808EDC1
:1072E000FFF7F4FF0CBF012000205DF808FB00BF92
:1072F0004DF808EDFFF7EAFF34BF012000205DF8EC
:1073000008FB00BF4DF808EDFFF7E0FF94BF012038
:1073100000205DF808FB00BF4DF808EDFFF7CEFF39
:1073200094BF012000205DF808FB00BF4DF808ED78
:10733000FFF7C4FF34BF012000205DF808FB00BF49
:107340004A0011D212F5001211D20DD56FF47873E4
:10735000B3EB62520ED44FEAC12343F0004343EA39
:10736000505323FA02F070474FF00000704750EA84
:10737000013002D14FF0FF3070474FF000007047EE
:107380004FEA4102B2F1E04324BFB3F5001CDCF147
:10739000FE5C0DD901F0004C4FEAC0024CEA50707F
:1073A000B2F1004F40EB830008BF20F001007047AE
:1073B00011F0804F21D113F13872BCBF01F00040B1
:1073C000704741F480114FEA5252C2F11802C2F1E3
:1073D000200C10FA0CF320FA02F018BF40F0010064
:1073E0004FEAC1234FEAD32303FA0CFC40EA0C0016
:1073F00023FA02F34FEA4303CCE77FEA625307D153
:1074000050EA01331EBF4FF0FE4040F44000704789
:1074100001F0004040F0FE4040F40000704700BF23
:10742000D0B50C4B002206460F46FFF7EFFCFFF7E6
:1074300087FF0446FFF770FC074B0022FFF7E6FCCE
:1074400002460B4630463946FFF728FBFFF778FF28
:107450002146D0BD0000F03D0000F04110B50C46C3
:1074600041690369826986B001F26C710491016817
:1074700003914168029181680191C16800910749B7
:1074800003EB43030B44064902EB42020A44204645
:107490000449FEF7B9F8204606B010BDE2980D0089
:1074A000CD980D00AD980D00002100F0CFBE0A224E
:1074B000002100F051BF000010B5054C13462CB15F
:1074C0000A4601460220AFF3008010BD2046FCE7CB
:1074D000000000000A44914200F1FF3300D17047E0
:1074E00010B511F8014B03F8014F9142F9D110BDCD
:1074F00002440346934200D1704703F8011BF9E7A9
:1075000038B50D4B1D68AB6B04467BB91820FEF7F0
:1075100063F80A4A0A4BA863C0E90023094B836059
:107520000B23838101220023C0E90423AB6B0022DB
:107530001C615A6138BD00BFC4E203200E33CDABDD
:1075400034126DE6ECDE050010F8012B11F8013B5A
:10755000012A28BF9A42F7D0D01A7047034611F883
:10756000012B03F8012B002AF9D17047024B014689
:10757000186800F003B800BFC4E2032037B5044622
:1075800008460D4600F00FF8421C114620460192B5
:10759000FEF752F8044618B1019A2946FFF79AFF00
:1075A000204603B030BD034613F8012B002AFBD15F
:1075B000181A0138704710B56AB10139841810F8EB
:1075C000013B11F8012F934203D1A04201D0002BBF
:1075D000F5D1981A10BD1046FCE710B501390346E5
:1075E00032B111F8014F03F8014B013A002CF7D1E9
:1075F0001A440021934200D110BD03F8011BF9E7A2
:1076000070B504460D4645EC104B164601F01AFDC8
:1076100051EC100B7EB1C5F30A53C3F16B03002B81
:1076200009DD1B0503F17F55002405F540152246B1
:107630002B46FFF7EBFB70BD2DE9F04FA3B01F46C3
:1076400000231E93A44B19921B6807930446184607
:107650008846FFF7A8FF4FF0000A05464FF0000BE1
:10766000CDF874801D9B1A782B2A4CD039D80D2A5E
:1076700032D8082A32D8002A3CD000230E931D9E0F
:107680003378302B40F0B480737803F0DF03582B4D
:107690006CD10E9B01931EAB029700938F4A1FABD8
:1076A0001DA9204600F0CAFE10F00707054605D0C8
:1076B000062F2AD1013600231D960E93199B002B0D
:1076C00040F096850E9BDBB152460BF1004343EC34
:1076D000102B23B0BDE8F08F202ACED101331D93AB
:1076E000C0E72D2AC9D101220E925A1C1D925B7847
:1076F000002BC4D1199BCDF87480002B40F0768507
:1077000052465B46E3E70022EEE71E9A3AB1352186
:1077100020A801F096FD1E99204601F0CBF9013F0B
:10772000052F07D8DFE807F00E0B181D0E034FF0EA
:10773000000BDA462807C1D54BF0004BBEE7DDE968
:1077400020ABF7E7DDE920A31F9A23F4801302F2B0
:10775000334243EA025BEDE7DFF884B14FF0000A01
:10776000E8E76FF0004B4FF0FF3AE3E71D9B5A1C30
:107770001D925B78302BF9D0002B9FD001234FF066
:10778000000904931D9B0A93CDF824904F460A22CA
:107790001D980678A6F13003D9B209292AD907998C
:1077A0002A46FFF708FF98B3002033463D4607906E
:1077B0000246652B01D0452B18D11DB9049B03430C
:1077C00098D00025DDF8748008F101031D9398F826
:1077D00001302B2B75D02D2B7BD04FF0000CA3F15B
:1077E0003001092940F28280CDF8748000269DE0A6
:1077F0000023C4E7082FD8BF099900F10100DABFC0
:1078000002FB0133099302FB093901371D90BFE7E1
:107810001D9B5A191D925B5D002F37D007903D4686
:10782000A3F13002092A12D90122C2E71D9B5A1C7A
:107830001D925B780130302BF8D0A3F13102082A79
:1078400000F2DB841D9A079000200A920546303B27
:1078500000F1010214D00799114407912A4600EB68
:10786000050E0A21724513D12A18082A05F10105CF
:1078700005441CDC09990A2202FB0133099300220A
:107880001D9B591C1D915B781046C9E73846D2E70D
:10789000082A04DC099E4E4309960132E2E702F110
:1078A000010CBCF1100FD8BF01FB09F9F5E7102D51
:1078B000DCBF0A2202FB0939E1E70023079301221A
:1078C0007CE74FF0000C08F102031D9398F802309A
:1078D00085E74FF0010CF6E76C9A0D0014990D0046
:1078E0000000F07F1D9B591C1D915B78302BF9D057
:1078F000A3F1310108293FF679AFA3F1300E1D9BAA
:1079000008931D9B591C1D915B78A3F13006092E2D
:1079100037D9089E891B082944F61F6602DC764584
:10792000A8BF7646BCF1000F00D07642002D4FD1A3
:10793000049901437FF4C2AE002A7FF4DBAE692BC9
:1079400027D024DC492B24D04E2B7FF4D3AE9E4984
:107950001DA800F0B9FF00283FF4CCAE1D9B1B789A
:10796000282B2DD1994920AA1DA800F0C1FF052878
:1079700026D1219BDDF880A043F0FF4B4BF4E00BB8
:107980009CE60A2101FB0E3EAEF1300EB9E76E2BEC
:10799000DBE78F491DA800F097FF00283FF4AAAE4F
:1079A0001D9B8C49013B1DA81D9300F08DFF10B954
:1079B0001D9B01331D93DFF82CB24FF0000A7DE6CA
:1079C000854801F091FC8DED040BDDE904AB75E613
:1079D000079B0998F31A002F08BF2F46102D089314
:1079E000A846A8BF4FF01008FFF796F9092D824668
:1079F0008B4613DD794B03EBC80353E91223FFF7E2
:107A000005FA824648468B46FFF786F902460B4642
:107A100050465946FFF744F882468B460F2D38DC16
:107A2000089B002B3FF44AAE24DD162B0BDC6B4D7C
:107A300005EBC305D5E9000152465B46FFF7E6F9C1
:107A400082468B463AE6089AC5F12503934220DB2D
:107A5000624CC5F10F0504EBC50152465B46D1E906
:107A60000001FFF7D3F9089B5D1B04EBC504D4E9C3
:107A70000023E3E7089B16330BDB079B574A9E1B4B
:107A800002EBC606D6E9002350465946FFF7E8FA4E
:107A9000D6E7089BA5EB08089844B8F1000F71DD04
:107AA00018F00F030AD04D4901EBC30152465B4663
:107AB000D1E90001FFF7AAF982468B4638F00F089A
:107AC0004DD0B8F59A7F22DD00252E460995079501
:107AD0002223DFF810B123604FF0000A099B002B2E
:107AE0003FF4ECAD1E99204600F0E4FF07992046D4
:107AF00000F0E0FF3146204600F0DCFF0999204607
:107B000000F0D8FF2946204600F0D4FFD6E5002338
:107B10004FEA2818504659469946B8F1010F21DC22
:107B20000BB182468B462E4BABF1547B03EBC9095C
:107B300052465B46D9E90001FFF768F9294B0A462E
:107B40000B4029498B428246BED8A1F580118B4259
:107B500086BFDFF898B04FF0FF3A02F1547B002364
:107B6000049381E018F0010F07D01D4B03EBC9030C
:107B7000D3E90023FFF74AF9012309F101094FEA8C
:107B80006808CAE7EBD0C8F1000818F00F020AD065
:107B9000124B03EBC20350465946D3E90023FFF7CB
:107BA0005FFA82468B465FEA2818D8D0B8F11F0FDB
:107BB0001EDD00252E460995079522234FF0000A69
:107BC0004FF0000B236089E70F990D0028990D00F5
:107BD00006990D0009990D00CC980D00A89A0D008A
:107BE000809A0D000000F07F0000A07CFFFFEF7F77
:107BF00018F0100318BF6A23DFF8B49304935046BB
:107C00005946002318F0010F04D0D9E90023FFF7EB
:107C1000FDF801235FEA680809F10809F2D10BB108
:107C200082468B46049BBBB1CBF30A53C3F16B0373
:107C3000002B594610DD1F2B40F32881342BDEBF6B
:107C4000203B4FF0FF3202FA03F34FF0000ACCBFA3
:107C50004FF05C7B03EA010B00220023504659469B
:107C6000FFF73CFB0028A4D1099B00930A992B46FF
:107C70003A46204600F073FF099000283FF424AFF5
:107C8000079B9E1B089B002BB4BF33460023109319
:107C9000089B002523EAE37318932E46099B204690
:107CA000596800F0D3FE079000283FF411AF099BFC
:107CB0001A69023203F10C0192000C30FFF70AFC42
:107CC0004BEC10AB20AA1FA92046CDE90AAB01F06E
:107CD00035FA1E9000283FF4FBAE0121204600F04B
:107CE000CCFF064600283FF4F3AE1F9B0499002BFF
:107CF000ABBF109A189A189FDDF84090ACBF03EB09
:107D00000209D71A209AA3EB01089044A34B08F16B
:107D1000FF389845C2F1360280F2CC80A3EB08030D
:107D20001F2BA2EB03024FF0010100F3B68001FA12
:107D300003F3119300230C9309EB0208049BC14544
:107D400017441F444B46A8BF4346BB42A8BF3B460F
:107D5000002BC2BFA8EB0308FF1AA9EB0309109B75
:107D6000002B17DD31461A46204601F02BF8064657
:107D700000283FF4ADAE01461E9A204600F086FF73
:107D80000F9000283FF4A4AE1E99204600F092FE0A
:107D90000F9B1E93B8F1000F00F39180089B002BFE
:107DA00008DD189A0799204601F00CF80790002882
:107DB0003FF48EAE002F08DD07993A46204601F0C9
:107DC0004FF8079000283FF483AEB9F1000F08DDAB
:107DD00031464A46204601F043F8064600283FF463
:107DE00077AE079A1E99204601F0B5F8054600289F
:107DF0003FF46EAEC3680F930023C360314601F0B9
:107E00008EF8002865DA0F9B53EA0A0340F087805A
:107E1000CBF31303002B40F082802BF000431B0DAB
:107E20001B05B3F1D66F7AD96B6913B92B69012B96
:107E300075DD29460122204601F012F8314605463B
:107E400001F06DF800286ADD0499554A5B46002967
:107E500000F0858002EA0B01B1F1D66F7FDCB1F151
:107E60005C7F7FF7AAAE4F4A0023CDE91632504619
:107E7000DDE916235946FEF7C9FF0B46034308BF49
:107E8000222382468B4608BF23602BE64FF0FF3249
:107E900002FA03F303EA0A0ADEE6C8F17F4808F5AE
:107EA0007F0808F57B4808F1E20801FA08F30C9313
:107EB000119141E700230C93012311933CE71E9994
:107EC0004246204600F0CCFF1E9000287FF466AFAB
:107ED000FEE55F466ED10F9ACBF3130342B3324AED
:107EE000934228D1049B5046EBB12D4A3A40B2F15F
:107EF000D46F4FF0FF3119D8120DC2F16B0301FAA4
:107F000003F3984217D1294B9F4202D101303FF42D
:107F1000DFAD234B3B4003F5801B4FF0000A049B71
:107F2000002BA0D1DEE54FF0FF33EAE70B46E8E790
:107F300053EA0A0388D00C9BDBB13B42EFD00F9B86
:107F4000049A50465946C3B1FFF75AFB02460B4606
:107F5000DDE90A01FEF7A4FD82468B46DFE7134008
:107F6000A3F580136FEA135B6FEA0B5B4FF0FF3AE8
:107F7000D5E7119B13EA0A0FE0E7FFF741FB024642
:107F80000B46DDE90A01FEF789FD00220023824647
:107F90008B46FFF7A3F90028C1D00EE602FCFFFFD5
:107FA0000000F07F00005039FFFF0F00FFFFEF7F60
:107FB00040990D003146284601F010F959EC108B1C
:107FC00010EE100A00224FF080434946FFF79AF95D
:107FD00000287CD00F9B002B4CD0954B0022CDE984
:107FE0000C23DFF84C924FF00008924B3B4011936A
:107FF000119A914B9A4240F0B280DDE90A23DDE903
:108000000C01A7F1547B4BEC10ABCDE91623CDE965
:108010000C0101F017F8DDE90C0153EC102BFEF711
:10802000F5FE52465B46FEF73BFD0B468149834A0F
:108030001940914282465ED90B9B02F154729342E1
:1080400003D10A9B01333FF443ADDFF8FCB14FF09D
:10805000FF3A1E99204600F02DFD0799204600F0BA
:1080600029FD3146204600F025FD2946204600F036
:1080700021FD13E6BAF1000F1BD1CBF31303F3B9C3
:108080006B4B002240464946FFF732F9D0B94046D3
:1080900049466B4B0022FEF7B9FE8046894609F13E
:1080A0000043CDF868801B93DDE91A23CDE90C234A
:1080B0009BE7BAF1010F02D1002F3FF47EAD614B77
:1080C00000228CE7DFF878914FF00008E7E75C4B7F
:1080D000404649460022FEF799FE0F9B804689469E
:1080E00033B901F1004312901393DDE91223DDE768
:1080F000CDE91289F9E703F1547B049B002BA8D149
:108100002BF00043119A1B0D1B059A42A1D140464A
:10811000494601F0FFF8FEF74BFE02460B4640468B
:108120004946FEF7BBFC0F9ACBF3130343EA0A035D
:1081300013438046894653D035A3D3E90023FFF784
:10814000D7F800287FF4CEAC33A3D3E90023404610
:108150004946FFF7EBF800283FF47BAFC2E4049BED
:1081600033B3119BB3F1D46F22D82DA3D3E90023ED
:1081700040464946FFF7C6F8A0B149464046FFF7DA
:10818000DFF8012838BF0120FEF7C6FD0F9B8046AF
:10819000894613BB01F1004314901593DDE91423C4
:1081A000CDE90C230D9B119A03F1D6639B1A0D9315
:1081B000DDE90C019DED0A0BCDE90C0100F042FF59
:1081C000DDE90C0153EC102BFEF720FEDDE90A235C
:1081D000FEF766FC82468B468FE7CDE91489DDE722
:1081E00011A3D3E90023FFF783F8B4E700230E932C
:1081F000199A1D9B1360FFF765BA652B3FF45DABC1
:10820000452B3FF45AAB0122FFF792BBAFF300803E
:108210009535A094FFFFDF3F35E5AF350000E03F27
:108220000000C0FFFFFFDF419535A094FFFFCF3F67
:108230000000F03F0000F07F0000E07FFFFF9F7C28
:108240000000E03F0000F0BFFFFFEF7F0A4601465D
:108250000248034B0068FFF7EFB900BFC4E20320F8
:108260002CE303202DE9F0473A4E86468C466046C3
:108270001CF8014BA55D15F00805F8D12D2C33D164
:108280009CF800404FF0010800F1020C002B5CD07C
:10829000102B0CD1302C0AD19CF8000000F0DF002C
:1082A00058284DD19CF8014010230CF1020C08F124
:1082B0000047013F0026B7FBF3F9304603FB197A6C
:1082C000A4F13005092D18D82C46A34224DD751CD5
:1082D00007D081451DD301D1A2451ADB00FB034025
:1082E00001261CF8014BEBE72B2C08BF9CF8004043
:1082F000A84608BF00F1020CC8E7A4F14105192DFA
:1083000001D8373CE1E7A4F16105192D04D8573CA9
:10831000DBE74FF0FF36E4E7731C06D12223CEF8EB
:108320000030384642B9BDE8F087B8F1000F00D000
:108330004042002AF7D00EB10CF1FF311160F2E794
:108340003024002BB3D10823B1E7302CA4D00A236A
:10835000ADE700BF69990D0013460A460146024881
:108360000068FFF77FBF00BFC4E203200369B3EBDF
:10837000611F2DE9F0434FEA611200F1140445DD5D
:1083800011F01F0104EB830604EB82050CD100F110
:1083900010072946B14234D39B1A9B00EA1E96422D
:1083A00038BF0023234415E054F82270C1F120089F
:1083B000CF4005F1040EA1467645F44615D89B1A28
:1083C0009A00043A0135AE4238BF0022A318A750E4
:1083D00007B104331A1BA3424FEAA20208BF0023CD
:1083E000026108BF4361BDE8F083DCF800C00CFA0D
:1083F00008FC4CEA070749F8047B5EF8047BCF4091
:10840000DAE751F804CB47F804CFC3E72346E1E7A6
:10841000A0F13003092B02D82038C0B27047A0F178
:108420006103052B01D84738F7E7A0F14103052B7D
:1084300001D82738F1E70020704700002DE9F04F00
:108440002DED028B89B008EE100A0493BC4B1B681B
:10845000019318468B469046FFF7A5F8019BDBF881
:1084600000200344824613F8013C0593931CC2F19B
:10847000FF2202F57F02FE32D1181F4613F8010BCE
:1084800000913028F8D0FFF7C3FF044600283AD106
:10849000019952463846FFF78EF80546002868D104
:1084A00017F80A0007EB0A06FFF7B2FF002862D0B0
:1084B0003346187830281F4603F10103F9D0FFF73F
:1084C000A7FF0123B0FA80F46409354600933A46C9
:1084D000164601323078FFF79BFF0028F8D101994A
:1084E00052463046FFF767F880B94DB906EB0A05EA
:1084F0002A46164601323078FFF78AFF0028F8D165
:10850000AD1BAD0004E000242546E0E7002DF7D1C7
:10851000337803F0DF03502B3BD173782B2B2CD017
:108520002D2B2ED0711C4FF000090878FFF770FF3B
:10853000431EDBB2182B2CD8A0F1100211F8010F4A
:10854000FFF766FF431EDBB2182B1DD9B9F1000FF0
:1085500000D052421544CBF80010E4B1009B002B30
:1085600014BF00270627384609B0BDEC028BBDE8D2
:10857000F08F3E4625460124CAE74FF00009B11CA2
:10858000D3E74FF00109FAE70A2303FB0202103A8E
:10859000D4E73146DFE7F31B013B2146072B52DCD2
:1085A00018EE100A00F052FA4FF0000B00F1140917
:1085B000CAF101030446CDF80890CDF800B0069347
:1085C000B74243D30298009B40F8043BA0EB09005C
:1085D000801046012061184600F0FFFA301AD8F8E2
:1085E0000060B04266DD871B3946204600F04CFE35
:1085F0008246A8B17B1E591103F01F0259F82110C1
:108600004FF0010A0AFA02F20A4209D0534505DD89
:10861000B91E204600F038FE002848D14FF0020A6B
:1086200039462046FFF7A2FE3D44D8F80830AB4259
:108630004FDA18EE100A214600F03CFA149A002393
:108640001360A3278FE701315B10A7E7731E059A1C
:10865000039316F8013C934219D0BBF1200F07D1C8
:10866000029B009A43F8042B0293002300939B463D
:1086700016F8010CFFF7CCFE009B00F00F0000FA8B
:108680000BF0034300930BF1040B039B0DE0039BE2
:10869000069A1344BB42E0D3184601990793524609
:1086A000FEF789FF079B0028D7D11E4688E74FF0C9
:1086B000030AB5E70ADA371A214618EE100A3A46D5
:1086C00000F0CEFBED1B044600F114094FF0000A48
:1086D000ABE7D8F80400A8426DDD451BAE4231DCA3
:1086E000D8F80C30022B23D0032B25D0012B15D129
:1086F000AE4213D1012E0BD1049AD8F80430136086
:1087000001232361C9F80030149B62271C602AE70B
:10871000711E204600F0B8FD0028EDD118EE100AB9
:10872000214600F0C7F9149A0023136050271AE776
:10873000159B002BF2D1DFE7159B002BDCD1EDE779
:108740006C9A0D006F1EBAF1000F31D127B1394676
:10875000204600F099FD82467B11012159F8233013
:1087600007F01F0701FA07F71F422946204618BFE6
:108770004AF0020A761BFFF7F9FDD8F804500227E9
:10878000BAF1000F48D0D8F80C30022B15D0032BCB
:1087900017D0012B09D11AF0020F06D0D9F800002A
:1087A0004AEA000A1AF0010F0ED147F0100733E031
:1087B0004FF0010AD0E70127E2E7159BC3F101035F
:1087C0001593159B002BF0D0D4F8109004F11403EE
:1087D0004FEA890B03EB89014FF0000C184653F860
:1087E000042BB2F1FF3F1CD001320260022F04F1D2
:1087F00014033AD1D8F80020013AB2420AD17111DB
:10880000012253F8213006F01F0602FA06F61E4236
:1088100018BF174647F02007149B1C60049B1D607F
:10882000A1E6994243F804CCD8D8A368994514DB53
:10883000616818EE100A013100F008F9226902326D
:1088400004F10C01824692000C30FEF743FE2146F3
:1088500018EE100A00F02EF9544623695A1C04EB56
:108860008303226101225A61C0E722694A450BDD78
:1088700001212046FFF77AFDD8F808300135AB42D8
:10888000FFF6D7AE0127C5E716F01F06FAD09B44C6
:10889000C6F120065BF8040C00F09FF9B042E7DB5C
:1088A000F0E700BFC2F10802920070B5C2F12006E5
:1088B0004368046803FA06F52C43D340046040F88B
:1088C000043F8842F4D370BD30B50368013311F81A
:1088D000014B14B90360012030BD13F8012BA2F144
:1088E0004105192D98BF2032A242F0D00020F3E7B5
:1088F0002DE9F04F0B6801685E1102EB860613F05C
:108900001F0387B018BF04360025371F82469046E4
:10891000019346F8045CB9463C460295AB464A785A
:108920004B1C039342B3104605910492FFF770FD70
:1089300000284FD1049A0599202A18D8029B9B45FC
:1089400013DD4C4506D2072D04DC2A464946204655
:10895000FFF7A8FF444550D90023A4F1040944F8C7
:10896000043CCDF808B04C461D460399D7E7292AA8
:1089700056D10231CAF80010BBF1000F50D04C455F
:1089800006D2072D04DC2A4649462046FFF78AFF17
:10899000444534D9A8F10402234653F8041B42F895
:1089A000041F9F42F9D23B1B23F00303043301341D
:1089B000033EB44288BF04234344002243F8042BFF
:1089C0009F42FBD23B681BB9474527D101233B603F
:1089D000052026E00135082D0BF1010B06DD44458D
:1089E000C3D9002344F8043C0125043C226800F06C
:1089F0000F0040EA02122260B7E70825B5E7019BA5
:108A0000002BDFD04FF0FF32C3F1200322FA03F333
:108A100056F8042C1A4046F8042CD3E7043FD1E75B
:108A2000042007B0BDE8F08F82B001B901A942B1BE
:108A30004BB113780B601278101E18BF012002B0E2
:108A400070471046FBE76FF00100F8E770B5466A23
:108A500004460D463EB91020FCF7BEFDC0E9016694
:108A600060620660C660666AF36883B1636ADB6849
:108A700053F82500B8B9012101FA05F6721D9200DC
:108A8000204600F022FC60B1C0E901560EE0212230
:108A90000421204600F019FC636AF060DB68002BBB
:108AA000E4D1002070BD026843F825200023C0E90E
:108AB0000333F7E770B5466A05460C463EB9102009
:108AC000FCF78AFDC0E9016668620660C6603CB1D9
:108AD0006B6A6268DB6853F82210216043F8224019
:108AE00070BD2DE9F0410E69074698460C4601F12C
:108AF000140000230568A9B202FB01814FEA114C62
:108B00002D0C02FB05C589B2013301EB05419E42E4
:108B100040F8041B4FEA1548ECDCB8F1000F1BD0FD
:108B2000A368B34212DC616838460131FFF78EFF5B
:108B30002269023204F10C01054692000C30FEF766
:108B4000C9FC21463846FFF7B5FF2C4604EB8603E7
:108B50000136C3F8148026612046BDE8F0812DE976
:108B6000F8430C4615461F4609220833064693FB78
:108B7000F2F3002101229A4220DB3046FFF766FF24
:108B8000089B4361092D4FF00103036119DD04F1D6
:108B90000909C8462C4418F8013B0146303B0A221B
:108BA0003046FFF79EFFA045F5D1A5F108044C44DF
:108BB0002D1B6319BB4207DBBDE8F883520001316E
:108BC000D9E70A340925F3E714F8013B0146303BA5
:108BD0000A223046FFF785FFEBE7030C1B04D3B9ED
:108BE0000004102310F07F4F04BF0002083310F080
:108BF000704F04BF0001043310F0404F04BF8000E9
:108C00000233002805DB10F0804F03F1010308BF99
:108C10002023184670470023E4E7036813F0070297
:108C200001460BD0DA0724D4980749BF5B089B089C
:108C300001200B605CBF0B600220704798B2B0B996
:108C40001B0C102013F0FF0F04BF1B0A08301A077B
:108C500004BF1B0904309A0704BF9B080230DA07DF
:108C600003D45B0800F1010005D00B60704710468B
:108C7000E8E7002070472020704710B50C4601211E
:108C8000FFF7E4FE01224461026110BD2DE9F04FBF
:108C900015460A692B699A42B8BF0B460C46BCBF01
:108CA0002C461D462769D5F81090A368616807EB2C
:108CB0000906B342B8BF013185B0FFF7C7FE00F126
:108CC000140101EB86080B46002243451DD304F135
:108CD000140305F1140203EB870702EB89030293E7
:108CE0003B1B153B23F00303043304F11505AF428E
:108CF00038BF04230193029B0392934208D8002EAD
:108D00005ADC066105B0BDE8F08F43F8042BDCE7C0
:108D1000B2F800A0BAF1000F24D004F1140E894675
:108D20004FF0000C5EF8045BD9F800B0ABB21FFA4C
:108D30008BFB0AFB03B34FEA154BD9F80050634491
:108D40004FEA154C0AFB0BC505EB13459BB243EAF2
:108D50000543774549F8043B4FEA154CE2D8019B9F
:108D600041F803C0039BB3F802900432B9F1000F3D
:108D700020D00B6804F1140C8E464FF0000ABCF8AA
:108D80000050BEF802B009FB05B5AA449BB243EA05
:108D90000A434EF8043B5CF8043BBEF800501B0C41
:108DA00009FB035303EB1A4367454FEA134AE6D81E
:108DB000019D4B5104319EE758F8043D002BA0D192
:108DC000013E9CE72DE9F843154612F003020646E2
:108DD0000F4607D0214C013A002354F82220FFF718
:108DE00080FE0746AD1035D0746A3CB91020FCF700
:108DF000F3FBC0E9014470620460C460D6F82480CB
:108E0000D8F808404CB940F271213046FFF735FFE1
:108E10000023C8F80800044603604FF00009EB0780
:108E20000AD5394622463046FFF730FF394680469C
:108E30003046FFF73FFE47466D100BD0206838B92B
:108E4000224621463046FFF721FF2060C0F80090FF
:108E50000446E4E73846BDE8F88300BF709B0D0088
:108E60002DE9F0470C464968236903EB6218A368B3
:108E7000074691464FEA621A08F10106B3423FDB0A
:108E80003846FFF7E3FD0023054600F1140100F129
:108E900010021846534536DB20692AEAEA7A04F1C3
:108EA000140319F01F0901EB8A0103EB800C2ED08B
:108EB000C9F1200E8A460022186800FA09F0024320
:108EC0004AF8042B53F8042B9C4522FA0EF2F3D8EF
:108ED000ACEB0403153B23F00303043304F115004A
:108EE000604588BF0423CA500AB108F10206013E5A
:108EF00038462E612146FFF7DDFD2846BDE8F087A4
:108F000001315B00BAE742F8040F0133C2E70439CC
:108F100053F8042B41F8042F9C45F9D8E7E730B506
:108F200002690C69121B0ED100F11403143103EB1A
:108F3000840001EB840150F8045D51F8044DA54212
:108F400003D005D30122104630BD8342F3D3FAE7A4
:108F50004FF0FF32F7E72DE9F84F0C460646114671
:108F600020461746FFF7DBFF051E08D1294630468D
:108F7000FFF76CFD0123C0E90435BDE8F88FA4BFFD
:108F80003B46274630467968A6BF1C46002501258A
:108F9000FFF75CFD3E69C560256907F1140104F126
:108FA000140900F1140E07F1100201EB860C09EB15
:108FB0008505F246002759F8043B52F804BF1FFA12
:108FC00083F817FA8BF71B0CA7EB0808C3EB1B43BE
:108FD00003EB28431FFA88F81F144D4548EA034362
:108FE0004AF8043BE7D82B1B153B23F0030304335B
:108FF0001534A54238BF0423194473449E460D46D8
:1090000065450ED30CF10302521A22F00302033914
:109010008C4538BF00221A4452F8043D7BB10661EA
:10902000ABE755F8048B17FA88F4221402EB1842C8
:10903000A4B244EA02444EF8044B1714E0E7013EA0
:10904000EAE7000082B08DED000B019B1249194048
:10905000A1F15071002905DD00220B4643EC102BD5
:1090600002B070474942B1F1A07F4FEA21504FF062
:1090700000024FF0000304DA4FF4002141FA00F33C
:10908000ECE7A0F114011E29DABF4FF0004020FAEE
:1090900001F101210A46E1E70000F07FF8B505691A
:1090A00000F1140707EB85052E1F55F8044C2046E8
:1090B000FFF793FDC0F120030A28DFF87CC00B60A6
:1090C00014DCC0F10B0E24FA0EF1B74241EA0C0396
:1090D00034BF55F8081C0021153004FA00F021FABD
:1090E0000EF140EA010243EC102BF8BDB7423ABF43
:1090F00055F8081CA5F1080600210B3817D0C0F15F
:10910000200C04FA00F5BE4221FA0CF445EA0405ED
:109110008CBF56F8044C002445F07F5301FA00F050
:1091200024FA0CF443F4401340EA0402DBE744EA77
:109130000C030A46D7E700BF0000F03F2DE9F743D4
:109140008946012157EC106B9046FFF77FFCC7F36F
:109150000A550446C7F3130335BB002E019328D0EC
:1091600068460096FFF759FD009900B3019AC0F1D7
:10917000200302FA03F30B43C24063610192019B97
:10918000A361002B14BF022201222261D5B1A5F2F6
:1091900033450544C9F80050C0F13500C8F8000057
:1091A000204603B0BDE8F08343F48013D5E7616146
:1091B000E5E701A8FFF731FD019B63610122226110
:1091C0002030E3E704EB8203A0F23240C9F800004C
:1091D0001869FFF702FDC0EB4210DFE72DE9F74FFA
:1091E000884669468146FFF759FF01A9404655EC7C
:1091F000104BFFF753FFD9F81030D8F81020A3EB2D
:10920000020CDDE900329B1A03EB4C1351EC100BFE
:10921000002BD6BF0A462A46C3EB03338B462F46A4
:10922000D4BF02EB035B02EB0357204610EE102A7B
:109230005B463946FDF714FF41EC100B03B0BDE867
:10924000F08F013970B549111469013102F114032D
:1092500000EB810103EB8404051FA3420CD3A31A86
:10926000113B23F003031132A24288BF00231844AC
:109270000023884205D370BD53F8046B45F8046F92
:10928000EBE740F8043BF4E700F1140200694B11EE
:10929000984210B511DB0ADD11F01F0107D052F81A
:1092A000234024FA01F000FA01F18C420BD102EBC9
:1092B0008303934203D8002010BD0346F7E753F819
:1092C000041D0029F5D00120F6E713B54A431146E5
:1092D0000192FCF7B1F9044618B1019A0021FEF79A
:1092E00007F9204602B010BD9FED010B704700BF8B
:1092F000000000000000F87F49B1FF2A85BF8A23E3
:1093000003600A704FF0FF3098BF01207047084695
:109310007047000038B50022002304460D46FDF7D3
:10932000E7FF28B920462946BDE83840FEF778B85F
:10933000204605F10041FEF773F8404261EB410120
:1093400038BD00BF21400D005D400D0085400D007F
:1093500089400D0000000000556E6B6E6F776E0047
:109360004E6F74204368617267696E67004368617D
:1093700072676564004469736368617267696E67E8
:10938000004661756C74004469636F6E6E6563744A
:10939000656400313234303100382E300054656D50
:1093A000705F4D6178203A2025332E316600546578
:1093B0006D705F4D6978203A2025332E3166004864
:1093C000756D69646974795F4D61783A2025332E33
:1093D00031660048756D69646974795F4D696E2006
:1093E0003A2025332E3166007B2254656D706572FC
:1093F0006174757265223A25342E31662C2022481C
:10940000756D6964697479223A25342E31662C228F
:1094100042617474657279223A25697D0073746FB4
:10942000726167652D666163696C6974792D686F17
:109430006F6B0054696D65004E6F2044617461006C
:10944000556269646F747320486F6F6B0052657367
:10945000706F6E736520526563656976656400534D
:10946000746174650025342E31662A430025342E3C
:1094700031662525002569202525004661696C6532
:109480006420746F20706572666F726D2072656102
:1094900064696E67203A28004C6F67004661696C0A
:1094A000656420746F2074616B6520726561646906
:1094B0006E67210053485433312074657374005033
:1094C000726F647563742056657273696F6E0052B3
:1094D000656C656173650074656D70657261747546
:1094E00072650068756D69646974790074656D7082
:1094F000657261747572652D557070657200746562
:109500006D70657261747572652D6C6F7765720030
:1095100068756D69646974792D757070657200681D
:10952000756D69646974792D6C6F7765720042613D
:1095300074746572790042617474657279436F6EF8
:1095400074657874004D6561737572652D4E6F7723
:1095500000566572626F73652D4D6F6465005465CA
:109560006D702D55707065722D4C696D6974005465
:10957000656D702D4C6F7765722D4C696D69740047
:1095800048756D69646974792D4C6F7765722D4CDF
:10959000696D69740048756D696474792D757070B2
:1095A00065722D4C696D6974004572726F72202D61
:1095B00020534854333120496E697469616C697A6B
:1095C0006174696F6E00436F756C646E27742066FA
:1095D000696E64205348543331005374617274755A
:1095E00070007B22616C6572742D74656D7065729C
:1095F0006174757265223A25342E31667D0063638D
:109600002D616C6572742D776562686F6F6B007B7E
:1096100022616C6572742D68756D69646974792254
:109620003A25342E31667D0053657420566572628A
:109630006F7365204D6F646500436C65617265648E
:1096400020566572626F7365204D6F6465004672C7
:109650006F6D20257320746F20257300537461741F
:1096600065205472616E736974696F6E0045727221
:109670006F722074616B696E67204D6561737572DE
:10968000656D656E747300737061726B2F646576BF
:109690006963652F73657373696F6E2F656E640000
:1096A0004572726F72205374617465202D2052656B
:1096B00073657400557070657220546872657368C4
:1096C0006F6C6420536574004C6F7765722054682A
:1096D000726573686F6C64205365740058930D0055
:1096E00060930D0064930D006D930D0075930D0054
:1096F00081930D0087930D0053746172747570200F
:109700005375636365737366756C00000000000039
:109710000000000000000000000000000000000049
:109720000000000000000000000000000000000039
:109730000000000000000000000000000000000029
:109740003B570D0031570D0027570D00DD560D001A
:109750001B570D000F570D0003570D00FB560D0052
:10976000F1560D00E7560D0055600D000000000099
:109770000000000075570D007B570D00CB570D0002
:1097800089570D0077570D00000000000000000011
:109790008F5D0D00855D0D007B5D0D00715D0D0021
:1097A000655D0D00595D0D004D5D0D00455D0D00C1
:1097B0003B5D0D00315D0D0055600D0000000000A7
:1097C00000000000AD5D0D00F75D0D00CF5D0D00E8
:1097D000AF5D0D00D75D0D00DF5D0D00E75D0D0095
:1097E000EF5D0D000000000000000000095F0D00AB
:1097F000F95E0D00FB5E0D0061707000000000005E
:1098000000000000ED5F0D00F75F0D0001600D002E
:109810000B600D0015600D0021600D002D600D0026
:1098200039600D0041600D004B600D0055600D006A
:1098300025592D256D2D25645425483A254D3A2569
:1098400053257A0061736374696D65000000000040
:1098500000000000A1650D000D660D00E5650D001E
:109860003D610D00B5650D00D1650D00C3650D00AE
:10987000DF650D00A3650D00A7650D000000000069
:1098800000000000A1660D0009670D00DF660D00F5
:109890003D610D00D1660D00A3660D00B3660D009D
:1098A00003670D00C3660D009D660D0000252E3375
:1098B0007320252E337325336420252E32643A25F8
:1098C0002E32643A252E32642025640A0053756EC8
:1098D0004D6F6E547565576564546875467269536B
:1098E00061744A616E4665624D61724170724D618C
:1098F000794A756E4A756C4175675365704F63742C
:109900004E6F764465636E6600696E6974790061B6
:109910006E00000035000000CEFBFFFFCB0300000F
:10992000010000000000000034000000CEFBFFFF3B
:10993000CB03000001000000000000000000000058
:10994000BC89D897B2D29C3C33A7A8D523F6493915
:109950003DA7F444FD0FA5329D978CCF08BA5B2537
:10996000436FAC64280668110020202020202020AE
:1099700020202828282828202020202020202020BF
:1099800020202020202020202088101010101010CF
:10999000101010101010101010040404040404041B
:1099A00004040410101010101010414141414141B5
:1099B0000101010101010101010101010101010197
:1099C00001010101101010101010424242424242A7
:1099D0000202020202020202020202020202020267
:1099E000020202021010101020000000000000000F
:1099F0000000000000000000000000000000000067
:109A00000000000000000000000000000000000056
:109A10000000000000000000000000000000000046
:109A20000000000000000000000000000000000036
:109A30000000000000000000000000000000000026
:109A40000000000000000000000000000000000016
:109A50000000000000000000000000000000000006
:109A60000000000000000000002E0000699A0D00B8
:109A7000CC980D0028E30320504F534958000000B4
:109A80000080E03779C34143176E05B5B5B89346FA
:109A9000F5F93FE9034F384D321D30F94877825AC6
:109AA0003CBF737FDD4F1575000000000000F03FE4
:109AB00000000000000024400000000000005940A9
:109AC0000000000000408F40000000000088C340FC
:109AD00000000000006AF8400000000080842E4171
