:02000002D0002C
:1040000000400D0020BC0D00000006000D00050161
:084010000401DE0500000000C0
:0440180034AF0D00B4
:1040200009480A49884208B505D0094A824202D0A7
:10403000121A04F079FD0748074A0021121A04F009
:104040007EFD014808BD00BFD0DE03209CB90D00F5
:104050002CE1032030E10320F4E7032070B503F0E6
:104060004BFB074C074BE41AA40800251E46A5424B
:1040700004D056F8253098470135F8E770BD00BFE9
:1040800090B90D0054B90D0001F07ABA08B501F0ED
:10409000A5F8BDE8084003F0F1BA02F0BFB802F09D
:1040A000C5B802F0C3B80078B0FA80F04009704794
:1040B00001230370704748B1836C3BB1C36C2BB1D3
:1040C000006DB0FA80F04009404270474FF0FF3079
:1040D000704773B5024608460C46FFF7ECFF0546ED
:1040E00050BB12F0800FCA7814BF002310239A42ED
:1040F00022D0CB708E6C607801230DF10702F32182
:10410000B04784F8540010B16FF0010514E0E37873
:10411000E66C607803F010029DF8073023F010037E
:1041200013438DF807300DF1070201237321B047C7
:1041300084F854000028E7D1284602B070BD73B55A
:104140000446FFF7B8FF054688B9A66C60780123DE
:104150000DF10702F321B04784F8540028B99DF807
:10416000073003F01003E37001E06FF0010528460B
:1041700002B070BD40B103788B4208D9017013784A
:1041800043F00203137002E04FF0FF30704700204D
:1041900070472DE9F84306461846884691461D4665
:1041A000FFF789FF0446A8B9AB783BB929463046EA
:1041B000FFF78FFF044608B946F08006AF6C6878B9
:1041C0004B4642463146B847002885F8540018BF90
:1041D0006FF001042046BDE8F8832DE9F04F8BB065
:1041E0001E4683468A46144600212822684604F06B
:1041F000A6FC3046FFF75FFF0546A8BB631E122BE7
:1042000030D80DF101080AF1FF3A5F46C146A4B269
:10421000CBEB07039BB29C4213D9B37843B9314629
:104220003878FFF756FF3B78054603F07F0300E040
:104230003B7808F8013C1AF8013F08F8023B0137C7
:10424000E6E78DB96300013BF46C9DF800107078CF
:104250009BB24A46A047002886F8540018BF6FF06A
:10426000010501E06FF0030528460BB0BDE8F08FB3
:1042700037B5E0238DF80630B62305468DF80730B4
:10428000FFF719FF0446D8B9AB786BB12B46012272
:104290000DF107010DF10600FFF79FFF2B6D04469E
:1042A0000A20984734B10BE02846FFF748FF044640
:1042B00030B9EBE7AB781BB92846FFF740FF04465F
:1042C000204603B030BD30B58DB00446FFF7F3FE95
:1042D0000546002840F0D5802046FFF7C9FF054677
:1042E000002840F0CE80234601222146D020FFF74F
:1042F00050FF0546002840F0C4802378612B40F031
:10430000BE800146292201A804F019FC20468DF840
:104310000350FFF7D0FE0546002840F0B280234648
:10432000192201A98920FFF734FF054638B9234631
:1043300010220DF11D01E120FFF72BFF05469DF82E
:1043400026209DF8253043EA0223E3829DF80620CB
:104350009DF8053043EA022323839DF807309DF83A
:104360000A20A3769DF8093043EA0223A3839DF82F
:104370000C209DF80B3043EA0223E3839DF80D30B7
:104380009DF8102084F820309DF80F3043EA022376
:1043900063849DF812209DF8113043EA0223A38420
:1043A0009DF8143084F826309DF813309DF81820BD
:1043B00084F827309DF8173043EA022323859DF8BF
:1043C0001A209DF8193043EA022363859DF81B30BB
:1043D00084F82C309DF81E309DF81F1003F00F025A
:1043E00042EA011222819DF81D201B0943EA0213B3
:1043F00063819DF8203023739DF8213063739DF80D
:104400002230A3739DF82330E3739DF82430237486
:104410009DF8293063749DF828209DF8273043EAE1
:10442000022363829DF82A30237515BB234601229F
:104430000DF103010220FFF7ACFE9DF80330C3F33A
:10444000011384F83430054698B9234601220DF152
:104450000301FFF79EFE9DF8033084F835300546D2
:1044600038B9234601220DF103010420FFF791FE24
:1044700005469DF903301B1184F8363001E06FF0DA
:10448000020528460DB030BD37B5742304468DF8BB
:104490000730FFF710FEA0BB0546234601220DF1B1
:1044A00006017420FFF775FEA0B99DF8063013F0E1
:1044B000030511D023F003038DF8063001222346B3
:1044C0000DF106010DF10700FFF787FE236D0A20AD
:1044D0009847E2E7002DE0D194F844308BB19DF885
:1044E000062003F0030322F0030213438DF8063085
:1044F00038B9234601220DF106010DF10700FFF73F
:104500006CFE03B030BD2DE9F04188B000230646B3
:1045100008460C468DF807300493ADF81430069326
:10452000ADF81C30FFF7C7FD002840F06681320768
:1045300091F844706CD5012FADF80800ADF80C006F
:1045400065D1B1F840505A23C72D8DF8083005D9F0
:10455000B5F5C87F28BF4FF4C87500E0C825B4F989
:1045600012E094F9112094F9043094F914000EF536
:10457000163E0EF2991E02F54472142113FB00F050
:1045800005FB0EF54FF47A7395FBF1F590FBF3F311
:104590000A211B0205F5481595FBF1F56A4303EB6B
:1045A000620194F83430043391FBF3F294F935103E
:1045B00083234B4303F5803392FBF3F32222FA3B30
:1045C00053433233642293FBF2F38DF80C30B4F88A
:1045D00042308DF80920B3F57C6F0BD200223F2BBF
:1045E000D1B202F1010201D99B08F8E703EB811374
:1045F000DBB200E0FF238DF80D30002384F83C305F
:104600000222234603A902A8FFF7E7FD00E00120EC
:10461000002384F8443010B92046FFF735FF06F038
:104620001005ADB205B304F14602072104F13B00C9
:10463000FFF7A0FD30B9234601220DF107017520D7
:10464000FFF7A7FD94F83B309B0003F01C029DF898
:10465000073023F01C03134375228DF807308DF8C3
:1046600010208DF818300125B30622D504F146023A
:10467000082104F13D00FFF77DFD30B923460122FA
:104680000DF107017020FFF784FD9DF8073023F03E
:10469000080294F83D3003F00803134308AA2A44A3
:1046A000702101358DF8073002F8101C02F8083C23
:1046B000EDB2B10733D004F14602052104F139000F
:1046C000FFF758FD30B9234601220DF10701742090
:1046D000FFF75FFDF20709D59DF8073094F8392000
:1046E00003F01F0343EA42138DF80730B3070BD5DD
:1046F00094F83A309B0003F01C029DF8073023F039
:104700001C0313438DF8073008AB2B44742203F8C5
:10471000102C01359DF8072003F8082CEDB2710725
:1047200022D504F14602052104F13800FFF722FDED
:1047300030B9234601220DF107017220FFF729FD50
:104740009DF8073023F0070294F8383003F0070390
:10475000134308AA2A44722101358DF8073002F864
:10476000101C02F8083CEDB216F0C00F3CD004F16A
:1047700046084246012104F13E00FFF7FBFC68B900
:1047800042460A2104F13C00FFF7F4FC30B923460D
:1047900001220DF107017120FFF7FBFC72060BD51A
:1047A00094F83E301B0103F010029DF8073023F00F
:1047B000100313438DF8073033060AD59DF80730F0
:1047C00023F00F0294F83C3003F00F0313438DF8ED
:1047D000073008AB2B44712203F8102C01359DF8EB
:1047E000072003F8082CEDB228B923462A4606A96B
:1047F00004A8FFF7F2FC84F8447008B0BDE8F0812B
:1048000013B5184B044618689B88ADF8043091F82E
:104810003930009002AA134491F83A2013F8083C6A
:1048200002A8024412F8082C134491F838200244DC
:1048300012F8082C134440F2AB72534303F595531E
:104840004FF47A721933B3FBF2F301339BB2238036
:1048500091F83E201AB1B1F842201344238002B0EF
:1048600010BD00BF48AF0D002DE9F04F804689B064
:1048700008460C46FFF71FFC0546002840F06781FC
:1048800004AF01460F22384604F059F92046FFF7DD
:1048900012FC0A260546002D40F0538123460F22C4
:1048A00039461D20FFF775FC05469DF810009DF860
:1048B0001EE09DF813909DF814C09DF815B09DF86A
:1048C00016109DF8172000F00F0388F801309DF8AE
:1048D000113088F802309DF8123000939DF818309E
:1048E00001939DF8193002939DF81D3003934FFA00
:1048F0008EF303F0200A20F07F0040EA0A0003F064
:104900001003184340B2002888F8000080F2168196
:10491000120942EA011141EA0B3BE18AB4F918009D
:104920004900C1EBDB010A46CB175B104FEA3202AC
:1049300002FB03F6A2FB02234FEA123A94F91A2073
:1049400003EB46034AEA035A4FEA233B1301DF17FE
:104950000AFB07F603FB0B6680FB0101AAFB03239E
:104960003344C00A920B40EA415042EA8342831822
:10497000236303EB830380331B12A8F80430236BFB
:1049800094F926005B10A3F57A439A105243D11292
:104990004843B4F924105943490001EBA001B4F98C
:1049A0001E00434394F92000521340014243D210A9
:1049B00002EB63039B14A28BB4F9280003F50043B8
:1049C00053434FEA1C1C009A4CEA091949EA023980
:1049D000B4F92220120402EBA101C9F5801940F6B6
:1049E0003542A9EB21315143DB13B1FBF3F35B00FB
:1049F000D910B4F92A20494349134A439910414335
:104A00001E12491301EB223106FB06F2564394F8BD
:104A10002C20724301EB624294F9271002EBC11281
:104A200003EB2213C8F80830236B94F90E1094F9A5
:104A30000D006789268903EB830380331B126422F0
:104A4000594391FBF2F159435843891190FBF2F01D
:104A500091FBF2F1014401F5804179438F120198F5
:104A6000029941EA002094F90C10A0EB0616594374
:104A700091FBF2F1A6EB610000FB07F194F9100045
:104A8000434393FBF2F2E37B02EBC3128B135B43D2
:104A900012119B12534301EB63034FF47A729B1282
:104AA00053431B1323EAE3732B4A9342D4BFC8F842
:104AB0000C30C8F80C2094F93630052240F23C50F6
:104AC0000021C3FB02010EF00F06244B53F82670A1
:104AD000A0FB072307FB0133100C40EA0340191425
:104AE000039B1F4F4FEA9E1E4EEA830E4FEACE32C3
:104AF00057F826E012F17F424FF00003AEFB00674B
:104B000043F1FF3312184B410EFB0177700A40EA64
:104B1000C75079125F104FEA32068019794103F0CD
:104B20002DFDC8F8100095B998F90030002BBABFD8
:104B3000012384F8453084F8455008E0236D0A20AD
:104B40009847013E16F0FF067FF4A5AE02252846E1
:104B500009B0BDE8F08F00BFA0860100D0DE0320C1
:104B600010DF032008B5044902F07AFB18B1034BAB
:104B700003221A70012008BD1AB40D0079E2032047
:104B800010B50446006808B101F050FB204610BD86
:104B900037B59DF8184023438DF800303C23054677
:104BA00001F082FD284603B030BD00002DE9D0435E
:104BB00001F0A4FA4FF4967440F2E7360027002083
:104BC00001F0D8F84FF000098046002001F0D2F83B
:104BD000B0EB080061EB09018F4208BF864205D3A4
:104BE00001F094FA10B901F081FAEEE701F08EFAC3
:104BF00018B1BDE8D04301F089BA01F0A3F8034B26
:104C0000186001F073FA013CF3D0D8E7FCE603200A
:104C100010B584B20121204602F0CDFD4FF47A7028
:104C200001F034FB2046002102F0C5FD4FF47A70FC
:104C3000BDE8104001F02ABB08B501F083F8044B31
:104C40001B68C01AB0F57A7F34BF0020012008BD70
:104C500048E3032008B5FFF7EFFF18B1BDE80840AF
:104C6000FFF7EABF01F042FAF5E7000007B5174B7E
:104C7000186803F0FDF8164ACDE90001082115482F
:104C800001F0ECFA144B186803F0F2F8134ACDE97E
:104C900000010821124801F0E1FA124B186803F0F4
:104CA000E7F8114ACDE900010821104801F0D6FAD1
:104CB0000F4B186803F0DCF80E4ACDE9000108211B
:104CC0000D4801F0CBFA03B05DF804FB28E00320A7
:104CD0008EAF0D0068E103202CE00320A0AF0D0093
:104CE00058E1032034E00320B1AF0D0070E203204F
:104CF00038E00320C5AF0D0034E1032038B5046867
:104D000005467CB16368013B63605BB9236820465C
:104D10009B689847A368013BA3601BB923682046A2
:104D2000DB689847284638BD00B51A4BD3E9002305
:104D3000C9B0CDE90423184BD3E90023CDE9022300
:104D4000164BD3E900234FF48071CDE9002308A866
:104D5000134A01F083FA134B13491B7800228DF894
:104D6000002006A808AAFFF713FF07A8FFF7C6FF51
:104D700002F038FB0D4B187002F048FB0C4B18701A
:104D80000C4B01221A7000F0DDFF0B4B186049B08C
:104D90005DF804FB88E2032060E10320B0E2032019
:104DA000DAAF0D0051E1032014B00D0090E20320B2
:104DB0007AE2032030E003204CE1032030B50C46BA
:104DC00085B01D4D51B92B78002B32D0FFF742FF33
:104DD0001A4B1B4A1B788DF8004023E0084603F06D
:104DE00094FDC83801282B7813D873B1FFF732FF30
:104DF000124B14491B7800228DF8002002A8124A99
:104E0000FFF7C6FE03A8FFF779FF104B00221A70C8
:104E10000FE073B1FFF71EFF084B00221B788DF8DF
:104E20000020224602A80A49FFF7B2FE03A8FFF7B6
:104E300065FF05B030BD00BF24E0032051E1032031
:104E40002AB00D0051B00D003FB00D0030E003203E
:104E500032B00D002DE9FF473B4D284600F076FEAD
:104E6000824600285FD02868384E394C03F000F89D
:104E7000384AC6E90001CDE900011021364801F0A9
:104E8000EDF9A86802F0F4FF344AC4E90001CDE965
:104E900000011021324801F0E1F9686802F0E8FFF2
:104EA0000022304B03F062F92F4B304AC3E9000176
:104EB000CDE9000110212E4801F0D0F92D4B1868E2
:104EC00002F0D6FFD6E9006732463B468046894667
:104ED00003F0B2FA10B1284B01221A70274B186860
:104EE00002F0C6FF02460B463046394603F0A4FAEC
:104EF00010B1234B01221A70224B186802F0B8FF40
:104F0000D4E9002303F098FA10B11F4B01221A7064
:104F100032463B464046494603F08EFA78B1164B7E
:104F200001221A700BE0194B194A1B7819498DF8A8
:104F3000000002A8FFF72CFE03A8FFF7DFFE504693
:104F400004B0BDE8F08700BFD0E20320B0E2032048
:104F500060E1032057B00D003CE103205FB00D007D
:104F6000C0E203200000594088E2032067B00D0032
:104F700092E203202CE00320B8E2032028E0032083
:104F800091E2032038E0032080E2032081E2032045
:104F900070B00D008DB00D00F0B5454B454FD3ED11
:104FA000007AF5EE407AF1EE10FA8FB007D1424B5D
:104FB000D3ED007AF5EE407AF1EE10FA2DD03F49AC
:104FC0003F4D06A803F0F6FD0520FFF721FE3D4BFF
:104FD0003D48D3E900234FF48071CDE9002300243C
:104FE0003A4A01F03BF92B78374A39498DF80040AD
:104FF00004A8FFF7CDFD05A8FFF780FEFFF72AFE06
:105000002B7834498DF8004006AA04A8FFF7C0FDAC
:1050100005A8FFF773FE01233B702F4B1A781E463D
:105020001AB92E4B1B78002B32D02D49244D06A8DF
:1050300003F0C0FD0720FFF7EBFD2A4B2248D3E920
:105040000023CDE902231F4BD3E900234FF48071E5
:10505000CDE900230024244A01F000F92B781A4AF4
:105060001B498DF8004004A8FFF792FD05A8FFF743
:1050700045FEFFF7EFFD2B7816498DF8004006AA94
:1050800004A8FFF785FD05A8FFF738FE01233B7054
:1050900002F0B2F9154B18603B7833B10F4A002388
:1050A00013703370044B00221A6001200FB0F0BD62
:1050B0002CE0032078E2032028E0032091B00D00CB
:1050C00051E10320B0E2032070E10320A5B00D0000
:1050D000F7B00D0003B10D007BE2032080E2032056
:1050E00009B10D0060E103201AB10D007CE203203C
:1050F00030B5134985B0054602F0B2F8044648B110
:10510000104B01241C70104B00221B788DF80020DE
:105110000E4A0BE00E49284602F0A2F870B1094B86
:105120000C4A1C70084B1B788DF800400A4902A8F5
:10513000FFF72EFD03A8FFF7E1FD012005B030BD0C
:105140001AB40D0024E0032051E1032088B10D00C2
:1051500099B10D009BB10D00ABB10D0030B5184DEC
:10516000184C19492A7820788FB01A2303FB0212B1
:10517000009203FB0013154A282104A801F06EF8E1
:105180002B78237000F0C2FF90B1FFF763FD104B46
:1051900010491B7800228DF8002002A804AAFFF70E
:1051A000F7FC03A8FFF7AAFD00F0CCFD0A4B18603E
:1051B00002F020FA04A901F0CCFE0FB030BD00BF10
:1051C00079E2032050E1032050DF0320B0B10D004D
:1051D00051E10320BEB10D0048E303207FB57B4CB5
:1051E0002378013B052B00F2EE80DFE803F0A803F3
:1051F0002D1C597A764B1B782BB1764B1B78022BE2
:1052000001D0FFF7ABFF02F0EDF8734B734D1B7845
:10521000984240F0BE8002F0EFF82B68C01A1D28BB
:1052200000F3B780BAE06A4B1B782BB1694B1B784F
:10523000042B01D0FFF792FFFFF70CFE10B1FFF730
:10524000ABFE5AE00123BDE0614B1A781D462AB13E
:10525000604B1B78032B01D0FFF780FFFFF7FAFDAF
:105260000646D8B90123237000F06CFD5C4B186032
:105270002B78002B00F0A780FFF7ECFC594B5A4A23
:105280001B785A498DF8006002A8FFF781FC03A83B
:10529000FFF734FD00F056FD554B20E0052391E06B
:1052A0004B4B1B782BB14B4B1B78052B01D0FFF7D9
:1052B00055FF00F02BFF68B102F094F80C2805D1DF
:1052C00000F024FF10B1002000F040FFFFF72CFD9C
:1052D000062377E00123237000F034FD404B186073
:1052E00071E03B4B1B782BB13A4B1B78062B01D05E
:1052F000FFF734FF3F4B1B780BB9022362E000F04D
:1053000021FD3D4B1B68C01A4AF6C87398425AD912
:1053100000F018FD324D334B286000221B783749CE
:105320008DF8002002A8364AFFF732FC03A8FFF7E9
:10533000E5FC0123237000F005FD286043E0244BC9
:105340001B782BB1234B1B78012B01D0FFF706FFF5
:1053500000F0F8FC224B1B6803F5922303F57873E9
:10536000984230D900F0D2FE60B11E4B1F491B7825
:1053700000228DF8002002A8224AFFF709FC03A8AA
:10538000FFF7BCFC4FF4FA6000F080FF01F0A5FFCE
:1053900019E002F031F80323286013E01A4B1B7860
:1053A00043B91A4B1B782BB9194B1B7813B9194BFE
:1053B0001B7843B102F020F8174B1B68C01A052870
:1053C00001DD0423237004B070BD00BF79E2032027
:1053D00024E0032050E1032090E2032054E1032065
:1053E000BCE2032051E10320CFB10D0051B00D000C
:1053F00048E3032030E003204CE10320E9B10D0035
:10540000AFB40D0002B20D0091E20320B8E2032018
:105410007BE2032080E203207CE2032010B588B009
:10542000044601F047FF0F4B83ED000AFFF712FC23
:10543000214604A801F009FF0B4B0C491B78002200
:105440008DF8002002A8049AFFF7A2FB03A8FFF73B
:1054500055FC04A801F090FEFFF708FC012008B0FD
:1054600010BD00BF28E0032051E1032016B20D005B
:1054700010B588B0044601F01DFF0F4B83ED000A04
:10548000FFF7E8FB214604A801F0DFFE0B4B0C49B7
:105490001B7800228DF8002002A8049AFFF778FB01
:1054A00003A8FFF72BFC04A801F066FEFFF7DEFB64
:1054B000012008B010BD00BF2CE0032051E1032003
:1054C0002AB20D0010B588B0044601F0F3FE0F4B70
:1054D00083ED000AFFF7BEFB214604A801F0B5FEEC
:1054E0000B4B0C491B7800228DF8002002A8049A6F
:1054F000FFF74EFB03A8FFF701FC04A801F03CFEF8
:10550000FFF7B4FB012008B010BD00BF34E003205A
:1055100051E1032016B20D0010B588B0044601F029
:10552000C9FE0F4B83ED000AFFF794FB214604A848
:1055300001F08BFE0B4B0C491B7800228DF80020EC
:1055400002A8049AFFF724FB03A8FFF7D7FB04A8DF
:1055500001F012FEFFF78AFB012008B010BD00BF6A
:1055600038E0032051E103202AB20D000023042279
:1055700000F0ACBD0246014800F075BF3B640D0071
:1055800070B5614BB8B008AA03F11005164618684B
:105590005968144603C40833AB422246F7D1198830
:1055A0009B7821802D22A37000210DF13300574CF0
:1055B00003F0C5FA022301210720237002F0EAF864
:1055C0000121052002F0E6F804A800F0A7FD00255F
:1055D00000237D2218A904A801F054FE2B462A4678
:1055E0004B490195009518A800F0A8FD49494A4883
:1055F00009682B46042200F069FD48494848FFF736
:10560000B5FF48494848FFF7B1FF48494848FFF708
:10561000ADFF48494848FFF7A9FF48494848FFF708
:10562000A5FF48494848FFF7A1FF48494848FFF708
:105630009DFF48494848FFF79DFF48494848FFF704
:1056400099FF48494848FFF795FF48494848FFF700
:1056500091FF48494848FFF78DFF48494848FFF700
:1056600089FF7721474800F0F5F960B900F06AFB3F
:10567000454D46492860304603F09CFA01232370CB
:1056800000F060FB286004213E4800F0E5FA0221AA
:105690003C4800F0EEFA03213A4800F0F7FA022104
:1056A000384800F000FB96224FF4A071354800F016
:1056B000C5FAFFF7CFFBFFF7D9FAFFF777FA48B93A
:1056C0000123237000F03EFB2F4B31491860304618
:1056D00003F070FA2F4B1B7863B12F4B2F491B78C7
:1056E00000228DF8002002A83246FFF751FA03A8E5
:1056F000FFF704FB00F026FB294B186004A801F01B
:105700003BFD38B070BD00BF4EAF0D0079E2032005
:10571000BD4D0D0020E003203EB20D003CE1032012
:1057200046B20D00C0E2032052B20D0092E2032007
:105730005BB20D0068E1032064B20D0058E1032064
:1057400076B20D0070E2032088B20D0034E1032030
:1057500097B20D00654B0D00A6B20D00F1500D0083
:10576000B2B20D001D540D00BFB20D0071540D00FA
:10577000D0B20D0019550D00E1B20D00C5540D0059
:10578000F6B20D00D0E20320BCE203200AB30D0004
:1057900028B30D0024E0032051E103203AB30D00AB
:1057A00048E30320134B70B500241C70124B134DBB
:1057B00001261E7000F0E6FA4FF0FF31104800F0AD
:1057C00033F94FF6FF7302206B812C60AC80AC7113
:1057D0002C8100F037FC0B4A0B49284602F078F880
:1057E0002146304600F03EFC31460420BDE87040C2
:1057F00000F090BA81E2032051E10320A4E20320EB
:10580000D0E2032030E10320814B0D0000F03EBDCB
:10581000F8B5074614461D460E4602F013F8394601
:1058200001F077F902F00EF8036831469B6898475B
:105830002544AC4207D002F005F8036814F8011BB8
:105840009B689847F5E701F0FDFF01F06AF9002039
:10585000F8BD00002DE9F0471B4D95F900300133EC
:10586000804606D102F014F84146BDE8F04701F049
:105870006DBCDFF85890DFF858A00726002495F992
:105880000000002180B201F096FF012799F9000085
:1058900007FA06F101EA080180B201F08CFF95F9E0
:1058A0000000394680B201F086FF9AF900006400DA
:1058B00080B2E4B201F098FF00B13C4316F1FF362C
:1058C000DDD22046BDE8F0874DE303204EE3032000
:1058D0004CE303202DE9F0418846002115461E4681
:1058E000074601F068FF194B93F9002001321C466E
:1058F00012D101F0CDFF01F087FB01F0C9FF40217B
:1059000001F000FC01F0C4FF012101F08EFB01F069
:10591000BFFF002101F09AFB4046FFF79BFF2E449A
:10592000B54204D015F8010BFFF794FFF8E794F99E
:105930000030013303D101F0ABFF01F098FB384692
:10594000012101F038FF0020BDE8F0814DE3032084
:105950002DE9F0418846002115461E46074601F014
:105960002AFF1A4B93F9002001321C4612D101F094
:105970008FFF01F049FB01F08BFF402101F0C2FBDA
:1059800001F086FF012101F050FB01F081FF0021B1
:1059900001F05CFB4046FFF75DFF2E44B54205D0A9
:1059A0000020FFF757FF05F8010BF7E794F90030E7
:1059B000013303D101F06CFF01F059FB384601219E
:1059C00001F0F9FE0020BDE8F08100BF4DE30320A7
:1059D000F8B5064615461C460F4601F033FF314622
:1059E00001F097F801F02EFF036839469B6898474D
:1059F00001F028FF01F095F801F024FFE2B23146F2
:105A000001F084F884420AD12C44A54209D001F067
:105A100019FF03685B69984705F8010BF5E701205A
:105A2000F8BD0020F8BD000001770749FF220A7089
:105A300006490A7006490A7000220275C27482740F
:105A400042740274704700BF4EE303204CE303200E
:105A50004DE3032038B504460D46617590F91C00EE
:105A6000421C0CD101F0EEFE01F01CF8012384F879
:105A700022302E4BA36684F821502D4B2EE00121BD
:105A800080B201F098FE94F91C00012180B201F06F
:105A900081FE284B93F90000431C04D101F0F8FE6D
:105AA00001F0B2FA11E0012180B201F073FE224B45
:105AB00093F90000012180B201F06CFE1F4B93F9B5
:105AC0000000002180B201F065FE237F84F82130C0
:105AD000002384F822301A4BA3661A4BE3661A4B54
:105AE000236704F12000FEF7EEFBE0B9042384F8FD
:105AF0005930022384F8583084F85B304FF4A07397
:105B000001200322A4F8603096236074A07484F806
:105B10005A20E0742074A4F8623084F85E00207586
:105B200084F8640038BD002038BD00BFD1590D0095
:105B300011580D004DE303204EE303204CE30320F6
:105B400051590D00D5580D000D580D0030B50123E9
:105B5000044680F86430A37C407C87B00BB140F0F1
:105B60000400E37C0BB140F00200237C0BB140F059
:105B70001000237D0BB140F0C80004F12005294638
:105B8000FEF7C1FC08B100204FE02846FEF77CFC80
:105B90000028F8D129460DF10200FEF731FEBDF8CC
:105BA0000200400000F072FB294601A8FEF75CFEEF
:105BB0000028E8D1637C5BB1BDF9080002F046F92A
:105BC00000221B4B02F0D2FA02F088FC206001E0B8
:105BD000184B2360A37C53B1049802F027F90022EC
:105BE000154B02F0C3FA02F079FCA06001E0114B02
:105BF000A360E37C33B1DDED037AF8EE677AC4EDA0
:105C0000017A01E00B4B6360207D68B19DF80430A0
:105C1000DB0645BFDDED057AF8EE677A0023C4EDBB
:105C2000037A58BFE36000E0012007B030BD00BF39
:105C3000000059400000C07F00408F40A0F8601075
:105C4000A0F8622001B10AB9002300E0012380F826
:105C50005E300375012070470529034607D880F898
:105C60005910012009B959747047587470470020C1
:105C700070470529034607D880F85810012009B954
:105C8000997470479874704700207047052903463F
:105C900007D880F85A10012009B9D9747047D87410
:105CA0007047002070470729034607D880F85B102B
:105CB000012009B9197470471874704700207047A3
:105CC00000F060B808B5024B1B689B68019308BDE3
:105CD0004802030008B5024B1B681B69019308BD0D
:105CE0004802030008B5024B1B685B69019308BDBD
:105CF0004802030008B5024B1B685B6C019308BDAA
:105D00004802030008B5024B1B689B6C019308BD59
:105D10004802030008B5024B1B685B6E019308BD87
:105D20003402030008B5024B1B689B6E019308BD4B
:105D30003402030008B5024B1B685B68019308BD81
:105D40001802030008B5024B1B685B69019308BD8C
:105D50001802030008B5024B1B68DB69019308BDFC
:105D60001802030008B5024B1B689B6D019308BD28
:105D70001802030008B5024B1B68DB6D019308BDD8
:105D80001802030008B5024B1B681B68019308BD8D
:105D90002C02030008B5024B1B689B68019308BDE9
:105DA0002C02030008B5024B1B68DB68019308BD99
:105DB0002C02030008B5024B1B681B69019308BD48
:105DC0002C02030008B5024B1B685B69019308BDF8
:105DD0002C02030008B5024B1B68DB68019308BD69
:105DE0002802030008B5024B1B689B69019308BD9C
:105DF0002802030008B5024B1B68DB69019308BD4C
:105E00002802030008B5024B1B681B6A019308BDFA
:105E10002802030008B5024B1B685B6A019308BDAA
:105E20002802030008B5024B1B689B6A019308BD5A
:105E30002802030008B5024B1B68DB6A019308BD0A
:105E40002802030008B5024B1B681B6B019308BDB9
:105E50002802030008B5024B1B685B6B019308BD69
:105E60002802030008B5024B1B681B6C019308BD98
:105E70002802030008B5024B1B681B6D019308BD87
:105E80002802030008B5024B1B685B69019308BD3B
:105E90006402030008B5024B1B689B68019308BDB0
:105EA0006802030008B5024B1B68DB68019308BD5C
:105EB0006802030008B5024B1B681B68019308BD0C
:105EC0003002030008B5024B1B689B68019308BDB4
:105ED0003002030008B5024B1B68DB68019308BD64
:105EE0003002030008B5024B1B681B69019308BD13
:105EF0003002030008B5024B1B685B69019308BDC3
:105F00003002030008B5024B1B68DB69019308BD32
:105F10003002030008B5024B1B681B6A019308BDE1
:105F20003002030008B5024B1B685B6A019308BD91
:105F30003002030008B5024B1B681B6C019308BDBF
:105F40003002030008B5024B1B685B6C019308BD6F
:105F50003002030008B5024B1B681B68019308BDA3
:105F60003C02030008B5024B1B68DB68019308BDC7
:105F70003C02030008B5024B1B681B69019308BD76
:105F80003C02030008B5024B1B685B69019308BD26
:105F90003C02030008B5024B1B689B69019308BDD6
:105FA0003C02030008B5024B1B68DB69019308BD86
:105FB0003C02030008B5024B1B681B6A019308BD35
:105FC0003C02030008B5024B1B689B6A019308BDA5
:105FD0003C02030008B5024B1B681B68019308BD17
:105FE0004C02030008B5024B1B681B69019308BDF6
:105FF0004C02030008B5024B1B685B69019308BDA6
:106000004C02030008B5024B1B689B69019308BD55
:106010004C02030008B5024B1B68DB69019308BD05
:106020004C02030008B5024B1B681B6A019308BDB4
:106030004C02030008B5024B1B681B68019308BDA6
:106040002002030008B5024B1B685B68019308BD82
:106050002002030008B5024B1B685B69019308BD71
:106060002002030008B5024B1B68DB6A019308BDE0
:106070002002030008B5024B1B68DB6C019308BDCE
:106080002002030008B5024B1B685B6D019308BD3D
:106090002002030008B5024B1B689B6D019308BDED
:1060A0002002030008B5034B1B68D3F88830019326
:1060B00008BD00002002030008B5034B1B68D3F89D
:1060C0009430019308BD00002002030008B5024B84
:1060D0001B681B68019308BD4402030008B5024B0E
:1060E0001B685B68019308BD4402030008B5024BBE
:1060F0001B689B68019308BD4402030008B5024B6E
:106100001B68DB68019308BD4402030008B5024B1D
:106110001B685B69019308BD4402030008B5024B8C
:106120001B68DB69019308BD4402030008B5024BFC
:106130001B681B6A019308BD4402030008B5024BAB
:106140001B685B6A019308BD4402030008B5024B5B
:106150001B68DB6A019308BD4402030008B5024BCB
:106160001B681B6B019308BD4402030008B5024B7A
:106170001B68DB6B019308BD4402030008B5024BAA
:106180001B685B68019308BD4002030008B5024B21
:106190001B689B68019308BD4002030008B5024BD1
:1061A0001B68DB68019308BD4002030008B5024B81
:1061B0001B681B69019308BD4002030008B5024B30
:1061C0001B685B69019308BD4002030008B5024BE0
:1061D0001B689B69019308BD4002030008B5024B90
:1061E0001B68DB69019308BD4002030008B5024B40
:1061F0001B681B6A019308BD4002030008B5024BEF
:106200001B681B6B019308BD4002030008B5024BDD
:106210001B685B6B019308BD4002030008B5024B8D
:106220001B681B68019308BD1C02030008B5024BE4
:106230001B685B68019308BD1C02030008B5024B94
:106240001B689B68019308BD1C02030008B5024B44
:106250001B689B69019308BD1C02030008B5024B33
:106260001B68DB69019308BD1C02030008B5024BE3
:106270001B68DB6A019308BD1C02030008B5024BD2
:106280001B681B6B019308BD1C0203000021FFF774
:10629000E1BE10B5836804460BB901F03AFBC36850
:1062A0009847A3681BB10322214620469847204601
:1062B0001021BDE8104001F010BB10B50446006885
:1062C00008B1FFF71FFD204610BD0B68036013B136
:1062D0005A6801325A60704710B5064C00232046B8
:1062E0002360FFF707FD2046034A0449BDE810403C
:1062F00001F0EEBA50E3032030E10320BB620D0051
:10630000002211464068FFF751BF00221146406845
:10631000FFF76CBF002211464068FFF777BF0022ED
:106320004068FFF76BBF002281F001014068FFF772
:1063300055BF00231A4619464068FFF747BF0023A0
:106340001A4619464068FFF739BF002211464068D7
:10635000FFF71CBF002202214068FFF71FBF002388
:106360001A464068FFF70ABF38B5084C28252A4668
:106370000021204602F0E3FB4FF0FF336360044B43
:10638000258004225A60034A1A6038BD5CE303206A
:1063900054E3032050B30D0070470020704710B540
:1063A0001021044601F099FA204610BD08B508B145
:1063B000FFF7F5FF08BD10B58368044613B103224B
:1063C00001469847204610BD0022026010B54FF6E6
:1063D0009C728280B1F9044084808A8002680C68D3
:1063E00004600A6010BD10B504460068FFF71EFF88
:1063F000204610BD38B5C468F4B12378022B03D110
:1064000004F10C00FFF7EFFF656835B12846FFF790
:10641000D2FF1021284601F060FAA56835B1284660
:10642000FFF7C9FF1021284601F057FA2046142132
:10643000BDE8384001F051BA38BD10B588B0044607
:10644000684600F0E0FE694604A800F0FEFE04A8DD
:10645000A047044604A800F08FFE684600F08CFEBA
:10646000204608B010BDF0B5102485B007460E4692
:10647000154600212246684602F061FB002269466B
:106480001046ADF80040029703960195FFF726FEEF
:1064900005B0F0BD13B5044691E8050000234B603C
:1064A0000B602060626001A801930093FEF726FC58
:1064B000204602B010BDF7B50C4602AD54F8043BBF
:1064C00045F8083D06460F4601A82146FFF7FDFEA8
:1064D00029463046FFF7DEFF01A8FEF70FFC2046F5
:1064E000FEF70CFC3846082101F0F7F9304603B0FE
:1064F000F0BD13B50B46044603C88DE8030093E8CE
:10650000030084E803009DE8030083E8030002B071
:1065100010BD000038B500230446036010200D466E
:10652000FDF7BBFD28B1012343608360024B03608C
:10653000C5602060204638BD84B30D00826810B568
:106540000AB901F0E6F9C368BDE81040184708B57C
:10655000006800F11001FFF7F1FF08BD826810B577
:106560000AB901F0D6F9C368BDE81040184708B56C
:10657000006800F11001FFF7F1FF08BD38B50023F6
:1065800083608B6804460D462BB102229847EB6866
:10659000E360AB68A360204638BD0000F0B589B069
:1065A00004686846FFF710FF00238DF808304FF0AD
:1065B0000202D4E84F3F002B03D1C4E8412F002949
:1065C000F7D102D08DF8083063E014F10C0503D048
:1065D00069462846FFF7F8FEBFF35F8F012363701B
:1065E000002004F10803BFF35F8F53E8006F43E816
:1065F0000002002AF9D1BFF35F8F002E49D0FFF7C8
:1066000039FD20B129463046FFF798FF3AE0314680
:1066100002A8FFF7B3FFE068B4F9105008B102F028
:10662000D1FA06901020ADF81C50FDF736FD054656
:10663000E8B1002787601820FDF72FFD044688B1D8
:106640000146876002A8FFF754FF049BA268A3607D
:10665000059B049206A9E268E36004F1100005922C
:10666000FFF7B2FE0D4BEB600D4B2C60AB6006A844
:10667000FFF7B9FE02A8FFF79EFE0022294609484F
:10668000FFF700FD3046FFF796FE1021304601F07F
:1066900024F96846FFF7A7FE09B0F0BD4F650D006D
:1066A000C5670D0093620D002DE9F04F8BB00646D3
:1066B0000F46904699469DF850A0FFF727FD07AD7D
:1066C000834630BB4FF62E73059005A92846ADF8DA
:1066D0001830FFF779FE1420FDF7DFFC044658B1AF
:1066E0000223037001234370C0F804B0C0F808B05F
:1066F00029460C30FFF768FE3046214640F8044B2F
:10670000FFF708FF2846FFF76EFE05A8FFF76BFEB0
:1067100052E000240C2314206C60AC600793FDF75A
:10672000BCFC014618B1047044704460846004A845
:106730000391FFF7EFFE224B08930820FDF7ADFC15
:10674000044628B1039B40F8043B04A9FFF7BDFDB4
:1067500000955FFA8AF34A46414638460994FFF7A6
:10676000E5FC20B9039B5B7803F0FF0283B1039B38
:10677000059304A906A8FFF7A8FD05A93046FFF771
:1067800089FE06A8FEF7BAFA04A8FEF7B7FA13E0E6
:106790004FF69C7305A903A80592ADF81830FFF7D2
:1067A000FDFE05A8FFF71FFE05A80999FFF783FE68
:1067B00006A8FEF7A3FADAE730460BB0BDE8F08F83
:1067C00035690D00022AF8B5044606D0032A17D011
:1067D000012A22D10B6803601FE018200E68FDF724
:1067E0005CFC054650B13146FFF7C8FE3069B6F98A
:1067F000147008B102F0E6F92861AF8225600CE060
:10680000046854B104F11000FFF7EDFD2046FFF7D6
:10681000D2FD1821204601F060F80020F8BD38B5FF
:10682000002383608B6804460D462BB102229847F3
:10683000EB68E360AB68A360204638BD022A70B500
:10684000044606D0032A11D0012A18D10B68036030
:1068500015E014200E68FDF720FC054620B13146F6
:10686000FFF7DDFF337C2B74256008E0046834B14A
:106870002046FFF7A0FD1421204601F02EF800204D
:1068800070BD0000F0B5002387B00C46BFF35F8FEA
:1068900050E8006F40E80032002AF9D1BFF35F8F63
:1068A000002E3FD01846FFF7E5FB074620B12146F2
:1068B0003046FFF753FE2EE0314601A8FFF7AFFF49
:1068C00023788DF814301020FDF7E7FB0546D0B192
:1068D00087601420FDF7E1FB044678B1876001462C
:1068E00001A8FFF706FE039BA268A360049B039226
:1068F000E268E3609DF81430049223740A4BEB6065
:106900000A4B2C60AB6001A8FFF755FD0022294619
:106910000748FFF7B7FB3046FFF74DFD1021304623
:1069200000F0DBFF07B0F0BD6F650D003D680D00A6
:1069300093620D0030B585B004460D466846114699
:10694000FFF7B9FD7CB124B228460DB102F03AF947
:10695000029002A96846ADF80C40FFF71FFE02A89E
:10696000FFF741FD1DE000988DF808404FF001024F
:10697000D0E84F3FA34203D1C0E8412F0029F7D10F
:1069800002D08DF808300CE010F10C014FF001033B
:1069900018BF0373BFF35F8F043000F8033CFFF7A9
:1069A00071FF01A8FEF7AAF905B030BD002211461B
:1069B0004068FFF71BBC002211464068FFF726BC69
:1069C00000224068FFF71ABC002281F001014068F4
:1069D000FFF704BC00231A4619464068FFF7F6BBD0
:1069E00000231A4619464068FFF7E8BB002211460B
:1069F0004068FFF7DBBB002211464068FFF7C6BBCB
:106A0000002202214068FFF7C9BB00231A464068F4
:106A1000FFF7B4BB024B03225A60024A1A60704768
:106A200084E30320A0B30D007047F8B50646154671
:106A30000C468F18BC4206D0336814F8011B9B68C3
:106A400030469847F6E72846F8BD0022007CFFF75D
:106A5000D9B90021007CFFF7DDB90021007CFFF7E8
:106A6000E1B90021007CFFF7E5B90021007CFFF7C8
:106A7000E9B910B51421044600F02FFF204610BDDF
:106A800010B50446002363604FF47A73A360044B8F
:106A90002174084623601146FFF7E4F9204610BD33
:106AA000D4B30D0000231A461946007CFFF792B9B3
:106AB00070B50C4686B0142506462A46002101A86A
:106AC00002F03DF823788DF8083063680393E3689B
:106AD00004930022237A307CADF8045001A9059379
:106AE000FFF7C8F906B070BD1FB500338DF8001070
:106AF0004FF06401039118BF0123694601928DF89C
:106B00000830FFF7D5FF05B05DF804FB0123FFF760
:106B1000EBBF0022007CFFF765B90022007CFFF785
:106B200069B90121FFF7F9BF0021007CFFF792B995
:106B3000704710B51821044600F0CFFE204610BD66
:106B4000F0B5037D062B8DB00E4600F104074FF023
:106B5000000402D000F1080518E00CAD394605F834
:106B6000304D2F232A460A20FFF78CF9284602F0E1
:106B700044F833680246DB682946304698470FE000
:106B800024B12E21304600F0D5F9044415F8011D3A
:106B90000A22304600F0E7F9BD420444F0D1204615
:106BA0000DB0F0BD10B5054B0446112240F8043B72
:106BB000002101F0C4FF204610BD00BFFCB30D0052
:106BC0000346074A10B543F8042B01F1100251F8AF
:106BD000044B43F8044B9142F9D10A781A7010BD66
:106BE000FCB30D0010B59DF8084044EA032343EAC6
:106BF000024242EA016104234160037510BD37B5CA
:106C00000D788B784A78C97800912946FFF7EAFF1A
:106C100003B030BD014B024A1A6070478CE3032079
:106C20007BB40D00002211464068FFF7DFBA002256
:106C300011464068FFF7EABA00224068FFF7DEBA63
:106C4000002281F001014068FFF7C8BA00231A460C
:106C500001214068FFF7BABA00231A461946406876
:106C6000FFF7ACBA002211464068FFF79FBA002236
:106C700011464068FFF78ABA002202214068FFF7F8
:106C80008DBA00231A464068FFF778BA38B5054632
:106C900088B104684CB1A3681BB103222146204689
:106CA00098471021204600F018FE28461421BDE820
:106CB000384000F012BE38BD10B103685B68184759
:106CC000704710B503680446BBB15868FEF7FAFF79
:106CD00078B923685A7C12B95868FEF7FBFF23681D
:106CE0005868FEF7FFFF20680023236028B1FFF7F4
:106CF000CDFF206808B1FFF7C9FF204610BD38B5A9
:106D00000446D0F8C40108B1FDF7CBF9D4F8C001AE
:106D100008B1FEF7F7FFD4F8BC5135B12846FFF7AC
:106D2000D0FF0421284600F0D8FD206808B1FFF705
:106D3000C3FF204638BD000010B5044B044640F8A0
:106D4000083BFFF7DCFF204610BD00BFF0B40D008C
:106D500038B50E4C0E4B23600025022304F5E47079
:106D60006360A560C4F8C451C4F8C851FEF7C2FFFF
:106D7000084BC4F8CC5184F8D05123602046064A11
:106D80000649BDE8384000F0A3BD00BF90E30320F2
:106D900024B50D00F0B40D0030E10320396D0D0075
:106DA00000231A464068FFF7E9B900220221406833
:106DB000FFF7F4B9002211464068FFF7E7B9002257
:106DC00011464068FFF7F2B900231A461946406899
:106DD000FFF7F4B900231A4619464068FFF7F6B9E1
:106DE000002281F001014068FFF7F8B900224068F5
:106DF000FFF704BA002211464068FFF707BA0022E5
:106E000011464068FFF7F2B92DE9F043002495B030
:106E100016460D460746FFF7C5FE214620220CA860
:106E2000009401F08CFE40230C9321466B460CAA83
:106E30003046FFF737F80446002844D102460121C6
:106E40006868FFF7B3F90221804622466868FFF7B9
:106E5000ADF9009E81462146002E34D0002932D162
:106E60007368022B02D00A2B09D02AE0B8F1000F78
:106E700027D0716938460431FFF7C1FE20E0B9F12F
:106E8000000F1ED07469112201A801F058FE0623DC
:106E90008DF8143001AD04F10803183418685968EE
:106EA0002A4603C20833A3421546F7D101A906A812
:106EB00007ADFFF785FE0FCD3C1D0FC42B68237077
:106EC0000121F669C8E70098FEF7E4FF384615B0DF
:106ED000BDE8F083024B034A1A6000225A607047F3
:106EE00064E5032024B50D00F8B506460D468F185D
:106EF0000024BD420CD0336815F8011B9B68304656
:106F00009847002801DB0444F3E7002C08BF04463F
:106F10002046F8BD70B505460C46084649B101F05B
:106F20006CFE2B68024621462846DB68BDE87040AF
:106F3000184770BD03689B68184738B50D21054692
:106F4000FFF7F8FF0A2104462846FFF7F3FF204425
:106F500038BD38B50546FFF7DDFF04462846FFF784
:106F6000ECFF204438BD30B58BB00B4600218DF8C6
:106F70002410012A98BF0A220DF12304B3FBF2F575
:106F800005FB123303F0FF03092B94BF3033373373
:106F9000DBB2214604F801392B46002DEED1FFF774
:106FA000B9FF0BB030BD10B50446FFF704FA204618
:106FB00010BD00000348044A04490023836000F028
:106FC00087BC00BF6CE5032030E10320A76F0D00F4
:106FD000704710B50C21044600F07FFC204610BD20
:106FE0000021FEF7A7BF0021FEF7ACBF10B5054B8F
:106FF0000360044601710846FEF784FF0023A36086
:10700000204610BD58B50D0010B504460079FFF7B5
:10701000E7FF48B920794FF6FF71FEF74BFF207963
:10702000BDE81040FFF7DFBF10BD38B5044600795A
:107030000D46FFF7D5FF40B920792946FEF742FFFC
:107040002079BDE83840FFF7CEBF38BD38B50446DB
:1070500000790D46FFF7C4FF40B920792946FEF7B5
:1070600039FF2079BDE83840FFF7BDBF38BD007952
:10707000FFF7B9BF400830B518600024186888428F
:10708000E5B206D90134082C02D040081860F5E7B3
:107090000725024B5B5D137030BD00BF60B50D006E
:1070A0002DE9F04188B000230446007902930E4692
:1070B0001746FFF795FF054600BB94F8048001468C
:1070C000142203A801F03BFD0B232A4603A94046E6
:1070D000ADF80C30FEF726FF02AB0DF1070207FBFF
:1070E00006F104988DF80750FFF7C4FF20799DF84A
:1070F0000710FEF7F7FE2079FFF775FF029808B03A
:10710000BDE8F08138B5044600790D46FFF768FF09
:10711000C8B9A16871B10C4BC25CAA4202D001305F
:107120000828F9D10130C0B2C14001222046FFF742
:10713000B7FF03E029462079FEF7D4FE2079BDE8A9
:107140003840FFF750BF38BD60B50D0038B5044674
:1071500000790D46FFF744FF40B929462079FEF734
:10716000C9FE05462079FFF73EFF00E00025E8B2A2
:1071700038BD0079FEF7CEBE10B504460068FFF7B3
:1071800055F8204610BD10B50446006808B1FFF759
:107190004DF800232360A360636010BD38B504463A
:1071A0000D4600680131FFF749F810B184E821006D
:1071B000012038BD10B50368044613B143688B4203
:1071C00007D22046FFF7EAFF20B1A3680BB9226877
:1071D0001370012010BD70B50E46114604461546C9
:1071E000FFF7E8FF18B92046FFF7CDFF09E02A4670
:1071F0003146A560206801F097FC2268A368002151
:10720000D154204670BD38B5002304460360436066
:10721000836003730D4639B1084601F0EEFC294640
:1072200002462046FFF7D7FF204638BD884210B5FA
:107230000B46044607D0096819B19A68FFF7CBFFDF
:1072400001E0FFF7A0FF204610BD10B50023044663
:107250000360436083600373FFF7E8FF204610BDBF
:1072600008B582680B4612B919B9012008BD11B9D9
:107270000368187802E0006801F092FCB0FA80F030
:10728000400908BD70B50E469AB191B185689D421E
:1072900002D800230B7070BD541EED1A0168AC4279
:1072A00028BF2C4619442246304601F0C3FC002377
:1072B000335570BD08B5006830B101F023FB51ECC7
:1072C000100B01F00BF900E0002000EE100A08BDE1
:1072D000014600228C20FEF725BD0020FFF7F8BFF5
:1072E00010B5094C00204FF6FF732060A080A071FC
:1072F00020816381FEF7A6FE2046044A0449BDE8CA
:10730000104000F0E5BA00BF7CE5032030E1032027
:10731000814B0D00F0B5144B144F1E68144B0644FE
:1073200018683B6806449E428BB01BD00AA801AD8A
:1073300040F8286D01F0FCFA436903F26C73436175
:1073400004460FCC0FC50FCC0FC5D4F800E0C5F82C
:1073500000E001AD0FCD074C0FC40FCD0FC43E6050
:10736000C4F800E00BB0F0BDB8E50320B4E503209D
:10737000B0E5032088E5032008B50020FEF7EEFE07
:1073800028B1FEF7C3FE80F00100C0B208BD0120A5
:1073900008BD10B50020FEF7E5FC044668B9FEF70D
:1073A00049FE01280BD12046FEF774FE38B9FFF7DD
:1073B000E3FF30B9FEF79AFEF9E7012010BD002087
:1073C00010BDFFF7D9FF0020FEF7CCFC003018BF3E
:1073D000012010BD08B5FFF7DCFFBDE80840FEF74F
:1073E000B9BC000008B5FFF7F5FFFFF793FF014BAD
:1073F000986808BD88E5032008B5FFF7EBFFFFF7A5
:1074000089FF014B586808BD88E5032008B5FFF7E0
:10741000E1FFFFF77FFF014BD86808BD88E5032037
:10742000024B1A68024B1A60704700BF3CE0032011
:10743000ACE5032070474174704708B5007CFEF747
:10744000C1FD20EAE07008BD08B5007CFEF792FDA2
:1074500020EAE07008BD08B5007CFEF79BFD30EA2D
:10746000200028BF4FF0FF3008BD08B5007CFEF7B4
:1074700089FD30EA200028BF4FF0FF3008BD007CB6
:10748000FEF790BD10B51421044600F026FA204600
:1074900010BD70B5457C04460E4625B9007CFEF74C
:1074A00091FD002805DD3146207CBDE87040FEF7E7
:1074B00059BD284670BD000010B504460846114667
:1074C000002262604FF47A72A260054A22600122B3
:1074D000207462741A46FEF73DFD204610BD00BFC1
:1074E00098B50D00007CFEF765BD000038B50C4D69
:1074F000296811F0010411D12846FCF7D4FD68B1C8
:10750000084A094B09482146FFF7D6FF2846FCF7F1
:10751000CFFD074A0749054800F0DAF9034838BDAE
:1075200054E6032058E60320D0E50320BCE5032001
:1075300030E1032035740D0041747047704708B581
:107540000021007CFEF75EFD30EA200028BF4FF0EE
:10755000FF3008BD08B50121007CFEF753FD30EA7D
:10756000200028BF4FF0FF3008BD08B5007CFEF7B3
:1075700041FD20EAE07008BD08B5007CFEF732FD51
:1075800020EAE07008BD007CFEF74CBD10B5142168
:10759000044600F0A2F9204610BD38B50446007C30
:1075A0000D46FEF727FD002801DC607C28B1294646
:1075B000207CFEF72FFD20EAE07038BD10B50446B0
:1075C000002363604FF47A73A360054B23600123AB
:1075D0000846217463741146FEF7FCFC204610BD7A
:1075E000C8B50D0010B514220446002101F0A7FA19
:1075F000204610BD30B50E4D87B001A8FFF7F2FF51
:10760000296811F0010410D12846FCF74CFD60B147
:1076100001AA21460748FFF7D1FF2846FCF748FD9D
:10762000054A0649034800F053F9024807B030BD47
:10763000DCE60320E0E6032030E103203D750D0089
:1076400008B50C4B33B1FFF7D5FF03681B699847AA
:10765000002809DC084B63B1FFF748FF03681B698A
:107660009847002803DC08BDAFF30080F2E7AFF3D2
:10767000008008BD000000000000000008B5FFF712
:10768000DFFFFEF75FFB014B186008BDFCE603203F
:107690000248034A0349121A01F046BA00F40320D3
:1076A00004F4032098B90D0007B5002300931A468F
:1076B0006FF07701FEF700FD03B05DF804FB0000FA
:1076C00007B543880A2B08D0502B09D1094B1B68FA
:1076D0003BB103B05DF804EB1847FFF7E5FF06E0A8
:1076E000002300931A466FF07701FEF7E5FC03B024
:1076F0005DF804FBF4E6032038B5104C104D236808
:10770000AB42104B0CBF012200221A7002D0FFF7CF
:10771000BFFF2560FEF70EFB044601F019FA0A4B85
:1077200013B12046AFF3008000210748FEF71EFD8D
:1077300000210648BDE83840FEF7B4BC00F4032041
:107740001E1C279AF8E6032000000000C1760D00F9
:1077500010B5044600F09CF8FFF70BFD28B1A4F12A
:107760000B03022B01D8002010BD00F06BF8FFF7CF
:10777000DBF908B1012CF6D9FFF7B8FEFFF7B2FE2E
:1077800018B1A4F10903012BEDD9232C8CBF0020E3
:10779000012010BD232838B504460D460AD8FF291C
:1077A00008D0FFF7D5FF28B129462046BDE838406C
:1077B000FEF7F0BA38BD38B504460D46FEF7F2FACA
:1077C000FF2810D0062804D84D2323FA00F0C30761
:1077D00009D42046FFF7BCFF28B129462046BDE862
:1077E0003840FEF7E7BA38BD10B50446FEF7DAFABE
:1077F0000438C0B2012808D92046FFF7A9FF20B1FC
:107800002046BDE81040FEF7DDBA002010BD0000A4
:1078100070B5044614252A46094E002101F08FF95F
:10782000258020253146A5602561284600F06FF8A7
:1078300031466060284600F06AF8E060204670BD7E
:10784000F0B50D0030B50E4D296811F0010487B078
:1078500013D12846FCF727FC78B101A8FFF7D8FF21
:1078600001AA21460748FFF70BF92846FCF720FC40
:10787000054A0649034800F02BF8024807B030BD1E
:1078800000E7032004E7032030E10320296A0D000C
:1078900038B50B4D296811F001040FD12846FCF7CB
:1078A00002FC58B121460748FFF7A0FB2846FCF729
:1078B000FFFB054A0549034800F00AF8014838BDB6
:1078C00024E7032018E7032030E10320D16F0D00E7
:1078D0000B460146184601F01DB8FCF7E0BB00005E
:1078E000024B1868BFF35F8F704700BF28E7032083
:1078F00010B5002814BF044601242046FEF78EFC74
:1079000020B9FFF7EDFF08B18047F6E710BDFFF79C
:10791000EFBF08B5FEF7AAFC244B1A68D0075CBF7E
:1079200001221A60224B1A68D1075CBF01221A603B
:10793000204B1A68D2075CBF01221A601E4B1A68DE
:10794000D0075CBF01221A601C4B1A68D1075CBFCC
:1079500001221A601A4B1A68D2075CBF01221A6012
:10796000184B1A68D0075CBF01221A60164B1A68C0
:10797000D1075CBF01221A60144B1A68D2075CBFA2
:1079800001221A60124B1A68D0075CBF01221A60EC
:10799000104B1A68D1075CBF01221A600E4B1A689F
:1079A000D2075CBF01221A60704700BF58E703206E
:1079B00054E7032050E703204CE7032048E7032067
:1079C00044E7032040E703203CE7032038E7032097
:1079D00034E7032030E703202CE70320184B1A6814
:1079E000D1075CBF01221A60164B1A68D2075CBF30
:1079F00001221A60144B1A68D0075CBF01221A607A
:107A0000124B1A68D1075CBF01221A60104B1A682A
:107A1000D2075CBF01221A600E4B1A68D0075CBF08
:107A200001221A600C4B1A68D1075CBF01221A6050
:107A30000A4B1A68D2075CBF01221A60704700BF68
:107A400078E7032074E7032070E703206CE7032046
:107A500068E7032064E7032060E703205CE7032076
:107A6000184B1A68D1075CBF01221A60164B1A68BE
:107A7000D2075CBF01221A60144B1A68D0075CBFA2
:107A800001221A60124B1A68D1075CBF01221A60EA
:107A9000104B1A68D2075CBF01221A600E4B1A689D
:107AA000D0075CBF01221A600C4B1A68D1075CBF7B
:107AB00001221A600A4B1A68D2075CBF01221A60C1
:107AC000704700BF98E7032094E7032090E7032066
:107AD0008CE7032088E7032084E7032080E7032066
:107AE0007CE70320244B1A68D0075CBF01221A6090
:107AF000224B1A68D1075CBF01221A60204B1A681A
:107B0000D2075CBF01221A601E4B1A68D0075CBF07
:107B100001221A601C4B1A68D1075CBF01221A604F
:107B20001A4B1A68D2075CBF01221A60184B1A68F8
:107B3000D0075CBF01221A60164B1A68D1075CBFE0
:107B400001221A60144B1A68D2075CBF01221A6026
:107B5000124B1A68D0075CBF01221A60104B1A68DA
:107B6000D1075CBF01221A600E4B1A68D2075CBFB6
:107B700001221A60704700BFC8E70320C4E7032052
:107B8000C0E70320BCE70320B8E70320B4E70320E5
:107B9000B0E70320ACE70320A8E70320A4E7032015
:107BA000A0E703209CE7032081F0004102E000BF32
:107BB00083F0004330B54FEA41044FEA430594EAAD
:107BC000050F08BF90EA020F1FBF54EA000C55EAE8
:107BD000020C7FEA645C7FEA655C00F0E2804FEAB9
:107BE0005454D4EB5555B8BF6D420CDD2C4480EA9B
:107BF000020281EA030382EA000083EA010180EACB
:107C0000020281EA0303362D88BF30BD11F0004F18
:107C10004FEA01314FF4801C4CEA113102D040424E
:107C200061EB410113F0004F4FEA03334CEA133389
:107C300002D0524263EB430394EA050F00F0A780A1
:107C4000A4F10104D5F1200E0DDB02FA0EFC22FA9C
:107C500005F2801841F1000103FA0EF2801843FA90
:107C600005F359410EE0A5F120050EF1200E012A81
:107C700003FA0EFC28BF4CF0020C43FA05F3C018BF
:107C800051EBE37101F0004507D54FF0000EDCF138
:107C9000000C7EEB00006EEB0101B1F5801F1BD3E1
:107CA000B1F5001F0CD349085FEA30004FEA3C0CE5
:107CB00004F101044FEA445212F5800F80F09A80DB
:107CC000BCF1004F08BF5FEA500C50F1000041EBDF
:107CD000045141EA050130BD5FEA4C0C404141EBE3
:107CE000010111F4801FA4F10104E9D191F0000F0A
:107CF00004BF01460020B1FA81F308BF2033A3F18D
:107D00000B03B3F120020CDA0C3208DD02F1140C83
:107D1000C2F10C0201FA0CF021FA02F10CE002F1BE
:107D20001402D8BFC2F1200C01FA02F120FA0CFCB7
:107D3000DCBF41EA0C019040E41AA2BF01EB045100
:107D4000294330BD6FEA04041F3C1CDA0C340EDCFE
:107D500004F11404C4F1200220FA04F001FA02F341
:107D600040EA030021FA04F345EA030130BDC4F1FF
:107D70000C04C4F1200220FA02F001FA04F340EAF4
:107D80000300294630BD21FA04F0294630BD94F0A5
:107D9000000F83F4801306BF81F480110134013D8C
:107DA0004EE77FEA645C18BF7FEA655C29D094EAFD
:107DB000050F08BF90EA020F05D054EA000C04BF7B
:107DC0001946104630BD91EA030F1EBF0021002066
:107DD00030BD5FEA545C05D14000494128BF41F005
:107DE000004130BD14F580043CBF01F5801130BD69
:107DF00001F0004545F0FE4141F470014FF00000F4
:107E000030BD7FEA645C1ABF194610467FEA655CA4
:107E10001CBF0B46024650EA013406BF52EA033546
:107E200091EA030F41F4002130BD00BF90F0000F34
:107E300004BF0021704730B54FF4806404F1320470
:107E40004FF000054FF0000150E700BF90F0000F29
:107E500004BF0021704730B54FF4806404F1320450
:107E600010F0004548BF40424FF000013EE700BF20
:107E700042004FEAE2014FEA31014FEA02701FBFB0
:107E800012F07F4393F07F4F81F06051704792F082
:107E9000000F14BF93F07F4F704730B54FF46074FC
:107EA00001F0004521F0004120E700BF50EA010247
:107EB00008BF704730B54FF000050AE050EA0102F4
:107EC00008BF704730B511F0004502D5404261EB64
:107ED00041014FF4806404F132045FEA915C3FF4A5
:107EE000DCAE4FF003025FEADC0C18BF03325FEA3E
:107EF000DC0C18BF033202EBDC02C2F1200300FAF3
:107F000003FC20FA02F001FA03FE40EA0E0021FA17
:107F100002F11444C1E600BF70B54FF0FF0C4CF401
:107F2000E06C1CEA11541DBF1CEA135594EA0C0FB7
:107F300095EA0C0F00F0DEF82C4481EA030621EAF2
:107F40004C5123EA4C5350EA013518BF52EA03352D
:107F500041F4801143F4801338D0A0FB02CE4FF0DF
:107F60000005E1FB02E506F00042E0FB03E54FF00F
:107F70000006E1FB03569CF0000F18BF4EF0010E07
:107F8000A4F1FF04B6F5007F64F5407404D25FEA03
:107F90004E0E6D4146EB060642EAC62141EA5551B6
:107FA0004FEAC52040EA5E504FEACE2EB4F1FD0CF8
:107FB00088BFBCF5E06F1ED8BEF1004F08BF5FEA76
:107FC000500E50F1000041EB045170BD06F0004628
:107FD00046EA010140EA020081EA0301B4EB5C04D5
:107FE000C2BFD4EB0C0541EA045170BD41F48011CD
:107FF0004FF0000E013C00F3AB8014F1360FDEBFF2
:10800000002001F0004170BDC4F10004203C35DACD
:108010000C341BDC04F11404C4F1200500FA05F350
:1080200020FA04F001FA05F240EA020001F00042F1
:1080300021F0004110EBD37021FA04F642EB060167
:108040005EEA430E08BF20EAD37070BDC4F10C0491
:10805000C4F1200500FA04F320FA05F001FA04F255
:1080600040EA020001F0004110EBD37041F1000141
:108070005EEA430E08BF20EAD37070BDC4F120054C
:1080800000FA05F24EEA020E20FA04F301FA05F2B4
:1080900043EA020321FA04F001F0004121FA04F25C
:1080A00020EA020000EBD3705EEA430E08BF20EA2C
:1080B000D37070BD94F0000F0FD101F00046400066
:1080C00041EB010111F4801F08BF013CF7D041EAE8
:1080D000060195F0000F18BF704703F000465200EC
:1080E00043EB030313F4801F08BF013DF7D043EABD
:1080F0000603704794EA0C0F0CEA135518BF95EA73
:108100000C0F0CD050EA410618BF52EA4306D1D1F9
:1081100081EA030101F000414FF0000070BD50EA18
:10812000410606BF1046194652EA430619D094EAA2
:108130000C0F02D150EA013613D195EA0C0F05D18C
:1081400052EA03361CBF104619460AD181EA0301E0
:1081500001F0004141F0FE4141F470014FF0000098
:1081600070BD41F0FE4141F4780170BD70B54FF033
:10817000FF0C4CF4E06C1CEA11541DBF1CEA1355B3
:1081800094EA0C0F95EA0C0F00F0A7F8A4EB050495
:1081900081EA030E52EA03354FEA013100F088808C
:1081A0004FEA03334FF0805545EA131343EA126355
:1081B0004FEA022245EA111545EA10654FEA00260A
:1081C0000EF000419D4208BF964244F1FD0404F5C3
:1081D000407402D25B084FEA3202B61A65EB03051F
:1081E0005B084FEA32024FF480104FF4002CB6EBDC
:1081F000020E75EB030E22BFB61A754640EA0C005C
:108200005B084FEA3202B6EB020E75EB030E22BF9B
:10821000B61A754640EA5C005B084FEA3202B6EBDC
:10822000020E75EB030E22BFB61A754640EA9C009B
:108230005B084FEA3202B6EB020E75EB030E22BF6B
:10824000B61A754640EADC0055EA060E18D04FEA29
:10825000051545EA16754FEA06164FEAC30343EAC9
:1082600052734FEAC2025FEA1C1CC0D111F4801F96
:108270000BD141EA00014FF000004FF0004CB6E78F
:1082800011F4801F04BF01430020B4F1FD0C88BF2E
:10829000BCF5E06F3FF6AFAEB5EB030C04BFB6EB39
:1082A000020C5FEA500C50F1000041EB045170BD2C
:1082B0000EF0004E4EEA113114EB5C04C2BFD4EB59
:1082C0000C0541EA045170BD41F480114FF0000EDD
:1082D000013C90E645EA060E8DE60CEA135594EA59
:1082E0000C0F08BF95EA0C0F3FF43BAF94EA0C0F5C
:1082F0000AD150EA01347FF434AF95EA0C0F7FF4D1
:1083000025AF104619462CE795EA0C0F06D152EA24
:1083100003353FF4FDAE1046194622E750EA410608
:1083200018BF52EA43067FF4C5AE50EA41047FF419
:108330000DAF52EA43057FF4EBAE12E74FF0FF3C7E
:1083400006E000BF4FF0010C02E000BF4FF0010C4F
:108350004DF804CD4FEA410C7FEA6C5C4FEA430CC8
:1083600018BF7FEA6C5C1BD001B050EA410C0CBF17
:1083700052EA430C91EA030F02BF90EA020F002079
:10838000704710F1000F91EA030F58BF994208BFE0
:1083900090422CBFD8176FEAE37040F0010070479D
:1083A0004FEA410C7FEA6C5C02D150EA013C07D1F4
:1083B0004FEA430C7FEA6C5CD6D152EA033CD3D03F
:1083C0005DF8040B704700BF8446104662468C4639
:1083D0001946634600E000BF01B5FFF7B7FF00286C
:1083E00048BF10F1000F01BD4DF808EDFFF7F4FF95
:1083F0000CBF012000205DF808FB00BF4DF808ED20
:10840000FFF7EAFF34BF012000205DF808FB00BF42
:108410004DF808EDFFF7E0FF94BF012000205DF864
:1084200008FB00BF4DF808EDFFF7CEFF94BF012019
:1084300000205DF808FB00BF4DF808EDFFF7C4FF12
:1084400034BF012000205DF808FB00BF4FEA410265
:1084500012F5001215D211D56FF47873B3EB625296
:1084600012D94FEAC12343F0004343EA505311F0BD
:10847000004F23FA02F018BF404270474FF000004F
:10848000704750EA013005D111F0004008BF6FF08D
:10849000004070474FF00000704700BF4A0011D203
:1084A00012F5001211D20DD56FF47873B3EB62524E
:1084B0000ED44FEAC12343F0004343EA505323FA5A
:1084C00002F070474FF00000704750EA013002D1CF
:1084D0004FF0FF3070474FF0000070474FEA410205
:1084E000B2F1E04324BFB3F5001CDCF1FE5C0DD912
:1084F00001F0004C4FEAC0024CEA5070B2F1004F5C
:1085000040EB830008BF20F00100704711F0804F5E
:1085100021D113F13872BCBF01F00040704741F423
:1085200080114FEA5252C2F11802C2F1200C10FA27
:108530000CF320FA02F018BF40F001004FEAC1230B
:108540004FEAD32303FA0CFC40EA0C0023FA02F3AF
:108550004FEA4303CCE77FEA625307D150EA013385
:108560001EBF4FF0FE4040F44000704701F0004055
:1085700040F0FE4040F40000704700BF7BB972B984
:108580000029BEBF00204FF0004106E008BF0028D0
:108590001CBF6FF000414FF0FF3000F0B1B9ADF1FA
:1085A000080C6DE904CE002909DB002B1ADB00F072
:1085B00035F8DDF804E0DDE9022304B070474042FD
:1085C00061EB4101002B1BDB00F028F8DDF804E033
:1085D000DDE9022304B0404261EB4101524263EB0A
:1085E00043037047524263EB430300F017F8DDF892
:1085F00004E0DDE9022304B0404261EB4101704731
:10860000524263EB430300F009F8DDF804E0DDE9D2
:10861000022304B0524263EB430370472DE9F04755
:108620008C460E460446089D002B50D18A421746C0
:108630006CD9B2FA82FEBEF1000F0BD0CEF120044D
:1086400020FA04F401FA0EF644EA060C02FA0EF7D8
:1086500000FA0EF44FEA1749220CBCFBF9F01FFA9E
:1086600087F809FB10C642EA064600FB08F3B3424E
:1086700009D9F61900F1FF3280F02281B34240F2AD
:108680001F8102383E44F61AA2B2B6FBF9F309FB89
:10869000136642EA064403FB08F8A04509D9E41929
:1086A00003F1FF3280F00A81A04540F20781023BCE
:1086B0003C44C8EB040443EA00400021002D62D092
:1086C00024FA0EF400232C606B60BDE8F0878B4227
:1086D00007D9002D55D0002185E841000846BDE8A6
:1086E000F087B3FA83F1002940F09080B34202D3BF
:1086F000824200F2F880841A66EB03060120B44639
:10870000002D40D085E81010BDE8F08712B9012790
:10871000B7FBF2F7B7FA87FEBEF1000F35D1F31BB6
:108720004FEA17481FFA87FC0121B3FBF8F0220C2F
:1087300008FB103642EA06460CFB00F3B34207D9A9
:10874000F61900F1FF3202D2B34200F2CE80104699
:10875000F61AA2B2B6FBF8F308FB136642EA064427
:108760000CFB03FCA44507D9E41903F1FF3202D244
:10877000A44500F2B5801346CCEB040443EA004064
:108780009CE729462846BDE8F087CEF1200106FA8D
:108790000EF307FA0EF720FA01F94FEA1748CE4018
:1087A00049EA0309B6FBF8FA4FEA194408FB1A66CE
:1087B0001FFA87FC44EA06430AFB0CF29A4200FACD
:1087C0000EF40AD9DB190AF1FF3180F087809A4252
:1087D00040F28480AAF1020A3B449B1A1FFA89F9ED
:1087E000B3FBF8F108FB113349EA034301FB0CF634
:1087F0009E4207D9DB1901F1FF326BD29E4269D943
:1088000002393B449B1B41EA0A418EE7C1F1200E2D
:1088100022FA0EF48B40234320FA0EF706FA01F4F5
:108820004FEA134C26FA0EF63C43B6FBFCF9270C34
:108830000CFB19661FFA83F847EA064609FB08F79E
:10884000B74202FA01F200FA01FA08D9F61809F162
:10885000FF3041D2B7423FD9A9F102091E44F61BAD
:10886000A0B2B6FBFCF40CFB146640EA064704FB1E
:1088700008F8B84507D9FF1804F1FF3028D2B845E9
:1088800026D9023C1F4444EA0940C8EB0707A0FB75
:1088900002894F4544464E4614D329D065B3BAEBFE
:1088A000040367EB060707FA0EFECB40CF404EEA03
:1088B000030385E888000021BDE8F0871346F8E649
:1088C0001046E0E6B8EB020469EB03060138E5E781
:1088D0000446D8E7114695E78146C0E78A467CE71B
:1088E000023B3C4448E708460AE702383E442FE78B
:1088F000C245E7D33E46D1E72946BDE8F08700BF31
:10890000704700BF002100F0C7BF0A22002101F01C
:1089100051B8000010B5054C13462CB10A4601466B
:108920000220AFF3008010BD204610BD0000000003
:1089300038B5074B1C68E36B05461BB92420FDF7CF
:108940006DFCE063E16B2846BDE8384000F002B8FA
:10895000A4E003202DE9F0410C46804601F04EFED4
:1089600021460746404601F04DFE466906F26C7608
:10897000B307044605D1642296FBF2F302FB1363AE
:108980004BB94FF4C87596FBF5F305FB1365B5FAC3
:1089900085F35B0900E001235F4A302505FB0325D1
:1089A00001F042F901F042F95C4B1B68F3B17B68BE
:1089B0009E4205D13968D8F80030FA6941B90AE019
:1089C000304601F089F80028F4D14FF0FF330DE074
:1089D000934208DB01E0934207DABA6B9342ACBFE3
:1089E0000023012302E0002300E001232362236A25
:1089F000012B0CBFF96B396A4FF461633C2091FB8A
:108A0000F3F603FB1613616893FBF0F200FB1230E0
:108A10002368891AA26861601B1A921B3B2B236092
:108A2000A26003DD013161603C3B04E0002B03DA0E
:108A3000013961603C33236063683B2B03DD013205
:108A4000A2603C3B04E0002B03DA013AA2603C3315
:108A50006360A368172B22DDE2690132E261A2693B
:108A60000132062AC8BF0022A261E268183B013227
:108A7000A3602369E26055F823108A4246DD013382
:108A80000C2B0CBF63692361A2EB0102E26001BF02
:108A9000013300222261636108BFE26136E0002BEE
:108AA00034DAE269013AE261A269013A48BF06227A
:108AB000A261E2681833013AE260A36032BB236925
:108AC000013B01D423611DE00B23236163695A1E1E
:108AD00012F0030F626103F26B7305D1642193FB03
:108AE000F1F201FB12324AB94FF4C87193FBF1F273
:108AF00001FB1233B3FA83F35B0900E0012303F5B2
:108B0000B673E361236955F82330E36001F08DF813
:108B10002046BDE8F08100BF5CB70D00E8E7032008
:108B200000487047A8E0032010B5431E0A44914254
:108B300004D011F8014B03F8014FF8E710BD0244CF
:108B40000346934202D003F8011BFAE77047000086
:108B500038B5124B1C68A36B0546D3B91820FDF736
:108B60005DFB43F20E33A06303804AF6CD334380AE
:108B700041F2342383804EF26D63C3804DF6EC6383
:108B80000381052343810B23838101220023C0E954
:108B90000423A36B00221D615A6138BDA4E00320A9
:108BA00010F8012B11F8013B012A28BF9A42F7D097
:108BB000D01A7047034611F8012B03F8012B002A45
:108BC000F9D17047024B0146186800F003B800BFA6
:108BD000A4E0032070B5064608460C4600F00DF8E8
:108BE000451C29463046FDF749FB064618B12A4682
:108BF0002146FFF799FF304670BD034613F8012B5D
:108C0000002AFBD1181A0138704730B582B1451ED1
:108C1000013915F8013F11F8014FA34206D1EC4389
:108C20001444E04201D0002BF3D11C46181B30BD88
:108C3000104630BD10B5034642B111F8014B03F8A0
:108C4000014B013A002CF7D11A4400E010BD9342C9
:108C500002D003F8014BFAE710BD70B504460D468B
:108C600045EC104B164602F02BF851EC100B7EB180
:108C7000C5F30A53C3F16B03002B09DD1B0503F198
:108C80007F55002405F5401522462B46FFF744F991
:108C900070BD0000000000002DE9F04F9DB00023E2
:108CA00002900C46139218934FF0000A4FF0000BFD
:108CB0001791179B1A780D2A05D8092A13D2002A72
:108CC00000F0AC8112E02B2A04D02D2A04D0202AF7
:108CD0000CD108E0002200E001220C925A1C1792ED
:108CE0005B782BB99AE101331793E2E700230C93E9
:108CF000179D2B78302B5CD16B78582B01D0782BBB
:108D00004CD10C9B019318AB0093A94A029819AB64
:108D100017A901F05CF910F00706044600F08785FA
:108D2000062E05D10135002317950C9300F07FBD69
:108D3000189A3AB135211AA802F0AFF8189902989A
:108D400001F02DFD062E22D8DFE806F0040D0818EC
:108D50001D0D04004FF0000BDA4618E0DDF868A0A6
:108D6000DDF86CB013E01B9B199ADDF868A023F4C2
:108D7000801302F2334243EA025B08E0DFF834B2C8
:108D80004FF0000A03E06FF0004B4FF0FF3A21076D
:108D900040F14D854BF0004B00F049BD179B5A1C2C
:108DA00017925B78302BF9D0002B00F0408501231F
:108DB00000E000234FF000080693179B0793CDF8BF
:108DC0001480CDF810800A22179D2E78A6F130036A
:108DD000D9B209290ED804990829DDBF059902FBEB
:108DE0000133059302FB0838049B013501330493DA
:108DF0001795E9E70298FFF793FE07680298FFF7D7
:108E00008FFE0068FFF7F9FE394602462846FFF755
:108E1000FCFE074628B100203346049D0246014669
:108E200057E00298FFF77CFE0068FFF7E6FE179B0D
:108E30001A181792049A1B5C002A42D11046302B54
:108E400005D1179B5A1C179201305B78F7E7A3F105
:108E50003102082A43D8179A079202460020054695
:108E6000303B00F1010126D00A4405EB000C2946F5
:108E70000A2661450ED0013101F1FF3EBEF1080F17
:108E800003DC059F77430597F3E71029D8BF06FB5E
:108E900008F8EEE72844082800F1010505DC0598EC
:108EA0000A2101FB0033059304E0102DDCBF0A21E9
:108EB00001FB08380021179B581C17905B78084667
:108EC00002E0049D38463A46A3F130010929C7D98A
:108ED0000121652B01D0452B51D16DB904E0652BE3
:108EE00040F0B3840022012128B9069B002B00F03A
:108EF0009580054600E00025179C631C1793637856
:108F00002B2B06D02D2B02D00026039606E0012342
:108F100000E000230393A31C1793A378A3F130066A
:108F2000092E2BD8302B04D1179B5E1C17965B782B
:108F3000F8E7A3F13106082E21D8A3F1300E179BD4
:108F40004FF00A0C1F46179B5E1C17965B78A3F127
:108F50003009B9F1090F04D80CFB0E3EAEF1300E0A
:108F6000F1E7F61B082E44F61F6902DCF145A8BFA5
:108F7000F146039E2EB1C9F1000902E017944FF0AB
:108F80000009002D53D1002840F05184069A002A90
:108F900040F04D84002941D14E2B20D002DC492BDA
:108FA0000AD03BE0692B07D06E2B18D036E000BF0B
:108FB000BCB70D000000F07FA84917A801F038FAEF
:108FC00060B3179BA649013B17A8179301F030FA2D
:108FD00010B9179B01331793DFF8A0B21AE0A1492B
:108FE00017A801F025FAC8B1179B1B78282B0FD1C1
:108FF0001AAA9D4917A801F02EFA052808D11B9B33
:10900000DDF868A043F0FF4B4BF4E00B00F00FBC21
:10901000DFF86CB24FF0000A00F009BC139B179404
:10902000002B00F00F8400230C9300F002BC049B83
:109030000598002B08BF2B46102D2C46C2EB0909C2
:10904000A8BF10240493FEF7F1FE092C82468B463C
:1090500013DD864B03EBC40353E91223FEF75CFFD9
:10906000064640460F46FEF7E1FE02460B463046F6
:109070003946FEF79FFD82468B460F2D36DCB9F14F
:10908000000F00F0D48324DDB9F1160F07DC774D13
:1090900005EBC90952465B46D9E9000114E0C5F168
:1090A0002503994522DC714CC5F10F0504EBC50180
:1090B000C5EB090552465B46D1E9000104EBC50446
:1090C000FEF72AFFD4E90023FEF726FF82468B46EF
:1090D000ADE319F1160F09DB644DA5EBC909D9E918
:1090E000002350465946FFF741F8EFE72C1B4C444C
:1090F000002C57DD14F00F010AD05C4B03EBC101CB
:1091000052465B46D1E90001FEF706FF82468B46D8
:1091100034F00F0400F0B880B4F59A7F0BDD002422
:10912000254605940494029ADFF850B12223136077
:109130004FF0000A87E14E4E002324115046594655
:1091400098463746012C0BDDE20704D5D6E900230B
:10915000FEF7E2FE012308F1010864100836F1E78A
:109160000BB182468B46ABF1547B07EBC8075246E6
:109170005B46D7E90001FEF7CFFE21F000438B46A6
:109180000A461B0D3B491B058B428246C7D8A1F5F9
:1091900080118B4286BFDFF8ECB04FF0FF3A02F14E
:1091A000547B71E070D0644214F00F020AD02F4B50
:1091B00003EBC20350465946D3E90023FEF7D6FF1E
:1091C00082468B4624115FD01F2C04DD00242546E7
:1091D0000594049430E114F0100F0CBF00236A23AF
:1091E000254E0393504659460023002C09DDE20723
:1091F00004D5D6E90023FEF78FFE0123641008365C
:10920000F3E70BB182468B46039BEBB1CBF30A53DA
:10921000C3F16B03002B594616DD1F2B0EDD342BDB
:10922000DEBF203B4FF0FF3202FA03F34FF0000A9B
:10923000CCBF4FF05C7B03EA010B05E04FF0FF323F
:1092400002FA03F303EA0A0A0022002350465946B1
:10925000FFF7CAF80028B9D118E000BFE4B70D0045
:10926000E7B70D00EDB70D00D0B70D0058B80D00F1
:1092700020B90D000000A07CF0B70D000000F07FC9
:109280000000F8FFFFFFEF7F00230393059B00938F
:10929000049A079902982B4601F0D3FA059000280A
:1092A0003FF43DAFB9F1000FC9F10003A8BF00239F
:1092B0000D93002429EAE97312932546059B029831
:1092C000596801F037FA049000283FF42CAF059B51
:1092D0001A69023203F10C0192000C30FFF724FCF2
:1092E0001AAA19A94BEC10AB0298CDE908AB01F012
:1092F0005CFD189000283FF416AF0121029801F0A0
:109300002BFB054600283FF40EAF199B03991A9ECC
:10931000002BADBF0D9A129ADDF8348002EB0308E2
:10932000B8BFD21AA3EB01033344B549A8BF129AC0
:10933000013B8B42C6F1360680F28A80C91A1F298A
:10934000C8BFB04F4FF00109D4BF09FA01F3FF1AAB
:10935000A6EB0106D9BF0693002709FA07F7CDF857
:10936000189008EB0609039BC84516441E44434663
:10937000A8BF4B46B342A8BF3346002BC2BFC3EBC6
:109380000909F61AC3EB08080D9B002B64D1B9F14B
:10939000000F7ADC129B002B40F08180002E00F33E
:1093A0008880B8F1000F00F38E80049A1899029813
:1093B00001F027FC044600283FF4B5AEC3680793CC
:1093C0000023C360294601F000FC002880F2898058
:1093D000079B002B40F00482BAF1000F40F000829E
:1093E000CBF31303002B40F0FB812BF000431B0D4C
:1093F0001B05B3F1D66F40F2F3816369002B6CD08B
:1094000021460122029801F08FFB2946044601F013
:10941000DCFB002840F3E4812BF00043039A1B0D92
:109420001B05002A00F08C80B3F1D66F00F3888012
:10943000B3F15C7F00F3D681029A22234FF0000A39
:109440004FF0000B1360059B002B40F0DC81EEE138
:1094500001230027069384E729461A46029801F063
:1094600015FB054600283FF45EAE0146189A0298A7
:1094700001F07BFA079000283FF455AE1899029846
:1094800001F08DF9079B189381E74A4618990298D5
:1094900001F04AFB189000287FF47CAF43E6129A53
:1094A0000499029801F0F2FA049000287FF476AF54
:1094B00039E632460499029801F036FB0490002800
:1094C0007FF46FAF2FE629464246029801F02CFB4D
:1094D000054600287FF469AF25E62369012B8FDC60
:1094E0007EE161D1079ACBF3130322B346498B4245
:1094F0005A462ED1039B514663B1444B1340B3F1FE
:10950000D46F07D81B0DC3F16B034FF0FF3000FA87
:1095100003F301E04FF0FF338B421AD13C498A42FA
:1095200002D101333FF4FFAD384B134003F5801BEC
:109530004FF0000A54E163B9BAF1000F09D16BE7AB
:10954000A3F580136FEA135B6FEA0B5B4FF0FF3AF2
:1095500046E117B117EA0B0F02E0069B13EA0A0F68
:1095600000F03E81079B039A5046594653B1FFF7DE
:1095700074FB02460B46DDE90801FEF71BFB824641
:109580008B462DE1FFF769FB02460B46DDE908013A
:10959000FEF70EFB0022002382468B46FEF724FFD7
:1095A00000287FF449AF1BE12946204601F04BFC1F
:1095B00057EC106B00224FF0804310EE100A394632
:1095C000FEF726FF002842D0079B23B14FF000088A
:1095D000DFF8409011E0BAF1000F03D1CBF3130391
:1095E0003BB91BE0BAF1010F03D1BBF1000F3FF40F
:1095F00023AFDFF824904FF000080026054F39E034
:1096000002FCFFFFE2FBFFFFFFFF0F000000F07F07
:10961000FFFFEF7F0000F03F0000F0BF0022984BFB
:1096200030463946FEF7EAFE40B930463946002258
:10963000944BFEF771FC06460F4601E0914F002661
:1096400007F1004314961593DDE9148912E08D4B60
:10965000304639460022FEF75FFC079B06460F4660
:1096600023B901F100430E900F9301E0CDE90E679D
:10967000DDE90E892BF000431B0D1B050693069AAE
:10968000814B9A422BD1DDE90823ABF1547B4BECA3
:1096900010ABCDE90A2301F013FB404653EC102B2D
:1096A0004946FEF739FC52465B46FEF783FA21F045
:1096B00000431B0D754A1B05934282460CD9744B1F
:1096C0000B9A9A4203D10A9B01333FF42CADDFF889
:1096D000C0B14FF0FF3A72E001F1547B38E0039BD8
:1096E00033B3069BB3F1D46F22D85DA3D3E9002333
:1096F00030463946FEF78CFEA8B139463046FEF7B3
:10970000CDFE002808BF0120FEF790FB079B064610
:109710000F4623B901F100431090119301E0CDE908
:109720001067DDE91089069A09F1D663C2EB0309D7
:109730009DED080B01F0C4FA404653EC102B49464E
:10974000FEF7EAFBDDE90823FEF734FA82468B4692
:10975000039BA3BB2BF000431B0D069A1B059A42EB
:10976000D8462CD139463046FEF770FEFEF76EFB28
:109770000B46024639463046FEF71AFA079B064664
:109780000F462BB9BAF1000F02D1CBF3130383B10B
:1097900035A3D3E9002330463946FEF72FFE0028D3
:1097A00031D133A3D3E9002330463946FEF744FED6
:1097B00004E031A3D3E90023FEF720FE18BB18997B
:1097C000029800F0ECFF0499029800F0E8FF2946A7
:1097D000029800F0E4FF2146029800F0E0FF6DE5FA
:1097E000039B83B12B4B0B9300230A93504659469E
:1097F000DDE90A23FEF790FB82468B4619B910B9C2
:10980000029A222313601899029800F0C8FF049965
:10981000029800F0C4FF2946029800F0C0FF0599A5
:10982000029800F0BCFF2146029800F0B8FF139B9D
:1098300013B1139A179B13600C9B1BB152460BF18B
:10984000004307E052465B4604E000252A4601211A
:10985000FFF741BB43EC102B1DB0BDE8F08F00BFFC
:109860000000C0FFFFFFDF419535A094FFFFDF3F01
:1098700035E5AF350000E03F9535A094FFFFCF3FC1
:109880000000F03F0000E03F0000E07FFFFF9F7C12
:10989000FFFFEF7F00005039024B0A46014618686F
:1098A000FFF7FAB9A4E003202DE9F04780464048CD
:1098B000D0F800900F463D4615F8014B09EB040027
:1098C000407800F0080000F0FF0608B12F46F2E7EC
:1098D0002D2C03D1BD1C7C78012603E02B2C04BF6A
:1098E0007C78BD1C13B1102B0AD15BE0302C57D112
:1098F000287800F0DF0058284DD16C78102302350D
:10990000002E14BF4FF0004C6FF0004C0027BCFB42
:10991000F3FA384603FB1ACC09EB040E9EF801E07B
:109920001EF0040F01D0303C0BE01EF0030E1BD0E4
:10993000BEF1010F0CBF4FF0370E4FF0570ECEEBBC
:109940000404A34210DDB7F1FF3F0AD0504506D80A
:1099500001D1644503DC03FB0040012701E04FF027
:10996000FF3715F8014BD7E77B1C0CD1002E4FF0C9
:10997000220314BF4FF000406FF00040C8F80030E1
:109980002AB9BDE8F08706B1404272B107B1691E3D
:109990001160BDE8F0873024002BB1D10823AFE778
:1099A0000A23ADE7302CA3D0AAE7BDE8F08700BFBB
:1099B00040E0032013460A46014602480068FFF7CC
:1099C00073BF00BFA4E003202DE9F04780463C4868
:1099D000D0F800900E46354615F8014B09EB04000F
:1099E000407800F0080000F0FF0708B12E46F2E7CB
:1099F0002D2C03D1B51C7478012703E02B2C04BF58
:109A00007478B51C13B1102B0AD153E0302C4FD110
:109A1000287800F0DF00582845D16C7810230235F3
:109A20004FF0FF3C0026BCFBF3FC03FB0CFA6FEA93
:109A30000A0A304609EB040E9EF801E01EF0040FFE
:109A400001D0303C0BE01EF0030E1AD0BEF1010F26
:109A50000CBF4FF0370E4FF0570ECEEB0404A3426D
:109A60000FDD002E08DB604506D801D1544503DC2C
:109A700003FB0040012601E04FF0FF3615F8014BD3
:109A8000D8E7002E07DA2223C8F800304FF0FF3065
:109A90002AB9BDE8F08707B1404272B106B1691E2C
:109AA0001160BDE8F0873024002BB9D10823B7E757
:109AB0000A23B5E7302CABD0B2E7BDE8F08700BF92
:109AC00040E0032013460A46014602480068FFF7BB
:109AD0007BBF00BFA4E003202DE9F74F044600F050
