:02000004080AE8
:1000000000000A086C7A0A080000060006000501D4
:080010000402DE0500000000FF
:04001800C46E0A08A0
:1000200009480A4908B5884205D0094A824202D0E7
:10003000121A04F045FD0748074A0021121A04F07D
:100040004AFD064808BD00BF00000020EC770A0802
:10005000580200205802002080090020800900205A
:1000600070B503F075F9074B074C1E46E41AA40857
:100070000025A54204D056F8253098470135F8E709
:1000800070BD00BFA4770A08D8770A0801F08CB9C0
:1000900008B500F0E5FFBDE8084003F01BB901F02A
:1000A0009FBF01F0A5BF0078B0FA80F0400970470B
:1000B00001230370704748B1836C3BB1C36C2BB113
:1000C000006DB0FA80F04009404270474FF0FF30B9
:1000D000704773B5024608460C46FFF7ECFF05462D
:1000E00050BB12F0800FCA7814BF002310239A422D
:1000F00022D0CB708E6C01230DF10702F3216078C2
:10010000B04784F8540010B16FF0010514E0E378B3
:10011000E66C03F010029DF80730732123F0100302
:1001200013438DF807300DF1070201236078B047C3
:1001300084F854000028E7D1284602B070BD73B59A
:100140000446FFF7B8FF054688B9A66C01230DF1F8
:100150000702F3216078B04784F8540028B99DF86D
:10016000073003F01003E37001E06FF0010528464B
:1001700002B070BD40B103788B4208D9017013788A
:1001800043F00203137002E04FF0FF30704700208D
:1001900070472DE9F84306461846884691461D46A5
:1001A000FFF789FF0446A8B9AB783BB9294630462A
:1001B000FFF78FFF044608B946F08006AF6C4B4648
:1001C000424631466878B847002885F8540018BF81
:1001D0006FF001042046BDE8F8832DE9F04F1E467C
:1001E0008BB083468A46144600212822684604F0D4
:1001F00072FC3046FFF75FFF0546A8BB631E122B5B
:1002000030D80DF101085F46C1460AF1FF3AA4B2A9
:10021000CBEB07039BB29C4213D9B37843B9314669
:100220003878FFF756FF3B78054603F07F0300E080
:100230003B7808F8013C1AF8013F013708F8023B07
:10024000E6E78DB96300013BF46C9BB24A469DF82A
:1002500000107078A047002886F8540018BF6FF08F
:10026000010501E06FF0030528460BB0BDE8F08FF3
:1002700037B5E0238DF80630B62305468DF80730F4
:10028000FFF719FF0446D8B9AB786BB12B460122B2
:100290000DF107010DF10600FFF79FFF04462B6DDE
:1002A0000A20984734B10BE02846FFF748FF044680
:1002B00030B9EBE7AB781BB92846FFF740FF04469F
:1002C000204603B030BD30B58DB00446FFF7F3FED5
:1002D0000546002840F0D5802046FFF7C9FF0546B7
:1002E000002840F0CE80234601222146D020FFF78F
:1002F00050FF0546002840F0C4802378612B40F071
:10030000BE800146292201A804F0E5FB20468DF8B5
:100310000350FFF7D0FE0546002840F0B280234688
:10032000192201A98920FFF734FF054638B9234671
:1003300010220DF11D01E120FFF72BFF05469DF86E
:1003400026209DF8253043EA0223E3829DF806200B
:100350009DF8053043EA022323839DF807309DF87A
:100360000A20A3769DF8093043EA0223A3839DF86F
:100370000C209DF80B3043EA0223E3839DF80D30F7
:100380009DF8102084F820309DF80F3043EA0223B6
:1003900063849DF812209DF8113043EA0223A38460
:1003A0009DF814309DF8182084F826309DF81330FD
:1003B00084F827309DF8173043EA022323859DF8FF
:1003C0001A209DF8193043EA022363859DF81B30FB
:1003D0009DF81F1084F82C309DF81E3003F00F029A
:1003E00042EA011222819DF81D201B0943EA0213F3
:1003F00063819DF820309DF8282023739DF82130DB
:1004000063739DF82230A3739DF82330E3739DF846
:10041000243023749DF8293063749DF8273043EA13
:10042000022363829DF82A30237515BB23460122DF
:100430000DF103010220FFF7ACFE9DF803300546E5
:10044000C3F3011384F8343098B9234601220DF127
:100450000301FFF79EFE9DF80330054684F8353012
:1004600038B9234601220DF103010420FFF791FE64
:1004700005469DF903301B1184F8363001E06FF01A
:10048000020528460DB030BD37B5742304468DF8FB
:100490000730FFF710FEA0BB0546234601220DF1F1
:1004A00006017420FFF775FEA0B99DF8063013F021
:1004B000030511D023F003038DF8063001222346F3
:1004C0000DF106010DF10700FFF787FE236D0A20ED
:1004D0009847E2E7002DE0D194F844308BB19DF8C5
:1004E000062003F0030322F0030213438DF80630C5
:1004F00038B9234601220DF106010DF10700FFF77F
:100500006CFE03B030BD2DE9F041002388B00646F3
:1005100008460C468DF807300493ADF81430069366
:10052000ADF81C30FFF7C7FD002840F064813207AA
:1005300091F844706AD5012FADF80800ADF80C00B1
:1005400063D15A238DF80830B1F84030C72B05D954
:10055000B3F5C87F28BF4FF4C87300E0C823B4F9CF
:100560001220142102F5163202F29912534393FB22
:10057000F1F30A2103F5481393FBF1F394F91120E9
:1005800094F9140002F544725A4394F90430584324
:100590004FF47A7390FBF3F31B0203EB620194F8C0
:1005A0003430043391FBF3F294F9351083234B4339
:1005B00003F5803392FBF3F32222FA3B5343642288
:1005C000323393FBF2F38DF80C30B4F842308DF8EF
:1005D0000920B3F57C6F0BD200223F2BD1B202F180
:1005E000010201D99B08F8E703EB8113DBB200E0BD
:1005F000FF238DF80D30002384F83C30022223467F
:1006000003A902A8FFF7E9FD00E00120002384F818
:10061000443010B92046FFF737FF06F01005ADB2A1
:1006200005B304F14602072104F13B00FFF7A2FDE8
:1006300030B9234601220DF107017520FFF7A9FD0E
:1006400094F83B3001259B0003F01C029DF8073015
:1006500023F01C03134375228DF807308DF810200A
:100660008DF81830B30622D504F14602082104F1B2
:100670003D00FFF77FFD30B9234601220DF1070150
:100680007020FFF786FD9DF80730702123F00802E7
:1006900094F83D3003F00803134308AA2A440135B7
:1006A0008DF8073002F8101C02F8083CEDB2B107D3
:1006B00033D004F14602052104F13900FFF75AFD59
:1006C00030B9234601220DF107017420FFF761FDC7
:1006D000F20709D59DF8073094F8392003F01F037D
:1006E00043EA42138DF80730B3070BD594F83A303C
:1006F0009B0003F01C029DF8073023F01C031343FA
:100700008DF8073008AB2B44742203F8102C9DF8A9
:100710000720013503F8082CEDB2710722D504F14A
:100720004602052104F13800FFF724FD30B92346C5
:1007300001220DF107017220FFF72BFD9DF8073014
:10074000722123F0070294F8383003F007031343B3
:1007500008AA2A4401358DF8073002F8101C02F867
:10076000083CEDB216F0C00F3CD004F146084246FA
:10077000012104F13E00FFF7FDFC68B942460A2161
:1007800004F13C00FFF7F6FC30B9234601220DF1DD
:1007900007017120FFF7FDFC72060BD594F83E307F
:1007A0001B0103F010029DF8073023F010031343E0
:1007B0008DF8073033060AD59DF8073023F00F0275
:1007C00094F83C3003F00F0313438DF8073008AB67
:1007D0002B44712203F8102C9DF80720013503F8F3
:1007E000082CEDB228B923462A4606A904A8FFF72B
:1007F000F4FC84F8447008B0BDE8F08113B5184BE0
:10080000044618689B8802AAADF8043091F8393084
:100810000090134491F83A2002A8024412F8082CE0
:1008200013F8083C134491F83820024412F8082CBD
:10083000134440F2AB72534303F595534FF47A726D
:100840001933B3FBF2F301339BB2238091F83E20BE
:100850001AB1B1F842201344238002B010BD00BF8A
:10086000D86E0A082DE9F04F804689B008460C463C
:10087000FFF721FC0546002840F0678104AF0146E0
:100880000F22384604F027F92046FFF714FC0546EE
:100890000A26002D40F0538123460F2239461D20A1
:1008A000FFF777FC05469DF810009DF81EE000F06C
:1008B0000F0388F801309DF8113020F07F0088F890
:1008C00002309DF812309DF8139000939DF8183077
:1008D0009DF814C001939DF819309DF815B002934E
:1008E0009DF81D309DF8161003934FFA8EF303F018
:1008F000200A40EA0A0003F01003184340B200281F
:100900009DF8172088F8000080F21681120942EA4B
:10091000011141EA0B3BE18AB4F918004900C1EB2F
:10092000DB010A46CB175B104FEA320202FB03F6EB
:10093000A2FB02234FEA123A94F91A2003EB460372
:100940004AEA035A4FEA233B1301DF170AFB07F673
:1009500080FB010103FB0B66AAFB0323C00A33449F
:10096000920B40EA415042EA83428318236303EB2F
:10097000830380331B12A8F80430236B94F92600FC
:100980005B10A3F57A439A105243D1124843B4F94D
:10099000241052135943490001EBA001B4F91E0081
:1009A0004FEA1C1C434394F920004CEA091940010A
:1009B0004243D21002EB63039B14A28B03F5004366
:1009C0005343009ADB1349EA0239B4F92220C9F5EE
:1009D0008019120402EBA10140F63542A9EB213146
:1009E0005143B1FBF3F35B00D9104943B4F92A201A
:1009F000B4F9280049134A43991041431E12491380
:100A000001EB223106FB06F2564394F82C20724388
:100A100001EB624294F9271002EBC11203EB22139F
:100A2000C8F80830236B94F90E1003EB830380336E
:100A30001B125943642291FBF2F194F90D005943C2
:100A40005843891190FBF2F091FBF2F16789014460
:100A500001F58041794301988F120299268941EA74
:100A6000002094F90C10A0EB0616594391FBF2F10B
:100A7000A6EB610000FB07F194F910000EF00F06E1
:100A8000434393FBF2F240F23C50E37B4FEA9E1E5D
:100A900002EBC3128B135B4312119B12534301EB06
:100AA00063034FF47A729B1253432A4A1B1323EABF
:100AB000E3739342D4BFC8F80C30C8F80C2094F903
:100AC000363005220021C3FB0201234B53F8267068
:100AD000A0FB072307FB0133100C40EA0340191465
:100AE000039B1E4F4EEA830E4FEACE3257F826E0A4
:100AF00012F17F42AEFB00670EFB01774FF000035F
:100B000043F1FF3312184B41700A40EAC750791283
:100B10005F104FEA32068019794103F0F7FCC8F8FC
:100B2000100095B998F90030002BBABF012384F862
:100B3000453084F8455008E0236D0A209847013E6F
:100B400016F0FF067FF4A5AE0225284609B0BDE8E1
:100B5000F08F00BFA08601000000002040000020B0
:100B600008B5044902F0F7F818B1034B03221A70D4
:100B7000012008BD69720A08C502002010B50446AC
:100B8000006808B101F034FA204610BD37B50546BB
:100B90009DF8184023438DF800303C2301F0FEFB04
:100BA000284603B030BD00002DE9F743354C9622AE
:100BB0004FF4A071204600F03BFF204600F0C4FE39
:100BC000206802F099FF304E304AC6E90001CDE9B5
:100BD000000110212E4801F023FAA06802F08CFFDA
:100BE0002C4DCDE90001C5E900012B4A10212B480D
:100BF00001F016FA606802F07FFF0022284B03F034
:100C0000F9F8284B284AC3E90001CDE90001102179
:100C1000264801F005FA264B186802F06DFFC0CE99
:100C200032463B468046894603F04AFA10B1214BD2
:100C300001221A70204B186802F05EFF02460B4634
:100C40003046394603F03CFA10B11C4B01221A70B1
:100C50001B4B186802F050FFD5E9002303F030FA6F
:100C600010B1184B01221A7032463B4640464946A5
:100C700003F026FA10B10F4B01221A70012003B0C5
:100C8000BDE8F08318030020F80200201E6F0A0858
:100C90006002002098030020266F0A080803002045
:100CA00000005940C80200202E6F0A08D20200201E
:100CB0005C0100200003002054010020D10200202C
:100CC00064010020C70200202DE9D04301F000F9A3
:100CD00040F2E7364FF496740027002000F03CFF06
:100CE00080464FF00009002000F036FFB0EB08000E
:100CF00061EB09018F4208BF864205D301F0F0F88D
:100D000010B901F0DDF8EEE701F0EAF818B1BDE83E
:100D1000D04301F0E5B800F007FF034B186001F085
:100D2000CFF8013CF3D0D8E76C08002010B584B2AE
:100D30000121204602F06BFB4FF47A7001F088F934
:100D40002046002102F063FBBDE810404FF47A70AA
:100D500001F07EB908B500F0E7FE044B1B68C01A2D
:100D6000B0F57A7F34BF0020012008BD9003002039
:100D700008B5FFF7EFFF18B1BDE80840FFF7EABF7D
:100D800001F09EF8F5E738B5046805467CB1636864
:100D9000013B63605BB9236820469B689847A36862
:100DA000013BA3601BB923682046DB6898472846AF
:100DB00038BD0000F0B585B0084602AF0E4603F01E
:100DC000E8FE00F1080323F007036D46ADEB030DC9
:100DD00002AC421C3146204603F0F8FE9DF8086044
:100DE0004EB901F07DF8002833D01C4B1C4A1B780B
:100DF0008DF8006026E0204603F053FDC838012836
:100E000017D801F06DF860B1144B00221B783846FA
:100E10008DF800201349144AFFF7B8FE381DFFF77C
:100E2000B2FF00F081FE114B00221860104B1A70C7
:100E30000FE001F055F860B1084B00221B788DF8E7
:100E40000020224638460B49FFF7A0FE381DFFF769
:100E50009AFFAD460C37BD46F0BD00BF75020020BD
:100E6000876F0A08AE6F0A089C6F0A08900300207B
:100E7000580100208F6F0A0870B5314B86B00021F1
:100E8000186803F011FB00262E4C28B12E4B31467A
:100E9000186803F009FBD8B90520FFF747FF2B4B73
:100EA0004021D3E900232A48CDE90023294A01F053
:100EB000B7F8294B00221B7828498DF8002004A898
:100EC000234AFFF763FE05A8FFF75DFF01232370A8
:100ED000234B1A781D4612B9224B1B7803B3072007
:100EE000FFF724FF204B4021D3E90023CDE9022363
:100EF000164B1748D3E90023CDE900231B4A01F024
:100F00008FF8154B00221B7814498DF8002004A897
:100F10000F4AFFF73BFE05A8FFF735FF01232370BB
:100F200001F0E2FF124B186023782BB10D4A002329
:100F30002B701370044B1E60012006B070BD00BF03
:100F40005C010020C402002054010020F8020020AF
:100F500084020020B46F0A087502002006700A0897
:100F6000C6020020C70200209803002012700A0861
:100F70005C02002030B5134985B0054601F0EBFE58
:100F8000044648B1104B01241C70104B00221B7802
:100F90008DF800200E4A0BE00E49284601F0DBFEDA
:100FA00070B1094B0C4A1C70084B1B788DF800403F
:100FB0000A4902A8FFF7EAFD03A8FFF7E4FE0120B3
:100FC00005B030BD69720A08F002002075020020E9
:100FD00080700A08F9710A0891700A08A1700A085D
:100FE00030B5184D18492A781A2303FB0212174C02
:100FF0008FB02078009203FB0013154A282104A823
:1010000001F00EF82B78237000F06AFF90B1FFF723
:10101000AFFE104B00221B780F498DF8002002A86C
:1010200004AAFFF7B3FD03A8FFF7ADFE00F07CFDB7
:101030000A4B186002F05AF804A901F0F6FC0FB050
:1010400030BD00BFC50200208000002074020020D7
:10105000A6700A0875020020B4700A0890030020E8
:101060007FB56C4C2378013B052B00F2D180DFE883
:1010700013F08B00060030001F00CF005D00664BB0
:101080001B782BB1654B1B78022B01D0FFF7A8FF13
:1010900001F020FF624B634D1B78984240F09E8028
:1010A00001F022FF2B68C01A092800F397809AE00C
:1010B000594B1B782BB1594B1B78042B01D0FFF7F0
:1010C0008FFFFFF771FD10B1FFF7D6FE3AE0012365
:1010D0009DE0514B1A781D462AB1504B1B78032BCB
:1010E00001D0FFF77DFFFFF75FFD0646E0B9012362
:1010F000237000F019FD4C4B18602B78002B00F08A
:101100008780FFF735FE494B494A1B78494902A8B9
:101110008DF80060FFF73AFD03A8FFF734FE00F0FA
:1011200003FD454B186073E0052370E03A4B1B78D4
:101130002BB13A4B1B78062B01D0FFF751FF3F4BE9
:101140001B780BB9022362E000F0EEFC3C4B1B68FD
:10115000C01A4AF6C87398425AD900F0E5FC324DDD
:10116000324B00221B78286036498DF8002002A8F7
:10117000354AFFF70BFD03A8FFF705FE0123237097
:1011800000F0D2FC286043E0234B1B782BB1234BAB
:101190001B78012B01D0FFF723FF00F0C5FC224B89
:1011A0001B6803F5922303F57873834230D200F075
:1011B00097FE60B11D4B00221B7802A88DF800201D
:1011C0001C49224AFFF7E2FC03A8FFF7DCFD4FF4BD
:1011D000FA6000F03DFF01F0F7FD19E001F084FE38
:1011E0000323286013E01A4B1B7843B9194B1B7873
:1011F0002BB9194B1B7813B9184B1B7843B101F06D
:1012000073FE174B1B68C01A0A2801DD04232370E4
:1012100004B070BDC5020020F0020020740200205E
:10122000D002002078020020040300207502002074
:10123000C5700A08AE6F0A0890030020580100200C
:1012400070020020DF700A08FE720A08F8700A08AF
:10125000D102002000030020C6020020C7020020A7
:101260005C02002010B588B0044601F09EFD0D4BD5
:101270001860FFF77DFD214604A801F061FD0A4BCF
:1012800000221B7809498DF8002002A8049AFFF774
:101290007DFC03A8FFF777FD04A801F0E8FC01201E
:1012A00008B010BD54010020750200200C710A081E
:1012B00010B588B0044601F078FD0D4B1860FFF7BB
:1012C00057FD214604A801F03BFD0A4B00221B7884
:1012D00009498DF8002002A8049AFFF757FC03A8DB
:1012E000FFF751FD04A801F0C2FC012008B010BDB9
:1012F0005C0100207502002020710A0810B588B03A
:10130000044601F052FD0D4B1860FFF731FD2146F8
:1013100004A801F015FD0A4B00221B7809498DF83D
:10132000002002A8049AFFF731FC03A8FFF72BFD69
:1013300004A801F09CFC012008B010BD6001002051
:10134000750200200C710A0810B588B0044601F03F
:101350002CFD0D4B1860FFF70BFD214604A801F092
:10136000EFFC0A4B00221B7809498DF8002002A8E7
:10137000049AFFF70BFC03A8FFF705FD04A801F092
:1013800076FC012008B010BD640100207502002029
:1013900020710A080023042200F082BD02460148A1
:1013A00000F0D4BE21210A0870B5B8B008AA1646CC
:1013B000564B03F11005144618685968083303C4E6
:1013C000AB422246F7D119889B782D222180A37049
:1013D00000210DF133004E4C03F07DFB022301216F
:1013E0000720237002F002F80121052001F0FEFF22
:1013F00004A800F07DFD002500237D2218A904A883
:1014000001F0BBFC2B462A4642490195009518A8DD
:1014100000F07EFD40492B46042209683F4800F059
:101420003FFD3F493F48FFF7B5FF3F493F48FFF7C2
:10143000B1FF3F493F48FFF7ADFF3F493F48FFF746
:10144000ADFF3F493F48FFF7A9FF3F493F48FFF73E
:10145000A5FF3F493F48FFF7A1FF3F493F48FFF73E
:101460009DFF3F493F48FFF799FF77213E4800F035
:10147000EFF960B900F058FB3C4D3D49286030461B
:1014800003F064FB0123237000F04EFB286004216D
:10149000354800F0DBFA0221334800F0E4FA03217A
:1014A000314800F0EDFA02212F4800F0F6FA9622BA
:1014B0004FF4A0712C4800F0BBFAFFF775FBFFF763
:1014C00003FC48B90123237000F02EFB274B294968
:1014D0001860304603F03AFB274B1B7863B1274B6B
:1014E00000221B7802A88DF8002025493246FFF71C
:1014F0004DFB03A8FFF747FC00F016FB214B1860DB
:1015000004A801F0B4FB38B070BD00BFDE6E0A085D
:10151000C5020020B50D0A085001002034710A08E8
:10152000600200203C710A080803002048710A0884
:10153000D202002051710A08610B0A085A710A0888
:10154000750F0A0866710A0865120A0873710A089D
:10155000B1120A0884710A0849130A0895710A0829
:10156000FD120A08AA710A081803002004030020CB
:10157000BE710A08DC710A08F00200207502002022
:10158000EE710A0890030020F8B5184B01261E7072
:1015900000F0EAFA4FF0FF31154800F043F94FF63A
:1015A000FF73144D0024144F6B812C60AC80AC7120
:1015B0002C81022000F030FC3A461049284601F008
:1015C000CBFF0F4D2146304600F036FC314604205B
:1015D00000F092FA2146284601F06EF83A46284675
:1015E000BDE8F840074901F0B7BF00BF7502002011
:1015F00018030020E4020020580200207D0B0A0896
:101600007C020020D7260A0800F022BDF8B5074664
:1016100014461D460E4601F041FF394601F0D9F847
:1016200001F03CFF036831469B6898472544AC4273
:1016300007D001F033FF036814F8011B9B6898473B
:10164000F5E701F02BFF01F0CCF80020F8BD000019
:101650002DE9F0471B4D804695F90030013306D146
:1016600001F05AFF4146BDE8F04701F0EBBADFF860
:101670005890DFF858A00726002495F900000021B3
:1016800080B201F0C4FE012799F9000007FA06F1C3
:1016900001EA080180B201F0BAFE95F9000039466E
:1016A00080B201F0B4FE9AF90000640080B2E4B2A6
:1016B00001F0C6FE00B13C4316F1FF36DDD22046F4
:1016C000BDE8F087A1030020A2030020A0030020B2
:1016D0002DE9F0418846002115461E46074601F0D7
:1016E00096FE194B93F900201C46013212D101F0ED
:1016F00013FF01F005FA01F00FFF402101F07EFA1F
:1017000001F00AFF012101F00BFA01F005FF0021B1
:1017100001F016FA4046FFF79BFF2E44B54204D075
:1017200015F8010BFFF794FFF8E794F90030013347
:1017300003D101F0F1FE01F013FA3846012101F066
:1017400066FE0020BDE8F081A10300202DE9F041F4
:101750008846002115461E46074601F058FE1A4BE2
:1017600093F900201C46013212D101F0D5FE01F0A0
:10177000C7F901F0D1FE402101F040FA01F0CCFEA2
:10178000012101F0CDF901F0C7FE002101F0D8F9E7
:101790004046FFF75DFF2E44B54205D00020FFF71D
:1017A00057FF05F8010BF7E794F90030013303D137
:1017B00001F0B2FE01F0D4F93846012101F027FE14
:1017C0000020BDE8F08100BFA1030020F8B5064667
:1017D00015461C460F4601F061FE314600F0F9FF48
:1017E00001F05CFE036839469B68984701F056FE9D
:1017F00000F0F7FF01F052FEE2B2314600F0E6FFE2
:1018000084420AD12C44A54209D001F047FE036866
:101810005B69984705F8010BF5E70120F8BD00204A
:10182000F8BD000001770749FF220A7006490A70D7
:1018300006490A7000220275C274827442740274EE
:10184000704700BFA2030020A0030020A1030020D6
:1018500038B50446617590F91C000D46421C0CD148
:1018600001F01CFE00F07EFF012384F822302E4B95
:1018700084F82150A3662D4B2EE0012180B201F0A7
:10188000C6FD94F91C00012180B201F0AFFD284B88
:1018900093F90000431C04D101F03EFE01F030F941
:1018A00011E0012180B201F0A1FD224B012193F949
:1018B000000080B201F09AFD1F4B002193F9000057
:1018C00080B201F093FD237F84F82130002384F857
:1018D00022301A4BA3661A4BE3661A4B04F1200020
:1018E0002367FEF7F0FCE0B9042384F859300223A3
:1018F00084F8583084F85B304FF4A0730120032241
:10190000A4F8603096236074A07484F85A20E074C0
:101910002074A4F8623084F85E00207584F86400B6
:1019200038BD002038BD00BFCD170A080D160A08C3
:10193000A1030020A2030020A00300204D170A08E5
:10194000D1160A0809160A0830B50446012380F8A2
:101950006430A37C87B0407C0BB140F00400E37C92
:101960000BB140F00200237C0BB140F01000237D4E
:101970000BB140F0C80004F120052946FEF7C3FD75
:1019800008B100254BE02846FEF77EFD0028F8D17F
:1019900029460DF10200FEF731FFBDF802004000BC
:1019A00000F056FB294601A8FEF75CFF0028E8D1AD
:1019B000637C5BB1BDF9080002F08CF80022194B82
:1019C00002F018FA02F0CEFB206001E0164B236013
:1019D000A37C53B1049802F06DF80022134B02F07F
:1019E00009FA02F0BFFBA06001E00F4BA360E37CAB
:1019F00023B1039802F0BCFC606001E00A4B636015
:101A0000257D5DB19DF80430DB0604D5059802F014
:101A1000AFFCE06003E00023E36000E0012528461E
:101A200007B030BD000059400000C07F00408F402B
:101A3000A0F86010A0F8622001B10AB9002300E00C
:101A4000012380F85E3003750120704705290346A5
:101A500007D880F85910012009B959747047587493
:101A60007047002070470529034607D880F85810B2
:101A7000012009B999747047987470470020704725
:101A80000529034607D880F85A10012009B9D974EE
:101A90007047D8747047002070470729034607D85D
:101AA00080F85B10012009B91974704718747047E9
:101AB0000020704700F058B808B5024B1B685B6CFB
:101AC000019308BDD001060808B5024B1B689B6C4A
:101AD000019308BDD001060808B5024B1B68DB6CFA
:101AE000019308BDD001060808B5024B1B685B6D69
:101AF000019308BDD001060808B5024B1B685B6E58
:101B0000019308BDB801060808B5024B1B689B6E1F
:101B1000019308BDB801060808B5024B1B685B6855
:101B2000019308BD9C01060808B5024B1B685B6960
:101B3000019308BD9C01060808B5024B1B68DB69D0
:101B4000019308BD9C01060808B5024B1B689B6DFC
:101B5000019308BD9C01060808B5024B1B68DB6DAC
:101B6000019308BD9C01060808B5024B1B681B6861
:101B7000019308BDB001060808B5024B1B689B68BD
:101B8000019308BDB001060808B5024B1B68DB686D
:101B9000019308BDB001060808B5024B1B681B691C
:101BA000019308BDB001060808B5024B1B685B69CC
:101BB000019308BDB001060808B5024B1B68DB6C39
:101BC000019308BDAC01060808B5024B1B689B6D6C
:101BD000019308BDAC01060808B5024B1B68DB6D1C
:101BE000019308BDAC01060808B5024B1B681B6ECB
:101BF000019308BDAC01060808B5024B1B685B6E7B
:101C0000019308BDAC01060808B5024B1B689B6E2A
:101C1000019308BDAC01060808B5024B1B68DB6EDA
:101C2000019308BDAC01060808B5024B1B681B6F89
:101C3000019308BDAC01060808B5024B1B685B6F39
:101C4000019308BDAC01060808B5034B1B68D3F827
:101C50008030019308BD0000AC01060808B5034BB5
:101C60001B68D3F88830019308BD0000AC0106085A
:101C700008B5034B1B68D3F88C30019308BD0000F6
:101C8000AC01060808B5034B1B68D3F890300193EC
:101C900008BD0000AC01060808B5024B1B681B68B4
:101CA000019308BDB401060808B5024B1B689B6888
:101CB000019308BDB401060808B5024B1B68DB6838
:101CC000019308BDB401060808B5024B1B681B69E7
:101CD000019308BDB401060808B5024B1B685B6997
:101CE000019308BDB401060808B5024B1B68DB6907
:101CF000019308BDB401060808B5024B1B681B6AB6
:101D0000019308BDB401060808B5024B1B685B6A65
:101D1000019308BDB401060808B5024B1B689B6916
:101D2000019308BDC401060808B5024B1B685B6A35
:101D3000019308BDC401060808B5024B1B689B6AE5
:101D4000019308BDC401060808B5024B1B68DB6A95
:101D5000019308BDC401060808B5024B1B681B6B44
:101D6000019308BDC401060808B5024B1B685B6BF4
:101D7000019308BDC401060808B5024B1B689B6BA4
:101D8000019308BDC401060808B5024B1B681B6C13
:101D9000019308BDC401060808B5024B1B681B6807
:101DA000019308BDD801060808B5024B1B681B69E2
:101DB000019308BDD801060808B5024B1B685B6992
:101DC000019308BDD801060808B5024B1B689B6942
:101DD000019308BDD801060808B5024B1B68DB69F2
:101DE000019308BDD801060808B5024B1B681B6AA1
:101DF000019308BDD801060808B5024B1B689B6C0F
:101E0000019308BDC001060808B5024B1B681B689A
:101E1000019308BDA401060808B5024B1B685B6866
:101E2000019308BDA401060808B5024B1B685B6955
:101E3000019308BDA401060808B5024B1B68DB6AC4
:101E4000019308BDA401060808B5024B1B68DB6CB2
:101E5000019308BDA401060808B5024B1B685B6D21
:101E6000019308BDA401060808B5024B1B689B6DD1
:101E7000019308BDA401060808B5034B1B68D3F8FD
:101E80009030019308BD0000A401060808B5034B7B
:101E90001B68D3F89C30019308BD0000A40106081C
:101EA00008B5024B1B681B68019308BDCC010608EE
:101EB00008B5024B1B685B68019308BDCC0106089E
:101EC00008B5024B1B689B68019308BDCC0106084E
:101ED00008B5024B1B68DB68019308BDCC010608FE
:101EE00008B5024B1B685B69019308BDCC0106086D
:101EF00008B5024B1B68DB69019308BDCC010608DD
:101F000008B5024B1B681B6A019308BDCC0106088B
:101F100008B5024B1B685B6A019308BDCC0106083B
:101F200008B5024B1B681B6B019308BDCC0106086A
:101F300008B5024B1B68DB6B019308BDCC0106089A
:101F400008B5024B1B685B68019308BDC801060811
:101F500008B5024B1B689B68019308BDC8010608C1
:101F600008B5024B1B68DB68019308BDC801060871
:101F700008B5024B1B681B69019308BDC801060820
:101F800008B5024B1B685B69019308BDC8010608D0
:101F900008B5024B1B689B69019308BDC801060880
:101FA00008B5024B1B68DB69019308BDC801060830
:101FB00008B5024B1B681B6A019308BDC8010608DF
:101FC00008B5024B1B681B6B019308BDC8010608CE
:101FD00008B5024B1B685B6B019308BDC80106087E
:101FE00008B5024B1B681B68019308BDA0010608D9
:101FF00008B5024B1B685B68019308BDA001060889
:1020000008B5024B1B689B68019308BDA001060838
:1020100008B5024B1B689B69019308BDA001060827
:1020200008B5024B1B68DB69019308BDA0010608D7
:1020300008B5024B1B68DB6A019308BDA0010608C6
:1020400008B5024B1B681B6B019308BDA001060875
:102050000021FFF7E9BE10B5836804460BB901F013
:102060009CFAC3689847A3681BB103222146204607
:1020700098472046BDE81040102101F072BA704721
:102080000020704710B50446102101F06AFA20467E
:1020900010BD08B508B1FFF7F5FF08BD10B583689E
:1020A000044613B1032201469847204610BD002282
:1020B00002604FF69C72828010B5B1F904408480B2
:1020C0008A8002680C6804600A6010BD10B504467E
:1020D0000068FFF78DFF204610BD38B5C468F4B125
:1020E0002378022B03D104F10C00FFF7EFFF6568A2
:1020F00035B12846FFF7D2FF1021284601F031FA0A
:10210000A56835B12846FFF7C9FF1021284601F020
:1021100028FA2046BDE83840142101F022BA38BD23
:1021200010B588B00446684600F0E8FD694604A88A
:1021300000F006FE04A8A047044604A800F097FD9E
:10214000684600F094FD204608B010BDF0B5074683
:102150000E46154685B0102422460021684602F03E
:10216000BAFC002269461046ADF80040029703967B
:102170000195FFF79DFE05B0F0BD13B5044691E84B
:10218000050000234B600B602060626001A8019392
:102190000093FEF7F8FD204602B010BD0B68036007
:1021A00013B15A6801325A607047F7B50C460646BB
:1021B0000F4654F8043B02AD45F8083D214601A8FE
:1021C000FFF7ECFF29463046FFF7D7FF01A8FEF7DF
:1021D000DAFD2046FEF7D7FD3846082101F0C1F9A7
:1021E000304603B0F0BD13B50B46044603C88DE876
:1021F000030093E8030084E803009DE8030083E8FC
:10220000030002B010BD000038B50023044603608F
:1022100010200D46FDF743FF28B101234360836082
:10222000024BC56003602060204638BD04720A0876
:10223000826810B50AB901F0B0F9C368BDE8104072
:10224000184708B5006800F11001FFF7F1FF08BD5D
:10225000826810B50AB901F0A0F9C368BDE8104062
:10226000184708B5006800F11001FFF7F1FF08BD3D
:1022700038B5002383608B6804460D462BB10222DB
:102280009847EB68E360AB68A360204638BD000068
:10229000F0B589B004686846FFF709FF4FF0020205
:1022A00000238DF80830D4E84F3F002B03D1C4E859
:1022B000412F0029F7D102D08DF8083063E014F1E6
:1022C0000C0503D069462846FFF7F1FEBFF35F8F88
:1022D00001236370BFF35F8F04F10803002053E80C
:1022E000006F43E80002002AF9D1BFF35F8F002E90
:1022F00049D0FFF7A9FD20B129463046FFF798FFE6
:102300003AE0314602A8FFF7B3FFE068B4F9105095
:1023100008B102F023FC06901020ADF81C50FDF728
:10232000BEFE0546E8B1002787601820FDF7B7FE1E
:10233000044688B10146876002A8FFF754FF049B5A
:10234000A268A360059B0492E26806A9E36004F119
:1023500010000592FFF7ABFE0D4B2C60EB600D4BB0
:10236000AB6006A8FFF7B2FE02A8FFF797FE0022B7
:1023700029460948FFF770FD3046FFF78FFE102110
:10238000304601F0EEF86846FFF7A0FE09B0F0BD58
:1023900043220A08B9240A0857200A082DE9F04FF9
:1023A0008BB006460F46904699469DF850A0FFF721
:1023B00097FD07AD834630BB4FF62E73059005A9F8
:1023C0002846ADF81830FFF772FE1420FDF767FEBF
:1023D000044658B10223037001234370C0F804B0CF
:1023E000C0F808B029460C30FFF761FE30462146A0
:1023F00040F8044BFFF708FF2846FFF767FE05A8E3
:10240000FFF764FE52E000240C2314206C60AC60E3
:102410000793FDF744FE014618B104704470446010
:10242000846004A80391FFF7EFFE224B0820089375
:10243000FDF735FE044628B1039B04A940F8043B90
:10244000FFF7ACFE00955FFA8AF34A4641463846EC
:102450000994FFF755FD20B9039B5B7803F0FF0259
:1024600083B1039B04A906A80593FFF797FE05A96E
:102470003046FFF782FE06A8FEF785FC04A8FEF7AB
:1024800082FC13E04FF69C7305A903A80592ADF8F2
:102490001830FFF7FDFE05A8FFF718FE05A80999FB
:1024A000FFF783FE06A8FEF76EFCDAE730460BB0B6
:1024B000BDE8F08F29260A08022AF8B5044606D09E
:1024C000032A17D0012A22D10B6803601FE01820CD
:1024D0000E68FDF7E4FD054650B13146FFF7C8FE32
:1024E0003069B6F9147008B102F038FB2861AF8288
:1024F00025600CE0046854B104F11000FFF7E6FD1C
:102500002046FFF7CBFD1821204601F02AF80020D5
:10251000F8BD38B5002383608B6804460D462BB1A7
:1025200002229847EB68E360AB68A360204638BDA1
:10253000022A70B5044606D0032A11D0012A18D108
:102540000B68036015E014200E68FDF7A8FD054632
:1025500020B13146FFF7DDFF337C2B74256008E0A6
:10256000046834B12046FFF799FD1421204600F09D
:10257000F8FF002070BD0000F0B50C46BFF35F8F80
:1025800087B0002350E8006F40E80032002AF9D1FC
:10259000BFF35F8F002E3FD01846FFF755FC07466C
:1025A00020B121463046FFF753FE2EE0314601A808
:1025B000FFF7AFFF237810208DF81430FDF76FFD83
:1025C0000546D0B187601420FDF769FD044678B157
:1025D0008760014601A8FFF706FE039BA268A3607F
:1025E000049B0392E268E3609DF814300492237424
:1025F0000A4B2C60EB600A4BAB6001A8FFF74EFD65
:10260000002229460748FFF727FC3046FFF746FD22
:102610001021304600F0A5FF07B0F0BD63220A0884
:1026200031250A0857200A0830B5044685B00D4602
:1026300068461146FFF7B9FD7CB124B228460DB1BA
:1026400002F08CFA029002A96846ADF80C40FFF740
:102650001FFE02A8FFF73AFD1DE04FF001020098AF
:102660008DF80840D0E84F3FA34203D1C0E8412F86
:102670000029F7D102D08DF808300CE010F10C01E0
:102680004FF0010318BF0373BFF35F8F043000F8EE
:10269000033CFFF771FF01A8FEF775FB05B030BDE5
:1026A000006800F0A5B810B50446016002710AB1D7
:1026B000FFF7F6FF204610BD38B504460D4600F082
:1026C000EDFE2A4601462046FFF7EDFF204638BDC5
:1026D000006800F096B810B5037904460BB1FFF717
:1026E000F7FF204610BD7047F8B5064615460C4664
:1026F0008F18BC4206D0336814F8011B9B68304623
:102700009847F6E72846F8BD0022007CFFF76CBA30
:102710000021007CFFF770BA0021007CFFF774BA3B
:102720000021007CFFF778BA0021007CFFF77CBA1B
:1027300010B50446142100F014FF204610BD00001F
:1027400010B50446002363604FF47A73A360044B12
:102750002174084623601146FFF776FA204610BD23
:1027600020720A0800231A461946007CFFF724BA93
:1027700070B50C46064686B014252A46002101A8ED
:1027800002F0A9F9237800228DF80830636801A9C6
:102790000393E368307C0493237AADF804500593E7
:1027A000FFF770FA06B070BD1FB500338DF800104A
:1027B0004FF06401039118BF0123694601928DF81F
:1027C0000830FFF7D5FF05B05DF804FB0123FFF7E4
:1027D000EBBF0022007CFFF7F7B90022007CFFF777
:1027E000FBB90121FFF7F9BF0021007CFFF724BAF4
:1027F00008B50021007CFFF731FAB0FA80F04009FB
:1028000008BD08B50021007CFFF732FAB0FA80F06D
:10281000400908BD704710B50446182100F0A1FE1C
:10282000204610BDF8B50F4600F10806051D00242E
:1028300016F8011D0A22384600F001F9AE420444A0
:1028400007D0002CF4D02E21384600F0DFF80444E5
:10285000EEE72046F8BD000010B50446044B1122F7
:1028600040F8043B002102F036F9204610BD00BFBD
:1028700048720A080346074A10B543F8042B01F1D1
:10288000100251F8044B914243F8044BF9D10A78F5
:102890001A7010BD48720A08024A416002600422A0
:1028A0000275704748720A0810B59DF8084044EA5E
:1028B000032343EA024242EA0161042341600375B3
:1028C00010BD000037B5044D05609DF81850009507
:1028D000FFF7EAFF03B030BD48720A080068FFF74F
:1028E000FBB80000014A024B1A607047CA720A081E
:1028F000A403002000231A464068FFF721BB0022F2
:1029000002214068FFF72CBB002211464068FFF708
:102910001FBB002211464068FFF72ABB00231A465E
:1029200019464068FFF72CBB00231A461946406839
:10293000FFF72EBB002281F001014068FFF730BB9A
:1029400000224068FFF73CBB002211464068FFF7B9
:102950003FBB002211464068FFF72ABB70B5164600
:102960008EB0044608A8FFF777FF1122002103A8C4
:1029700002F0B1F8304602F00CF900250A4B009540
:1029800081B25B6803AA3046FFF736FA20B12946C8
:102990002046FFF781FF03E003A92046FFF76AFF07
:1029A00020460EB070BD00BF5C080020024B034AF9
:1029B0001A6000225A607047A803002040730A087A
:1029C000F8B506460D468F180024BD420CD033687A
:1029D00015F8011B9B6830469847002801DB04442A
:1029E000F3E7002C08BF04462046F8BD70B5054645
:1029F0000C46084649B102F0CCF82B680246214645
:102A00002846BDE87040DB68184770BD03689B68C6
:102A1000184738B50D210546FFF7F8FF0A2104468F
:102A20002846FFF7F3FF204438BD38B50546FFF7C9
:102A3000DDFF04462846FFF7ECFF204438BD012A9D
:102A400098BF0A2230B50B468BB000218DF82410B8
:102A50000DF12304B3FBF2F505FB1233DBB2092BB6
:102A600094BF30333733DBB2214604F801392B46AB
:102A7000002DEFD1FFF7BAFF0BB030BD10B5044603
:102A8000FFF70CFB204610BD034800238360034A78
:102A9000034900F061BD00BFB003002058020020D0
:102AA0007D2A0A0810B5044B04460360C06808B1CB
:102AB000FFF70AF8204610BD74730A0810B50446E3
:102AC000FFF7F0FF2046102100F04BFD204610BD1F
:102AD0000068FFF709B8000070B504460E46074BC2
:102AE0000025036040F80C5FFEF7E6FF30462671D4
:102AF000FFF7FAF8A560204670BD00BF74730A089E
:102B000038B5054600F10C042046FFF7E7FE2879AA
:102B10004FF6FF71FFF7C0F82046FFF7D9FF38BD29
:102B200070B505460E4600F10C042046FFF7D6FEB0
:102B300028793146FFF7B8F82046FFF7C9FF70BD86
:102B400070B505460E4600F10C042046FFF7C6FEA0
:102B500028793146FFF7B0F82046FFF7B9FF70BD7E
:102B600008B50C30FFF7B4FF08BD0000400830B5D1
:102B7000186000241868E5B2884206D90134082C90
:102B800002D040081860F5E70725024B5B5D137023
:102B900030BD00BF7C730A082DE9F041054600F105
:102BA0000C0688B0002402FB01F730460294FFF7C0
:102BB00095FE95F804802146142203A801F08BFFAE
:102BC0000B23224603A94046ADF80C30FFF79CF8D2
:102BD00002AB0DF10702394604988DF80740FFF764
:102BE000C5FF9DF807102879FFF76EF83046FFF70C
:102BF0006FFF029808B0BDE8F081000070B5044690
:102C000000F10C0528460E46FFF768FEA16879B171
:102C10000B4A0023985CB04202D00133082BF9D153
:102C20000133DBB20122D9402046FFF7B5FF03E0B4
:102C300031462079FFF748F82846FFF749FF70BD75
:102C40007C730A0870B505460E4600F10C04204658
:102C5000FFF744FE31462879FFF73EF80546204647
:102C6000FFF736FFE8B270BD0079FFF745B810B541
:102C700004460068FFF7BCF9204610BD10B50446B5
:102C8000006808B1FFF7B4F900232360A360636014
:102C900010BD38B504460D4600680131FFF7B0F9A4
:102CA00010B184E82100012038BD10B50368044646
:102CB00013B143688B4207D22046FFF7EAFF20B1E9
:102CC000A3680BB922681370012010BD70B50E46C1
:102CD000114604461546FFF7E8FF18B92046FFF7EE
:102CE000CDFF09E02A463146A560206801F0E8FEE4
:102CF0002268A3680021D154204670BD38B5002356
:102D0000044603604360836003730D4639B108468F
:102D100001F03FFF294602462046FFF7D7FF204635
:102D200038BD884210B50B46044607D0096819B172
:102D30009A68FFF7CBFF01E0FFF7A0FF204610BD28
:102D400010B5044600230360436083600373FFF7FC
:102D5000E8FF204610BD08B582680B4612B919B9C4
:102D6000012008BD11B90368187802E0006801F07D
:102D7000E3FEB0FA80F0400908BD70B50E469AB186
:102D800091B185689D4202D800230B7070BD541E1E
:102D9000ED1AAC4228BF2C46016822461944304641
:102DA00001F014FF0023335570BD08B5006820B151
:102DB00001F074FD01F0D6F908BD002008BD014600
:102DC00000228C20FEF7A0BE0020FFF7F8BF000015
:102DD0004FF6FF7310B5084C00202060A080A07152
:102DE00020816381FFF718F82046BDE81040034AB0
:102DF000034900F0B1BB00BFC0030020580200200F
:102E00007D0B0A08F0B5144B144F1E68144B064492
:102E100018683B6806449E428BB01BD00AA840F855
:102E2000286D01F051FD0446436901AD03F26C7356
:102E300043610FCC0FC50FCC0FC5D4F800E0094C8F
:102E4000C5F800E001AD0FCD0FC40FCD0FC43E603B
:102E5000C4F800E00BB0F0BDFC030020F803002034
:102E6000F4030020CC03002008B50020FFF758F839
:102E700028B1FFF735F880F00100C0B208BD01208D
:102E800008BD10B50020FEF75FFE044668B9FEF7E6
:102E9000BBFF01280BD12046FEF7E6FF38B9FFF74C
:102EA000E3FF30B9FFF70CF8F9E7012010BD00206F
:102EB00010BDFFF7D9FF0020FEF746FE003018BF17
:102EC000012010BD08B5FFF7DCFFBDE80840FEF7A4
:102ED00033BE000008B5FFF7F5FFFFF793FF014B86
:102EE000986808BDCC03002008B5FFF7EBFFFFF79B
:102EF00089FF014B586808BDCC030020024B1A68BB
:102F0000024B1A60704700BF68010020F0030020E8
:102F100070474174704708B5007CFEF735FF20EA22
:102F2000E07008BD08B5007CFEF706FF20EAE070FF
:102F300008BD08B5007CFEF70FFF30EA200028BF6F
:102F40004FF0FF3008BD08B5007CFEF7FDFE30EA0B
:102F5000200028BF4FF0FF3008BD007CFEF704BF03
:102F600010B50446142100F0FCFA204610BD70B5DF
:102F7000457C04460E4625B9007CFEF705FF002877
:102F800005DD3146207CBDE87040FEF7CDBE284609
:102F900070BD000010B5044608461146002262606C
:102FA0004FF47A72A260054A207422600122627492
:102FB0001A46FEF7B1FE204610BD00BFB4730A08E2
:102FC000007CFEF7D9BE000038B50C4D296811F021
:102FD000010411D12846FDF766F868B1084A214678
:102FE000084B0948FFF7D6FF2846FDF761F8074A66
:102FF0000749054800F0B0FA034838BD980400209E
:103000009C0400201404002000040020580200202A
:10301000112F0A0841747047704708B50021007CE1
:10302000FEF7D2FE30EA200028BF4FF0FF3008BD87
:1030300008B50121007CFEF7C7FE30EA200028BF5A
:103040004FF0FF3008BD08B5007CFEF7B5FE20EA62
:10305000E07008BD08B5007CFEF7A6FE20EAE0702F
:1030600008BD007CFEF7C0BE10B50446142100F078
:1030700078FA204610BD38B50446007C0D46FEF7B0
:103080009BFE002801DC607C28B12946207CFEF7ED
:10309000A3FE20EAE07038BD10B50446002363604B
:1030A0004FF47A73A360054B084623600123217413
:1030B00063741146FEF770FE204610BDE4730A08E3
:1030C00010B504461422002101F005FD054B2046F1
:1030D0006360054BE36040F2011323818123238267
:1030E00010BD00BFA50500202405002030B50E4D01
:1030F00087B001A8FFF7E4FF296811F0010410D19F
:103100002846FCF7D0FF60B101AA21460748FFF727
:10311000C3FF2846FCF7CCFF054A0649034800F0E8
:103120001BFA024807B030BD20050020A806002089
:103130005802002019300A0810B504461422002154
:1031400001F0C9FC054B20466360054BE36040F28B
:10315000011323818123238210BD00BF5807002063
:10316000C006002010B50E4C86B001A8FFF7E4FFA2
:103170002368DB0710D42046FCF795FF60B101AA55
:1031800001210848FFF788FF2046FCF791FF064A17
:103190000649044800F0E0F9024806B010BD00BF3F
:1031A000BC060020440700205802002019300A08FD
:1031B000002211464068FEF7DBBEF0B5164689B026
:1031C00011220F460446002103A801F084FC30467A
:1031D00001F0DFFC0025009581B27B6803AA304630
:1031E000FEF70AFE20B129462046FFF755FB03E013
:1031F00003A92046FFF73EFB204609B0F0BD0022A0
:1032000011464068FEF7D4BE002211464068FEF722
:10321000DFBE00224068FEF7D3BE002281F001012C
:103220004068FEF7BDBE00231A4619464068FEF707
:10323000AFBE00231A4619464068FEF7A1BE002221
:1032400011464068FEF784BE002202214068FEF766
:1032500087BE00231A464068FEF772BE024B042266
:103260005A60024A1A6070475C08002014740A0809
:1032700008B5144B33B1FFF739FF03681B69984752
:10328000002816DC104B33B1FFF79EFE03681B6964
:103290009847002810DC0D4B0BB1AFF300800C4BAE
:1032A0007BB1FFF75FFF03681B699847002806DCC6
:1032B00008BDAFF30080E5E7AFF30080EBE7AFF3C5
:1032C000008008BD000000000000000000000000B9
:1032D0000000000008B5FFF7CBFFFEF725FC014B0F
:1032E000186008BD6C0800200248034A0349121AFE
:1032F00001F0E6BB0040024004400240E8770A08C3
:1033000007B5002300931A466FF07701FEF7BEFD64
:1033100003B05DF804FB000007B543880A2B08D012
:10332000502B09D1094B1B683BB103B05DF804EB8E
:103330001847FFF7E5FF06E0002300931A466FF0F9
:103340007701FEF7A3FD03B05DF804FB64080020DD
:1033500038B5104C104D2368AB42104B0CBF012206
:1033600000221A7002D0FFF7BFFF2560FEF7D4FBE2
:10337000044601F0B9FB0A4B13B12046AFF30080BD
:1033800000210748FEF7D4FDBDE83840002105487C
:10339000FEF772BD004002401E1C279A68080020FC
:1033A0000000000019330A0810B5044600F0B4F814
:1033B000FFF75AFC28B1A4F10D03022B01D800201D
:1033C00010BD00F06BF8FFF70FFA08B1012CF6D929
:1033D000FFF7FAFDFFF7F4FD18B1A4F11203012B7A
:1033E000EDD9172C8CBF0020012010BD172838B54F
:1033F00004460D460AD8FF2908D0FFF7D5FF28B1AB
:1034000029462046BDE83840FEF7B6BB38BD38B582
:1034100004460D46FEF7B8FBFF2810D0062804D856
:103420004D2323FA00F0C30709D42046FFF7BCFF61
:1034300028B129462046BDE83840FEF7ADBB38BD6F
:1034400010B50446FEF7A0FB0438C0B2012808D925
:103450002046FFF7A9FF20B12046BDE81040FEF747
:10346000A3BB002010BD000070B5044614252A46F9
:10347000094E002101F02FFB258020253146A56053
:103480002561284600F087F831466060284600F044
:1034900082F8E060204670BD40740A0830B50E4DD9
:1034A00087B0296811F0010413D12846FCF7FBFD11
:1034B00078B101A8FFF7D8FF01AA21460748FFF716
:1034C0003FF92846FCF7F4FD054A0649034800F099
:1034D00043F8024807B030BD70080020740800208F
:1034E00058020020E7260A0813B5084C00231A46A4
:1034F000194600932046FFF7E5F92046044A05499E
:1035000002B0BDE8104000F027B800BF88080020D6
:103510005802002015280A0838B50B4D296811F00B
:1035200001040FD12846FCF7BEFD58B121460748DB
:10353000FFF7D2FA2846FCF7BBFD054A05490348C8
:1035400000F00AF8014838BDB0080020A0080020AB
:1035500058020020A52A0A080B460146184601F029
:10356000A5B9FCF79EBD0000024B1868BFF35F8F42
:10357000704700BFB408002010B5002814BF0446EF
:1035800001242046FEF72CFD20B9FFF7EDFF08B11E
:103590008047F6E710BDFFF7EFBF08B5FEF748FD1F
:1035A000244B1A68D0075CBF01221A60224B1A68AC
:1035B000D1075CBF01221A60204B1A68D2075CBF9A
:1035C00001221A601E4B1A68D0075CBF01221A60E4
:1035D0001C4B1A68D1075CBF01221A601A4B1A688B
:1035E000D2075CBF01221A60184B1A68D0075CBF73
:1035F00001221A60164B1A68D1075CBF01221A60BB
:10360000144B1A68D2075CBF01221A60124B1A6869
:10361000D0075CBF01221A60104B1A68D1075CBF4B
:1036200001221A600E4B1A68D2075CBF01221A6091
:10363000704700BFE4080020E0080020DC080020FC
:10364000D8080020D4080020D0080020CC08002092
:10365000C8080020C4080020C0080020BC080020C2
:10366000B8080020184B1A68D1075CBF01221A6005
:10367000164B1A68D2075CBF01221A60144B1A68F5
:10368000D0075CBF01221A60124B1A68D1075CBFD9
:1036900001221A60104B1A68D2075CBF01221A601F
:1036A0000E4B1A68D0075CBF01221A600C4B1A68D7
:1036B000D1075CBF01221A600A4B1A68D2075CBFAF
:1036C00001221A60704700BF040900200009002091
:1036D000FC080020F8080020F4080020F008002072
:1036E000EC080020E8080020184B1A68D1075CBFDE
:1036F00001221A60164B1A68D2075CBF01221A60B9
:10370000144B1A68D0075CBF01221A60124B1A686A
:10371000D1075CBF01221A60104B1A68D2075CBF48
:1037200001221A600E4B1A68D0075CBF01221A6092
:103730000C4B1A68D1075CBF01221A600A4B1A6849
:10374000D2075CBF01221A60704700BF2409002025
:10375000200900201C09002018090020140900205D
:10376000100900200C09002008090020244B1A68C9
:10377000D0075CBF01221A60224B1A68D1075CBFD8
:1037800001221A60204B1A68D2075CBF01221A601E
:103790001E4B1A68D0075CBF01221A601C4B1A68C6
:1037A000D1075CBF01221A601A4B1A68D2075CBFAE
:1037B00001221A60184B1A68D0075CBF01221A60F8
:1037C000164B1A68D1075CBF01221A60144B1A68A5
:1037D000D2075CBF01221A60124B1A68D0075CBF87
:1037E00001221A60104B1A68D1075CBF01221A60CF
:1037F0000E4B1A68D2075CBF01221A60704700BFE7
:1038000054090020500900204C09002048090020DC
:1038100044090020400900203C090020380900200C
:1038200034090020300900202C090020280900203C
:1038300081F0004102E000BF83F0004330B54FEA61
:1038400041044FEA430594EA050F08BF90EA020FCE
:103850001FBF54EA000C55EA020C7FEA645C7FEA61
:10386000655C00F0E2804FEA5454D4EB5555B8BF84
:103870006D420CDD2C4480EA020281EA030382EAF5
:10388000000083EA010180EA020281EA0303362D87
:1038900088BF30BD11F0004F4FEA01314FF4801C5A
:1038A0004CEA113102D0404261EB410113F0004F6C
:1038B0004FEA03334CEA133302D0524263EB430323
:1038C00094EA050F00F0A780A4F10104D5F1200EC1
:1038D0000DDB02FA0EFC22FA05F2801841F100011C
:1038E00003FA0EF2801843FA05F359410EE0A5F1F0
:1038F00020050EF1200E012A03FA0EFC28BF4CF021
:10390000020C43FA05F3C01851EBE37101F00045D6
:1039100007D54FF0000EDCF1000C7EEB00006EEBE3
:103920000101B1F5801F1BD3B1F5001F0CD349086D
:103930005FEA30004FEA3C0C04F101044FEA4452C4
:1039400012F5800F80F09A80BCF1004F08BF5FEA4B
:10395000500C50F1000041EB045141EA050130BD2B
:103960005FEA4C0C404141EB010111F4801FA4F1CE
:103970000104E9D191F0000F04BF01460020B1FA23
:1039800081F308BF2033A3F10B03B3F120020CDA5B
:103990000C3208DD02F1140CC2F10C0201FA0CF039
:1039A00021FA02F10CE002F11402D8BFC2F1200C9E
:1039B00001FA02F120FA0CFCDCBF41EA0C01904054
:1039C000E41AA2BF01EB0451294330BD6FEA04049D
:1039D0001F3C1CDA0C340EDC04F11404C4F1200288
:1039E00020FA04F001FA02F340EA030021FA04F39A
:1039F00045EA030130BDC4F10C04C4F1200220FAF1
:103A000002F001FA04F340EA0300294630BD21FA2E
:103A100004F0294630BD94F0000F83F4801306BFF4
:103A200081F480110134013D4EE77FEA645C18BFE8
:103A30007FEA655C29D094EA050F08BF90EA020F7F
:103A400005D054EA000C04BF1946104630BD91EA77
:103A5000030F1EBF0021002030BD5FEA545C05D17A
:103A60004000494128BF41F0004130BD14F58004B9
:103A70003CBF01F5801130BD01F0004545F0FE412D
:103A800041F470014FF0000030BD7FEA645C1ABF62
:103A9000194610467FEA655C1CBF0B46024650EA99
:103AA000013406BF52EA033591EA030F41F40021C5
:103AB00030BD00BF90F0000F04BF0021704730B54B
:103AC0004FF4806404F132044FF000054FF0000120
:103AD00050E700BF90F0000F04BF0021704730B5E1
:103AE0004FF4806404F1320410F0004548BF4042B6
:103AF0004FF000013EE700BF42004FEAE2014FEA0B
:103B000031014FEA02701FBF12F07F4393F07F4FE5
:103B100081F06051704792F0000F14BF93F07F4F17
:103B2000704730B54FF4607401F0004521F000415A
:103B300020E700BF50EA010208BF704730B54FF0E0
:103B400000050AE050EA010208BF704730B511F0E5
:103B5000004502D5404261EB41014FF4806404F11D
:103B600032045FEA915C3FF4DCAE4FF003025FEA9F
:103B7000DC0C18BF03325FEADC0C18BF033202EB27
:103B8000DC02C2F1200300FA03FC20FA02F001FA81
:103B900003FE40EA0E0021FA02F11444C1E600BF20
:103BA00070B54FF0FF0C4CF4E06C1CEA11541DBFD3
:103BB0001CEA135594EA0C0F95EA0C0F00F0DEF89E
:103BC0002C4481EA030621EA4C5123EA4C5350EA83
:103BD000013518BF52EA033541F4801143F48013D4
:103BE00038D0A0FB02CE4FF00005E1FB02E506F065
:103BF0000042E0FB03E54FF00006E1FB03569CF0BA
:103C0000000F18BF4EF0010EA4F1FF04B6F5007FBF
:103C100064F5407404D25FEA4E0E6D4146EB060631
:103C200042EAC62141EA55514FEAC52040EA5E50BA
:103C30004FEACE2EB4F1FD0C88BFBCF5E06F1ED864
:103C4000BEF1004F08BF5FEA500E50F1000041EB9B
:103C5000045170BD06F0004646EA010140EA020048
:103C600081EA0301B4EB5C04C2BFD4EB0C0541EA6A
:103C7000045170BD41F480114FF0000E013C00F37F
:103C8000AB8014F1360FDEBF002001F0004170BDA3
:103C9000C4F10004203C35DA0C341BDC04F11404BC
:103CA000C4F1200500FA05F320FA04F001FA05F248
:103CB00040EA020001F0004221F0004110EBD37015
:103CC00021FA04F642EB06015EEA430E08BF20EA41
:103CD000D37070BDC4F10C04C4F1200500FA04F3E4
:103CE00020FA05F001FA04F240EA020001F0004176
:103CF00010EBD37041F100015EEA430E08BF20EAE9
:103D0000D37070BDC4F1200500FA05F24EEA020E30
:103D100020FA04F301FA05F243EA020321FA04F05F
:103D200001F0004121FA04F220EA020000EBD37016
:103D30005EEA430E08BF20EAD37070BD94F0000F16
:103D40000FD101F00046400041EB010111F4801F4A
:103D500008BF013CF7D041EA060195F0000F18BFFB
:103D6000704703F00046520043EB030313F4801F37
:103D700008BF013DF7D043EA0603704794EA0C0FF1
:103D80000CEA135518BF95EA0C0F0CD050EA410607
:103D900018BF52EA4306D1D181EA030101F0004184
:103DA0004FF0000070BD50EA410606BF10461946AC
:103DB00052EA430619D094EA0C0F02D150EA0136B8
:103DC00013D195EA0C0F05D152EA03361CBF1046F9
:103DD00019460AD181EA030101F0004141F0FE4198
:103DE00041F470014FF0000070BD41F0FE4141F41C
:103DF000780170BD70B54FF0FF0C4CF4E06C1CEA1C
:103E000011541DBF1CEA135594EA0C0F95EA0C0FD0
:103E100000F0A7F8A4EB050481EA030E52EA03358B
:103E20004FEA013100F088804FEA03334FF08055AC
:103E300045EA131343EA12634FEA022245EA1115D9
:103E400045EA10654FEA00260EF000419D4208BF8A
:103E5000964244F1FD0404F5407402D25B084FEA37
:103E60003202B61A65EB03055B084FEA32024FF4E3
:103E700080104FF4002CB6EB020E75EB030E22BF40
:103E8000B61A754640EA0C005B084FEA3202B6EB00
:103E9000020E75EB030E22BFB61A754640EA5C00AF
:103EA0005B084FEA3202B6EB020E75EB030E22BF3F
:103EB000B61A754640EA9C005B084FEA3202B6EB40
:103EC000020E75EB030E22BFB61A754640EADC00FF
:103ED00055EA060E18D04FEA051545EA16754FEA61
:103EE00006164FEAC30343EA52734FEAC2025FEA7F
:103EF0001C1CC0D111F4801F0BD141EA00014FF00E
:103F000000004FF0004CB6E711F4801F04BF0143DE
:103F10000020B4F1FD0C88BFBCF5E06F3FF6AFAEFA
:103F2000B5EB030C04BFB6EB020C5FEA500C50F18A
:103F3000000041EB045170BD0EF0004E4EEA11310D
:103F400014EB5C04C2BFD4EB0C0541EA045170BD14
:103F500041F480114FF0000E013C90E645EA060E58
:103F60008DE60CEA135594EA0C0F08BF95EA0C0F86
:103F70003FF43BAF94EA0C0F0AD150EA01347FF4CE
:103F800034AF95EA0C0F7FF425AF104619462CE7A5
:103F900095EA0C0F06D152EA03353FF4FDAE104608
:103FA000194622E750EA410618BF52EA43067FF459
:103FB000C5AE50EA41047FF40DAF52EA43057FF4E9
:103FC000EBAE12E74FF0FF3C06E000BF4FF0010CF4
:103FD00002E000BF4FF0010C4DF804CD4FEA410C58
:103FE0007FEA6C5C4FEA430C18BF7FEA6C5C1BD025
:103FF00001B050EA410C0CBF52EA430C91EA030FA6
:1040000002BF90EA020F0020704710F1000F91EA02
:10401000030F58BF994208BF90422CBFD8176FEAD0
:10402000E37040F0010070474FEA410C7FEA6C5C9E
:1040300002D150EA013C07D14FEA430C7FEA6C5CA5
:10404000D6D152EA033CD3D05DF8040B704700BFD1
:104050008446104662468C461946634600E000BF1F
:1040600001B5FFF7B7FF002848BF10F1000F01BDF1
:104070004DF808EDFFF7F4FF0CBF012000205DF8BC
:1040800008FB00BF4DF808EDFFF7EAFF34BF012041
:1040900000205DF808FB00BF4DF808EDFFF7E0FFDA
:1040A00094BF012000205DF808FB00BF4DF808ED2B
:1040B000FFF7CEFF94BF012000205DF808FB00BF92
:1040C0004DF808EDFFF7C4FF34BF012000205DF874
:1040D00008FB00BF4FEA410212F5001215D211D5BC
:1040E0006FF47873B3EB625212D94FEAC12343F0F5
:1040F000004343EA505311F0004F23FA02F018BF77
:10410000404270474FF00000704750EA013005D13F
:1041100011F0004008BF6FF0004070474FF0000002
:10412000704700BF4A0011D212F5001211D20DD50E
:104130006FF47873B3EB62520ED44FEAC12343F0AD
:10414000004343EA505323FA02F070474FF0000057
:10415000704750EA013002D14FF0FF3070474FF006
:10416000000070474FEA4102B2F1E04324BFB3F5CB
:10417000001CDCF1FE5C0DD901F0004C4FEAC002DE
:104180004CEA5070B2F1004F40EB830008BF20F0C2
:104190000100704711F0804F21D113F13872BCBF7C
:1041A00001F00040704741F480114FEA5252C2F1D1
:1041B0001802C2F1200C10FA0CF320FA02F018BF1A
:1041C00040F001004FEAC1234FEAD32303FA0CFC6D
:1041D00040EA0C0023FA02F34FEA4303CCE77FEAFC
:1041E000625307D150EA01331EBF4FF0FE4040F446
:1041F0004000704701F0004040F0FE4040F40000F5
:10420000704700BF80F0004002E000BF81F0004135
:1042100042001FBF5FEA410392EA030F7FEA226C6C
:104220007FEA236C6AD04FEA1262D2EB1363C1BFFC
:10423000D218414048404140B8BF5B42192B88BF6B
:10424000704710F0004F40F4000020F07F4018BF8E
:10425000404211F0004F41F4000121F07F4118BFAE
:10426000494292EA030F3FD0A2F1010241FA03FC56
:1042700010EB0C00C3F1200301FA03F100F000433E
:1042800002D5494260EB4000B0F5000F13D3B0F106
:10429000807F06D340084FEA310102F10102FE2A75
:1042A00051D2B1F1004F40EBC25008BF20F00100E5
:1042B00040EA03007047490040EB000010F4000F93
:1042C000A2F10102EDD1B0FA80FCACF1080CB2EB26
:1042D0000C0200FA0CF0AABF00EBC2505242184385
:1042E000BCBFD0401843704792F0000F81F400012A
:1042F00006BF80F400000132013BB5E74FEA4103FD
:104300007FEA226C18BF7FEA236C21D092EA030F68
:1043100004D092F0000F08BF0846704790EA010FE2
:104320001CBF0020704712F07F4F04D1400028BF0F
:1043300040F00040704712F100723CBF00F50000F1
:10434000704700F0004343F0FE4040F40000704727
:104350007FEA226216BF08467FEA236301464202D3
:1043600006BF5FEA412390EA010F40F480007047E6
:104370004FF0000304E000BF10F0004348BF40428C
:104380005FEA000C08BF704743F0964301464FF0C8
:1043900000001CE050EA010208BF70474FF0000324
:1043A0000AE000BF50EA010208BF704711F0004365
:1043B00002D5404261EB41015FEA010C02BF844635
:1043C0000146002043F0B64308BFA3F18053A3F594
:1043D0000003BCFA8CF2083AA3EBC25310DB01FADB
:1043E00002FC634400FA02FCC2F12002BCF1004F5F
:1043F00020FA02F243EB020008BF20F001007047F0
:1044000002F1200201FA02FCC2F1200250EA4C0043
:1044100021FA02F243EB020008BF20EADC70704789
:104420004FF0FF3C06E000BF4FF0010C02E000BF80
:104430004FF0010C4DF804CD4FEA40024FEA410322
:104440007FEA226C18BF7FEA236C11D001B052EAD8
:10445000530C18BF90EA010F58BFB2EB030088BF9E
:10446000C81738BF6FEAE17018BF40F0010070470D
:104470007FEA226C02D15FEA402C05D17FEA236CEF
:10448000E4D15FEA412CE1D05DF8040B704700BF36
:10449000844608466146FFE70FB5FFF7C9FF0028CD
:1044A00048BF10F1000F0FBD4DF808EDFFF7F4FF06
:1044B0000CBF012000205DF808FB00BF4DF808ED9F
:1044C000FFF7EAFF34BF012000205DF808FB00BFC2
:1044D0004DF808EDFFF7E0FF94BF012000205DF8E4
:1044E00008FB00BF4DF808EDFFF7D2FF94BF012095
:1044F00000205DF808FB00BF4DF808EDFFF7C8FF8E
:1045000034BF012000205DF808FB00BF7BB972B901
:104510000029BEBF00204FF0004106E008BF002880
:104520001CBF6FF000414FF0FF3000F0B5B9ADF1A6
:10453000080C6DE904CE002909DB002B1ADB00F022
:1045400035F8DDF804E0DDE9022304B070474042AD
:1045500061EB4101002B1BDB00F028F8DDF804E0E3
:10456000DDE9022304B0404261EB4101524263EBBA
:1045700043037047524263EB430300F017F8DDF842
:1045800004E0DDE9022304B0404261EB41017047E1
:10459000524263EB430300F009F8DDF804E0DDE983
:1045A000022304B0524263EB430370472DE9F04FFE
:1045B0008C460C460546099E002B4FD18A42174671
:1045C0006BD9B2FA82FEBEF1000F0BD0CEF12005FE
:1045D00020FA05F501FA0EF345EA030C02FA0EF78C
:1045E00000FA0EF5390CBCFBF1F0BAB201FB10C3B6
:1045F00000FB02F84FEA154C4CEA0344A04509D9E8
:10460000E41900F1FF3380F02881A04540F22581B4
:1046100002383C44C8EB0404B4FBF1F301FB134C37
:1046200003FB02F2ACB244EA0C418A4209D9C9192F
:1046300003F1FF3480F00F818A4240F20C81023B8B
:1046400039448A1A43EA00400021002E63D022FA3E
:104650000EF2002386E80C00BDE8F08F8B4207D9EC
:10466000002E56D0002186E811000846BDE8F08FE4
:10467000B3FA83F1002940F09380A34202D382422F
:1046800000F2FE80851A64EB03039C460120002E95
:1046900041D086E82010BDE8F08F12B90127B7FBA2
:1046A000F2F7B7FA87FEBEF1000F36D1E41B4FEAEE
:1046B00017481FFA87F90121B4FBF8F308FB1344EC
:1046C00009FB03F24FEA154C4CEA0444A24207D915
:1046D000E41903F1FF3002D2A24200F2D380034674
:1046E000A41AB4FBF8F008FB104809FB00F9ACB2BF
:1046F00044EA0842914507D9D21900F1FF3402D2A9
:10470000914500F2BA802046C9EB020240EA03401C
:104710009BE731463046BDE8F08F07FA0EF7CEF141
:10472000200C24FA0CF34FEA1748B3FBF8FA1FFAEF
:1047300087F908FB1A3520FA0CFC04FA0EF40AFB80
:1047400009FB4CEA040C4FEA1C4242EA05439B4534
:1047500000FA0EF50AD9DB190AF1FF3280F08B80DE
:104760009B4540F28880AAF1020A3B44CBEB03034D
:10477000B3FBF8F008FB103300FB09F41FFA8CFCC4
:104780004CEA03439C4207D9DB1900F1FF326ED299
:104790009C426CD902383B441C1B40EA0A418BE71F
:1047A000C1F1200E8B4022FA0EFC4CEA030C24FAD5
:1047B0000EF74FEA1C49B7FBF9FA1FFA8CF309FB15
:1047C0001A7720FA0EF88C400AFB03F548EA040435
:1047D0004FEA144848EA0747BD4202FA01F200FADC
:1047E00001FB09D917EB0C070AF1FF3041D2BD429A
:1047F0003FD9AAF1020A67447F1BB7FBF9F509FB11
:10480000157705FB03F3A4B244EA0747BB4208D976
:1048100017EB0C0705F1FF3027D2BB4225D9023D2B
:10482000674445EA0A40A0FB0289FF1A4F45454606
:104830004C4614D329D066B3BBEB050367EB0407E2
:1048400007FA0EFECB40CF404EEA030386E888000D
:104850000021BDE8F08F2346F3E61846DAE6B8EB10
:10486000020569EB0C040138E5E70546D9E7104677
:1048700092E78246C0E7924678E702383A4443E737
:10488000084604E7023B3C442AE7C345E7D33C46DD
:10489000D1E73146BDE8F08F704700BF002100F03E
:1048A000CBBF0A22002101F055B8000010B5054C1D
:1048B00013462CB10A4601460220AFF3008010BD1A
:1048C000204610BD0000000038B5074B05461C68A7
:1048D000E36B1BB92420FDF783FBE063E16B284603
:1048E000BDE8384000F002B8D00100202DE9F041C9
:1048F0000C46804601F052FE21460746404601F034
:1049000051FE4669044606F26C76B30705D164226F
:1049100096FBF2F302FB13634BB94FF4C87596FB99
:10492000F5F305FB1365B5FA85F35B0900E0012398
:104930005F4A302505FB032501F046F901F046F9F1
:104940005C4B1B68F3B17B689E4205D13968D8F88F
:104950000030FA6941B90AE0304601F08DF80028CC
:10496000F4D14FF0FF330DE0934208DB01E09342B6
:1049700007DABA6B9342ACBF0023012302E00023A5
:1049800000E001232362236A3C20012B0CBFF96B5A
:10499000396A4FF4616391FBF3F603FB161393FB43
:1049A000F0F200FB123061682368891AA2681B1AB2
:1049B000921B3B2B23606160A26003DD01316160CB
:1049C0003C3B04E0002B03DA013961603C33236097
:1049D00063683B2B03DD0132A2603C3B04E0002B0B
:1049E00003DA013AA2603C336360A368172B22DD2F
:1049F000E269183B0132E261A269A3600132062A32
:104A0000C8BF0022A261E26823690132E26055F862
:104A100023108A4246DD01330C2B08BF6369A2EBE9
:104A20000102E26005BF013300222361226104BF5D
:104A30006361E26136E0002B34DAE2691833013A4F
:104A4000E261A269A360013A48BF0622A261E2685E
:104A5000013AE26032BB2369013B01D423611DE0CE
:104A60000B23236163695A1E12F0030F626103F284
:104A70006B7305D1642193FBF1F201FB12324AB949
:104A80004FF4C87193FBF1F201FB1233B3FA83F3D5
:104A90005B0900E0012303F5B673E361236955F870
:104AA0002330E36001F091F82046BDE8F08100BFBB
:104AB000AC750A087409002000487047D401002032
:104AC00010B5431E0A44914204D011F8014B03F87B
:104AD000014FF8E710BD03460244934202D003F8A9
:104AE000011BFAE77047000038B5124B05461C68F9
:104AF000A36BD3B91820FDF773FA43F20E33A0630A
:104B000003804AF6CD33438041F2342383804EF252
:104B10006D63C3804DF6EC630381052343810B2352
:104B2000838101220023C0E90423A36B00221D61BD
:104B30005A6138BDD001002010F8012B11F8013B5B
:104B4000012A28BF9A42F7D0D01A7047034611F8BD
:104B5000012B03F8012B002AF9D17047024B0146C3
:104B6000186800F003B800BFD001002070B50646F9
:104B700008460C4600F00DF8451C29463046FDF766
:104B80005FFA064618B12A462146FFF799FF3046DC
:104B900070BD034613F8012B002AFBD1181A013807
:104BA000704730B582B1451E013915F8013F11F843
:104BB000014FA34206D1EC431444E04201D0002B44
:104BC000F3D11C46181B30BD104630BD034610B54E
:104BD00042B111F8014B013A03F8014B002CF7D117
:104BE0001A4400E010BD934202D003F8014BFAE7EB
:104BF00010BD2DE9F0410F46904602F02FF8044613
:104C00000D46B8F1000F11D0C7F30A53C3F16B037F
:104C1000002B0BDD1B0503F17F55002405F5401526
:104C200022462B46FEF7BCFFBDE8F0812046294610
:104C3000BDE8F081000000002DE9F04F82460C46EF
:104C40009DB00023139218934FF000084FF0000915
:104C50001791179B1A780D2A05D8092A13D2002A12
:104C600000F0AD8112E02B2A04D02D2A04D0202A96
:104C70000CD108E0002200E001220C925A1C17928D
:104C80005B782BB99BE101331793E2E700230C9388
:104C9000179D2B78302B5CD16B78582B01D0782B5B
:104CA0004CD10C9BA84A019318AB009317A919ABE0
:104CB000504601F05CF910F00706044600F08585C7
:104CC000062E05D10135002317950C9300F07DBD0C
:104CD000189A3AB135211AA802F0A7F81899504647
:104CE00001F02BFD062E22D8DFE806F0040D08188F
:104CF0001D0D04004FF00009C84618E0DDF868807B
:104D0000DDF86C9013E01B9B199A23F4801302F2D8
:104D10003342DDF8688043EA025908E0DFF82C925C
:104D20004FF0000803E06FF000494FF0FF38210713
:104D300040F14B8549F0004900F047BD179B5A1CD4
:104D400017925B78302BF9D0002B00F03E850123C1
:104D500000E000230593179B0A22069300239B463D
:104D600002930493179D2E78A6F13003D9B2092936
:104D700011D8BBF1080FD5BF0499029902FB01338A
:104D800002FB013305F10105D4BF049302930BF13B
:104D9000010B1795E6E75046FFF78EFE0768504671
:104DA000FFF78AFE0068FFF7F4FE39460246284600
:104DB000FFF7F7FE074628B1002033465D4602465E
:104DC00001465AE05046FFF777FE0068FFF7E1FE24
:104DD000179B1A1817921B5CBBF1000F45D1584660
:104DE000302B05D1179B01305A1C17925B78F7E7DF
:104DF000A3F13102082A46D8179A069202460020EB
:104E00000546303B00F1010129D00A44294605EB53
:104E1000000C0A2661450FD0013101F1FF3EBEF1C1
:104E2000080F03DC049F77430497F3E71029DEBFE4
:104E3000029F77430297EDE72844082800F1010517
:104E400005DC04980A2101FB0033049306E0102DD1
:104E5000DFBF02980A2101FB003302930021179B58
:104E6000581C17905B78084602E05D4638463A4683
:104E7000A3F130010929C4D90121652B01D0452BAB
:104E80004FD16DB904E0652B40F0AD8400220121C3
:104E900028B9059B002B00F09280054600E0002514
:104EA000179C631C179363782B2B06D02D2B02D0F5
:104EB0000026039606E0012300E000230393A31CD1
:104EC0001793A378A3F13006092E29D8302B04D1EB
:104ED000179B5E1C17965B78F8E7A3F13106082E46
:104EE0001FD8A3F1300E179B1F46179B5E1C179609
:104EF0005B78A3F1300CBCF1090F05D80A2606FB3C
:104F00000E3EAEF1300EF0E7F61B082E44F61F669B
:104F100002DC7645A8BF7646039F1FB1764201E0CA
:104F200017940026002D52D1002840F04E84059A97
:104F3000002A40F04A84002941D14E2B20D007DCC2
:104F4000492B0AD03BE000BF0C760A080000F07F36
:104F5000692B02D06E2B13D031E0AA4917A801F0BB
:104F600037FA60B3179BA849013B17A8179301F0C4
:104F70002FFA10B9179B01331793DFF8A8921AE0A4
:104F8000A24917A801F024FAC8B1179B1B78282B57
:104F90000FD11AAA9E4917A801F02DFA052808D1A9
:104FA0001B9BDDF8688043F0FF4949F4E00900F0FD
:104FB0000CBCDFF874924FF0000800F006BC139BA5
:104FC0001794002B00F00C8400230C93FFE32C4675
:104FD000BBF1000F08BFAB460498102DA8BF1024EA
:104FE000B71AFEF767FD092C8046894613DD894B09
:104FF00003EBC40353E91223FEF7D2FD8046029867
:105000008946FEF757FD02460B4640464946FEF7E5
:1050100015FC804689460F2D33DC002F00F0D58328
:1050200022DD162F07DC7B4D424605EBC7014B46C0
:10503000D1E9000113E0C5F125039F4221DC754C45
:10504000C5F10F0504EBC5017D1B4246D1E9000106
:105050004B4604EBC504FEF7A3FDD4E90023FEF79D
:105060009FFD80468946B0E317F1160F09DB694DB5
:105070004046A5EBC703D3E900234946FEF7BAFE35
:10508000EFE72C1B3C44002C5DDD14F00F010AD02F
:10509000604B424603EBC101D1E900014B46FEF7EC
:1050A0007FFD8046894634F00F0400F0C180B4F5DE
:1050B0009A7F0FDD4FF0000BCDF808B0CDF814B09B
:1050C000CDF810B02223CAF80030DFF858914FF025
:1050D000000889E14046494600234F4E24110293BF
:1050E000012C0CDDE20704D5D6E90023FEF758FDBC
:1050F0000123029A6410013202920836F0E70BB1E4
:1051000080468946444B029AA9F1547903EBC201C7
:10511000D1E9000142464B46FEF742FD21F0004333
:1051200089460A461B0D3D491B058B428046C1D866
:10513000A1F580118B4286BFDFF8F0904FF0FF3869
:1051400002F1547974E073D0644214F00F020AD073
:10515000304B404603EBC2034946D3E90023FEF738
:1051600049FE80468946241162D01F2C08DD4FF08D
:10517000000BCDF808B0CDF814B0CDF810B02CE18C
:105180004046494614F0100F0CBF00236A23244EFA
:1051900003930023002C09DDE20704D5D6E90023A0
:1051A000FEF7FEFC012364100836F3E70BB18046DE
:1051B0008946039BEBB1C9F30A53C3F16B03002B80
:1051C000494616DD1F2B0EDD342BDEBF203B4FF092
:1051D000FF3202FA03F34FF00008CCBF4FF05C79C6
:1051E00003EA010905E04FF0FF3202FA03F303EA94
:1051F00008080022002340464946FEF739FF0028F0
:10520000B5D117E020760A0823760A0829760A081D
:105210002C760A08A8760A0870770A080000A07C95
:1052200040760A080000F07F0000F8FFFFFFEF7FE4
:1052300000230393049B5A46009306992B4650463D
:1052400001F0CDFA059000283FF434AF002FC7F1EC
:105250000003A8BF00230D934FF0000B27EAE7736C
:105260001293CDF808B0059B5046596801F030FA0A
:10527000049000283FF426AF059B0C301A6903F117
:105280000C0102329200FFF71BFC1AAB019319AB21
:10529000009342464B465046CDE9088901F04FFD48
:1052A000189000283FF40EAF0121504601F022FB78
:1052B000029000283FF406AF199B0399002BACBF66
:1052C0000D9A129A1A9CACBFD618D21AA3EB0103FE
:1052D0002344B14903F1FF33ACBF129A0D9E8B42B8
:1052E000C4F1360480F28580C91A1F29C8BFAB4DAE
:1052F0004FF00107D4BF07FA01F3ED1AA4EB010444
:10530000D9BF0793002507FA05F507973719039BBF
:10531000BE4214441C443346A8BF3B46A342A8BF28
:105320002346002BC2BFFF1AE41AF61A0D9B002B6E
:1053300063D1002F7ADC129B002B40F08180002C7F
:1053400000F38880002E00F38F80049A189950464D
:1053500001F025FC834600283FF4B4AEC368002466
:10536000C4600299069301F0FEFBA04280F28B809C
:10537000069B002B40F00282B8F1000F40F0FE8146
:10538000C9F31303002B40F0F98129F000431B0DF2
:105390001B05B3F1D66F40F2F181DBF81430002B1E
:1053A0006CD059460122504601F08CFB029983468D
:1053B00001F0D9FB002840F3E18129F00043039A72
:1053C0001B0D1B05002A00F08D80B3F1D66F00F392
:1053D0008980B3F15C7F00F3D38122234FF0000872
:1053E0004FF00009CAF80030059B002B40F0D9812E
:1053F000EBE101230025079388E71A4602995046FE
:1054000001F012FB029000283FF45CAE0146189AAE
:10541000504601F078FA069000283FF453AE1899F0
:10542000504601F08AF9069B189382E73A4618998C
:10543000504601F047FB189000287FF47CAF41E60E
:10544000129A0499504601F0EFFA049000287FF474
:1054500076AF37E622460499504601F033FB0490BC
:1054600000287FF46FAF2DE632460299504601F0D6
:1054700029FB029000287FF468AF23E6DBF81030A8
:10548000012B8EDC7AE161D1069AC9F3130322B3B2
:1054900043494A468B422ED1039B414663B1414B5F
:1054A0001340B3F1D46F07D81B0DC3F16B034FF05A
:1054B000FF3000FA03F301E04FF0FF338B421AD1C3
:1054C00039498A4202D101333FF4FCAD354B4FF0EC
:1054D0000008134003F5801950E163B9B8F1000FDB
:1054E00009D16AE7A3F580136FEA13594FF0FF382B
:1054F0006FEA095942E115B115EA090F02E0079B6D
:1055000013EA080F00F03A81069B039A4046494689
:1055100053B1FFF76EFB02460B46DDE90801FEF7CB
:105520008DF98046894629E1FFF763FB02460B4669
:10553000DDE90801FEF780F9002200238046894654
:10554000FEF796FD00287FF448AF17E10299584610
:1055500001F043FC00224FF0804306460F46FEF761
:105560009BFD00283FD0069B13B100260F4F10E093
:10557000B8F1000F03D1C9F313033BB91AE0B8F136
:10558000010F03D1B9F1000F3FF427AF084F0026F8
:105590000024064D3CE000BF02FCFFFFE2FBFFFFE2
:1055A000FFFF0F000000F07FFFFFEF7F0000F03FE4
:1055B0000000F0BF00229A4B30463946FEF762FDEC
:1055C00040B90022974B30463946FEF7E9FA0446C7
:1055D0000D4601E0069C934D05F10043149415938C
:1055E000DDE9146714E08F4B002230463946FEF7A0
:1055F000D7FA069B04460D4623B901F100430E90ED
:105600000F9303E002460B46CDE90E23DDE90E675A
:1056100029F000431B0D1B050793079A824B9A4202
:105620002BD1DDE90823A9F1547940464946CDE95B
:105630000A2301F013FB02460B4630463946FEF7BB
:10564000AFFA42464B46FEF7F9F821F000431B0D36
:10565000764A1B05934280460CD9754B0B9A9A42A9
:1056600003D10A9B01333FF42DADDFF8C4914FF015
:10567000FF3872E001F1547939E0039B3BB3079B9B
:10568000B3F1D46F23D85EA3D3E900232046294683
:10569000FEF702FDB8B129462046FEF743FD00287B
:1056A00008BF0120FEF706FA069B04460D4623B903
:1056B00001F100431090119303E002460B46CDE93F
:1056C0001023DDE91067079A07F1D6639F1ADDE919
:1056D000080101F0C3FA02460B4630463946FEF790
:1056E0005FFADDE90823FEF7A9F880468946039BA7
:1056F0009BBB29F000431B0D079A1B059A424E469F
:105700002BD129462046FEF7E5FCFEF7E3F90B46D0
:10571000024629462046FEF78FF8069B04460D46B2
:105720002BB9B8F1000F02D1C9F313067EB136A32D
:10573000D3E9002320462946FEF7A4FC88BB34A306
:10574000D3E9002320462946FEF7BAFC04E032A341
:10575000D3E90023FEF796FC18BB1899504600F0D9
:10576000ECFF0499504600F0E8FF0299504600F023
:10577000E4FF5946504600F0E0FF74E5039B83B117
:105780002C4B40460B9300230A934946DDE90A233C
:10579000FEF706FA8046894619B910B92223CAF8DD
:1057A00000301899504600F0C8FF0499504600F0A8
:1057B000C4FF0299504600F0C0FF0599504600F022
:1057C000BCFF5946504600F0B8FF139B13B1179B1E
:1057D000139A13600C9B1BB1424609F1004307E08A
:1057E00042464B4604E000252A460121FFF747BB0D
:1057F000104619461DB0BDE8F08F00BFAFF3008022
:105800000000C0FFFFFFDF419535A094FFFFDF3FA1
:1058100035E5AF350000E03F9535A094FFFFCF3F61
:105820000000F03F0000E03F0000E07FFFFF9F7CB2
:10583000FFFFEF7F00005039024B0A46014618680F
:10584000FFF7FAB9D00100202DE9F0470F46804656
:105850003F48D0F800903D4615F8014B09EB040095
:10586000407800F0080000F0FF0608B12F46F2E78C
:105870002D2C03D1BD1C7C78012603E02B2C04BF0A
:105880007C78BD1C13B1102B0AD15BE0302C57D1B2
:10589000287800F0DF0058284DD16C7810230235AD
:1058A000002E14BF4FF0004C6FF0004CBCFBF3FA1D
:1058B0000027384603FB1ACC09EB040E9EF801E0E2
:1058C0001EF0040F01D0303C0BE01EF0030E1BD085
:1058D000BEF1010F0CBF4FF0370E4FF0570ECEEB5D
:1058E0000404A34210DDB7F1FF3F0AD0504506D8AB
:1058F00001D1644503DC03FB0040012701E04FF0C8
:10590000FF3715F8014BD7E77B1C0CD1002E4FF069
:10591000220314BF4FF000406FF00040C8F8003081
:105920002AB9BDE8F08706B1404272B107B1691EDD
:105930001160BDE8F0873024002BB1D10823AFE718
:105940000A23ADE7302CA3D0AAE7BDE8F08700BF5B
:105950006C01002013460A46014602480068FFF722
:1059600073BF00BFD00100202DE9F0470E468046EE
:105970003B48D0F80090354615F8014B09EB040080
:10598000407800F0080000F0FF0708B12E46F2E76B
:105990002D2C03D1B51C7478012703E02B2C04BFF8
:1059A0007478B51C13B1102B0AD153E0302C4FD1B1
:1059B000287800F0DF00582845D16C781023023594
:1059C0004FF0FF3CBCFBF3FC03FB0CFA00266FEA34
:1059D0000A0A304609EB040E9EF801E01EF0040F9F
:1059E00001D0303C0BE01EF0030E1AD0BEF1010FC7
:1059F0000CBF4FF0370E4FF0570ECEEB0404A3420E
:105A00000FDD002E08DB604506D801D1544503DCCC
:105A100003FB0040012601E04FF0FF3615F8014B73
:105A2000D8E7002E07DA2223C8F800304FF0FF3005
:105A30002AB9BDE8F08707B1404272B106B1691ECC
:105A40001160BDE8F0873024002BB9D10823B7E7F7
:105A50000A23B5E7302CABD0B2E7BDE8F08700BF32
:105A60006C01002013460A46014602480068FFF711
:105A70007BBF00BFD00100202DE9F74F044600F0A6
:105A80008DFD40F2B1739C4240F3968040F26D155B
:105A90006FF4F663E318A4F2B2729B1005FB0235B3
:105AA000A4F26D726FF0630392FBF3F36FF4C862BC
:105AB0002B44A5184FF4C87294FBF2F795FBF2F54E
:105AC00002FB17471D44642394FBF3F6B7FA87FEE5
:105AD000014603FB164600F13803019304F003036B
