:02000002D0002C
:1040000000400D0030A80D00000006000D00050165
:084010000401D40700000000C8
:04401800B09C0D004B
:1040200009480A49884208B505D0094A824202D0A7
:10403000121A03F049FB0748074A0021121A03F03D
:1040400051FB014808BD00BF60E10320ECA40D0056
:104050007CE4032080E40320F5E7032070B5074EDD
:10406000074C02F089FAA41BA4080025A54200D140
:1040700070BD56F8043B98470135F7E7B4A40D002E
:10408000E0A40D0000F04CBA08B500F04BFCBDE810
:10409000084002F033BA01F093B901F091B901F090
:1040A00097B90078B0FA80F0400970470123037097
:1040B0007047000008B5044901F0F9FF18B1034B3F
:1040C00003221A70012008BDC49C0D0054E5032092
:1040D00010B50446006808B101F07AF9204610BD19
:1040E0000023042201F0C4B837B59DF818501D43D1
:1040F0008DF800503C23044601F090FB204603B0AD
:1041000030BD00002DE9F84F01F0CAF8DFF858A0E3
:104110004FF496744FF0000B40F2E7384FF000096F
:10412000002000F027FF0546002000F023FF461B7B
:1041300061EB0B07B94508BFB04505D301F0B8F8EE
:1041400010B901F0A5F8EFE701F0B2F818B1BDE839
:10415000F84F01F0ADB800F0DDFECAF8000001F044
:1041600097F8013CDCD1F2E7A0E7032010B584B258
:104170000121204602F081FA4FF47A7001F060F9D3
:104180002046002102F079FABDE810404FF47A7021
:1041900001F056B908B500F0BDFE044B1B68C01A0B
:1041A000B0F57A7F34BF0020012008BDBCE40320B5
:1041B00008B5FFF7EFFF10B901F06AF8F9E7BDE8BD
:1041C0000840FFF7E7BF000013B5154C206A02F066
:1041D0003BFC144ACDE900011821134801F010F905
:1041E000606A02F031FC114ACDE900011821104843
:1041F00001F006F9A06A02F027FC0E4ACDE90001A1
:1042000018210D4801F0FCF8E06A02F01DFC0B4A91
:10421000CDE9000118210A4801F0F2F802B010BD02
:1042200018E50320C69C0D008BE50320D79C0D00EC
:10423000DAE40320E89C0D0072E50320FC9C0D00ED
:10424000C1E4032038B5046805467CB16368013BCE
:1042500063605BB9236820469B689847A368013B6D
:10426000A3601BB923682046DB689847284638BD01
:1042700030B5204DC7B0082402F018FA20461D4979
:104280003022643400F05EFEB4F5CC7FF4D1D5E981
:104290000623CDE90223D5E904234FF48071CDE94B
:1042A000002306A8144A154C01F0AAF800238DF843
:1042B0000030134B13491B7806AA04A8FFF714FF1C
:1042C00005A8FFF7BFFF01F0C1FFC4E9000102F03C
:1042D000EDF92178032000F02DFE01F0C9FF0A4B13
:1042E00018700A4B01221A7000F014FE084B186077
:1042F00047B030BD18E50320119D0D00A0E4032058
:1043000095E403204B9D0D00A8E4032060E1032009
:10431000A4E5032030B51E4D85B00C4681B92B783D
:1043200043B3FFF745FF1B4B8DF800401B781A4A3B
:104330001A4902A8FFF7D8FE03A8FFF783FF19E088
:10434000084603F0B8F8C83801282B7814D873B1A0
:10435000FFF72EFF00238DF800300E4B104A1B781C
:10436000104902A8FFF7C0FE03A8FFF76BFF0E4B32
:1043700000221A7005B030BD002BFBD0FFF718FFEC
:1043800000238DF80030034B22461B78D0E700BF96
:104390003CE2032095E40320619D0D00699D0D0022
:1043A000769D0D00889D0D0060E103202DE9F0430E
:1043B0004B4C4C48002385B04421237000F0D5FCC1
:1043C000054600287FD001F041FF474BC3E90001BB
:1043D00001F058FF1E2872D02D2872D00F2814BF6C
:1043E000032700273F48DFF83481404E00F054FD9A
:1043F00010EE100A02F028FBD8E90023C4E90401FA
:10440000CDE9002310213A4A3A4800F0F9FF354837
:1044100000F050FD10EE100A02F016FBD6E9002362
:10442000C4E90601CDE900231021334A334800F0E6
:10443000E7FFD8E90089606A02F006FB42464B4676
:1044400002F0EAFD10B12E4B01221A70206A02F030
:10445000FBFA02460B464046494602F0DDFD10B12C
:10446000284B01221A70D6E90089E06A02F0ECFAC2
:1044700042464B4602F0D0FD10B1234B01221A7088
:10448000A06A02F0E1FA02460B464046494602F0B5
:10449000C3FD10B11D4B01221A700123237001F0DE
:1044A000D5FE606002F002F9642078430C493022A6
:1044B000083000F04FFD284605B0BDE8F083012725
:1044C00090E702278EE7124B8DF800001B78114A07
:1044D000114902A8FFF708FE03A8FFF7B3FEEAE7B9
:1044E00018E5032048E50320A0E4032008E50320A5
:1044F0008E9D0D0060E50320969D0D00A9E403202C
:10450000D9E403208AE50320C0E4032071E50320F9
:1045100094E403209E9D0D00BB9D0D0058E50320F3
:1045200070B5B8B001F09EFF4FF4165101F08EFF48
:104530005B4B08AA03F11005164618685968144623
:1045400003C40833AB422246F7D119889B782180F7
:104550002D22A3700021534C0DF1330003F0C2F85B
:10456000022301210720237002F076F801210520A3
:1045700002F072F804A800F0A3FE00237D2218A91F
:1045800004A801F0A6FD00231A46CDE900334649F0
:1045900018A800F0A5FE454B45481968FFF7A0FD97
:1045A00044494548FFF79CFD44494548FFF798FDBD
:1045B00044494548FFF794FD44494548FFF790FDBD
:1045C00044494548FFF78CFD44494548FFF788FDBD
:1045D00044494548FFF784FD444A4549454801F0B0
:1045E00019F8454A4549434801F014F8444A4549F9
:1045F000404801F00FF8444A44493E4801F00AF8A7
:10460000434A44493B4801F005F8434A4349394885
:1046100001F000F801F026FF414901F088FC414813
:10462000442100F0A2FB88B900F074FC3E4D3F49E4
:104630002860304603F08CF801F014FF3C4901F08B
:1046400076FC0123237000F065FC2860FFF7AEFEC6
:10465000FFF7BAFDFFF756FD48B90123237000F0BC
:1046600059FC314B33491860304603F071F8324B36
:104670001B7863B100238DF80030304B30491B7834
:1046800002A83246FFF730FD03A8FFF7DBFD00F07C
:1046900041FC2C4B186004A801F090FC38B070BDB0
:1046A000E79F0D0054E5032015430D0064E103204E
:1046B000BF9D0D0060E50320C79D0D00A9E4032008
:1046C000D39D0D00F3E40320DC9D0D008BE503205A
:1046D000E59D0D00DAE40320F79D0D0072E503204F
:1046E000099E0D00C1E40320189E0D00279E0D00B9
:1046F000B5400D00E9550D00339E0D0035480D0005
:10470000409E0D00654B0D00519E0D00B94B0D00F4
:10471000629E0D00614C0D00779E0D000D4C0D004A
:104720008B9E0D0048E5032010E50320A39E0D009D
:10473000C09E0D00CC9E0D003CE2032095E40320BA
:10474000DE9E0D00BCE4032030B52D4B2D4C1B78B4
:104750008DB013B92C4B1B78EBB12C4BD3E9002354
:104760002021CDE9002304A8294A00F049FE0520B4
:10477000FFF7FCFCFFF71CFD00238DF80030254BF4
:1047800025491B7804AA02A8FFF7AEFC03A8FFF78F
:1047900059FD01232370214D2A7812B9204B1B7833
:1047A000EBB1204BD3E900232021CDE9002304A85D
:1047B0001D4A00F025FE0720FFF7D8FCFFF7F8FCA4
:1047C00000238DF80030134B13491B7804AA02A86C
:1047D000FFF78AFC03A8FFF735FD0123237001F0E2
:1047E00051FD124B1860237833B10D4A002313702A
:1047F0002B700F4B00221A6001200DB030BD00BF9E
:10480000D9E4032070E503208AE5032058E503205E
:10481000E69E0D0095E40320029F0D0071E5032044
:10482000C0E4032008E50320139F0D0090E403205B
:1048300038E2032030B5144985B0054601F037FC55
:10484000044690B1114B124A01241C7000238DF8CC
:104850000030104B1B78104902A8FFF745FC03A855
:10486000FFF7F0FC012005B030BD0C49284601F0EF
:104870001EFC0028F7D0054B094A1C70054B8DF82B
:1048800000401B78E7E700BFC49C0D003CE203201A
:104890002C9F0D0095E403204F9F0D003D9F0D00C0
:1048A0003F9F0D0030B5184D184C19492A782078D3
:1048B0008FB01A2303FB0212009203FB0013154A68
:1048C000282104A800F09CFD2B78237000F0F0FC58
:1048D00090B1FFF76DFC00238DF800300E4B0F49AF
:1048E0001B7804AA02A8FFF7FFFB03A8FFF7AAFCA6
:1048F00000F010FB0A4B186001F0B4FD04A901F0B0
:1049000016FB0FB030BD00BF54E50320F2E40320D6
:1049100068E10320549F0D0095E40320629F0D0081
:10492000BCE403207FB57B4C2378013B052B1CD8CE
:10493000DFE813F0C40006004B0039007600960053
:10494000754B1B782BB1754B1B78022B01D0FFF7F1
:10495000A9FF01F08DFC724B724D1B78984206D076
:1049600001F090FC03232860237004B070BD01F0B7
:1049700089FC2B68C01A1D28F2DC6B4B1B784BB9E5
:104980006A4B1B7833B96A4B1B781BB9694B1B7890
:10499000002BEAD001F076FC674B1B68C01A052893
:1049A000E3DD0423E0E75C4B1B782BB15B4B1B780A
:1049B000042B01D0FFF776FFFFF7F8FC18B1FFF7E3
:1049C000C3FE0223D0E70123CEE7534E32782AB14B
:1049D000524B1B78032B01D0FFF764FFFFF7E6FC77
:1049E0000546D8B90123237000F094FA534B1860A0
:1049F0003378002BB9D0FFF7DBFB514B8DF800501B
:104A00001B78504A504902A8FFF76EFB03A8FFF736
:104A100019FC00F07FFA4D4B1860A6E70523A3E7C9
:104A20003D4B1B782BB13D4B1B78052B01D0FFF77D
:104A300039FF00F03DFC68B101F01AFC0C2805D1EB
:104A400000F036FC10B1002000F052FCFFF710FC23
:104A5000062389E70123237000F05CFA374BDBE77C
:104A60002D4B1B782BB12D4B1B78062B01D0FFF75C
:104A700019FF374B1B78002BA3D000F04BFA354BB6
:104A80001B68C01A4AF6C87398427FF66EAF00F0F2
:104A900041FA2A4D304A286000238DF80030284B17
:104AA0002E491B7802A8FFF71FFB03A8FFF7CAFBDC
:104AB0000123237000F02EFA286056E7164B1B786E
:104AC0002BB1164B1B78012B01D0FFF7EBFE00F04A
:104AD00021FA1A4B1B6803F5922303F5787383427E
:104AE000BFF443AF00F0E4FB60B100238DF8003069
:104AF000134B1B4A1B78144902A8FFF7F5FA03A8C9
:104B0000FFF7A0FB4FF4FA6000F09AFC01F01CFBE9
:104B10002BE700BF54E503203CE20320F2E403202E
:104B2000A8E4032098E403208AE50320D9E40320C5
:104B300071E50320C0E4032090E4032010E5032086
:104B400095E40320739F0D00889D0D00BCE40320B5
:104B500060E10320A4E503209D9D0D008D9F0D00C5
:104B6000A69F0D0000B58BB0039001F0CBFA0F4B60
:104B700083ED080AFFF71CFB039906A801F08CFAE5
:104B800000238DF800300A4B069A1B78094904A8C7
:104B9000FFF7AAFA05A8FFF755FB06A801F00EFAE1
:104BA000FFF712FB01200BB05DF804FB18E50320B2
:104BB00095E40320BA9F0D0000B58BB0039001F07F
:104BC000A1FA0F4B83ED090AFFF7F2FA039906A841
:104BD00001F062FA00238DF800300A4B069A1B7828
:104BE000094904A8FFF780FA05A8FFF72BFB06A8E0
:104BF00001F0E4F9FFF7E8FA01200BB05DF804FBDF
:104C000018E5032095E40320CE9F0D0000B58BB07E
:104C1000039001F077FA0F4B83ED0A0AFFF7C8FA09
:104C2000039906A801F038FA00238DF800300A4BEA
:104C3000069A1B78094904A8FFF756FA05A8FFF75A
:104C400001FB06A801F0BAF9FFF7BEFA01200BB08C
:104C50005DF804FB18E5032095E40320BA9F0D00DE
:104C600000B58BB0039001F04DFA0F4B83ED0B0AAA
:104C7000FFF79EFA039906A801F00EFA00238DF8BB
:104C800000300A4B069A1B78094904A8FFF72CFA52
:104C900005A8FFF7D7FA06A801F090F9FFF794FAF4
:104CA00001200BB05DF804FB18E5032095E4032018
:104CB000CE9F0D00114B70B500241C70104B114D90
:104CC00001261E7000F066F90F4800F02BF80F4B1C
:104CD000AB6002202C60AC80AC7100F07BFA0C4A17
:104CE0000C49284601F038FD2146304600F082FA92
:104CF00031460420BDE8704000F0FCB894E4032085
:104D000095E4032084E4032048E503200000FFFF2E
:104D100080E40320D1400D0000F03CB90368C9B223
:104D20009B681847704738B505460C4601F0ECFC07
:104D3000297800F097FF01F0E7FC210AFFF7EEFF6A
:104D400001F0E2FCE1B2FFF7E9FF01F0DDFCBDE8B4
:104D5000384000F08FBF08B543F2A201FFF7E3FF30
:104D6000BDE808400A2000F06BBB38B504460D468C
:104D700001F0CAFC00F044FF20462570FFF7EBFF6E
:104D8000012038BD0A44FF2091420ED011F8013BAA
:104D90005840082310F0800F4FEA400018BF80F001
:104DA0003100013BC0B2F5D1EEE7704700000000D2
:104DB00073B54FF410510546FFF7B5FF4FF4FA7085
:104DC00000F03EFB01F0A0FC2978062200F047FF2E
:104DD00001F09AFC03681B69984706284BD16E4680
:104DE000044601F091FC03685B699847013C14F0AC
:104DF000FF0406F8010B6946F3D102222846FFF7AB
:104E0000C1FF9DF80260864235D102220DF10301F7
:104E10002846FFF7B7FF9DF8056086422BD1BDF805
:104E20000000BDF8034040BA80B201F0EBFD18A3CA
:104E3000D3E9002301F060FE11A3D3E9002301F0C0
:104E400085FF114B002201F09FFC02F00FF9A860D2
:104E500060BA80B201F0D6FD0C4B002201F04CFE8E
:104E600007A3D3E9002301F071FF02F0FFF86860A7
:104E7000012002B070BD0020FBE700BFAFF300804F
:104E800000000000E0FFEF40008046400000594075
:104E90000000000000E0654010B50446FFF788FF01
:104EA00010B194ED020A10BD9FED010AFBE700BFAF
:104EB0000000C07F10B50446FFF77AFF10B194EDF3
:104EC000010A10BD9FED010AFBE700BF0000C07F93
:104ED00000F060B808B5024B1B685B6C019308BD1D
:104EE0004802030008B5024B1B689B6C019308BD88
:104EF0004802030008B5024B1B685B6E019308BDB6
:104F00003402030008B5024B1B685B68019308BDBF
:104F10001802030008B5024B1B685B69019308BDCA
:104F20001802030008B5024B1B689B6A019308BD79
:104F30001802030008B5024B1B681B6B019308BDE8
:104F40001802030008B5024B1B685B6C019308BD97
:104F50001802030008B5024B1B689B6C019308BD47
:104F60001802030008B5024B1B689B6D019308BD36
:104F70001802030008B5024B1B68DB6D019308BDE6
:104F80001802030008B5024B1B685B6E019308BD55
:104F90001802030008B5024B1B681B68019308BD8B
:104FA0002C02030008B5024B1B689B68019308BDE7
:104FB0002C02030008B5024B1B68DB68019308BD97
:104FC0002C02030008B5024B1B681B69019308BD46
:104FD0002C02030008B5024B1B68DB68019308BD77
:104FE0002802030008B5024B1B689B69019308BDAA
:104FF0002802030008B5024B1B68DB69019308BD5A
:105000002802030008B5024B1B681B6A019308BD08
:105010002802030008B5024B1B685B6A019308BDB8
:105020002802030008B5024B1B689B6A019308BD68
:105030002802030008B5024B1B68DB6A019308BD18
:105040002802030008B5024B1B681B6B019308BDC7
:105050002802030008B5024B1B685B6B019308BD77
:105060002802030008B5024B1B681B6C019308BDA6
:105070002802030008B5024B1B681B6D019308BD95
:105080002802030008B5024B1B685B69019308BD49
:105090006402030008B5024B1B689B68019308BDBE
:1050A0006802030008B5024B1B68DB68019308BD6A
:1050B0006802030008B5024B1B68DB69019308BD59
:1050C0003002030008B5024B1B681B6A019308BD40
:1050D0003002030008B5024B1B681B68019308BD32
:1050E0003C02030008B5024B1B68DB68019308BD56
:1050F0003C02030008B5024B1B681B69019308BD05
:105100003C02030008B5024B1B685B69019308BDB4
:105110003C02030008B5024B1B689B69019308BD64
:105120003C02030008B5024B1B68DB69019308BD14
:105130003C02030008B5024B1B681B6A019308BDC3
:105140003C02030008B5024B1B689B6A019308BD33
:105150003C02030008B5024B1B681B68019308BDA5
:105160004C02030008B5024B1B685B68019308BD45
:105170004C02030008B5024B1B681B69019308BD74
:105180004C02030008B5024B1B685B69019308BD24
:105190004C02030008B5024B1B689B69019308BDD4
:1051A0004C02030008B5024B1B68DB69019308BD84
:1051B0004C02030008B5024B1B681B6A019308BD33
:1051C0004C02030008B5024B1B681B68019308BD25
:1051D0002002030008B5024B1B685B68019308BD01
:1051E0002002030008B5024B1B685B69019308BDF0
:1051F0002002030008B5024B1B68DB6A019308BD5F
:105200002002030008B5024B1B68DB6C019308BD4C
:105210002002030008B5024B1B685B6D019308BDBB
:105220002002030008B5024B1B689B6D019308BD6B
:105230002002030008B5034B1B68D3F888300193A4
:1052400008BD00002002030008B5034B1B68D3F81B
:105250009430019308BD00002002030008B5034B01
:105260001B68D3F8B030019308BD00002002030092
:1052700008B5024B1B681B68019308BD440203007C
:1052800008B5024B1B685B68019308BD440203002C
:1052900008B5024B1B689B68019308BD44020300DC
:1052A00008B5024B1B68DB68019308BD440203008C
:1052B00008B5024B1B685B69019308BD44020300FB
:1052C00008B5024B1B68DB69019308BD440203006B
:1052D00008B5024B1B681B6A019308BD440203001A
:1052E00008B5024B1B685B6A019308BD44020300CA
:1052F00008B5024B1B68DB6A019308BD440203003A
:1053000008B5024B1B681B6B019308BD44020300E8
:1053100008B5024B1B68DB6B019308BD4402030018
:1053200008B5024B1B685B68019308BD400203008F
:1053300008B5024B1B689B68019308BD400203003F
:1053400008B5024B1B68DB68019308BD40020300EF
:1053500008B5024B1B681B69019308BD400203009E
:1053600008B5024B1B685B69019308BD400203004E
:1053700008B5024B1B689B69019308BD40020300FE
:1053800008B5024B1B68DB69019308BD40020300AE
:1053900008B5024B1B681B6A019308BD400203005D
:1053A00008B5024B1B681B6B019308BD400203004C
:1053B00008B5024B1B685B6B019308BD40020300FC
:1053C00008B5024B1B681B68019308BD1C02030053
:1053D00008B5024B1B685B68019308BD1C02030003
:1053E00008B5024B1B689B68019308BD1C020300B3
:1053F00008B5024B1B689B69019308BD1C020300A2
:1054000008B5024B1B68DB69019308BD1C02030051
:1054100008B5024B1B68DB6A019308BD1C02030040
:1054200008B5024B1B681B6B019308BD1C020300EF
:1054300008B5024B1B685B6C019308BD1C0203009E
:105440000021FFF7CFBE10B5836804460BB901F009
:105450008CF9C3689847A3681BB1032221462046F4
:10546000984720461021BDE8104001F07AB910B5E8
:105470000446006808B1FFF735FD204610BD0B68F3
:10548000036013B15A6801325A60704710B5064C78
:10549000002320462360FFF71DFD2046034A0449F0
:1054A000BDE8104001F058B9B4E5032080E40320C2
:1054B0006F540D00002240681146FFF749BF0022DB
:1054C00040681146FFF764BF002240681146FFF7AD
:1054D0006FBF40680022FFF763BF4068002281F081
:1054E0000101FFF74DBF002340681A461946FFF738
:1054F0003FBF002340681A461946FFF731BF00221C
:1055000040681146FFF714BF406800220221FFF7F0
:1055100017BF002340681A46FFF702BF084B10B5BB
:10552000282422461846002102F0DCF8054B0480AE
:105530004FF0FF32426004225A60034A1A6010BDE5
:10554000C0E50320B8E5032030A00D00704700201F
:10555000704710B51021044601F003F9204610BD34
:1055600008B5FFF7F6FF08BD10B58368044613B110
:10557000032201469847204610BD30B500224FF661
:105580009C74026084808D888C800C6885800460A7
:105590000A6030BD10B504460068FFF719FF2046C9
:1055A00010BD38B5C468F4B12378022B03D104F1DF
:1055B0000C00FFF7EFFF656835B12846FFF7D4FF11
:1055C0001021284601F0CDF8A56835B12846FFF72F
:1055D000CBFF1021284601F0C4F820461421BDE875
:1055E000384001F0BEB838BD10B588B004466846F2
:1055F00000F02FFD694604A800F04EFD04A8A04766
:10560000044604A800F0DAFC684600F0D7FC204607
:1056100008B010BD1FB50023CDE90201019210248E
:105620001A4669461846ADF80230ADF80040FFF75B
:1056300027FE04B010BD73B50E46044656F8043B71
:1056400000930D4601A83146FFF719FF019A009B10
:105650006260236001A8002301930093FEF7F2FD2E
:105660003046FEF7EFFD2846082101F07AF8204683
:1056700002B070BD13B50B460246D0E900016C467E
:1056800084E8030093E8030082E8030094E8030041
:1056900083E8030002B010BD826810B50AB901F0BA
:1056A00064F8BDE81040C368184708B5006800F109
:1056B0001001FFF7F1FF08BD826810B50AB901F0CB
:1056C00054F8BDE81040C368184708B5006800F1F9
:1056D0001001FFF7F1FF08BD38B500230446036051
:1056E00010200D46FEF7D7FC28B10123C0E9013395
:1056F000024B0360C5602060204638BD64A00D00E9
:1057000038B5002383608B6804460D462BB1022216
:105710009847EB68E360AB68A360204638BD0000A3
:10572000F0B589B004686846FFF727FF4FF0020321
:10573000D4E84F2F002A03D1C4E8413F0029F7D114
:1057400025D104F10C0569462846FFF716FFBFF383
:105750005B8F01236370002004F10803BFF35B8FAC
:1057600053E8006F43E80002002AF9D1BFF35B8FD2
:105770006EB1FFF747FD78B129463046FFF78CFF41
:105780003046FFF7F1FE1021304600F0EAFF684690
:10579000FFF700FF09B0F0BD314602A8FFF7B0FFE8
:1057A000E068B4F9105008B101F0DAFF069010205B
:1057B000ADF81C50FEF76FFC0546E8B10027876086
:1057C0001820FEF768FC044688B10146876002A8ED
:1057D000FFF750FF049BA268A360059B049206A9F3
:1057E000E268E36004F110000592FFF7C6FE084B83
:1057F000EB60084B2C60AB6006A8FFF7CBFE02A85D
:10580000FFF7B2FE002229460348FFF703FDB7E782
:10581000AB560D0041590D0047540D002DE9F047DE
:105820008AB005469DF848900C4617469846FFF703
:105830003FFD07AE824638BB4FF62E73059005A993
:105840003046ADF81830FFF798FE1420FEF723FC21
:10585000044648B1022303700123C0E901AA437042
:1058600031460C30FFF789FE2846214640F8044BAC
:10587000FFF732FF3046FFF78DFE05A8FFF78AFEDF
:1058800028460AB0BDE8F0870C234FF0000A142028
:10589000CDE908AA0793FEF7FEFB014628B1C0E94F
:1058A00001AA80F800A080F801A004A80391FFF7E6
:1058B00013FF224B08930820FEF7EDFB824628B128
:1058C000039B40F8043B04A9FFF7D9FD00965FFA5B
:1058D00089F3424639462046CDF824A0FFF7F8FC6C
:1058E000B8B9039B5B7803F0FF0293B94FF69C7342
:1058F00005A903A80592ADF81830FFF711FF05A818
:10590000FFF748FE05A80999FFF795FE06A8FEF7E0
:1059100099FC039B059304A906A8FFF7B0FD059B1E
:10592000069A2B606A60002306A806930593FEF78B
:1059300089FC04A8FEF786FCA2E700BF055A0D000B
:10594000022AF8B5054607D0032A18D0012A01D14A
:105950000B6803600020F8BD18200E68FEF79BFB63
:10596000044650B13146FFF7CBFE3069B6F91470EA
:1059700008B101F0F5FE2061A7822C60EAE7046817
:10598000002CE7D004F11000FFF704FE2046FFF7DB
:10599000EBFD1821204600F0E4FEDBE738B50023DC
:1059A00083608B6804460D462BB102229847EB6852
:1059B000E360AB68A360204638BD022A70B5044698
:1059C00007D0032A12D0012A01D10B6803600020FE
:1059D00070BD14200E68FEF75EFB054620B131460F
:1059E000FFF7DCFF337C2B742560F0E70468002CA4
:1059F000EDD02046FFF7B8FD1421204600F0B1FE9F
:105A0000E5E70000F0B589B004460D4601A811464F
:105A1000FFF711FEA4B124B21DB1284601F0A0FE8B
:105A2000054601A803A90395ADF81040FFF778FEDD
:105A300003A8FFF7AFFD02A8FEF704FC09B0F0BD14
:105A4000019D0123D5E84F2F002A03D1C5E8413F2E
:105A50000029F7D1EFD12B73BFF35B8F6B702B1D38
:105A6000BFF35B8F53E8006F43E80042002AF9D18F
:105A7000BFF35B8F002EDED02046FFF7C3FB074647
:105A800060B105F10C013046FFF716FE3046FFF716
:105A90006BFD1021304600F064FECCE7314603A8D0
:105AA000FFF77CFF2B7B8DF81C301020FEF7F3FAFC
:105AB0000546D0B187601420FEF7EDFA044678B1B0
:105AC0008760014603A8FFF7D5FD059BA268A36088
:105AD000069B0592E268E3609DF81C3006922374F1
:105AE000064BEB60064B2C60AB6003A8FFF73CFD58
:105AF000002229460348FFF78DFBC7E7CB560D0070
:105B0000BB590D0047540D00002240681146FFF7B5
:105B10003FBC002240681146FFF74ABC40680022A3
:105B2000FFF73EBC4068002281F00101FFF728BC6E
:105B3000002340681A461946FFF71ABC0023406844
:105B40001A461946FFF70CBC002240681146FFF7C1
:105B5000FFBB002240681146FFF7EABB4068002205
:105B60000221FFF7EDBB002340681A46FFF7D8BBC0
:105B7000024B03225A60024A1A607047E8E503208C
:105B800080A00D007047F8B5064615460C468F18E4
:105B9000BC4206D0336814F8011B9B683046984716
:105BA000F6E72846F8BD007C0022FFF72BBA007C00
:105BB0000021FFF72FBA007C0021FFF733BA007CE9
:105BC0000021FFF737BA007C0021FFF73BBA10B580
:105BD0001421044600F0C5FD204610BD10B54FF459
:105BE0007A73044608460021C4E90113034B23607D
:105BF00020741146FFF736FA204610BDB4A00D0000
:105C00000023007C1A461946FFF7E4B97FB500224D
:105C10001423CDE90122ADF804300B788DF808305B
:105C20004B680393CB680493007C0B7A059301A91E
:105C3000FFF720FA07B05DF804FB1FB5003B8DF8B5
:105C400000104FF06401039118BF012369460192CF
:105C50008DF80830FFF7DAFF05B05DF804FB01238B
:105C6000FFF7EBBF007C0022FFF7BCB9007C0022ED
:105C7000FFF7C0B90121FFF7F9BF704710B5182130
:105C8000044600F06EFD204610BDF0B5037D062BE6
:105C90008DB00E4600F104074FF0000412D000F161
:105CA000080515F8011D0A22304600F04AF9AF42F6
:105CB000044419D0002CF4D02E21304600F028F9ED
:105CC0000444EEE72F236A4639460A208DF8004047
:105CD000FFF7D8F9684601F060FD33680246DB68DB
:105CE000694630469847044620460DB0F0BD000096
:105CF00010B5054B0446112240F8043B002101F089
:105D0000F1FC204610BD00BFDCA00D000346074A91
:105D100010B543F8042B01F1100251F8044B43F87D
:105D2000044B9142F9D10A781A7010BDDCA00D0025
:105D300010B59DF8084044EA032343EA024242EAD0
:105D4000016104234160037510BD13B5CB78009346
:105D50008B784A780978FFF7EBFF02B010BD00009E
:105D6000014B024A1A607047F0E50320E8A00D00DD
:105D7000002340681A46FFF7D3BA40680022022188
:105D8000FFF7DEBA002240681146FFF7D1BA0022C1
:105D900040681146FFF7DCBA002340681A461946EE
:105DA000FFF7DEBA002340681A461946FFF7E0BA4B
:105DB0004068002281F00101FFF7E2BA406800224A
:105DC000FFF7EEBA002240681146FFF7F1BA002251
:105DD00040681146FFF7DCBA2DE9F043002495B086
:105DE00016460D460746FFF783FF214618220EA8E8
:105DF000009401F077FC4023CDE90C3421466B463A
:105E00000CAA3046FFF74EF90446002846D1024658
:105E100001216868FFF79CFA0221804622466868E3
:105E2000FFF796FA009E81462146002E36D00029C3
:105E300034D17368022B03D00A2B0BD0F669F4E738
:105E4000B8F1000F04D0716938460431FFF77DFFC7
:105E50004146F3E7B9F1000F01D14946EEE7746915
:105E6000102201A801F03EFC06238DF8143001AD8C
:105E700004F108031834186859682A4603C2083325
:105E8000A3421546F7D101A906A807ADFFF73EFFCB
:105E90000FCD3C1D0FC42B682370DEE70098FFF781
:105EA000F9F8384615B0BDE8F0830000024B034A0C
:105EB0001A6000225A607047F4E50320F4A00D0038
:105EC000F8B506460D468F180024BD420CD0336845
:105ED00015F8011B9B6830469847031E01DB1C44E4
:105EE000F3E7002C08BF1C462046F8BD13B5044656
:105EF000084659B1019101F050FC23680199DB6813
:105F00000246204602B0BDE81040184702B010BD5E
:105F100003689B68184738B50D210546FFF7F8FF61
:105F20000A2104462846FFF7F3FF204438BD38B560
:105F30000546FFF7DBFF04462846FFF7ECFF204449
:105F400038BD30B58BB000238DF82430012A98BFBE
:105F50000A2209AC0D46B1FBF2F101FB125303F02A
:105F6000FF03092B94BF30333733DBB2AA4204F866
:105F7000013DEFD92146FFF7B9FF0BB030BD10B599
:105F80000446FFF7F1FA204610BD00000348044A1A
:105F900004490023836000F0DFBB00BFFCE5032061
:105FA00080E403207F5F0D0010B504460846217091
:105FB000FFF780F800236360204610BD10B504464B
:105FC0000068FFF705FA204610BD10B504460068CA
:105FD00008B1FFF7FDF90023C4E90133236010BDC8
:105FE00038B504460D4600680131FFF7F9F910B1E4
:105FF000C4E90005012038BD10B50368044623B18B
:1060000043688B4201D3012010BD2046FFF7E8FF13
:106010000028F9D0A368002BF5D122681370F2E7AD
:1060200037B50D46114601920446FFF7E5FF019A88
:1060300028B92046FFF7C9FF204603B030BDA26053
:106040002946206801F040FB2268A3680021D15452
:10605000F2E7002313B5C0E90033044683600373FD
:1060600041B10846019101F098FB01990246204692
:10607000FFF7D6FF204602B010BD884210B5044697
:1060800005D00B682BB18A681946FFF7C9FF204677
:1060900010BDFFF79AFFFAE710B500230446C0E9E8
:1060A000003383600373FFF7E8FF204610BD08B597
:1060B00082683AB921B10878B0FA80F0400900E06E
:1060C000012008BD006809B90078F5E701F036FB4A
:1060D000F2E758B50E462AB121B184689C4202D835
:1060E00000230B7058BDE41A013A0168944228BF9E
:1060F000144619442246304601F069FB002333550B
:10610000F0E7000008B5006840B101F0D1F951ECAA
:10611000100B00F0ABFF00EE100A08BD9FED010A66
:10612000FBE700BF0000000007B50B460021024658
:10613000009101208C21FFF791F803B05DF804FB7A
:1061400001460020FFF7F0BF0020FFF7F9BF000075
:1061500010B5094B094C022200201A60084B206040
:10616000A080A071A360FFF735F82046054A0649D4
:10617000BDE8104000F0F0BA18E603200CE603205A
:106180000000FFFF80E40320D1400D002DE9F04125
:10619000154ADFF86080D2E90032C01842EB0101F5
:1061A000124AD2E90032C61841EB0207D8E90023AF
:1061B000BB4208BFB2428CB013D003A96846CDE9F8
:1061C000006701F08BF9089B094D03F26C7303AC77
:1061D00008930FCC0FC50FCC0FC5C8E90067236823
:1061E0002B600CB0BDE8F08150E6032048E60320A8
:1061F00020E6032058E6032008B50020FFF780F8CA
:1062000028B1FFF755F880F00100C0B208BD0120A9
:10621000FCE710B50020FEF7A5FE0446A0B9FEF786
:10622000D1FF012810D12046FEF7FCFF60B9FFF72F
:10623000E3FF10B9FFF72CF8F9E7FFF7DDFFBDE842
:1062400010400020FEF78EBE204610BD1FB5FFF7A0
:10625000E0FF10220021684601F044FA0021684660
:10626000FEF790FEDDE9000105B05DF804FB0000DB
:1062700008B5FFF7EBFFFFF789FF014B986808BDF2
:1062800020E6032008B5FFF7E1FFFFF77FFF014B92
:10629000586808BD20E60320024B1A68024B1A60BA
:1062A000704700BF40E203201CE6032070474174A2
:1062B000704708B5007CFEF745FF20EAE07008BD96
:1062C00008B5007CFEF716FF20EAE07008BD08B5AF
:1062D000007CFEF71FFF40EAE07008BD08B5007CB7
:1062E000FEF710FF40EAE07008BD007CFEF71ABF21
:1062F00037B5457C04462DB1207C03B0BDE8304065
:10630000FEF7F0BE007C0191FEF71CFF002801990A
:10631000F2DC284603B030BD10B51421044600F06D
:1063200020FA204610BD000010B54FF0000C0446C6
:10633000084611464FF47A72C4E901C2044A226049
:106340000122207462741A46FEF7C4FE204610BD76
:1063500044A10D0013B50E4C2178BFF35B8F11F0F3
:10636000010112D120460191FDF79BFE019960B118
:10637000084A094B0948FFF7D7FF2046FDF796FE6C
:10638000074A0849054800F0E7F9044802B010BD83
:1063900060E6032064E60320E8E603206CE70320C0
:1063A00080E40320AD620D0041747047704708B56A
:1063B0000021007CFEF7EEFE40EAE07008BD08B563
:1063C0000121007CFEF7E6FE40EAE07008BD08B55A
:1063D000007CFEF7D7FE20EAE07008BD08B5007C1F
:1063E000FEF7C8FE20EAE07008BD13B50446007C45
:1063F0000191FEF7C7FE0028019901DC607C20B105
:10640000207CFEF7CFFE20EAE07002B010BD007CD9
:10641000FEF7D0BE10B51421044600F0A2F92046C4
:1064200010BD000010B54FF47A73044608460021F1
:10643000C4E90113044B23600123207463741146E3
:10644000FEF788FE204610BD74A10D00007C0022DE
:10645000FEF788BE10B514220446002101F042F96F
:10646000204610BD10B5104C88B003A8FFF7F2FF0E
:106470002178BFF35B8F11F0010111D1204601910A
:10648000FDF70FFE019958B103AA0848FFF7CAFFAC
:106490002046FDF70BFE064A0649044800F05CF969
:1064A000024808B010BD00BF80E7032084E7032046
:1064B00080E40320AD630D00014B1860704700BFFE
:1064C00044E2032008B50B4B43B1FFF7CBFF036851
:1064D0001B699847002801DDAFF30080064B43B1EC
:1064E000FFF738FF03681B699847002801DDAFF309
:1064F000008008BD000000000000000008B5FFF7A4
:10650000E1FFFEF707FD014B186008BDA0E703207F
:106510000248034A0349121A01F0D6B800F40320D6
:1065200004F40320E8A40D0007B5002300931A46E5
:106530006FF07701FEF788FE03B05DF804FB000002
:1065400007B543880A2B08D0502B0BD1094B1B6889
:106550004BB103B05DF804EB1847FFF7E5FF03B05C
:106560005DF804FB002300931A466FF07701FEF7F5
:106570006BFEF4E79CE7032038B5124C1248134D2C
:106580000021FEF755FF2368AB42114B0CBF0122DF
:1065900000221A7002D0FFF7BBFF2560FEF7B2FCA5
:1065A000044601F0A7F80B4B13B12046AFF300806F
:1065B00000210848FEF7ACFEBDE83840064800213F
:1065C000FEF738BE00F40320B9640D001E1C279AA4
:1065D00098E703200000000041650D00232813B553
:1065E00002D9002002B010BDA0F10B03022B1AD873
:1065F000174C2178BFF35B8F11F001010BD12046BE
:106600000191FDF74EFD019928B11248FFF7CCFC2E
:106610002046FDF74BFD0F4B1878FEF753FD002881
:10662000DFD10120DEE7012809D800F06DF8002154
:10663000007CFEF70FFD80F00100C0B2D2E7093800
:106640000128EED8FFF786FE007CFEF773FDF2E727
:10665000A8E50320ACE50320232838B504460D4601
:106660000AD8FF2908D0FFF7B9FF28B129462046EC
:10667000BDE83840FEF796BC38BD38B504460D4637
:10668000FEF798FCFF2810D0062804D84D2323FAE3
:1066900000F0C30709D42046FFF7A0FF28B1294620
:1066A0002046BDE83840FEF78DBC38BD10B5084C1B
:1066B0002378BFF35B8FDB0708D42046FDF7F1FC9E
:1066C00020B1FEF72FFC2046FDF7F0FC014810BD7D
:1066D000A4E70320A8E7032038B500232025438042
:1066E000142304460380856005610649284600F0AE
:1066F0003AF804496060284600F035F8E06020462A
:1067000038BD00BF9CA10D0030B50F4D2978BFF3F7
:106710005B8F11F0010487B013D12846FDF7C1FC4F
:1067200078B101A8FFF7D8FF01AA21460748FFF773
:1067300055FA2846FDF7BAFC054A0649034800F019
:106740000BF8024807B030BDACE70320B0E70320E8
:1067500080E40320855B0D000B460146184600F0DF
:10676000AFBEFDF79CBCFDF798BC08B5FEF750FE28
:106770009FED010B704700BF000000000000F87F94
:1067800081F0004102E000BF83F0004330B54FEAE2
:1067900041044FEA430594EA050F08BF90EA020F4F
:1067A0001FBF54EA000C55EA020C7FEA645C7FEAE2
:1067B000655C00F0E2804FEA5454D4EB5555B8BF05
:1067C0006D420CDD2C4480EA020281EA030382EA76
:1067D000000083EA010180EA020281EA0303362D08
:1067E00088BF30BD11F0004F4FEA01314FF4801CDB
:1067F0004CEA113102D0404261EB410113F0004FED
:106800004FEA03334CEA133302D0524263EB4303A3
:1068100094EA050F00F0A780A4F10104D5F1200E41
:106820000DDB02FA0EFC22FA05F2801841F100019C
:1068300003FA0EF2801843FA05F359410EE0A5F170
:1068400020050EF1200E012A03FA0EFC28BF4CF0A1
:10685000020C43FA05F3C01851EBE37101F0004557
:1068600007D54FF0000EDCF1000C7EEB00006EEB64
:106870000101B1F5801F1BD3B1F5001F0CD34908EE
:106880005FEA30004FEA3C0C04F101044FEA445245
:1068900012F5800F80F09A80BCF1004F08BF5FEACC
:1068A000500C50F1000041EB045141EA050130BDAC
:1068B0005FEA4C0C404141EB0101013C28BFB1F5BE
:1068C000801FE9D291F0000F04BF01460020B1FA09
:1068D00081F308BF2033A3F10B03B3F120020CDADC
:1068E0000C3208DD02F1140CC2F10C0201FA0CF0BA
:1068F00021FA02F10CE002F11402D8BFC2F1200C1F
:1069000001FA02F120FA0CFCDCBF41EA0C019040D4
:10691000E41AA2BF01EB0451294330BD6FEA04041D
:106920001F3C1CDA0C340EDC04F11404C4F1200208
:1069300020FA04F001FA02F340EA030021FA04F31A
:1069400045EA030130BDC4F10C04C4F1200220FA71
:1069500002F001FA04F340EA0300294630BD21FAAF
:1069600004F0294630BD94F0000F83F4801306BF75
:1069700081F480110134013D4EE77FEA645C18BF69
:106980007FEA655C29D094EA050F08BF90EA020F00
:1069900005D054EA000C04BF1946104630BD91EAF8
:1069A000030F1EBF0021002030BD5FEA545C05D1FB
:1069B0004000494128BF41F0004130BD14F580043A
:1069C0003CBF01F5801130BD01F0004545F0FE41AE
:1069D00041F470014FF0000030BD7FEA645C1ABFE3
:1069E000194610467FEA655C1CBF0B46024650EA1A
:1069F000013406BF52EA033591EA030F41F4002146
:106A000030BD00BF90F0000F04BF0021704730B5CB
:106A10004FF4806404F132044FF000054FF00001A0
:106A200050E700BF90F0000F04BF0021704730B561
:106A30004FF4806404F1320410F0004548BF404236
:106A40004FF000013EE700BF42004FEAE2014FEA8B
:106A500031014FEA02701FBF12F07F4393F07F4F66
:106A600081F06051704732F07F4208BF704793F069
:106A70007F4F04BF41F40021704730B54FF460747C
:106A800001F0004521F000411CE700BF50EA01027F
:106A900008BF704730B54FF000050AE050EA010228
:106AA00008BF704730B511F0004502D5404261EB98
:106AB00041014FF4806404F132045FEA915C3FF4D9
:106AC000D8AE4FF003025FEADC0C18BF03325FEA76
:106AD000DC0C18BF033202EBDC02C2F1200300FA27
:106AE00003FC20FA02F001FA03FE40EA0E0021FA4C
:106AF00002F11444BDE600BF70B54FF0FF0C4CF43A
:106B0000E06C1CEA11541DBF1CEA135594EA0C0FEB
:106B100095EA0C0F00F0DEF82C4481EA030621EA26
:106B20004C5123EA4C5350EA013518BF52EA033561
:106B300041F4801143F4801338D0A0FB02CE4FF013
:106B40000005E1FB02E506F00042E0FB03E54FF043
:106B50000006E1FB03569CF0000F18BF4EF0010E3B
:106B6000A4F1FF04B6F5007F64F5407404D25FEA37
:106B70004E0E6D4146EB060642EAC62141EA5551EA
:106B80004FEAC52040EA5E504FEACE2EB4F1FD0C2C
:106B900088BFBCF5E06F1ED8BEF1004F08BF5FEAAA
:106BA000500E50F1000041EB045170BD06F000465C
:106BB00046EA010140EA020081EA0301B4EB5C0409
:106BC000C2BFD4EB0C0541EA045170BD41F4801101
:106BD0004FF0000E013C00F3AB8014F1360FDEBF26
:106BE000002001F0004170BDC4F10004203C35DA02
:106BF0000C341BDC04F11404C4F1200500FA05F385
:106C000020FA04F001FA05F240EA020001F0004225
:106C100021F0004110EBD37021FA04F642EB06019B
:106C20005EEA430E08BF20EAD37070BDC4F10C04C5
:106C3000C4F1200500FA04F320FA05F001FA04F289
:106C400040EA020001F0004110EBD37041F1000175
:106C50005EEA430E08BF20EAD37070BDC4F1200580
:106C600000FA05F24EEA020E20FA04F301FA05F2E8
:106C700043EA020321FA04F001F0004121FA04F290
:106C800020EA020000EBD3705EEA430E08BF20EA60
:106C9000D37070BD94F0000F0FD101F0004640009A
:106CA00041EB010111F4801F08BF013CF7D041EA1C
:106CB000060195F0000F18BF704703F00046520020
:106CC00043EB030313F4801F08BF013DF7D043EAF1
:106CD0000603704794EA0C0F0CEA135518BF95EAA7
:106CE0000C0F0CD050EA410618BF52EA4306D1D12E
:106CF00081EA030101F000414FF0000070BD50EA4D
:106D0000410606BF1046194652EA430619D094EAD6
:106D10000C0F02D150EA013613D195EA0C0F05D1C0
:106D200052EA03361CBF104619460AD181EA030114
:106D300001F0004141F0FE4141F470014FF00000CC
:106D400070BD41F0FE4141F4780170BD70B54FF067
:106D5000FF0C4CF4E06C1CEA11541DBF1CEA1355E7
:106D600094EA0C0F95EA0C0F00F0A7F8A4EB0504C9
:106D700081EA030E52EA03354FEA013100F08880C0
:106D80004FEA03334FF0805545EA131343EA126389
:106D90004FEA022245EA111545EA10654FEA00263E
:106DA0000EF000419D4208BF964244F1FD0404F5F7
:106DB000407402D25B084FEA3202B61A65EB030553
:106DC0005B084FEA32024FF480104FF4002CB6EB10
:106DD000020E75EB030E22BFB61A754640EA0C0090
:106DE0005B084FEA3202B6EB020E75EB030E22BFD0
:106DF000B61A754640EA5C005B084FEA3202B6EB11
:106E0000020E75EB030E22BFB61A754640EA9C00CF
:106E10005B084FEA3202B6EB020E75EB030E22BF9F
:106E2000B61A754640EADC0055EA060E18D04FEA5D
:106E3000051545EA16754FEA06164FEAC30343EAFD
:106E400052734FEAC2025FEA1C1CC0D111F4801FCA
:106E50000BD141EA00014FF000004FF0004CB6E7C3
:106E600011F4801F04BF01430020B4F1FD0C88BF62
:106E7000BCF5E06F3FF6AFAEB5EB030C04BFB6EB6D
:106E8000020C5FEA500C50F1000041EB045170BD60
:106E90000EF0004E4EEA113114EB5C04C2BFD4EB8D
:106EA0000C0541EA045170BD41F480114FF0000E11
:106EB000013C90E645EA060E8DE60CEA135594EA8D
:106EC0000C0F08BF95EA0C0F3FF43BAF94EA0C0F90
:106ED0000AD150EA01347FF434AF95EA0C0F7FF405
:106EE00025AF104619462CE795EA0C0F06D152EA59
:106EF00003353FF4FDAE1046194622E750EA41063D
:106F000018BF52EA43067FF4C5AE50EA41047FF44D
:106F10000DAF52EA43057FF4EBAE12E74FF0FF3CB2
:106F200006E000BF4FF0010C02E000BF4FF0010C83
:106F30004DF804CD4FEA410C7FEA6C5C4FEA430CFC
:106F400018BF7FEA6C5C1BD001B050EA410C0CBF4B
:106F500052EA430C91EA030F02BF90EA020F0020AD
:106F6000704710F1000F91EA030F58BF994208BF14
:106F700090422CBFD8176FEAE37040F001007047D1
:106F80004FEA410C7FEA6C5C02D150EA013C07D128
:106F90004FEA430C7FEA6C5CD6D152EA033CD3D073
:106FA0005DF8040B704700BF8446104662468C466D
:106FB0001946634600E000BF01B5FFF7B7FF0028A0
:106FC00048BF10F1000F01BD4DF808EDFFF7F4FFC9
:106FD0000CBF012000205DF808FB00BF4DF808ED54
:106FE000FFF7EAFF34BF012000205DF808FB00BF77
:106FF0004DF808EDFFF7E0FF94BF012000205DF899
:1070000008FB00BF4DF808EDFFF7CEFF94BF01204D
:1070100000205DF808FB00BF4DF808EDFFF7C4FF46
:1070200034BF012000205DF808FB00BF4A0011D2E8
:1070300012F5001211D20DD56FF47873B3EB6252D2
:107040000ED44FEAC12343F0004343EA505323FADE
:1070500002F070474FF00000704750EA013002D153
:107060004FF0FF3070474FF0000070474FEA410289
:10707000B2F1E04324BFB3F5001CDCF1FE5C0DD996
:1070800001F0004C4FEAC0024CEA5070B2F1004FE0
:1070900040EB830008BF20F00100704711F0804FE3
:1070A00021D113F13872BCBF01F00040704741F4A8
:1070B00080114FEA5252C2F11802C2F1200C10FAAC
:1070C0000CF320FA02F018BF40F001004FEAC12390
:1070D0004FEAD32303FA0CFC40EA0C0023FA02F334
:1070E0004FEA4303CCE77FEA625307D150EA01330A
:1070F0001EBF4FF0FE4040F44000704701F00040DA
:1071000040F0FE4040F40000704700BF7BB972B908
:107110000029BEBF00204FF0004106E008BF002854
:107120001CBF6FF000414FF0FF3000F0BFB9ADF170
:10713000080C6DE904CE002909DB002B1ADB00F0F6
:1071400053F8DDF804E0DDE9022304B07047404263
:1071500061EB4101002B1BDB00F046F8DDF804E099
:10716000DDE9022304B0404261EB4101524263EB8E
:1071700043037047524263EB430300F035F8DDF8F8
:1071800004E0DDE9022304B0404261EB41017047B5
:10719000524263EB430300F027F8DDF804E0DDE939
:1071A000022304B0524263EB43037047D0B50C4B4B
:1071B000002206460F46FFF79FFCFFF737FF044605
:1071C000FFF720FC074B0022FFF796FC02460B4618
:1071D00030463946FFF7D8FAFFF728FF2146D0BDE1
:1071E0000000F03D0000F0412DE9F047089D044605
:1071F0008C46002B40F083808A42174647D9B2FA6A
:1072000082F242B1C2F1200024FA00F0914097408E
:1072100040EA010C94404FEA1748230CBCFBF8F6F7
:107220001FFA87FE08FB16C143EA014306FB0EF175
:10723000994209D9FB1806F1FF3080F01981994273
:1072400040F21681023E3B445B1AA4B2B3FBF8F055
:1072500008FB103344EA034400FB0EFEA64509D99F
:107260003C1900F1FF3380F00581A64540F2028110
:1072700002383C4440EA0640A4EB0E0400261DB14F
:10728000D4400023C5E900433146BDE8F08702B988
:10729000FFDEB2FA82F2002A50D1CB1B4FEA174E22
:1072A0001FFA87F80126B3FBFEFC210C0EFB1C33F2
:1072B00041EA034108FB0CF38B4207D979180CF122
:1072C000FF3002D28B4200F2E9808446C91AA3B291
:1072D000B1FBFEF00EFB101143EA014408FB00F87D
:1072E000A04507D93C1900F1FF3302D2A04500F2B6
:1072F000D9801846A4EB080440EA0C40BFE78B4253
:1073000009D9002D00F0B1800026C5E90001304602
:107310003146BDE8F087B3FA83F6002E4AD18B429E
:1073200002D3824200F2B880841A61EB030101208B
:107330008C46002DA8D0C5E9004CA5E7C2F120037A
:1073400020FA03F6974001FA02F04FEA174ED940AF
:107350003043030CB1FBFEF61FFA87F80EFB161143
:1073600043EA014306FB08F1994204FA02F409D901
:10737000FB1806F1FF3C80F08D80994240F28A8034
:10738000023E3B445B1A81B2B3FBFEF00EFB1033AE
:1073900041EA034100FB08F38B4207D9791800F159
:1073A000FF3C73D28B4271D902383944CB1A40EA80
:1073B000064678E7C6F1200C03FA06F422FA0CF32D
:1073C0001C4320FA0CF701FA06F34FEA144E21FA97
:1073D0000CF11F433B0CB1FBFEF91FFA84F80EFBC6
:1073E000191143EA014109FB08FA8A4502FA06F23B
:1073F00000FA06F308D9611809F1FF3048D28A452E
:1074000046D9A9F102092144A1EB0A01BFB2B1FB9F
:10741000FEF00EFB101147EA014700FB08F8B845E3
:1074200007D9E71900F1FF312ED2B8452CD902381F
:10743000274440EA0940A7EB0807A0FB02894F4513
:10744000C64649461AD317D05DB1B3EB0E0267EBBF
:10745000010707FA0CFCF2404CEA0202F740C5E9CA
:10746000002700263146BDE8F0872E4628460BE768
:107470000646E9E61846FDE64345E5D2B8EB020EBE
:1074800069EB04010138DFE70846D2E760468DE783
:107490008146B9E7664675E730464AE7ACF1020C2B
:1074A000394413E702383C4424E700BF704700BF6B
:1074B000002100F0C7BF0A22002101F049B80000F6
:1074C00010B5054C13462CB10A4601460220AFF315
:1074D000008010BD2046FCE7000000002DE9F341CC
:1074E0000746019101F09AFE01998046384601F065
:1074F00099FE43699A07044603F26C7605D164222B
:1075000096FBF2F302FB13637BBB4FF4C87396FB4D
:10751000F3F503FB1565B5FA85F56D09684B302267
:1075200002FB053501F04CF901F056F9654B1B687B
:1075300053B3D8F80430B34219D1D8F80010D7E9C2
:107540000067D8E90823D1B9964277EB030323DA21
:10755000D8E91223964277EB0303B4BF012300233B
:1075600023621BDBD8F828101AE00125D6E7304645
:1075700001F07EF80028E0D14FF0FF3304E096429E
:1075800077EB030302DA00232362EBE7D8E9122347
:10759000964277EB0303F6DA01232362D8F8501002
:1075A0004FF461633C2091FBF3F603FB1613616813
:1075B00093FBF0F200FB12302368891AA268616025
:1075C0001B1A921B3B2B2360A26035DD01316160E9
:1075D0003C3B236063683B2B34DD0132A2603C3BC3
:1075E0006360A368172B33DDE2690132E261A269AF
:1075F0000132062AC8BF0022A261E268183B0132AC
:10760000A3602369E26055F823108A420EDD0B2B3C
:10761000A2EB0102E26003F1010209BF636922618A
:107620000022013302BF22616361E26101F0CEF802
:10763000204602B0BDE8F081002BCBDA0139616051
:107640003C33C6E7002BCCDA013AA2603C33C7E7F3
:10765000002BEBDAE269013AE261A269013A48BF24
:107660000622A261E2681833013AE260A360002AB0
:10767000DCD12369013B05D42361236955F823300C
:10768000E360D3E70B23236163695A1E626103F24F
:107690006B72930705D1642192FBF1F301FB132375
:1076A00063B94FF4C87192FBF1F301FB1323B3FAF2
:1076B00083F35B0903F5B673E361DEE70123F9E7C2
:1076C000A0A10D00E0E703200A44914200F1FF333E
:1076D00000D1704710B511F8014B03F8014F9142EA
:1076E000F9D110BD02440346934200D1704703F81C
:1076F000011BF9E738B50D4B1D68AB6B04467BB930
:107700001820FDF75DFE0A4A0A4BA863C0E9002372
:10771000094B83600B23838101220023C0E90423EA
:10772000AB6B00221C615A6138BD00BF44E20320EC
:107730000E33CDAB34126DE6ECDE050010F8012BF4
:1077400011F8013B012A28BF9A42F7D0D01A70479E
:10775000034611F8012B03F8012B002AF9D17047D9
:10776000024B0146186800F003B800BF44E2032052
:1077700037B5044608460D4600F00FF8421C114686
:1077800020460192FDF74CFE044618B1019A2946A5
:10779000FFF79AFF204603B030BD034613F8012BD4
:1077A000002AFBD1181A0138704710B56AB10139A7
:1077B000841810F8013B11F8012F934203D1A04225
:1077C00001D0002BF5D1981A10BD1046FCE710B57A
:1077D0000139034632B111F8014F03F8014B013A68
:1077E000002CF7D11A440021934200D110BD03F8B8
:1077F000011BF9E770B504460D4645EC104B1646E3
:1078000002F0D2F851EC100B7EB1C5F30A53C3F16C
:107810006B03002B09DD1B0503F17F55002405F5E3
:10782000401522462B46FFF767F970BD00000000A7
:107830002DE9F04FA3B01F4600231E93A44B1992CD
:107840001B680793044618468846FFF7A6FF4FF0CB
:10785000000A05464FF0000BCDF874801D9B1A7886
:107860002B2A4CD039D80D2A32D8082A32D8002AEF
:107870003CD000230E931D9E3378302B40F0B48013
:10788000737803F0DF03582B6CD10E9B01931EAB72
:10789000029700938F4A1FAB1DA9204601F086F97D
:1078A00010F00707054605D0062F2AD10136002320
:1078B0001D960E93199B002B40F096850E9BDBB115
:1078C00052460BF1004343EC102B23B0BDE8F08F80
:1078D000202ACED101331D93C0E72D2AC9D1012220
:1078E0000E925A1C1D925B78002BC4D1199BCDF8C7
:1078F0007480002B40F0768552465B46E3E7002219
:10790000EEE71E9A3AB1352120A802F04CF91E99F3
:10791000204601F081FD013F052F07D8DFE807F081
:107920000E0B181D0E034FF0000BDA462807C1D5C9
:107930004BF0004BBEE7DDE920ABF7E7DDE920A324
:107940001F9A23F4801302F2334243EA025BEDE70D
:10795000DFF884B14FF0000AE8E76FF0004B4FF01A
:10796000FF3AE3E71D9B5A1C1D925B78302BF9D040
:10797000002B9FD001234FF0000904931D9B0A9315
:10798000CDF824904F460A221D980678A6F13003C0
:10799000D9B209292AD907992A46FFF706FF98B3D1
:1079A000002033463D4607900246652B01D0452B0B
:1079B00018D11DB9049B034398D00025DDF87480CD
:1079C00008F101031D9398F801302B2B75D02D2B56
:1079D0007BD04FF0000CA3F13001092940F28280E6
:1079E000CDF8748000269DE00023C4E7082FD8BF9F
:1079F000099900F10100DABF02FB0133099302FB90
:107A0000093901371D90BFE71D9B5A191D925B5D17
:107A1000002F37D007903D46A3F13002092A12D932
:107A20000122C2E71D9B5A1C1D925B780130302B4E
:107A3000F8D0A3F13102082A00F2DB841D9A0790E6
:107A400000200A920546303B00F1010214D007994C
:107A5000114407912A4600EB050E0A21724513D105
:107A60002A18082A05F1010505441CDC09990A2297
:107A700002FB0133099300221D9B591C1D915B7869
:107A80001046C9E73846D2E7082A04DC099E4E436F
:107A900009960132E2E702F1010CBCF1100FD8BFE8
:107AA00001FB09F9F5E7102DDCBF0A2202FB0939B9
:107AB000E1E70023079301227CE74FF0000C08F177
:107AC00002031D9398F8023085E74FF0010CF6E7AA
:107AD000A0A30D000CA20D000000F07F1D9B591CFF
:107AE0001D915B78302BF9D0A3F1310108293FF6C5
:107AF00079AFA3F1300E1D9B08931D9B591C1D915E
:107B00005B78A3F13006092E37D9089E891B082916
:107B100044F61F6602DC7645A8BF7646BCF1000F2E
:107B200000D07642002D4FD1049901437FF4C2AEBC
:107B3000002A7FF4DBAE692B27D024DC492B24D02C
:107B40004E2B7FF4D3AE9E491DA801F075FA002894
:107B50003FF4CCAE1D9B1B78282B2DD1994920AA30
:107B60001DA801F07DFA052826D1219BDDF880A013
:107B700043F0FF4B4BF4E00B9CE60A2101FB0E3E69
:107B8000AEF1300EB9E76E2BDBE78F491DA801F08F
:107B900053FA00283FF4AAAE1D9B8C49013B1DA857
:107BA0001D9301F049FA10B91D9B01331D93DFF8B5
:107BB0002CB24FF0000A7DE68548FEF7D9FD8DED29
:107BC000040BDDE904AB75E6079B0998F31A002F57
:107BD00008BF2F46102D0893A846A8BF4FF01008E5
:107BE000FEF710FF092D82468B4613DD794B03EB20
:107BF000C80353E91223FEF77FFF824648468B46AF
:107C0000FEF700FF02460B4650465946FEF7BEFD02
:107C100082468B460F2D38DC089B002B3FF44AAE82
:107C200024DD162B0BDC6B4D05EBC305D5E90001FC
:107C300052465B46FEF760FF82468B463AE6089A5C
:107C4000C5F12503934220DB624CC5F10F0504EB1F
:107C5000C50152465B46D1E90001FEF74DFF089B86
:107C60005D1B04EBC504D4E90023E3E7089B16334E
:107C70000BDB079B574A9E1B02EBC606D6E9002387
:107C800050465946FFF762F8D6E7089BA5EB08086F
:107C90009844B8F1000F71DD18F00F030AD04D4978
:107CA00001EBC30152465B46D1E90001FEF724FF18
:107CB00082468B4638F00F084DD0B8F59A7F22DD0A
:107CC00000252E46099507952223DFF810B1236081
:107CD0004FF0000A099B002B3FF4ECAD1E992046A3
:107CE00001F09AFB0799204601F096FB31462046A9
:107CF00001F092FB0999204601F08EFB29462046AF
:107D000001F08AFBD6E500234FEA28185046594671
:107D10009946B8F1010F21DC0BB182468B462E4B00
:107D2000ABF1547B03EBC90952465B46D9E900012C
:107D3000FEF7E2FE294B0A460B4029498B42824658
:107D4000BED8A1F580118B4286BFDFF898B04FF006
:107D5000FF3A02F1547B0023049381E018F0010FF5
:107D600007D01D4B03EBC903D3E90023FEF7C4FE84
:107D7000012309F101094FEA6808CAE7EBD0C8F10D
:107D8000000818F00F020AD0124B03EBC203504652
:107D90005946D3E90023FEF7D9FF82468B465FEAB6
:107DA0002818D8D0B8F11F0F1EDD00252E460995E2
:107DB000079522234FF0000A4FF0000B236089E75C
:107DC00009A20D0020A20D0000A20D0003A20D00CB
:107DD0009D9D0D00E0A30D00B8A30D000000F07FF5
:107DE0000000A07CFFFFEF7F18F0100318BF6A238C
:107DF000DFF8B493049350465946002318F0010F5E
:107E000004D0D9E90023FEF777FE01235FEA680872
:107E100009F10809F2D10BB182468B46049BBBB134
:107E2000CBF30A53C3F16B03002B594610DD1F2B14
:107E300040F32881342BDEBF203B4FF0FF3202FAA3
:107E400003F34FF0000ACCBF4FF05C7B03EA010B59
:107E50000022002350465946FFF7B6F80028A4D167
:107E6000099B00930A992B463A46204601F029FBCC
:107E7000099000283FF424AF079B9E1B089B002B12
:107E8000B4BF334600231093089B002523EAE37315
:107E900018932E46099B2046596801F089FA0790ED
:107EA00000283FF411AF099B1A69023203F10C015B
:107EB00092000C30FFF708FC4BEC10AB20AA1FA976
:107EC0002046CDE90AAB01F0EBFD1E9000283FF4FF
:107ED000FBAE0121204601F082FB064600283FF45C
:107EE000F3AE1F9B0499002BABBF109A189A189FF2
:107EF000DDF84090ACBF03EB0209D71A209AA3EB40
:107F000001089044A34B08F1FF389845C2F13602AE
:107F100080F2CC80A3EB08031F2BA2EB03024FF0EF
:107F2000010100F3B68001FA03F3119300230C93CF
:107F300009EB0208049BC14517441F444B46A8BFE8
:107F40004346BB42A8BF3B46002BC2BFA8EB030879
:107F5000FF1AA9EB0309109B002B17DD31461A46C7
:107F6000204601F0E1FB064600283FF4ADAE014695
:107F70001E9A204601F03CFB0F9000283FF4A4AE6F
:107F80001E99204601F048FA0F9B1E93B8F1000F8E
:107F900000F39180089B002B08DD189A0799204672
:107FA00001F0C2FB079000283FF48EAE002F08DDE1
:107FB00007993A46204601F005FC079000283FF457
:107FC00083AEB9F1000F08DD31464A46204601F084
:107FD000F9FB064600283FF477AE079A1E99204623
:107FE00001F06BFC054600283FF46EAEC3680F93AA
:107FF0000023C360314601F044FC002865DA0F9B82
:1080000053EA0A0340F08780CBF31303002B40F0C0
:1080100082802BF000431B0D1B05B3F1D66F7AD97C
:108020006B6913B92B69012B75DD294601222046A6
:1080300001F0C8FB3146054601F023FC00286ADD4B
:108040000499554A5B46002900F0858002EA0B013D
:10805000B1F1D66F7FDCB1F15C7F7FF7AAAE4F4AFA
:108060000023CDE916325046DDE916235946FEF7C6
:1080700043FD0B46034308BF222382468B4608BFBD
:1080800023602BE64FF0FF3202FA03F303EA0A0AF9
:10809000DEE6C8F17F4808F57F0808F57B4808F15F
:1080A000E20801FA08F30C93119141E700230C93C5
:1080B000012311933CE71E994246204601F082FBC2
:1080C0001E9000287FF466AFFEE55F466ED10F9AE2
:1080D000CBF3130342B3324A934228D1049B504658
:1080E000EBB12D4A3A40B2F1D46F4FF0FF3119D8BD
:1080F000120DC2F16B0301FA03F3984217D1294B19
:108100009F4202D101303FF4DFAD234B3B4003F5EA
:10811000801B4FF0000A049B002BA0D1DEE54FF03E
:10812000FF33EAE70B46E8E753EA0A0388D00C9BE3
:10813000DBB13B42EFD00F9B049A50465946C3B186
:10814000FFF758FB02460B46DDE90A01FEF71EFB6E
:1081500082468B46DFE71340A3F580136FEA135B7B
:108160006FEA0B5B4FF0FF3AD5E7119B13EA0A0F5A
:10817000E0E7FFF73FFB02460B46DDE90A01FEF7A9
:1081800003FB0022002382468B46FEF71DFF0028DA
:10819000C1D00EE602FCFFFF0000F07F0000503966
:1081A000FFFF0F00FFFFEF7F38A20D00314628468A
:1081B00001F0C6FC59EC108B10EE100A00224FF0B3
:1081C00080434946FEF714FF00287CD00F9B002B0C
:1081D0004CD0954B0022CDE90C23DFF84C924FF0A8
:1081E0000008924B3B401193119A914B9A4240F0F8
:1081F000B280DDE90A23DDE90C01A7F1547B4BECE9
:1082000010ABCDE91623CDE90C0101F0CDFBDDE982
:108210000C0153EC102BFEF76FFC52465B46FEF749
:10822000B5FA0B468149834A1940914282465ED98C
:108230000B9B02F15472934203D10A9B01333FF42A
:1082400043ADDFF8FCB14FF0FF3A1E99204601F034
:10825000E3F80799204601F0DFF83146204601F0A7
:10826000DBF82946204601F0D7F813E6BAF1000FF3
:108270001BD1CBF31303F3B96B4B002240464946A5
:10828000FEF7ACFED0B9404649466B4B0022FEF7E4
:1082900033FC8046894609F10043CDF868801B9382
:1082A000DDE91A23CDE90C239BE7BAF1010F02D1D6
:1082B000002F3FF47EAD614B00228CE7DFF8789110
:1082C0004FF00008E7E75C4B404649460022FEF7C6
:1082D00013FC0F9B8046894633B901F1004312908D
:1082E0001393DDE91223DDE7CDE91289F9E703F104
:1082F000547B049B002BA8D12BF00043119A1B0D3B
:108300001B059A42A1D14046494601F0B9FCFEF74F
:10831000C5FB02460B4640464946FEF735FA0F9A22
:10832000CBF3130343EA0A0313438046894653D031
:1083300035A3D3E90023FEF751FE00287FF4CEAC2D
:1083400033A3D3E9002340464946FEF765FE0028E3
:108350003FF47BAFC2E4049B33B3119BB3F1D46F02
:1083600022D82DA3D3E9002340464946FEF740FE1C
:10837000A0B149464046FEF759FE012838BF01200A
:10838000FEF740FB0F9B8046894613BB01F100437B
:1083900014901593DDE91423CDE90C230D9B119A5C
:1083A00003F1D6639B1A0D93DDE90C019DED0A0BD9
:1083B000CDE90C0101F0F8FADDE90C0153EC102BCA
:1083C000FEF79AFBDDE90A23FEF7E0F982468B46C9
:1083D0008FE7CDE91489DDE711A3D3E90023FEF788
:1083E000FDFDB4E700230E93199A1D9B1360FFF760
:1083F00065BA652B3FF45DAB452B3FF45AAB0122C8
:10840000FFF792BBAFF300809535A094FFFFDF3FED
:1084100035E5AF350000E03F0000C0FFFFFFDF4162
:108420009535A094FFFFCF3F0000F03F0000F07FA4
:108430000000E07FFFFF9F7C0000E03F0000F0BFF6
:10844000FFFFEF7F0A4601460248034B0068FFF733
:10845000EFB900BF44E203200CE303202DE9F0470D
:108460003A4E86468C4660461CF8014BA55D15F0D9
:108470000805F8D12D2C33D19CF800404FF00108AD
:1084800000F1020C002B5CD0102B0CD1302C0AD147
:108490009CF8000000F0DF0058284DD19CF8014006
:1084A00010230CF1020C08F10047013F0026B7FB36
:1084B000F3F9304603FB197AA4F13005092D18D8D9
:1084C0002C46A34224DD751C07D081451DD301D164
:1084D000A2451ADB00FB034001261CF8014BEBE729
:1084E0002B2C08BF9CF80040A84608BF00F1020CE6
:1084F000C8E7A4F14105192D01D8373CE1E7A4F103
:108500006105192D04D8573CDBE74FF0FF36E4E74F
:10851000731C06D12223CEF80030384642B9BDE89C
:10852000F087B8F1000F00D04042002AF7D00EB11A
:108530000CF1FF311160F2E73024002BB3D1082396
:10854000B1E7302CA4D00A23ADE700BF9DA20D00F7
:1085500013460A46014602480068FFF77FBF00BF86
:1085600044E203202DE9F0433B4E86468C466046AC
:108570001CF8014BA55D15F00805F8D12D2C34D160
:108580009CF800404FF0010800F1020C002B5ED077
:10859000102B0CD1302C0AD19CF8000000F0DF0029
:1085A00058284FD19CF8014010230CF1020C4FF0D9
:1085B000FF370025B7FBF3F703FB07F96FEA09095B
:1085C0002846A4F13006092E18D83446A34224DDEB
:1085D000002D1FDB87421DD301D1A1451ADB00FB13
:1085E000034001251CF8014BEBE72B2C08BF9CF83E
:1085F0000040A84608BF00F1020CC7E7A4F14106FD
:10860000192E01D8373CE1E7A4F16106192E04D8F0
:10861000573CDBE74FF0FF35E4E7002D07DA222374
:10862000CEF800304FF0FF3042B9BDE8F083B8F12A
:10863000000F00D04042002AF7D00DB10CF1FF31FD
:108640001160F2E73024002BB1D10823AFE7302CC2
:10865000A2D00A23ABE700BF9DA20D0013460A4635
:10866000014602480068FFF77DBF00BF44E20320D7
:108670002DE9F74F804600F0D1FD40F2B1739845E7
:1086800040F398806FF4F66343449B1040F26D1200
:10869000A8F2B27502FB05356FF06302A8F26D73A4
:1086A00093FBF2F31D444FF4C8736FF4C86298FB58
:1086B000F3F703FB17874244B7FA87FCB2FBF3F2E8
:1086C00008F0030315446422C0F8048098FBF2F616
:1086D0004FEA5C1C02FB1686044600F1500B009327
:1086E0004FF0070E227A63694A2A28D10099EA18C6
:1086F00001B906B90FBB3B2BD4BF002301231344A0
:108700005A1EA3692C4901FB0232A36A13441A467C
:10871000DB17C4E908232834A345E3D1D0E9084591
:10872000D0E91223944275EB0303B4BF0123002365
:108730000360012003B0BDE8F08F0023DFE7442A87
:1087400001D1EA18DDE7009A72BB002E0CBFE046AB
:108750004FF001081949E26801924FF0300A0AFB14
:1087600008182A464FF00009A8F10408019909F1F8
:108770000109494558F829A018DC02F1040898FBC2
:10878000FEF9C9EBC909A8EB0909B3EB090923698B
:1087900003F1FF3348BF09F10709C3EBC3034B449F
:1087A000534505DA1A44ACE7E046D3E75244DDE727
:1087B000073BF5E70020BDE780510100A0A10D00B7
:1087C000014800F0DFBD00BFF3E70320014800F0DF
:1087D000DBBD00BFF3E70320014B186800F002B8CF
:1087E00044E203202DE9F04F8DB0074600F016FD5E
:1087F000AE49AF4E0546384600F008FD044670B954
:10880000AC4BAD4A1860AD4B1860AD4B3068C3E956
:108810000022FCF7DDFD34600DB0BDE8F08F31685B
:1088200000295FD13068FCF7D3FD2046FEF7B5FF85
:10883000411C3846FCF7F4FD3060002857D12378FE
:10884000A04AA1493A2B08BF01340AAE334620465C
:10885000FCF7CEFD0028DFDD0A9BE718E35C2D2B3B
:1088600049D101374FF0FF340DF1200A0DF11E0BF5
:108870004FF00008CDE9016A94490396CDF800B0A5
:10888000334607AA3846ADF81E80ADF82080FCF7C5
:10889000AFFD4045C0DDBDF81E30BDF82020DFF83B
:1088A00038923C2101FB0322BDF81C304FF461617A
:1088B00001FB03235C43AC62814C824B23600A9B27
:1088C00081491F444A4633463846FCF791FD4045EE
:1088D00016DC23686360774BAA6A1A60774BC3F88B
:1088E000008099E7FEF72AFF00289BD194E72146F4
:1088F000FEF72EFFA3E72B2B08BF01370124B3E7B8
:108900000A9BC4F80490FC18FB5C2D2B40F08B8074
:1089100001344FF0FF370023ADF81C30ADF81E30A6
:10892000ADF820300A93CDE902A6CDE900B667493B
:10893000334607AA2046FCF75BFD002878DCAF6AC7
:10894000A7F561670A9B2F651C442F464FF000096D
:1089500023782C2B08BF013494F80080B8F14D0F18
:1089600078D10DF12603CDE9016309AB0093584995
:10897000039633460DF122022046FCF739FD032809
:108980007FF44AAFBDF822104B1E0B2B3FF644AFCD
:10899000BDF82420531E042B3FF63EAFBDF8263011
:1089A000062B3FF639AFC7E9031287F808807B61D1
:1089B0000A9B04EB03080223ADF81C300023ADF83A
:1089C0001E30ADF820300A9398F800302F2B09D1D3
:1089D000CDE902A6CDE900B63E49334607AA404696
:1089E000FCF706FDBDF81E30BDF820203C2101FB40
:1089F0000322BDF81C304FF4616101FB0323BB610E
:108A00000A9C28374444B9F1000F20D06868FFF76A
:108A10002FFE284BAA6A1A602B6D9B1A274A18BF93
:108A200001231360F8E62B2B08BF0134012772E7FE
:108A3000BDF81E30BDF820203C2101FB0322BDF80B
:108A40001C304FF4616101FB03235F437AE74FF071
:108A500001097DE7B8F14A0F06BF013443464423BC
:108A60000A220BA920460593FFF7F8FDDDF82C80BC
:108A7000059BADF82600A04514D14D23B9F1000F98
:108A800007D12B7203210223C5E90313C5F8149003
:108A900091E785F830300B220123C5E90D2300232F
:108AA000EB6388E780B23B72786184E760A20D00D7
:108AB000DCE70320E4E7032063A20D00E0E70320E6
:108AC000A8E20320CFE7032067A20D008AA20D00D1
:108AD00076A20D0089A20D00C4E703200369B3EB61
:108AE000611F2DE9F0434FEA611200F1140445DDE6
:108AF00011F01F0104EB830604EB82050CD100F199
:108B000010072946B14234D39B1A9B00EA1E9642B5
:108B100038BF0023234415E054F82270C1F1200827
:108B2000CF4005F1040EA1467645F44615D89B1AB0
:108B30009A00043A0135AE4238BF0022A318A7506C
:108B400007B104331A1BA3424FEAA20208BF002355
:108B5000026108BF4361BDE8F083DCF800C00CFA95
:108B600008FC4CEA070749F8047B5EF8047BCF4019
:108B7000DAE751F804CB47F804CFC3E72346E1E72F
:108B8000A0F13003092B02D82038C0B27047A0F101
:108B90006103052B01D84738F7E7A0F14103052B06
:108BA00001D82738F1E70020704700002DE9F04F89
:108BB0002DED028B89B008EE100A0493BC4B1B68A4
:108BC000019318468B469046FEF7E7FD019BDBF8C4
:108BD00000200344824613F8013C0593931CC2F124
:108BE000FF2202F57F02FE32D1181F4613F8010B57
:108BF00000913028F8D0FFF7C3FF044600283AD18F
:108C0000019952463846FEF7D0FD0546002868D146
:108C100017F80A0007EB0A06FFF7B2FF002862D038
:108C20003346187830281F4603F10103F9D0FFF7C7
:108C3000A7FF0123B0FA80F46409354600933A4651
:108C4000164601323078FFF79BFF0028F8D10199D2
:108C500052463046FEF7A9FD80B94DB906EB0A052C
:108C60002A46164601323078FFF78AFF0028F8D1ED
:108C7000AD1BAD0004E000242546E0E7002DF7D150
:108C8000337803F0DF03502B3BD173782B2B2CD0A0
:108C90002D2B2ED0711C4FF000090878FFF770FFC4
:108CA000431EDBB2182B2CD8A0F1100211F8010FD3
:108CB000FFF766FF431EDBB2182B1DD9B9F1000F79
:108CC00000D052421544CBF80010E4B1009B002BB9
:108CD00014BF00270627384609B0BDEC028BBDE85B
:108CE000F08F3E4625460124CAE74FF00009B11C2B
:108CF000D3E74FF00109FAE70A2303FB0202103A17
:108D0000D4E73146DFE7F31B013B2146072B52DC5A
:108D100018EE100A00F04CFB4FF0000B00F11409A4
:108D2000CAF101030446CDF80890CDF800B00693CF
:108D3000B74243D30298009B40F8043BA0EB0900E4
:108D4000801046012061184600F0F9FB301AD8F86F
:108D50000060B04266DD871B3946204600F046FFC2
:108D60008246A8B17B1E591103F01F0259F8211049
:108D70004FF0010A0AFA02F20A4209D0534505DD12
:108D8000B91E204600F032FF002848D14FF0020AF9
:108D900039462046FFF7A2FE3D44D8F80830AB42E2
:108DA0004FDA18EE100A214600F036FB149A002321
:108DB0001360A3278FE701315B10A7E7731E059AA5
:108DC000039316F8013C934219D0BBF1200F07D151
:108DD000029B009A43F8042B0293002300939B46C6
:108DE00016F8010CFFF7CCFE009B00F00F0000FA14
:108DF0000BF0034300930BF1040B039B0DE0039B6B
:108E0000069A1344BB42E0D3184601990793524691
:108E1000FEF7CBFC079B0028D7D11E4688E74FF012
:108E2000030AB5E70ADA371A214618EE100A3A465D
:108E300000F0C8FCED1B044600F114094FF0000AD5
:108E4000ABE7D8F80400A8426DDD451BAE4231DC2B
:108E5000D8F80C30022B23D0032B25D0012B15D1B1
:108E6000AE4213D1012E0BD1049AD8F8043013600E
:108E700001232361C9F80030149B62271C602AE794
:108E8000711E204600F0B2FE0028EDD118EE100A47
:108E9000214600F0C1FA149A0023136050271AE704
:108EA000159B002BF2D1DFE7159B002BDCD1EDE702
:108EB000A0A30D006F1EBAF1000F31D127B13946C2
:108EC000204600F093FE82467B11012159F82330A1
:108ED00007F01F0701FA07F71F422946204618BF6F
:108EE0004AF0020A761BFFF7F9FDD8F80450022772
:108EF000BAF1000F48D0D8F80C30022B15D0032B54
:108F000017D0012B09D11AF0020F06D0D9F80000B2
:108F10004AEA000A1AF0010F0ED147F0100733E0B9
:108F20004FF0010AD0E70127E2E7159BC3F10103E7
:108F30001593159B002BF0D0D4F8109004F1140376
:108F40004FEA890B03EB89014FF0000C184653F8E8
:108F5000042BB2F1FF3F1CD001320260022F04F15A
:108F600014033AD1D8F80020013AB2420AD1711163
:108F7000012253F8213006F01F0602FA06F61E42BF
:108F800018BF174647F02007149B1C60049B1D6008
:108F9000A1E6994243F804CCD8D8A368994514DBDC
:108FA000616818EE100A013100F002FA22690232FB
:108FB00004F10C01824692000C30FEF785FB21463D
:108FC00018EE100A00F028FA544623695A1C04EBE4
:108FD0008303226101225A61C0E722694A450BDD01
:108FE00001212046FFF77AFDD8F808300135AB4261
:108FF000FFF6D7AE0127C5E716F01F06FAD09B444F
:10900000C6F120065BF8040C00F099FAB042E7DBE9
:10901000F0E700BFC2F10802920070B5C2F120066D
:109020004368046803FA06F52C43D340046040F813
:10903000043F8842F4D370BD30B50368013311F8A2
:10904000014B14B90360012030BD13F8012BA2F1CC
:109050004105192D98BF2032A242F0D00020F3E73D
:109060002DE9F04F0B6801685E1102EB860613F0E4
:109070001F0387B018BF04360025371F824690466D
:10908000019346F8045CB9463C460295AB464A78E3
:109090004B1C039342B3104605910492FFF770FDF9
:1090A00000284FD1049A0599202A18D8029B9B4585
:1090B00013DD4C4506D2072D04DC2A4649462046DE
:1090C000FFF7A8FF444550D90023A4F1040944F850
:1090D000043CCDF808B04C461D460399D7E7292A31
:1090E00056D10231CAF80010BBF1000F50D04C45E8
:1090F00006D2072D04DC2A4649462046FFF78AFFA0
:10910000444534D9A8F10402234653F8041B42F81D
:10911000041F9F42F9D23B1B23F0030304330134A5
:10912000033EB44288BF04234344002243F8042B87
:109130009F42FBD23B681BB9474527D101233B60C7
:10914000052026E00135082D0BF1010B06DD444515
:10915000C3D9002344F8043C0125043C226800F0F4
:109160000F0040EA02122260B7E70825B5E7019B2D
:10917000002BDFD04FF0FF32C3F1200322FA03F3BC
:1091800056F8042C1A4046F8042CD3E7043FD1E7E4
:10919000042007B0BDE8F08F2DE9F84F0746894657
:1091A000164600F061FD184B1C689A4634B14B46D8
:1091B000984613F8011B39B13D29F9D1384600F022
:1091C00059FD0020BDE8F88FA8EB0908A34654F824
:1091D000040B0028F2D042464946FEF7E6FA002882
:1091E000F4D154F8043C03EB080513F808303D2B88
:1091F000ECD1DAF80030ABEB03039B103846336058
:1092000000F038FD681CDDE778E4032007B501AA0B
:10921000FFF7C2FF03B05DF804FB00000048704791
:10922000B0E203202DE9F041D0E900670C46514A35
:10923000002330463946FDF769FF394605464D4A59
:1092400030460023FDF762FF002ABCBF02F5A832BA
:1092500002F5C0724FF4616105F52F20B2FBF1F306
:1092600001FB13224FF03C01ACBF00F66C2000F66E
:109270006B20A360B2FBF1F301FB13226360226059
:10928000C31C072293FBF2F2C2EBC2029B1A48BF37
:1092900007330028A361B8BFA0F50E333649AEBF2F
:1092A00090FBF1F1A3F52C7393FBF1F1334B03FB2E
:1092B000010048F6AC62B0FBF2F2024440F2B45C4A
:1092C000B0FBFCF3D21A40F26D172D4BB0FBF3F359
:1092D0006426D31AB3FBF7F5B3FBFCF3B5FBF6F248
:1092E000D31A034407FB1533992003EB830C0CF1CD
:1092F000020C03F1010EBCFBF0F7784302304FF093
:109300000508B0FBF8F0AEEB000040F2F95EF44562
:1093100094BF4FF0020C6FF0090C67444FF4C87C07
:109320000CFB0151012F98BF0131B3F5997F0CD38C
:10933000A3F59973E361A1F26C710023E060C4E9C5
:10934000047123622046BDE8F08115F0030F02D1BD
:1093500006FB12525AB94FF4C876B5FBF6F206FB7B
:109360001252B2FA82F252093B331344E2E701226D
:10937000FAE700BF80510100B13A02004FC5FDFF7E
:10938000B03A0200704770477047704782B001B929
:1093900001A942B14BB113780B601278101E18BFAF
:1093A000012002B070471046FBE76FF00100F8E7BC
:1093B00070B5466A04460D463EB91020FCF700F829
:1093C000C0E9016660620660C660666AF36883B1E0
:1093D000636ADB6853F82500B8B9012101FA05F684
:1093E000721D9200204600F022FC60B1C0E90156D7
:1093F0000EE021220421204600F019FC636AF0608F
:10940000DB68002BE4D1002070BD026843F8252002
:109410000023C0E90333F7E770B5466A05460C46FA
:109420003EB91020FBF7CCFFC0E901666862066018
:10943000C6603CB16B6A6268DB6853F82210216039
:1094400043F8224070BD2DE9F0410E690746984669
:109450000C4601F1140000230568A9B202FB01814A
:109460004FEA114C2D0C02FB05C589B2013301EB0B
:1094700005419E4240F8041B4FEA1548ECDCB8F168
:10948000000F1BD0A368B34212DC6168384601317B
:10949000FFF78EFF2269023204F10C0105469200AB
:1094A0000C30FEF711F921463846FFF7B5FF2C4680
:1094B00004EB86030136C3F8148026612046BDE81C
:1094C000F0812DE9F8430C4615461F460922083362
:1094D000064693FBF2F3002101229A4220DB30463C
:1094E000FFF766FF089B4361092D4FF001030361FD
:1094F00019DD04F10909C8462C4418F8013B01465E
:10950000303B0A223046FFF79EFFA045F5D1A5F17A
:1095100008044C442D1B6319BB4207DBBDE8F883EC
:1095200052000131D9E70A340925F3E714F8013B69
:109530000146303B0A223046FFF785FFEBE7030C7C
:109540001B04D3B90004102310F07F4F04BF0002A6
:10955000083310F0704F04BF0001043310F0404F87
:1095600004BF80000233002805DB10F0804F03F1B8
:10957000010308BF2023184670470023E4E703686F
:1095800013F0070201460BD0DA0724D4980749BF2D
:109590005B089B0801200B605CBF0B6002207047DA
:1095A00098B2B0B91B0C102013F0FF0F04BF1B0AB8
:1095B00008301A0704BF1B0904309A0704BF9B0830
:1095C0000230DA0703D45B0800F1010005D00B601C
:1095D00070471046E8E7002070472020704710B51C
:1095E0000C460121FFF7E4FE01224461026110BD37
:1095F0002DE9F04F15460A692B699A42B8BF0B4610
:109600000C46BCBF2C461D462769D5F81090A368B0
:10961000616807EB0906B342B8BF013185B0FFF7B7
:10962000C7FE00F1140101EB86080B4600224345FA
:109630001DD304F1140305F1140203EB870702EBB9
:10964000890302933B1B153B23F00303043304F10E
:109650001505AF4238BF04230193029B0392934246
:1096600008D8002E5ADC066105B0BDE8F08F43F83B
:10967000042BDCE7B2F800A0BAF1000F24D004F10B
:10968000140E89464FF0000C5EF8045BD9F800B068
:10969000ABB21FFA8BFB0AFB03B34FEA154BD9F8A9
:1096A000005063444FEA154C0AFB0BC505EB13450C
:1096B0009BB243EA0543774549F8043B4FEA154C12
:1096C000E2D8019B41F803C0039BB3F80290043237
:1096D000B9F1000F20D00B6804F1140C8E464FF046
:1096E000000ABCF80050BEF802B009FB05B5AA4458
:1096F0009BB243EA0A434EF8043B5CF8043BBEF8D5
:1097000000501B0C09FB035303EB1A4367454FEA58
:10971000134AE6D8019D4B5104319EE758F8043DA9
:10972000002BA0D1013E9CE72DE9F843154612F02D
:10973000030206460F4607D0214C013A002354F895
:109740002220FFF780FE0746AD1035D0746A3CB981
:109750001020FBF735FEC0E9014470620460C4606C
:10976000D6F82480D8F808404CB940F27121304630
:10977000FFF735FF0023C8F80800044603604FF0E8
:109780000009EB070AD5394622463046FFF730FF7D
:10979000394680463046FFF73FFE47466D100BD0F6
:1097A000206838B9224621463046FFF721FF206065
:1097B000C0F800900446E4E73846BDE8F88300BFEF
:1097C000A8A40D002DE9F0470C464968236903EB76
:1097D0006218A368074691464FEA621A08F101062B
:1097E000B3423FDB3846FFF7E3FD0023054600F1B7
:1097F000140100F110021846534536DB20692AEAAD
:10980000EA7A04F1140319F01F0901EB8A0103EB52
:10981000800C2ED0C9F1200E8A460022186800FA6A
:1098200009F002434AF8042B53F8042B9C4522FA12
:109830000EF2F3D8ACEB0403153B23F0030304331F
:1098400004F11500604588BF0423CA500AB108F12D
:109850000206013E38462E612146FFF7DDFD28460F
:10986000BDE8F08701315B00BAE742F8040F01332D
:10987000C2E7043953F8042B41F8042F9C45F9D86A
:10988000E7E730B502690C69121B0ED100F1140331
:10989000143103EB840001EB840150F8045D51F8AE
:1098A000044DA54203D005D30122104630BD8342AA
:1098B000F3D3FAE74FF0FF32F7E72DE9F84F0C4604
:1098C0000646114620461746FFF7DBFF051E08D166
:1098D00029463046FFF76CFD0123C0E90435BDE899
:1098E000F88FA4BF3B46274630467968A6BF1C4682
:1098F00000250125FFF75CFD3E69C560256907F17C
:10990000140104F1140900F1140E07F1100201EB27
:10991000860C09EB8505F246002759F8043B52F8FE
:1099200004BF1FFA83F817FA8BF71B0CA7EB080884
:10993000C3EB1B4303EB28431FFA88F81F144D4564
:1099400048EA03434AF8043BE7D82B1B153B23F0B6
:10995000030304331534A54238BF04231944734468
:109960009E460D4665450ED30CF10302521A22F0B5
:10997000030203398C4538BF00221A4452F8043DD3
:109980007BB10661ABE755F8048B17FA88F4221413
:1099900002EB1842A4B244EA02444EF8044B1714F6
:1099A000E0E7013EEAE7000082B08DED000B019B8D
:1099B00012491940A1F15071002905DD00220B4622
:1099C00043EC102B02B070474942B1F1A07F4FEA3F
:1099D00021504FF000024FF0000304DA4FF4002151
:1099E00041FA00F3ECE7A0F114011E29DABF4FF0B1
:1099F000004020FA01F101210A46E1E70000F07F72
:109A0000F8B5056900F1140707EB85052E1F55F819
:109A1000044C2046FFF793FDC0F120030A28DFF82D
:109A20007CC00B6014DCC0F10B0E24FA0EF1B742BF
:109A300041EA0C0334BF55F8081C0021153004FA24
:109A400000F021FA0EF140EA010243EC102BF8BDC0
:109A5000B7423ABF55F8081CA5F1080600210B389B
:109A600017D0C0F1200C04FA00F5BE4221FA0CF424
:109A700045EA04058CBF56F8044C002445F07F539A
:109A800001FA00F024FA0CF443F4401340EA040213
:109A9000DBE744EA0C030A46D7E700BF0000F03FCB
:109AA0002DE9F7438946012157EC106B9046FFF7EB
:109AB0007FFCC7F30A550446C7F3130335BB002EDA
:109AC000019328D068460096FFF759FD009900B32E
:109AD000019AC0F1200302FA03F30B43C240636111
