:02000002D0002C
:1040000000400D00189C0D00000006000D00050189
:084010000401D60700000000C6
:0440180034910D00D2
:1040200009480A49884208B505D0094A824202D0A7
:10403000121A03F045F90748074A0021121A03F043
:104040004DF9014808BD00BFE0E1032034990D009F
:1040500098E4032098E40320F0E7032070B5074EAE
:10406000074C02F01FFBA41BA4080025A54200D1A9
:1040700070BD56F8043B98470135F7E70C990D00E1
:1040800030990D0000F0BCBA08B500F0C3FCBDE8E3
:10409000084002F0C9BA01F027BA01F025BA01F0D0
:1040A0002BBA0078B0FA80F0400970470123037002
:1040B0007047000008B5044902F08DF818B1034BB1
:1040C00003221A70012008BDAE930D0084E5032081
:1040D00010B50446006808B101F00EFA204610BD84
:1040E0000023042201F058B937B59DF818501D433C
:1040F0008DF800503C23044601F024FC204603B018
:1041000030BD00002DE9F84F01F05EF9DFF858A04E
:104110004FF496744FF0000B40F2E7384FF000096F
:10412000002000F0B1FF0546002000F0ADFF461B67
:1041300061EB0B07B94508BFB04505D301F04CF959
:1041400010B901F039F9EFE701F046F918B1BDE80F
:10415000F84F01F041B900F067FFCAF8000001F024
:104160002BF9013CDCD1F2E7CCE7032010B584B297
:104170000121204602F02FFB4FF47A7001F0F4F990
:104180002046002102F027FBBDE810404FF47A7072
:1041900001F0EAB908B500F047FF044B1B68C01AEC
:1041A000B0F57A7F34BF0020012008BDF4E403207D
:1041B00008B5FFF7EFFF10B901F0FEF8F9E7BDE829
:1041C0000840FFF7E7BF000013B5154C206A02F066
:1041D000E1FC144ACDE900011821134801F09CF9D3
:1041E000606A02F0D7FC114ACDE90001182110489D
:1041F00001F092F9A06A02F0CDFC0E4ACDE900016F
:1042000018210D4801F088F9E06A02F0C3FC0B4A5E
:10421000CDE9000118210A4801F07EF902B010BD75
:1042200040E5032088910D00BBE5032099910D0026
:1042300012E50320AA910D00A2E50320BE910D0016
:10424000F9E4032030B585B00D460022694600929E
:1042500001F042F8B0B9009C0CB1236923B90A4AB5
:1042600000210A2001F030F80023ADF806300C23BD
:10427000ADF80430042303930295236901AA0121B8
:104280002046984705B030BD19500D0030B50E4D91
:104290000FCD89B001AC0FC495E8070084E8070092
:1042A00069460720FFF7CEFF0028A8BF0098074AFD
:1042B00008AB03EB8000102150F81C3C044801F0CF
:1042C0002BF909B030BD00BFC4940D0041940D001E
:1042D000B4E4032038B5046805467CB16368013B4B
:1042E00063605BB9236820469B689847A368013BDD
:1042F000A3601BB923682046DB689847284638BD71
:1043000030B5214DA3B0082402F07EFA20461E49A4
:104310003822643400F0A0FEB4F5CC7FF4D12B6BCE
:104320000493D5E90623CDE90223D5E904236421CA
:10433000CDE9002309A8154A154C01F0EDF800233A
:104340008DF80030134B14491B7809AA07A8FFF712
:10435000CBFE08A8FFF7BEFF02F00CF8C117C4E9B6
:10436000000102F051FA2178032000F06DFE02F006
:1043700011F80A4B18700A4B01221A7000F054FE13
:10438000084B186023B030BD40E50320D3910D00E9
:10439000D8E40320ADE4032008920D00E0E40320FC
:1043A000E0E10320D4E5032030B51E4D85B00C4676
:1043B00081B92B7843B3FFF7FBFE1B4B8DF8004010
:1043C0001B781A4A1A4902A8FFF78EFE03A8FFF7C6
:1043D00081FF19E0084602F060FFC83801282B78F9
:1043E00014D873B1FFF7E4FE00238DF800300E4BB4
:1043F000104A1B78104902A8FFF776FE03A8FFF7C2
:1044000069FF0E4B00221A7005B030BD002BFBD0A7
:10441000FFF7CEFE00238DF80030034B22461B78B9
:10442000D0E700BFBCE20320ADE403201E920D00E4
:1044300026920D0033920D0045920D00E0E103201D
:104440002DE97F435B4C5C480025257000F0A8FDFA
:10445000B5EE400AF1EE10FA00F09A8001F08AFF02
:10446000564BC117C3E9000101F0A0FF1E2800F060
:1044700088802D2800F087800F2814BF03262E4641
:104480004D4800F08DFD10EE100A02F083FB4C4AFF
:10449000C4E90401CDE9000110214A4801F03CF8CB
:1044A000454800F08BFD10EE100A02F073FB464AFF
:1044B000C4E90601CDE900011021444801F02CF8BF
:1044C00002A90320FFF7BEFE00285ED1BDF8083028
:1044D00007EE903AFBEECC7AFDEEE77A3C4A3D4897
:1044E000C4ED0C7A17EE903A102101F015F83A4B12
:1044F000606AD3E9008902F04DFB42464B4602F068
:1045000031FE10B1354B01221A70206A02F042FBD5
:1045100002460B464046494602F024FE10B1304B9D
:1045200001221A702F4BE06AD3E9008902F032FBB6
:1045300042464B4602F016FE10B12B4B01221A7078
:10454000A06A02F027FB02460B464046494602F0AD
:1045500009FE10B1254B01221A700125FFF796FEC6
:10456000257001F007FF606002F04EF9642070438F
:1045700010493822083000F077FD284604B0BDE825
:10458000708301267CE702267AE7FFEE007AA3E734
:10459000174B8DF800501B78164A174902A8FFF7F1
:1045A000A3FD03A8FFF796FE01F0F2FF134901F007
:1045B00052FDE2E740E5032078E50320D8E403203C
:1045C0004B920D0090E5032053920D00E1E403208F
:1045D0005B920D00C4E4032088E5032011E503206D
:1045E000BAE5032030E50320F8E40320A1E5032029
:1045F000ACE4032061920D007E920D0082920D00CA
:1046000070B5B8B001F0C4FF4FF4E13101F0B4FF70
:1046100001F0BEFF5C4901F01EFD5C4B08AA03F1EE
:104620001005164618685968144603C40833AB428F
:104630002246F7D119889B7821802D22A370002172
:10464000534C0DF1330002F049FE022301210720F3
:10465000237002F0AFF80121052002F0ABF804A8A6
:1046600000F0C2FE00237D2218A904A801F0C5FDB8
:1046700000231A46CDE90033464918A800F0C4FECD
:10468000454B46481968FFF72BFD45494548FFF75C
:1046900027FD45494548FFF723FD45494548FFF7B4
:1046A0001FFD45494548FFF71BFD45494548FFF7B4
:1046B00017FD45494548FFF713FD45494548FFF7B4
:1046C0000FFD45494548FFF70BFD454A454946481A
:1046D00001F034F8454A4649434801F02FF8454A6D
:1046E0004549414801F02AF8444A45493E4801F00D
:1046F00025F8444A44493C4801F020F84349444ADB
:10470000394801F01BF84348442100F0B2FB88B956
:1047100000F08AFC404D41492860304602F014FE0A
:1047200001F036FF3E4901F096FC0123237000F0B2
:104730007BFC2860FFF784FEFFF746FDFFF7E2FCF5
:1047400048B90123237000F06FFC334B35491860E2
:10475000304602F0F9FD344B1B7863B100238DF82D
:104760000030324B32491B7802A83246FFF7BCFCBE
:1047700003A8FFF7AFFD00F057FC2E4B186004A80C
:1047800001F0B0FC38B070BD9A920D00E0940D00BD
:1047900084E50320A9430D00E4E10320A5920D0068
:1047A00090E50320AD920D00E1E40320B9920D00E5
:1047B000BBE50320C2920D0012E50320D4920D0048
:1047C000A2E50320E6920D00F9E40320F5920D0026
:1047D000C4E4032004930D00B4E403200C930D0003
:1047E0001B930D00B5400D0011570D0027930D00D0
:1047F00025490D0034930D00554C0D0045930D00D7
:10480000A94C0D0056930D00514D0D00FD4C0D00AF
:104810006B930D0078E5032038E503207F930D00AE
:104820009C930D00B0930D00BCE20320ADE4032087
:10483000C2930D00F4E4032030B52D4B2D4C1B78B2
:104840008DB013B92C4B1B78EBB12C4BD3E9002363
:104850002021CDE9002304A8294A00F05DFE0520AF
:10486000FFF784FCFFF7A4FC00238DF80030254BF4
:1048700025491B7804AA02A8FFF736FC03A8FFF716
:1048800029FD01232370214D2A7812B9204B1B7872
:10489000EBB1204BD3E900232021CDE9002304A86C
:1048A0001D4A00F039FE0720FFF760FCFFF780FC8F
:1048B00000238DF80030134B13491B7804AA02A87B
:1048C000FFF712FC03A8FFF705FD0123237001F099
:1048D0006DFD124B1860237833B10D4A002313701D
:1048E0002B700F4B00221A6001200DB030BD00BFAD
:1048F00011E50320A0E50320BAE5032088E50320A5
:10490000CA930D00ADE40320E6930D00A1E503205A
:10491000F8E4032030E50320F7930D00A8E403201A
:10492000B8E2032030B5144985B0054601F053FCC8
:10493000044690B1114B124A01241C7000238DF8DB
:104940000030104B1B78104902A8FFF7CDFB03A8DD
:10495000FFF7C0FC012005B030BD0C49284601F02E
:104960003AFC0028F7D0054B094A1C70054B8DF81E
:1049700000401B78E7E700BFAE930D00BCE20320C8
:1049800010940D00ADE4032031940D0086910D00CC
:1049900021940D0030B5184D184C19492A7820780B
:1049A0008FB01A2303FB0212009203FB0013154A77
:1049B000282104A800F0B0FD2B78237000F00CFD36
:1049C00090B1FFF7F5FB00238DF800300E4B0F4937
:1049D0001B7804AA02A8FFF787FB03A8FFF77AFC5D
:1049E00000F022FB0A4B186001F0D2FD04A901F08F
:1049F00032FB0FB030BD00BF84E503202AE5032061
:104A0000E8E1032036940D00ADE4032044940D004A
:104A1000F4E403207FB57B4C2378013B052B1CD8A5
:104A2000DFE813F0C40006004B0039007600960062
:104A3000754B1B782BB1754B1B78022B01D0FFF700
:104A4000A9FF01F0A7FC724B724D1B78984206D06B
:104A500001F0ACFC03232860237004B070BD01F0AA
:104A6000A5FC2B68C01A0E28F2DC6B4B1B784BB9E7
:104A70006A4B1B7833B96A4B1B781BB9694B1B789F
:104A8000002BEAD001F092FC674B1B68C01A042887
:104A9000E3DD0423E0E75C4B1B782BB15B4B1B7819
:104AA000042B01D0FFF776FFFFF7CAFC18B1FFF720
:104AB000C3FE0223D0E70123CEE7534E32782AB15A
:104AC000524B1B78032B01D0FFF764FFFFF7B8FCB4
:104AD0000546D8B90123237000F0A6FA534B18609D
:104AE0003378002BB9D0FFF763FB514B8DF80050A2
:104AF0001B78504A504902A8FFF7F6FA03A8FFF7BF
:104B0000E9FB00F091FA4D4B1860A6E70523A3E7F7
:104B10003D4B1B782BB13D4B1B78052B01D0FFF78C
:104B200039FF00F059FC68B101F034FC0C2805D1C4
:104B300000F052FC10B1002000F06EFCFFF7E0FB2B
:104B4000062389E70123237000F06EFA374BDBE779
:104B50002D4B1B782BB12D4B1B78062B01D0FFF76B
:104B600019FF374B1B78002BA3D000F05DFA354BB3
:104B70001B68C01A4AF6C87398427FF66EAF00F001
:104B800053FA2A4D304A286000238DF80030284B14
:104B90002E491B7802A8FFF7A7FA03A8FFF79AFB94
:104BA0000123237000F040FA286056E7164B1B786B
:104BB0002BB1164B1B78012B01D0FFF7EBFE00F059
:104BC00033FA1A4B1B6803F5922303F5787383427B
:104BD000BFF443AF00F000FC60B100238DF800305B
:104BE000134B1B4A1B78144902A8FFF77DFA03A850
:104BF000FFF770FB4FF4FA6000F0B6FC01F038FBF1
:104C00002BE700BF84E50320BCE203202AE5032054
:104C1000E0E40320B0E40320BAE5032011E503201B
:104C2000A1E50320F8E40320A8E4032038E50320ED
:104C3000ADE4032055940D0045920D00F4E40320EB
:104C4000E0E10320D4E5032099920D006F940D005C
:104C500088940D0000B58BB0039001F0E7FA0F4B7C
:104C600083ED080AFFF7A4FA039906A801F0A8FA51
:104C700000238DF800300A4B069A1B78094904A8D6
:104C8000FFF732FA05A8FFF725FB06A801F02AFA7C
:104C9000FFF79AFA01200BB05DF804FB40E5032012
:104CA000ADE403209C940D0000B58BB0039001F09F
:104CB000BDFA0F4B83ED090AFFF77AFA039906A8AC
:104CC00001F07EFA00238DF800300A4B069A1B781B
:104CD000094904A8FFF708FA05A8FFF7FBFA06A898
:104CE00001F000FAFFF770FA01200BB05DF804FB49
:104CF00040E50320ADE40320B0940D0000B58BB077
:104D0000039001F093FA0F4B83ED0A0AFFF750FA74
:104D1000039906A801F054FA00238DF800300A4BDD
:104D2000069A1B78094904A8FFF7DEF905A8FFF7E2
:104D3000D1FA06A801F0D6F9FFF746FA01200BB028
:104D40005DF804FB40E50320ADE403209C940D00D6
:104D500000B58BB0039001F069FA0F4B83ED0B0A9D
:104D6000FFF726FA039906A801F02AFA00238DF826
:104D700000300A4B069A1B78094904A8FFF7B4F9DA
:104D800005A8FFF7A7FA06A801F0ACF9FFF71CFA8F
:104D900001200BB05DF804FB40E50320ADE40320E7
:104DA000B0940D00184B70B500241C70174B184DB3
:104DB00001261E7001F0A8FC2346224642F6977198
:104DC00001F0AAFC01F0A0FC22462346022101F0DA
:104DD000ABFC104800F02AF80F4BAB6002202C60AF
:104DE000AC80AC7100F08AFA0C4A0D49284601F0FB
:104DF00061FD2146304600F091FA31460420BDE8BD
:104E0000704000F0F9B800BFACE40320ADE403202B
:104E10009CE4032078E503200000FFFF98E40320D2
:104E2000D1400D000368C9B29B681847704738B578
:104E300005460C4601F016FD297800F0A7FF01F0A9
:104E400011FD210AFFF7EEFF01F00CFDE1B2FFF7C3
:104E5000E9FF01F007FDBDE8384000F09FBF08B54D
:104E600043F2A201FFF7E3FFBDE808400A2000F08B
:104E70007BBB38B504460D4601F0F4FC00F054FF4E
:104E800020462570FFF7EBFF012038BD0A44FF20C4
:104E900091420ED011F8013B5840082310F0800FCA
:104EA0004FEA400018BF80F03100013BC0B2F5D19D
:104EB000EEE770470000000073B54FF4105105464F
:104EC000FFF7B5FF4FF4FA7000F04EFB01F0CAFC9B
:104ED0002978062200F057FF01F0C4FC03681B6923
:104EE000984706284BD16E46044601F0BBFC036888
:104EF0005B699847013C14F0FF0406F8010B694612
:104F0000F3D102222846FFF7C1FF9DF802608642D6
:104F100035D102220DF103012846FFF7B7FF9DF8B6
:104F2000056086422BD1BDF80000BDF8034040BAB1
:104F300080B201F00DFE18A3D3E9002301F082FE38
:104F400011A3D3E9002301F0A7FF114B002201F0C8
:104F5000C1FC02F031F9A86060BA80B201F0F8FD3E
:104F60000C4B002201F06EFE07A3D3E9002301F0F1
:104F700093FF02F021F96860012002B070BD0020AB
:104F8000FBE700BFAFF3008000000000E0FFEF4050
:104F900000804640000059400000000000E06540ED
:104FA00010B50446FFF788FF10B194ED020A10BD5A
:104FB0009FED010AFBE700BF0000C07F10B504466B
:104FC000FFF77AFF10B194ED010A10BD9FED010AC1
:104FD000FBE700BF0000C07F08B5024B1B685B6C9D
:104FE000019308BD4802030008B5024B1B689B6C87
:104FF000019308BD4802030008B5024B1B685B6EB5
:10500000019308BD3402030008B5024B1B685B68BE
:10501000019308BD1802030008B5024B1B68DB684A
:10502000019308BD1802030008B5024B1B685B69B9
:10503000019308BD1802030008B5024B1B689B6A68
:10504000019308BD1802030008B5024B1B681B6BD7
:10505000019308BD1802030008B5024B1B685B6C86
:10506000019308BD1802030008B5024B1B689B6C36
:10507000019308BD1802030008B5024B1B689B6D25
:10508000019308BD1802030008B5024B1B68DB6DD5
:10509000019308BD1802030008B5024B1B685B6E44
:1050A000019308BD1802030008B5024B1B689B68FA
:1050B000019308BD2C02030008B5024B1B68DB6896
:1050C000019308BD2C02030008B5024B1B681B6945
:1050D000019308BD2C02030008B5024B1B68DB6876
:1050E000019308BD2802030008B5024B1B689B69A9
:1050F000019308BD2802030008B5024B1B68DB6959
:10510000019308BD2802030008B5024B1B681B6A07
:10511000019308BD2802030008B5024B1B685B6AB7
:10512000019308BD2802030008B5024B1B689B6A67
:10513000019308BD2802030008B5024B1B68DB6A17
:10514000019308BD2802030008B5024B1B681B6BC6
:10515000019308BD2802030008B5024B1B685B6B76
:10516000019308BD2802030008B5024B1B681B6CA5
:10517000019308BD2802030008B5024B1B681B6D94
:10518000019308BD2802030008B5024B1B685B6948
:10519000019308BD6402030008B5024B1B689B68BD
:1051A000019308BD6802030008B5024B1B68DB6869
:1051B000019308BD6802030008B5024B1B68DB6958
:1051C000019308BD3002030008B5024B1B681B6A3F
:1051D000019308BD3002030008B5024B1B681B6831
:1051E000019308BD3C02030008B5024B1B68DB6855
:1051F000019308BD3C02030008B5024B1B681B6904
:10520000019308BD3C02030008B5024B1B685B69B3
:10521000019308BD3C02030008B5024B1B689B6963
:10522000019308BD3C02030008B5024B1B68DB6913
:10523000019308BD3C02030008B5024B1B681B6AC2
:10524000019308BD3C02030008B5024B1B689B6A32
:10525000019308BD3C02030008B5024B1B681B68A4
:10526000019308BD4C02030008B5024B1B685B6844
:10527000019308BD4C02030008B5024B1B681B6973
:10528000019308BD4C02030008B5024B1B685B6923
:10529000019308BD4C02030008B5024B1B689B69D3
:1052A000019308BD4C02030008B5024B1B68DB6983
:1052B000019308BD4C02030008B5024B1B681B6A32
:1052C000019308BD4C02030008B5024B1B685B6BE1
:1052D000019308BD6002030008B5034B1B68D3F8B7
:1052E0009830019308BD00006002030008B5024B2E
:1052F0001B681B68019308BD2002030008B5024B20
:105300001B685B68019308BD2002030008B5024BCF
:105310001B685B69019308BD2002030008B5024BBE
:105320001B68DB6A019308BD2002030008B5024B2D
:105330001B68DB6C019308BD2002030008B5024B1B
:105340001B685B6D019308BD2002030008B5024B8A
:105350001B689B6D019308BD2002030008B5034B39
:105360001B68D3F88830019308BD000020020300B9
:1053700008B5034B1B68D3F89430019308BD0000B7
:105380002002030008B5034B1B68D3F8B03001932B
:1053900008BD00002002030008B5024B1B681B6813
:1053A000019308BD4402030008B5024B1B685B680B
:1053B000019308BD4402030008B5024B1B689B68BB
:1053C000019308BD4402030008B5024B1B68DB686B
:1053D000019308BD4402030008B5024B1B685B69DA
:1053E000019308BD4402030008B5024B1B68DB694A
:1053F000019308BD4402030008B5024B1B681B6AF9
:10540000019308BD4402030008B5024B1B685B6AA8
:10541000019308BD4402030008B5024B1B68DB6A18
:10542000019308BD4402030008B5024B1B681B6BC7
:10543000019308BD4402030008B5024B1B68DB6BF7
:10544000019308BD4402030008B5024B1B685B686A
:10545000019308BD4002030008B5024B1B689B681E
:10546000019308BD4002030008B5024B1B68DB68CE
:10547000019308BD4002030008B5024B1B681B697D
:10548000019308BD4002030008B5024B1B685B692D
:10549000019308BD4002030008B5024B1B689B69DD
:1054A000019308BD4002030008B5024B1B68DB698D
:1054B000019308BD4002030008B5024B1B681B6A3C
:1054C000019308BD4002030008B5024B1B681B6B2B
:1054D000019308BD4002030008B5024B1B685B6BDB
:1054E000019308BD4002030008B5024B1B681B680E
:1054F000019308BD1C02030008B5024B1B685B68E2
:10550000019308BD1C02030008B5024B1B689B6891
:10551000019308BD1C02030008B5024B1B68DB6940
:10552000019308BD1C02030008B5024B1B68DB6A2F
:10553000019308BD1C02030008B5024B1B681B6BDE
:10554000019308BD1C02030008B5024B1B685B6C8D
:10555000019308BD1C02030008B5024B1B68DB6CFD
:10556000019308BD1C0203000021FFF7CFBE10B558
:10557000836804460BB901F0A6F9C3689847A3688D
:105580001BB1032221462046984720461021BDE842
:10559000104001F094B910B50446006808B1FFF757
:1055A00023FD204610BD0B68036013B15A68013219
:1055B0005A60704710B5064C002320462360FFF761
:1055C0000BFD2046034A0449BDE8104001F072B9C2
:1055D000D8E5032098E4032097550D000022406889
:1055E0001146FFF749BF002240681146FFF764BF2C
:1055F000002240681146FFF76FBF40680022FFF7A6
:1056000063BF4068002281F00101FFF74DBF002316
:1056100040681A461946FFF73FBF002340681A4604
:105620001946FFF731BF002240681146FFF714BF4B
:10563000406800220221FFF717BF002340681A4686
:10564000FFF702BF084B10B5282422461846002158
:1056500001F044FE054B04804FF0FF32426004220B
:105660005A60034A1A6010BDE4E50320DCE503201C
:1056700028950D0070470020704710B51021044692
:1056800001F01DF9204610BD08B5FFF7F6FF08BD73
:1056900010B58368044613B103220146984720469B
:1056A00010BD30B500224FF69C74026084808D8856
:1056B0008C800C68858004600A6030BD10B504469B
:1056C0000068FFF719FF204610BD38B5C468F4B173
:1056D0002378022B03D104F10C00FFF7EFFF65687C
:1056E00035B12846FFF7D4FF1021284601F0E7F82E
:1056F000A56835B12846FFF7CBFF1021284601F0F9
:10570000DEF820461421BDE8384001F0D8B838BD95
:1057100010B588B00446684600F02FFD694604A81D
:1057200000F04EFD04A8A047044604A800F0DAFCEF
:10573000684600F0D7FC204608B010BD1FB5002316
:10574000CDE90201019210241A4669461846ADF8C7
:105750000230ADF80040FFF727FE04B010BD73B56E
:105760000E46044656F8043B00930D4601A8314608
:10577000FFF719FF019A009B6260236001A80023D4
:1057800001930093FEF7A6FD3046FEF7A3FD2846E1
:10579000082101F094F8204602B070BD13B50B4605
:1057A0000246D0E900016C4684E8030093E8030058
:1057B00082E8030094E8030083E8030002B010BD10
:1057C000826810B50AB901F07EF8BDE81040C368E0
:1057D000184708B5006800F11001FFF7F1FF08BD98
:1057E000826810B50AB901F06EF8BDE81040C368D0
:1057F000184708B5006800F11001FFF7F1FF08BD78
:1058000038B500230446036010200D46FEF743FC24
:1058100028B10123C0E90133024B0360C560206059
:10582000204638BD5C950D0038B5002383608B6839
:1058300004460D462BB102229847EB68E360AB6843
:10584000A360204638BD0000F0B589B00468684602
:10585000FFF727FF4FF00203D4E84F2F002A03D1B0
:10586000C4E8413F0029F7D125D104F10C05694670
:105870002846FFF716FFBFF35B8F012363700020FC
:1058800004F10803BFF35B8F53E8006F43E80002A5
:10589000002AF9D1BFF35B8F6EB1FFF747FD78B1F6
:1058A00029463046FFF78CFF3046FFF7F1FE102106
:1058B000304601F004F86846FFF700FF09B0F0BD7C
:1058C000314602A8FFF7B0FFE068B4F9105008B104
:1058D00001F042FD06901020ADF81C50FEF7DBFBF6
:1058E0000546E8B1002787601820FEF7D4FB044680
:1058F00088B10146876002A8FFF750FF049BA268A9
:10590000A360059B049206A9E268E36004F110001D
:105910000592FFF7C6FE084BEB60084B2C60AB60AE
:1059200006A8FFF7CBFE02A8FFF7B2FE0022294629
:105930000348FFF703FDB7E7D3570D00695A0D0081
:105940006F550D002DE9F0478AB005469DF8489047
:105950000C4617469846FFF73FFD07AE824638BB18
:105960004FF62E73059005A93046ADF81830FFF7B5
:1059700098FE1420FEF78FFB044648B10223037003
:105980000123C0E901AA437031460C30FFF789FEBC
:105990002846214640F8044BFFF732FF3046FFF718
:1059A0008DFE05A8FFF78AFE28460AB0BDE8F087FD
:1059B0000C234FF0000A1420CDE908AA0793FEF744
:1059C0006AFB014628B1C0E901AA80F800A080F86E
:1059D00001A004A80391FFF713FF224B08930820AE
:1059E000FEF759FB824628B1039B40F8043B04A90B
:1059F000FFF7D9FD00965FFA89F342463946204603
:105A0000CDF824A0FFF7F8FCB8B9039B5B7803F04E
:105A1000FF0293B94FF69C7305A903A80592ADF850
:105A20001830FFF711FF05A8FFF748FE05A80999F0
:105A3000FFF795FE06A8FEF74DFC039B059304A90E
:105A400006A8FFF7B0FD059B069A2B606A6000234D
:105A500006A806930593FEF73DFC04A8FEF73AFC62
:105A6000A2E700BF2D5B0D00022AF8B5054607D05E
:105A7000032A18D0012A01D10B6803600020F8BD69
:105A800018200E68FEF707FB044650B13146FFF7B9
:105A9000CBFE3069B6F9147008B101F05DFC2061ED
:105AA000A7822C60EAE70468002CE7D004F110001C
:105AB000FFF704FE2046FFF7EBFD1821204600F01B
:105AC000FEFEDBE738B5002383608B6804460D4695
:105AD0002BB102229847EB68E360AB68A3602046D5
:105AE00038BD022A70B5044607D0032A12D0012A15
:105AF00001D10B680360002070BD14200E68FEF712
:105B0000CAFA054620B13146FFF7DCFF337C2B741F
:105B10002560F0E70468002CEDD02046FFF7B8FDC3
:105B20001421204600F0CBFEE5E70000F0B589B077
:105B300004460D4601A81146FFF711FEA4B124B298
:105B40001DB1284601F008FC054601A803A90395EC
:105B5000ADF81040FFF778FE03A8FFF7AFFD02A8ED
:105B6000FEF7B8FB09B0F0BD019D0123D5E84F2F2A
:105B7000002A03D1C5E8413F0029F7D1EFD12B73AB
:105B8000BFF35B8F6B702B1DBFF35B8F53E8006F10
:105B900043E80042002AF9D1BFF35B8F002EDED02C
:105BA0002046FFF7C3FB074660B105F10C01304604
:105BB000FFF716FE3046FFF76BFD1021304600F070
:105BC0007EFECCE7314603A8FFF77CFF2B7B8DF8E8
:105BD0001C301020FEF75FFA0546D0B18760142014
:105BE000FEF759FA044678B18760014603A8FFF72B
:105BF000D5FD059BA268A360069B0592E268E36061
:105C00009DF81C3006922374064BEB60064B2C600B
:105C1000AB6003A8FFF73CFD002229460348FFF7CD
:105C20008DFBC7E7F3570D00E35A0D006F550D00CC
:105C3000002240681146FFF73FBC00224068114631
:105C4000FFF74ABC40680022FFF73EBC40680022D4
:105C500081F00101FFF728BC002340681A4619466D
:105C6000FFF71ABC002340681A461946FFF70CBC20
:105C7000002240681146FFF7FFBB00224068114632
:105C8000FFF7EABB406800220221FFF7EDBB0023CB
:105C900040681A46FFF7D8BB024B03225A60024AFB
:105CA0001A6070470CE6032078950D007047F8B530
:105CB000064615460C468F18BC4206D0336814F8C9
:105CC000011B9B6830469847F6E72846F8BD007CE4
:105CD0000022FFF719BA007C0021FFF71DBA007CF3
:105CE0000021FFF721BA007C0021FFF725BA007CD4
:105CF0000021FFF729BA10B51421044600F0DFFD9A
:105D0000204610BD10B54FF47A73044608460021B2
:105D1000C4E90113034B236020741146FFF724FAF2
:105D2000204610BDAC950D000023007C1A46194694
:105D3000FFF7D2B97FB500221423CDE90122ADF8D7
:105D400004300B788DF808304B680393CB680493CC
:105D5000007C0B7A059301A9FFF70EFA07B05DF8F6
:105D600004FB1FB5003B8DF800104FF06401039158
:105D700018BF0123694601928DF80830FFF7DAFF5A
:105D800005B05DF804FB0123FFF7EBBF007C0022A8
:105D9000FFF7AAB9007C0022FFF7AEB90121FFF797
:105DA000F9BF704710B51821044600F088FD204661
:105DB00010BDF0B5037D062B8DB00E4600F1040733
:105DC0004FF0000412D000F1080515F8011D0A2259
:105DD000304600F04AF9AF42044419D0002CF4D008
:105DE0002E21304600F028F90444EEE72F236A46BE
:105DF00039460A208DF80040FFF7C6F9684601F0E1
:105E0000C8FA33680246DB6869463046984704465C
:105E100020460DB0F0BD000010B5054B0446112220
:105E200040F8043B002101F059FA204610BD00BFA4
:105E3000D4950D000346074A10B543F8042B01F131
:105E4000100251F8044B43F8044B9142F9D10A78FF
:105E50001A7010BDD4950D0010B59DF8084044EAA5
:105E6000032343EA024242EA0161042341600375CD
:105E700010BD13B5CB7800938B784A780978FFF77B
:105E8000EBFF02B010BD0000014B024A1A607047E0
:105E900014E60320E0950D00002340681A46FFF742
:105EA000D3BA406800220221FFF7DEBA0022406820
:105EB0001146FFF7D1BA002240681146FFF7DCBA5D
:105EC000002340681A461946FFF7DEBA00234068EF
:105ED0001A461946FFF7E0BA4068002281F0010136
:105EE000FFF7E2BA40680022FFF7EEBA00224068EE
:105EF0001146FFF7F1BA002240681146FFF7DCBAFD
:105F00002DE9F043002495B016460D460746FFF7ED
:105F100083FF214618220EA8009401F0DFF94023E8
:105F2000CDE90C3421466B460CAA3046FFF73CF90C
:105F30000446002846D1024601216868FFF79CFA12
:105F40000221804622466868FFF796FA009E814645
:105F50002146002E36D0002934D17368022B03D09D
:105F60000A2B0BD0F669F4E7B8F1000F04D0716981
:105F700038460431FFF77DFF4146F3E7B9F1000FE2
:105F800001D14946EEE77469102201A801F0A6F993
:105F900006238DF8143001AD04F108031834186895
:105FA00059682A4603C20833A3421546F7D101A90E
:105FB00006A807ADFFF73EFF0FCD3C1D0FC42B68B1
:105FC0002370DEE70098FFF7E7F8384615B0BDE824
:105FD000F0830000024B034A1A6000225A607047A7
:105FE00018E60320EC950D00F8B506460D468F180F
:105FF0000024BD420CD0336815F8011B9B68304665
:106000009847031E01DB1C44F3E7002C08BF1C4625
:106010002046F8BD13B50446084659B1019101F078
:10602000B8F923680199DB680246204602B0BDE852
:106030001040184702B010BD03689B68184738B578
:106040000D210546FFF7F8FF0A2104462846FFF711
:10605000F3FF204438BD38B50546FFF7DBFF0446A3
:106060002846FFF7ECFF204438BD30B58BB0002345
:106070008DF82430012A98BF0A2209AC0D46B1FBE5
:10608000F2F101FB125303F0FF03092B94BF3033ED
:106090003733DBB2AA4204F8013DEFD92146FFF7BE
:1060A000B9FF0BB030BD10B50446FFF7F1FA20463A
:1060B00010BD00000348044A04490023836000F037
:1060C000F9BB00BF20E6032098E40320A7600D0081
:1060D00010B5044608462170FFF76EF80023636090
:1060E000204610BD10B504460068FFF705FA2046AB
:1060F00010BD10B50446006808B1FFF7FDF9002394
:10610000C4E90133236010BD38B504460D4600686C
:106110000131FFF7F9F910B1C4E90005012038BDDC
:1061200010B50368044623B143688B4201D30120B4
:1061300010BD2046FFF7E8FF0028F9D0A368002B28
:10614000F5D122681370F2E737B50D46114601927A
:106150000446FFF7E5FF019A28B92046FFF7C9FF7B
:10616000204603B030BDA2602946206801F0A8F89F
:106170002268A3680021D154F2E7002313B5C0E9D7
:10618000003304468360037341B10846019101F076
:1061900000F9019902462046FFF7D6FF204602B0DB
:1061A00010BD884210B5044605D00B682BB18A6833
:1061B0001946FFF7C9FF204610BDFFF79AFFFAE71F
:1061C00010B500230446C0E9003383600373FFF772
:1061D000E8FF204610BD08B582683AB921B10878B9
:1061E000B0FA80F0400900E0012008BD006809B95C
:1061F0000078F5E701F09EF8F2E758B50E462AB1AF
:1062000021B184689C4202D800230B7058BDE41A67
:10621000013A0168944228BF144619442246304688
:1062200001F0D1F800233355F0E7000008B500680D
:1062300040B101F02FF851EC100B00F0BDFF00EE63
:10624000100A08BD9FED010AFBE700BF0000000037
:1062500007B50B4600210246009101208C21FFF773
:1062600091F803B05DF804FB01460020FFF7F0BF92
:106270000020FFF7F9BF000010B5094B094C0222BE
:1062800000201A60084B2060A080A071A360FFF777
:1062900035F82046054A0649BDE8104000F00ABB23
:1062A0003CE6032030E603200000FFFF98E40320D3
:1062B000D1400D002DE9F041154ADFF86080D2E9A8
:1062C0000032C01842EB0101124AD2E90032C6186E
:1062D00041EB0207D8E90023BB4208BFB2428CB0B1
:1062E00013D003A96846CDE90067FFF735F9089B8D
:1062F000094D03F26C7303AC08930FCC0FC50FCCA0
:106300000FC5C8E9006723682B600CB0BDE8F081B9
:1063100070E6032068E6032044E6032078E60320C5
:1063200008B50020FFF780F828B1FFF755F880F096
:106330000100C0B208BD0120FCE710B50020FEF747
:106340009BFE0446A0B9FEF7D1FF012810D12046DC
:10635000FEF7FCFF60B9FFF7E3FF10B9FFF72CF879
:10636000F9E7FFF7DDFFBDE810400020FEF784BE2F
:10637000204610BD1FB5FFF7E0FF10220021684640
:1063800000F0ACFF00216846FEF786FE009805B0DD
:106390005DF804FB08B5FFF7EDFFC117FFF78AFFB3
:1063A000014B986808BD00BF44E6032008B5FFF71D
:1063B000E1FFC117FFF77EFF014B586808BD00BF22
:1063C00044E60320024B1A68024B1A60704700BF74
:1063D000C0E2032040E6032070474174704708B5CF
:1063E000007CFEF731FF20EAE07008BD08B5007CB4
:1063F000FEF702FF20EAE07008BD08B5007CFEF75A
:106400000BFF40EAE07008BD08B5007CFEF7FCFE1B
:1064100040EAE07008BD007CFEF706BF37B5457C5A
:1064200004462DB1207C03B0BDE83040FEF7DCBE51
:10643000007C0191FEF708FF00280199F2DC284654
:1064400003B030BD10B51421044600F038FA2046E0
:1064500010BD000010B54FF0000C04460846114670
:106460004FF47A72C4E901C2044A22600122207406
:1064700062741A46FEF7B0FE204610BD3C960D0031
:1064800013B50E4C2178BFF35B8F11F0010112D1CF
:1064900020460191FDF705FE019960B1084A094BBC
:1064A0000948FFF7D7FF2046FDF700FE074A0849D5
:1064B000054800F0FFF9044802B010BD80E6032053
:1064C00084E6032008E703208CE7032098E40320F8
:1064D000D9630D0041747047704708B50021007CF6
:1064E000FEF7DAFE40EAE07008BD08B50121007C45
:1064F000FEF7D2FE40EAE07008BD08B5007CFEF76A
:10650000C3FE20EAE07008BD08B5007CFEF7B4FECB
:1065100020EAE07008BD13B50446007C0191FEF747
:10652000B3FE0028019901DC607C20B1207CFEF7DD
:10653000BBFE20EAE07002B010BD007CFEF7BCBEDE
:1065400010B51421044600F0BAF9204610BD000031
:1065500010B54FF47A73044608460021C4E90113CC
:10656000044B23600123207463741146FEF774FE0C
:10657000204610BD6C960D00007C0022FEF774BE14
:1065800010B514220446002100F0A8FE204610BDDC
:1065900010B5104C88B003A8FFF7F2FF2178BFF3C5
:1065A0005B8F11F0010111D120460191FDF779FDBA
:1065B000019958B103AA0848FFF7CAFF2046FDF722
:1065C00075FD064A0649044800F074F9024808B00F
:1065D00010BD00BFA0E70320A4E7032098E4032038
:1065E000D9640D00014B1860704700BFC4E203205E
:1065F00008B50B4B43B1FFF7CBFF03681B69984706
:10660000002801DDAFF30080064B43B1FFF738FFF0
:1066100003681B699847002801DDAFF3008008BDBF
:10662000000000000000000008B5FFF7E1FFFEF7E2
:10663000FBFC014B186008BDCCE703200248034A6D
:106640000349121A00F03CBE00F4032004F40320B6
:1066500030990D0007B5002300931A466FF07701BB
:10666000FEF786FE03B05DF804FB000007B5438823
:106670000A2B08D0502B0BD1094B1B684BB103B030
:106680005DF804EB1847FFF7E5FF03B05DF804FB86
:10669000002300931A466FF07701FEF769FEF4E7D6
:1066A000BCE7032038B5124C1248134D0021FEF709
:1066B0004BFF2368AB42114B0CBF012200221A7022
:1066C00002D0FFF7BBFF2560FEF79EFC044600F0FA
:1066D0000DFE0B4B13B12046AFF30080002108489C
:1066E000FEF7AAFEBDE8384006480021FEF736BE98
:1066F00000F40320E5650D001E1C279AB8E703206F
:10670000000000006D660D0008B5024B1B681B6899
:10671000019308BD5C02030008B5024B1B685B686F
:10672000019308BD5C02030008B5024B1B689B681F
:10673000019308BD5C020300232813B502D9002091
:1067400002B010BDA0F10B03022B1AD8174C217810
:10675000BFF35B8F11F001010BD120460191FDF7D2
:10676000A0FC019928B11248FFF7B2FC2046FDF7C2
:106770009DFC0F4B1878FEF727FD0028DFD1012084
:10678000DEE7012809D800F06DF80021007CFEF753
:10679000E3FC80F00100C0B2D2E709380128EED84E
:1067A000FFF76EFE007CFEF747FDF2E7C0E703202F
:1067B000C4E70320232838B504460D460AD8FF292C
:1067C00008D0FFF7B9FF28B129462046BDE8384078
:1067D000FEF76ABC38BD38B504460D46FEF76CFCC2
:1067E000FF2810D0062804D84D2323FA00F0C30751
:1067F00009D42046FFF7A0FF28B129462046BDE86E
:106800003840FEF761BC38BD10B5084C2378BFF3A3
:106810005B8FDB0708D42046FDF743FC20B1FEF771
:106820000BFC2046FDF742FC014810BDD0E70320D9
:10683000D4E7032038B500232025438014230446E1
:106840000380856005610649284600F03AF804494E
:106850006060284600F035F8E060204638BD00BF93
:1068600094960D0030B50F4D2978BFF35B8F11F072
:10687000010487B013D12846FDF713FC78B101A8B5
:10688000FFF7D8FF01AA21460748FFF73BFA284641
:10689000FDF70CFC054A0649034800F00BF80248D6
:1068A00007B030BDD8E70320DCE7032098E40320DD
:1068B000AD5C0D000B460146184600F0F3BCFDF739
:1068C000EEBBFDF7EABB08B5FEF72EFE81F00041F6
:1068D00002E000BF83F0004330B54FEA41044FEAC5
:1068E000430594EA050F08BF90EA020F1FBF54EA60
:1068F000000C55EA020C7FEA645C7FEA655C00F0FC
:10690000E2804FEA5454D4EB5555B8BF6D420CDDCC
:106910002C4480EA020281EA030382EA000083EA4F
:10692000010180EA020281EA0303362D88BF30BDEF
:1069300011F0004F4FEA01314FF4801C4CEA113145
:1069400002D0404261EB410113F0004F4FEA0333A4
:106950004CEA133302D0524263EB430394EA050F2F
:1069600000F0A780A4F10104D5F1200E0DDB02FA9E
:106970000EFC22FA05F2801841F1000103FA0EF232
:10698000801843FA05F359410EE0A5F120050EF1F8
:10699000200E012A03FA0EFC28BF4CF0020C43FA29
:1069A00005F3C01851EBE37101F0004507D54FF036
:1069B000000EDCF1000C7EEB00006EEB0101B1F586
:1069C000801F1BD3B1F5001F0CD349085FEA3000CC
:1069D0004FEA3C0C04F101044FEA445212F5800FD7
:1069E00080F09A80BCF1004F08BF5FEA500C50F174
:1069F000000041EB045141EA050130BD5FEA4C0C57
:106A0000404141EB0101013C28BFB1F5801FE9D2B3
:106A100091F0000F04BF01460020B1FA81F308BFD6
:106A20002033A3F10B03B3F120020CDA0C3208DDA2
:106A300002F1140CC2F10C0201FA0CF021FA02F17D
:106A40000CE002F11402D8BFC2F1200C01FA02F1ED
:106A500020FA0CFCDCBF41EA0C019040E41AA2BF12
:106A600001EB0451294330BD6FEA04041F3C1CDADA
:106A70000C340EDC04F11404C4F1200220FA04F0FA
:106A800001FA02F340EA030021FA04F345EA0301A4
:106A900030BDC4F10C04C4F1200220FA02F001FA66
:106AA00004F340EA0300294630BD21FA04F02946E8
:106AB00030BD94F0000F83F4801306BF81F4801181
:106AC0000134013D4EE77FEA645C18BF7FEA655CF4
:106AD00029D094EA050F08BF90EA020F05D054EAC6
:106AE000000C04BF1946104630BD91EA030F1EBFCB
:106AF0000021002030BD5FEA545C05D140004941CF
:106B000028BF41F0004130BD14F580043CBF01F5C1
:106B1000801130BD01F0004545F0FE4141F47001A7
:106B20004FF0000030BD7FEA645C1ABF1946104682
:106B30007FEA655C1CBF0B46024650EA013406BF83
:106B400052EA033591EA030F41F4002130BD00BF42
:106B500090F0000F04BF0021704730B54FF48064FF
:106B600004F132044FF000054FF0000150E700BF80
:106B700090F0000F04BF0021704730B54FF48064DF
:106B800004F1320410F0004548BF40424FF00001CC
:106B90003EE700BF42004FEAE2014FEA31014FEA0F
:106BA00002701FBF12F07F4393F07F4F81F060515E
:106BB000704732F07F4208BF704793F07F4F04BFA9
:106BC00041F40021704730B54FF4607401F0004586
:106BD00021F000411CE700BF50EA010208BF7047E6
:106BE00030B54FF000050AE050EA010208BF7047D7
:106BF00030B511F0004502D5404261EB41014FF440
:106C0000806404F132045FEA915C3FF4D8AE4FF047
:106C100003025FEADC0C18BF03325FEADC0C18BF2A
:106C2000033202EBDC02C2F1200300FA03FC20FA7B
:106C300002F001FA03FE40EA0E0021FA02F11444C8
:106C4000BDE600BF70B54FF0FF0C4CF4E06C1CEAE1
:106C500011541DBF1CEA135594EA0C0F95EA0C0F52
:106C600000F0DEF82C4481EA030621EA4C5123EAC5
:106C70004C5350EA013518BF52EA033541F48011F4
:106C800043F4801338D0A0FB02CE4FF00005E1FBA7
:106C900002E506F00042E0FB03E54FF00006E1FBF1
:106CA00003569CF0000F18BF4EF0010EA4F1FF0434
:106CB000B6F5007F64F5407404D25FEA4E0E6D4174
:106CC00046EB060642EAC62141EA55514FEAC52085
:106CD00040EA5E504FEACE2EB4F1FD0C88BFBCF501
:106CE000E06F1ED8BEF1004F08BF5FEA500E50F1B2
:106CF000000041EB045170BD06F0004646EA010178
:106D000040EA020081EA0301B4EB5C04C2BFD4EBA9
:106D10000C0541EA045170BD41F480114FF0000EA2
:106D2000013C00F3AB8014F1360FDEBF002001F010
:106D3000004170BDC4F10004203C35DA0C341BDC8A
:106D400004F11404C4F1200500FA05F320FA04F05C
:106D500001FA05F240EA020001F0004221F0004190
:106D600010EBD37021FA04F642EB06015EEA430E03
:106D700008BF20EAD37070BDC4F10C04C4F1200533
:106D800000FA04F320FA05F001FA04F240EA0200E6
:106D900001F0004110EBD37041F100015EEA430EB7
:106DA00008BF20EAD37070BDC4F1200500FA05F2D7
:106DB0004EEA020E20FA04F301FA05F243EA020356
:106DC00021FA04F001F0004121FA04F220EA020065
:106DD00000EBD3705EEA430E08BF20EAD37070BDAB
:106DE00094F0000F0FD101F00046400041EB01018B
:106DF00011F4801F08BF013CF7D041EA060195F06D
:106E0000000F18BF704703F00046520043EB030326
:106E100013F4801F08BF013DF7D043EA0603704713
:106E200094EA0C0F0CEA135518BF95EA0C0F0CD01E
:106E300050EA410618BF52EA4306D1D181EA030164
:106E400001F000414FF0000070BD50EA410606BF5E
:106E50001046194652EA430619D094EA0C0F02D1A3
:106E600050EA013613D195EA0C0F05D152EA0336E8
:106E70001CBF104619460AD181EA030101F0004106
:106E800041F0FE4141F470014FF0000070BD41F04F
:106E9000FE4141F4780170BD70B54FF0FF0C4CF429
:106EA000E06C1CEA11541DBF1CEA135594EA0C0F48
:106EB00095EA0C0F00F0A7F8A4EB050481EA030E95
:106EC00052EA03354FEA013100F088804FEA03337C
:106ED0004FF0805545EA131343EA12634FEA02224A
:106EE00045EA111545EA10654FEA00260EF000410B
:106EF0009D4208BF964244F1FD0404F5407402D25D
:106F00005B084FEA3202B61A65EB03055B084FEAED
:106F100032024FF480104FF4002CB6EB020E75EBEA
:106F2000030E22BFB61A754640EA0C005B084FEA12
:106F30003202B6EB020E75EB030E22BFB61A75468F
:106F400040EA5C005B084FEA3202B6EB020E75EBDA
:106F5000030E22BFB61A754640EA9C005B084FEA52
:106F60003202B6EB020E75EB030E22BFB61A75465F
:106F700040EADC0055EA060E18D04FEA051545EA4E
:106F800016754FEA06164FEAC30343EA52734FEAF7
:106F9000C2025FEA1C1CC0D111F4801F0BD141EA70
:106FA00000014FF000004FF0004CB6E711F4801FD5
:106FB00004BF01430020B4F1FD0C88BFBCF5E06FB5
:106FC0003FF6AFAEB5EB030C04BFB6EB020C5FEAC5
:106FD000500C50F1000041EB045170BD0EF0004E1A
:106FE0004EEA113114EB5C04C2BFD4EB0C0541EA4C
:106FF000045170BD41F480114FF0000E013C90E649
:1070000045EA060E8DE60CEA135594EA0C0F08BF0C
:1070100095EA0C0F3FF43BAF94EA0C0F0AD150EA0B
:1070200001347FF434AF95EA0C0F7FF425AF10469E
:1070300019462CE795EA0C0F06D152EA03353FF4C6
:10704000FDAE1046194622E750EA410618BF52EA43
:1070500043067FF4C5AE50EA41047FF40DAF52EA17
:1070600043057FF4EBAE12E74FF0FF3C06E000BFB4
:107070004FF0010C02E000BF4FF0010C4DF804CDC1
:107080004FEA410C7FEA6C5C4FEA430C18BF7FEA81
:107090006C5C1BD001B050EA410C0CBF52EA430CAF
:1070A00091EA030F02BF90EA020F0020704710F12F
:1070B000000F91EA030F58BF994208BF90422CBFBE
:1070C000D8176FEAE37040F0010070474FEA410CB7
:1070D0007FEA6C5C02D150EA013C07D14FEA430CD5
:1070E0007FEA6C5CD6D152EA033CD3D05DF8040B46
:1070F000704700BF8446104662468C461946634678
:1071000000E000BF01B5FFF7B7FF002848BF10F14E
:10711000000F01BD4DF808EDFFF7F4FF0CBF012093
:1071200000205DF808FB00BF4DF808EDFFF7EAFF0F
:1071300034BF012000205DF808FB00BF4DF808EDCA
:10714000FFF7E0FF94BF012000205DF808FB00BFBF
:107150004DF808EDFFF7CEFF94BF012000205DF849
:1071600008FB00BF4DF808EDFFF7C4FF34BF012056
:1071700000205DF808FB00BF4A0011D212F5001292
:1071800011D20DD56FF47873B3EB62520ED44FEA7F
:10719000C12343F0004343EA505323FA02F07047FF
:1071A0004FF00000704750EA013002D14FF0FF303D
:1071B00070474FF0000070474FEA4102B2F1E043E0
:1071C00024BFB3F5001CDCF1FE5C0DD901F0004CCE
:1071D0004FEAC0024CEA5070B2F1004F40EB83001E
:1071E00008BF20F00100704711F0804F21D113F14A
:1071F0003872BCBF01F00040704741F480114FEA83
:107200005252C2F11802C2F1200C10FA0CF320FA0B
:1072100002F018BF40F001004FEAC1234FEAD32328
:1072200003FA0CFC40EA0C0023FA02F34FEA430392
:10723000CCE77FEA625307D150EA01331EBF4FF01B
:10724000FE4040F44000704701F0004040F0FE4036
:1072500040F40000704700BFD0B50C4B002206463A
:107260000F46FFF7EFFCFFF787FF0446FFF770FCC0
:10727000074B0022FFF7E6FC02460B463046394634
:10728000FFF728FBFFF778FF2146D0BD0000F03D57
:107290000000F041002100F0D1BE0A22002100F0E0
:1072A00053BF000010B5054C13462CB10A460146E9
:1072B0000220AFF3008010BD2046FCE70000000074
:1072C0000A44914200F1FF3300D1704710B511F824
:1072D000014B03F8014F9142F9D110BD024403461E
:1072E000934200D1704703F8011BF9E738B50D4B05
:1072F0001D68AB6B04467BB91820FEF7F5F80A4A07
:107300000A4BA863C0E90023094B83600B238381E8
:1073100001220023C0E90423AB6B00221C615A61E7
:1073200038BD00BFC4E203200E33CDAB34126DE68E
:10733000ECDE050010F8012B11F8013B012A28BFF3
:107340009A42F7D0D01A7047034611F8012B03F880
:10735000012B002AF9D17047024B0146186800F052
:1073600003B800BFC4E2032037B5044608460D4603
:1073700000F00FF8421C114620460192FEF7DCF89F
:10738000044618B1019A2946FFF79AFF204603B038
:1073900030BD034613F8012B002AFBD1181A01381F
:1073A000704710B56AB10139841810F8013B11F823
:1073B000012F934203D1A04201D0002BF5D1981A9E
:1073C00010BD1046FCE710B50139034632B111F883
:1073D000014F03F8014B013A002CF7D11A44002168
:1073E000934200D110BD03F8011BF9E770B50446C4
:1073F0000D4645EC104B164601F01CFD51EC100BF0
:107400007EB1C5F30A53C3F16B03002B09DD1B05E5
:1074100003F17F55002405F5401522462B46FFF762
:1074200011FC70BD000000002DE9F04FA3B01F4615
:1074300000231E93A44B19921B6807930446184619
:107440008846FFF7A6FF4FF0000A05464FF0000BF5
:10745000CDF874801D9B1A782B2A4CD039D80D2A70
:1074600032D8082A32D8002A3CD000230E931D9E21
:107470003378302B40F0B480737803F0DF03582B5F
:107480006CD10E9B01931EAB029700938F4A1FABEA
:107490001DA9204600F0CAFE10F00707054605D0DA
:1074A000062F2AD1013600231D960E93199B002B1F
:1074B00040F096850E9BDBB152460BF1004343EC46
:1074C000102B23B0BDE8F08F202ACED101331D93BD
:1074D000C0E72D2AC9D101220E925A1C1D925B7859
:1074E000002BC4D1199BCDF87480002B40F0768519
:1074F00052465B46E3E70022EEE71E9A3AB1352199
:1075000020A801F096FD1E99204601F0CBF9013F1D
:10751000052F07D8DFE807F00E0B181D0E034FF0FC
:10752000000BDA462807C1D54BF0004BBEE7DDE97A
:1075300020ABF7E7DDE920A31F9A23F4801302F2C2
:10754000334243EA025BEDE7DFF884B14FF0000A13
:10755000E8E76FF0004B4FF0FF3AE3E71D9B5A1C42
:107560001D925B78302BF9D0002B9FD001234FF078
:10757000000904931D9B0A93CDF824904F460A22DC
:107580001D980678A6F13003D9B209292AD907999E
:107590002A46FFF706FF98B3002033463D46079082
:1075A0000246652B01D0452B18D11DB9049B03431E
:1075B00098D00025DDF8748008F101031D9398F838
:1075C00001302B2B75D02D2B7BD04FF0000CA3F16D
:1075D0003001092940F28280CDF8748000269DE0B8
:1075E0000023C4E7082FD8BF099900F10100DABFD2
:1075F00002FB0133099302FB093901371D90BFE7F4
:107600001D9B5A191D925B5D002F37D007903D4698
:10761000A3F13002092A12D90122C2E71D9B5A1C8C
:107620001D925B780130302BF8D0A3F13102082A8B
:1076300000F2DB841D9A079000200A920546303B39
:1076400000F1010214D00799114407912A4600EB7A
:10765000050E0A21724513D12A18082A05F10105E1
:1076600005441CDC09990A2202FB0133099300221C
:107670001D9B591C1D915B781046C9E73846D2E71F
:10768000082A04DC099E4E4309960132E2E702F122
:10769000010CBCF1100FD8BF01FB09F9F5E7102D63
:1076A000DCBF0A2202FB0939E1E70023079301222C
:1076B0007CE74FF0000C08F102031D9398F80230AC
:1076C00085E74FF0010CF6E7FC970D00A4960D003E
:1076D0000000F07F1D9B591C1D915B78302BF9D069
:1076E000A3F1310108293FF679AFA3F1300E1D9BBC
:1076F00008931D9B591C1D915B78A3F13006092E40
:1077000037D9089E891B082944F61F6602DC764596
:10771000A8BF7646BCF1000F00D07642002D4FD1B5
:10772000049901437FF4C2AE002A7FF4DBAE692BDB
:1077300027D024DC492B24D04E2B7FF4D3AE9E4996
:107740001DA800F0B9FF00283FF4CCAE1D9B1B78AC
:10775000282B2DD1994920AA1DA800F0C1FF05288A
:1077600026D1219BDDF880A043F0FF4B4BF4E00BCA
:107770009CE60A2101FB0E3EAEF1300EB9E76E2BFE
:10778000DBE78F491DA800F097FF00283FF4AAAE61
:107790001D9B8C49013B1DA81D9300F08DFF10B966
:1077A0001D9B01331D93DFF82CB24FF0000A7DE6DC
:1077B000854801F091FC8DED040BDDE904AB75E625
:1077C000079B0998F31A002F08BF2F46102D089326
:1077D000A846A8BF4FF01008FFF7BAF9092D824656
:1077E0008B4613DD794B03EBC80353E91223FFF7F4
:1077F00029FA824648468B46FFF7AAF902460B460D
:1078000050465946FFF768F882468B460F2D38DC04
:10781000089B002B3FF44AAE24DD162B0BDC6B4D8E
:1078200005EBC305D5E9000152465B46FFF70AFAAE
:1078300082468B463AE6089AC5F12503934220DB3F
:10784000624CC5F10F0504EBC50152465B46D1E918
:107850000001FFF7F7F9089B5D1B04EBC504D4E9B1
:107860000023E3E7089B16330BDB079B574A9E1B5D
:1078700002EBC606D6E9002350465946FFF70CFB3B
:10788000D6E7089BA5EB08089844B8F1000F71DD16
:1078900018F00F030AD04D4901EBC30152465B4675
:1078A000D1E90001FFF7CEF982468B4638F00F0888
:1078B0004DD0B8F59A7F22DD00252E460995079513
:1078C0002223DFF810B123604FF0000A099B002B40
:1078D0003FF4ECAD1E99204600F0E4FF07992046E6
:1078E00000F0E0FF3146204600F0DCFF0999204619
:1078F00000F0D8FF2946204600F0D4FFD6E500234B
:107900004FEA2818504659469946B8F1010F21DC34
:107910000BB182468B462E4BABF1547B03EBC9096E
:1079200052465B46D9E90001FFF78CF9294B0A461C
:107930000B4029498B428246BED8A1F580118B426B
:1079400086BFDFF898B04FF0FF3A02F1547B002376
:10795000049381E018F0010F07D01D4B03EBC9031E
:10796000D3E90023FFF76EF9012309F101094FEA7A
:107970006808CAE7EBD0C8F1000818F00F020AD077
:10798000124B03EBC20350465946D3E90023FFF7DD
:1079900083FA82468B465FEA2818D8D0B8F11F0FC9
:1079A0001EDD00252E460995079522234FF0000A7B
:1079B0004FF0000B236089E79E960D00B8960D00EE
:1079C00095960D0098960D0099920D0038980D002F
:1079D00010980D000000F07F0000A07CFFFFEF7FFB
:1079E00018F0100318BF6A23DFF8B49304935046CD
:1079F0005946002318F0010F04D0D9E90023FFF7FE
:107A000021F901235FEA680809F10809F2D10BB1F5
:107A100082468B46049BBBB1CBF30A53C3F16B0385
:107A2000002B594610DD1F2B40F32881342BDEBF7D
:107A3000203B4FF0FF3202FA03F34FF0000ACCBFB5
:107A40004FF05C7B03EA010B0022002350465946AD
:107A5000FFF760FB0028A4D1099B00930A992B46ED
:107A60003A46204600F073FF099000283FF424AF07
:107A7000079B9E1B089B002BB4BF3346002310932B
:107A8000089B002523EAE37318932E46099B2046A2
:107A9000596800F0D3FE079000283FF411AF099B0E
:107AA0001A69023203F10C0192000C30FFF708FC56
:107AB0004BEC10AB20AA1FA92046CDE90AAB01F080
:107AC00035FA1E9000283FF4FBAE0121204600F05D
:107AD000CCFF064600283FF4F3AE1F9B0499002B11
:107AE000ABBF109A189A189FDDF84090ACBF03EB1B
:107AF0000209D71A209AA3EB01089044A34B08F17E
:107B0000FF389845C2F1360280F2CC80A3EB08031F
:107B10001F2BA2EB03024FF0010100F3B68001FA24
:107B200003F3119300230C9309EB0208049BC14556
:107B300017441F444B46A8BF4346BB42A8BF3B4621
:107B4000002BC2BFA8EB0308FF1AA9EB0309109B87
:107B5000002B17DD31461A46204601F02BF8064669
:107B600000283FF4ADAE01461E9A204600F086FF85
:107B70000F9000283FF4A4AE1E99204600F092FE1C
:107B80000F9B1E93B8F1000F00F39180089B002B10
:107B900008DD189A0799204601F00CF80790002894
:107BA0003FF48EAE002F08DD07993A46204601F0DB
:107BB0004FF8079000283FF483AEB9F1000F08DDBD
:107BC00031464A46204601F043F8064600283FF475
:107BD00077AE079A1E99204601F0B5F805460028B1
:107BE0003FF46EAEC3680F930023C360314601F0CB
:107BF0008EF8002865DA0F9B53EA0A0340F087806D
:107C0000CBF31303002B40F082802BF000431B0DBD
:107C10001B05B3F1D66F7AD96B6913B92B69012BA8
:107C200075DD29460122204601F012F8314605464D
:107C300001F06DF800286ADD0499554A5B46002979
:107C400000F0858002EA0B01B1F1D66F7FDCB1F163
:107C50005C7F7FF7AAAE4F4A0023CDE9163250462B
:107C6000DDE916235946FEF7EDFF0B46034308BF37
:107C7000222382468B4608BF23602BE64FF0FF325B
:107C800002FA03F303EA0A0ADEE6C8F17F4808F5C0
:107C90007F0808F57B4808F1E20801FA08F30C9325
:107CA000119141E700230C93012311933CE71E99A6
:107CB0004246204600F0CCFF1E9000287FF466AFBD
:107CC000FEE55F466ED10F9ACBF3130342B3324AFF
:107CD000934228D1049B5046EBB12D4A3A40B2F171
:107CE000D46F4FF0FF3119D8120DC2F16B0301FAB6
:107CF00003F3984217D1294B9F4202D101303FF440
:107D0000DFAD234B3B4003F5801B4FF0000A049B83
:107D1000002BA0D1DEE54FF0FF33EAE70B46E8E7A2
:107D200053EA0A0388D00C9BDBB13B42EFD00F9B98
:107D3000049A50465946C3B1FFF758FB02460B461A
:107D4000DDE90A01FEF7C8FD82468B46DFE71340F6
:107D5000A3F580136FEA135B6FEA0B5B4FF0FF3AFA
:107D6000D5E7119B13EA0A0FE0E7FFF73FFB024656
:107D70000B46DDE90A01FEF7ADFD00220023824635
:107D80008B46FFF7C7F90028C1D00EE602FCFFFFC3
:107D90000000F07F00005039FFFF0F00FFFFEF7F72
:107DA000D0960D003146284601F010F959EC108BA1
:107DB00010EE100A00224FF080434946FFF7BEF94B
:107DC00000287CD00F9B002B4CD0954B0022CDE996
:107DD0000C23DFF84C924FF00008924B3B4011937C
:107DE000119A914B9A4240F0B280DDE90A23DDE915
:107DF0000C01A7F1547B4BEC10ABCDE91623CDE978
:107E00000C0101F017F8DDE90C0153EC102BFEF723
:107E100019FF52465B46FEF75FFD0B468149834AD8
:107E20001940914282465ED90B9B02F154729342F3
:107E300003D10A9B01333FF443ADDFF8FCB14FF0AF
:107E4000FF3A1E99204600F02DFD0799204600F0CC
:107E500029FD3146204600F025FD2946204600F048
:107E600021FD13E6BAF1000F1BD1CBF31303F3B9D5
:107E70006B4B002240464946FFF756F9D0B94046C1
:107E800049466B4B0022FEF7DDFE8046894609F12C
:107E90000043CDF868801B93DDE91A23CDE90C235C
:107EA0009BE7BAF1010F02D1002F3FF47EAD614B89
:107EB00000228CE7DFF878914FF00008E7E75C4B91
:107EC000404649460022FEF7BDFE0F9B804689468C
:107ED00033B901F1004312901393DDE91223DDE77A
:107EE000CDE91289F9E703F1547B049B002BA8D15B
:107EF0002BF00043119A1B0D1B059A42A1D140465D
:107F0000494601F0FFF8FEF76FFE02460B46404679
:107F10004946FEF7DFFC0F9ACBF3130343EA0A034B
:107F200013438046894653D035A3D3E90023FFF796
:107F3000FBF800287FF4CEAC33A3D3E900234046FE
:107F40004946FFF70FF900283FF47BAFC2E4049BDA
:107F500033B3119BB3F1D46F22D82DA3D3E90023FF
:107F600040464946FFF7EAF8A0B149464046FFF7C8
:107F700003F9012838BF0120FEF7EAFD0F9B804678
:107F8000894613BB01F1004314901593DDE91423D6
:107F9000CDE90C230D9B119A03F1D6639B1A0D9327
:107FA000DDE90C019DED0A0BCDE90C0100F042FF6B
:107FB000DDE90C0153EC102BFEF744FEDDE90A234A
:107FC000FEF78AFC82468B468FE7CDE91489DDE710
:107FD00011A3D3E90023FFF7A7F8B4E700230E931A
:107FE000199A1D9B1360FFF765BA652B3FF45DABD3
:107FF000452B3FF45AAB0122FFF792BBAFF3008051
:108000009535A094FFFFDF3F35E5AF350000E03F39
:108010000000C0FFFFFFDF419535A094FFFFCF3F79
:108020000000F03F0000F07F0000E07FFFFF9F7C3A
:108030000000E03F0000F0BFFFFFEF7F0A4601466F
:108040000248034B0068FFF7EFB900BFC4E203200A
:108050002CE303202DE9F0473A4E86468C466046D5
:108060001CF8014BA55D15F00805F8D12D2C33D176
:108070009CF800404FF0010800F1020C002B5CD08E
:10808000102B0CD1302C0AD19CF8000000F0DF003E
:1080900058284DD19CF8014010230CF1020C08F136
:1080A0000047013F0026B7FBF3F9304603FB197A7E
:1080B000A4F13005092D18D82C46A34224DD751CE7
:1080C00007D081451DD301D1A2451ADB00FB034037
:1080D00001261CF8014BEBE72B2C08BF9CF8004055
:1080E000A84608BF00F1020CC8E7A4F14105192D0C
:1080F00001D8373CE1E7A4F16105192D04D8573CBC
:10810000DBE74FF0FF36E4E7731C06D12223CEF8FD
:108110000030384642B9BDE8F087B8F1000F00D012
:108120004042002AF7D00EB10CF1FF311160F2E7A6
:108130003024002BB3D10823B1E7302CA4D00A237C
:10814000ADE700BFF9960D0013460A460146024806
:108150000068FFF77FBF00BFC4E203200369B3EBF1
:10816000611F2DE9F0434FEA611200F1140445DD6F
:1081700011F01F0104EB830604EB82050CD100F122
:1081800010072946B14234D39B1A9B00EA1E96423F
:1081900038BF0023234415E054F82270C1F12008B1
:1081A000CF4005F1040EA1467645F44615D89B1A3A
:1081B0009A00043A0135AE4238BF0022A318A750F6
:1081C00007B104331A1BA3424FEAA20208BF0023DF
:1081D000026108BF4361BDE8F083DCF800C00CFA1F
:1081E00008FC4CEA070749F8047B5EF8047BCF40A3
:1081F000DAE751F804CB47F804CFC3E72346E1E7B9
:10820000A0F13003092B02D82038C0B27047A0F18A
:108210006103052B01D84738F7E7A0F14103052B8F
:1082200001D82738F1E70020704700002DE9F04F12
:108230002DED028B89B008EE100A0493BC4B1B682D
:10824000019318468B469046FFF7A3F8019BDBF895
:1082500000200344824613F8013C0593931CC2F1AD
:10826000FF2202F57F02FE32D1181F4613F8010BE0
:1082700000913028F8D0FFF7C3FF044600283AD118
:10828000019952463846FFF78CF80546002868D118
:1082900017F80A0007EB0A06FFF7B2FF002862D0C2
:1082A0003346187830281F4603F10103F9D0FFF751
:1082B000A7FF0123B0FA80F46409354600933A46DB
:1082C000164601323078FFF79BFF0028F8D101995C
:1082D00052463046FFF765F880B94DB906EB0A05FE
:1082E0002A46164601323078FFF78AFF0028F8D177
:1082F000AD1BAD0004E000242546E0E7002DF7D1DA
:10830000337803F0DF03502B3BD173782B2B2CD029
:108310002D2B2ED0711C4FF000090878FFF770FF4D
:10832000431EDBB2182B2CD8A0F1100211F8010F5C
:10833000FFF766FF431EDBB2182B1DD9B9F1000F02
:1083400000D052421544CBF80010E4B1009B002B42
:1083500014BF00270627384609B0BDEC028BBDE8E4
:10836000F08F3E4625460124CAE74FF00009B11CB4
:10837000D3E74FF00109FAE70A2303FB0202103AA0
:10838000D4E73146DFE7F31B013B2146072B52DCE4
:1083900018EE100A00F052FA4FF0000B00F1140929
:1083A000CAF101030446CDF80890CDF800B0069359
:1083B000B74243D30298009B40F8043BA0EB09006E
:1083C000801046012061184600F0FFFA301AD8F8F4
:1083D0000060B04266DD871B3946204600F04CFE47
:1083E0008246A8B17B1E591103F01F0259F82110D3
:1083F0004FF0010A0AFA02F20A4209D0534505DD9C
:10840000B91E204600F038FE002848D14FF0020A7D
:1084100039462046FFF7A2FE3D44D8F80830AB426B
:108420004FDA18EE100A214600F03CFA149A0023A5
:108430001360A3278FE701315B10A7E7731E059A2E
:10844000039316F8013C934219D0BBF1200F07D1DA
:10845000029B009A43F8042B0293002300939B464F
:1084600016F8010CFFF7CCFE009B00F00F0000FA9D
:108470000BF0034300930BF1040B039B0DE0039BF4
:10848000069A1344BB42E0D318460199079352461B
:10849000FEF787FF079B0028D7D11E4688E74FF0DD
:1084A000030AB5E70ADA371A214618EE100A3A46E7
:1084B00000F0CEFBED1B044600F114094FF0000A5A
:1084C000ABE7D8F80400A8426DDD451BAE4231DCB5
:1084D000D8F80C30022B23D0032B25D0012B15D13B
:1084E000AE4213D1012E0BD1049AD8F80430136098
:1084F00001232361C9F80030149B62271C602AE71E
:10850000711E204600F0B8FD0028EDD118EE100ACB
:10851000214600F0C7F9149A0023136050271AE788
:10852000159B002BF2D1DFE7159B002BDCD1EDE78B
:10853000FC970D006F1EBAF1000F31D127B13946FB
:10854000204600F099FD82467B11012159F8233025
:1085500007F01F0701FA07F71F422946204618BFF8
:108560004AF0020A761BFFF7F9FDD8F804500227FB
:10857000BAF1000F48D0D8F80C30022B15D0032BDD
:1085800017D0012B09D11AF0020F06D0D9F800003C
:108590004AEA000A1AF0010F0ED147F0100733E043
:1085A0004FF0010AD0E70127E2E7159BC3F1010371
:1085B0001593159B002BF0D0D4F8109004F1140300
:1085C0004FEA890B03EB89014FF0000C184653F872
:1085D000042BB2F1FF3F1CD001320260022F04F1E4
:1085E00014033AD1D8F80020013AB2420AD17111ED
:1085F000012253F8213006F01F0602FA06F61E4249
:1086000018BF174647F02007149B1C60049B1D6091
:10861000A1E6994243F804CCD8D8A368994514DB65
:10862000616818EE100A013100F008F9226902327F
:1086300004F10C01824692000C30FEF741FE214607
:1086400018EE100A00F02EF9544623695A1C04EB68
:108650008303226101225A61C0E722694A450BDD8A
:1086600001212046FFF77AFDD8F808300135AB42EA
:10867000FFF6D7AE0127C5E716F01F06FAD09B44D8
:10868000C6F120065BF8040C00F09FF9B042E7DB6E
:10869000F0E700BFC2F10802920070B5C2F12006F7
:1086A0004368046803FA06F52C43D340046040F89D
:1086B000043F8842F4D370BD30B50368013311F82C
:1086C000014B14B90360012030BD13F8012BA2F156
:1086D0004105192D98BF2032A242F0D00020F3E7C7
:1086E0002DE9F04F0B6801685E1102EB860613F06E
:1086F0001F0387B018BF04360025371F82469046F7
:10870000019346F8045CB9463C460295AB464A786C
:108710004B1C039342B3104605910492FFF770FD82
:1087200000284FD1049A0599202A18D8029B9B450E
:1087300013DD4C4506D2072D04DC2A464946204667
:10874000FFF7A8FF444550D90023A4F1040944F8D9
:10875000043CCDF808B04C461D460399D7E7292ABA
:1087600056D10231CAF80010BBF1000F50D04C4571
:1087700006D2072D04DC2A4649462046FFF78AFF29
:10878000444534D9A8F10402234653F8041B42F8A7
:10879000041F9F42F9D23B1B23F00303043301342F
:1087A000033EB44288BF04234344002243F8042B11
:1087B0009F42FBD23B681BB9474527D101233B6051
:1087C000052026E00135082D0BF1010B06DD44459F
:1087D000C3D9002344F8043C0125043C226800F07E
:1087E0000F0040EA02122260B7E70825B5E7019BB7
:1087F000002BDFD04FF0FF32C3F1200322FA03F346
:1088000056F8042C1A4046F8042CD3E7043FD1E76D
:10881000042007B0BDE8F08F82B001B901A942B1D0
:108820004BB113780B601278101E18BF012002B0F4
:1088300070471046FBE76FF00100F8E770B5466A35
:1088400004460D463EB91020FCF74EFEC0E9016615
:1088500060620660C660666AF36883B1636ADB685B
:1088600053F82500B8B9012101FA05F6721D9200EE
:10887000204600F022FC60B1C0E901560EE0212242
:108880000421204600F019FC636AF060DB68002BCD
:10889000E4D1002070BD026843F825200023C0E920
:1088A0000333F7E770B5466A05460C463EB910201B
:1088B000FCF71AFEC0E9016668620660C6603CB15A
:1088C0006B6A6268DB6853F82210216043F822402B
:1088D00070BD2DE9F0410E69074698460C4601F13E
:1088E000140000230568A9B202FB01814FEA114C74
:1088F0002D0C02FB05C589B2013301EB05419E42F7
:1089000040F8041B4FEA1548ECDCB8F1000F1BD00F
:10891000A368B34212DC616838460131FFF78EFF6D
:108920002269023204F10C01054692000C30FEF778
:10893000C7FC21463846FFF7B5FF2C4604EB8603FB
:108940000136C3F8148026612046BDE8F0812DE988
:10895000F8430C4615461F4609220833064693FB8A
:10896000F2F3002101229A4220DB3046FFF766FF36
:10897000089B4361092D4FF00103036119DD04F1E8
:108980000909C8462C4418F8013B0146303B0A222D
:108990003046FFF79EFFA045F5D1A5F108044C44F1
:1089A0002D1B6319BB4207DBBDE8F8835200013180
:1089B000D9E70A340925F3E714F8013B0146303BB7
:1089C0000A223046FFF785FFEBE7030C1B04D3B9FF
:1089D0000004102310F07F4F04BF0002083310F092
:1089E000704F04BF0001043310F0404F04BF8000FB
:1089F0000233002805DB10F0804F03F1010308BFAC
:108A00002023184670470023E4E7036813F00702A9
:108A100001460BD0DA0724D4980749BF5B089B08AE
:108A200001200B605CBF0B600220704798B2B0B9A8
:108A30001B0C102013F0FF0F04BF1B0A08301A078D
:108A400004BF1B0904309A0704BF9B080230DA07F1
:108A500003D45B0800F1010005D00B60704710469D
:108A6000E8E7002070472020704710B50C46012130
:108A7000FFF7E4FE01224461026110BD2DE9F04FD1
:108A800015460A692B699A42B8BF0B460C46BCBF13
:108A90002C461D462769D5F81090A368616807EB3E
:108AA0000906B342B8BF013185B0FFF7C7FE00F138
:108AB000140101EB86080B46002243451DD304F147
:108AC000140305F1140203EB870702EB89030293F9
:108AD0003B1B153B23F00303043304F11505AF42A0
:108AE00038BF04230193029B0392934208D8002EBF
:108AF0005ADC066105B0BDE8F08F43F8042BDCE7D3
:108B0000B2F800A0BAF1000F24D004F1140E894687
:108B10004FF0000C5EF8045BD9F800B0ABB21FFA5E
:108B20008BFB0AFB03B34FEA154BD9F800506344A3
:108B30004FEA154C0AFB0BC505EB13459BB243EA04
:108B40000543774549F8043B4FEA154CE2D8019BB1
:108B500041F803C0039BB3F802900432B9F1000F4F
:108B600020D00B6804F1140C8E464FF0000ABCF8BC
:108B70000050BEF802B009FB05B5AA449BB243EA17
:108B80000A434EF8043B5CF8043BBEF800501B0C53
:108B900009FB035303EB1A4367454FEA134AE6D830
:108BA000019D4B5104319EE758F8043D002BA0D1A4
:108BB000013E9CE72DE9F843154612F003020646F4
:108BC0000F4607D0214C013A002354F82220FFF72A
:108BD00080FE0746AD1035D0746A3CB91020FCF712
:108BE00083FCC0E9014470620460C460D6F824804C
:108BF000D8F808404CB940F271213046FFF735FFF4
:108C00000023C8F80800044603604FF00009EB0792
:108C10000AD5394622463046FFF730FF39468046AE
:108C20003046FFF73FFE47466D100BD0206838B93D
:108C3000224621463046FFF721FF2060C0F8009011
:108C40000446E4E73846BDE8F88300BF00990D000C
:108C50002DE9F0470C464968236903EB6218A368C5
:108C6000074691464FEA621A08F10106B3423FDB1C
:108C70003846FFF7E3FD0023054600F1140100F13B
:108C800010021846534536DB20692AEAEA7A04F1D5
:108C9000140319F01F0901EB8A0103EB800C2ED09D
:108CA000C9F1200E8A460022186800FA09F0024332
:108CB0004AF8042B53F8042B9C4522FA0EF2F3D801
:108CC000ACEB0403153B23F00303043304F115005C
:108CD000604588BF0423CA500AB108F10206013E6C
:108CE00038462E612146FFF7DDFD2846BDE8F087B6
:108CF00001315B00BAE742F8040F0133C2E70439DF
:108D000053F8042B41F8042F9C45F9D8E7E730B518
:108D100002690C69121B0ED100F11403143103EB2C
:108D2000840001EB840150F8045D51F8044DA54224
:108D300003D005D30122104630BD8342F3D3FAE7B6
:108D40004FF0FF32F7E72DE9F84F0C460646114683
:108D500020461746FFF7DBFF051E08D1294630469F
:108D6000FFF76CFD0123C0E90435BDE8F88FA4BF0F
:108D70003B46274630467968A6BF1C46002501259C
:108D8000FFF75CFD3E69C560256907F1140104F138
:108D9000140900F1140E07F1100201EB860C09EB27
:108DA0008505F246002759F8043B52F804BF1FFA24
:108DB00083F817FA8BF71B0CA7EB0808C3EB1B43D0
:108DC00003EB28431FFA88F81F144D4548EA034374
:108DD0004AF8043BE7D82B1B153B23F0030304336D
:108DE0001534A54238BF0423194473449E460D46EA
:108DF00065450ED30CF10302521A22F00302033927
:108E00008C4538BF00221A4452F8043D7BB10661FC
:108E1000ABE755F8048B17FA88F4221402EB1842DA
:108E2000A4B244EA02444EF8044B1714E0E7013EB2
:108E3000EAE7000082B08DED000B019B124919405A
:108E4000A1F15071002905DD00220B4643EC102BE7
:108E500002B070474942B1F1A07F4FEA21504FF074
:108E600000024FF0000304DA4FF4002141FA00F34E
:108E7000ECE7A0F114011E29DABF4FF0004020FA00
:108E800001F101210A46E1E70000F07FF8B505692C
:108E900000F1140707EB85052E1F55F8044C2046FA
:108EA000FFF793FDC0F120030A28DFF87CC00B60B8
:108EB00014DCC0F10B0E24FA0EF1B74241EA0C03A8
:108EC00034BF55F8081C0021153004FA00F021FACF
:108ED0000EF140EA010243EC102BF8BDB7423ABF55
:108EE00055F8081CA5F1080600210B3817D0C0F171
:108EF000200C04FA00F5BE4221FA0CF445EA040500
:108F00008CBF56F8044C002445F07F5301FA00F062
:108F100024FA0CF443F4401340EA0402DBE744EA89
:108F20000C030A46D7E700BF0000F03F2DE9F743E6
:108F30008946012157EC106B9046FFF77FFCC7F381
:108F40000A550446C7F3130335BB002E019328D0FE
:108F500068460096FFF759FD009900B3019AC0F1E9
:108F6000200302FA03F30B43C24063610192019BA9
:108F7000A361002B14BF022201222261D5B1A5F208
:108F800033450544C9F80050C0F13500C8F8000069
:108F9000204603B0BDE8F08343F48013D5E7616158
:108FA000E5E701A8FFF731FD019B63610122226122
:108FB0002030E3E704EB8203A0F23240C9F800005E
:108FC0001869FFF702FDC0EB4210DFE72DE9F74F0C
:108FD000884669468146FFF759FF01A9404655EC8E
:108FE000104BFFF753FFD9F81030D8F81020A3EB3F
:108FF000020CDDE900329B1A03EB4C1351EC100B11
:10900000002BD6BF0A462A46C3EB03338B462F46B6
:10901000D4BF02EB035B02EB0357204610EE102A8D
:109020005B463946FDF738FF41EC100B03B0BDE855
:10903000F08F013970B549111469013102F114033F
:1090400000EB810103EB8404051FA3420CD3A31A98
:10905000113B23F003031132A24288BF00231844BE
:109060000023884205D370BD53F8046B45F8046FA4
:10907000EBE740F8043BF4E700F1140200694B1100
:10908000984210B511DB0ADD11F01F0107D052F82C
:10909000234024FA01F000FA01F18C420BD102EBDB
:1090A0008303934203D8002010BD0346F7E753F82B
:1090B000041D0029F5D00120F6E713B54A431146F7
:1090C0000192FCF739FA044618B1019A0021FEF723
:1090D00005F9204602B010BD9FED010B704700BF9F
:1090E000000000000000F87F49B1FF2A85BF8A23F5
:1090F00003600A704FF0FF3098BF012070470846A8
:109100007047000038B50022002304460D46FEF7E4
:109110000BF828B920462946BDE83840FEF79CB830
:10912000204605F10041FEF797F8404261EB41010E
:1091300038BD00BF21400D005D400D0085400D0091
:1091400089400D0000000000556E6B6E6F776E0059
:109150004E6F74204368617267696E67004368618F
:1091600072676564004469736368617267696E67FA
:10917000004661756C74004469636F6E6E6563745C
:10918000656400322E30300054656D705F4D61783B
:10919000203A2025332E31660054656D705F4D698D
:1091A00078203A2025332E31660048756D69646950
:1091B00074795F4D61783A2025332E316600487509
:1091C0006D69646974795F4D696E203A2025332E8C
:1091D0003166007B2254656D7065726174757265CD
:1091E000223A25342E31662C202248756D69646937
:1091F0007479223A25342E31662C224261747465CA
:109200007279223A25697D0073746F726167652DEA
:10921000666163696C6974792D686F6F6B004E6F5E
:10922000204461746100556269646F747320486FF3
:109230006F6B00526573706F6E7365205265636566
:10924000697665640053746174650025342E316657
:109250002A430025342E3166252500256920252541
:10926000004661696C656420746F20706572666F7A
:10927000726D2072656164696E67203A28004C6FD8
:1092800067004661696C656420746F2074616B656A
:109290002072656164696E67210053485433312040
:1092A000746573740052656C656173650074656DF7
:1092B00070657261747572650068756D6964697452
:1092C000790074656D70657261747572652D557085
:1092D0007065720074656D70657261747572652D6C
:1092E0006C6F7765720068756D69646974792D7546
:1092F000707065720068756D69646974792D6C6F42
:1093000077657200426174746572790042617474A9
:10931000657279436F6E74657874004D656173751D
:1093200072652D4E6F7700566572626F73652D4DB5
:109330006F64650054656D702D55707065722D4CAD
:10934000696D69740054656D702D4C6F7765722D71
:109350004C696D69740048756D69646974792D4C48
:109360006F7765722D4C696D69740048756D69641D
:1093700074792D75707065722D4C696D6974004536
:1093800072726F72202D20534854333120496E6918
:109390007469616C697A6174696F6E00436F756C92
:1093A000646E27742066696E64205348543331001C
:1093B0004661696C656420746F20636F6E6E6563CF
:1093C000740053746172747570007B22616C6572F5
:1093D000742D74656D7065726174757265223A25BD
:1093E000342E31667D0063632D616C6572742D7758
:1093F0006562686F6F6B007B22616C6572742D68AB
:10940000756D6964697479223A25342E31667D0060
:1094100053657420566572626F7365204D6F646585
:1094200000436C656172656420566572626F736596
:10943000204D6F64650046726F6D20257320746F38
:10944000202573005374617465205472616E7369D2
:1094500074696F6E004572726F722074616B696E11
:1094600067204D6561737572656D656E7473007309
:109470007061726B2F6465766963652F73657373B2
:10948000696F6E2F656E64004572726F722053743F
:10949000617465202D205265736574005570706588
:1094A00072205468726573686F6C64205365740031
:1094B0004C6F776572205468726573686F6C6420B6
:1094C0005365740048910D0050910D0054910D00AA
:1094D0005D910D0065910D0071910D0077910D006A
:1094E000537461727475702053756363657373662A
:1094F000756C00000000000000000000000000008B
:10950000000000000000000000000000000000005B
:10951000000000000000000000000000000000004B
:1095200000000000000000003B560D0031560D0009
:1095300027560D00DD550D001B560D000F560D0072
:1095400003560D00FB550D00F1550D00E7550D00BC
:10955000015F0D00000000000000000075560D00C6
:109560007B560D00CB560D0089560D0077560D0029
:1095700000000000000000008F5C0D00855C0D0005
:109580007B5C0D00715C0D00655C0D00595C0D008D
:109590004D5C0D00455C0D003B5C0D00315C0D0029
:1095A000015F0D000000000000000000AD5C0D0038
:1095B000F75C0D00CF5C0D00AF5C0D00D75C0D00BB
:1095C000DF5C0D00E75C0D00EF5C0D0000000000AB
:1095D00000000000B35D0D00A35D0D00A55D0D0052
:1095E000617070000000000000000000995E0D0036
:1095F000A35E0D00AD5E0D00B75E0D00C15E0D00F7
:10960000CD5E0D00D95E0D00E55E0D00ED5E0D0036
:10961000F75E0D00015F0D0025592D256D2D256488
:109620005425483A254D3A2553257A0061736374D1
:10963000696D65000000000000000000D9630D00A6
:1096400045640D001D640D00E95F0D00ED630D0024
:1096500009640D00FB630D0017640D00DB630D0052
:10966000DF630D000000000000000000D9640D0061
:1096700041650D0017650D00E95F0D0009650D00DE
:10968000DB640D00EB640D003B650D00FB640D0019
:10969000D5640D00006E6600696E69747900616EB4
:1096A0000000000035000000CEFBFFFFCB030000F0
:1096B000010000000000000034000000CEFBFFFFAE
:1096C000CB030000010000000000000000000000CB
:1096D000BC89D897B2D29C3C33A7A8D523F6493988
:1096E0003DA7F444FD0FA5329D978CCF08BA5B25AA
:1096F000436FAC6428066811002020202020202021
:109700002020282828282820202020202020202031
:109710002020202020202020208810101010101041
:10972000101010101010101010040404040404048D
:109730000404041010101010101041414141414127
:109740000101010101010101010101010101010109
:109750000101010110101010101042424242424219
:1097600002020202020202020202020202020202D9
:109770000202020210101010200000000000000081
:1097800000000000000000000000000000000000D9
:1097900000000000000000000000000000000000C9
:1097A00000000000000000000000000000000000B9
:1097B00000000000000000000000000000000000A9
:1097C0000000000000000000000000000000000099
:1097D0000000000000000000000000000000000089
:1097E0000000000000000000000000000000000079
:1097F0000000000000000000002E0000F9970D009E
:1098000099920D0028E30320504F5349580000005F
:109810000080E03779C34143176E05B5B5B893466C
:10982000F5F93FE9034F384D321D30F94877825A38
:109830003CBF737FDD4F1575000000000000F03F56
:10984000000000000000244000000000000059401B
:109850000000000000408F40000000000088C3406E
:1098600000000000006AF8400000000080842E41E3
:1098700000000000D01263410000000084D797412F
:109880000000000065CDCD41000000205FA0024235
:10989000000000E876483742000000A2941A6D42AA
:1098A000000040E59C30A2420000901EC4BCD6429D
:1098B00000003426F56B0C430080E03779C3414348
:1098C00000A0D8855734764300C84E676DC1AB43BE
:1098D000003D9160E458E143408CB5781DAF1544DC
:1098E00050EFE2D6E41A4B4492D54D06CFF08044B7
:1098F000F64AE1C7022DB544B49DD9794378EA44CC
:1099000005000000190000007D000000A54D0D00BD
:10991000B5550D0045560D00995C0D00895E0D0092
:10992000D55F0D00B5600D0079620D00C5630D00B7
:049930000000000033
:109934000100000083910D00496E697469616C69CE
:109944007A65000000000000000000000000000034
:1099540000004572726F72000000000000000000F9
:1099640000000000000000000000000049646C6575
:1099740000000000000000000000000000000000E3
:109984000000000000004D6561737572696E670028
:1099940000000000000000000000000000000000C3
:1099A4005468726573686F6C642043726F73736577
:1099B400640000000000000000005265706F7274C3
:1099C400696E670000000000000000000000000055
:1099D40000000000526573706F6E736520576169F3
:1099E40074000000000000000000000000000000FF
:1099F4000000000000000000000000000000000063
:109A040000000000000000000000F0410100000020
:109A14002C960D00C8E203200000000000000000A6
:109A24000000000000000000000000000000000032
:109A34000000000000000000000000000000000022
:109A44000000000000000000000000000000000012
:109A54000000000000000000000000000000000002
:109A640000000000000000000000000000000000F2
:109A74000000000000000000FF00000043000000A0
:109A840000000000000000000000000000000000D2
:109A9400000000000000000000000000430000007F
:109AA40000000000000000000000000000000000B2
:109AB400000000000000000000000000430000005F
:109AC4000000000000000000000000000000000092
